{
  "_format": "hh-sol-artifact-1",
  "contractName": "Verifier_signature_sha1_sha1_sha1_ecdsa_brainpoolP224r1",
  "sourceName": "contracts/verifiers/signature/Verifier_signature_sha1_sha1_sha1_ecdsa_brainpoolP224r1.sol",
  "abi": [
    {
      "inputs": [
        {
          "internalType": "uint256[2]",
          "name": "_pA",
          "type": "uint256[2]"
        },
        {
          "internalType": "uint256[2][2]",
          "name": "_pB",
          "type": "uint256[2][2]"
        },
        {
          "internalType": "uint256[2]",
          "name": "_pC",
          "type": "uint256[2]"
        },
        {
          "internalType": "uint256[3]",
          "name": "_pubSignals",
          "type": "uint256[3]"
        }
      ],
      "name": "verifyProof",
      "outputs": [
        {
          "internalType": "bool",
          "name": "",
          "type": "bool"
        }
      ],
      "stateMutability": "view",
      "type": "function"
    }
  ],
  "bytecode": "0x6080604052348015600f57600080fd5b506106198061001f6000396000f3fe608060405234801561001057600080fd5b506004361061002b5760003560e01c806311479fea14610030575b600080fd5b61004361003e36600461057c565b610057565b604051901515815260200160405180910390f35b600061051a565b7f30644e72e131a029b85045b68181585d2833e84879b9709143e1f593f0000001811061008f576000805260206000f35b50565b600060405183815284602082015285604082015260408160608360076107d05a03fa9150816100c5576000805260206000f35b825160408201526020830151606082015260408360808360066107d05a03fa915050806100f6576000805260206000f35b5050505050565b7f24abcb4b423119156cbb5ce171da994a759161964522ca8d3d044a4fa84dc23585527f143e6a6b0c633a3f780ab9c51410b87d1fbbb60bc0b09a9f30c3f3d2a170cbdf60208601526000608086018661019a87357f10c1f12e34a82a09ffb821a1ae2e2cd7cd12b346b092a8c04360a78589f3987e7f2590326f6e0281cbded52df4fa808bec82d36c83dd76d48b09b3a8c5139e1fd084610092565b6101ea60208801357f2091d9e44dc9ac2291e1f48c4ed24689e1569161e5b4f6e6ac69e78baf0745337f2538ce075744d1cc9f8da64bbdd30089323410b3e7167fd01992d1257d3a349384610092565b61023a60408801357f24ae022c4ac729b80c107c259ec24ce81ca78481f8d233109c2076d6e273bbd77f222b4506fc366a144b6531fad9d8f3f4882eabd944bff708a0e8afa51c21b56d84610092565b50823581527f30644e72e131a029b85045b68181585d97816a916871ca8d3c208c16d87cfd4760208401357f30644e72e131a029b85045b68181585d97816a916871ca8d3c208c16d87cfd4703066020820152833560408201526020840135606082015260408401356080820152606084013560a08201527f2d4d9aa7e302d9df41749d5507949d05dbea33fbb16c643b22f599a2be6df2e260c08201527f14bedd503c37ceb061d8ec60209fe345ce89830a19230301f076caff004d192660e08201527f0967032fcbf776d1afc985f88877f182d38480a653f2decaa9794cbc3bf3060c6101008201527f0e187847ad4c798374d0d6732bf501847dd68bc0e071241e0213bc7fc13db7ab6101208201527f304cfbd1e08a704a99f5e847d93f8c3caafddec46b7a0d379da69a4d112346a76101408201527f1739c1b1a457a8c7313123d24d2f9192f896b7c63eea05a9d57f06547ad0cec8610160820152600087015161018082015260206000018701516101a08201527f198e9393920d483a7260bfb731fb5d25f1aa493335a9e71297e485b7aef312c26101c08201527f1800deef121f1e76426a00665e5c4479674322d4f75edadd46debd5cd992f6ed6101e08201527f090689d0585ff075ec9e99ad690c3395bc4b313370b38ef355acdadcd122975b6102008201527f12c85ea5db8c6deb4aab71808dcb408fe3d1e7690c43d37b4ce6cc0166fa7daa610220820152843561024082015260208501356102608201527f222b827ae93259a015235ca7e42e5fd6fb51789acbae27aa9cd30daaf1aef7406102808201527f1644daa56d6565466af6721af2f78d0b3482f08504a50a3a9f8209ee81fc9d3f6102a08201527f2200b1c7c7be9f55a6a4b8c3289e3ff1fe2ccfc94628ea0f193cc2e5dda639fa6102c08201527f1513ccb36efcfc803d70eabc5980a49cb2874ff06c7d849dd166c7c79e5c93326102e08201526020816103008360086107d05a03fa9051169695505050505050565b6040516103808101604052610532600084013561005e565b61053f602084013561005e565b61054c604084013561005e565b610559818486888a6100fd565b90508060005260206000f35b806040810183101561057657600080fd5b92915050565b600080600080610160858703121561059357600080fd5b61059d8686610565565b935060c08501868111156105b057600080fd5b6040860193506105c08782610565565b92505085610160860111156105d457600080fd5b5091949093509091610100019056fea264697066735822122036aaabd0cff39452458ab1eee23edb364816a86e1c6d606384ae4ff2417e44ab64736f6c634300081b0033",
  "linkReferences": {},
  "deployedLinkReferences": {}
}