{
  "_format": "hh-sol-artifact-1",
  "contractName": "Verifier_dsc_sha512_rsa_65537_4096",
  "sourceName": "contracts/verifiers/dsc/Verifier_dsc_sha512_rsa_65537_4096.sol",
  "abi": [
    {
      "inputs": [
        {
          "internalType": "uint256[2]",
          "name": "_pA",
          "type": "uint256[2]"
        },
        {
          "internalType": "uint256[2][2]",
          "name": "_pB",
          "type": "uint256[2][2]"
        },
        {
          "internalType": "uint256[2]",
          "name": "_pC",
          "type": "uint256[2]"
        },
        {
          "internalType": "uint256[2]",
          "name": "_pubSignals",
          "type": "uint256[2]"
        }
      ],
      "name": "verifyProof",
      "outputs": [
        {
          "internalType": "bool",
          "name": "",
          "type": "bool"
        }
      ],
      "stateMutability": "view",
      "type": "function"
    }
  ],
  "bytecode": "0x6080604052348015600f57600080fd5b506105b58061001f6000396000f3fe608060405234801561001057600080fd5b506004361061002b5760003560e01c8063f5c9d69e14610030575b600080fd5b61004361003e36600461051f565b610057565b604051901515815260200160405180910390f35b60006104ca565b7f30644e72e131a029b85045b68181585d2833e84879b9709143e1f593f0000001811061008f576000805260206000f35b50565b600060405183815284602082015285604082015260408160608360076107d05a03fa9150816100c5576000805260206000f35b825160408201526020830151606082015260408360808360066107d05a03fa915050806100f6576000805260206000f35b5050505050565b7f090814a9930383ec55ed06bf2a8d778732a3aa0e4f3b4cd240b2d95d17131fe985527f190f7802c879c69cb87ef8e812d7fe1bbd2e325121fb944317022fafb81d0c3760208601526000608086018661019a87357f1887e60c34d630455d6e4d43ec0de73623ae3d60a344d3f857604bd41757588c7f262bc04fc95ec03d157e401657aa097939cdd982af23bd3253852166eadd872484610092565b6101ea60208801357f2dfe41b2307c11c9c1923f25df2ecda860bf6a5d9bdb5f042d36c30257b6f1f27f138f23efc2b311bd139aa481a80a96a2927ac2b121013c79936d48f682eee0dd84610092565b50823581527f30644e72e131a029b85045b68181585d97816a916871ca8d3c208c16d87cfd4760208401357f30644e72e131a029b85045b68181585d97816a916871ca8d3c208c16d87cfd4703066020820152833560408201526020840135606082015260408401356080820152606084013560a08201527f2d4d9aa7e302d9df41749d5507949d05dbea33fbb16c643b22f599a2be6df2e260c08201527f14bedd503c37ceb061d8ec60209fe345ce89830a19230301f076caff004d192660e08201527f0967032fcbf776d1afc985f88877f182d38480a653f2decaa9794cbc3bf3060c6101008201527f0e187847ad4c798374d0d6732bf501847dd68bc0e071241e0213bc7fc13db7ab6101208201527f304cfbd1e08a704a99f5e847d93f8c3caafddec46b7a0d379da69a4d112346a76101408201527f1739c1b1a457a8c7313123d24d2f9192f896b7c63eea05a9d57f06547ad0cec8610160820152600087015161018082015260206000018701516101a08201527f198e9393920d483a7260bfb731fb5d25f1aa493335a9e71297e485b7aef312c26101c08201527f1800deef121f1e76426a00665e5c4479674322d4f75edadd46debd5cd992f6ed6101e08201527f090689d0585ff075ec9e99ad690c3395bc4b313370b38ef355acdadcd122975b6102008201527f12c85ea5db8c6deb4aab71808dcb408fe3d1e7690c43d37b4ce6cc0166fa7daa610220820152843561024082015260208501356102608201527f078a6ab29557ea3fc9072f13a2e5ddb63cbe63064bc8af0533d2a6905426d16e6102808201527f1a4dcc73653bdc3b5acd0a230bc5b86b95a3421bcd900d3d2bffdef56cd6ee1c6102a08201527f0774dffed00859b2365ff086b2b5be93bfc1379570e11486ad76d71d762284d86102c08201527f29139e5871505cb7733fb6d32f1e0890abfd1105a055b7df4545fe5fe51d672d6102e08201526020816103008360086107d05a03fa9051169695505050505050565b60405161038081016040526104e2600084013561005e565b6104ef602084013561005e565b6104fc818486888a6100fd565b90508060005260206000f35b806040810183101561051957600080fd5b92915050565b600080600080610140858703121561053657600080fd5b6105408686610508565b935060c085018681111561055357600080fd5b6040860193506105638782610508565b925050610574866101008701610508565b90509295919450925056fea26469706673582212208b99d9df7e7d632c22ef47ded86e690a8755d0de191d37576e2925e8288423ac64736f6c634300081b0033",
  "linkReferences": {},
  "deployedLinkReferences": {}
}