{
  "_format": "hh-sol-artifact-1",
  "contractName": "Verifier_credential_sha256",
  "sourceName": "contracts/verifiers/credential/Verifier_credential_sha256.sol",
  "abi": [
    {
      "inputs": [
        {
          "internalType": "uint256[2]",
          "name": "_pA",
          "type": "uint256[2]"
        },
        {
          "internalType": "uint256[2][2]",
          "name": "_pB",
          "type": "uint256[2][2]"
        },
        {
          "internalType": "uint256[2]",
          "name": "_pC",
          "type": "uint256[2]"
        },
        {
          "internalType": "uint256[6]",
          "name": "_pubSignals",
          "type": "uint256[6]"
        }
      ],
      "name": "verifyProof",
      "outputs": [
        {
          "internalType": "bool",
          "name": "",
          "type": "bool"
        }
      ],
      "stateMutability": "view",
      "type": "function"
    }
  ],
  "bytecode": "0x6080604052348015600f57600080fd5b5061072f8061001f6000396000f3fe608060405234801561001057600080fd5b506004361061002b5760003560e01c8063f398789b14610030575b600080fd5b61004361003e366004610692565b610057565b604051901515815260200160405180910390f35b6000610609565b7f30644e72e131a029b85045b68181585d2833e84879b9709143e1f593f0000001811061008f576000805260206000f35b50565b600060405183815284602082015285604082015260408160608360076107d05a03fa9150816100c5576000805260206000f35b825160408201526020830151606082015260408360808360066107d05a03fa915050806100f6576000805260206000f35b5050505050565b7f21db212dc1af929f2aa7e7c37ee4db3dcda3cb35bfcd29edff5d16c71bbc8ad085527f1499db7cb053e14f405767e75c8357d076a49cc416c67ab3e71739663cd79a1960208601526000608086018661019a87357f16e0f810bc8f43f6a1e56e7a6dae46b7cc3307ba0438d3c495a6e1282dad0d857f1ca30179b35ab268caacf134e0ab75a393d85bee933db3cc7c547213c1b4be6684610092565b6101ea60208801357f0f9e829a87d0195af4288b04259fad8874ef48a9ab510da98405c13bf638936b7f0372e5180017f7522787c9d89e2cf8efe3a4cb0327bc7929126c131307489aa084610092565b61023a60408801357f14f370f97b27a1d17fbc89a072595e417aa2c8a7bebe12a7029ff06ffb0599757f1177e2c499d2f80b67aec85f599d3f1f1df505c0347521018bd16fde1db32f9484610092565b61028a60608801357f28acc213e44386a66f3fa7e61d01cb03538baf544e1e9ce92e26062345d40f2f7f2e2c853fc72a5c13b721ab289b8accbcb531d55dd46f7ccb51eaa0bdc28908db84610092565b6102da60808801357f0436abc46054a4b54f6e8299c295795160d95d2070579d85c5bec837ebf7e2917f1b6097206a7951fbfcfb146388ed0b6ddc2f0d7958fd80d75d43c1cf6625312484610092565b61032960a08801357ea28d0fae80da45f580c0f97ea7f2c944c09a60a2377148fd70eaefb15a6ad27f2d683b614b1ae352ed30c51489a5c2ef0e8a85c3ca4d05afc77e9d59b3863b5684610092565b50823581527f30644e72e131a029b85045b68181585d97816a916871ca8d3c208c16d87cfd4760208401357f30644e72e131a029b85045b68181585d97816a916871ca8d3c208c16d87cfd4703066020820152833560408201526020840135606082015260408401356080820152606084013560a08201527f2d4d9aa7e302d9df41749d5507949d05dbea33fbb16c643b22f599a2be6df2e260c08201527f14bedd503c37ceb061d8ec60209fe345ce89830a19230301f076caff004d192660e08201527f0967032fcbf776d1afc985f88877f182d38480a653f2decaa9794cbc3bf3060c6101008201527f0e187847ad4c798374d0d6732bf501847dd68bc0e071241e0213bc7fc13db7ab6101208201527f304cfbd1e08a704a99f5e847d93f8c3caafddec46b7a0d379da69a4d112346a76101408201527f1739c1b1a457a8c7313123d24d2f9192f896b7c63eea05a9d57f06547ad0cec8610160820152600087015161018082015260206000018701516101a08201527f198e9393920d483a7260bfb731fb5d25f1aa493335a9e71297e485b7aef312c26101c08201527f1800deef121f1e76426a00665e5c4479674322d4f75edadd46debd5cd992f6ed6101e08201527f090689d0585ff075ec9e99ad690c3395bc4b313370b38ef355acdadcd122975b6102008201527f12c85ea5db8c6deb4aab71808dcb408fe3d1e7690c43d37b4ce6cc0166fa7daa610220820152843561024082015260208501356102608201527f0ee24bcae90d87ff7bcfbe6ee70dbcf9688061c1f6d226fb1084f52ddfa3a23a6102808201527f1b0f66f93a2fea9f3a518a07b1c092596ef45949aa43081f0e36261e5238a4e36102a08201527f0a5a268d84682f158a5d2980a4593288edae34f5aafdfc903f032e07bae25ed66102c08201527f2369f25a437d7b02f86fa1f05985bd55dd2b7e6b34e5d665df20eb02a1fe747d6102e08201526020816103008360086107d05a03fa9051169695505050505050565b6040516103808101604052610621600084013561005e565b61062e602084013561005e565b61063b604084013561005e565b610648606084013561005e565b610655608084013561005e565b61066260a084013561005e565b61066f818486888a6100fd565b90508060005260206000f35b806040810183101561068c57600080fd5b92915050565b6000806000806101c085870312156106a957600080fd5b6106b3868661067b565b935060c08501868111156106c657600080fd5b6040860193506106d6878261067b565b925050856101c0860111156106ea57600080fd5b5091949093509091610100019056fea2646970667358221220fa7dfcf7319a6646a1721ae4491c0e896e029122e291834d4445fa5a541fb1d064736f6c634300081b0033",
  "linkReferences": {},
  "deployedLinkReferences": {}
}