{
  "_format": "hh-sol-artifact-1",
  "contractName": "Verifier_credential_sha512",
  "sourceName": "contracts/verifiers/credential/Verifier_credential_sha512.sol",
  "abi": [
    {
      "inputs": [
        {
          "internalType": "uint256[2]",
          "name": "_pA",
          "type": "uint256[2]"
        },
        {
          "internalType": "uint256[2][2]",
          "name": "_pB",
          "type": "uint256[2][2]"
        },
        {
          "internalType": "uint256[2]",
          "name": "_pC",
          "type": "uint256[2]"
        },
        {
          "internalType": "uint256[15]",
          "name": "_pubSignals",
          "type": "uint256[15]"
        }
      ],
      "name": "verifyProof",
      "outputs": [
        {
          "internalType": "bool",
          "name": "",
          "type": "bool"
        }
      ],
      "stateMutability": "view",
      "type": "function"
    }
  ],
  "bytecode": "0x6080604052348015600f57600080fd5b50610a838061001f6000396000f3fe608060405234801561001057600080fd5b506004361061002b5760003560e01c8063f054a9a314610030575b600080fd5b61004361003e3660046109e6565b610057565b604051901515815260200160405180910390f35b60006108e1565b7f30644e72e131a029b85045b68181585d2833e84879b9709143e1f593f0000001811061008f576000805260206000f35b50565b600060405183815284602082015285604082015260408160608360076107d05a03fa9150816100c5576000805260206000f35b825160408201526020830151606082015260408360808360066107d05a03fa915050806100f6576000805260206000f35b5050505050565b7f16a1353465af783efb96007936800c72c20a70ab9a486e791e1ffa937ba3744c85527f21d7b110112f1fe8792699766d6de942042ec343588ce73de7817bbf190d8b0660208601526000608086018661019a87357f01dcb8ebe7924c5d590a28f478a4f76f84e6c6027ef500cce80ff864a8a2e9e57f2a0615cc6f202445e66a67c21e278ec6bd63d80f80495a5310b20deb3264702c84610092565b6101ea60208801357f1c449ecdc1deb414d0489d2f1bd407ab8e36111fe82294148d4c353135d86e4e7f2448d3546e81ed0ca1e9ba5fd82e8a7f9bd20dfc1bc778baa078e60d17bd50cc84610092565b61023a60408801357f26225f03ae312145e887dd92ab828f85e1460032b305772c80ea226b1aa788c97f27b0a251351e96b8921f9f99fc0d42eb36fe0fbaa86a501bd55802ee7e78ed5684610092565b61028a60608801357f29ad0303e9a17ff29635daf0fa8bd5dfe2367e0780b5d7be074364628e874bc37f0330168a4a4cb2c41d61abe261111daaf8d02b5b4265a928699944aa8038958784610092565b6102da60808801357f23a2c87ace8db1329d417f83b90e7d9254fdc1ea4522ad8f8635385984a918487f1d0f812bf29301833379083a7636ab9b9ba84824464dbb70dbb83e7487970ccb84610092565b61032a60a08801357f1c675796e12cf1ab2128182373fe816836f014c728d68a389df56a5e4acffe207f18d5812b9aac3a5e22a9f3323c9c13f2d9da01f5003cbaa6f52b17deda3a625b84610092565b61037a60c08801357f05812f89c4b23a7460ac9e9184930db33376232a1dedc6623f334dfdd8b8a8e87f2d31f2dba519b13d24cda610b32b633cb8b8891dea082c34178a05c983821bd384610092565b6103ca60e08801357f24f579ed80155621a08cfbfbf6e90a8aab814b893df2568f156020d62a97b8e67f25d531023c21258f6eabe583fa6966d7e66a3621673eae20ac4cbd352edc070684610092565b61041b6101008801357f15ee6bd5393c494108f9732bdf8ef74fa3fefe10bf81138b27db62aef82fbdb37f223ee91a2b72ebf1c09795a30a9734c5f4adb62c648827f9f91238dcc5f64d8b84610092565b61046c6101208801357f161cdfc9a3d94f063b9905f8cc5b2452a232068ee31d54d1bdf08d19f05e932c7f1310bc51663449df88ece0ac39fe10865e6b4fee04c7f4a7e3cce8bf93a6d9e184610092565b6104bd6101408801357f2c53ec16a8be24728dc55100d965332095fbb4650bd84563f5f9458bd97d81fa7f0357f81677779c4215f705fb0a4641537f8ec3521e1518b6575c9429b917654384610092565b61050e6101608801357f0d186b79e2b7bb76e32be3cf168284d8c7ebf7ef8ddb93126dd2aa7163c8fb887f141abdca32a44559628318eab097b0da63423f1ba52cb774d8298f19bfcb024784610092565b61055f6101808801357f271291a8dd780dd0455922d3d08c7df972ee43702b28ca30132dcccfd071f8d57f2177ff217c135c6cd401c62a140f726a35e20d8349c6275a3ea6a4681ec56e4e84610092565b6105b06101a08801357f1778bfdd974ea68a8e261643c15e8405bc0086bacd9188bee7e829c39881b04e7f1e7c64ffdbc8b60fd03c04367e6568ef07c8c92d4de6de8f713633a6bbaca58f84610092565b6106016101c08801357f0767faefb6c9abb6df2fac30ab50189858c99b2c9785bdfce90fd5b5b1dabc237f05cba447d64afcc1e1c648bf7bca38421c11a9ce76484cbdf743fb29ec4ecffa84610092565b50823581527f30644e72e131a029b85045b68181585d97816a916871ca8d3c208c16d87cfd4760208401357f30644e72e131a029b85045b68181585d97816a916871ca8d3c208c16d87cfd4703066020820152833560408201526020840135606082015260408401356080820152606084013560a08201527f2d4d9aa7e302d9df41749d5507949d05dbea33fbb16c643b22f599a2be6df2e260c08201527f14bedd503c37ceb061d8ec60209fe345ce89830a19230301f076caff004d192660e08201527f0967032fcbf776d1afc985f88877f182d38480a653f2decaa9794cbc3bf3060c6101008201527f0e187847ad4c798374d0d6732bf501847dd68bc0e071241e0213bc7fc13db7ab6101208201527f304cfbd1e08a704a99f5e847d93f8c3caafddec46b7a0d379da69a4d112346a76101408201527f1739c1b1a457a8c7313123d24d2f9192f896b7c63eea05a9d57f06547ad0cec8610160820152600087015161018082015260206000018701516101a08201527f198e9393920d483a7260bfb731fb5d25f1aa493335a9e71297e485b7aef312c26101c08201527f1800deef121f1e76426a00665e5c4479674322d4f75edadd46debd5cd992f6ed6101e08201527f090689d0585ff075ec9e99ad690c3395bc4b313370b38ef355acdadcd122975b6102008201527f12c85ea5db8c6deb4aab71808dcb408fe3d1e7690c43d37b4ce6cc0166fa7daa610220820152843561024082015260208501356102608201527f118c4010258c2849194bc074c6df8c0cf5759ece57048bdb5e57651b8f14b9e66102808201527f2941bd57297bdd627f0b64a05619bf8cab399932365985fb48b8f3ad744a64be6102a08201527f20331c52166e5f4e46c557969286b171e306eed842933f95b8d8335b0678715a6102c08201527f23cb6794e623a0801efcd737fe3533dddc1678a3e50520086beb27d859c7d6d56102e08201526020816103008360086107d05a03fa9051169695505050505050565b60405161038081016040526108f9600084013561005e565b610906602084013561005e565b610913604084013561005e565b610920606084013561005e565b61092d608084013561005e565b61093a60a084013561005e565b61094760c084013561005e565b61095460e084013561005e565b61096261010084013561005e565b61097061012084013561005e565b61097e61014084013561005e565b61098c61016084013561005e565b61099a61018084013561005e565b6109a86101a084013561005e565b6109b66101c084013561005e565b6109c3818486888a6100fd565b90508060005260206000f35b80604081018310156109e057600080fd5b92915050565b6000806000806102e085870312156109fd57600080fd5b610a0786866109cf565b935060c0850186811115610a1a57600080fd5b604086019350610a2a87826109cf565b925050856102e086011115610a3e57600080fd5b5091949093509091610100019056fea26469706673582212203f9972083c5e8a521ef0938d05bb018c89e0059465f2e118fa402305846da32464736f6c634300081b0033",
  "linkReferences": {},
  "deployedLinkReferences": {}
}