{
  "_format": "hh-sol-artifact-1",
  "contractName": "PassportCredentialIssuerImplV1",
  "sourceName": "contracts/verifiers/PassportCredentialIssuerImplV1.sol",
  "abi": [
    {
      "inputs": [],
      "stateMutability": "nonpayable",
      "type": "constructor"
    },
    {
      "inputs": [
        {
          "internalType": "address",
          "name": "target",
          "type": "address"
        }
      ],
      "name": "AddressEmptyCode",
      "type": "error"
    },
    {
      "inputs": [
        {
          "internalType": "address",
          "name": "implementation",
          "type": "address"
        }
      ],
      "name": "ERC1967InvalidImplementation",
      "type": "error"
    },
    {
      "inputs": [],
      "name": "ERC1967NonPayable",
      "type": "error"
    },
    {
      "inputs": [],
      "name": "FailedCall",
      "type": "error"
    },
    {
      "inputs": [],
      "name": "InvalidCredentialProof",
      "type": "error"
    },
    {
      "inputs": [
        {
          "internalType": "uint256",
          "name": "hashIndex",
          "type": "uint256"
        }
      ],
      "name": "InvalidHashIndex",
      "type": "error"
    },
    {
      "inputs": [
        {
          "internalType": "uint256",
          "name": "hashValue",
          "type": "uint256"
        }
      ],
      "name": "InvalidHashValue",
      "type": "error"
    },
    {
      "inputs": [],
      "name": "InvalidInitialization",
      "type": "error"
    },
    {
      "inputs": [
        {
          "internalType": "uint256",
          "name": "linkId1",
          "type": "uint256"
        },
        {
          "internalType": "uint256",
          "name": "linkId2",
          "type": "uint256"
        }
      ],
      "name": "InvalidLinkId",
      "type": "error"
    },
    {
      "inputs": [],
      "name": "InvalidPassportSignatureProof",
      "type": "error"
    },
    {
      "inputs": [
        {
          "internalType": "uint256",
          "name": "length",
          "type": "uint256"
        },
        {
          "internalType": "uint256",
          "name": "expectedLength",
          "type": "uint256"
        }
      ],
      "name": "InvalidResponsesLength",
      "type": "error"
    },
    {
      "inputs": [
        {
          "internalType": "address",
          "name": "signer",
          "type": "address"
        }
      ],
      "name": "InvalidSignerPassportSignatureProof",
      "type": "error"
    },
    {
      "inputs": [
        {
          "internalType": "uint256",
          "name": "templateRoot",
          "type": "uint256"
        },
        {
          "internalType": "uint256",
          "name": "expectedTemplateRoot",
          "type": "uint256"
        }
      ],
      "name": "InvalidTemplateRoot",
      "type": "error"
    },
    {
      "inputs": [
        {
          "internalType": "uint256",
          "name": "issuanceDate",
          "type": "uint256"
        }
      ],
      "name": "IssuanceDateExpired",
      "type": "error"
    },
    {
      "inputs": [
        {
          "internalType": "uint256",
          "name": "length1",
          "type": "uint256"
        },
        {
          "internalType": "uint256",
          "name": "length2",
          "type": "uint256"
        }
      ],
      "name": "LengthMismatch",
      "type": "error"
    },
    {
      "inputs": [
        {
          "internalType": "uint256",
          "name": "requestId",
          "type": "uint256"
        }
      ],
      "name": "NoCredentialCircuitForRequestId",
      "type": "error"
    },
    {
      "inputs": [],
      "name": "NoVerifierSet",
      "type": "error"
    },
    {
      "inputs": [],
      "name": "NotInitializing",
      "type": "error"
    },
    {
      "inputs": [
        {
          "internalType": "uint256",
          "name": "nullifier",
          "type": "uint256"
        }
      ],
      "name": "NullifierAlreadyExists",
      "type": "error"
    },
    {
      "inputs": [
        {
          "internalType": "address",
          "name": "owner",
          "type": "address"
        }
      ],
      "name": "OwnableInvalidOwner",
      "type": "error"
    },
    {
      "inputs": [
        {
          "internalType": "address",
          "name": "account",
          "type": "address"
        }
      ],
      "name": "OwnableUnauthorizedAccount",
      "type": "error"
    },
    {
      "inputs": [],
      "name": "UUPSUnauthorizedCallContext",
      "type": "error"
    },
    {
      "inputs": [
        {
          "internalType": "bytes32",
          "name": "slot",
          "type": "bytes32"
        }
      ],
      "name": "UUPSUnsupportedProxiableUUID",
      "type": "error"
    },
    {
      "anonymous": false,
      "inputs": [
        {
          "indexed": false,
          "internalType": "string",
          "name": "circuitId",
          "type": "string"
        },
        {
          "indexed": false,
          "internalType": "address",
          "name": "verifier",
          "type": "address"
        },
        {
          "indexed": false,
          "internalType": "uint256",
          "name": "requestId",
          "type": "uint256"
        }
      ],
      "name": "CredentialCircuitVerifierUpdated",
      "type": "event"
    },
    {
      "anonymous": false,
      "inputs": [],
      "name": "EIP712DomainChanged",
      "type": "event"
    },
    {
      "anonymous": false,
      "inputs": [
        {
          "indexed": false,
          "internalType": "uint256",
          "name": "expirationTime",
          "type": "uint256"
        }
      ],
      "name": "ExpirationTimeUpdated",
      "type": "event"
    },
    {
      "anonymous": false,
      "inputs": [
        {
          "indexed": false,
          "internalType": "uint64",
          "name": "version",
          "type": "uint64"
        }
      ],
      "name": "Initialized",
      "type": "event"
    },
    {
      "anonymous": false,
      "inputs": [
        {
          "indexed": true,
          "internalType": "address",
          "name": "previousOwner",
          "type": "address"
        },
        {
          "indexed": true,
          "internalType": "address",
          "name": "newOwner",
          "type": "address"
        }
      ],
      "name": "OwnershipTransferStarted",
      "type": "event"
    },
    {
      "anonymous": false,
      "inputs": [
        {
          "indexed": true,
          "internalType": "address",
          "name": "previousOwner",
          "type": "address"
        },
        {
          "indexed": true,
          "internalType": "address",
          "name": "newOwner",
          "type": "address"
        }
      ],
      "name": "OwnershipTransferred",
      "type": "event"
    },
    {
      "anonymous": false,
      "inputs": [
        {
          "indexed": false,
          "internalType": "address",
          "name": "signer",
          "type": "address"
        }
      ],
      "name": "SignerAdded",
      "type": "event"
    },
    {
      "anonymous": false,
      "inputs": [
        {
          "indexed": false,
          "internalType": "uint256",
          "name": "tampletRoot",
          "type": "uint256"
        }
      ],
      "name": "TemplateRootUpdated",
      "type": "event"
    },
    {
      "anonymous": false,
      "inputs": [
        {
          "indexed": true,
          "internalType": "address",
          "name": "implementation",
          "type": "address"
        }
      ],
      "name": "Upgraded",
      "type": "event"
    },
    {
      "inputs": [],
      "name": "DOMAIN_VERSION",
      "outputs": [
        {
          "internalType": "string",
          "name": "",
          "type": "string"
        }
      ],
      "stateMutability": "view",
      "type": "function"
    },
    {
      "inputs": [],
      "name": "PASSPORT_CREDENTIAL_MESSAGE_TYPEHASH",
      "outputs": [
        {
          "internalType": "bytes32",
          "name": "",
          "type": "bytes32"
        }
      ],
      "stateMutability": "view",
      "type": "function"
    },
    {
      "inputs": [],
      "name": "UPGRADE_INTERFACE_VERSION",
      "outputs": [
        {
          "internalType": "string",
          "name": "",
          "type": "string"
        }
      ],
      "stateMutability": "view",
      "type": "function"
    },
    {
      "inputs": [],
      "name": "VERSION",
      "outputs": [
        {
          "internalType": "string",
          "name": "",
          "type": "string"
        }
      ],
      "stateMutability": "view",
      "type": "function"
    },
    {
      "inputs": [],
      "name": "acceptOwnership",
      "outputs": [],
      "stateMutability": "nonpayable",
      "type": "function"
    },
    {
      "inputs": [
        {
          "internalType": "address[]",
          "name": "signers",
          "type": "address[]"
        }
      ],
      "name": "addSigners",
      "outputs": [],
      "stateMutability": "nonpayable",
      "type": "function"
    },
    {
      "inputs": [
        {
          "internalType": "uint256",
          "name": "nullifier",
          "type": "uint256"
        }
      ],
      "name": "cleanNullifier",
      "outputs": [],
      "stateMutability": "nonpayable",
      "type": "function"
    },
    {
      "inputs": [
        {
          "internalType": "string",
          "name": "circuitId",
          "type": "string"
        }
      ],
      "name": "credentialCircuitIdToRequestIds",
      "outputs": [
        {
          "internalType": "uint256",
          "name": "",
          "type": "uint256"
        }
      ],
      "stateMutability": "view",
      "type": "function"
    },
    {
      "inputs": [
        {
          "internalType": "uint256",
          "name": "requestId",
          "type": "uint256"
        }
      ],
      "name": "credentialRequestIdToCircuitIds",
      "outputs": [
        {
          "internalType": "string",
          "name": "",
          "type": "string"
        }
      ],
      "stateMutability": "view",
      "type": "function"
    },
    {
      "inputs": [
        {
          "internalType": "string",
          "name": "circuitId",
          "type": "string"
        }
      ],
      "name": "credentialVerifiers",
      "outputs": [
        {
          "internalType": "address",
          "name": "",
          "type": "address"
        }
      ],
      "stateMutability": "view",
      "type": "function"
    },
    {
      "inputs": [],
      "name": "eip712Domain",
      "outputs": [
        {
          "internalType": "bytes1",
          "name": "fields",
          "type": "bytes1"
        },
        {
          "internalType": "string",
          "name": "name",
          "type": "string"
        },
        {
          "internalType": "string",
          "name": "version",
          "type": "string"
        },
        {
          "internalType": "uint256",
          "name": "chainId",
          "type": "uint256"
        },
        {
          "internalType": "address",
          "name": "verifyingContract",
          "type": "address"
        },
        {
          "internalType": "bytes32",
          "name": "salt",
          "type": "bytes32"
        },
        {
          "internalType": "uint256[]",
          "name": "extensions",
          "type": "uint256[]"
        }
      ],
      "stateMutability": "view",
      "type": "function"
    },
    {
      "inputs": [
        {
          "internalType": "uint256",
          "name": "claimIndexHash",
          "type": "uint256"
        }
      ],
      "name": "getClaimProof",
      "outputs": [
        {
          "components": [
            {
              "internalType": "uint256",
              "name": "root",
              "type": "uint256"
            },
            {
              "internalType": "bool",
              "name": "existence",
              "type": "bool"
            },
            {
              "internalType": "uint256[]",
              "name": "siblings",
              "type": "uint256[]"
            },
            {
              "internalType": "uint256",
              "name": "index",
              "type": "uint256"
            },
            {
              "internalType": "uint256",
              "name": "value",
              "type": "uint256"
            },
            {
              "internalType": "bool",
              "name": "auxExistence",
              "type": "bool"
            },
            {
              "internalType": "uint256",
              "name": "auxIndex",
              "type": "uint256"
            },
            {
              "internalType": "uint256",
              "name": "auxValue",
              "type": "uint256"
            }
          ],
          "internalType": "struct SmtLib.Proof",
          "name": "",
          "type": "tuple"
        }
      ],
      "stateMutability": "view",
      "type": "function"
    },
    {
      "inputs": [
        {
          "internalType": "uint256",
          "name": "claimIndexHash",
          "type": "uint256"
        },
        {
          "internalType": "uint256",
          "name": "root",
          "type": "uint256"
        }
      ],
      "name": "getClaimProofByRoot",
      "outputs": [
        {
          "components": [
            {
              "internalType": "uint256",
              "name": "root",
              "type": "uint256"
            },
            {
              "internalType": "bool",
              "name": "existence",
              "type": "bool"
            },
            {
              "internalType": "uint256[]",
              "name": "siblings",
              "type": "uint256[]"
            },
            {
              "internalType": "uint256",
              "name": "index",
              "type": "uint256"
            },
            {
              "internalType": "uint256",
              "name": "value",
              "type": "uint256"
            },
            {
              "internalType": "bool",
              "name": "auxExistence",
              "type": "bool"
            },
            {
              "internalType": "uint256",
              "name": "auxIndex",
              "type": "uint256"
            },
            {
              "internalType": "uint256",
              "name": "auxValue",
              "type": "uint256"
            }
          ],
          "internalType": "struct SmtLib.Proof",
          "name": "",
          "type": "tuple"
        }
      ],
      "stateMutability": "view",
      "type": "function"
    },
    {
      "inputs": [
        {
          "internalType": "uint256",
          "name": "claimIndexHash",
          "type": "uint256"
        }
      ],
      "name": "getClaimProofWithStateInfo",
      "outputs": [
        {
          "components": [
            {
              "internalType": "uint256",
              "name": "root",
              "type": "uint256"
            },
            {
              "internalType": "bool",
              "name": "existence",
              "type": "bool"
            },
            {
              "internalType": "uint256[]",
              "name": "siblings",
              "type": "uint256[]"
            },
            {
              "internalType": "uint256",
              "name": "index",
              "type": "uint256"
            },
            {
              "internalType": "uint256",
              "name": "value",
              "type": "uint256"
            },
            {
              "internalType": "bool",
              "name": "auxExistence",
              "type": "bool"
            },
            {
              "internalType": "uint256",
              "name": "auxIndex",
              "type": "uint256"
            },
            {
              "internalType": "uint256",
              "name": "auxValue",
              "type": "uint256"
            }
          ],
          "internalType": "struct SmtLib.Proof",
          "name": "",
          "type": "tuple"
        },
        {
          "components": [
            {
              "internalType": "uint256",
              "name": "state",
              "type": "uint256"
            },
            {
              "internalType": "uint256",
              "name": "claimsRoot",
              "type": "uint256"
            },
            {
              "internalType": "uint256",
              "name": "revocationsRoot",
              "type": "uint256"
            },
            {
              "internalType": "uint256",
              "name": "rootsRoot",
              "type": "uint256"
            }
          ],
          "internalType": "struct IdentityLib.StateInfo",
          "name": "",
          "type": "tuple"
        }
      ],
      "stateMutability": "view",
      "type": "function"
    },
    {
      "inputs": [],
      "name": "getClaimsTreeRoot",
      "outputs": [
        {
          "internalType": "uint256",
          "name": "",
          "type": "uint256"
        }
      ],
      "stateMutability": "view",
      "type": "function"
    },
    {
      "inputs": [],
      "name": "getExpirationTime",
      "outputs": [
        {
          "internalType": "uint256",
          "name": "",
          "type": "uint256"
        }
      ],
      "stateMutability": "view",
      "type": "function"
    },
    {
      "inputs": [],
      "name": "getId",
      "outputs": [
        {
          "internalType": "uint256",
          "name": "",
          "type": "uint256"
        }
      ],
      "stateMutability": "view",
      "type": "function"
    },
    {
      "inputs": [],
      "name": "getIsOldStateGenesis",
      "outputs": [
        {
          "internalType": "bool",
          "name": "",
          "type": "bool"
        }
      ],
      "stateMutability": "view",
      "type": "function"
    },
    {
      "inputs": [],
      "name": "getLatestPublishedClaimsRoot",
      "outputs": [
        {
          "internalType": "uint256",
          "name": "",
          "type": "uint256"
        }
      ],
      "stateMutability": "view",
      "type": "function"
    },
    {
      "inputs": [],
      "name": "getLatestPublishedRevocationsRoot",
      "outputs": [
        {
          "internalType": "uint256",
          "name": "",
          "type": "uint256"
        }
      ],
      "stateMutability": "view",
      "type": "function"
    },
    {
      "inputs": [],
      "name": "getLatestPublishedRootsRoot",
      "outputs": [
        {
          "internalType": "uint256",
          "name": "",
          "type": "uint256"
        }
      ],
      "stateMutability": "view",
      "type": "function"
    },
    {
      "inputs": [],
      "name": "getLatestPublishedState",
      "outputs": [
        {
          "internalType": "uint256",
          "name": "",
          "type": "uint256"
        }
      ],
      "stateMutability": "view",
      "type": "function"
    },
    {
      "inputs": [
        {
          "internalType": "uint64",
          "name": "revocationNonce",
          "type": "uint64"
        }
      ],
      "name": "getRevocationProof",
      "outputs": [
        {
          "components": [
            {
              "internalType": "uint256",
              "name": "root",
              "type": "uint256"
            },
            {
              "internalType": "bool",
              "name": "existence",
              "type": "bool"
            },
            {
              "internalType": "uint256[]",
              "name": "siblings",
              "type": "uint256[]"
            },
            {
              "internalType": "uint256",
              "name": "index",
              "type": "uint256"
            },
            {
              "internalType": "uint256",
              "name": "value",
              "type": "uint256"
            },
            {
              "internalType": "bool",
              "name": "auxExistence",
              "type": "bool"
            },
            {
              "internalType": "uint256",
              "name": "auxIndex",
              "type": "uint256"
            },
            {
              "internalType": "uint256",
              "name": "auxValue",
              "type": "uint256"
            }
          ],
          "internalType": "struct SmtLib.Proof",
          "name": "",
          "type": "tuple"
        }
      ],
      "stateMutability": "view",
      "type": "function"
    },
    {
      "inputs": [
        {
          "internalType": "uint64",
          "name": "revocationNonce",
          "type": "uint64"
        },
        {
          "internalType": "uint256",
          "name": "root",
          "type": "uint256"
        }
      ],
      "name": "getRevocationProofByRoot",
      "outputs": [
        {
          "components": [
            {
              "internalType": "uint256",
              "name": "root",
              "type": "uint256"
            },
            {
              "internalType": "bool",
              "name": "existence",
              "type": "bool"
            },
            {
              "internalType": "uint256[]",
              "name": "siblings",
              "type": "uint256[]"
            },
            {
              "internalType": "uint256",
              "name": "index",
              "type": "uint256"
            },
            {
              "internalType": "uint256",
              "name": "value",
              "type": "uint256"
            },
            {
              "internalType": "bool",
              "name": "auxExistence",
              "type": "bool"
            },
            {
              "internalType": "uint256",
              "name": "auxIndex",
              "type": "uint256"
            },
            {
              "internalType": "uint256",
              "name": "auxValue",
              "type": "uint256"
            }
          ],
          "internalType": "struct SmtLib.Proof",
          "name": "",
          "type": "tuple"
        }
      ],
      "stateMutability": "view",
      "type": "function"
    },
    {
      "inputs": [
        {
          "internalType": "uint64",
          "name": "revocationNonce",
          "type": "uint64"
        }
      ],
      "name": "getRevocationProofWithStateInfo",
      "outputs": [
        {
          "components": [
            {
              "internalType": "uint256",
              "name": "root",
              "type": "uint256"
            },
            {
              "internalType": "bool",
              "name": "existence",
              "type": "bool"
            },
            {
              "internalType": "uint256[]",
              "name": "siblings",
              "type": "uint256[]"
            },
            {
              "internalType": "uint256",
              "name": "index",
              "type": "uint256"
            },
            {
              "internalType": "uint256",
              "name": "value",
              "type": "uint256"
            },
            {
              "internalType": "bool",
              "name": "auxExistence",
              "type": "bool"
            },
            {
              "internalType": "uint256",
              "name": "auxIndex",
              "type": "uint256"
            },
            {
              "internalType": "uint256",
              "name": "auxValue",
              "type": "uint256"
            }
          ],
          "internalType": "struct SmtLib.Proof",
          "name": "",
          "type": "tuple"
        },
        {
          "components": [
            {
              "internalType": "uint256",
              "name": "state",
              "type": "uint256"
            },
            {
              "internalType": "uint256",
              "name": "claimsRoot",
              "type": "uint256"
            },
            {
              "internalType": "uint256",
              "name": "revocationsRoot",
              "type": "uint256"
            },
            {
              "internalType": "uint256",
              "name": "rootsRoot",
              "type": "uint256"
            }
          ],
          "internalType": "struct IdentityLib.StateInfo",
          "name": "",
          "type": "tuple"
        }
      ],
      "stateMutability": "view",
      "type": "function"
    },
    {
      "inputs": [
        {
          "internalType": "uint256",
          "name": "id",
          "type": "uint256"
        },
        {
          "internalType": "uint64",
          "name": "nonce",
          "type": "uint64"
        }
      ],
      "name": "getRevocationStatus",
      "outputs": [
        {
          "components": [
            {
              "components": [
                {
                  "internalType": "uint256",
                  "name": "state",
                  "type": "uint256"
                },
                {
                  "internalType": "uint256",
                  "name": "claimsTreeRoot",
                  "type": "uint256"
                },
                {
                  "internalType": "uint256",
                  "name": "revocationTreeRoot",
                  "type": "uint256"
                },
                {
                  "internalType": "uint256",
                  "name": "rootOfRoots",
                  "type": "uint256"
                }
              ],
              "internalType": "struct IOnchainCredentialStatusResolver.IdentityStateRoots",
              "name": "issuer",
              "type": "tuple"
            },
            {
              "components": [
                {
                  "internalType": "uint256",
                  "name": "root",
                  "type": "uint256"
                },
                {
                  "internalType": "bool",
                  "name": "existence",
                  "type": "bool"
                },
                {
                  "internalType": "uint256[]",
                  "name": "siblings",
                  "type": "uint256[]"
                },
                {
                  "internalType": "uint256",
                  "name": "index",
                  "type": "uint256"
                },
                {
                  "internalType": "uint256",
                  "name": "value",
                  "type": "uint256"
                },
                {
                  "internalType": "bool",
                  "name": "auxExistence",
                  "type": "bool"
                },
                {
                  "internalType": "uint256",
                  "name": "auxIndex",
                  "type": "uint256"
                },
                {
                  "internalType": "uint256",
                  "name": "auxValue",
                  "type": "uint256"
                }
              ],
              "internalType": "struct IOnchainCredentialStatusResolver.Proof",
              "name": "mtp",
              "type": "tuple"
            }
          ],
          "internalType": "struct IOnchainCredentialStatusResolver.CredentialStatus",
          "name": "",
          "type": "tuple"
        }
      ],
      "stateMutability": "view",
      "type": "function"
    },
    {
      "inputs": [
        {
          "internalType": "uint256",
          "name": "id",
          "type": "uint256"
        },
        {
          "internalType": "uint256",
          "name": "state",
          "type": "uint256"
        },
        {
          "internalType": "uint64",
          "name": "nonce",
          "type": "uint64"
        }
      ],
      "name": "getRevocationStatusByIdAndState",
      "outputs": [
        {
          "components": [
            {
              "components": [
                {
                  "internalType": "uint256",
                  "name": "state",
                  "type": "uint256"
                },
                {
                  "internalType": "uint256",
                  "name": "claimsTreeRoot",
                  "type": "uint256"
                },
                {
                  "internalType": "uint256",
                  "name": "revocationTreeRoot",
                  "type": "uint256"
                },
                {
                  "internalType": "uint256",
                  "name": "rootOfRoots",
                  "type": "uint256"
                }
              ],
              "internalType": "struct IOnchainCredentialStatusResolver.IdentityStateRoots",
              "name": "issuer",
              "type": "tuple"
            },
            {
              "components": [
                {
                  "internalType": "uint256",
                  "name": "root",
                  "type": "uint256"
                },
                {
                  "internalType": "bool",
                  "name": "existence",
                  "type": "bool"
                },
                {
                  "internalType": "uint256[]",
                  "name": "siblings",
                  "type": "uint256[]"
                },
                {
                  "internalType": "uint256",
                  "name": "index",
                  "type": "uint256"
                },
                {
                  "internalType": "uint256",
                  "name": "value",
                  "type": "uint256"
                },
                {
                  "internalType": "bool",
                  "name": "auxExistence",
                  "type": "bool"
                },
                {
                  "internalType": "uint256",
                  "name": "auxIndex",
                  "type": "uint256"
                },
                {
                  "internalType": "uint256",
                  "name": "auxValue",
                  "type": "uint256"
                }
              ],
              "internalType": "struct IOnchainCredentialStatusResolver.Proof",
              "name": "mtp",
              "type": "tuple"
            }
          ],
          "internalType": "struct IOnchainCredentialStatusResolver.CredentialStatus",
          "name": "",
          "type": "tuple"
        }
      ],
      "stateMutability": "view",
      "type": "function"
    },
    {
      "inputs": [],
      "name": "getRevocationsTreeRoot",
      "outputs": [
        {
          "internalType": "uint256",
          "name": "",
          "type": "uint256"
        }
      ],
      "stateMutability": "view",
      "type": "function"
    },
    {
      "inputs": [
        {
          "internalType": "uint256",
          "name": "rootsTreeRoot",
          "type": "uint256"
        }
      ],
      "name": "getRootProof",
      "outputs": [
        {
          "components": [
            {
              "internalType": "uint256",
              "name": "root",
              "type": "uint256"
            },
            {
              "internalType": "bool",
              "name": "existence",
              "type": "bool"
            },
            {
              "internalType": "uint256[]",
              "name": "siblings",
              "type": "uint256[]"
            },
            {
              "internalType": "uint256",
              "name": "index",
              "type": "uint256"
            },
            {
              "internalType": "uint256",
              "name": "value",
              "type": "uint256"
            },
            {
              "internalType": "bool",
              "name": "auxExistence",
              "type": "bool"
            },
            {
              "internalType": "uint256",
              "name": "auxIndex",
              "type": "uint256"
            },
            {
              "internalType": "uint256",
              "name": "auxValue",
              "type": "uint256"
            }
          ],
          "internalType": "struct SmtLib.Proof",
          "name": "",
          "type": "tuple"
        }
      ],
      "stateMutability": "view",
      "type": "function"
    },
    {
      "inputs": [
        {
          "internalType": "uint256",
          "name": "claimsTreeRoot",
          "type": "uint256"
        },
        {
          "internalType": "uint256",
          "name": "root",
          "type": "uint256"
        }
      ],
      "name": "getRootProofByRoot",
      "outputs": [
        {
          "components": [
            {
              "internalType": "uint256",
              "name": "root",
              "type": "uint256"
            },
            {
              "internalType": "bool",
              "name": "existence",
              "type": "bool"
            },
            {
              "internalType": "uint256[]",
              "name": "siblings",
              "type": "uint256[]"
            },
            {
              "internalType": "uint256",
              "name": "index",
              "type": "uint256"
            },
            {
              "internalType": "uint256",
              "name": "value",
              "type": "uint256"
            },
            {
              "internalType": "bool",
              "name": "auxExistence",
              "type": "bool"
            },
            {
              "internalType": "uint256",
              "name": "auxIndex",
              "type": "uint256"
            },
            {
              "internalType": "uint256",
              "name": "auxValue",
              "type": "uint256"
            }
          ],
          "internalType": "struct SmtLib.Proof",
          "name": "",
          "type": "tuple"
        }
      ],
      "stateMutability": "view",
      "type": "function"
    },
    {
      "inputs": [
        {
          "internalType": "uint256",
          "name": "rootsTreeRoot",
          "type": "uint256"
        }
      ],
      "name": "getRootProofWithStateInfo",
      "outputs": [
        {
          "components": [
            {
              "internalType": "uint256",
              "name": "root",
              "type": "uint256"
            },
            {
              "internalType": "bool",
              "name": "existence",
              "type": "bool"
            },
            {
              "internalType": "uint256[]",
              "name": "siblings",
              "type": "uint256[]"
            },
            {
              "internalType": "uint256",
              "name": "index",
              "type": "uint256"
            },
            {
              "internalType": "uint256",
              "name": "value",
              "type": "uint256"
            },
            {
              "internalType": "bool",
              "name": "auxExistence",
              "type": "bool"
            },
            {
              "internalType": "uint256",
              "name": "auxIndex",
              "type": "uint256"
            },
            {
              "internalType": "uint256",
              "name": "auxValue",
              "type": "uint256"
            }
          ],
          "internalType": "struct SmtLib.Proof",
          "name": "",
          "type": "tuple"
        },
        {
          "components": [
            {
              "internalType": "uint256",
              "name": "state",
              "type": "uint256"
            },
            {
              "internalType": "uint256",
              "name": "claimsRoot",
              "type": "uint256"
            },
            {
              "internalType": "uint256",
              "name": "revocationsRoot",
              "type": "uint256"
            },
            {
              "internalType": "uint256",
              "name": "rootsRoot",
              "type": "uint256"
            }
          ],
          "internalType": "struct IdentityLib.StateInfo",
          "name": "",
          "type": "tuple"
        }
      ],
      "stateMutability": "view",
      "type": "function"
    },
    {
      "inputs": [
        {
          "internalType": "uint256",
          "name": "state",
          "type": "uint256"
        }
      ],
      "name": "getRootsByState",
      "outputs": [
        {
          "components": [
            {
              "internalType": "uint256",
              "name": "claimsRoot",
              "type": "uint256"
            },
            {
              "internalType": "uint256",
              "name": "revocationsRoot",
              "type": "uint256"
            },
            {
              "internalType": "uint256",
              "name": "rootsRoot",
              "type": "uint256"
            }
          ],
          "internalType": "struct IdentityLib.Roots",
          "name": "",
          "type": "tuple"
        }
      ],
      "stateMutability": "view",
      "type": "function"
    },
    {
      "inputs": [],
      "name": "getRootsTreeRoot",
      "outputs": [
        {
          "internalType": "uint256",
          "name": "",
          "type": "uint256"
        }
      ],
      "stateMutability": "view",
      "type": "function"
    },
    {
      "inputs": [],
      "name": "getSigners",
      "outputs": [
        {
          "internalType": "address[]",
          "name": "",
          "type": "address[]"
        }
      ],
      "stateMutability": "view",
      "type": "function"
    },
    {
      "inputs": [],
      "name": "getSmtDepth",
      "outputs": [
        {
          "internalType": "uint256",
          "name": "",
          "type": "uint256"
        }
      ],
      "stateMutability": "pure",
      "type": "function"
    },
    {
      "inputs": [],
      "name": "getTemplateRoot",
      "outputs": [
        {
          "internalType": "uint256",
          "name": "",
          "type": "uint256"
        }
      ],
      "stateMutability": "view",
      "type": "function"
    },
    {
      "inputs": [
        {
          "internalType": "address",
          "name": "_stateContractAddr",
          "type": "address"
        },
        {
          "internalType": "bytes2",
          "name": "idType",
          "type": "bytes2"
        }
      ],
      "name": "initialize",
      "outputs": [],
      "stateMutability": "nonpayable",
      "type": "function"
    },
    {
      "inputs": [
        {
          "internalType": "uint256",
          "name": "expirationTime",
          "type": "uint256"
        },
        {
          "internalType": "uint256",
          "name": "templateRoot",
          "type": "uint256"
        },
        {
          "internalType": "string[]",
          "name": "credentialCircuitIds",
          "type": "string[]"
        },
        {
          "internalType": "address[]",
          "name": "credentialVerifierAddresses",
          "type": "address[]"
        },
        {
          "internalType": "address[]",
          "name": "signers",
          "type": "address[]"
        },
        {
          "internalType": "address",
          "name": "stateAddress",
          "type": "address"
        },
        {
          "internalType": "bytes2",
          "name": "idType",
          "type": "bytes2"
        }
      ],
      "name": "initializeIssuer",
      "outputs": [],
      "stateMutability": "nonpayable",
      "type": "function"
    },
    {
      "inputs": [],
      "name": "owner",
      "outputs": [
        {
          "internalType": "address",
          "name": "",
          "type": "address"
        }
      ],
      "stateMutability": "view",
      "type": "function"
    },
    {
      "inputs": [],
      "name": "pendingOwner",
      "outputs": [
        {
          "internalType": "address",
          "name": "",
          "type": "address"
        }
      ],
      "stateMutability": "view",
      "type": "function"
    },
    {
      "inputs": [],
      "name": "proxiableUUID",
      "outputs": [
        {
          "internalType": "bytes32",
          "name": "",
          "type": "bytes32"
        }
      ],
      "stateMutability": "view",
      "type": "function"
    },
    {
      "inputs": [],
      "name": "renounceOwnership",
      "outputs": [],
      "stateMutability": "nonpayable",
      "type": "function"
    },
    {
      "inputs": [
        {
          "internalType": "uint256",
          "name": "expirationTime",
          "type": "uint256"
        }
      ],
      "name": "setExpirationTime",
      "outputs": [],
      "stateMutability": "nonpayable",
      "type": "function"
    },
    {
      "inputs": [
        {
          "internalType": "uint256",
          "name": "templateRoot",
          "type": "uint256"
        }
      ],
      "name": "setTemplateRoot",
      "outputs": [],
      "stateMutability": "nonpayable",
      "type": "function"
    },
    {
      "inputs": [
        {
          "components": [
            {
              "internalType": "uint64",
              "name": "requestId",
              "type": "uint64"
            },
            {
              "internalType": "bytes",
              "name": "zkProof",
              "type": "bytes"
            },
            {
              "internalType": "bytes",
              "name": "data",
              "type": "bytes"
            }
          ],
          "internalType": "struct IZKPVerifier.ZKPResponse[]",
          "name": "responses",
          "type": "tuple[]"
        },
        {
          "internalType": "bytes",
          "name": "crossChainProofs",
          "type": "bytes"
        }
      ],
      "name": "submitZKPResponseV2",
      "outputs": [],
      "stateMutability": "nonpayable",
      "type": "function"
    },
    {
      "inputs": [
        {
          "internalType": "bytes4",
          "name": "interfaceId",
          "type": "bytes4"
        }
      ],
      "name": "supportsInterface",
      "outputs": [
        {
          "internalType": "bool",
          "name": "",
          "type": "bool"
        }
      ],
      "stateMutability": "view",
      "type": "function"
    },
    {
      "inputs": [
        {
          "internalType": "address",
          "name": "newOwner",
          "type": "address"
        }
      ],
      "name": "transferOwnership",
      "outputs": [],
      "stateMutability": "nonpayable",
      "type": "function"
    },
    {
      "inputs": [
        {
          "internalType": "string[]",
          "name": "circuitIds",
          "type": "string[]"
        },
        {
          "internalType": "address[]",
          "name": "verifierAddresses",
          "type": "address[]"
        }
      ],
      "name": "updateCredentialVerifiers",
      "outputs": [],
      "stateMutability": "nonpayable",
      "type": "function"
    },
    {
      "inputs": [
        {
          "internalType": "address",
          "name": "newImplementation",
          "type": "address"
        },
        {
          "internalType": "bytes",
          "name": "data",
          "type": "bytes"
        }
      ],
      "name": "upgradeToAndCall",
      "outputs": [],
      "stateMutability": "payable",
      "type": "function"
    }
  ],
  "bytecode": "0x60a06040523060805234801561001457600080fd5b5061001d610022565b6100d4565b7ff0c57e16840df040f15088dc2f81fe391c3923bec73e23a9662efc9c229c6a00805468010000000000000000900460ff16156100725760405163f92ee8a960e01b815260040160405180910390fd5b80546001600160401b03908116146100d15780546001600160401b0319166001600160401b0390811782556040519081527fc7f505b2f371ae2175ee4913f4499e1f2633a7b5936321eed1cdaeb6115181d29060200160405180910390a15b50565b6080516141a26100fd60003960008181611fe30152818161200c015261217d01526141a26000f3fe6080604052600436106102ad5760003560e01c8063a635c78511610175578063c6365a3b116100dc578063e23a845a11610095578063e8906a2d1161006f578063e8906a2d1461086c578063f2fde38b1461088c578063f84c7c1e146108ac578063ffa1ad74146105d357600080fd5b8063e23a845a14610822578063e26ecb0b14610837578063e30c39781461085757600080fd5b8063c6365a3b14610764578063cfa350c814610779578063d622ea6e14610799578063d94b0271146107b9578063da68a0b1146107d9578063da936540146107ee57600080fd5b8063b37feda41161012e578063b37feda414610682578063b57a40cb146106a2578063b8db6871146106c2578063badf055d14610704578063c0cc365d14610724578063c1e327331461074457600080fd5b8063a635c78514610593578063aad72921146105b3578063acb8cc49146105d3578063ad3cb1cc14610611578063ade09fcd14610642578063b354c2d81461066257600080fd5b8063406e8b4c11610219578063715018a6116101d2578063715018a6146104dd57806379ba5097146104f257806384b0196e146105075780638da5cb5b1461052f57806394cf795e1461055c5780639674cfa41461057e57600080fd5b8063406e8b4c1461044b578063443d75341461046b5780634f1ef2861461048b578063523b81361461049e57806352d1902d146104b35780635d1ca631146104c857600080fd5b80632d5c4f251161026b5780632d5c4f25146103ab578063310d0d5b146103cb57806338b87751146103eb5780633d59ec601461040d5780633df432fc146104225780633f0c66481461043757600080fd5b806233058d146102b257806301c85c77146102e957806301ffc9a71461030c578063110c96a71461033c57806326485063146103695780632c1d320414610396575b600080fd5b3480156102be57600080fd5b506102d26102cd366004612f68565b6108c1565b6040516102e0929190613025565b60405180910390f35b3480156102f557600080fd5b506102fe61098e565b6040519081526020016102e0565b34801561031857600080fd5b5061032c610327366004613068565b610a13565b60405190151581526020016102e0565b34801561034857600080fd5b5061035c610357366004613092565b610a4a565b6040516102e091906130be565b34801561037557600080fd5b50610389610384366004612f68565b610a75565b6040516102e0919061310b565b3480156103a257600080fd5b506102fe610b0e565b3480156103b757600080fd5b506103896103c636600461311e565b610b3e565b3480156103d757600080fd5b506103896103e636600461311e565b610bdd565b3480156103f757600080fd5b5061040b6104063660046131b3565b610c34565b005b34801561041957600080fd5b506102fe610e12565b34801561042e57600080fd5b506102fe610e25565b34801561044357600080fd5b5060286102fe565b34801561045757600080fd5b5061040b61046636600461328a565b610e68565b34801561047757600080fd5b506102d26104863660046132b4565b610f05565b61040b610499366004613405565b610f80565b3480156104aa57600080fd5b506102fe610f9f565b3480156104bf57600080fd5b506102fe610fb2565b3480156104d457600080fd5b506102fe610fcf565b3480156104e957600080fd5b5061040b610fdf565b3480156104fe57600080fd5b5061040b610ff3565b34801561051357600080fd5b5061051c611040565b6040516102e097969594939291906134a2565b34801561053b57600080fd5b506105446110ec565b6040516001600160a01b0390911681526020016102e0565b34801561056857600080fd5b50610571611121565b6040516102e0919061353a565b34801561058a57600080fd5b506102fe611154565b34801561059f57600080fd5b506105446105ae366004613586565b611167565b3480156105bf57600080fd5b5061035c6105ce3660046135ce565b6111c2565b3480156105df57600080fd5b50610604604051806040016040528060058152602001640312e302e360dc1b81525081565b6040516102e09190613603565b34801561061d57600080fd5b50610604604051806040016040528060058152602001640352e302e360dc1b81525081565b34801561064e57600080fd5b5061040b61065d366004613639565b6113db565b34801561066e57600080fd5b5061040b61067d3660046132b4565b6116a6565b34801561068e57600080fd5b506102d261069d3660046132b4565b611711565b3480156106ae57600080fd5b506103896106bd3660046132b4565b61178c565b3480156106ce57600080fd5b506106e26106dd3660046132b4565b6117da565b60408051825181526020808401519082015291810151908201526060016102e0565b34801561071057600080fd5b5061040b61071f36600461377c565b611882565b34801561073057600080fd5b5061040b61073f3660046132b4565b611ae7565b34801561075057600080fd5b5061038961075f3660046132b4565b611b38565b34801561077057600080fd5b506102fe611b88565b34801561078557600080fd5b506102fe610794366004613586565b611b9b565b3480156107a557600080fd5b506106046107b43660046132b4565b611beb565b3480156107c557600080fd5b5061040b6107d43660046132b4565b611cb2565b3480156107e557600080fd5b506102fe611d60565b3480156107fa57600080fd5b506102fe7f0d2a15c3140485b6db2a8c0f755486294daaae1eabcdd518f6beaf8e4ab4d83481565b34801561082e57600080fd5b506102fe611da3565b34801561084357600080fd5b506103896108523660046137eb565b611dc1565b34801561086357600080fd5b50610544611e20565b34801561087857600080fd5b5061040b610887366004613815565b611e49565b34801561089857600080fd5b5061040b6108a7366004613856565b611f19565b3480156108b857600080fd5b5061032c611f9e565b6108c9612e7c565b6108f46040518060800160405280600081526020016000815260200160008152602001600081525090565b6108fc611fb4565b604051631f17004d60e31b815260048101919091526001600160401b038416602482015273__$068aad146bf104111ba65c4a1de2cd0e23$__9063f8b80268906044015b600060405180830381865af415801561095d573d6000803e3d6000fd5b505050506040513d6000823e601f3d908101601f191682016040526109859190810190613987565b91509150915091565b6000610998611fb4565b60405163765c2c6160e01b8152600481019190915273__$068aad146bf104111ba65c4a1de2cd0e23$__9063765c2c61906024015b602060405180830381865af41580156109ea573d6000803e3d6000fd5b505050506040513d601f19601f82011682018060405250810190610a0e9190613a2b565b905090565b60006001600160e01b03198216635d1ca63160e01b1480610a4457506301ffc9a760e01b6001600160e01b03198316145b92915050565b610a52612ec5565b6000610a5c611fb4565b600101549050610a6d8482856111c2565b949350505050565b610a7d612e7c565b610a85611fb4565b604051637d0aba4f60e01b815260048101919091526001600160401b038316602482015273__$068aad146bf104111ba65c4a1de2cd0e23$__90637d0aba4f906044015b600060405180830381865af4158015610ae6573d6000803e3d6000fd5b505050506040513d6000823e601f3d908101601f19168201604052610a449190810190613a44565b6000610b18611fd8565b507fd64ab600136c76c630ed81a54cc1acbcc213dadb956fdd8687dc5ebb0bb5f5015490565b610b46612e7c565b610b4e611fb4565b60405163d55da6a360e01b81526004810191909152602481018490526044810183905273__$068aad146bf104111ba65c4a1de2cd0e23$__9063d55da6a3906064015b600060405180830381865af4158015610bae573d6000803e3d6000fd5b505050506040513d6000823e601f3d908101601f19168201604052610bd69190810190613a44565b9392505050565b610be5612e7c565b610bed611fb4565b604051636ac0c5c760e11b81526004810191909152602481018490526044810183905273__$068aad146bf104111ba65c4a1de2cd0e23$__9063d5818b8e90606401610b91565b7ff0c57e16840df040f15088dc2f81fe391c3923bec73e23a9662efc9c229c6a008054600160401b810460ff1615906001600160401b0316600081158015610c795750825b90506000826001600160401b03166001148015610c955750303b155b905081158015610ca3575080155b15610cc15760405163f92ee8a960e01b815260040160405180910390fd5b845467ffffffffffffffff191660011785558315610ceb57845460ff60401b1916600160401b1785555b610cf58787610e68565b610cfe3361207d565b60008051602061412d8339815191528f81557fd64ab600136c76c630ed81a54cc1acbcc213dadb956fdd8687dc5ebb0bb5f5018f905560017fd64ab600136c76c630ed81a54cc1acbcc213dadb956fdd8687dc5ebb0bb5f50655604080518082018252601081526f50617373706f7274497373756572563160801b602080830191909152825180840190935260058352640312e302e360dc1b90830152610da49161208e565b610dae8a8a611e49565b610dba8e8e8e8e611882565b508315610e0157845460ff60401b19168555604051600181527fc7f505b2f371ae2175ee4913f4499e1f2633a7b5936321eed1cdaeb6115181d29060200160405180910390a15b505050505050505050505050505050565b6000610e1c611fb4565b60010154919050565b6000610e2f611fb4565b604051631b8bf99b60e21b8152600481019190915273__$068aad146bf104111ba65c4a1de2cd0e23$__90636e2fe66c906024016109cd565b610e70611fb4565b6040516359a6069160e01b815260048101919091526001600160a01b0383166024820152306044820152602860648201526001600160f01b03198216608482015273__$068aad146bf104111ba65c4a1de2cd0e23$__906359a606919060a4015b60006040518083038186803b158015610ee957600080fd5b505af4158015610efd573d6000803e3d6000fd5b505050505050565b610f0d612e7c565b610f386040518060800160405280600081526020016000815260200160008152602001600081525090565b610f40611fb4565b60405163a3018d7960e01b815260048101919091526024810184905273__$068aad146bf104111ba65c4a1de2cd0e23$__9063a3018d7990604401610940565b610f88611fd8565b610f91826120a0565b610f9b82826120b0565b5050565b6000610fa9611fb4565b609a0154919050565b6000610fbc612172565b5060008051602061414d83398151915290565b6000610fd9611fb4565b54919050565b610fe76121bb565b610ff160006121ed565b565b3380610ffd611e20565b6001600160a01b0316146110345760405163118cdaa760e01b81526001600160a01b03821660048201526024015b60405180910390fd5b61103d816121ed565b50565b6000606080828080838160008051602061410d833981519152805490915015801561106d57506001810154155b6110b15760405162461bcd60e51b81526020600482015260156024820152741152540dcc4c8e88155b9a5b9a5d1a585b1a5e9959605a1b604482015260640161102b565b6110b9612225565b6110c16122e8565b60408051600080825260208201909252600f60f81b9c939b5091995046985030975095509350915050565b6000807f9016d09d72d40fdae2fd8ceac6b6234c7706214fd39c1cd1e609a0528c1993005b546001600160a01b031692915050565b606061112b611fd8565b610a0e7fd64ab600136c76c630ed81a54cc1acbcc213dadb956fdd8687dc5ebb0bb5f507612327565b600061115e611fb4565b609b0154919050565b6000611171611fd8565b6040517fd64ab600136c76c630ed81a54cc1acbcc213dadb956fdd8687dc5ebb0bb5f503906111a1908490613a78565b908152604051908190036020019020546001600160a01b031690505b919050565b6111ca612ec5565b6111d2611fb4565b5484146112185760405162461bcd60e51b8152602060048201526014602482015273092c8cadce8d2e8f240d2c840dad2e6dac2e8c6d60631b604482015260640161102b565b6000611222611fb4565b604051630b1a9cd360e01b815260048101919091526024810185905273__$068aad146bf104111ba65c4a1de2cd0e23$__90630b1a9cd390604401606060405180830381865af415801561127a573d6000803e3d6000fd5b505050506040513d601f19601f8201168201806040525081019061129e9190613a94565b6040805160808101825286815282516020808301919091528301518183015290820151606082015290915060006112d3611fb4565b6020840151604051630b2bcd1b60e11b815260048101929092526001600160401b0387166024830152604482015273__$068aad146bf104111ba65c4a1de2cd0e23$__906316579a3690606401600060405180830381865af415801561133d573d6000803e3d6000fd5b505050506040513d6000823e601f3d908101601f191682016040526113659190810190613a44565b6040805161010081018252825181526020808401511515818301528284015182840152606080850151908301526080808501519083015260a08085015115159083015260c0808501519083015260e093840151938201939093528151808301909252938152908101929092525095945050505050565b815160008051602061412d8339815191529060011461141a578251604051630264a11560e21b815260048101919091526001602482015260440161102b565b60608160040160008560008151811061143557611435613ad1565b6020026020010151600001516001600160401b03168152602001908152602001600020805461146390613ae7565b80601f016020809104026020016040519081016040528092919081815260200182805461148f90613ae7565b80156114dc5780601f106114b1576101008083540402835291602001916114dc565b820191906000526020600020905b8154815290600101906020018083116114bf57829003601f168201915b50505050509050805160000361153057836000815181106114ff576114ff613ad1565b60209081029190910101515160405163ea99bbcd60e01b81526001600160401b03909116600482015260240161102b565b6000806000808760008151811061154957611549613ad1565b6020026020010151602001518060200190518101906115689190613b68565b9350935093509350600060405180608001604052808581526020018481526020018381526020016040518060c00160405280886000815181106115ad576115ad613ad1565b60200260200101518152602001886001815181106115cd576115cd613ad1565b60200260200101518152602001886002815181106115ed576115ed613ad1565b602002602001015181526020018860038151811061160d5761160d613ad1565b602002602001015181526020018860048151811061162d5761162d613ad1565b602002602001015181526020018860058151811061164d5761164d613ad1565b602002602001015181525081525090506000888060200190518101906116739190613c22565b905061169a87838360008151811061168d5761168d613ad1565b6020026020010151612334565b50505050505050505050565b6116ae611fd8565b6116b66121bb565b7fd64ab600136c76c630ed81a54cc1acbcc213dadb956fdd8687dc5ebb0bb5f5018190556040518181527ff007a02ba428e63fa98b65269e70f9a9db847e0a839049a2f31f069282267734906020015b60405180910390a150565b611719612e7c565b6117446040518060800160405280600081526020016000815260200160008152602001600081525090565b61174c611fb4565b604051636ad1d8a760e11b815260048101919091526024810184905273__$068aad146bf104111ba65c4a1de2cd0e23$__9063d5a3b14e90604401610940565b611794612e7c565b61179c611fb4565b604051620cf08960e41b815260048101919091526024810183905273__$068aad146bf104111ba65c4a1de2cd0e23$__9062cf089090604401610ac9565b6117fe60405180606001604052806000815260200160008152602001600081525090565b611806611fb4565b604051630b1a9cd360e01b815260048101919091526024810183905273__$068aad146bf104111ba65c4a1de2cd0e23$__90630b1a9cd390604401606060405180830381865af415801561185e573d6000803e3d6000fd5b505050506040513d601f19601f82011682018060405250810190610a449190613a94565b61188a611fd8565b6118926121bb565b60008051602061412d8339815191528184146118cb576040516355c5b3e360e11b8152600481018590526024810183905260440161102b565b60005b84811015610efd578383828181106118e8576118e8613ad1565b90506020020160208101906118fd9190613856565b8260030187878481811061191357611913613ad1565b90506020028101906119259190613d87565b604051611933929190613dcd565b90815260405190819003602001902080546001600160a01b03929092166001600160a01b031990921691909117905560006005830187878481811061197a5761197a613ad1565b905060200281019061198c9190613d87565b60405161199a929190613dcd565b908152602001604051809103902054905080600003611a595750600682015480600584018888858181106119d0576119d0613ad1565b90506020028101906119e29190613d87565b6040516119f0929190613dcd565b90815260405190819003602001902055868683818110611a1257611a12613ad1565b9050602002810190611a249190613d87565b6000838152600486016020526040902091611a40919083613e2b565b50600683018054906000611a5383613f00565b91905055505b7f17b20bbf8df0ff1422db2abe4b28c298e32929a2d112f027c3f68d488cf3cf74878784818110611a8c57611a8c613ad1565b9050602002810190611a9e9190613d87565b878786818110611ab057611ab0613ad1565b9050602002016020810190611ac59190613856565b84604051611ad69493929190613f19565b60405180910390a1506001016118ce565b611aef611fd8565b611af76121bb565b8060008051602061412d833981519152556040518181527f7f7f3071c3c286700c199acae2fe071beb4a63dae1afff85186fa75d18090ae890602001611706565b611b40612e7c565b611b48611fb4565b6040516397ac539160e01b815260048101919091526024810183905273__$068aad146bf104111ba65c4a1de2cd0e23$__906397ac539190604401610ac9565b6000611b92611fb4565b609c0154919050565b6000611ba5611fd8565b6040517fd64ab600136c76c630ed81a54cc1acbcc213dadb956fdd8687dc5ebb0bb5f50590611bd5908490613a78565b9081526020016040518091039020549050919050565b6060611bf5611fd8565b60008281527fd64ab600136c76c630ed81a54cc1acbcc213dadb956fdd8687dc5ebb0bb5f504602052604090208054611c2d90613ae7565b80601f0160208091040260200160405190810160405280929190818152602001828054611c5990613ae7565b8015611ca65780601f10611c7b57610100808354040283529160200191611ca6565b820191906000526020600020905b815481529060010190602001808311611c8957829003601f168201915b50505050509050919050565b611cba6121bb565b60008181527fd64ab600136c76c630ed81a54cc1acbcc213dadb956fdd8687dc5ebb0bb5f502602052604090205460008051602061412d8339815191529060ff16611d475760405162461bcd60e51b815260206004820152601860248201527f4e756c6c696669657220646f6573206e6f742065786973740000000000000000604482015260640161102b565b600091825260020160205260409020805460ff19169055565b6000611d6a611fb4565b604051631e75e7f360e01b8152600481019190915273__$068aad146bf104111ba65c4a1de2cd0e23$__90631e75e7f3906024016109cd565b6000611dad611fd8565b5060008051602061412d8339815191525490565b611dc9612e7c565b611dd1611fb4565b604051630b2bcd1b60e11b815260048101919091526001600160401b03841660248201526044810183905273__$068aad146bf104111ba65c4a1de2cd0e23$__906316579a3690606401610b91565b6000807f237e158222e3e6968b72b9db0d8043aacf074ad9f650f0d1606b4d82ee432c00611111565b611e51611fd8565b611e596121bb565b60008051602061412d83398151915260005b82811015611f1357611ea7848483818110611e8857611e88613ad1565b9050602002016020810190611e9d9190613856565b6007840190612351565b507f47d1c22a25bb3a5d4e481b9b1e6944c2eade3181a0a20b495ed61d35b5323f24848483818110611edb57611edb613ad1565b9050602002016020810190611ef09190613856565b6040516001600160a01b03909116815260200160405180910390a1600101611e6b565b50505050565b611f216121bb565b7f237e158222e3e6968b72b9db0d8043aacf074ad9f650f0d1606b4d82ee432c0080546001600160a01b0319166001600160a01b0383169081178255611f656110ec565b6001600160a01b03167f38d16b8cac22d99fc7c124b9cd0de2d3fa1faef420bfe791d8c362d765e2270060405160405180910390a35050565b6000611fa8611fb4565b6002015460ff16919050565b7f3018a310c36c4f8228f09bf3b1822685cf0971daa8265a58ca807c4a4daba40090565b306001600160a01b037f000000000000000000000000000000000000000000000000000000000000000016148061205f57507f00000000000000000000000000000000000000000000000000000000000000006001600160a01b031661205360008051602061414d833981519152546001600160a01b031690565b6001600160a01b031614155b15610ff15760405163703e46dd60e11b815260040160405180910390fd5b612085612366565b61103d816123af565b612096612366565b610f9b82826123e1565b6120a8611fd8565b61103d6121bb565b816001600160a01b03166352d1902d6040518163ffffffff1660e01b8152600401602060405180830381865afa92505050801561210a575060408051601f3d908101601f1916820190925261210791810190613a2b565b60015b61213257604051634c9c8ce360e01b81526001600160a01b038316600482015260240161102b565b60008051602061414d833981519152811461216357604051632a87526960e21b81526004810182905260240161102b565b61216d8383612442565b505050565b306001600160a01b037f00000000000000000000000000000000000000000000000000000000000000001614610ff15760405163703e46dd60e11b815260040160405180910390fd5b336121c46110ec565b6001600160a01b031614610ff15760405163118cdaa760e01b815233600482015260240161102b565b7f237e158222e3e6968b72b9db0d8043aacf074ad9f650f0d1606b4d82ee432c0080546001600160a01b0319168155610f9b82612498565b7fa16a46d94261c7517cc8ff89f61c0ce93598e3c849801011dee649a6a557d102805460609160008051602061410d8339815191529161226490613ae7565b80601f016020809104026020016040519081016040528092919081815260200182805461229090613ae7565b80156122dd5780601f106122b2576101008083540402835291602001916122dd565b820191906000526020600020905b8154815290600101906020018083116122c057829003601f168201915b505050505091505090565b7fa16a46d94261c7517cc8ff89f61c0ce93598e3c849801011dee649a6a557d103805460609160008051602061410d8339815191529161226490613ae7565b60606000610bd683612509565b61233e8383612564565b6123478161267f565b61216d8282612708565b6000610bd6836001600160a01b038416612795565b7ff0c57e16840df040f15088dc2f81fe391c3923bec73e23a9662efc9c229c6a0054600160401b900460ff16610ff157604051631afcd79f60e31b815260040160405180910390fd5b6123b7612366565b6001600160a01b03811661103457604051631e4fbdf760e01b81526000600482015260240161102b565b6123e9612366565b60008051602061410d8339815191527fa16a46d94261c7517cc8ff89f61c0ce93598e3c849801011dee649a6a557d1026124238482613f62565b50600381016124328382613f62565b5060008082556001909101555050565b61244b826127e4565b6040516001600160a01b038316907fbc7cd75a20ee27fd9adebab32041f755214dbc6bffa90cc0225b39da2e5c2d3b90600090a28051156124905761216d8282612849565b610f9b6128bf565b7f9016d09d72d40fdae2fd8ceac6b6234c7706214fd39c1cd1e609a0528c19930080546001600160a01b031981166001600160a01b03848116918217845560405192169182907f8be0079c531659141344cd1fd0a4f28419497f9722a3daafe3b4186f6b6457e090600090a3505050565b606081600001805480602002602001604051908101604052809291908181526020018280548015611ca657602002820191906000526020600020905b8154815260200190600101908083116125455750505050509050919050565b60405160008051602061412d833981519152906000907fd64ab600136c76c630ed81a54cc1acbcc213dadb956fdd8687dc5ebb0bb5f503906125a7908690613a78565b908152604051908190036020019020546001600160a01b03169050806125e0576040516301dcf1ab60e31b815260040160405180910390fd5b806001600160a01b031663f398789b84600001518560200151866040015187606001516040518563ffffffff1660e01b81526004016126229493929190614043565b602060405180830381865afa15801561263f573d6000803e3d6000fd5b505050506040513d601f19601f8201168201806040525081019061266391906140c8565b611f13576040516281723b60e21b815260040160405180910390fd5b600080612694836000015184602001516128de565b91509150816126b65760405163df2b56ff60e01b815260040160405180910390fd5b6126e07fd64ab600136c76c630ed81a54cc1acbcc213dadb956fdd8687dc5ebb0bb5f50782612988565b61216d57604051631432861160e31b81526001600160a01b038216600482015260240161102b565b60608201518051602080830151608084015160a0850151604090950151865193840151935194959294919390916127499087908790879087908790876129aa565b60008181527fd64ab600136c76c630ed81a54cc1acbcc213dadb956fdd8687dc5ebb0bb5f50260205260409020805460ff1916600117905561278b8686612ac7565b5050505050505050565b60008181526001830160205260408120546127dc57508154600181810184556000848152602080822090930184905584548482528286019093526040902091909155610a44565b506000610a44565b806001600160a01b03163b60000361281a57604051634c9c8ce360e01b81526001600160a01b038216600482015260240161102b565b60008051602061414d83398151915280546001600160a01b0319166001600160a01b0392909216919091179055565b6060600080846001600160a01b0316846040516128669190613a78565b600060405180830381855af49150503d80600081146128a1576040519150601f19603f3d011682016040523d82523d6000602084013e6128a6565b606091505b50915091506128b6858383612b82565b95945050505050565b3415610ff15760405163b398979f60e01b815260040160405180910390fd5b600080600061294f7f0d2a15c3140485b6db2a8c0f755486294daaae1eabcdd518f6beaf8e4ab4d83486600001518760200151604051602001612934939291909283526020830191909152604082015260600190565b60405160208183030381529060405280519060200120612bde565b905060008061295e8387612c0b565b5090925090506000816003811115612978576129786140e3565b14945090925050505b9250929050565b6001600160a01b03811660009081526001830160205260408120541515610bd6565b60008051602061412d83398151915260008890036129de57604051631b1aad8760e11b81526004810189905260240161102b565b86600003612a0257604051634bdc991b60e11b81526004810188905260240161102b565b80600101548514612a3657600181015460405163e748379160e01b815261102b918791600401918252602082015260400190565b838314612a63576040516001621d0d8360e21b03198152600481018490526024810185905260440161102b565b80544290612a7190886140f9565b1015612a925760405162bd09f160e11b81526004810187905260240161102b565b600082815260028201602052604090205460ff161561278b57604051635377438b60e11b81526004810183905260240161102b565b612acf611fb4565b6040516306fb157560e01b81526004810191909152602481018390526044810182905273__$068aad146bf104111ba65c4a1de2cd0e23$__906306fb15759060640160006040518083038186803b158015612b2957600080fd5b505af4158015612b3d573d6000803e3d6000fd5b50505050612b49611fb4565b60405163175ba3e960e11b8152600481019190915273__$068aad146bf104111ba65c4a1de2cd0e23$__90632eb747d290602401610ed1565b606082612b9757612b9282612c58565b610bd6565b8151158015612bae57506001600160a01b0384163b155b15612bd757604051639996b31560e01b81526001600160a01b038516600482015260240161102b565b5080610bd6565b6000610a44612beb612c81565b8360405161190160f01b8152600281019290925260228201526042902090565b60008060008351604103612c455760208401516040850151606086015160001a612c3788828585612c8b565b955095509550505050612c51565b50508151600091506002905b9250925092565b805115612c685780518082602001fd5b60405163d6bda27560e01b815260040160405180910390fd5b6000610a0e612d5a565b600080807f7fffffffffffffffffffffffffffffff5d576e7357a4501ddfe92f46681b20a0841115612cc65750600091506003905082612d50565b604080516000808252602082018084528a905260ff891692820192909252606081018790526080810186905260019060a0016020604051602081039080840390855afa158015612d1a573d6000803e3d6000fd5b5050604051601f1901519150506001600160a01b038116612d4657506000925060019150829050612d50565b9250600091508190505b9450945094915050565b60007f8b73c3c69bb8fe3d512ecc4cf759cc79239f7b179b0ffacaa9a75d522b39400f612d85612dce565b612d8d612e38565b60408051602081019490945283019190915260608201524660808201523060a082015260c00160405160208183030381529060405280519060200120905090565b600060008051602061410d83398151915281612de8612225565b805190915015612e0057805160209091012092915050565b81548015612e0f579392505050565b7fc5d2460186f7233c927e7db2dcc703c0e500b653ca82273b7bfad8045d85a470935050505090565b600060008051602061410d83398151915281612e526122e8565b805190915015612e6a57805160209091012092915050565b60018201548015612e0f579392505050565b6040518061010001604052806000815260200160001515815260200160608152602001600081526020016000815260200160001515815260200160008152602001600081525090565b6040518060400160405280612efb6040518060800160405280600081526020016000815260200160008152602001600081525090565b8152602001612f4c6040518061010001604052806000815260200160001515815260200160608152602001600081526020016000815260200160001515815260200160008152602001600081525090565b905290565b80356001600160401b03811681146111bd57600080fd5b600060208284031215612f7a57600080fd5b610bd682612f51565b805182526020808201511515818401526040808301516101009185018290528051918501829052600092019082906101208601905b80831015612fdb5783518252602082019150602084019350600183019250612fb8565b50606085015160608701526080850151608087015260a0850151925061300560a087018415159052565b60c085015160c087015260e085015160e087015280935050505092915050565b60a08152600061303860a0830185612f83565b9050610bd66020830184805182526020810151602083015260408101516040830152606081015160608301525050565b60006020828403121561307a57600080fd5b81356001600160e01b031981168114610bd657600080fd5b600080604083850312156130a557600080fd5b823591506130b560208401612f51565b90509250929050565b602081526130f1602082018351805182526020810151602083015260408101516040830152606081015160608301525050565b6000602083015160a080840152610a6d60c0840182612f83565b602081526000610bd66020830184612f83565b6000806040838503121561313157600080fd5b50508035926020909101359150565b60008083601f84011261315257600080fd5b5081356001600160401b0381111561316957600080fd5b6020830191508360208260051b850101111561298157600080fd5b80356001600160a01b03811681146111bd57600080fd5b80356001600160f01b0319811681146111bd57600080fd5b60008060008060008060008060008060e08b8d0312156131d257600080fd5b8a35995060208b0135985060408b01356001600160401b038111156131f657600080fd5b6132028d828e01613140565b90995097505060608b01356001600160401b0381111561322157600080fd5b61322d8d828e01613140565b90975095505060808b01356001600160401b0381111561324c57600080fd5b6132588d828e01613140565b909550935061326b905060a08c01613184565b915061327960c08c0161319b565b90509295989b9194979a5092959850565b6000806040838503121561329d57600080fd5b6132a683613184565b91506130b56020840161319b565b6000602082840312156132c657600080fd5b5035919050565b634e487b7160e01b600052604160045260246000fd5b604051606081016001600160401b0381118282101715613305576133056132cd565b60405290565b60405161010081016001600160401b0381118282101715613305576133056132cd565b604080519081016001600160401b0381118282101715613305576133056132cd565b604051601f8201601f191681016001600160401b0381118282101715613378576133786132cd565b604052919050565b60006001600160401b03821115613399576133996132cd565b50601f01601f191660200190565b60006133ba6133b584613380565b613350565b90508281528383830111156133ce57600080fd5b828260208301376000602084830101529392505050565b600082601f8301126133f657600080fd5b610bd6838335602085016133a7565b6000806040838503121561341857600080fd5b61342183613184565b915060208301356001600160401b0381111561343c57600080fd5b613448858286016133e5565b9150509250929050565b60005b8381101561346d578181015183820152602001613455565b50506000910152565b6000815180845261348e816020860160208601613452565b601f01601f19169290920160200192915050565b60ff60f81b8816815260e0602082015260006134c160e0830189613476565b82810360408401526134d38189613476565b606084018890526001600160a01b038716608085015260a0840186905283810360c08501528451808252602080870193509091019060005b8181101561352957835183526020938401939092019160010161350b565b50909b9a5050505050505050505050565b602080825282518282018190526000918401906040840190835b8181101561357b5783516001600160a01b0316835260209384019390920191600101613554565b509095945050505050565b60006020828403121561359857600080fd5b81356001600160401b038111156135ae57600080fd5b8201601f810184136135bf57600080fd5b610a6d848235602084016133a7565b6000806000606084860312156135e357600080fd5b83359250602084013591506135fa60408501612f51565b90509250925092565b602081526000610bd66020830184613476565b60006001600160401b0382111561362f5761362f6132cd565b5060051b60200190565b6000806040838503121561364c57600080fd5b82356001600160401b0381111561366257600080fd5b8301601f8101851361367357600080fd5b80356136816133b582613616565b8082825260208201915060208360051b8501019250878311156136a357600080fd5b602084015b8381101561375d5780356001600160401b038111156136c657600080fd5b85016060818b03601f190112156136dc57600080fd5b6136e46132e3565b6136f060208301612f51565b815260408201356001600160401b0381111561370b57600080fd5b61371a8c6020838601016133e5565b60208301525060608201356001600160401b0381111561373957600080fd5b6137488c6020838601016133e5565b604083015250845250602092830192016136a8565b50945050505060208301356001600160401b0381111561343c57600080fd5b6000806000806040858703121561379257600080fd5b84356001600160401b038111156137a857600080fd5b6137b487828801613140565b90955093505060208501356001600160401b038111156137d357600080fd5b6137df87828801613140565b95989497509550505050565b600080604083850312156137fe57600080fd5b61380783612f51565b946020939093013593505050565b6000806020838503121561382857600080fd5b82356001600160401b0381111561383e57600080fd5b61384a85828601613140565b90969095509350505050565b60006020828403121561386857600080fd5b610bd682613184565b805180151581146111bd57600080fd5b600082601f83011261389257600080fd5b81516138a06133b582613616565b8082825260208201915060208360051b8601019250858311156138c257600080fd5b602085015b838110156138df5780518352602092830192016138c7565b5095945050505050565b600061010082840312156138fc57600080fd5b61390461330b565b82518152905061391660208301613871565b602082015260408201516001600160401b0381111561393457600080fd5b61394084828501613881565b604083015250606082810151908201526080808301519082015261396660a08301613871565b60a082015260c0828101519082015260e09182015191810191909152919050565b60008082840360a081121561399b57600080fd5b83516001600160401b038111156139b157600080fd5b6139bd868287016138e9565b9350506080601f19820112156139d257600080fd5b50604051608081016001600160401b03811182821017156139f5576139f56132cd565b60409081526020858101518352858201519083015260608086015191830191909152608090940151938101939093525092909150565b600060208284031215613a3d57600080fd5b5051919050565b600060208284031215613a5657600080fd5b81516001600160401b03811115613a6c57600080fd5b610a6d848285016138e9565b60008251613a8a818460208701613452565b9190910192915050565b60006060828403128015613aa757600080fd5b50613ab06132e3565b82518152602080840151908201526040928301519281019290925250919050565b634e487b7160e01b600052603260045260246000fd5b600181811c90821680613afb57607f821691505b602082108103613b1b57634e487b7160e01b600052602260045260246000fd5b50919050565b600082601f830112613b3257600080fd5b613b3c6040613350565b806040840185811115613b4e57600080fd5b845b8181101561357b578051845260209384019301613b50565b6000806000806101208587031215613b7f57600080fd5b84516001600160401b03811115613b9557600080fd5b613ba187828801613881565b945050613bb18660208701613b21565b925085607f860112613bc257600080fd5b6040613bcd81613350565b8060e0880189811115613bdf57600080fd5b606089015b81811015613c0557613bf68b82613b21565b84526020909301928401613be4565b50819550613c138a82613b21565b94505050505092959194509250565b600060208284031215613c3457600080fd5b81516001600160401b03811115613c4a57600080fd5b8201601f81018413613c5b57600080fd5b8051613c696133b582613616565b8082825260208201915060208360051b850101925086831115613c8b57600080fd5b602084015b83811015613d7c5780516001600160401b03811115613cae57600080fd5b8501808903601f19016060811215613cc557600080fd5b613ccd61332e565b6040821215613cdb57600080fd5b613ce361332e565b60208481015182526040850151908201528152606083015191506001600160401b03821115613d1157600080fd5b60208284010192508a601f840112613d2857600080fd5b82519150613d386133b583613380565b8281528b6020848601011115613d4d57600080fd5b613d5e836020830160208701613452565b80602083015250808652505050602083019250602081019050613c90565b509695505050505050565b6000808335601e19843603018112613d9e57600080fd5b8301803591506001600160401b03821115613db857600080fd5b60200191503681900382131561298157600080fd5b8183823760009101908152919050565b601f82111561216d57806000526020600020601f840160051c81016020851015613e045750805b601f840160051c820191505b81811015613e245760008155600101613e10565b5050505050565b6001600160401b03831115613e4257613e426132cd565b613e5683613e508354613ae7565b83613ddd565b6000601f841160018114613e8a5760008515613e725750838201355b600019600387901b1c1916600186901b178355613e24565b600083815260209020601f19861690835b82811015613ebb5786850135825560209485019460019092019101613e9b565b5086821015613ed85760001960f88860031b161c19848701351681555b505060018560011b0183555050505050565b634e487b7160e01b600052601160045260246000fd5b600060018201613f1257613f12613eea565b5060010190565b6060815283606082015283856080830137600060808583018101919091526001600160a01b039390931660208201526040810191909152601f909201601f191690910101919050565b81516001600160401b03811115613f7b57613f7b6132cd565b613f8f81613f898454613ae7565b84613ddd565b6020601f821160018114613fc35760008315613fab5750848201515b600019600385901b1c1916600184901b178455613e24565b600084815260208120601f198516915b82811015613ff35787850151825560209485019460019092019101613fd3565b50848210156140115786840151600019600387901b60f8161c191681555b50505050600190811b01905550565b8060005b6002811015611f13578151845260209384019390910190600101614024565b6101c081016140528287614020565b604082018560005b60028110156140845761406e838351614020565b604092909201916020919091019060010161405a565b50505061409460c0830185614020565b61010082018360005b60068110156140bc57815183526020928301929091019060010161409d565b50505095945050505050565b6000602082840312156140da57600080fd5b610bd682613871565b634e487b7160e01b600052602160045260246000fd5b80820180821115610a4457610a44613eea56fea16a46d94261c7517cc8ff89f61c0ce93598e3c849801011dee649a6a557d100d64ab600136c76c630ed81a54cc1acbcc213dadb956fdd8687dc5ebb0bb5f500360894a13ba1a3210667c828492db98dca3e2076cc3735a920a3ca505d382bbca2646970667358221220fe3ccc14121ff682cce4b289add15e5b25ed30ec4f1aa80161a4bfbb084bf2b564736f6c634300081b0033",
  "linkReferences": {
    "@iden3/contracts/lib/IdentityLib.sol": {
      "IdentityLib": [
        {
          "length": 20,
          "start": 2591
        },
        {
          "length": 20,
          "start": 2732
        },
        {
          "length": 20,
          "start": 2984
        },
        {
          "length": 20,
          "start": 3184
        },
        {
          "length": 20,
          "start": 3343
        },
        {
          "length": 20,
          "start": 3907
        },
        {
          "length": 20,
          "start": 4016
        },
        {
          "length": 20,
          "start": 4187
        },
        {
          "length": 20,
          "start": 4925
        },
        {
          "length": 20,
          "start": 5120
        },
        {
          "length": 20,
          "start": 6247
        },
        {
          "length": 20,
          "start": 6326
        },
        {
          "length": 20,
          "start": 6433
        },
        {
          "length": 20,
          "start": 7267
        },
        {
          "length": 20,
          "start": 7806
        },
        {
          "length": 20,
          "start": 7931
        },
        {
          "length": 20,
          "start": 11249
        },
        {
          "length": 20,
          "start": 11357
        }
      ]
    }
  },
  "deployedLinkReferences": {
    "@iden3/contracts/lib/IdentityLib.sol": {
      "IdentityLib": [
        {
          "length": 20,
          "start": 2338
        },
        {
          "length": 20,
          "start": 2479
        },
        {
          "length": 20,
          "start": 2731
        },
        {
          "length": 20,
          "start": 2931
        },
        {
          "length": 20,
          "start": 3090
        },
        {
          "length": 20,
          "start": 3654
        },
        {
          "length": 20,
          "start": 3763
        },
        {
          "length": 20,
          "start": 3934
        },
        {
          "length": 20,
          "start": 4672
        },
        {
          "length": 20,
          "start": 4867
        },
        {
          "length": 20,
          "start": 5994
        },
        {
          "length": 20,
          "start": 6073
        },
        {
          "length": 20,
          "start": 6180
        },
        {
          "length": 20,
          "start": 7014
        },
        {
          "length": 20,
          "start": 7553
        },
        {
          "length": 20,
          "start": 7678
        },
        {
          "length": 20,
          "start": 10996
        },
        {
          "length": 20,
          "start": 11104
        }
      ]
    }
  }
}