{
  "_format": "hh-sol-artifact-1",
  "contractName": "Verifier_anon_aadhaar_v1",
  "sourceName": "contracts/verifiers/anonAadhaarV1/Verifier_anon_aadhaar_v1.sol",
  "abi": [
    {
      "inputs": [
        {
          "internalType": "uint256[2]",
          "name": "_pA",
          "type": "uint256[2]"
        },
        {
          "internalType": "uint256[2][2]",
          "name": "_pB",
          "type": "uint256[2][2]"
        },
        {
          "internalType": "uint256[2]",
          "name": "_pC",
          "type": "uint256[2]"
        },
        {
          "internalType": "uint256[10]",
          "name": "_pubSignals",
          "type": "uint256[10]"
        }
      ],
      "name": "verifyProof",
      "outputs": [
        {
          "internalType": "bool",
          "name": "",
          "type": "bool"
        }
      ],
      "stateMutability": "view",
      "type": "function"
    }
  ],
  "bytecode": "0x60808060405234601557610a09908161001b8239f35b600080fdfe6080604052600436101561001257600080fd5b60003560e01c63f3bb70f61461002757600080fd5b3461041d5761024036600319011261041d5761004236610422565b3660c41161041d576100533661042f565b90366102441161041d57610400604052610104356100708161043d565b6101243561007d8161043d565b6101443561008a8161043d565b610164356100978161043d565b610184356100a48161043d565b6101a435906100b28261043d565b6101c435926100c08461043d565b6101e435946100ce8661043d565b61020435966100dc8861043d565b61022435986100ea8a61043d565b7f29772c430979217e2e13ebaf49eb43dc35427494bc2058101edb09d74b5443b46080527f2813e0696a1429758f2a3af52aa2e126e9074769c085c5aa79315c6a7375713360a05261013b90610470565b610144906104fa565b61014d90610584565b6101569061060e565b61015f90610698565b61016890610722565b610171906107ac565b61017a90610836565b610183906108bf565b61018c90610949565b8035610100527f30644e72e131a029b85045b68181585d97816a916871ca8d3c208c16d87cfd476020918201358103066101205260443561014052606435610160526084356101805260a4356101a0527f2d4d9aa7e302d9df41749d5507949d05dbea33fbb16c643b22f599a2be6df2e26101c0527f14bedd503c37ceb061d8ec60209fe345ce89830a19230301f076caff004d19266101e0527f0967032fcbf776d1afc985f88877f182d38480a653f2decaa9794cbc3bf3060c610200527f0e187847ad4c798374d0d6732bf501847dd68bc0e071241e0213bc7fc13db7ab610220527f304cfbd1e08a704a99f5e847d93f8c3caafddec46b7a0d379da69a4d112346a7610240527f1739c1b1a457a8c7313123d24d2f9192f896b7c63eea05a9d57f06547ad0cec8610260526080516102805260a0516102a0527f198e9393920d483a7260bfb731fb5d25f1aa493335a9e71297e485b7aef312c26102c0527f1800deef121f1e76426a00665e5c4479674322d4f75edadd46debd5cd992f6ed6102e0527f090689d0585ff075ec9e99ad690c3395bc4b313370b38ef355acdadcd122975b610300527f12c85ea5db8c6deb4aab71808dcb408fe3d1e7690c43d37b4ce6cc0166fa7daa610320528135610340520135610360527f17c961bc395d16af569ef204483eb027ff43fe499cdf663a1267ab4baf12ac7a610380527f07c8bf94b6c381745a940a47940c21ccf15f3a8a5f222581ee5a756489a7d3886103a0527f186782ae2942eadc40c68656d11a0b724c786738bf9b9fdc7ff3b70cbf66a5aa6103c0527f17e6ff8115725082ed1bdcee2937a30fb4dbbb79726cd6f24e6b6d67b957d8b16103e0526107cf195a01610100610300816008602094fa610100511660005260206000f35b600080fd5b9060049160441161041d57565b9060c4916101041161041d57565b7f30644e72e131a029b85045b68181585d2833e84879b9709143e1f593f0000001111561046657565b6000805260206000f35b6040517f06a22fd2a2aba9115919bec59438ab2e9b06b38b227f49143160385353855b8f81527f1c6052750c5fae86122e4a07e55e949167d68759c2890cf8addff8f95cf4640360208201526040810191825260408160608160076107cf195a01fa1561046657608080916040938251905260a051606082015260066107cf195a01fa1561046657565b6040517f0af6706a74dec2b075a2281fcd9f4e1109bdcc51c8b00a579de8ce18cc4ec0ee81527f093f7ac1150782bd9a89ee5c987ba79f6889f73ca6a86969120b7660f88ac14460208201526040810191825260408160608160076107cf195a01fa1561046657608080916040938251905260a051606082015260066107cf195a01fa1561046657565b6040517f15891429360ded88216965b6fe0dce588ce927ffbc344cbc0683d8ce0043e72e81527f1f2644be23eb6bf77f7c77f34b917f41637690ccb317308527a5e247b50ba6c560208201526040810191825260408160608160076107cf195a01fa1561046657608080916040938251905260a051606082015260066107cf195a01fa1561046657565b6040517f2d2d034691b932a5f2862c8d7c025b9ab2e9dcbf7c1c1770598a815f3925ea5881527f2e967bdfd8c6708f9a38c147fee5562c30bad6deff081c29a58f3f7c59939c4b60208201526040810191825260408160608160076107cf195a01fa1561046657608080916040938251905260a051606082015260066107cf195a01fa1561046657565b6040517f1554a0a41e0d771224de68fa2309f4950bc9f0cd74d032df2d9f9f875189d1a781527f039a885c6f671bac1920079de38678e037d8cebb7979bd88804e32d531ddefd860208201526040810191825260408160608160076107cf195a01fa1561046657608080916040938251905260a051606082015260066107cf195a01fa1561046657565b6040517f0768e205993ee2b5286ee62d1f7901656f6c2ba3bfd6698353bb9f42e8eb11da81527f0af09867cae15a0cd643f6dd1fd0b988b1e6740952268e1b465a85a00f2cf99f60208201526040810191825260408160608160076107cf195a01fa1561046657608080916040938251905260a051606082015260066107cf195a01fa1561046657565b6040517f0642d1924882399097db08edea5db6236ebc1e390ff55bf4e8c5a9d2592d1ba381527f263cbb69a7c289d53c47567a6befef53a565d50ba2ddc131696290fdb3d5564260208201526040810191825260408160608160076107cf195a01fa1561046657608080916040938251905260a051606082015260066107cf195a01fa1561046657565b6040517f1c6a5f0201ce311c73a96034874fa7c66e4deabc1cac72aa1feea5d726f1592281527e513d7eb477f654c41803e0782188eb33241a879a3a945d65e166676db560b660208201526040810191825260408160608160076107cf195a01fa1561046657608080916040938251905260a051606082015260066107cf195a01fa1561046657565b6040517f04a37297926fe8ed170cfc542794c1c7abd928568d18325d3f57ce6cfc443a1681527f1ee6c74ca9ab51591bb96fb1917fadf0360bb2defe0e75620d8e08286a4103cc60208201526040810191825260408160608160076107cf195a01fa1561046657608080916040938251905260a051606082015260066107cf195a01fa1561046657565b6040517f288ee60e69227ab29c999ecffd4abc33046766546adc48b3b6397a35677b864181527f0130e20dbca7b653f5fb0a550d59e2027e17bcccb5d633dd3cdf6c02e9a95a8860208201526040810191825260408160608160076107cf195a01fa1561046657608080916040938251905260a051606082015260066107cf195a01fa156104665756fea26469706673582212206ed752084d361d5ce36d964f570b1a3823816ba3b95d2c7add83308b438eabff64736f6c634300081b0033",
  "linkReferences": {},
  "deployedLinkReferences": {}
}