{
  "_format": "hh-sol-artifact-1",
  "contractName": "Verifier_credential_sha384",
  "sourceName": "contracts/verifiers/credential/Verifier_credential_sha384.sol",
  "abi": [
    {
      "inputs": [
        {
          "internalType": "uint256[2]",
          "name": "_pA",
          "type": "uint256[2]"
        },
        {
          "internalType": "uint256[2][2]",
          "name": "_pB",
          "type": "uint256[2][2]"
        },
        {
          "internalType": "uint256[2]",
          "name": "_pC",
          "type": "uint256[2]"
        },
        {
          "internalType": "uint256[15]",
          "name": "_pubSignals",
          "type": "uint256[15]"
        }
      ],
      "name": "verifyProof",
      "outputs": [
        {
          "internalType": "bool",
          "name": "",
          "type": "bool"
        }
      ],
      "stateMutability": "view",
      "type": "function"
    }
  ],
  "bytecode": "0x6080604052348015600f57600080fd5b50610a828061001f6000396000f3fe608060405234801561001057600080fd5b506004361061002b5760003560e01c8063f054a9a314610030575b600080fd5b61004361003e3660046109e5565b610057565b604051901515815260200160405180910390f35b60006108e0565b7f30644e72e131a029b85045b68181585d2833e84879b9709143e1f593f0000001811061008f576000805260206000f35b50565b600060405183815284602082015285604082015260408160608360076107d05a03fa9150816100c5576000805260206000f35b825160408201526020830151606082015260408360808360066107d05a03fa915050806100f6576000805260206000f35b5050505050565b7f124edee2832e6a86d29fb97c3c40e39ff0b8d13810fb502b7baa707f561cd1ac85527f23114c90a5274d5b5521c9ad389830075a75fbd0c7186526e59227afcfdd9edb60208601526000608086018661019a87357f0fb297e71f6c00960cb4a0a3ec6fdb8bedc2e7848b059277dd0eadcdd19058717f12cc637541d83b8564f6770f370f3b0786adc54b4c50ba9f62ae3fca60467b5084610092565b6101ea60208801357f2652bf047d589ec49b435394b3a72bbdf587ad22a8aa4c402fb7329243f7db477f1d78e44a83c742e232687ee20795b1fb67f1dc8eb1e65a04eee03c544e0843af84610092565b61023a60408801357f0287746be85028e0dcfbc28f46e9de6fcf1013cbd87d7c58ce132fcf36c9ec9b7f0853fd58b1de464d6c868a5732739801e745fc8a06f22b57d71f6a19d8a47d9384610092565b61028a60608801357f0a10d363ec84b19ebb432ae17d75401b4513d5d746271e139ed623953f2cdf547f05876d2cc01e083c2b0cfbf7e78a7d4a82387ff2a4d30bc856d69495f923738884610092565b6102d960808801357ee7548af6deefb1e1490a1f707960a868949e76c049395e6d8a8e92d3ceabec7f11e7cab81516a7692778b5c09c53a0f3804386f650c824b3394e4d6f040288d384610092565b61032960a08801357f1ad19e3583d11dc5f061d76334ab082dffebcca361a3767128276c44f4df66377f147da5577b17aca56e776c52854597252d34955620832e3f5bbddedabdad6cb784610092565b61037960c08801357f0e14f7ae7369ba783cb8f380dec3dc4f1b0148ef30fd29b24b66e16ac927159e7f1cc9526485501e5905515b9c6fa3607cbf407a3240edf9178711fc1fb5e8b72f84610092565b6103c960e08801357f165edfe607de66d61f72f0c7e01bf60a0347b7ca5a9f87df10eeb174b44c12887f2935aad458a9844dbbadac3cce6040fde00840813f52bfc5a59a9c77551b10d384610092565b61041a6101008801357f17c58588a03a8bce14e6c0b7596a44d791a3625aad70e27dc1ca9029946b42717f0648def8f5274123c65fab434bbb9b60b88b5430323818af1d43b4ff5803ef8b84610092565b61046b6101208801357f062e244994b716930dd15af94144dabca23fae44ab43c849cd543b80c844e5867f26159070f09a173fbd70c1f515c0c165850805c1fc82204cf9c59fa6fbbf9e0984610092565b6104bc6101408801357f17efc6f5f3c0e97f902a6027a563ad7521337a78ecdce7ed9d6609da5232c71b7f08ee645b804e06b93beef8cf7f6f1f6183d06b1a1391951892d3dc0038e2aef484610092565b61050d6101608801357f03e677445bb2e5a1508517d4d8190c3d4d0742620ef4b221a223010dca3d4a127f12a8158d01f9f3350f666f98cbe680fa40a15d15e2c8a70eb2bf8e740b58a23984610092565b61055e6101808801357f179fc267de39abe3918807da3c7a2a0a7e25a05a32d131d6d7c204c4e90a23977f2a6ae8b4983c92d6f8e633f026f039a4f7ca61e6c2198d17bf8091c58f3574d784610092565b6105af6101a08801357f0f92c074b33e93bbb78805e23a45581bd49a53f12da8372b40825d6b8275c26d7f2037e70fe87c23b48b06fd2432e54e289b0174c6a0d3f0fdecb93426978a47fb84610092565b6106006101c08801357f281186075c8f3e780b494f1f3ca101e61ebec0280aade303cf2aa432703a0d3b7f1147e1ab2ebc91a7358648214ebafc66a45e02ffeba5c5d94ac276ea09f32dc084610092565b50823581527f30644e72e131a029b85045b68181585d97816a916871ca8d3c208c16d87cfd4760208401357f30644e72e131a029b85045b68181585d97816a916871ca8d3c208c16d87cfd4703066020820152833560408201526020840135606082015260408401356080820152606084013560a08201527f2d4d9aa7e302d9df41749d5507949d05dbea33fbb16c643b22f599a2be6df2e260c08201527f14bedd503c37ceb061d8ec60209fe345ce89830a19230301f076caff004d192660e08201527f0967032fcbf776d1afc985f88877f182d38480a653f2decaa9794cbc3bf3060c6101008201527f0e187847ad4c798374d0d6732bf501847dd68bc0e071241e0213bc7fc13db7ab6101208201527f304cfbd1e08a704a99f5e847d93f8c3caafddec46b7a0d379da69a4d112346a76101408201527f1739c1b1a457a8c7313123d24d2f9192f896b7c63eea05a9d57f06547ad0cec8610160820152600087015161018082015260206000018701516101a08201527f198e9393920d483a7260bfb731fb5d25f1aa493335a9e71297e485b7aef312c26101c08201527f1800deef121f1e76426a00665e5c4479674322d4f75edadd46debd5cd992f6ed6101e08201527f090689d0585ff075ec9e99ad690c3395bc4b313370b38ef355acdadcd122975b6102008201527f12c85ea5db8c6deb4aab71808dcb408fe3d1e7690c43d37b4ce6cc0166fa7daa610220820152843561024082015260208501356102608201527f0ca35a0aa71f69e55f53625b25160f4d87204575708cfb99eff638302909d8816102808201527f2c444a5d82c2312791a876f747d83d7e5cb3505aabffc6fcf24dd836b6abcfe16102a08201527f040977030c2faa6c14e7758c3c366797c4beb82a1b05d74ff22851651e60ce136102c08201527f286f103b4e4940cc859f540d556d3d4023df4a51a6b179c19c7af993fb180b396102e08201526020816103008360086107d05a03fa9051169695505050505050565b60405161038081016040526108f8600084013561005e565b610905602084013561005e565b610912604084013561005e565b61091f606084013561005e565b61092c608084013561005e565b61093960a084013561005e565b61094660c084013561005e565b61095360e084013561005e565b61096161010084013561005e565b61096f61012084013561005e565b61097d61014084013561005e565b61098b61016084013561005e565b61099961018084013561005e565b6109a76101a084013561005e565b6109b56101c084013561005e565b6109c2818486888a6100fd565b90508060005260206000f35b80604081018310156109df57600080fd5b92915050565b6000806000806102e085870312156109fc57600080fd5b610a0686866109ce565b935060c0850186811115610a1957600080fd5b604086019350610a2987826109ce565b925050856102e086011115610a3d57600080fd5b5091949093509091610100019056fea2646970667358221220831db1d4671af9b7d59c161011312d72225fbc9185a1d2222525b558051fc6d064736f6c634300081b0033",
  "linkReferences": {},
  "deployedLinkReferences": {}
}