{
  "_format": "hh-sol-artifact-1",
  "contractName": "Verifier_signature_sha256_sha256_sha256_ecdsa_brainpoolP256r1",
  "sourceName": "contracts/verifiers/signature/Verifier_signature_sha256_sha256_sha256_ecdsa_brainpoolP256r1.sol",
  "abi": [
    {
      "inputs": [
        {
          "internalType": "uint256[2]",
          "name": "_pA",
          "type": "uint256[2]"
        },
        {
          "internalType": "uint256[2][2]",
          "name": "_pB",
          "type": "uint256[2][2]"
        },
        {
          "internalType": "uint256[2]",
          "name": "_pC",
          "type": "uint256[2]"
        },
        {
          "internalType": "uint256[3]",
          "name": "_pubSignals",
          "type": "uint256[3]"
        }
      ],
      "name": "verifyProof",
      "outputs": [
        {
          "internalType": "bool",
          "name": "",
          "type": "bool"
        }
      ],
      "stateMutability": "view",
      "type": "function"
    }
  ],
  "bytecode": "0x6080604052348015600f57600080fd5b506106188061001f6000396000f3fe608060405234801561001057600080fd5b506004361061002b5760003560e01c806311479fea14610030575b600080fd5b61004361003e36600461057b565b610057565b604051901515815260200160405180910390f35b6000610519565b7f30644e72e131a029b85045b68181585d2833e84879b9709143e1f593f0000001811061008f576000805260206000f35b50565b600060405183815284602082015285604082015260408160608360076107d05a03fa9150816100c5576000805260206000f35b825160408201526020830151606082015260408360808360066107d05a03fa915050806100f6576000805260206000f35b5050505050565b7f0cd8ed2cb3f92a5f0e512cbd8a7de6916946f6220143128d9b66342a05fa4c5385527f2a5e1f5db43b19384b034c465d5845fd741f84dc786fad6e617b946ac402f79f60208601526000608086018661019a87357f141b4db4c6fc6067c2f97385c7b5944e505374e65e8816a69a5020cfbdee17cb7f1140fe861be52a67f093b43b9a1396511d8bdef6a4279667c07be6e09bf57e2684610092565b6101ea60208801357f07b5e434954f5e74ad888cc4715785a4327b682facbfba43b01185b2a8338c4c7f031f97752c293bf9d68a3c086324b26864ce25ec3ed0b62074cdc73578917ac884610092565b61023a60408801357f0ec64b1b6badd59d315a49ed79af02cab1f299295ed3a1a2fe46dbf4f47391907f28fb0e65d1632ef66453700bbf06b509a695c75c8e759f0954d0ee0ff602011084610092565b50823581527f30644e72e131a029b85045b68181585d97816a916871ca8d3c208c16d87cfd4760208401357f30644e72e131a029b85045b68181585d97816a916871ca8d3c208c16d87cfd4703066020820152833560408201526020840135606082015260408401356080820152606084013560a08201527f2d4d9aa7e302d9df41749d5507949d05dbea33fbb16c643b22f599a2be6df2e260c08201527f14bedd503c37ceb061d8ec60209fe345ce89830a19230301f076caff004d192660e08201527f0967032fcbf776d1afc985f88877f182d38480a653f2decaa9794cbc3bf3060c6101008201527f0e187847ad4c798374d0d6732bf501847dd68bc0e071241e0213bc7fc13db7ab6101208201527f304cfbd1e08a704a99f5e847d93f8c3caafddec46b7a0d379da69a4d112346a76101408201527f1739c1b1a457a8c7313123d24d2f9192f896b7c63eea05a9d57f06547ad0cec8610160820152600087015161018082015260206000018701516101a08201527f198e9393920d483a7260bfb731fb5d25f1aa493335a9e71297e485b7aef312c26101c08201527f1800deef121f1e76426a00665e5c4479674322d4f75edadd46debd5cd992f6ed6101e08201527f090689d0585ff075ec9e99ad690c3395bc4b313370b38ef355acdadcd122975b6102008201527f12c85ea5db8c6deb4aab71808dcb408fe3d1e7690c43d37b4ce6cc0166fa7daa610220820152843561024082015260208501356102608201527e7ac905817bc4e8d8c0918356416bb1e8baa423ce85f6b606576cca9f8b383f6102808201527f058a7797cf82607bb751bcc18e3bd01cefdfdbb3d446289ceb0b46dfc1fa8a246102a08201527f24ea78d58aaa8a92c0b301c7906b37635db80e10fc1b25200f89957d6fddc2556102c08201527f287c5863e1311a2e007c24bd2e318af0c747b182e304aebf6ab9dcece009139f6102e08201526020816103008360086107d05a03fa9051169695505050505050565b6040516103808101604052610531600084013561005e565b61053e602084013561005e565b61054b604084013561005e565b610558818486888a6100fd565b90508060005260206000f35b806040810183101561057557600080fd5b92915050565b600080600080610160858703121561059257600080fd5b61059c8686610564565b935060c08501868111156105af57600080fd5b6040860193506105bf8782610564565b92505085610160860111156105d357600080fd5b5091949093509091610100019056fea26469706673582212208415a9b0b21b06707f5670558eed31a71f054653981fedb3b7febcf05b751d6c64736f6c634300081b0033",
  "linkReferences": {},
  "deployedLinkReferences": {}
}