{
  "_format": "hh-sol-artifact-1",
  "contractName": "Verifier_credential_sha512",
  "sourceName": "contracts/verifiers/credential/Verifier_credential_sha512.sol",
  "abi": [
    {
      "inputs": [
        {
          "internalType": "uint256[2]",
          "name": "_pA",
          "type": "uint256[2]"
        },
        {
          "internalType": "uint256[2][2]",
          "name": "_pB",
          "type": "uint256[2][2]"
        },
        {
          "internalType": "uint256[2]",
          "name": "_pC",
          "type": "uint256[2]"
        },
        {
          "internalType": "uint256[6]",
          "name": "_pubSignals",
          "type": "uint256[6]"
        }
      ],
      "name": "verifyProof",
      "outputs": [
        {
          "internalType": "bool",
          "name": "",
          "type": "bool"
        }
      ],
      "stateMutability": "view",
      "type": "function"
    }
  ],
  "bytecode": "0x6080806040523460155761077f908161001b8239f35b600080fdfe6080604052600436101561001257600080fd5b60003560e01c63f398789b1461002757600080fd5b346103bb576101c03660031901126103bb57610042366103c0565b3660c4116103bb57610053366103cd565b366101c4116103bb577f30644e72e131a029b85045b68181585d97816a916871ca8d3c208c16d87cfd476020809361040060405261015061010435610097816103db565b61014b610124356100a7816103db565b610146610144356100b7816103db565b61014161016435916100c8836103db565b61013c61018435956100d9876103db565b6101376101a435996100ea8b6103db565b7f1445f8a79ba5f4d0df86a2de9a59a8df0ed81b72e5c2ec860cc6ff961eeeb9016080527f0bca7d56386f03a7907fbf784b6dcea48edb3c118691e746069d238f2758713960a05261040e565b610498565b610522565b6105ab565b610635565b6106bf565b80356101005201358103066101205260443561014052606435610160526084356101805260a4356101a0527f2d4d9aa7e302d9df41749d5507949d05dbea33fbb16c643b22f599a2be6df2e26101c0527f14bedd503c37ceb061d8ec60209fe345ce89830a19230301f076caff004d19266101e0527f0967032fcbf776d1afc985f88877f182d38480a653f2decaa9794cbc3bf3060c610200527f0e187847ad4c798374d0d6732bf501847dd68bc0e071241e0213bc7fc13db7ab610220527f304cfbd1e08a704a99f5e847d93f8c3caafddec46b7a0d379da69a4d112346a7610240527f1739c1b1a457a8c7313123d24d2f9192f896b7c63eea05a9d57f06547ad0cec8610260526080516102805260a0516102a0527f198e9393920d483a7260bfb731fb5d25f1aa493335a9e71297e485b7aef312c26102c0527f1800deef121f1e76426a00665e5c4479674322d4f75edadd46debd5cd992f6ed6102e0527f090689d0585ff075ec9e99ad690c3395bc4b313370b38ef355acdadcd122975b610300527f12c85ea5db8c6deb4aab71808dcb408fe3d1e7690c43d37b4ce6cc0166fa7daa610320528035610340520135610360527f099124562aa6f44479dc9d74b311e2ef59b73ad259d3003505d8ead073cfdcb5610380527f059716d80cb6c376ae01a85e60881e959f5e1ba1c470bc7198b0c8eaeb15fb866103a0527f0bc2f806749c4b9cb827a054c757f001b3a4065f4d44bc1ffaad803a2c6559a46103c0527f0e0ceb95eea1dd9b145a31fcb0ae58cfd1321aa85c44d6a51661284a947d43436103e05260206101006103008160086107cf195a01fa610100511660005260206000f35b600080fd5b906004916044116103bb57565b9060c491610104116103bb57565b7f30644e72e131a029b85045b68181585d2833e84879b9709143e1f593f0000001111561040457565b6000805260206000f35b6040517f2d82d06de3f7b44efe86dd4aeb6e6d2f7a8605eec71dea4694441f3cde795f3281527f0a80ed4799b49e0430d32f620d65f8251a0e602ff504f5608183186107d5e3b860208201526040810191825260408160608160076107cf195a01fa1561040457608080916040938251905260a051606082015260066107cf195a01fa1561040457565b6040517f0d3f8d7da10039148121fed716a552650b12b91214b7a880b147cbe7ddfd62b281527f2e452e5b3c081c5fc05a300735058b154493722b042d9422d48e28835cb5d3f360208201526040810191825260408160608160076107cf195a01fa1561040457608080916040938251905260a051606082015260066107cf195a01fa1561040457565b6040517f15aa441bdb2bd6e25521ddbd6c454095f18eac40a0145777702d4e1ccc00cb7281527e451d2cf2524f12e57387d54f6847e39ba36b693568140a2dfbf1c6c693b9c360208201526040810191825260408160608160076107cf195a01fa1561040457608080916040938251905260a051606082015260066107cf195a01fa1561040457565b6040517f27a13793cd15017d865f170f59242dcc60fa711f6b7a832cfbe254f26840f2f481527f1902d8fec87c10d9d1cb8c20700fddaf71f529b2263e00a5e13d406ec8971e0b60208201526040810191825260408160608160076107cf195a01fa1561040457608080916040938251905260a051606082015260066107cf195a01fa1561040457565b6040517f0b1114044e54313d85350ddbc76b75cda2914b2f142c76c22276254c236c321b81527f060909e8cece31496f154feed581314c916585a377fc0a91af389efdf32be2ab60208201526040810191825260408160608160076107cf195a01fa1561040457608080916040938251905260a051606082015260066107cf195a01fa1561040457565b6040517f2f61805bb11a7ea8374670f0847524252ed95889561c1eb846e865a386a3dde781527f215e00ed38df7811ce0268d1e9556be3ac4d72d00db6c9e72e3917d18086e7b560208201526040810191825260408160608160076107cf195a01fa1561040457608080916040938251905260a051606082015260066107cf195a01fa156104045756fea264697066735822122037b9fee4c4c18c186c6526819c6e76bdc20fee4483dbe9eceff882a39cf4bd1f64736f6c634300081b0033",
  "linkReferences": {},
  "deployedLinkReferences": {}
}