{
  "_format": "hh-sol-artifact-1",
  "contractName": "PoseidonUnit4L",
  "sourceName": "@iden3/contracts/lib/Poseidon.sol",
  "abi": [
    {
      "inputs": [
        {
          "internalType": "uint256[4]",
          "name": "",
          "type": "uint256[4]"
        }
      ],
      "name": "poseidon",
      "outputs": [
        {
          "internalType": "uint256",
          "name": "",
          "type": "uint256"
        }
      ],
      "stateMutability": "pure",
      "type": "function"
    }
  ],
  "bytecode": "0x60808060405234601757607c9081601d823930815050f35b600080fdfe6080806040526004361015601257600080fd5b60003560e01c63248f667714602657600080fd5b60803660031901126041573660841160415780600060209252f35b600080fdfea26469706673582212202363271381abf1ac1e4b519ccd82b6bdb16b8be8c139cfd6fd6e94e49f8d47d064736f6c634300081b0033",
  "linkReferences": {},
  "deployedLinkReferences": {}
}