{
  "_format": "hh-sol-artifact-1",
  "contractName": "PassportCredentialIssuerImplV1",
  "sourceName": "contracts/verifiers/PassportCredentialIssuerImplV1.sol",
  "abi": [
    {
      "inputs": [],
      "stateMutability": "nonpayable",
      "type": "constructor"
    },
    {
      "inputs": [
        {
          "internalType": "address",
          "name": "target",
          "type": "address"
        }
      ],
      "name": "AddressEmptyCode",
      "type": "error"
    },
    {
      "inputs": [
        {
          "internalType": "address",
          "name": "implementation",
          "type": "address"
        }
      ],
      "name": "ERC1967InvalidImplementation",
      "type": "error"
    },
    {
      "inputs": [],
      "name": "ERC1967NonPayable",
      "type": "error"
    },
    {
      "inputs": [],
      "name": "FailedCall",
      "type": "error"
    },
    {
      "inputs": [],
      "name": "InvalidCredentialProof",
      "type": "error"
    },
    {
      "inputs": [
        {
          "internalType": "uint256",
          "name": "hashIndex",
          "type": "uint256"
        }
      ],
      "name": "InvalidHashIndex",
      "type": "error"
    },
    {
      "inputs": [
        {
          "internalType": "uint256",
          "name": "hashValue",
          "type": "uint256"
        }
      ],
      "name": "InvalidHashValue",
      "type": "error"
    },
    {
      "inputs": [],
      "name": "InvalidInitialization",
      "type": "error"
    },
    {
      "inputs": [],
      "name": "InvalidSignatureProof",
      "type": "error"
    },
    {
      "inputs": [
        {
          "internalType": "uint256",
          "name": "templateRoot",
          "type": "uint256"
        },
        {
          "internalType": "uint256",
          "name": "expectedTemplateRoot",
          "type": "uint256"
        }
      ],
      "name": "InvalidTemplateRoot",
      "type": "error"
    },
    {
      "inputs": [
        {
          "internalType": "uint256",
          "name": "issuanceDate",
          "type": "uint256"
        }
      ],
      "name": "IssuanceDateExpired",
      "type": "error"
    },
    {
      "inputs": [
        {
          "internalType": "uint256",
          "name": "length1",
          "type": "uint256"
        },
        {
          "internalType": "uint256",
          "name": "length2",
          "type": "uint256"
        }
      ],
      "name": "LengthMismatch",
      "type": "error"
    },
    {
      "inputs": [],
      "name": "NoVerifierSet",
      "type": "error"
    },
    {
      "inputs": [],
      "name": "NotInitializing",
      "type": "error"
    },
    {
      "inputs": [
        {
          "internalType": "uint256",
          "name": "nullifier",
          "type": "uint256"
        }
      ],
      "name": "NullifierAlreadyExists",
      "type": "error"
    },
    {
      "inputs": [
        {
          "internalType": "address",
          "name": "owner",
          "type": "address"
        }
      ],
      "name": "OwnableInvalidOwner",
      "type": "error"
    },
    {
      "inputs": [
        {
          "internalType": "address",
          "name": "account",
          "type": "address"
        }
      ],
      "name": "OwnableUnauthorizedAccount",
      "type": "error"
    },
    {
      "inputs": [],
      "name": "UUPSUnauthorizedCallContext",
      "type": "error"
    },
    {
      "inputs": [
        {
          "internalType": "bytes32",
          "name": "slot",
          "type": "bytes32"
        }
      ],
      "name": "UUPSUnsupportedProxiableUUID",
      "type": "error"
    },
    {
      "anonymous": false,
      "inputs": [
        {
          "indexed": false,
          "internalType": "string",
          "name": "circuitId",
          "type": "string"
        },
        {
          "indexed": false,
          "internalType": "address",
          "name": "verifier",
          "type": "address"
        }
      ],
      "name": "CredentialCircuitVerifierUpdated",
      "type": "event"
    },
    {
      "anonymous": false,
      "inputs": [
        {
          "indexed": false,
          "internalType": "uint256",
          "name": "expirationTime",
          "type": "uint256"
        }
      ],
      "name": "ExpirationTimeUpdated",
      "type": "event"
    },
    {
      "anonymous": false,
      "inputs": [
        {
          "indexed": false,
          "internalType": "uint64",
          "name": "version",
          "type": "uint64"
        }
      ],
      "name": "Initialized",
      "type": "event"
    },
    {
      "anonymous": false,
      "inputs": [
        {
          "indexed": true,
          "internalType": "address",
          "name": "previousOwner",
          "type": "address"
        },
        {
          "indexed": true,
          "internalType": "address",
          "name": "newOwner",
          "type": "address"
        }
      ],
      "name": "OwnershipTransferStarted",
      "type": "event"
    },
    {
      "anonymous": false,
      "inputs": [
        {
          "indexed": true,
          "internalType": "address",
          "name": "previousOwner",
          "type": "address"
        },
        {
          "indexed": true,
          "internalType": "address",
          "name": "newOwner",
          "type": "address"
        }
      ],
      "name": "OwnershipTransferred",
      "type": "event"
    },
    {
      "anonymous": false,
      "inputs": [
        {
          "indexed": false,
          "internalType": "address",
          "name": "registry",
          "type": "address"
        }
      ],
      "name": "RegistryUpdated",
      "type": "event"
    },
    {
      "anonymous": false,
      "inputs": [
        {
          "indexed": false,
          "internalType": "string",
          "name": "circuitId",
          "type": "string"
        },
        {
          "indexed": false,
          "internalType": "address",
          "name": "verifier",
          "type": "address"
        }
      ],
      "name": "SignatureCircuitVerifierUpdated",
      "type": "event"
    },
    {
      "anonymous": false,
      "inputs": [
        {
          "indexed": false,
          "internalType": "uint256",
          "name": "tampletRoot",
          "type": "uint256"
        }
      ],
      "name": "TemplateRootUpdated",
      "type": "event"
    },
    {
      "anonymous": false,
      "inputs": [
        {
          "indexed": true,
          "internalType": "address",
          "name": "implementation",
          "type": "address"
        }
      ],
      "name": "Upgraded",
      "type": "event"
    },
    {
      "inputs": [],
      "name": "UPGRADE_INTERFACE_VERSION",
      "outputs": [
        {
          "internalType": "string",
          "name": "",
          "type": "string"
        }
      ],
      "stateMutability": "view",
      "type": "function"
    },
    {
      "inputs": [],
      "name": "acceptOwnership",
      "outputs": [],
      "stateMutability": "nonpayable",
      "type": "function"
    },
    {
      "inputs": [
        {
          "internalType": "uint256",
          "name": "nullifier",
          "type": "uint256"
        }
      ],
      "name": "cleanNullifier",
      "outputs": [],
      "stateMutability": "nonpayable",
      "type": "function"
    },
    {
      "inputs": [
        {
          "internalType": "string",
          "name": "circuitId",
          "type": "string"
        }
      ],
      "name": "credentialVerifiers",
      "outputs": [
        {
          "internalType": "address",
          "name": "",
          "type": "address"
        }
      ],
      "stateMutability": "view",
      "type": "function"
    },
    {
      "inputs": [
        {
          "internalType": "uint256",
          "name": "claimIndexHash",
          "type": "uint256"
        }
      ],
      "name": "getClaimProof",
      "outputs": [
        {
          "components": [
            {
              "internalType": "uint256",
              "name": "root",
              "type": "uint256"
            },
            {
              "internalType": "bool",
              "name": "existence",
              "type": "bool"
            },
            {
              "internalType": "uint256[]",
              "name": "siblings",
              "type": "uint256[]"
            },
            {
              "internalType": "uint256",
              "name": "index",
              "type": "uint256"
            },
            {
              "internalType": "uint256",
              "name": "value",
              "type": "uint256"
            },
            {
              "internalType": "bool",
              "name": "auxExistence",
              "type": "bool"
            },
            {
              "internalType": "uint256",
              "name": "auxIndex",
              "type": "uint256"
            },
            {
              "internalType": "uint256",
              "name": "auxValue",
              "type": "uint256"
            }
          ],
          "internalType": "struct SmtLib.Proof",
          "name": "",
          "type": "tuple"
        }
      ],
      "stateMutability": "view",
      "type": "function"
    },
    {
      "inputs": [
        {
          "internalType": "uint256",
          "name": "claimIndexHash",
          "type": "uint256"
        },
        {
          "internalType": "uint256",
          "name": "root",
          "type": "uint256"
        }
      ],
      "name": "getClaimProofByRoot",
      "outputs": [
        {
          "components": [
            {
              "internalType": "uint256",
              "name": "root",
              "type": "uint256"
            },
            {
              "internalType": "bool",
              "name": "existence",
              "type": "bool"
            },
            {
              "internalType": "uint256[]",
              "name": "siblings",
              "type": "uint256[]"
            },
            {
              "internalType": "uint256",
              "name": "index",
              "type": "uint256"
            },
            {
              "internalType": "uint256",
              "name": "value",
              "type": "uint256"
            },
            {
              "internalType": "bool",
              "name": "auxExistence",
              "type": "bool"
            },
            {
              "internalType": "uint256",
              "name": "auxIndex",
              "type": "uint256"
            },
            {
              "internalType": "uint256",
              "name": "auxValue",
              "type": "uint256"
            }
          ],
          "internalType": "struct SmtLib.Proof",
          "name": "",
          "type": "tuple"
        }
      ],
      "stateMutability": "view",
      "type": "function"
    },
    {
      "inputs": [
        {
          "internalType": "uint256",
          "name": "claimIndexHash",
          "type": "uint256"
        }
      ],
      "name": "getClaimProofWithStateInfo",
      "outputs": [
        {
          "components": [
            {
              "internalType": "uint256",
              "name": "root",
              "type": "uint256"
            },
            {
              "internalType": "bool",
              "name": "existence",
              "type": "bool"
            },
            {
              "internalType": "uint256[]",
              "name": "siblings",
              "type": "uint256[]"
            },
            {
              "internalType": "uint256",
              "name": "index",
              "type": "uint256"
            },
            {
              "internalType": "uint256",
              "name": "value",
              "type": "uint256"
            },
            {
              "internalType": "bool",
              "name": "auxExistence",
              "type": "bool"
            },
            {
              "internalType": "uint256",
              "name": "auxIndex",
              "type": "uint256"
            },
            {
              "internalType": "uint256",
              "name": "auxValue",
              "type": "uint256"
            }
          ],
          "internalType": "struct SmtLib.Proof",
          "name": "",
          "type": "tuple"
        },
        {
          "components": [
            {
              "internalType": "uint256",
              "name": "state",
              "type": "uint256"
            },
            {
              "internalType": "uint256",
              "name": "claimsRoot",
              "type": "uint256"
            },
            {
              "internalType": "uint256",
              "name": "revocationsRoot",
              "type": "uint256"
            },
            {
              "internalType": "uint256",
              "name": "rootsRoot",
              "type": "uint256"
            }
          ],
          "internalType": "struct IdentityLib.StateInfo",
          "name": "",
          "type": "tuple"
        }
      ],
      "stateMutability": "view",
      "type": "function"
    },
    {
      "inputs": [],
      "name": "getClaimsTreeRoot",
      "outputs": [
        {
          "internalType": "uint256",
          "name": "",
          "type": "uint256"
        }
      ],
      "stateMutability": "view",
      "type": "function"
    },
    {
      "inputs": [],
      "name": "getExpirationTime",
      "outputs": [
        {
          "internalType": "uint256",
          "name": "",
          "type": "uint256"
        }
      ],
      "stateMutability": "view",
      "type": "function"
    },
    {
      "inputs": [],
      "name": "getId",
      "outputs": [
        {
          "internalType": "uint256",
          "name": "",
          "type": "uint256"
        }
      ],
      "stateMutability": "view",
      "type": "function"
    },
    {
      "inputs": [],
      "name": "getIsOldStateGenesis",
      "outputs": [
        {
          "internalType": "bool",
          "name": "",
          "type": "bool"
        }
      ],
      "stateMutability": "view",
      "type": "function"
    },
    {
      "inputs": [],
      "name": "getLatestPublishedClaimsRoot",
      "outputs": [
        {
          "internalType": "uint256",
          "name": "",
          "type": "uint256"
        }
      ],
      "stateMutability": "view",
      "type": "function"
    },
    {
      "inputs": [],
      "name": "getLatestPublishedRevocationsRoot",
      "outputs": [
        {
          "internalType": "uint256",
          "name": "",
          "type": "uint256"
        }
      ],
      "stateMutability": "view",
      "type": "function"
    },
    {
      "inputs": [],
      "name": "getLatestPublishedRootsRoot",
      "outputs": [
        {
          "internalType": "uint256",
          "name": "",
          "type": "uint256"
        }
      ],
      "stateMutability": "view",
      "type": "function"
    },
    {
      "inputs": [],
      "name": "getLatestPublishedState",
      "outputs": [
        {
          "internalType": "uint256",
          "name": "",
          "type": "uint256"
        }
      ],
      "stateMutability": "view",
      "type": "function"
    },
    {
      "inputs": [],
      "name": "getRegistry",
      "outputs": [
        {
          "internalType": "address",
          "name": "",
          "type": "address"
        }
      ],
      "stateMutability": "view",
      "type": "function"
    },
    {
      "inputs": [
        {
          "internalType": "uint64",
          "name": "revocationNonce",
          "type": "uint64"
        }
      ],
      "name": "getRevocationProof",
      "outputs": [
        {
          "components": [
            {
              "internalType": "uint256",
              "name": "root",
              "type": "uint256"
            },
            {
              "internalType": "bool",
              "name": "existence",
              "type": "bool"
            },
            {
              "internalType": "uint256[]",
              "name": "siblings",
              "type": "uint256[]"
            },
            {
              "internalType": "uint256",
              "name": "index",
              "type": "uint256"
            },
            {
              "internalType": "uint256",
              "name": "value",
              "type": "uint256"
            },
            {
              "internalType": "bool",
              "name": "auxExistence",
              "type": "bool"
            },
            {
              "internalType": "uint256",
              "name": "auxIndex",
              "type": "uint256"
            },
            {
              "internalType": "uint256",
              "name": "auxValue",
              "type": "uint256"
            }
          ],
          "internalType": "struct SmtLib.Proof",
          "name": "",
          "type": "tuple"
        }
      ],
      "stateMutability": "view",
      "type": "function"
    },
    {
      "inputs": [
        {
          "internalType": "uint64",
          "name": "revocationNonce",
          "type": "uint64"
        },
        {
          "internalType": "uint256",
          "name": "root",
          "type": "uint256"
        }
      ],
      "name": "getRevocationProofByRoot",
      "outputs": [
        {
          "components": [
            {
              "internalType": "uint256",
              "name": "root",
              "type": "uint256"
            },
            {
              "internalType": "bool",
              "name": "existence",
              "type": "bool"
            },
            {
              "internalType": "uint256[]",
              "name": "siblings",
              "type": "uint256[]"
            },
            {
              "internalType": "uint256",
              "name": "index",
              "type": "uint256"
            },
            {
              "internalType": "uint256",
              "name": "value",
              "type": "uint256"
            },
            {
              "internalType": "bool",
              "name": "auxExistence",
              "type": "bool"
            },
            {
              "internalType": "uint256",
              "name": "auxIndex",
              "type": "uint256"
            },
            {
              "internalType": "uint256",
              "name": "auxValue",
              "type": "uint256"
            }
          ],
          "internalType": "struct SmtLib.Proof",
          "name": "",
          "type": "tuple"
        }
      ],
      "stateMutability": "view",
      "type": "function"
    },
    {
      "inputs": [
        {
          "internalType": "uint64",
          "name": "revocationNonce",
          "type": "uint64"
        }
      ],
      "name": "getRevocationProofWithStateInfo",
      "outputs": [
        {
          "components": [
            {
              "internalType": "uint256",
              "name": "root",
              "type": "uint256"
            },
            {
              "internalType": "bool",
              "name": "existence",
              "type": "bool"
            },
            {
              "internalType": "uint256[]",
              "name": "siblings",
              "type": "uint256[]"
            },
            {
              "internalType": "uint256",
              "name": "index",
              "type": "uint256"
            },
            {
              "internalType": "uint256",
              "name": "value",
              "type": "uint256"
            },
            {
              "internalType": "bool",
              "name": "auxExistence",
              "type": "bool"
            },
            {
              "internalType": "uint256",
              "name": "auxIndex",
              "type": "uint256"
            },
            {
              "internalType": "uint256",
              "name": "auxValue",
              "type": "uint256"
            }
          ],
          "internalType": "struct SmtLib.Proof",
          "name": "",
          "type": "tuple"
        },
        {
          "components": [
            {
              "internalType": "uint256",
              "name": "state",
              "type": "uint256"
            },
            {
              "internalType": "uint256",
              "name": "claimsRoot",
              "type": "uint256"
            },
            {
              "internalType": "uint256",
              "name": "revocationsRoot",
              "type": "uint256"
            },
            {
              "internalType": "uint256",
              "name": "rootsRoot",
              "type": "uint256"
            }
          ],
          "internalType": "struct IdentityLib.StateInfo",
          "name": "",
          "type": "tuple"
        }
      ],
      "stateMutability": "view",
      "type": "function"
    },
    {
      "inputs": [
        {
          "internalType": "uint256",
          "name": "id",
          "type": "uint256"
        },
        {
          "internalType": "uint64",
          "name": "nonce",
          "type": "uint64"
        }
      ],
      "name": "getRevocationStatus",
      "outputs": [
        {
          "components": [
            {
              "components": [
                {
                  "internalType": "uint256",
                  "name": "state",
                  "type": "uint256"
                },
                {
                  "internalType": "uint256",
                  "name": "claimsTreeRoot",
                  "type": "uint256"
                },
                {
                  "internalType": "uint256",
                  "name": "revocationTreeRoot",
                  "type": "uint256"
                },
                {
                  "internalType": "uint256",
                  "name": "rootOfRoots",
                  "type": "uint256"
                }
              ],
              "internalType": "struct IOnchainCredentialStatusResolver.IdentityStateRoots",
              "name": "issuer",
              "type": "tuple"
            },
            {
              "components": [
                {
                  "internalType": "uint256",
                  "name": "root",
                  "type": "uint256"
                },
                {
                  "internalType": "bool",
                  "name": "existence",
                  "type": "bool"
                },
                {
                  "internalType": "uint256[]",
                  "name": "siblings",
                  "type": "uint256[]"
                },
                {
                  "internalType": "uint256",
                  "name": "index",
                  "type": "uint256"
                },
                {
                  "internalType": "uint256",
                  "name": "value",
                  "type": "uint256"
                },
                {
                  "internalType": "bool",
                  "name": "auxExistence",
                  "type": "bool"
                },
                {
                  "internalType": "uint256",
                  "name": "auxIndex",
                  "type": "uint256"
                },
                {
                  "internalType": "uint256",
                  "name": "auxValue",
                  "type": "uint256"
                }
              ],
              "internalType": "struct IOnchainCredentialStatusResolver.Proof",
              "name": "mtp",
              "type": "tuple"
            }
          ],
          "internalType": "struct IOnchainCredentialStatusResolver.CredentialStatus",
          "name": "",
          "type": "tuple"
        }
      ],
      "stateMutability": "view",
      "type": "function"
    },
    {
      "inputs": [
        {
          "internalType": "uint256",
          "name": "id",
          "type": "uint256"
        },
        {
          "internalType": "uint256",
          "name": "state",
          "type": "uint256"
        },
        {
          "internalType": "uint64",
          "name": "nonce",
          "type": "uint64"
        }
      ],
      "name": "getRevocationStatusByIdAndState",
      "outputs": [
        {
          "components": [
            {
              "components": [
                {
                  "internalType": "uint256",
                  "name": "state",
                  "type": "uint256"
                },
                {
                  "internalType": "uint256",
                  "name": "claimsTreeRoot",
                  "type": "uint256"
                },
                {
                  "internalType": "uint256",
                  "name": "revocationTreeRoot",
                  "type": "uint256"
                },
                {
                  "internalType": "uint256",
                  "name": "rootOfRoots",
                  "type": "uint256"
                }
              ],
              "internalType": "struct IOnchainCredentialStatusResolver.IdentityStateRoots",
              "name": "issuer",
              "type": "tuple"
            },
            {
              "components": [
                {
                  "internalType": "uint256",
                  "name": "root",
                  "type": "uint256"
                },
                {
                  "internalType": "bool",
                  "name": "existence",
                  "type": "bool"
                },
                {
                  "internalType": "uint256[]",
                  "name": "siblings",
                  "type": "uint256[]"
                },
                {
                  "internalType": "uint256",
                  "name": "index",
                  "type": "uint256"
                },
                {
                  "internalType": "uint256",
                  "name": "value",
                  "type": "uint256"
                },
                {
                  "internalType": "bool",
                  "name": "auxExistence",
                  "type": "bool"
                },
                {
                  "internalType": "uint256",
                  "name": "auxIndex",
                  "type": "uint256"
                },
                {
                  "internalType": "uint256",
                  "name": "auxValue",
                  "type": "uint256"
                }
              ],
              "internalType": "struct IOnchainCredentialStatusResolver.Proof",
              "name": "mtp",
              "type": "tuple"
            }
          ],
          "internalType": "struct IOnchainCredentialStatusResolver.CredentialStatus",
          "name": "",
          "type": "tuple"
        }
      ],
      "stateMutability": "view",
      "type": "function"
    },
    {
      "inputs": [],
      "name": "getRevocationsTreeRoot",
      "outputs": [
        {
          "internalType": "uint256",
          "name": "",
          "type": "uint256"
        }
      ],
      "stateMutability": "view",
      "type": "function"
    },
    {
      "inputs": [
        {
          "internalType": "uint256",
          "name": "rootsTreeRoot",
          "type": "uint256"
        }
      ],
      "name": "getRootProof",
      "outputs": [
        {
          "components": [
            {
              "internalType": "uint256",
              "name": "root",
              "type": "uint256"
            },
            {
              "internalType": "bool",
              "name": "existence",
              "type": "bool"
            },
            {
              "internalType": "uint256[]",
              "name": "siblings",
              "type": "uint256[]"
            },
            {
              "internalType": "uint256",
              "name": "index",
              "type": "uint256"
            },
            {
              "internalType": "uint256",
              "name": "value",
              "type": "uint256"
            },
            {
              "internalType": "bool",
              "name": "auxExistence",
              "type": "bool"
            },
            {
              "internalType": "uint256",
              "name": "auxIndex",
              "type": "uint256"
            },
            {
              "internalType": "uint256",
              "name": "auxValue",
              "type": "uint256"
            }
          ],
          "internalType": "struct SmtLib.Proof",
          "name": "",
          "type": "tuple"
        }
      ],
      "stateMutability": "view",
      "type": "function"
    },
    {
      "inputs": [
        {
          "internalType": "uint256",
          "name": "claimsTreeRoot",
          "type": "uint256"
        },
        {
          "internalType": "uint256",
          "name": "root",
          "type": "uint256"
        }
      ],
      "name": "getRootProofByRoot",
      "outputs": [
        {
          "components": [
            {
              "internalType": "uint256",
              "name": "root",
              "type": "uint256"
            },
            {
              "internalType": "bool",
              "name": "existence",
              "type": "bool"
            },
            {
              "internalType": "uint256[]",
              "name": "siblings",
              "type": "uint256[]"
            },
            {
              "internalType": "uint256",
              "name": "index",
              "type": "uint256"
            },
            {
              "internalType": "uint256",
              "name": "value",
              "type": "uint256"
            },
            {
              "internalType": "bool",
              "name": "auxExistence",
              "type": "bool"
            },
            {
              "internalType": "uint256",
              "name": "auxIndex",
              "type": "uint256"
            },
            {
              "internalType": "uint256",
              "name": "auxValue",
              "type": "uint256"
            }
          ],
          "internalType": "struct SmtLib.Proof",
          "name": "",
          "type": "tuple"
        }
      ],
      "stateMutability": "view",
      "type": "function"
    },
    {
      "inputs": [
        {
          "internalType": "uint256",
          "name": "rootsTreeRoot",
          "type": "uint256"
        }
      ],
      "name": "getRootProofWithStateInfo",
      "outputs": [
        {
          "components": [
            {
              "internalType": "uint256",
              "name": "root",
              "type": "uint256"
            },
            {
              "internalType": "bool",
              "name": "existence",
              "type": "bool"
            },
            {
              "internalType": "uint256[]",
              "name": "siblings",
              "type": "uint256[]"
            },
            {
              "internalType": "uint256",
              "name": "index",
              "type": "uint256"
            },
            {
              "internalType": "uint256",
              "name": "value",
              "type": "uint256"
            },
            {
              "internalType": "bool",
              "name": "auxExistence",
              "type": "bool"
            },
            {
              "internalType": "uint256",
              "name": "auxIndex",
              "type": "uint256"
            },
            {
              "internalType": "uint256",
              "name": "auxValue",
              "type": "uint256"
            }
          ],
          "internalType": "struct SmtLib.Proof",
          "name": "",
          "type": "tuple"
        },
        {
          "components": [
            {
              "internalType": "uint256",
              "name": "state",
              "type": "uint256"
            },
            {
              "internalType": "uint256",
              "name": "claimsRoot",
              "type": "uint256"
            },
            {
              "internalType": "uint256",
              "name": "revocationsRoot",
              "type": "uint256"
            },
            {
              "internalType": "uint256",
              "name": "rootsRoot",
              "type": "uint256"
            }
          ],
          "internalType": "struct IdentityLib.StateInfo",
          "name": "",
          "type": "tuple"
        }
      ],
      "stateMutability": "view",
      "type": "function"
    },
    {
      "inputs": [
        {
          "internalType": "uint256",
          "name": "state",
          "type": "uint256"
        }
      ],
      "name": "getRootsByState",
      "outputs": [
        {
          "components": [
            {
              "internalType": "uint256",
              "name": "claimsRoot",
              "type": "uint256"
            },
            {
              "internalType": "uint256",
              "name": "revocationsRoot",
              "type": "uint256"
            },
            {
              "internalType": "uint256",
              "name": "rootsRoot",
              "type": "uint256"
            }
          ],
          "internalType": "struct IdentityLib.Roots",
          "name": "",
          "type": "tuple"
        }
      ],
      "stateMutability": "view",
      "type": "function"
    },
    {
      "inputs": [],
      "name": "getRootsTreeRoot",
      "outputs": [
        {
          "internalType": "uint256",
          "name": "",
          "type": "uint256"
        }
      ],
      "stateMutability": "view",
      "type": "function"
    },
    {
      "inputs": [],
      "name": "getSmtDepth",
      "outputs": [
        {
          "internalType": "uint256",
          "name": "",
          "type": "uint256"
        }
      ],
      "stateMutability": "pure",
      "type": "function"
    },
    {
      "inputs": [],
      "name": "getTemplateRoot",
      "outputs": [
        {
          "internalType": "uint256",
          "name": "",
          "type": "uint256"
        }
      ],
      "stateMutability": "view",
      "type": "function"
    },
    {
      "inputs": [
        {
          "internalType": "address",
          "name": "_stateContractAddr",
          "type": "address"
        },
        {
          "internalType": "bytes2",
          "name": "idType",
          "type": "bytes2"
        }
      ],
      "name": "initialize",
      "outputs": [],
      "stateMutability": "nonpayable",
      "type": "function"
    },
    {
      "inputs": [
        {
          "internalType": "uint256",
          "name": "expirationTime",
          "type": "uint256"
        },
        {
          "internalType": "uint256",
          "name": "templateRoot",
          "type": "uint256"
        },
        {
          "internalType": "address",
          "name": "registry",
          "type": "address"
        },
        {
          "internalType": "string[]",
          "name": "credentialCircuitIds",
          "type": "string[]"
        },
        {
          "internalType": "address[]",
          "name": "credentialVerifierAddresses",
          "type": "address[]"
        },
        {
          "internalType": "string[]",
          "name": "signatureCircuitIds",
          "type": "string[]"
        },
        {
          "internalType": "address[]",
          "name": "signatureVerifierAddresses",
          "type": "address[]"
        },
        {
          "internalType": "address",
          "name": "stateAddress",
          "type": "address"
        },
        {
          "internalType": "bytes2",
          "name": "idType",
          "type": "bytes2"
        }
      ],
      "name": "initializeIssuer",
      "outputs": [],
      "stateMutability": "nonpayable",
      "type": "function"
    },
    {
      "inputs": [],
      "name": "owner",
      "outputs": [
        {
          "internalType": "address",
          "name": "",
          "type": "address"
        }
      ],
      "stateMutability": "view",
      "type": "function"
    },
    {
      "inputs": [],
      "name": "pendingOwner",
      "outputs": [
        {
          "internalType": "address",
          "name": "",
          "type": "address"
        }
      ],
      "stateMutability": "view",
      "type": "function"
    },
    {
      "inputs": [],
      "name": "proxiableUUID",
      "outputs": [
        {
          "internalType": "bytes32",
          "name": "",
          "type": "bytes32"
        }
      ],
      "stateMutability": "view",
      "type": "function"
    },
    {
      "inputs": [],
      "name": "renounceOwnership",
      "outputs": [],
      "stateMutability": "nonpayable",
      "type": "function"
    },
    {
      "inputs": [
        {
          "internalType": "uint256",
          "name": "expirationTime",
          "type": "uint256"
        }
      ],
      "name": "setExpirationTime",
      "outputs": [],
      "stateMutability": "nonpayable",
      "type": "function"
    },
    {
      "inputs": [
        {
          "internalType": "address",
          "name": "registry",
          "type": "address"
        }
      ],
      "name": "setRegistry",
      "outputs": [],
      "stateMutability": "nonpayable",
      "type": "function"
    },
    {
      "inputs": [
        {
          "internalType": "uint256",
          "name": "templateRoot",
          "type": "uint256"
        }
      ],
      "name": "setTemplateRoot",
      "outputs": [],
      "stateMutability": "nonpayable",
      "type": "function"
    },
    {
      "inputs": [
        {
          "internalType": "string",
          "name": "circuitId",
          "type": "string"
        }
      ],
      "name": "signatureVerifiers",
      "outputs": [
        {
          "internalType": "address",
          "name": "",
          "type": "address"
        }
      ],
      "stateMutability": "view",
      "type": "function"
    },
    {
      "inputs": [
        {
          "internalType": "bytes4",
          "name": "interfaceId",
          "type": "bytes4"
        }
      ],
      "name": "supportsInterface",
      "outputs": [
        {
          "internalType": "bool",
          "name": "",
          "type": "bool"
        }
      ],
      "stateMutability": "view",
      "type": "function"
    },
    {
      "inputs": [
        {
          "internalType": "address",
          "name": "newOwner",
          "type": "address"
        }
      ],
      "name": "transferOwnership",
      "outputs": [],
      "stateMutability": "nonpayable",
      "type": "function"
    },
    {
      "inputs": [
        {
          "internalType": "string[]",
          "name": "circuitIds",
          "type": "string[]"
        },
        {
          "internalType": "address[]",
          "name": "verifierAddresses",
          "type": "address[]"
        }
      ],
      "name": "updateCredentialVerifiers",
      "outputs": [],
      "stateMutability": "nonpayable",
      "type": "function"
    },
    {
      "inputs": [
        {
          "internalType": "string[]",
          "name": "circuitIds",
          "type": "string[]"
        },
        {
          "internalType": "address[]",
          "name": "verifierAddresses",
          "type": "address[]"
        }
      ],
      "name": "updateSignatureVerifiers",
      "outputs": [],
      "stateMutability": "nonpayable",
      "type": "function"
    },
    {
      "inputs": [
        {
          "internalType": "address",
          "name": "newImplementation",
          "type": "address"
        },
        {
          "internalType": "bytes",
          "name": "data",
          "type": "bytes"
        }
      ],
      "name": "upgradeToAndCall",
      "outputs": [],
      "stateMutability": "payable",
      "type": "function"
    },
    {
      "inputs": [
        {
          "internalType": "string",
          "name": "credentialCircuitId",
          "type": "string"
        },
        {
          "components": [
            {
              "internalType": "uint256[2]",
              "name": "a",
              "type": "uint256[2]"
            },
            {
              "internalType": "uint256[2][2]",
              "name": "b",
              "type": "uint256[2][2]"
            },
            {
              "internalType": "uint256[2]",
              "name": "c",
              "type": "uint256[2]"
            },
            {
              "internalType": "uint256[15]",
              "name": "pubSignals",
              "type": "uint256[15]"
            }
          ],
          "internalType": "struct ICredentialCircuitVerifier.CredentialCircuitProof",
          "name": "credentialCircuitProof",
          "type": "tuple"
        },
        {
          "internalType": "string",
          "name": "signatureCircuitId",
          "type": "string"
        },
        {
          "components": [
            {
              "internalType": "uint256[2]",
              "name": "a",
              "type": "uint256[2]"
            },
            {
              "internalType": "uint256[2][2]",
              "name": "b",
              "type": "uint256[2][2]"
            },
            {
              "internalType": "uint256[2]",
              "name": "c",
              "type": "uint256[2]"
            },
            {
              "internalType": "uint256[3]",
              "name": "pubSignals",
              "type": "uint256[3]"
            }
          ],
          "internalType": "struct ISignatureCircuitVerifier.SignatureCircuitProof",
          "name": "signatureCircuitProof",
          "type": "tuple"
        }
      ],
      "name": "verifyPassportCredential",
      "outputs": [],
      "stateMutability": "nonpayable",
      "type": "function"
    }
  ],
  "bytecode": "0x60a06040523060805234801561001457600080fd5b5061001d610022565b6100d4565b7ff0c57e16840df040f15088dc2f81fe391c3923bec73e23a9662efc9c229c6a00805468010000000000000000900460ff16156100725760405163f92ee8a960e01b815260040160405180910390fd5b80546001600160401b03908116146100d15780546001600160401b0319166001600160401b0390811782556040519081527fc7f505b2f371ae2175ee4913f4499e1f2633a7b5936321eed1cdaeb6115181d29060200160405180910390a15b50565b6080516134776100fd60003960008181611bf101528181611c1a0152611d6801526134776000f3fe6080604052600436106102715760003560e01c80639674cfa41161014f578063badf055d116100c1578063da68a0b11161007a578063da68a0b114610757578063e23a845a1461076c578063e26ecb0b14610781578063e30c3978146107a1578063f2fde38b146107b6578063f84c7c1e146107d657600080fd5b8063badf055d146106a2578063c0cc365d146106c2578063c1e32733146106e2578063c6365a3b14610702578063cde1cacb14610717578063d94b02711461073757600080fd5b8063aad7292111610113578063aad72921146105a2578063ad3cb1cc146105c2578063b354c2d814610600578063b37feda414610620578063b57a40cb14610640578063b8db68711461066057600080fd5b80639674cfa41461050d5780639dc3c7ba14610522578063a635c78514610542578063a646cba814610562578063a91ee0dc1461058257600080fd5b80633f0c6648116101e857806352d1902d116101ac57806352d1902d146104775780635ab1bd531461048c5780635d1ca631146104b9578063715018a6146104ce57806379ba5097146104e35780638da5cb5b146104f857600080fd5b80633f0c6648146103fb578063406e8b4c1461040f578063443d75341461042f5780634f1ef2861461044f578063523b81361461046257600080fd5b8063264850631161023a578063264850631461034f5780632c1d32041461037c5780632d5c4f2514610391578063310d0d5b146103b15780633d59ec60146103d15780633df432fc146103e657600080fd5b806233058d1461027657806301c85c77146102ad57806301ffc9a7146102d057806309bdc4b114610300578063110c96a714610322575b600080fd5b34801561028257600080fd5b50610296610291366004612653565b6107eb565b6040516102a4929190612710565b60405180910390f35b3480156102b957600080fd5b506102c26108b8565b6040519081526020016102a4565b3480156102dc57600080fd5b506102f06102eb366004612753565b61093d565b60405190151581526020016102a4565b34801561030c57600080fd5b5061032061031b3660046129d1565b610974565b005b34801561032e57600080fd5b5061034261033d366004612ad3565b610c7a565b6040516102a49190612aff565b34801561035b57600080fd5b5061036f61036a366004612653565b610ca5565b6040516102a49190612b4c565b34801561038857600080fd5b506102c2610d3e565b34801561039d57600080fd5b5061036f6103ac366004612b5f565b610d6e565b3480156103bd57600080fd5b5061036f6103cc366004612b5f565b610e0d565b3480156103dd57600080fd5b506102c2610e64565b3480156103f257600080fd5b506102c2610e77565b34801561040757600080fd5b5060286102c2565b34801561041b57600080fd5b5061032061042a366004612b81565b610eba565b34801561043b57600080fd5b5061029661044a366004612bab565b610f57565b61032061045d366004612bc4565b610fd2565b34801561046e57600080fd5b506102c2610ff1565b34801561048357600080fd5b506102c2611004565b34801561049857600080fd5b506104a1611021565b6040516001600160a01b0390911681526020016102a4565b3480156104c557600080fd5b506102c261105a565b3480156104da57600080fd5b5061032061106a565b3480156104ef57600080fd5b5061032061107e565b34801561050457600080fd5b506104a16110c6565b34801561051957600080fd5b506102c26110fb565b34801561052e57600080fd5b5061032061053d366004612c25565b61110e565b34801561054e57600080fd5b506104a161055d366004612c82565b611259565b34801561056e57600080fd5b5061032061057d366004612e58565b6112b4565b34801561058e57600080fd5b5061032061059d366004612f4b565b6112d2565b3480156105ae57600080fd5b506103426105bd366004612f66565b611356565b3480156105ce57600080fd5b506105f3604051806040016040528060058152602001640352e302e360dc1b81525081565b6040516102a49190612feb565b34801561060c57600080fd5b5061032061061b366004612bab565b61156f565b34801561062c57600080fd5b5061029661063b366004612bab565b6115d3565b34801561064c57600080fd5b5061036f61065b366004612bab565b61164e565b34801561066c57600080fd5b5061068061067b366004612bab565b61169c565b60408051825181526020808401519082015291810151908201526060016102a4565b3480156106ae57600080fd5b506103206106bd366004612c25565b611744565b3480156106ce57600080fd5b506103206106dd366004612bab565b611889565b3480156106ee57600080fd5b5061036f6106fd366004612bab565b6118da565b34801561070e57600080fd5b506102c261192a565b34801561072357600080fd5b506104a1610732366004612c82565b61193d565b34801561074357600080fd5b50610320610752366004612bab565b611977565b34801561076357600080fd5b506102c2611a25565b34801561077857600080fd5b506102c2611a68565b34801561078d57600080fd5b5061036f61079c366004612ffe565b611a8e565b3480156107ad57600080fd5b506104a1611aed565b3480156107c257600080fd5b506103206107d1366004612f4b565b611b16565b3480156107e257600080fd5b506102f0611b9b565b6107f3612567565b61081e6040518060800160405280600081526020016000815260200160008152602001600081525090565b610826611bb1565b604051631f17004d60e31b815260048101919091526001600160401b038416602482015273__$068aad146bf104111ba65c4a1de2cd0e23$__9063f8b80268906044015b600060405180830381865af4158015610887573d6000803e3d6000fd5b505050506040513d6000823e601f3d908101601f191682016040526108af9190810190613134565b91509150915091565b60006108c2611bb1565b60405163765c2c6160e01b8152600481019190915273__$068aad146bf104111ba65c4a1de2cd0e23$__9063765c2c61906024015b602060405180830381865af4158015610914573d6000803e3d6000fd5b505050506040513d601f19601f8201168201806040525081019061093891906131be565b905090565b60006001600160e01b03198216635d1ca63160e01b148061096e57506301ffc9a760e01b6001600160e01b03198316145b92915050565b7ff0c57e16840df040f15088dc2f81fe391c3923bec73e23a9662efc9c229c6a008054600160401b810460ff1615906001600160401b03166000811580156109b95750825b90506000826001600160401b031660011480156109d55750303b155b9050811580156109e3575080155b15610a015760405163f92ee8a960e01b815260040160405180910390fd5b845467ffffffffffffffff191660011785558315610a2b57845460ff60401b1916600160401b1785555b610a358787610eba565b610a3e33611bd5565b6000805160206134028339815191528e81557fd64ab600136c76c630ed81a54cc1acbcc213dadb956fdd8687dc5ebb0bb5f5018e90557fd64ab600136c76c630ed81a54cc1acbcc213dadb956fdd8687dc5ebb0bb5f50380546001600160a01b0319166001600160a01b038f161790558a518c5114610ae2578b518b516040516355c5b3e360e11b8152600481019290925260248201526044015b60405180910390fd5b88518a5114610b1157895189516040516355c5b3e360e11b815260048101929092526024820152604401610ad9565b60005b8c51811015610b99578b8181518110610b2f57610b2f6131d7565b6020026020010151826004018e8381518110610b4d57610b4d6131d7565b6020026020010151604051610b6291906131ed565b90815260405190819003602001902080546001600160a01b03929092166001600160a01b0319909216919091179055600101610b14565b5060005b8a51811015610c2257898181518110610bb857610bb86131d7565b6020026020010151826005018c8381518110610bd657610bd66131d7565b6020026020010151604051610beb91906131ed565b90815260405190819003602001902080546001600160a01b03929092166001600160a01b0319909216919091179055600101610b9d565b50508315610c6a57845460ff60401b19168555604051600181527fc7f505b2f371ae2175ee4913f4499e1f2633a7b5936321eed1cdaeb6115181d29060200160405180910390a15b5050505050505050505050505050565b610c826125b0565b6000610c8c611bb1565b600101549050610c9d848285611356565b949350505050565b610cad612567565b610cb5611bb1565b604051637d0aba4f60e01b815260048101919091526001600160401b038316602482015273__$068aad146bf104111ba65c4a1de2cd0e23$__90637d0aba4f906044015b600060405180830381865af4158015610d16573d6000803e3d6000fd5b505050506040513d6000823e601f3d908101601f1916820160405261096e9190810190613209565b6000610d48611be6565b507fd64ab600136c76c630ed81a54cc1acbcc213dadb956fdd8687dc5ebb0bb5f5015490565b610d76612567565b610d7e611bb1565b60405163d55da6a360e01b81526004810191909152602481018490526044810183905273__$068aad146bf104111ba65c4a1de2cd0e23$__9063d55da6a3906064015b600060405180830381865af4158015610dde573d6000803e3d6000fd5b505050506040513d6000823e601f3d908101601f19168201604052610e069190810190613209565b9392505050565b610e15612567565b610e1d611bb1565b604051636ac0c5c760e11b81526004810191909152602481018490526044810183905273__$068aad146bf104111ba65c4a1de2cd0e23$__9063d5818b8e90606401610dc1565b6000610e6e611bb1565b60010154919050565b6000610e81611bb1565b604051631b8bf99b60e21b8152600481019190915273__$068aad146bf104111ba65c4a1de2cd0e23$__90636e2fe66c906024016108f7565b610ec2611bb1565b6040516359a6069160e01b815260048101919091526001600160a01b0383166024820152306044820152602860648201526001600160f01b03198216608482015273__$068aad146bf104111ba65c4a1de2cd0e23$__906359a606919060a4015b60006040518083038186803b158015610f3b57600080fd5b505af4158015610f4f573d6000803e3d6000fd5b505050505050565b610f5f612567565b610f8a6040518060800160405280600081526020016000815260200160008152602001600081525090565b610f92611bb1565b60405163a3018d7960e01b815260048101919091526024810184905273__$068aad146bf104111ba65c4a1de2cd0e23$__9063a3018d799060440161086a565b610fda611be6565b610fe382611c8b565b610fed8282611c9b565b5050565b6000610ffb611bb1565b609a0154919050565b600061100e611d5d565b5060008051602061342283398151915290565b600061102b611be6565b507fd64ab600136c76c630ed81a54cc1acbcc213dadb956fdd8687dc5ebb0bb5f503546001600160a01b031690565b6000611064611bb1565b54919050565b611072611da6565b61107c6000611dd8565b565b3380611088611aed565b6001600160a01b0316146110ba5760405163118cdaa760e01b81526001600160a01b0382166004820152602401610ad9565b6110c381611dd8565b50565b6000807f9016d09d72d40fdae2fd8ceac6b6234c7706214fd39c1cd1e609a0528c1993005b546001600160a01b031692915050565b6000611105611bb1565b609b0154919050565b611116611be6565b61111e611da6565b80518251600080516020613402833981519152911461115d57825182516040516355c5b3e360e11b815260048101929092526024820152604401610ad9565b60005b83518110156112535782818151811061117b5761117b6131d7565b602002602001015182600501858381518110611199576111996131d7565b60200260200101516040516111ae91906131ed565b908152602001604051809103902060006101000a8154816001600160a01b0302191690836001600160a01b031602179055507f5aec749fec66d318cfdd4a5c0883a270ab62150d656ca8d9a9d0ad551ee4466b848281518110611213576112136131d7565b602002602001015184838151811061122d5761122d6131d7565b602002602001015160405161124392919061323d565b60405180910390a1600101611160565b50505050565b6000611263611be6565b6040517fd64ab600136c76c630ed81a54cc1acbcc213dadb956fdd8687dc5ebb0bb5f504906112939084906131ed565b908152604051908190036020019020546001600160a01b031690505b919050565b6112be8484611e10565b6112c88282611f2b565b6112538382612047565b6112da611be6565b6112e2611da6565b7fd64ab600136c76c630ed81a54cc1acbcc213dadb956fdd8687dc5ebb0bb5f50380546001600160a01b0319166001600160a01b0383169081179091556040519081527fd6ceddf6d2a22f21c7c81675c518004eff43bc5c8a6fc32a0b748e69d58671cd906020015b60405180910390a150565b61135e6125b0565b611366611bb1565b5484146113ac5760405162461bcd60e51b8152602060048201526014602482015273092c8cadce8d2e8f240d2c840dad2e6dac2e8c6d60631b6044820152606401610ad9565b60006113b6611bb1565b604051630b1a9cd360e01b815260048101919091526024810185905273__$068aad146bf104111ba65c4a1de2cd0e23$__90630b1a9cd390604401606060405180830381865af415801561140e573d6000803e3d6000fd5b505050506040513d601f19601f820116820180604052508101906114329190613267565b604080516080810182528681528251602080830191909152830151818301529082015160608201529091506000611467611bb1565b6020840151604051630b2bcd1b60e11b815260048101929092526001600160401b0387166024830152604482015273__$068aad146bf104111ba65c4a1de2cd0e23$__906316579a3690606401600060405180830381865af41580156114d1573d6000803e3d6000fd5b505050506040513d6000823e601f3d908101601f191682016040526114f99190810190613209565b6040805161010081018252825181526020808401511515818301528284015182840152606080850151908301526080808501519083015260a08085015115159083015260c0808501519083015260e093840151938201939093528151808301909252938152908101929092525095945050505050565b611577611be6565b61157f611da6565b7fd64ab600136c76c630ed81a54cc1acbcc213dadb956fdd8687dc5ebb0bb5f5018190556040518181527ff007a02ba428e63fa98b65269e70f9a9db847e0a839049a2f31f0692822677349060200161134b565b6115db612567565b6116066040518060800160405280600081526020016000815260200160008152602001600081525090565b61160e611bb1565b604051636ad1d8a760e11b815260048101919091526024810184905273__$068aad146bf104111ba65c4a1de2cd0e23$__9063d5a3b14e9060440161086a565b611656612567565b61165e611bb1565b604051620cf08960e41b815260048101919091526024810183905273__$068aad146bf104111ba65c4a1de2cd0e23$__9062cf089090604401610cf9565b6116c060405180606001604052806000815260200160008152602001600081525090565b6116c8611bb1565b604051630b1a9cd360e01b815260048101919091526024810183905273__$068aad146bf104111ba65c4a1de2cd0e23$__90630b1a9cd390604401606060405180830381865af4158015611720573d6000803e3d6000fd5b505050506040513d601f19601f8201168201806040525081019061096e9190613267565b61174c611be6565b611754611da6565b80518251600080516020613402833981519152911461179357825182516040516355c5b3e360e11b815260048101929092526024820152604401610ad9565b60005b8351811015611253578281815181106117b1576117b16131d7565b6020026020010151826004018583815181106117cf576117cf6131d7565b60200260200101516040516117e491906131ed565b908152602001604051809103902060006101000a8154816001600160a01b0302191690836001600160a01b031602179055507f5d864db8d88e9085fd5e7752a2094701e558355b75b561c00174d27aefd3e289848281518110611849576118496131d7565b6020026020010151848381518110611863576118636131d7565b602002602001015160405161187992919061323d565b60405180910390a1600101611796565b611891611be6565b611899611da6565b80600080516020613402833981519152556040518181527f7f7f3071c3c286700c199acae2fe071beb4a63dae1afff85186fa75d18090ae89060200161134b565b6118e2612567565b6118ea611bb1565b6040516397ac539160e01b815260048101919091526024810183905273__$068aad146bf104111ba65c4a1de2cd0e23$__906397ac539190604401610cf9565b6000611934611bb1565b609c0154919050565b6000611947611be6565b6040517fd64ab600136c76c630ed81a54cc1acbcc213dadb956fdd8687dc5ebb0bb5f505906112939084906131ed565b61197f611da6565b60008181527fd64ab600136c76c630ed81a54cc1acbcc213dadb956fdd8687dc5ebb0bb5f50260205260409020546000805160206134028339815191529060ff16611a0c5760405162461bcd60e51b815260206004820152601860248201527f4e756c6c696669657220646f6573206e6f7420657869737400000000000000006044820152606401610ad9565b600091825260020160205260409020805460ff19169055565b6000611a2f611bb1565b604051631e75e7f360e01b8152600481019190915273__$068aad146bf104111ba65c4a1de2cd0e23$__90631e75e7f3906024016108f7565b6000611a72611be6565b611a7a611da6565b506000805160206134028339815191525490565b611a96612567565b611a9e611bb1565b604051630b2bcd1b60e11b815260048101919091526001600160401b03841660248201526044810183905273__$068aad146bf104111ba65c4a1de2cd0e23$__906316579a3690606401610dc1565b6000807f237e158222e3e6968b72b9db0d8043aacf074ad9f650f0d1606b4d82ee432c006110eb565b611b1e611da6565b7f237e158222e3e6968b72b9db0d8043aacf074ad9f650f0d1606b4d82ee432c0080546001600160a01b0319166001600160a01b0383169081178255611b626110c6565b6001600160a01b03167f38d16b8cac22d99fc7c124b9cd0de2d3fa1faef420bfe791d8c362d765e2270060405160405180910390a35050565b6000611ba5611bb1565b6002015460ff16919050565b7f3018a310c36c4f8228f09bf3b1822685cf0971daa8265a58ca807c4a4daba40090565b611bdd6120ef565b6110c381612138565b306001600160a01b037f0000000000000000000000000000000000000000000000000000000000000000161480611c6d57507f00000000000000000000000000000000000000000000000000000000000000006001600160a01b0316611c61600080516020613422833981519152546001600160a01b031690565b6001600160a01b031614155b1561107c5760405163703e46dd60e11b815260040160405180910390fd5b611c93611be6565b6110c3611da6565b816001600160a01b03166352d1902d6040518163ffffffff1660e01b8152600401602060405180830381865afa925050508015611cf5575060408051601f3d908101601f19168201909252611cf2918101906131be565b60015b611d1d57604051634c9c8ce360e01b81526001600160a01b0383166004820152602401610ad9565b6000805160206134228339815191528114611d4e57604051632a87526960e21b815260048101829052602401610ad9565b611d58838361216a565b505050565b306001600160a01b037f0000000000000000000000000000000000000000000000000000000000000000161461107c5760405163703e46dd60e11b815260040160405180910390fd5b33611daf6110c6565b6001600160a01b03161461107c5760405163118cdaa760e01b8152336004820152602401610ad9565b7f237e158222e3e6968b72b9db0d8043aacf074ad9f650f0d1606b4d82ee432c0080546001600160a01b0319168155610fed826121c0565b604051600080516020613402833981519152906000907fd64ab600136c76c630ed81a54cc1acbcc213dadb956fdd8687dc5ebb0bb5f50490611e539086906131ed565b908152604051908190036020019020546001600160a01b0316905080611e8c576040516301dcf1ab60e31b815260040160405180910390fd5b806001600160a01b031663f054a9a384600001518560200151866040015187606001516040518563ffffffff1660e01b8152600401611ece9493929190613317565b602060405180830381865afa158015611eeb573d6000803e3d6000fd5b505050506040513d601f19601f82011682018060405250810190611f0f9190613374565b611253576040516281723b60e21b815260040160405180910390fd5b604051600080516020613402833981519152906000907fd64ab600136c76c630ed81a54cc1acbcc213dadb956fdd8687dc5ebb0bb5f50590611f6e9086906131ed565b908152604051908190036020019020546001600160a01b0316905080611fa7576040516301dcf1ab60e31b815260040160405180910390fd5b806001600160a01b03166311479fea84600001518560200151866040015187606001516040518563ffffffff1660e01b8152600401611fe9949392919061338f565b602060405180830381865afa158015612006573d6000803e3d6000fd5b505050506040513d601f19601f8201168201806040525081019061202a9190613374565b611253576040516389fa585960e01b815260040160405180910390fd5b6060828101516101208101516101408201516101808301516101a08401516101c08501516101609095015195870151602081015181516040909201519597949693959294929091906120a08989898989888a8989612231565b60008281527fd64ab600136c76c630ed81a54cc1acbcc213dadb956fdd8687dc5ebb0bb5f50260205260409020805460ff191660011790556120e2898961232d565b5050505050505050505050565b7ff0c57e16840df040f15088dc2f81fe391c3923bec73e23a9662efc9c229c6a0054600160401b900460ff1661107c57604051631afcd79f60e31b815260040160405180910390fd5b6121406120ef565b6001600160a01b0381166110ba57604051631e4fbdf760e01b815260006004820152602401610ad9565b612173826123e8565b6040516001600160a01b038316907fbc7cd75a20ee27fd9adebab32041f755214dbc6bffa90cc0225b39da2e5c2d3b90600090a28051156121b857611d58828261244d565b610fed6124c3565b7f9016d09d72d40fdae2fd8ceac6b6234c7706214fd39c1cd1e609a0528c19930080546001600160a01b031981166001600160a01b03848116918217845560405192169182907f8be0079c531659141344cd1fd0a4f28419497f9722a3daafe3b4186f6b6457e090600090a3505050565b60008051602061340283398151915260008a900361226557604051631b1aad8760e11b8152600481018b9052602401610ad9565b8860000361228957604051634bdc991b60e11b8152600481018a9052602401610ad9565b806001015486146122bd57600181015460405163e748379160e01b8152610ad9918891600401918252602082015260400190565b805442906122cb90896133e0565b10156122ec5760405162bd09f160e11b815260048101889052602401610ad9565b600083815260028201602052604090205460ff161561232157604051635377438b60e11b815260048101849052602401610ad9565b50505050505050505050565b612335611bb1565b6040516306fb157560e01b81526004810191909152602481018390526044810182905273__$068aad146bf104111ba65c4a1de2cd0e23$__906306fb15759060640160006040518083038186803b15801561238f57600080fd5b505af41580156123a3573d6000803e3d6000fd5b505050506123af611bb1565b60405163175ba3e960e11b8152600481019190915273__$068aad146bf104111ba65c4a1de2cd0e23$__90632eb747d290602401610f23565b806001600160a01b03163b60000361241e57604051634c9c8ce360e01b81526001600160a01b0382166004820152602401610ad9565b60008051602061342283398151915280546001600160a01b0319166001600160a01b0392909216919091179055565b6060600080846001600160a01b03168460405161246a91906131ed565b600060405180830381855af49150503d80600081146124a5576040519150601f19603f3d011682016040523d82523d6000602084013e6124aa565b606091505b50915091506124ba8583836124e2565b95945050505050565b341561107c5760405163b398979f60e01b815260040160405180910390fd5b6060826124f7576124f28261253e565b610e06565b815115801561250e57506001600160a01b0384163b155b1561253757604051639996b31560e01b81526001600160a01b0385166004820152602401610ad9565b5080610e06565b80511561254e5780518082602001fd5b60405163d6bda27560e01b815260040160405180910390fd5b6040518061010001604052806000815260200160001515815260200160608152602001600081526020016000815260200160001515815260200160008152602001600081525090565b60405180604001604052806125e66040518060800160405280600081526020016000815260200160008152602001600081525090565b81526020016126376040518061010001604052806000815260200160001515815260200160608152602001600081526020016000815260200160001515815260200160008152602001600081525090565b905290565b80356001600160401b03811681146112af57600080fd5b60006020828403121561266557600080fd5b610e068261263c565b805182526020808201511515818401526040808301516101009185018290528051918501829052600092019082906101208601905b808310156126c657835182526020820191506020840193506001830192506126a3565b50606085015160608701526080850151608087015260a085015192506126f060a087018415159052565b60c085015160c087015260e085015160e087015280935050505092915050565b60a08152600061272360a083018561266e565b9050610e066020830184805182526020810151602083015260408101516040830152606081015160608301525050565b60006020828403121561276557600080fd5b81356001600160e01b031981168114610e0657600080fd5b80356001600160a01b03811681146112af57600080fd5b634e487b7160e01b600052604160045260246000fd5b604051608081016001600160401b03811182821017156127cc576127cc612794565b60405290565b60405161010081016001600160401b03811182821017156127cc576127cc612794565b604051601f8201601f191681016001600160401b038111828210171561281d5761281d612794565b604052919050565b60006001600160401b0382111561283e5761283e612794565b5060051b60200190565b6000806001600160401b0384111561286257612862612794565b50601f8301601f1916602001612877816127f5565b91505082815283838301111561288c57600080fd5b828260208301376000602084830101529392505050565b600082601f8301126128b457600080fd5b610e0683833560208501612848565b600082601f8301126128d457600080fd5b81356128e76128e282612825565b6127f5565b8082825260208201915060208360051b86010192508583111561290957600080fd5b602085015b8381101561294a5780356001600160401b0381111561292c57600080fd5b61293b886020838a01016128a3565b8452506020928301920161290e565b5095945050505050565b600082601f83011261296557600080fd5b81356129736128e282612825565b8082825260208201915060208360051b86010192508583111561299557600080fd5b602085015b8381101561294a576129ab8161277d565b83526020928301920161299a565b80356001600160f01b0319811681146112af57600080fd5b60008060008060008060008060006101208a8c0312156129f057600080fd5b8935985060208a01359750612a0760408b0161277d565b965060608a01356001600160401b03811115612a2257600080fd5b612a2e8c828d016128c3565b96505060808a01356001600160401b03811115612a4a57600080fd5b612a568c828d01612954565b95505060a08a01356001600160401b03811115612a7257600080fd5b612a7e8c828d016128c3565b94505060c08a01356001600160401b03811115612a9a57600080fd5b612aa68c828d01612954565b935050612ab560e08b0161277d565b9150612ac46101008b016129b9565b90509295985092959850929598565b60008060408385031215612ae657600080fd5b82359150612af66020840161263c565b90509250929050565b60208152612b32602082018351805182526020810151602083015260408101516040830152606081015160608301525050565b6000602083015160a080840152610c9d60c084018261266e565b602081526000610e06602083018461266e565b60008060408385031215612b7257600080fd5b50508035926020909101359150565b60008060408385031215612b9457600080fd5b612b9d8361277d565b9150612af6602084016129b9565b600060208284031215612bbd57600080fd5b5035919050565b60008060408385031215612bd757600080fd5b612be08361277d565b915060208301356001600160401b03811115612bfb57600080fd5b8301601f81018513612c0c57600080fd5b612c1b85823560208401612848565b9150509250929050565b60008060408385031215612c3857600080fd5b82356001600160401b03811115612c4e57600080fd5b612c5a858286016128c3565b92505060208301356001600160401b03811115612c7657600080fd5b612c1b85828601612954565b600060208284031215612c9457600080fd5b81356001600160401b03811115612caa57600080fd5b610c9d848285016128a3565b60006101e0612cc4816127f5565b915082018184821115612cd657600080fd5b835b82811015612cf0578035825260209182019101612cd8565b50505092915050565b600082601f830112612d0a57600080fd5b6000612d1660406127f5565b9050806040840185811115612d2a57600080fd5b845b81811015612d44578035835260209283019201612d2c565b509195945050505050565b600082601f830112612d6057600080fd5b6040612d6b816127f5565b806080850186811115612d7d57600080fd5b855b81811015612da057612d918882612cf9565b84526020909301928401612d7f565b50909695505050505050565b60006101608284031215612dbf57600080fd5b612dc76127aa565b9050612dd38383612cf9565b8152612de28360408401612d4f565b6020820152612df48360c08401612cf9565b604082015260008361011f840112612e0a578081fd5b80612e1560606127f5565b9050809150610160840185811115612e2c57600080fd5b61010085015b81811015612e4a578035845260209384019301612e32565b505060608301525092915050565b600080600080848603610480811215612e7057600080fd5b85356001600160401b03811115612e8657600080fd5b612e92888289016128a3565b9550506102e0601f1982011215612ea857600080fd5b50612eb16127aa565b612ebe8760208801612cf9565b8152612ecd8760608801612d4f565b6020820152612edf8760e08801612cf9565b60408201528661013f870112612ef457600080fd5b612f02876101208801612cb6565b606082015292506103008501356001600160401b03811115612f2357600080fd5b612f2f878288016128a3565b925050612f40866103208701612dac565b905092959194509250565b600060208284031215612f5d57600080fd5b610e068261277d565b600080600060608486031215612f7b57600080fd5b8335925060208401359150612f926040850161263c565b90509250925092565b60005b83811015612fb6578181015183820152602001612f9e565b50506000910152565b60008151808452612fd7816020860160208601612f9b565b601f01601f19169290920160200192915050565b602081526000610e066020830184612fbf565b6000806040838503121561301157600080fd5b61301a8361263c565b946020939093013593505050565b805180151581146112af57600080fd5b600082601f83011261304957600080fd5b81516130576128e282612825565b8082825260208201915060208360051b86010192508583111561307957600080fd5b602085015b8381101561294a57805183526020928301920161307e565b600061010082840312156130a957600080fd5b6130b16127d2565b8251815290506130c360208301613028565b602082015260408201516001600160401b038111156130e157600080fd5b6130ed84828501613038565b604083015250606082810151908201526080808301519082015261311360a08301613028565b60a082015260c0828101519082015260e09182015191810191909152919050565b60008082840360a081121561314857600080fd5b83516001600160401b0381111561315e57600080fd5b61316a86828701613096565b9350506080601f198201121561317f57600080fd5b506131886127aa565b60208481015182526040808601519183019190915260608086015191830191909152608090940151938101939093525092909150565b6000602082840312156131d057600080fd5b5051919050565b634e487b7160e01b600052603260045260246000fd5b600082516131ff818460208701612f9b565b9190910192915050565b60006020828403121561321b57600080fd5b81516001600160401b0381111561323157600080fd5b610c9d84828501613096565b6040815260006132506040830185612fbf565b905060018060a01b03831660208301529392505050565b6000606082840312801561327a57600080fd5b50604051600090606081016001600160401b03811182821017156132a0576132a0612794565b604090815284518252602080860151908301529384015193810193909352509092915050565b8060005b60028110156112535781518452602093840193909101906001016132ca565b8060005b6002811015611253576133018483516132c6565b60409390930192602091909101906001016132ed565b6102e0810161332682876132c6565b61333360408301866132e9565b61334060c08301856132c6565b61010082018360005b600f811015613368578151835260209283019290910190600101613349565b50505095945050505050565b60006020828403121561338657600080fd5b610e0682613028565b610160810161339e82876132c6565b6133ab60408301866132e9565b6133b860c08301856132c6565b61010082018360005b60038110156133685781518352602092830192909101906001016133c1565b8082018082111561096e57634e487b7160e01b600052601160045260246000fdfed64ab600136c76c630ed81a54cc1acbcc213dadb956fdd8687dc5ebb0bb5f500360894a13ba1a3210667c828492db98dca3e2076cc3735a920a3ca505d382bbca2646970667358221220012140a851833958c0c6db255073b9541217271bd4b06a62c62528e1b8979dd764736f6c634300081b0033",
  "linkReferences": {
    "@iden3/contracts/lib/IdentityLib.sol": {
      "IdentityLib": [
        {
          "length": 20,
          "start": 2377
        },
        {
          "length": 20,
          "start": 2518
        },
        {
          "length": 20,
          "start": 3544
        },
        {
          "length": 20,
          "start": 3744
        },
        {
          "length": 20,
          "start": 3903
        },
        {
          "length": 20,
          "start": 3989
        },
        {
          "length": 20,
          "start": 4098
        },
        {
          "length": 20,
          "start": 4269
        },
        {
          "length": 20,
          "start": 5329
        },
        {
          "length": 20,
          "start": 5524
        },
        {
          "length": 20,
          "start": 5929
        },
        {
          "length": 20,
          "start": 6008
        },
        {
          "length": 20,
          "start": 6115
        },
        {
          "length": 20,
          "start": 6661
        },
        {
          "length": 20,
          "start": 6979
        },
        {
          "length": 20,
          "start": 7112
        },
        {
          "length": 20,
          "start": 9303
        },
        {
          "length": 20,
          "start": 9411
        }
      ]
    }
  },
  "deployedLinkReferences": {
    "@iden3/contracts/lib/IdentityLib.sol": {
      "IdentityLib": [
        {
          "length": 20,
          "start": 2124
        },
        {
          "length": 20,
          "start": 2265
        },
        {
          "length": 20,
          "start": 3291
        },
        {
          "length": 20,
          "start": 3491
        },
        {
          "length": 20,
          "start": 3650
        },
        {
          "length": 20,
          "start": 3736
        },
        {
          "length": 20,
          "start": 3845
        },
        {
          "length": 20,
          "start": 4016
        },
        {
          "length": 20,
          "start": 5076
        },
        {
          "length": 20,
          "start": 5271
        },
        {
          "length": 20,
          "start": 5676
        },
        {
          "length": 20,
          "start": 5755
        },
        {
          "length": 20,
          "start": 5862
        },
        {
          "length": 20,
          "start": 6408
        },
        {
          "length": 20,
          "start": 6726
        },
        {
          "length": 20,
          "start": 6859
        },
        {
          "length": 20,
          "start": 9050
        },
        {
          "length": 20,
          "start": 9158
        }
      ]
    }
  }
}