{
  "_format": "hh-sol-artifact-1",
  "contractName": "AnonAadhaarCredentialIssuerImplV1",
  "sourceName": "contracts/verifiers/AnonAadhaarCredentialIssuerImplV1.sol",
  "abi": [
    {
      "inputs": [],
      "stateMutability": "nonpayable",
      "type": "constructor"
    },
    {
      "inputs": [
        {
          "internalType": "address",
          "name": "target",
          "type": "address"
        }
      ],
      "name": "AddressEmptyCode",
      "type": "error"
    },
    {
      "inputs": [
        {
          "internalType": "address",
          "name": "implementation",
          "type": "address"
        }
      ],
      "name": "ERC1967InvalidImplementation",
      "type": "error"
    },
    {
      "inputs": [],
      "name": "ERC1967NonPayable",
      "type": "error"
    },
    {
      "inputs": [],
      "name": "FailedCall",
      "type": "error"
    },
    {
      "inputs": [],
      "name": "InvalidAnonAadhaarProof",
      "type": "error"
    },
    {
      "inputs": [
        {
          "internalType": "uint256",
          "name": "expected",
          "type": "uint256"
        },
        {
          "internalType": "uint256",
          "name": "provided",
          "type": "uint256"
        }
      ],
      "name": "InvalidExpirationDate",
      "type": "error"
    },
    {
      "inputs": [],
      "name": "InvalidHashIndex",
      "type": "error"
    },
    {
      "inputs": [],
      "name": "InvalidHashValue",
      "type": "error"
    },
    {
      "inputs": [],
      "name": "InvalidInitialization",
      "type": "error"
    },
    {
      "inputs": [],
      "name": "InvalidIssuerDidHash",
      "type": "error"
    },
    {
      "inputs": [],
      "name": "InvalidNullifierSeed",
      "type": "error"
    },
    {
      "inputs": [],
      "name": "InvalidPubKeyHash",
      "type": "error"
    },
    {
      "inputs": [
        {
          "internalType": "uint256",
          "name": "length",
          "type": "uint256"
        },
        {
          "internalType": "uint256",
          "name": "expectedLength",
          "type": "uint256"
        }
      ],
      "name": "InvalidResponsesLength",
      "type": "error"
    },
    {
      "inputs": [],
      "name": "InvalidStateContractAddress",
      "type": "error"
    },
    {
      "inputs": [],
      "name": "InvalidTemplateRoot",
      "type": "error"
    },
    {
      "inputs": [],
      "name": "InvalidVerifierAddress",
      "type": "error"
    },
    {
      "inputs": [],
      "name": "NoVerifierSet",
      "type": "error"
    },
    {
      "inputs": [],
      "name": "NotInitializing",
      "type": "error"
    },
    {
      "inputs": [],
      "name": "NullifierAlreadyExists",
      "type": "error"
    },
    {
      "inputs": [],
      "name": "NullifierDoesNotExist",
      "type": "error"
    },
    {
      "inputs": [
        {
          "internalType": "address",
          "name": "owner",
          "type": "address"
        }
      ],
      "name": "OwnableInvalidOwner",
      "type": "error"
    },
    {
      "inputs": [
        {
          "internalType": "address",
          "name": "account",
          "type": "address"
        }
      ],
      "name": "OwnableUnauthorizedAccount",
      "type": "error"
    },
    {
      "inputs": [],
      "name": "ProofExpired",
      "type": "error"
    },
    {
      "inputs": [],
      "name": "UUPSUnauthorizedCallContext",
      "type": "error"
    },
    {
      "inputs": [
        {
          "internalType": "bytes32",
          "name": "slot",
          "type": "bytes32"
        }
      ],
      "name": "UUPSUnsupportedProxiableUUID",
      "type": "error"
    },
    {
      "anonymous": false,
      "inputs": [
        {
          "indexed": false,
          "internalType": "uint64",
          "name": "version",
          "type": "uint64"
        }
      ],
      "name": "Initialized",
      "type": "event"
    },
    {
      "anonymous": false,
      "inputs": [
        {
          "indexed": false,
          "internalType": "uint256",
          "name": "issuerDidHash",
          "type": "uint256"
        }
      ],
      "name": "IssuerDidHashUpdated",
      "type": "event"
    },
    {
      "anonymous": false,
      "inputs": [
        {
          "indexed": false,
          "internalType": "uint256",
          "name": "nullifier",
          "type": "uint256"
        }
      ],
      "name": "NullifierCleaned",
      "type": "event"
    },
    {
      "anonymous": false,
      "inputs": [
        {
          "indexed": true,
          "internalType": "address",
          "name": "previousOwner",
          "type": "address"
        },
        {
          "indexed": true,
          "internalType": "address",
          "name": "newOwner",
          "type": "address"
        }
      ],
      "name": "OwnershipTransferStarted",
      "type": "event"
    },
    {
      "anonymous": false,
      "inputs": [
        {
          "indexed": true,
          "internalType": "address",
          "name": "previousOwner",
          "type": "address"
        },
        {
          "indexed": true,
          "internalType": "address",
          "name": "newOwner",
          "type": "address"
        }
      ],
      "name": "OwnershipTransferred",
      "type": "event"
    },
    {
      "anonymous": false,
      "inputs": [
        {
          "indexed": false,
          "internalType": "uint256",
          "name": "publicKeyHash",
          "type": "uint256"
        }
      ],
      "name": "PublicKeyHashAdded",
      "type": "event"
    },
    {
      "anonymous": false,
      "inputs": [
        {
          "indexed": false,
          "internalType": "uint256",
          "name": "templateRoot",
          "type": "uint256"
        }
      ],
      "name": "TemplateRootUpdated",
      "type": "event"
    },
    {
      "anonymous": false,
      "inputs": [
        {
          "indexed": true,
          "internalType": "address",
          "name": "implementation",
          "type": "address"
        }
      ],
      "name": "Upgraded",
      "type": "event"
    },
    {
      "inputs": [],
      "name": "UPGRADE_INTERFACE_VERSION",
      "outputs": [
        {
          "internalType": "string",
          "name": "",
          "type": "string"
        }
      ],
      "stateMutability": "view",
      "type": "function"
    },
    {
      "inputs": [],
      "name": "VERSION",
      "outputs": [
        {
          "internalType": "string",
          "name": "",
          "type": "string"
        }
      ],
      "stateMutability": "view",
      "type": "function"
    },
    {
      "inputs": [],
      "name": "acceptOwnership",
      "outputs": [],
      "stateMutability": "nonpayable",
      "type": "function"
    },
    {
      "inputs": [
        {
          "internalType": "uint256",
          "name": "publicKeyHash",
          "type": "uint256"
        }
      ],
      "name": "addPublicKeyHash",
      "outputs": [],
      "stateMutability": "nonpayable",
      "type": "function"
    },
    {
      "inputs": [
        {
          "internalType": "uint256[]",
          "name": "publicKeysHashes",
          "type": "uint256[]"
        }
      ],
      "name": "addPublicKeyHashesBatch",
      "outputs": [],
      "stateMutability": "nonpayable",
      "type": "function"
    },
    {
      "inputs": [
        {
          "internalType": "uint256",
          "name": "nullifier",
          "type": "uint256"
        }
      ],
      "name": "cleanNullifier",
      "outputs": [],
      "stateMutability": "nonpayable",
      "type": "function"
    },
    {
      "inputs": [
        {
          "internalType": "uint256",
          "name": "claimIndexHash",
          "type": "uint256"
        }
      ],
      "name": "getClaimProof",
      "outputs": [
        {
          "components": [
            {
              "internalType": "uint256",
              "name": "root",
              "type": "uint256"
            },
            {
              "internalType": "bool",
              "name": "existence",
              "type": "bool"
            },
            {
              "internalType": "uint256[]",
              "name": "siblings",
              "type": "uint256[]"
            },
            {
              "internalType": "uint256",
              "name": "index",
              "type": "uint256"
            },
            {
              "internalType": "uint256",
              "name": "value",
              "type": "uint256"
            },
            {
              "internalType": "bool",
              "name": "auxExistence",
              "type": "bool"
            },
            {
              "internalType": "uint256",
              "name": "auxIndex",
              "type": "uint256"
            },
            {
              "internalType": "uint256",
              "name": "auxValue",
              "type": "uint256"
            }
          ],
          "internalType": "struct SmtLib.Proof",
          "name": "",
          "type": "tuple"
        }
      ],
      "stateMutability": "view",
      "type": "function"
    },
    {
      "inputs": [
        {
          "internalType": "uint256",
          "name": "claimIndexHash",
          "type": "uint256"
        },
        {
          "internalType": "uint256",
          "name": "root",
          "type": "uint256"
        }
      ],
      "name": "getClaimProofByRoot",
      "outputs": [
        {
          "components": [
            {
              "internalType": "uint256",
              "name": "root",
              "type": "uint256"
            },
            {
              "internalType": "bool",
              "name": "existence",
              "type": "bool"
            },
            {
              "internalType": "uint256[]",
              "name": "siblings",
              "type": "uint256[]"
            },
            {
              "internalType": "uint256",
              "name": "index",
              "type": "uint256"
            },
            {
              "internalType": "uint256",
              "name": "value",
              "type": "uint256"
            },
            {
              "internalType": "bool",
              "name": "auxExistence",
              "type": "bool"
            },
            {
              "internalType": "uint256",
              "name": "auxIndex",
              "type": "uint256"
            },
            {
              "internalType": "uint256",
              "name": "auxValue",
              "type": "uint256"
            }
          ],
          "internalType": "struct SmtLib.Proof",
          "name": "",
          "type": "tuple"
        }
      ],
      "stateMutability": "view",
      "type": "function"
    },
    {
      "inputs": [
        {
          "internalType": "uint256",
          "name": "claimIndexHash",
          "type": "uint256"
        }
      ],
      "name": "getClaimProofWithStateInfo",
      "outputs": [
        {
          "components": [
            {
              "internalType": "uint256",
              "name": "root",
              "type": "uint256"
            },
            {
              "internalType": "bool",
              "name": "existence",
              "type": "bool"
            },
            {
              "internalType": "uint256[]",
              "name": "siblings",
              "type": "uint256[]"
            },
            {
              "internalType": "uint256",
              "name": "index",
              "type": "uint256"
            },
            {
              "internalType": "uint256",
              "name": "value",
              "type": "uint256"
            },
            {
              "internalType": "bool",
              "name": "auxExistence",
              "type": "bool"
            },
            {
              "internalType": "uint256",
              "name": "auxIndex",
              "type": "uint256"
            },
            {
              "internalType": "uint256",
              "name": "auxValue",
              "type": "uint256"
            }
          ],
          "internalType": "struct SmtLib.Proof",
          "name": "",
          "type": "tuple"
        },
        {
          "components": [
            {
              "internalType": "uint256",
              "name": "state",
              "type": "uint256"
            },
            {
              "internalType": "uint256",
              "name": "claimsRoot",
              "type": "uint256"
            },
            {
              "internalType": "uint256",
              "name": "revocationsRoot",
              "type": "uint256"
            },
            {
              "internalType": "uint256",
              "name": "rootsRoot",
              "type": "uint256"
            }
          ],
          "internalType": "struct IdentityLib.StateInfo",
          "name": "",
          "type": "tuple"
        }
      ],
      "stateMutability": "view",
      "type": "function"
    },
    {
      "inputs": [],
      "name": "getClaimsTreeRoot",
      "outputs": [
        {
          "internalType": "uint256",
          "name": "",
          "type": "uint256"
        }
      ],
      "stateMutability": "view",
      "type": "function"
    },
    {
      "inputs": [],
      "name": "getId",
      "outputs": [
        {
          "internalType": "uint256",
          "name": "",
          "type": "uint256"
        }
      ],
      "stateMutability": "view",
      "type": "function"
    },
    {
      "inputs": [],
      "name": "getIsOldStateGenesis",
      "outputs": [
        {
          "internalType": "bool",
          "name": "",
          "type": "bool"
        }
      ],
      "stateMutability": "view",
      "type": "function"
    },
    {
      "inputs": [],
      "name": "getLatestPublishedClaimsRoot",
      "outputs": [
        {
          "internalType": "uint256",
          "name": "",
          "type": "uint256"
        }
      ],
      "stateMutability": "view",
      "type": "function"
    },
    {
      "inputs": [],
      "name": "getLatestPublishedRevocationsRoot",
      "outputs": [
        {
          "internalType": "uint256",
          "name": "",
          "type": "uint256"
        }
      ],
      "stateMutability": "view",
      "type": "function"
    },
    {
      "inputs": [],
      "name": "getLatestPublishedRootsRoot",
      "outputs": [
        {
          "internalType": "uint256",
          "name": "",
          "type": "uint256"
        }
      ],
      "stateMutability": "view",
      "type": "function"
    },
    {
      "inputs": [],
      "name": "getLatestPublishedState",
      "outputs": [
        {
          "internalType": "uint256",
          "name": "",
          "type": "uint256"
        }
      ],
      "stateMutability": "view",
      "type": "function"
    },
    {
      "inputs": [
        {
          "internalType": "uint64",
          "name": "revocationNonce",
          "type": "uint64"
        }
      ],
      "name": "getRevocationProof",
      "outputs": [
        {
          "components": [
            {
              "internalType": "uint256",
              "name": "root",
              "type": "uint256"
            },
            {
              "internalType": "bool",
              "name": "existence",
              "type": "bool"
            },
            {
              "internalType": "uint256[]",
              "name": "siblings",
              "type": "uint256[]"
            },
            {
              "internalType": "uint256",
              "name": "index",
              "type": "uint256"
            },
            {
              "internalType": "uint256",
              "name": "value",
              "type": "uint256"
            },
            {
              "internalType": "bool",
              "name": "auxExistence",
              "type": "bool"
            },
            {
              "internalType": "uint256",
              "name": "auxIndex",
              "type": "uint256"
            },
            {
              "internalType": "uint256",
              "name": "auxValue",
              "type": "uint256"
            }
          ],
          "internalType": "struct SmtLib.Proof",
          "name": "",
          "type": "tuple"
        }
      ],
      "stateMutability": "view",
      "type": "function"
    },
    {
      "inputs": [
        {
          "internalType": "uint64",
          "name": "revocationNonce",
          "type": "uint64"
        },
        {
          "internalType": "uint256",
          "name": "root",
          "type": "uint256"
        }
      ],
      "name": "getRevocationProofByRoot",
      "outputs": [
        {
          "components": [
            {
              "internalType": "uint256",
              "name": "root",
              "type": "uint256"
            },
            {
              "internalType": "bool",
              "name": "existence",
              "type": "bool"
            },
            {
              "internalType": "uint256[]",
              "name": "siblings",
              "type": "uint256[]"
            },
            {
              "internalType": "uint256",
              "name": "index",
              "type": "uint256"
            },
            {
              "internalType": "uint256",
              "name": "value",
              "type": "uint256"
            },
            {
              "internalType": "bool",
              "name": "auxExistence",
              "type": "bool"
            },
            {
              "internalType": "uint256",
              "name": "auxIndex",
              "type": "uint256"
            },
            {
              "internalType": "uint256",
              "name": "auxValue",
              "type": "uint256"
            }
          ],
          "internalType": "struct SmtLib.Proof",
          "name": "",
          "type": "tuple"
        }
      ],
      "stateMutability": "view",
      "type": "function"
    },
    {
      "inputs": [
        {
          "internalType": "uint64",
          "name": "revocationNonce",
          "type": "uint64"
        }
      ],
      "name": "getRevocationProofWithStateInfo",
      "outputs": [
        {
          "components": [
            {
              "internalType": "uint256",
              "name": "root",
              "type": "uint256"
            },
            {
              "internalType": "bool",
              "name": "existence",
              "type": "bool"
            },
            {
              "internalType": "uint256[]",
              "name": "siblings",
              "type": "uint256[]"
            },
            {
              "internalType": "uint256",
              "name": "index",
              "type": "uint256"
            },
            {
              "internalType": "uint256",
              "name": "value",
              "type": "uint256"
            },
            {
              "internalType": "bool",
              "name": "auxExistence",
              "type": "bool"
            },
            {
              "internalType": "uint256",
              "name": "auxIndex",
              "type": "uint256"
            },
            {
              "internalType": "uint256",
              "name": "auxValue",
              "type": "uint256"
            }
          ],
          "internalType": "struct SmtLib.Proof",
          "name": "",
          "type": "tuple"
        },
        {
          "components": [
            {
              "internalType": "uint256",
              "name": "state",
              "type": "uint256"
            },
            {
              "internalType": "uint256",
              "name": "claimsRoot",
              "type": "uint256"
            },
            {
              "internalType": "uint256",
              "name": "revocationsRoot",
              "type": "uint256"
            },
            {
              "internalType": "uint256",
              "name": "rootsRoot",
              "type": "uint256"
            }
          ],
          "internalType": "struct IdentityLib.StateInfo",
          "name": "",
          "type": "tuple"
        }
      ],
      "stateMutability": "view",
      "type": "function"
    },
    {
      "inputs": [
        {
          "internalType": "uint256",
          "name": "id",
          "type": "uint256"
        },
        {
          "internalType": "uint64",
          "name": "nonce",
          "type": "uint64"
        }
      ],
      "name": "getRevocationStatus",
      "outputs": [
        {
          "components": [
            {
              "components": [
                {
                  "internalType": "uint256",
                  "name": "state",
                  "type": "uint256"
                },
                {
                  "internalType": "uint256",
                  "name": "claimsTreeRoot",
                  "type": "uint256"
                },
                {
                  "internalType": "uint256",
                  "name": "revocationTreeRoot",
                  "type": "uint256"
                },
                {
                  "internalType": "uint256",
                  "name": "rootOfRoots",
                  "type": "uint256"
                }
              ],
              "internalType": "struct IOnchainCredentialStatusResolver.IdentityStateRoots",
              "name": "issuer",
              "type": "tuple"
            },
            {
              "components": [
                {
                  "internalType": "uint256",
                  "name": "root",
                  "type": "uint256"
                },
                {
                  "internalType": "bool",
                  "name": "existence",
                  "type": "bool"
                },
                {
                  "internalType": "uint256[]",
                  "name": "siblings",
                  "type": "uint256[]"
                },
                {
                  "internalType": "uint256",
                  "name": "index",
                  "type": "uint256"
                },
                {
                  "internalType": "uint256",
                  "name": "value",
                  "type": "uint256"
                },
                {
                  "internalType": "bool",
                  "name": "auxExistence",
                  "type": "bool"
                },
                {
                  "internalType": "uint256",
                  "name": "auxIndex",
                  "type": "uint256"
                },
                {
                  "internalType": "uint256",
                  "name": "auxValue",
                  "type": "uint256"
                }
              ],
              "internalType": "struct IOnchainCredentialStatusResolver.Proof",
              "name": "mtp",
              "type": "tuple"
            }
          ],
          "internalType": "struct IOnchainCredentialStatusResolver.CredentialStatus",
          "name": "",
          "type": "tuple"
        }
      ],
      "stateMutability": "view",
      "type": "function"
    },
    {
      "inputs": [
        {
          "internalType": "uint256",
          "name": "id",
          "type": "uint256"
        },
        {
          "internalType": "uint256",
          "name": "state",
          "type": "uint256"
        },
        {
          "internalType": "uint64",
          "name": "nonce",
          "type": "uint64"
        }
      ],
      "name": "getRevocationStatusByIdAndState",
      "outputs": [
        {
          "components": [
            {
              "components": [
                {
                  "internalType": "uint256",
                  "name": "state",
                  "type": "uint256"
                },
                {
                  "internalType": "uint256",
                  "name": "claimsTreeRoot",
                  "type": "uint256"
                },
                {
                  "internalType": "uint256",
                  "name": "revocationTreeRoot",
                  "type": "uint256"
                },
                {
                  "internalType": "uint256",
                  "name": "rootOfRoots",
                  "type": "uint256"
                }
              ],
              "internalType": "struct IOnchainCredentialStatusResolver.IdentityStateRoots",
              "name": "issuer",
              "type": "tuple"
            },
            {
              "components": [
                {
                  "internalType": "uint256",
                  "name": "root",
                  "type": "uint256"
                },
                {
                  "internalType": "bool",
                  "name": "existence",
                  "type": "bool"
                },
                {
                  "internalType": "uint256[]",
                  "name": "siblings",
                  "type": "uint256[]"
                },
                {
                  "internalType": "uint256",
                  "name": "index",
                  "type": "uint256"
                },
                {
                  "internalType": "uint256",
                  "name": "value",
                  "type": "uint256"
                },
                {
                  "internalType": "bool",
                  "name": "auxExistence",
                  "type": "bool"
                },
                {
                  "internalType": "uint256",
                  "name": "auxIndex",
                  "type": "uint256"
                },
                {
                  "internalType": "uint256",
                  "name": "auxValue",
                  "type": "uint256"
                }
              ],
              "internalType": "struct IOnchainCredentialStatusResolver.Proof",
              "name": "mtp",
              "type": "tuple"
            }
          ],
          "internalType": "struct IOnchainCredentialStatusResolver.CredentialStatus",
          "name": "",
          "type": "tuple"
        }
      ],
      "stateMutability": "view",
      "type": "function"
    },
    {
      "inputs": [],
      "name": "getRevocationsTreeRoot",
      "outputs": [
        {
          "internalType": "uint256",
          "name": "",
          "type": "uint256"
        }
      ],
      "stateMutability": "view",
      "type": "function"
    },
    {
      "inputs": [
        {
          "internalType": "uint256",
          "name": "rootsTreeRoot",
          "type": "uint256"
        }
      ],
      "name": "getRootProof",
      "outputs": [
        {
          "components": [
            {
              "internalType": "uint256",
              "name": "root",
              "type": "uint256"
            },
            {
              "internalType": "bool",
              "name": "existence",
              "type": "bool"
            },
            {
              "internalType": "uint256[]",
              "name": "siblings",
              "type": "uint256[]"
            },
            {
              "internalType": "uint256",
              "name": "index",
              "type": "uint256"
            },
            {
              "internalType": "uint256",
              "name": "value",
              "type": "uint256"
            },
            {
              "internalType": "bool",
              "name": "auxExistence",
              "type": "bool"
            },
            {
              "internalType": "uint256",
              "name": "auxIndex",
              "type": "uint256"
            },
            {
              "internalType": "uint256",
              "name": "auxValue",
              "type": "uint256"
            }
          ],
          "internalType": "struct SmtLib.Proof",
          "name": "",
          "type": "tuple"
        }
      ],
      "stateMutability": "view",
      "type": "function"
    },
    {
      "inputs": [
        {
          "internalType": "uint256",
          "name": "claimsTreeRoot",
          "type": "uint256"
        },
        {
          "internalType": "uint256",
          "name": "root",
          "type": "uint256"
        }
      ],
      "name": "getRootProofByRoot",
      "outputs": [
        {
          "components": [
            {
              "internalType": "uint256",
              "name": "root",
              "type": "uint256"
            },
            {
              "internalType": "bool",
              "name": "existence",
              "type": "bool"
            },
            {
              "internalType": "uint256[]",
              "name": "siblings",
              "type": "uint256[]"
            },
            {
              "internalType": "uint256",
              "name": "index",
              "type": "uint256"
            },
            {
              "internalType": "uint256",
              "name": "value",
              "type": "uint256"
            },
            {
              "internalType": "bool",
              "name": "auxExistence",
              "type": "bool"
            },
            {
              "internalType": "uint256",
              "name": "auxIndex",
              "type": "uint256"
            },
            {
              "internalType": "uint256",
              "name": "auxValue",
              "type": "uint256"
            }
          ],
          "internalType": "struct SmtLib.Proof",
          "name": "",
          "type": "tuple"
        }
      ],
      "stateMutability": "view",
      "type": "function"
    },
    {
      "inputs": [
        {
          "internalType": "uint256",
          "name": "rootsTreeRoot",
          "type": "uint256"
        }
      ],
      "name": "getRootProofWithStateInfo",
      "outputs": [
        {
          "components": [
            {
              "internalType": "uint256",
              "name": "root",
              "type": "uint256"
            },
            {
              "internalType": "bool",
              "name": "existence",
              "type": "bool"
            },
            {
              "internalType": "uint256[]",
              "name": "siblings",
              "type": "uint256[]"
            },
            {
              "internalType": "uint256",
              "name": "index",
              "type": "uint256"
            },
            {
              "internalType": "uint256",
              "name": "value",
              "type": "uint256"
            },
            {
              "internalType": "bool",
              "name": "auxExistence",
              "type": "bool"
            },
            {
              "internalType": "uint256",
              "name": "auxIndex",
              "type": "uint256"
            },
            {
              "internalType": "uint256",
              "name": "auxValue",
              "type": "uint256"
            }
          ],
          "internalType": "struct SmtLib.Proof",
          "name": "",
          "type": "tuple"
        },
        {
          "components": [
            {
              "internalType": "uint256",
              "name": "state",
              "type": "uint256"
            },
            {
              "internalType": "uint256",
              "name": "claimsRoot",
              "type": "uint256"
            },
            {
              "internalType": "uint256",
              "name": "revocationsRoot",
              "type": "uint256"
            },
            {
              "internalType": "uint256",
              "name": "rootsRoot",
              "type": "uint256"
            }
          ],
          "internalType": "struct IdentityLib.StateInfo",
          "name": "",
          "type": "tuple"
        }
      ],
      "stateMutability": "view",
      "type": "function"
    },
    {
      "inputs": [
        {
          "internalType": "uint256",
          "name": "state",
          "type": "uint256"
        }
      ],
      "name": "getRootsByState",
      "outputs": [
        {
          "components": [
            {
              "internalType": "uint256",
              "name": "claimsRoot",
              "type": "uint256"
            },
            {
              "internalType": "uint256",
              "name": "revocationsRoot",
              "type": "uint256"
            },
            {
              "internalType": "uint256",
              "name": "rootsRoot",
              "type": "uint256"
            }
          ],
          "internalType": "struct IdentityLib.Roots",
          "name": "",
          "type": "tuple"
        }
      ],
      "stateMutability": "view",
      "type": "function"
    },
    {
      "inputs": [],
      "name": "getRootsTreeRoot",
      "outputs": [
        {
          "internalType": "uint256",
          "name": "",
          "type": "uint256"
        }
      ],
      "stateMutability": "view",
      "type": "function"
    },
    {
      "inputs": [],
      "name": "getSmtDepth",
      "outputs": [
        {
          "internalType": "uint256",
          "name": "",
          "type": "uint256"
        }
      ],
      "stateMutability": "pure",
      "type": "function"
    },
    {
      "inputs": [
        {
          "internalType": "address",
          "name": "_stateContractAddr",
          "type": "address"
        },
        {
          "internalType": "bytes2",
          "name": "idType",
          "type": "bytes2"
        }
      ],
      "name": "initialize",
      "outputs": [],
      "stateMutability": "nonpayable",
      "type": "function"
    },
    {
      "inputs": [
        {
          "internalType": "uint256",
          "name": "nullifierSeed",
          "type": "uint256"
        },
        {
          "internalType": "uint256[]",
          "name": "publicKeysHashes",
          "type": "uint256[]"
        },
        {
          "internalType": "uint256",
          "name": "expirationTime",
          "type": "uint256"
        },
        {
          "internalType": "uint256",
          "name": "templateRoot",
          "type": "uint256"
        },
        {
          "internalType": "address",
          "name": "anonAadhaarVerifier",
          "type": "address"
        },
        {
          "internalType": "address",
          "name": "_stateContractAddress",
          "type": "address"
        },
        {
          "internalType": "bytes2",
          "name": "idType",
          "type": "bytes2"
        }
      ],
      "name": "initialize",
      "outputs": [],
      "stateMutability": "nonpayable",
      "type": "function"
    },
    {
      "inputs": [],
      "name": "owner",
      "outputs": [
        {
          "internalType": "address",
          "name": "",
          "type": "address"
        }
      ],
      "stateMutability": "view",
      "type": "function"
    },
    {
      "inputs": [],
      "name": "pendingOwner",
      "outputs": [
        {
          "internalType": "address",
          "name": "",
          "type": "address"
        }
      ],
      "stateMutability": "view",
      "type": "function"
    },
    {
      "inputs": [],
      "name": "proxiableUUID",
      "outputs": [
        {
          "internalType": "bytes32",
          "name": "",
          "type": "bytes32"
        }
      ],
      "stateMutability": "view",
      "type": "function"
    },
    {
      "inputs": [],
      "name": "renounceOwnership",
      "outputs": [],
      "stateMutability": "nonpayable",
      "type": "function"
    },
    {
      "inputs": [
        {
          "internalType": "uint256",
          "name": "issuerDidHash",
          "type": "uint256"
        }
      ],
      "name": "setIssuerDidHash",
      "outputs": [],
      "stateMutability": "nonpayable",
      "type": "function"
    },
    {
      "inputs": [
        {
          "internalType": "uint256",
          "name": "templateRoot",
          "type": "uint256"
        }
      ],
      "name": "setTemplateRoot",
      "outputs": [],
      "stateMutability": "nonpayable",
      "type": "function"
    },
    {
      "inputs": [
        {
          "components": [
            {
              "internalType": "uint64",
              "name": "requestId",
              "type": "uint64"
            },
            {
              "internalType": "bytes",
              "name": "zkProof",
              "type": "bytes"
            },
            {
              "internalType": "bytes",
              "name": "data",
              "type": "bytes"
            }
          ],
          "internalType": "struct IZKPVerifier.ZKPResponse[]",
          "name": "responses",
          "type": "tuple[]"
        },
        {
          "internalType": "bytes",
          "name": "crossChainProofs",
          "type": "bytes"
        }
      ],
      "name": "submitZKPResponseV2",
      "outputs": [],
      "stateMutability": "nonpayable",
      "type": "function"
    },
    {
      "inputs": [
        {
          "internalType": "bytes4",
          "name": "interfaceId",
          "type": "bytes4"
        }
      ],
      "name": "supportsInterface",
      "outputs": [
        {
          "internalType": "bool",
          "name": "",
          "type": "bool"
        }
      ],
      "stateMutability": "view",
      "type": "function"
    },
    {
      "inputs": [
        {
          "internalType": "address",
          "name": "newOwner",
          "type": "address"
        }
      ],
      "name": "transferOwnership",
      "outputs": [],
      "stateMutability": "nonpayable",
      "type": "function"
    },
    {
      "inputs": [
        {
          "internalType": "address",
          "name": "newImplementation",
          "type": "address"
        },
        {
          "internalType": "bytes",
          "name": "data",
          "type": "bytes"
        }
      ],
      "name": "upgradeToAndCall",
      "outputs": [],
      "stateMutability": "payable",
      "type": "function"
    },
    {
      "inputs": [],
      "name": "version",
      "outputs": [
        {
          "internalType": "string",
          "name": "",
          "type": "string"
        }
      ],
      "stateMutability": "view",
      "type": "function"
    }
  ],
  "bytecode": "0x60a080604052346100ea57306080527ff0c57e16840df040f15088dc2f81fe391c3923bec73e23a9662efc9c229c6a005460ff8160401c166100d9576002600160401b03196001600160401b03821601610073575b60405161292790816100f082396080518181816115c001526126780152f35b6001600160401b0319166001600160401b039081177ff0c57e16840df040f15088dc2f81fe391c3923bec73e23a9662efc9c229c6a005581527fc7f505b2f371ae2175ee4913f4499e1f2633a7b5936321eed1cdaeb6115181d290602090a13880610054565b63f92ee8a960e01b60005260046000fd5b600080fdfe6080604052600436101561001257600080fd5b6000803560e01c806233058d14611d6357806301c85c7714611cfc57806301ffc9a714611ca5578063035dfdfe14611c31578063110c96a714611bd15780632648506314611b3b5780632d5c4f2514611ab4578063310d0d5b14611a2d5780633d59ec60146119f05780633df432fc146119525780633f0c664814611936578063406e8b4c146118ff578063443d7534146118765780634c240f34146118095780634f1ef28614611652578063523b81361461161557806352d1902d146115ad57806354fd4d5014611591578063552c9b7e146114d65780635d1ca631146114ab578063715018a61461142a57806379ba5097146113d95780638da5cb5b146113a35780639674cfa414611366578063aad7292114611322578063ad3cb1cc146112e1578063ade09fcd14610b85578063b354c2d814610b10578063b37feda414610a52578063b57a40cb146109cc578063b8db687114610901578063c1e327331461087a578063c6365a3b1461083d578063d49d5cdc1461052a578063d94b027114610486578063da68a0b1146103da578063e26ecb0b1461030d578063e30c3978146102d7578063f2fde38b1461024f578063f84c7c1e1461020d5763ffa1ad74146101df57600080fd5b3461020a578060031936011261020a576102066101fa6120ea565b6040519182918261205a565b0390f35b80fd5b503461020a578060031936011261020a57602060ff7f3018a310c36c4f8228f09bf3b1822685cf0971daa8265a58ca807c4a4daba40254166040519015158152f35b503461020a57602036600319011261020a57610269611f3e565b6102716126de565b6000805160206128d283398151915280546001600160a01b0319166001600160a01b03928316908117909155600080516020612812833981519152549091167f38d16b8cac22d99fc7c124b9cd0de2d3fa1faef420bfe791d8c362d765e227008380a380f35b503461020a578060031936011261020a576000805160206128d2833981519152546040516001600160a01b039091168152602090f35b503461020a57604036600319011261020a57610327611dfb565b61032f61210d565b506001600160401b0360405191630b2bcd1b60e11b83526000805160206128b283398151915260048401521660248201526024356044820152818160648173__$068aad146bf104111ba65c4a1de2cd0e23$__5af49081156103cf578261020693926103ac575b5050604051918291602083526020830190611e11565b6103c892503d8091833e6103c08183611fd7565b8101906122fb565b3880610396565b6040513d84823e3d90fd5b503461020a578060031936011261020a57604051631e75e7f360e01b81526000805160206128b283398151915260048201529060208260248173__$068aad146bf104111ba65c4a1de2cd0e23$__5af490811561047a5790610442575b602090604051908152f35b506020813d602011610472575b8161045c60209383611fd7565b8101031261046d5760209051610437565b600080fd5b3d915061044f565b604051903d90823e3d90fd5b503461020a57602036600319011261020a576004356104a361266e565b6104ab6126de565b80825260008051602061287283398151915260205260ff6040832054161561051b576020817fcc6269876e2c1958f569ca2e926ed364e2965636d111ad426270b6855f5a7e6a92845260008051602061287283398151915282526040842060ff198154169055604051908152a180f35b6327522baf60e01b8252600482fd5b503461020a5760e036600319011261020a576024356001600160401b0381116108395761055b9036906004016120a3565b6084356001600160a01b0381169291908390036108355760a4356001600160a01b03811693908481036108315760c435906001600160f01b03198216820361082d57600080516020612892833981519152549560ff8760401c1615966001600160401b03811680159081610825575b600114908161081b575b159081610812575b506108035767ffffffffffffffff19811660011760008051602061289283398151915255876107d6575b5083156107c757156107b8579061061c91612320565b610624612782565b61062c612782565b33156107a45761063b33612714565b6004357fcb4c32479afd0d9095322a3f93b16fa02cb0bf6c78456f30d0d6005caa749700556044357fcb4c32479afd0d9095322a3f93b16fa02cb0bf6c78456f30d0d6005caa749701556064357fcb4c32479afd0d9095322a3f93b16fa02cb0bf6c78456f30d0d6005caa749702556bffffffffffffffffffffffff60a01b7fcb4c32479afd0d9095322a3f93b16fa02cb0bf6c78456f30d0d6005caa7497045416177fcb4c32479afd0d9095322a3f93b16fa02cb0bf6c78456f30d0d6005caa74970455835b81811061076d575050506107135780f35b68ff0000000000000000196000805160206128928339815191525416600080516020612892833981519152557fc7f505b2f371ae2175ee4913f4499e1f2633a7b5936321eed1cdaeb6115181d2602060405160018152a180f35b8061077b60019284866123bb565b35865260008051602061283283398151915260205260408620805460ff19168317905501610702565b631e4fbdf760e01b85526004859052602485fd5b637eb887b360e01b8752600487fd5b63043103a360e21b8852600488fd5b68ffffffffffffffffff191668010000000000000001176000805160206128928339815191525538610606565b63f92ee8a960e01b8952600489fd5b905015386105dc565b303b1591506105d4565b8991506105ca565b8680fd5b8580fd5b8380fd5b5080fd5b503461020a578060031936011261020a5760207f3018a310c36c4f8228f09bf3b1822685cf0971daa8265a58ca807c4a4daba49c54604051908152f35b503461020a57602036600319011261020a5761089461210d565b506040516397ac539160e01b81526000805160206128b283398151915260048201526004356024820152818160448173__$068aad146bf104111ba65c4a1de2cd0e23$__5af49081156103cf578261020693926103ac575050604051918291602083526020830190611e11565b503461020a57602036600319011261020a57806040805161092181611f54565b8281528260208201520152604051630b1a9cd360e01b81526000805160206128b28339815191526004820152600435602482015260608160448173__$068aad146bf104111ba65c4a1de2cd0e23$__5af49081156103cf576060929161099f575b506040805191805183526020810151602084015201516040820152f35b6109bf9150823d84116109c5575b6109b78183611fd7565b8101906123e1565b38610982565b503d6109ad565b503461020a57602036600319011261020a576109e661210d565b50604051620cf08960e41b81526000805160206128b283398151915260048201526004356024820152818160448173__$068aad146bf104111ba65c4a1de2cd0e23$__5af49081156103cf578261020693926103ac575050604051918291602083526020830190611e11565b503461020a57602036600319011261020a57610a6c61210d565b50610a7561214b565b5060405190636ad1d8a760e11b82526000805160206128b283398151915260048301526004356024830152808260448173__$068aad146bf104111ba65c4a1de2cd0e23$__5af4918215610b0357818093610adc575b505061020660405192839283611e9e565b909150610afb92503d8091833e610af38183611fd7565b81019061226b565b903880610acb565b50604051903d90823e3d90fd5b503461020a57602036600319011261020a577ff007a02ba428e63fa98b65269e70f9a9db847e0a839049a2f31f0692822677346020600435610b5061266e565b610b586126de565b807fcb4c32479afd0d9095322a3f93b16fa02cb0bf6c78456f30d0d6005caa74970255604051908152a180f35b503461020a57604036600319011261020a576004356001600160401b0381116108395736602382011215610839578060040135610bc1816120d3565b91610bcf6040519384611fd7565b8183526024602084019260051b820101903682116112dd5760248101925b8284106112355785856024356001600160401b03811161117357610c15903690600401612013565b5080516001810361121e5750610c2c6020916125f4565b51015190815182019161012081602085019403126108395760208101516001600160401b03811161117357836020610c669284010161217d565b90610c748460408301612601565b84609f8301121561083557604094855192610c8f8785611fd7565b8361010082019183831161121a576080899101915b8383106112005750505090610cb891612601565b85519361014085018581106001600160401b038211176111ec578752610cdd816125f4565b5185528051600110156111d8578681015160208601528051600210156111d8576060810151878601528051600310156111d857608081015160608601528051600410156111d85760a081015160808601528051600510156111d85760c081015160a08601528051600610156111d85760e081015160c08601528051600710156111d85761010081015160e08601528051600810156111d8576101208101516101008601528051600910156111d8576101400151610120850152855191610da283611f85565b825260208201928352858201908152606082019384527fcb4c32479afd0d9095322a3f93b16fa02cb0bf6c78456f30d0d6005caa749704546001600160a01b03169182156111c9575192519051845187516379ddb87b60e11b815294859391929190610e12906004860190612646565b8789604486015b600283106111a35750505050610e339060c4840190612646565b8561010483015b600a821061118957505050610244816020935afa90811561117f578391611141575b5015611132575180516020820151848301516060840151608085015160a086015160c087015161010088015161012090980151949993979396949193908a15611123578815611114577fcb4c32479afd0d9095322a3f93b16fa02cb0bf6c78456f30d0d6005caa7497005403611105577fcb4c32479afd0d9095322a3f93b16fa02cb0bf6c78456f30d0d6005caa74970254036110f6577fcb4c32479afd0d9095322a3f93b16fa02cb0bf6c78456f30d0d6005caa74970354036110e7577fcb4c32479afd0d9095322a3f93b16fa02cb0bf6c78456f30d0d6005caa7497015481018091116110d3578082036110be57504210156110af57845260008051602061283283398151915260205260ff8285205416156110a05780845260008051602061287283398151915260205260ff8285205416611091578352600080516020612872833981519152602052808320805460ff1916600117905573__$068aad146bf104111ba65c4a1de2cd0e23$__91823b15610835578151946306fb157560e01b86526000805160206128b28339815191526004870152602486015260448501528284606481855af4801561108757611072575b829350813b1561106e578260249282519384809263175ba3e960e11b82526000805160206128b283398151915260048301525af490811561106557506110545750f35b8161105e91611fd7565b61020a5780f35b513d84823e3d90fd5b5050fd5b9190928161107f91611fd7565b908290611011565b81513d85823e3d90fd5b639338373760e01b8452600484fd5b6356b6133160e11b8452600484fd5b63b67a771360e01b8552600485fd5b633abb8c7960e11b8752600452602452604485fd5b634e487b7160e01b87526011600452602487fd5b63fe0c887b60e01b8752600487fd5b6381d6039360e01b8852600488fd5b63d2cee05560e01b8952600489fd5b639d34ba4f60e01b8a5260048afd5b634978c15760e11b8a5260048afd5b63b4b32e6f60e01b8252600482fd5b90506020813d602011611177575b8161115c60209383611fd7565b810103126111735761116d90612170565b84610e5c565b8280fd5b3d915061114f565b84513d85823e3d90fd5b829350602080916001939451815201930191018492610e3a565b839495965090816111ba6020936001959651612646565b01930191018987959493610e19565b6301dcf1ab60e31b8652600486fd5b634e487b7160e01b86526032600452602486fd5b634e487b7160e01b87526041600452602487fd5b60209061120d8685612601565b8152019101908890610ca4565b8780fd5b630264a11560e21b83526004526001602452604482fd5b83356001600160401b03811161082d5782016060602319823603011261082d576040519161126283611f54565b60248201356001600160401b03811681036112d957835260448201356001600160401b0381116112d95761129c9060243691850101612013565b60208401526064820135926001600160401b0384116112d9576112c9602094936024869536920101612013565b6040820152815201930192610bed565b8880fd5b8480fd5b503461020a578060031936011261020a5750610206604051611304604082611fd7565b60058152640352e302e360dc1b60208201526040519182918261205a565b503461020a57606036600319011261020a57604435906001600160401b038216820361020a5761020661135a83602435600435612412565b60405191829182611edf565b503461020a578060031936011261020a5760207f3018a310c36c4f8228f09bf3b1822685cf0971daa8265a58ca807c4a4daba49b54604051908152f35b503461020a578060031936011261020a57600080516020612812833981519152546040516001600160a01b039091168152602090f35b503461020a578060031936011261020a576000805160206128d283398151915254336001600160a01b03909116036114175761141433612714565b80f35b63118cdaa760e01b815233600452602490fd5b503461020a578060031936011261020a576114436126de565b6000805160206128d283398151915280546001600160a01b03199081169091556000805160206128128339815191528054918216905581906001600160a01b03167f8be0079c531659141344cd1fd0a4f28419497f9722a3daafe3b4186f6b6457e08280a380f35b503461020a578060031936011261020a5760206000805160206128b283398151915254604051908152f35b503461020a57602036600319011261020a576004356001600160401b038111610839576115079036906004016120a3565b61150f61266e565b6115176126de565b825b818110611524578380f35b8061153260019284866123bb565b358552600080516020612832833981519152602052604085208260ff198254161790557f192522987419be1c06ca88238df20a35b84c7a5025bbf1e244fac876d2d320ee60206115838386886123bb565b35604051908152a101611519565b503461020a578060031936011261020a576102066101fa6120ea565b503461020a578060031936011261020a577f00000000000000000000000000000000000000000000000000000000000000006001600160a01b031630036116065760206040516000805160206128528339815191528152f35b63703e46dd60e11b8152600490fd5b503461020a578060031936011261020a5760207f3018a310c36c4f8228f09bf3b1822685cf0971daa8265a58ca807c4a4daba49a54604051908152f35b50604036600319011261020a57611667611f3e565b906024356001600160401b03811161083957611687903690600401612013565b61168f61266e565b61169761266e565b61169f6126de565b6040516352d1902d60e01b8152926001600160a01b0381169190602085600481865afa809585966117d5575b506116e457634c9c8ce360e01b84526004839052602484fd5b90918460008051602061285283398151915281036117c35750813b156117b15760008051602061285283398151915280546001600160a01b031916821790557fbc7cd75a20ee27fd9adebab32041f755214dbc6bffa90cc0225b39da2e5c2d3b8480a28151839015611797578083602061178b95519101845af43d1561178f573d9161176f83611ff8565b9261177d6040519485611fd7565b83523d85602085013e6127b0565b5080f35b6060916127b0565b505050346117a25780f35b63b398979f60e01b8152600490fd5b634c9c8ce360e01b8452600452602483fd5b632a87526960e21b8552600452602484fd5b9095506020813d602011611801575b816117f160209383611fd7565b810103126112dd575194386116cb565b3d91506117e4565b503461020a57602036600319011261020a577fb69b4c35c29def0ac05e4ac2258986b58de5ae03feeea1802c95f4e0b5794cf160206004356118496126de565b807fcb4c32479afd0d9095322a3f93b16fa02cb0bf6c78456f30d0d6005caa74970355604051908152a180f35b503461020a57602036600319011261020a5761189061210d565b5061189961214b565b506040519063a3018d7960e01b82526000805160206128b283398151915260048301526004356024830152808260448173__$068aad146bf104111ba65c4a1de2cd0e23$__5af4918215610b0357818093610adc57505061020660405192839283611e9e565b503461020a57604036600319011261020a57611919611f3e565b6024356001600160f01b0319811681036111735761141491612320565b503461020a578060031936011261020a57602060405160288152f35b503461020a578060031936011261020a57604051631b8bf99b60e21b81526000805160206128b2833981519152600482015260208160248173__$068aad146bf104111ba65c4a1de2cd0e23$__5af49081156103cf5782916119ba575b602082604051908152f35b90506020813d6020116119e8575b816119d560209383611fd7565b81010312610839576020915051386119af565b3d91506119c8565b503461020a578060031936011261020a5760207f3018a310c36c4f8228f09bf3b1822685cf0971daa8265a58ca807c4a4daba40154604051908152f35b503461020a57611a3c36611f28565b611a4461210d565b5060405191636ac0c5c760e11b83526000805160206128b2833981519152600484015260248301526044820152818160648173__$068aad146bf104111ba65c4a1de2cd0e23$__5af49081156103cf578261020693926103ac575050604051918291602083526020830190611e11565b503461020a57611ac336611f28565b611acb61210d565b506040519163d55da6a360e01b83526000805160206128b2833981519152600484015260248301526044820152818160648173__$068aad146bf104111ba65c4a1de2cd0e23$__5af49081156103cf578261020693926103ac575050604051918291602083526020830190611e11565b503461020a57602036600319011261020a57611b55611dfb565b611b5d61210d565b506001600160401b0360405191637d0aba4f60e01b83526000805160206128b28339815191526004840152166024820152818160448173__$068aad146bf104111ba65c4a1de2cd0e23$__5af49081156103cf578261020693926103ac575050604051918291602083526020830190611e11565b503461020a57604036600319011261020a57602435906001600160401b038216820361020a5761020661135a83611c066122d4565b507f3018a310c36c4f8228f09bf3b1822685cf0971daa8265a58ca807c4a4daba40154600435612412565b503461020a57602036600319011261020a577f192522987419be1c06ca88238df20a35b84c7a5025bbf1e244fac876d2d320ee6020600435611c7161266e565b611c796126de565b80845260008051602061283283398151915282526040808520805460ff1916600117905551908152a180f35b503461020a57602036600319011261020a5760043563ffffffff60e01b811680910361083957602090635d1ca63160e01b8114908115611ceb575b506040519015158152f35b6301ffc9a760e01b14905082611ce0565b503461020a578060031936011261020a5760405163765c2c6160e01b81526000805160206128b2833981519152600482015260208160248173__$068aad146bf104111ba65c4a1de2cd0e23$__5af49081156103cf5782916119ba57602082604051908152f35b503461020a57602036600319011261020a57611d7d611dfb565b90611d8661210d565b50611d8f61214b565b506001600160401b0360405192631f17004d60e31b84526000805160206128b28339815191526004850152166024830152808260448173__$068aad146bf104111ba65c4a1de2cd0e23$__5af4918215610b0357818093610adc57505061020660405192839283611e9e565b600435906001600160401b038216820361046d57565b9061010081019180518252602081015115156020830152604081015192610100604084015283518091526020610120840194019060005b818110611e885750505060e08160608293015160608501526080810151608085015260a0810151151560a085015260c081015160c0850152015191015290565b8251865260209586019590920191600101611e48565b92916020611eb7611edd9360a0875260a0870190611e11565b940190606080918051845260208101516020850152604081015160408501520151910152565b565b60c06020611f2593818452611f158285018251606080918051845260208101516020850152604081015160408501520151910152565b01519160a0808201520190611e11565b90565b604090600319011261046d576004359060243590565b600435906001600160a01b038216820361046d57565b606081019081106001600160401b03821117611f6f57604052565b634e487b7160e01b600052604160045260246000fd5b608081019081106001600160401b03821117611f6f57604052565b61010081019081106001600160401b03821117611f6f57604052565b604081019081106001600160401b03821117611f6f57604052565b90601f801991011681019081106001600160401b03821117611f6f57604052565b6001600160401b038111611f6f57601f01601f191660200190565b81601f8201121561046d5780359061202a82611ff8565b926120386040519485611fd7565b8284526020838301011161046d57816000926020809301838601378301015290565b91909160208152825180602083015260005b81811061208d575060409293506000838284010152601f8019910116010190565b806020809287010151604082860101520161206c565b9181601f8401121561046d578235916001600160401b03831161046d576020808501948460051b01011161046d57565b6001600160401b038111611f6f5760051b60200190565b604051906120f9604083611fd7565b60058252640312e302e360dc1b6020830152565b6040519061211a82611fa0565b600060e083828152826020820152606060408201528260608201528260808201528260a08201528260c08201520152565b6040519061215882611f85565b60006060838281528260208201528260408201520152565b5190811515820361046d57565b9080601f8301121561046d578151612194816120d3565b926121a26040519485611fd7565b81845260208085019260051b82010192831161046d57602001905b8282106121ca5750505090565b81518152602091820191016121bd565b9190916101008184031261046d57604051906121f582611fa0565b81938151835261220760208301612170565b60208401526040820151916001600160401b03831161046d5761223060e093928493830161217d565b6040850152606081015160608501526080810151608085015261225560a08201612170565b60a085015260c081015160c08501520151910152565b808203929160a0841261046d5781516001600160401b03811161046d576080916122969184016121da565b93601f19011261046d576080604051916122af83611f85565b6020810151835260408101516020840152606081015160408401520151606082015290565b604051906122e182611fbc565b816122ea61214b565b815260206122f661210d565b910152565b9060208282031261046d5781516001600160401b03811161046d57611f2592016121da565b73__$068aad146bf104111ba65c4a1de2cd0e23$__91823b1561046d576040516359a6069160e01b81526000805160206128b283398151915260048201526001600160a01b039092166024830152306044830152602860648301526001600160f01b031916608482015290600090829060a49082905af480156123af576123a45750565b6000611edd91611fd7565b6040513d6000823e3d90fd5b91908110156123cb5760051b0190565b634e487b7160e01b600052603260045260246000fd5b9081606091031261046d5760408051916123fa83611f54565b80518352602081015160208401520151604082015290565b91909161241d6122d4565b506000805160206128b283398151915254036125b85773__$068aad146bf104111ba65c4a1de2cd0e23$__90604051630b1a9cd360e01b81526000805160206128b28339815191526004820152836024820152606081604481865af49081156123af576000926001600160401b03926064928591612599575b50604081015160208251920191825190604051996124b38b611f85565b8a5260208a01526040890152606088015251946040519586948593630b2bcd1b60e11b85526000805160206128b2833981519152600486015216602484015260448301525af49081156123af57600091612580575b5080519060208101511515906040810151606082015160808301519060a084015115159260e060c0860151950151956040519761254489611fa0565b8852602088015260408701526060860152608085015260a084015260c083015260e08201526040519161257683611fbc565b8252602082015290565b612593913d8091833e6103c08183611fd7565b38612508565b6125b2915060603d6060116109c5576109b78183611fd7565b38612496565b60405162461bcd60e51b8152602060048201526014602482015273092c8cadce8d2e8f240d2c840dad2e6dac2e8c6d60631b6044820152606490fd5b8051156123cb5760200190565b9080601f8301121561046d57604080519261261c8285611fd7565b8391810192831161046d57905b8282106126365750505090565b8151815260209182019101612629565b906000905b6002821061265857505050565b602080600192855181520193019101909161264b565b6001600160a01b037f0000000000000000000000000000000000000000000000000000000000000000163081149081156126bb575b506126aa57565b63703e46dd60e11b60005260046000fd5b600080516020612852833981519152546001600160a01b031614159050386126a3565b600080516020612812833981519152546001600160a01b031633036126ff57565b63118cdaa760e01b6000523360045260246000fd5b6000805160206128d283398151915280546001600160a01b031990811690915560008051602061281283398151915280549182166001600160a01b0393841690811790915591167f8be0079c531659141344cd1fd0a4f28419497f9722a3daafe3b4186f6b6457e0600080a3565b60ff6000805160206128928339815191525460401c161561279f57565b631afcd79f60e31b60005260046000fd5b906127d657508051156127c557805190602001fd5b63d6bda27560e01b60005260046000fd5b81511580612808575b6127e7575090565b639996b31560e01b60009081526001600160a01b0391909116600452602490fd5b50803b156127df56fe9016d09d72d40fdae2fd8ceac6b6234c7706214fd39c1cd1e609a0528c199300cb4c32479afd0d9095322a3f93b16fa02cb0bf6c78456f30d0d6005caa749705360894a13ba1a3210667c828492db98dca3e2076cc3735a920a3ca505d382bbccb4c32479afd0d9095322a3f93b16fa02cb0bf6c78456f30d0d6005caa749706f0c57e16840df040f15088dc2f81fe391c3923bec73e23a9662efc9c229c6a003018a310c36c4f8228f09bf3b1822685cf0971daa8265a58ca807c4a4daba400237e158222e3e6968b72b9db0d8043aacf074ad9f650f0d1606b4d82ee432c00a2646970667358221220eb8a34d49bf82073241fc8fb366da5db627ac7a70b348d56f2256c7bd9ea581664736f6c634300081b0033",
  "linkReferences": {
    "@iden3/contracts/lib/IdentityLib.sol": {
      "IdentityLib": [
        {
          "length": 20,
          "start": 1119
        },
        {
          "length": 20,
          "start": 1285
        },
        {
          "length": 20,
          "start": 2485
        },
        {
          "length": 20,
          "start": 2637
        },
        {
          "length": 20,
          "start": 2822
        },
        {
          "length": 20,
          "start": 2967
        },
        {
          "length": 20,
          "start": 4264
        },
        {
          "length": 20,
          "start": 6587
        },
        {
          "length": 20,
          "start": 6780
        },
        {
          "length": 20,
          "start": 7016
        },
        {
          "length": 20,
          "start": 7151
        },
        {
          "length": 20,
          "start": 7301
        },
        {
          "length": 20,
          "start": 7718
        },
        {
          "length": 20,
          "start": 7863
        },
        {
          "length": 20,
          "start": 9234
        },
        {
          "length": 20,
          "start": 9509
        }
      ]
    }
  },
  "deployedLinkReferences": {
    "@iden3/contracts/lib/IdentityLib.sol": {
      "IdentityLib": [
        {
          "length": 20,
          "start": 879
        },
        {
          "length": 20,
          "start": 1045
        },
        {
          "length": 20,
          "start": 2245
        },
        {
          "length": 20,
          "start": 2397
        },
        {
          "length": 20,
          "start": 2582
        },
        {
          "length": 20,
          "start": 2727
        },
        {
          "length": 20,
          "start": 4024
        },
        {
          "length": 20,
          "start": 6347
        },
        {
          "length": 20,
          "start": 6540
        },
        {
          "length": 20,
          "start": 6776
        },
        {
          "length": 20,
          "start": 6911
        },
        {
          "length": 20,
          "start": 7061
        },
        {
          "length": 20,
          "start": 7478
        },
        {
          "length": 20,
          "start": 7623
        },
        {
          "length": 20,
          "start": 8994
        },
        {
          "length": 20,
          "start": 9269
        }
      ]
    }
  }
}