{
  "_format": "hh-sol-artifact-1",
  "contractName": "IdentityVerificationHubImplV1",
  "sourceName": "contracts/IdentityVerificationHubImplV1.sol",
  "abi": [
    {
      "inputs": [],
      "stateMutability": "nonpayable",
      "type": "constructor"
    },
    {
      "inputs": [
        {
          "internalType": "address",
          "name": "target",
          "type": "address"
        }
      ],
      "name": "AddressEmptyCode",
      "type": "error"
    },
    {
      "inputs": [],
      "name": "CURRENT_DATE_NOT_IN_VALID_RANGE",
      "type": "error"
    },
    {
      "inputs": [
        {
          "internalType": "address",
          "name": "implementation",
          "type": "address"
        }
      ],
      "name": "ERC1967InvalidImplementation",
      "type": "error"
    },
    {
      "inputs": [],
      "name": "ERC1967NonPayable",
      "type": "error"
    },
    {
      "inputs": [],
      "name": "FailedCall",
      "type": "error"
    },
    {
      "inputs": [],
      "name": "INVALID_COMMITMENT_ROOT",
      "type": "error"
    },
    {
      "inputs": [],
      "name": "INVALID_CSCA_ROOT",
      "type": "error"
    },
    {
      "inputs": [],
      "name": "INVALID_DSC_PROOF",
      "type": "error"
    },
    {
      "inputs": [],
      "name": "INVALID_OFAC_ROOT",
      "type": "error"
    },
    {
      "inputs": [],
      "name": "INVALID_OLDER_THAN",
      "type": "error"
    },
    {
      "inputs": [],
      "name": "InvalidInitialization",
      "type": "error"
    },
    {
      "inputs": [],
      "name": "LENGTH_MISMATCH",
      "type": "error"
    },
    {
      "inputs": [],
      "name": "NO_VERIFIER_SET",
      "type": "error"
    },
    {
      "inputs": [],
      "name": "NotInitializing",
      "type": "error"
    },
    {
      "inputs": [
        {
          "internalType": "address",
          "name": "owner",
          "type": "address"
        }
      ],
      "name": "OwnableInvalidOwner",
      "type": "error"
    },
    {
      "inputs": [
        {
          "internalType": "address",
          "name": "account",
          "type": "address"
        }
      ],
      "name": "OwnableUnauthorizedAccount",
      "type": "error"
    },
    {
      "inputs": [],
      "name": "UUPSUnauthorizedCallContext",
      "type": "error"
    },
    {
      "inputs": [
        {
          "internalType": "bytes32",
          "name": "slot",
          "type": "bytes32"
        }
      ],
      "name": "UUPSUnsupportedProxiableUUID",
      "type": "error"
    },
    {
      "anonymous": false,
      "inputs": [
        {
          "indexed": false,
          "internalType": "uint256",
          "name": "typeId",
          "type": "uint256"
        },
        {
          "indexed": false,
          "internalType": "address",
          "name": "verifier",
          "type": "address"
        }
      ],
      "name": "DscCircuitVerifierUpdated",
      "type": "event"
    },
    {
      "anonymous": false,
      "inputs": [
        {
          "indexed": false,
          "internalType": "address",
          "name": "registry",
          "type": "address"
        },
        {
          "indexed": false,
          "internalType": "uint256[]",
          "name": "dscCircuitVerifierIds",
          "type": "uint256[]"
        },
        {
          "indexed": false,
          "internalType": "address[]",
          "name": "dscCircuitVerifiers",
          "type": "address[]"
        }
      ],
      "name": "HubInitialized",
      "type": "event"
    },
    {
      "anonymous": false,
      "inputs": [
        {
          "indexed": false,
          "internalType": "uint64",
          "name": "version",
          "type": "uint64"
        }
      ],
      "name": "Initialized",
      "type": "event"
    },
    {
      "anonymous": false,
      "inputs": [
        {
          "indexed": true,
          "internalType": "address",
          "name": "previousOwner",
          "type": "address"
        },
        {
          "indexed": true,
          "internalType": "address",
          "name": "newOwner",
          "type": "address"
        }
      ],
      "name": "OwnershipTransferStarted",
      "type": "event"
    },
    {
      "anonymous": false,
      "inputs": [
        {
          "indexed": true,
          "internalType": "address",
          "name": "previousOwner",
          "type": "address"
        },
        {
          "indexed": true,
          "internalType": "address",
          "name": "newOwner",
          "type": "address"
        }
      ],
      "name": "OwnershipTransferred",
      "type": "event"
    },
    {
      "anonymous": false,
      "inputs": [
        {
          "indexed": false,
          "internalType": "address",
          "name": "registry",
          "type": "address"
        }
      ],
      "name": "RegistryUpdated",
      "type": "event"
    },
    {
      "anonymous": false,
      "inputs": [
        {
          "indexed": true,
          "internalType": "address",
          "name": "implementation",
          "type": "address"
        }
      ],
      "name": "Upgraded",
      "type": "event"
    },
    {
      "inputs": [],
      "name": "UPGRADE_INTERFACE_VERSION",
      "outputs": [
        {
          "internalType": "string",
          "name": "",
          "type": "string"
        }
      ],
      "stateMutability": "view",
      "type": "function"
    },
    {
      "inputs": [],
      "name": "acceptOwnership",
      "outputs": [],
      "stateMutability": "nonpayable",
      "type": "function"
    },
    {
      "inputs": [
        {
          "internalType": "uint256[]",
          "name": "typeIds",
          "type": "uint256[]"
        },
        {
          "internalType": "address[]",
          "name": "verifierAddresses",
          "type": "address[]"
        }
      ],
      "name": "batchUpdateDscCircuitVerifiers",
      "outputs": [],
      "stateMutability": "nonpayable",
      "type": "function"
    },
    {
      "inputs": [
        {
          "internalType": "address",
          "name": "registryAddress",
          "type": "address"
        },
        {
          "internalType": "uint256[]",
          "name": "dscCircuitVerifierIds",
          "type": "uint256[]"
        },
        {
          "internalType": "address[]",
          "name": "dscCircuitVerifierAddresses",
          "type": "address[]"
        }
      ],
      "name": "initialize",
      "outputs": [],
      "stateMutability": "nonpayable",
      "type": "function"
    },
    {
      "inputs": [],
      "name": "owner",
      "outputs": [
        {
          "internalType": "address",
          "name": "",
          "type": "address"
        }
      ],
      "stateMutability": "view",
      "type": "function"
    },
    {
      "inputs": [],
      "name": "pendingOwner",
      "outputs": [
        {
          "internalType": "address",
          "name": "",
          "type": "address"
        }
      ],
      "stateMutability": "view",
      "type": "function"
    },
    {
      "inputs": [],
      "name": "proxiableUUID",
      "outputs": [
        {
          "internalType": "bytes32",
          "name": "",
          "type": "bytes32"
        }
      ],
      "stateMutability": "view",
      "type": "function"
    },
    {
      "inputs": [
        {
          "internalType": "uint256",
          "name": "dscCircuitVerifierId",
          "type": "uint256"
        },
        {
          "components": [
            {
              "internalType": "uint256[2]",
              "name": "a",
              "type": "uint256[2]"
            },
            {
              "internalType": "uint256[2][2]",
              "name": "b",
              "type": "uint256[2][2]"
            },
            {
              "internalType": "uint256[2]",
              "name": "c",
              "type": "uint256[2]"
            },
            {
              "internalType": "uint256[2]",
              "name": "pubSignals",
              "type": "uint256[2]"
            }
          ],
          "internalType": "struct IDscCircuitVerifier.DscCircuitProof",
          "name": "dscCircuitProof",
          "type": "tuple"
        }
      ],
      "name": "registerDscKeyCommitment",
      "outputs": [],
      "stateMutability": "nonpayable",
      "type": "function"
    },
    {
      "inputs": [],
      "name": "registry",
      "outputs": [
        {
          "internalType": "address",
          "name": "",
          "type": "address"
        }
      ],
      "stateMutability": "view",
      "type": "function"
    },
    {
      "inputs": [],
      "name": "renounceOwnership",
      "outputs": [],
      "stateMutability": "nonpayable",
      "type": "function"
    },
    {
      "inputs": [
        {
          "internalType": "uint256",
          "name": "typeId",
          "type": "uint256"
        }
      ],
      "name": "sigTypeToDscCircuitVerifiers",
      "outputs": [
        {
          "internalType": "address",
          "name": "",
          "type": "address"
        }
      ],
      "stateMutability": "view",
      "type": "function"
    },
    {
      "inputs": [
        {
          "internalType": "address",
          "name": "newOwner",
          "type": "address"
        }
      ],
      "name": "transferOwnership",
      "outputs": [],
      "stateMutability": "nonpayable",
      "type": "function"
    },
    {
      "inputs": [
        {
          "internalType": "uint256",
          "name": "typeId",
          "type": "uint256"
        },
        {
          "internalType": "address",
          "name": "verifierAddress",
          "type": "address"
        }
      ],
      "name": "updateDscVerifier",
      "outputs": [],
      "stateMutability": "nonpayable",
      "type": "function"
    },
    {
      "inputs": [
        {
          "internalType": "address",
          "name": "registryAddress",
          "type": "address"
        }
      ],
      "name": "updateRegistry",
      "outputs": [],
      "stateMutability": "nonpayable",
      "type": "function"
    },
    {
      "inputs": [
        {
          "internalType": "address",
          "name": "newImplementation",
          "type": "address"
        },
        {
          "internalType": "bytes",
          "name": "data",
          "type": "bytes"
        }
      ],
      "name": "upgradeToAndCall",
      "outputs": [],
      "stateMutability": "payable",
      "type": "function"
    }
  ],
  "bytecode": "0x60a06040523060805234801561001457600080fd5b5061001d610022565b6100d4565b7ff0c57e16840df040f15088dc2f81fe391c3923bec73e23a9662efc9c229c6a00805468010000000000000000900460ff16156100725760405163f92ee8a960e01b815260040160405180910390fd5b80546001600160401b03908116146100d15780546001600160401b0319166001600160401b0390811782556040519081527fc7f505b2f371ae2175ee4913f4499e1f2633a7b5936321eed1cdaeb6115181d29060200160405180910390a15b50565b6080516116c76100fd600039600081816109330152818161095c0152610c5f01526116c76000f3fe6080604052600436106100e85760003560e01c8063715018a61161008a578063ad3cb1cc11610059578063ad3cb1cc14610236578063e30c397814610274578063f015f57914610289578063f2fde38b146102a957600080fd5b8063715018a6146101e257806379ba5097146101f75780637b1039991461020c5780638da5cb5b1461022157600080fd5b806330aec59e116100c657806330aec59e1461016c5780633d098d8b1461018c5780634f1ef286146101ac57806352d1902d146101bf57600080fd5b80631a5da6c8146100ed57806327cff7591461010f5780632ee85c3e1461012f575b600080fd5b3480156100f957600080fd5b5061010d610108366004610fc9565b6102c9565b005b34801561011b57600080fd5b5061010d61012a3660046110ec565b61032d565b34801561013b57600080fd5b5061014f61014a3660046111be565b610533565b6040516001600160a01b0390911681526020015b60405180910390f35b34801561017857600080fd5b5061010d6101873660046111d7565b61055c565b34801561019857600080fd5b5061010d6101a7366004611255565b6105d2565b61010d6101ba366004611322565b61064d565b3480156101cb57600080fd5b506101d461066c565b604051908152602001610163565b3480156101ee57600080fd5b5061010d610689565b34801561020357600080fd5b5061010d61069d565b34801561021857600080fd5b5061014f6106ea565b34801561022d57600080fd5b5061014f610704565b34801561024257600080fd5b50610267604051806040016040528060058152602001640352e302e360dc1b81525081565b60405161016391906113f1565b34801561028057600080fd5b5061014f610739565b34801561029557600080fd5b5061010d6102a4366004611470565b610762565b3480156102b557600080fd5b5061010d6102c4366004610fc9565b6108a3565b6102d1610928565b6102d96109cd565b603280546001600160a01b0319166001600160a01b0383169081179091556040519081527fd6ceddf6d2a22f21c7c81675c518004eff43bc5c8a6fc32a0b748e69d58671cd9060200160405180910390a150565b7ff0c57e16840df040f15088dc2f81fe391c3923bec73e23a9662efc9c229c6a008054600160401b810460ff16159067ffffffffffffffff166000811580156103735750825b905060008267ffffffffffffffff1660011480156103905750303b155b90508115801561039e575080155b156103bc5760405163f92ee8a960e01b815260040160405180910390fd5b845467ffffffffffffffff1916600117855583156103e657845460ff60401b1916600160401b1785555b6103ee6109ff565b603280546001600160a01b0319166001600160a01b038a16179055855187511461042b5760405163899ef10d60e01b815260040160405180910390fd5b60005b87518110156104a757868181518110610449576104496114e1565b6020026020010151603360008a8481518110610467576104676114e1565b602090810291909101810151825281019190915260400160002080546001600160a01b0319166001600160a01b039290921691909117905560010161042e565b507f520d7e312d5fd314a2b728ddd29ff0eba340e71955f127e6eb38bbdebf600dee8888886040516104db939291906114f7565b60405180910390a1831561052957845460ff60401b19168555604051600181527fc7f505b2f371ae2175ee4913f4499e1f2633a7b5936321eed1cdaeb6115181d29060200160405180910390a15b5050505050505050565b600061053d610928565b506000818152603360205260409020546001600160a01b03165b919050565b610564610928565b61056c6109cd565b60008281526033602090815260409182902080546001600160a01b0319166001600160a01b0385169081179091558251858152918201527f02c7aeb52f414fb9b4dfa6100f38185b5e12b184349218c18700bc39423bedc9910160405180910390a15050565b6105da610928565b6105e48282610a18565b6032546060820151516040516322292bed60e11b815260048101919091526001600160a01b039091169063445257da90602401600060405180830381600087803b15801561063157600080fd5b505af1158015610645573d6000803e3d6000fd5b505050505050565b610655610928565b61065e82610b87565b6106688282610b97565b5050565b6000610676610c54565b5060008051602061167283398151915290565b6106916109cd565b61069b6000610c9d565b565b33806106a7610739565b6001600160a01b0316146106de5760405163118cdaa760e01b81526001600160a01b03821660048201526024015b60405180910390fd5b6106e781610c9d565b50565b60006106f4610928565b506032546001600160a01b031690565b6000807f9016d09d72d40fdae2fd8ceac6b6234c7706214fd39c1cd1e609a0528c1993005b546001600160a01b031692915050565b6000807f237e158222e3e6968b72b9db0d8043aacf074ad9f650f0d1606b4d82ee432c00610729565b61076a610928565b6107726109cd565b8281146107925760405163899ef10d60e01b815260040160405180910390fd5b60005b8381101561089c578282828181106107af576107af6114e1565b90506020020160208101906107c49190610fc9565b603360008787858181106107da576107da6114e1565b90506020020135815260200190815260200160002060006101000a8154816001600160a01b0302191690836001600160a01b031602179055507f02c7aeb52f414fb9b4dfa6100f38185b5e12b184349218c18700bc39423bedc9858583818110610846576108466114e1565b9050602002013584848481811061085f5761085f6114e1565b90506020020160208101906108749190610fc9565b604080519283526001600160a01b0390911660208301520160405180910390a1600101610795565b5050505050565b6108ab6109cd565b7f237e158222e3e6968b72b9db0d8043aacf074ad9f650f0d1606b4d82ee432c0080546001600160a01b0319166001600160a01b03831690811782556108ef610704565b6001600160a01b03167f38d16b8cac22d99fc7c124b9cd0de2d3fa1faef420bfe791d8c362d765e2270060405160405180910390a35050565b306001600160a01b037f00000000000000000000000000000000000000000000000000000000000000001614806109af57507f00000000000000000000000000000000000000000000000000000000000000006001600160a01b03166109a3600080516020611672833981519152546001600160a01b031690565b6001600160a01b031614155b1561069b5760405163703e46dd60e11b815260040160405180910390fd5b336109d6610704565b6001600160a01b03161461069b5760405163118cdaa760e01b81523360048201526024016106d5565b610a07610cd5565b610a1033610d1e565b61069b610d2f565b6000828152603360205260409020546001600160a01b031680610a4e576040516347393fa360e11b815260040160405180910390fd5b603254606083015160200151604051631465ff7f60e01b815260048101919091526001600160a01b0390911690631465ff7f90602401602060405180830381865afa158015610aa1573d6000803e3d6000fd5b505050506040513d601f19601f82011682018060405250810190610ac59190611592565b610ae2576040516328a52b4f60e21b815260040160405180910390fd5b806001600160a01b031663f5c9d69e83600001518460200151856040015186606001516040518563ffffffff1660e01b8152600401610b2494939291906115dd565b602060405180830381865afa158015610b41573d6000803e3d6000fd5b505050506040513d601f19601f82011682018060405250810190610b659190611592565b610b82576040516335436ebb60e11b815260040160405180910390fd5b505050565b610b8f610928565b6106e76109cd565b816001600160a01b03166352d1902d6040518163ffffffff1660e01b8152600401602060405180830381865afa925050508015610bf1575060408051601f3d908101601f19168201909252610bee9181019061163c565b60015b610c1957604051634c9c8ce360e01b81526001600160a01b03831660048201526024016106d5565b6000805160206116728339815191528114610c4a57604051632a87526960e21b8152600481018290526024016106d5565b610b828383610d37565b306001600160a01b037f0000000000000000000000000000000000000000000000000000000000000000161461069b5760405163703e46dd60e11b815260040160405180910390fd5b7f237e158222e3e6968b72b9db0d8043aacf074ad9f650f0d1606b4d82ee432c0080546001600160a01b031916815561066882610d8d565b7ff0c57e16840df040f15088dc2f81fe391c3923bec73e23a9662efc9c229c6a0054600160401b900460ff1661069b57604051631afcd79f60e31b815260040160405180910390fd5b610d26610cd5565b6106e781610dfe565b61069b610cd5565b610d4082610e30565b6040516001600160a01b038316907fbc7cd75a20ee27fd9adebab32041f755214dbc6bffa90cc0225b39da2e5c2d3b90600090a2805115610d8557610b828282610e95565b610668610f0b565b7f9016d09d72d40fdae2fd8ceac6b6234c7706214fd39c1cd1e609a0528c19930080546001600160a01b031981166001600160a01b03848116918217845560405192169182907f8be0079c531659141344cd1fd0a4f28419497f9722a3daafe3b4186f6b6457e090600090a3505050565b610e06610cd5565b6001600160a01b0381166106de57604051631e4fbdf760e01b8152600060048201526024016106d5565b806001600160a01b03163b600003610e6657604051634c9c8ce360e01b81526001600160a01b03821660048201526024016106d5565b60008051602061167283398151915280546001600160a01b0319166001600160a01b0392909216919091179055565b6060600080846001600160a01b031684604051610eb29190611655565b600060405180830381855af49150503d8060008114610eed576040519150601f19603f3d011682016040523d82523d6000602084013e610ef2565b606091505b5091509150610f02858383610f2a565b95945050505050565b341561069b5760405163b398979f60e01b815260040160405180910390fd5b606082610f3f57610f3a82610f89565b610f82565b8151158015610f5657506001600160a01b0384163b155b15610f7f57604051639996b31560e01b81526001600160a01b03851660048201526024016106d5565b50805b9392505050565b805115610f995780518082602001fd5b60405163d6bda27560e01b815260040160405180910390fd5b80356001600160a01b038116811461055757600080fd5b600060208284031215610fdb57600080fd5b610f8282610fb2565b634e487b7160e01b600052604160045260246000fd5b6040516080810167ffffffffffffffff8111828210171561101d5761101d610fe4565b60405290565b604051601f8201601f1916810167ffffffffffffffff8111828210171561104c5761104c610fe4565b604052919050565b600067ffffffffffffffff82111561106e5761106e610fe4565b5060051b60200190565b600082601f83011261108957600080fd5b813561109c61109782611054565b611023565b8082825260208201915060208360051b8601019250858311156110be57600080fd5b602085015b838110156110e2576110d481610fb2565b8352602092830192016110c3565b5095945050505050565b60008060006060848603121561110157600080fd5b61110a84610fb2565b9250602084013567ffffffffffffffff81111561112657600080fd5b8401601f8101861361113757600080fd5b803561114561109782611054565b8082825260208201915060208360051b85010192508883111561116757600080fd5b6020840193505b8284101561118957833582526020938401939091019061116e565b9450505050604084013567ffffffffffffffff8111156111a857600080fd5b6111b486828701611078565b9150509250925092565b6000602082840312156111d057600080fd5b5035919050565b600080604083850312156111ea57600080fd5b823591506111fa60208401610fb2565b90509250929050565b600082601f83011261121457600080fd5b61121e6040611023565b80604084018581111561123057600080fd5b845b8181101561124a578035845260209384019301611232565b509095945050505050565b60008082840361016081121561126a57600080fd5b83359250610140601f198201121561128157600080fd5b5061128a610ffa565b6112978560208601611203565b815284607f8501126112a857600080fd5b60406112b381611023565b8060e08701888111156112c557600080fd5b606088015b818110156112eb576112dc8a82611203565b845260209093019284016112ca565b508160208601526112fc8982611203565b8486015250505050611312856101208601611203565b6060820152809150509250929050565b6000806040838503121561133557600080fd5b61133e83610fb2565b9150602083013567ffffffffffffffff81111561135a57600080fd5b8301601f8101851361136b57600080fd5b803567ffffffffffffffff81111561138557611385610fe4565b611398601f8201601f1916602001611023565b8181528660208385010111156113ad57600080fd5b816020840160208301376000602083830101528093505050509250929050565b60005b838110156113e85781810151838201526020016113d0565b50506000910152565b60208152600082518060208401526114108160408501602087016113cd565b601f01601f19169190910160400192915050565b60008083601f84011261143657600080fd5b50813567ffffffffffffffff81111561144e57600080fd5b6020830191508360208260051b850101111561146957600080fd5b9250929050565b6000806000806040858703121561148657600080fd5b843567ffffffffffffffff81111561149d57600080fd5b6114a987828801611424565b909550935050602085013567ffffffffffffffff8111156114c957600080fd5b6114d587828801611424565b95989497509550505050565b634e487b7160e01b600052603260045260246000fd5b6001600160a01b0384168152606060208083018290528451918301829052600091908501906080840190835b81811015611541578351835260209384019390920191600101611523565b505083810360408501528451808252602091820192509085019060005b818110156115855782516001600160a01b031684526020938401939092019160010161155e565b5091979650505050505050565b6000602082840312156115a457600080fd5b81518015158114610f8257600080fd5b8060005b60028110156115d75781518452602093840193909101906001016115b8565b50505050565b61014081016115ec82876115b4565b604082018560005b600281101561161e576116088383516115b4565b60409290920191602091909101906001016115f4565b50505061162e60c08301856115b4565b610f026101008301846115b4565b60006020828403121561164e57600080fd5b5051919050565b600082516116678184602087016113cd565b919091019291505056fe360894a13ba1a3210667c828492db98dca3e2076cc3735a920a3ca505d382bbca26469706673582212204e3ef5ac2e30fcdea942f6443c6d6157635758b16ac4df1a571dcc018b8b390f64736f6c634300081b0033",
  "linkReferences": {},
  "deployedLinkReferences": {}
}