{
  "_format": "hh-sol-artifact-1",
  "contractName": "IdentityLib",
  "sourceName": "@iden3/contracts/lib/IdentityLib.sol",
  "abi": [
    {
      "inputs": [],
      "name": "IDENTITY_MAX_SMT_DEPTH",
      "outputs": [
        {
          "internalType": "uint256",
          "name": "",
          "type": "uint256"
        }
      ],
      "stateMutability": "view",
      "type": "function"
    }
  ],
  "bytecode": "0x60808060405234601b57611ea290816100218239308160070152f35b600080fdfe6080604052307f000000000000000000000000000000000000000000000000000000000000000014600436101561003557600080fd5b60003560e01c908162cf08901461019557816306fb15751461018b5781630b1a9cd31461018657816316579a36146101815781631a3046d71461017c5781631e75e7f3146101775781632c72e822146101725781632eb747d21461016857816359a606911461015e5781636e2fe66c14610159578163765c2c61146101545781637d0aba4f1461014f5781638ad7195d1461014557816397ac539114610140578163a3018d791461013b578163d55da6a314610136578163d5818b8e14610131578163d5a3b14e1461012c578163e1f0eaa914610121575063f8b802681461011c57600080fd5b611165565b15610fbe575b600080fd5b610efd565b610eed565b610e49565b610d67565b610cd6565b15610c5657600080fd5b610bf1565b610b8d565b610b2b565b156108fe57600080fd5b156105c057600080fd5b6105a9565b61050a565b6104e9565b610487565b61039a565b1561031857600080fd5b610242565b9061010081019180518252602081015115156020830152604081015192610100604084015283518091526020610120840194019060005b8181106102185750505060e08160608293015160608501526080810151608085015261020660a082015160a086019015159052565b60c081015160c0850152015191015290565b82518652602095860195909201916001016101d1565b90602061023f92818152019061019a565b90565b6040366003190112610127576004356000600461025e60243590565b926102676112bd565b50609a810154604051633ce0bd4b60e11b8152929091016004830152602482019390935260448101929092528180606481015b038173__$dc6c4dd02ac6da041aea5ed0aea43c2a22$__5af480156102f9576102d2916000916102d6575b506040519182918261022e565b0390f35b6102f391503d806000833e6102eb818361125d565b810190611382565b386102c5565b611429565b606090600319011261012757600435906024359060443590565b610321366102fe565b9173__$dc6c4dd02ac6da041aea5ed0aea43c2a22$__92833b15610127576004936103799360405180958194829363c1d29f0160e01b84526000998a9801600485016040919493926060820195825260208201520152565b03915af480156102f957829061038c5780f35b6103959161125d565b388180f35b6040366003190112610127576102d261040e6104096004356003602435916000604080516103c78161123c565b828152826020820152015201816000528060205260406000205415801590610457575b8015610432575b6103fa90611435565b90600052602052604060002090565b61148c565b60408051825181526020808401519082015291810151908201529081906060820190565b506103fa600261044c848490600052602052604060002090565b0154151590506103f1565b50816000528060205260016040600020015415156103ea565b6024359067ffffffffffffffff8216820361012757565b6060366003190112610127576036600067ffffffffffffffff60043561029a6104ae610470565b91604435906104bb6112bd565b50604051633ce0bd4b60e11b8152960160048701529190921660248501526044840152829081906064820190565b60203660031901126101275760206105026004356114f1565b604051908152f35b6020366003190112610127576004356068604051916379f9712560e01b835201600482015260208160248173__$dc6c4dd02ac6da041aea5ed0aea43c2a22$__5af480156102f9576102d29160009161056f575b506040519081529081906020820190565b610591915060203d602011610597575b610589818361125d565b8101906114b4565b3861055e565b503d61057f565b600091031261012757565b600036600319011261012757602060405160288152f35b6020366003190112610127576004356001810180546040516379f9712560e01b8152600480850190820152919290919073__$dc6c4dd02ac6da041aea5ed0aea43c2a22$__60208380602481010381845af49283156102f9576000936108b1575b506040516379f9712560e01b815260368301600482015290602082602481845af49182156102f957600092610890575b506040516379f9712560e01b8152606884016004820181905291602082602481845af49182156102f95760009261086f575b50609a8501916106a887845414918215908193610860575b8115610851575b5061167b565b6107ea575b6106ea926020916106bd876114f1565b97888b558455609b870195865560405180809681946379f9712560e01b8352600483019190602083019252565b03915af480156102f9576107699361075d936000926107c7575b5061074d9192609c87019384556002870193610721855460ff1690565b855460ff191686559a549154925490549061073a61127f565b9384526020840152604083015286611916565b5460081c6001600160a01b031690565b6001600160a01b031690565b9054926107746116c7565b823b15610127576000946107a0869260405198899788968795637d0dcba560e01b875260048701611708565b03925af180156102f9576107b057005b806107bf60006107c59361125d565b8061059e565b005b61074d92506107e49060203d60201161059757610589818361125d565b91610704565b803b156101275760405163c1d29f0160e01b8152600481018490526024810187905260006044820181905290939084606481855af49182156102f9576106ea9460209361083c575b50915092506106ad565b806107bf600061084b9361125d565b38610832565b9050609c8801541415386106a2565b609b890154881415915061069b565b61088991925060203d60201161059757610589818361125d565b9038610683565b6108aa91925060203d60201161059757610589818361125d565b9038610651565b6108cb91935060203d60201161059757610589818361125d565b9138610621565b602435906001600160a01b038216820361012757565b604435906001600160a01b038216820361012757565b60a0366003190112610127576004356109156108d2565b61091d6108e8565b90606435608435916001600160f01b031983168303610127576109436028831115611772565b600285018054610100600160a81b031916600892831b610100600160a81b031617808255909161097d91901c6001600160a01b031661075d565b60405163932e87a160e01b81526001600160f01b0319851660048201529190602090839060249082905afa9182156102f9576109d2926109c591600091610afc575b506117e6565b805460ff19166001179055565b73__$dc6c4dd02ac6da041aea5ed0aea43c2a22$__803b1561012757604051639e43b81360e01b815260048681019082015260248101839052600081604481855af480156102f957610ae7575b50803b1561012757604051639e43b81360e01b815260368601600482015260248101839052600081604481855af480156102f957610ad2575b50803b1561012757604051639e43b81360e01b81526068860160048201526024810192909252600090829060449082905af480156102f957610ab993610ab392610aae92610abd575b506001600160a01b031690565b6119ef565b90611b53565b9055005b806107bf6000610acc9361125d565b38610aa1565b806107bf6000610ae19361125d565b38610a58565b806107bf6000610af69361125d565b38610a1f565b610b1e915060203d602011610b24575b610b16818361125d565b8101906117d2565b386109bf565b503d610b0c565b6020366003190112610127576040516379f9712560e01b81526004803581019082015260208160248173__$dc6c4dd02ac6da041aea5ed0aea43c2a22$__5af480156102f9576102d29160009161056f57506040519081529081906020820190565b6020366003190112610127576004356036604051916379f9712560e01b835201600482015260208160248173__$dc6c4dd02ac6da041aea5ed0aea43c2a22$__5af480156102f9576102d29160009161056f57506040519081529081906020820190565b6040366003190112610127576036600067ffffffffffffffff60043561029a610c18610470565b91610c216112bd565b50609b810154604051633ce0bd4b60e11b81529690910160048701529190921660248501526044840152829081906064820190565b60006040366003190112610cd35760043581610c70610470565b9173__$dc6c4dd02ac6da041aea5ed0aea43c2a22$__803b15610cd15760369160649167ffffffffffffffff604051968795869463c1d29f0160e01b86520160048501521660248301528460448301525af480156102f957829061038c5780f35b825b80fd5b60403660031901126101275760243560006068600435610cf46112bd565b50609c810154604051633ce0bd4b60e11b81529290910160048301526024820193909352604481019290925281806064810161029a565b906060610d4560809295949560a0855260a085019061019a565b9480516020850152602081015160408501526040810151828501520151910152565b604036600319011261012757602435610dc7600435610d846112bd565b50610d8d611832565b50609c81018054604051633ce0bd4b60e11b8152606884016004820152602481019590955260448501529291600090839081906064820190565b038173__$dc6c4dd02ac6da041aea5ed0aea43c2a22$__5af49182156102f957600092610e2c575b50600181015492609b609a830154920154905491610e0b611290565b9485526020850152604084015260608301526102d260405192839283610d2b565b610e429192503d806000833e6102eb818361125d565b9038610def565b610e9260006068610e59366102fe565b610e649591956112bd565b506040519586948594633ce0bd4b60e11b865201600485016040919493926060820195825260208201520152565b038173__$dc6c4dd02ac6da041aea5ed0aea43c2a22$__5af480156102f9576102d291600091610ed2575b5060405191829160208352602083019061019a565b610ee791503d806000833e6102eb818361125d565b38610ebd565b610e9260006004610e59366102fe565b604036600319011261012757602435610f5d600435610f1a6112bd565b50610f23611832565b50609a81018054604051633ce0bd4b60e11b8152600480850190820152602481019590955260448501529291600090839081906064820190565b038173__$dc6c4dd02ac6da041aea5ed0aea43c2a22$__5af49182156102f957600092610fa1575b506001810154925490609c609b82015491015491610e0b611290565b610fb79192503d806000833e6102eb818361125d565b9038610f85565b61012036600319011261012757600435366101241161012757610fdf611868565b610fe7611868565b9160005b60ff811660048110156110405760ff9181611007600193611893565b3561101282886118aa565b5261103861103061102b611025856118d1565b60ff1690565b611893565b3591886118aa565b520116610feb565b60405163248f667760e01b81528373__$2650005024f117ed9b6c57ec1bf6374b69$__87602084806110758b600483016118e8565b0381855af49081156102f9576110ad94600092611145575b5060209192604051808097819463248f667760e01b8352600483016118e8565b03915af49283156102f957600093611124575b5073__$dc6c4dd02ac6da041aea5ed0aea43c2a22$__803b156101275760046000936111146040519687958694859463c1d29f0160e01b865201600485016040919493926060820195825260208201520152565b03915af480156102f9576107b057005b61113e91935060203d60201161059757610589818361125d565b91836110c0565b6020925061115f90833d851161059757610589818361125d565b9161108d565b60403660031901126101275760043561117c610470565b6111846112bd565b5061118d611832565b50609b82018054604051633ce0bd4b60e11b815260368501600482015267ffffffffffffffff939093166024840152604483015260008260648173__$dc6c4dd02ac6da041aea5ed0aea43c2a22$__5af49182156102f957600092611209575b50600183015492609c609a820154925491015491610e0b611290565b61121f9192503d806000833e6102eb818361125d565b90386111ed565b634e487b7160e01b600052604160045260246000fd5b6060810190811067ffffffffffffffff82111761125857604052565b611226565b90601f8019910116810190811067ffffffffffffffff82111761125857604052565b6040519061128e60608361125d565b565b6040519061128e60808361125d565b6040519061128e6101008361125d565b9061128e604051928361125d565b60405190610100820182811067ffffffffffffffff82111761125857604052600060e083828152826020820152606060408201528260608201528260808201528260a08201528260c08201520152565b5190811515820361012757565b9080601f830112156101275781519167ffffffffffffffff8311611258578260051b906040519361134e602084018661125d565b845260208085019282010192831161012757602001905b8282106113725750505090565b8151815260209182019101611365565b6020818303126101275780519067ffffffffffffffff821161012757019061010082820312610127576113b361129f565b91805183526113c46020820161130d565b6020840152604081015167ffffffffffffffff81116101275760e0926113eb91830161131a565b6040840152606081015160608401526080810151608084015261141060a0820161130d565b60a084015260c081015160c0840152015160e082015290565b6040513d6000823e3d90fd5b1561143c57565b60405162461bcd60e51b815260206004820152602260248201527f526f6f747320666f72207468697320737461746520646f65736e2774206578696044820152611cdd60f21b6064820152608490fd5b906040516114998161123c565b60406002829480548452600181015460208501520154910152565b90816020910312610127575190565b919060608301926000905b600382106114db57505050565b60208060019285518152019301910190916114ce565b6114fb60606112af565b6040516379f9712560e01b815260048381019082015290919073__$dc6c4dd02ac6da041aea5ed0aea43c2a22$__90602081602481855af49081156102f95760009161165c575b5083526040516379f9712560e01b8152603683016004820152602081602481855af49182156102f9576115a49360209360689360009161163f575b50848701526040518095819482936379f9712560e01b845201600483019190602083019252565b03915af49182156102f9576115de92602092600091611622575b506040820152604051809381926304b98e1d60e31b8352600483016114c3565b038173__$03320550cd1b629da90608251571b2532e$__5af49081156102f957600091611609575090565b61023f915060203d60201161059757610589818361125d565b6116399150833d851161059757610589818361125d565b386115be565b6116569150853d871161059757610589818361125d565b3861157d565b611675915060203d60201161059757610589818361125d565b38611542565b1561168257565b60405162461bcd60e51b815260206004820152601e60248201527f4964656e7469747920747265657320686176656e2774206368616e67656400006044820152606490fd5b604051906116d660208361125d565b6000808352366020840137565b604080519091906116f4838261125d565b60208152918290601f190190369060200137565b93929190959495845260208401526040830152151560608201526001608082015260c060a082015282518060c083015260005b81811061175c575060e09293506000838284010152601f8019910116010190565b80602080928701015160e082860101520161173b565b1561177957565b60405162461bcd60e51b815260206004820152602b60248201527f534d542064657074682069732067726561746572207468616e206d617820616c60448201526a0d8deeecac840c8cae0e8d60ab1b6064820152608490fd5b908160209103126101275761023f9061130d565b156117ed57565b60405162461bcd60e51b815260206004820152601860248201527f69642074797065206973206e6f7420737570706f7274656400000000000000006044820152606490fd5b604051906080820182811067ffffffffffffffff8211176112585760405260006060838281528260208201528260408201520152565b604051906080611878818461125d565b368337565b634e487b7160e01b600052603260045260246000fd5b60088110156118a55760051b60240190565b61187d565b9060048110156118a55760051b0190565b634e487b7160e01b600052601160045260246000fd5b60ff60049116019060ff82116118e357565b6118bb565b919060808301926000905b6004821061190057505050565b60208060019285518152019301910190916118f3565b60039092919201826000528060205260406000205415806119d7575b806119bf575b1561196f5761128e926119549190600052602052604060002090565b90604060029180518455602081015160018501550151910155565b60405162461bcd60e51b815260206004820152602260248201527f526f6f747320666f72207468697320737461746520616c7265616479206578696044820152611cdd60f21b6064820152608490fd5b50826000528060205260026040600020015415611938565b50826000528060205260016040600020015415611932565b8060081c9060081b907cff000000ff000000ff000000ff000000ff000000ff000000ff000000ff7dff000000ff000000ff000000ff000000ff000000ff000000ff000000ff007fff000000ff000000ff000000ff000000ff000000ff000000ff000000ff00000084167eff000000ff000000ff000000ff000000ff000000ff000000ff000000ff000084161760101c931691161760101b177bffffffff00000000ffffffff00000000ffffffff00000000ffffffff7fffffffff00000000ffffffff00000000ffffffff00000000ffffffff00000000821660201c911660201b1777ffffffffffffffff0000000000000000ffffffffffffffff8019821660401c911660401b17611b048160801c9160801b90565b1790565b15611b0f57565b606460405162461bcd60e51b815260206004820152602060248201527f69644279746573207265717569726573203331206c656e6774682061727261796044820152fd5b90611b5d906119ef565b90611b666116e3565b9160208301528151601a1981018181116118e357611b9a90611b886001611d75565b611b93855191611d67565b1115611db2565b60405192601b84019101603684015b808310611c61575050601b8352601f01601f191660408190526001600160f01b03199190911660208201526002815261023f91610aae91611c4f91611c4191611bfd9190611bf860228261125d565b611df2565b611bf8611c1f611c0c83611c9b565b60ff61ff008260081b169160081c161790565b60405160f09190911b6001600160f01b03191660208201529283906022820190565b03601f19810184528361125d565b611c5c601f825114611b08565b611d44565b9091602080918451815201920190611ba9565b9081518110156118a5570160200190565b9061ffff8091169116019061ffff82116118e357565b90600091601d815103611cf5576000925b8151841015611cf057611ce8600191611ce2611025611cdc611cce8988611c74565b516001600160f81b03191690565b60f81c90565b90611c85565b930192611cac565b925050565b60405162461bcd60e51b815260206004820152602160248201527f436865636b73756d207265717569726573203239206c656e67746820617272616044820152607960f81b6064820152608490fd5b602081519101519060208110611d58575090565b6000199060200360031b1b1690565b90601b82018092116118e357565b15611d7c57565b60405162461bcd60e51b815260206004820152600e60248201526d736c6963655f6f766572666c6f7760901b6044820152606490fd5b15611db957565b60405162461bcd60e51b8152602060048201526011602482015270736c6963655f6f75744f66426f756e647360781b6044820152606490fd5b6040519181518084526020840190840191602083019160208501905b838110611e5c5750508051809286518201875293019260208085019201905b828110611e4c5750509251603f91011590910101601f19166040525090565b8151815260209182019101611e2d565b8151815260209182019101611e0e56fea26469706673582212200fee5e3c73098758cdf2540babf8f35b955c635f388ebb9aceb76916b6dd238964736f6c634300081b0033",
  "linkReferences": {
    "@iden3/contracts/lib/Poseidon.sol": {
      "PoseidonUnit3L": [
        {
          "length": 20,
          "start": 5635
        }
      ],
      "PoseidonUnit4L": [
        {
          "length": 20,
          "start": 4209
        }
      ]
    },
    "@iden3/contracts/lib/SmtLib.sol": {
      "SmtLib": [
        {
          "length": 20,
          "start": 703
        },
        {
          "length": 20,
          "start": 837
        },
        {
          "length": 20,
          "start": 1368
        },
        {
          "length": 20,
          "start": 1555
        },
        {
          "length": 20,
          "start": 2549
        },
        {
          "length": 20,
          "start": 2935
        },
        {
          "length": 20,
          "start": 3035
        },
        {
          "length": 20,
          "start": 3220
        },
        {
          "length": 20,
          "start": 3564
        },
        {
          "length": 20,
          "start": 3767
        },
        {
          "length": 20,
          "start": 3970
        },
        {
          "length": 20,
          "start": 4324
        },
        {
          "length": 20,
          "start": 4586
        },
        {
          "length": 20,
          "start": 5431
        }
      ]
    }
  },
  "deployedLinkReferences": {
    "@iden3/contracts/lib/Poseidon.sol": {
      "PoseidonUnit3L": [
        {
          "length": 20,
          "start": 5602
        }
      ],
      "PoseidonUnit4L": [
        {
          "length": 20,
          "start": 4176
        }
      ]
    },
    "@iden3/contracts/lib/SmtLib.sol": {
      "SmtLib": [
        {
          "length": 20,
          "start": 670
        },
        {
          "length": 20,
          "start": 804
        },
        {
          "length": 20,
          "start": 1335
        },
        {
          "length": 20,
          "start": 1522
        },
        {
          "length": 20,
          "start": 2516
        },
        {
          "length": 20,
          "start": 2902
        },
        {
          "length": 20,
          "start": 3002
        },
        {
          "length": 20,
          "start": 3187
        },
        {
          "length": 20,
          "start": 3531
        },
        {
          "length": 20,
          "start": 3734
        },
        {
          "length": 20,
          "start": 3937
        },
        {
          "length": 20,
          "start": 4291
        },
        {
          "length": 20,
          "start": 4553
        },
        {
          "length": 20,
          "start": 5398
        }
      ]
    }
  }
}