{
  "_format": "hh-sol-artifact-1",
  "contractName": "PassportCredentialIssuer",
  "sourceName": "contracts/verifiers/PassportCredentialIssuer.sol",
  "abi": [
    {
      "inputs": [],
      "stateMutability": "nonpayable",
      "type": "constructor"
    },
    {
      "inputs": [
        {
          "internalType": "uint256",
          "name": "currentDate",
          "type": "uint256"
        }
      ],
      "name": "CurrentDateExpired",
      "type": "error"
    },
    {
      "inputs": [],
      "name": "InvalidCredentialProof",
      "type": "error"
    },
    {
      "inputs": [
        {
          "internalType": "uint256",
          "name": "hashIndex",
          "type": "uint256"
        }
      ],
      "name": "InvalidHashIndex",
      "type": "error"
    },
    {
      "inputs": [
        {
          "internalType": "uint256",
          "name": "hashValue",
          "type": "uint256"
        }
      ],
      "name": "InvalidHashValue",
      "type": "error"
    },
    {
      "inputs": [],
      "name": "InvalidInitialization",
      "type": "error"
    },
    {
      "inputs": [
        {
          "internalType": "uint256",
          "name": "linkId1",
          "type": "uint256"
        },
        {
          "internalType": "uint256",
          "name": "linkId2",
          "type": "uint256"
        }
      ],
      "name": "InvalidLinkId",
      "type": "error"
    },
    {
      "inputs": [],
      "name": "InvalidPassportSignatureProof",
      "type": "error"
    },
    {
      "inputs": [
        {
          "internalType": "uint256",
          "name": "length",
          "type": "uint256"
        },
        {
          "internalType": "uint256",
          "name": "expectedLength",
          "type": "uint256"
        }
      ],
      "name": "InvalidResponsesLength",
      "type": "error"
    },
    {
      "inputs": [
        {
          "internalType": "address",
          "name": "signer",
          "type": "address"
        }
      ],
      "name": "InvalidSignerPassportSignatureProof",
      "type": "error"
    },
    {
      "inputs": [
        {
          "internalType": "uint256",
          "name": "templateRoot",
          "type": "uint256"
        },
        {
          "internalType": "uint256",
          "name": "expectedTemplateRoot",
          "type": "uint256"
        }
      ],
      "name": "InvalidTemplateRoot",
      "type": "error"
    },
    {
      "inputs": [
        {
          "internalType": "uint256",
          "name": "issuanceDate",
          "type": "uint256"
        }
      ],
      "name": "IssuanceDateExpired",
      "type": "error"
    },
    {
      "inputs": [
        {
          "internalType": "uint256",
          "name": "length1",
          "type": "uint256"
        },
        {
          "internalType": "uint256",
          "name": "length2",
          "type": "uint256"
        }
      ],
      "name": "LengthMismatch",
      "type": "error"
    },
    {
      "inputs": [
        {
          "internalType": "uint256",
          "name": "requestId",
          "type": "uint256"
        }
      ],
      "name": "NoCredentialCircuitForRequestId",
      "type": "error"
    },
    {
      "inputs": [],
      "name": "NoVerifierSet",
      "type": "error"
    },
    {
      "inputs": [],
      "name": "NotInitializing",
      "type": "error"
    },
    {
      "inputs": [
        {
          "internalType": "uint256",
          "name": "nullifier",
          "type": "uint256"
        }
      ],
      "name": "NullifierAlreadyExists",
      "type": "error"
    },
    {
      "inputs": [
        {
          "internalType": "address",
          "name": "owner",
          "type": "address"
        }
      ],
      "name": "OwnableInvalidOwner",
      "type": "error"
    },
    {
      "inputs": [
        {
          "internalType": "address",
          "name": "account",
          "type": "address"
        }
      ],
      "name": "OwnableUnauthorizedAccount",
      "type": "error"
    },
    {
      "anonymous": false,
      "inputs": [
        {
          "indexed": false,
          "internalType": "string",
          "name": "circuitId",
          "type": "string"
        },
        {
          "indexed": false,
          "internalType": "address",
          "name": "verifier",
          "type": "address"
        },
        {
          "indexed": false,
          "internalType": "uint256",
          "name": "requestId",
          "type": "uint256"
        }
      ],
      "name": "CredentialCircuitVerifierUpdated",
      "type": "event"
    },
    {
      "anonymous": false,
      "inputs": [],
      "name": "EIP712DomainChanged",
      "type": "event"
    },
    {
      "anonymous": false,
      "inputs": [
        {
          "indexed": false,
          "internalType": "uint256",
          "name": "expirationTime",
          "type": "uint256"
        }
      ],
      "name": "ExpirationTimeUpdated",
      "type": "event"
    },
    {
      "anonymous": false,
      "inputs": [
        {
          "indexed": false,
          "internalType": "uint64",
          "name": "version",
          "type": "uint64"
        }
      ],
      "name": "Initialized",
      "type": "event"
    },
    {
      "anonymous": false,
      "inputs": [
        {
          "indexed": true,
          "internalType": "address",
          "name": "previousOwner",
          "type": "address"
        },
        {
          "indexed": true,
          "internalType": "address",
          "name": "newOwner",
          "type": "address"
        }
      ],
      "name": "OwnershipTransferStarted",
      "type": "event"
    },
    {
      "anonymous": false,
      "inputs": [
        {
          "indexed": true,
          "internalType": "address",
          "name": "previousOwner",
          "type": "address"
        },
        {
          "indexed": true,
          "internalType": "address",
          "name": "newOwner",
          "type": "address"
        }
      ],
      "name": "OwnershipTransferred",
      "type": "event"
    },
    {
      "anonymous": false,
      "inputs": [
        {
          "indexed": false,
          "internalType": "address",
          "name": "signer",
          "type": "address"
        }
      ],
      "name": "SignerAdded",
      "type": "event"
    },
    {
      "anonymous": false,
      "inputs": [
        {
          "indexed": false,
          "internalType": "uint256",
          "name": "tampletRoot",
          "type": "uint256"
        }
      ],
      "name": "TemplateRootUpdated",
      "type": "event"
    },
    {
      "inputs": [],
      "name": "DOMAIN_VERSION",
      "outputs": [
        {
          "internalType": "string",
          "name": "",
          "type": "string"
        }
      ],
      "stateMutability": "view",
      "type": "function"
    },
    {
      "inputs": [],
      "name": "PASSPORT_CREDENTIAL_MESSAGE_TYPEHASH",
      "outputs": [
        {
          "internalType": "bytes32",
          "name": "",
          "type": "bytes32"
        }
      ],
      "stateMutability": "view",
      "type": "function"
    },
    {
      "inputs": [],
      "name": "VERSION",
      "outputs": [
        {
          "internalType": "string",
          "name": "",
          "type": "string"
        }
      ],
      "stateMutability": "view",
      "type": "function"
    },
    {
      "inputs": [],
      "name": "acceptOwnership",
      "outputs": [],
      "stateMutability": "nonpayable",
      "type": "function"
    },
    {
      "inputs": [
        {
          "internalType": "address[]",
          "name": "signers",
          "type": "address[]"
        }
      ],
      "name": "addSigners",
      "outputs": [],
      "stateMutability": "nonpayable",
      "type": "function"
    },
    {
      "inputs": [
        {
          "internalType": "uint256",
          "name": "nullifier",
          "type": "uint256"
        }
      ],
      "name": "cleanNullifier",
      "outputs": [],
      "stateMutability": "nonpayable",
      "type": "function"
    },
    {
      "inputs": [
        {
          "internalType": "string",
          "name": "circuitId",
          "type": "string"
        }
      ],
      "name": "credentialCircuitIdToRequestIds",
      "outputs": [
        {
          "internalType": "uint256",
          "name": "",
          "type": "uint256"
        }
      ],
      "stateMutability": "view",
      "type": "function"
    },
    {
      "inputs": [
        {
          "internalType": "uint256",
          "name": "requestId",
          "type": "uint256"
        }
      ],
      "name": "credentialRequestIdToCircuitIds",
      "outputs": [
        {
          "internalType": "string",
          "name": "",
          "type": "string"
        }
      ],
      "stateMutability": "view",
      "type": "function"
    },
    {
      "inputs": [
        {
          "internalType": "string",
          "name": "circuitId",
          "type": "string"
        }
      ],
      "name": "credentialVerifiers",
      "outputs": [
        {
          "internalType": "address",
          "name": "",
          "type": "address"
        }
      ],
      "stateMutability": "view",
      "type": "function"
    },
    {
      "inputs": [],
      "name": "eip712Domain",
      "outputs": [
        {
          "internalType": "bytes1",
          "name": "fields",
          "type": "bytes1"
        },
        {
          "internalType": "string",
          "name": "name",
          "type": "string"
        },
        {
          "internalType": "string",
          "name": "version",
          "type": "string"
        },
        {
          "internalType": "uint256",
          "name": "chainId",
          "type": "uint256"
        },
        {
          "internalType": "address",
          "name": "verifyingContract",
          "type": "address"
        },
        {
          "internalType": "bytes32",
          "name": "salt",
          "type": "bytes32"
        },
        {
          "internalType": "uint256[]",
          "name": "extensions",
          "type": "uint256[]"
        }
      ],
      "stateMutability": "view",
      "type": "function"
    },
    {
      "inputs": [
        {
          "internalType": "uint256",
          "name": "claimIndexHash",
          "type": "uint256"
        }
      ],
      "name": "getClaimProof",
      "outputs": [
        {
          "components": [
            {
              "internalType": "uint256",
              "name": "root",
              "type": "uint256"
            },
            {
              "internalType": "bool",
              "name": "existence",
              "type": "bool"
            },
            {
              "internalType": "uint256[]",
              "name": "siblings",
              "type": "uint256[]"
            },
            {
              "internalType": "uint256",
              "name": "index",
              "type": "uint256"
            },
            {
              "internalType": "uint256",
              "name": "value",
              "type": "uint256"
            },
            {
              "internalType": "bool",
              "name": "auxExistence",
              "type": "bool"
            },
            {
              "internalType": "uint256",
              "name": "auxIndex",
              "type": "uint256"
            },
            {
              "internalType": "uint256",
              "name": "auxValue",
              "type": "uint256"
            }
          ],
          "internalType": "struct SmtLib.Proof",
          "name": "",
          "type": "tuple"
        }
      ],
      "stateMutability": "view",
      "type": "function"
    },
    {
      "inputs": [
        {
          "internalType": "uint256",
          "name": "claimIndexHash",
          "type": "uint256"
        },
        {
          "internalType": "uint256",
          "name": "root",
          "type": "uint256"
        }
      ],
      "name": "getClaimProofByRoot",
      "outputs": [
        {
          "components": [
            {
              "internalType": "uint256",
              "name": "root",
              "type": "uint256"
            },
            {
              "internalType": "bool",
              "name": "existence",
              "type": "bool"
            },
            {
              "internalType": "uint256[]",
              "name": "siblings",
              "type": "uint256[]"
            },
            {
              "internalType": "uint256",
              "name": "index",
              "type": "uint256"
            },
            {
              "internalType": "uint256",
              "name": "value",
              "type": "uint256"
            },
            {
              "internalType": "bool",
              "name": "auxExistence",
              "type": "bool"
            },
            {
              "internalType": "uint256",
              "name": "auxIndex",
              "type": "uint256"
            },
            {
              "internalType": "uint256",
              "name": "auxValue",
              "type": "uint256"
            }
          ],
          "internalType": "struct SmtLib.Proof",
          "name": "",
          "type": "tuple"
        }
      ],
      "stateMutability": "view",
      "type": "function"
    },
    {
      "inputs": [
        {
          "internalType": "uint256",
          "name": "claimIndexHash",
          "type": "uint256"
        }
      ],
      "name": "getClaimProofWithStateInfo",
      "outputs": [
        {
          "components": [
            {
              "internalType": "uint256",
              "name": "root",
              "type": "uint256"
            },
            {
              "internalType": "bool",
              "name": "existence",
              "type": "bool"
            },
            {
              "internalType": "uint256[]",
              "name": "siblings",
              "type": "uint256[]"
            },
            {
              "internalType": "uint256",
              "name": "index",
              "type": "uint256"
            },
            {
              "internalType": "uint256",
              "name": "value",
              "type": "uint256"
            },
            {
              "internalType": "bool",
              "name": "auxExistence",
              "type": "bool"
            },
            {
              "internalType": "uint256",
              "name": "auxIndex",
              "type": "uint256"
            },
            {
              "internalType": "uint256",
              "name": "auxValue",
              "type": "uint256"
            }
          ],
          "internalType": "struct SmtLib.Proof",
          "name": "",
          "type": "tuple"
        },
        {
          "components": [
            {
              "internalType": "uint256",
              "name": "state",
              "type": "uint256"
            },
            {
              "internalType": "uint256",
              "name": "claimsRoot",
              "type": "uint256"
            },
            {
              "internalType": "uint256",
              "name": "revocationsRoot",
              "type": "uint256"
            },
            {
              "internalType": "uint256",
              "name": "rootsRoot",
              "type": "uint256"
            }
          ],
          "internalType": "struct IdentityLib.StateInfo",
          "name": "",
          "type": "tuple"
        }
      ],
      "stateMutability": "view",
      "type": "function"
    },
    {
      "inputs": [],
      "name": "getClaimsTreeRoot",
      "outputs": [
        {
          "internalType": "uint256",
          "name": "",
          "type": "uint256"
        }
      ],
      "stateMutability": "view",
      "type": "function"
    },
    {
      "inputs": [],
      "name": "getExpirationTime",
      "outputs": [
        {
          "internalType": "uint256",
          "name": "",
          "type": "uint256"
        }
      ],
      "stateMutability": "view",
      "type": "function"
    },
    {
      "inputs": [],
      "name": "getId",
      "outputs": [
        {
          "internalType": "uint256",
          "name": "",
          "type": "uint256"
        }
      ],
      "stateMutability": "view",
      "type": "function"
    },
    {
      "inputs": [],
      "name": "getIsOldStateGenesis",
      "outputs": [
        {
          "internalType": "bool",
          "name": "",
          "type": "bool"
        }
      ],
      "stateMutability": "view",
      "type": "function"
    },
    {
      "inputs": [],
      "name": "getLatestPublishedClaimsRoot",
      "outputs": [
        {
          "internalType": "uint256",
          "name": "",
          "type": "uint256"
        }
      ],
      "stateMutability": "view",
      "type": "function"
    },
    {
      "inputs": [],
      "name": "getLatestPublishedRevocationsRoot",
      "outputs": [
        {
          "internalType": "uint256",
          "name": "",
          "type": "uint256"
        }
      ],
      "stateMutability": "view",
      "type": "function"
    },
    {
      "inputs": [],
      "name": "getLatestPublishedRootsRoot",
      "outputs": [
        {
          "internalType": "uint256",
          "name": "",
          "type": "uint256"
        }
      ],
      "stateMutability": "view",
      "type": "function"
    },
    {
      "inputs": [],
      "name": "getLatestPublishedState",
      "outputs": [
        {
          "internalType": "uint256",
          "name": "",
          "type": "uint256"
        }
      ],
      "stateMutability": "view",
      "type": "function"
    },
    {
      "inputs": [
        {
          "internalType": "uint64",
          "name": "revocationNonce",
          "type": "uint64"
        }
      ],
      "name": "getRevocationProof",
      "outputs": [
        {
          "components": [
            {
              "internalType": "uint256",
              "name": "root",
              "type": "uint256"
            },
            {
              "internalType": "bool",
              "name": "existence",
              "type": "bool"
            },
            {
              "internalType": "uint256[]",
              "name": "siblings",
              "type": "uint256[]"
            },
            {
              "internalType": "uint256",
              "name": "index",
              "type": "uint256"
            },
            {
              "internalType": "uint256",
              "name": "value",
              "type": "uint256"
            },
            {
              "internalType": "bool",
              "name": "auxExistence",
              "type": "bool"
            },
            {
              "internalType": "uint256",
              "name": "auxIndex",
              "type": "uint256"
            },
            {
              "internalType": "uint256",
              "name": "auxValue",
              "type": "uint256"
            }
          ],
          "internalType": "struct SmtLib.Proof",
          "name": "",
          "type": "tuple"
        }
      ],
      "stateMutability": "view",
      "type": "function"
    },
    {
      "inputs": [
        {
          "internalType": "uint64",
          "name": "revocationNonce",
          "type": "uint64"
        },
        {
          "internalType": "uint256",
          "name": "root",
          "type": "uint256"
        }
      ],
      "name": "getRevocationProofByRoot",
      "outputs": [
        {
          "components": [
            {
              "internalType": "uint256",
              "name": "root",
              "type": "uint256"
            },
            {
              "internalType": "bool",
              "name": "existence",
              "type": "bool"
            },
            {
              "internalType": "uint256[]",
              "name": "siblings",
              "type": "uint256[]"
            },
            {
              "internalType": "uint256",
              "name": "index",
              "type": "uint256"
            },
            {
              "internalType": "uint256",
              "name": "value",
              "type": "uint256"
            },
            {
              "internalType": "bool",
              "name": "auxExistence",
              "type": "bool"
            },
            {
              "internalType": "uint256",
              "name": "auxIndex",
              "type": "uint256"
            },
            {
              "internalType": "uint256",
              "name": "auxValue",
              "type": "uint256"
            }
          ],
          "internalType": "struct SmtLib.Proof",
          "name": "",
          "type": "tuple"
        }
      ],
      "stateMutability": "view",
      "type": "function"
    },
    {
      "inputs": [
        {
          "internalType": "uint64",
          "name": "revocationNonce",
          "type": "uint64"
        }
      ],
      "name": "getRevocationProofWithStateInfo",
      "outputs": [
        {
          "components": [
            {
              "internalType": "uint256",
              "name": "root",
              "type": "uint256"
            },
            {
              "internalType": "bool",
              "name": "existence",
              "type": "bool"
            },
            {
              "internalType": "uint256[]",
              "name": "siblings",
              "type": "uint256[]"
            },
            {
              "internalType": "uint256",
              "name": "index",
              "type": "uint256"
            },
            {
              "internalType": "uint256",
              "name": "value",
              "type": "uint256"
            },
            {
              "internalType": "bool",
              "name": "auxExistence",
              "type": "bool"
            },
            {
              "internalType": "uint256",
              "name": "auxIndex",
              "type": "uint256"
            },
            {
              "internalType": "uint256",
              "name": "auxValue",
              "type": "uint256"
            }
          ],
          "internalType": "struct SmtLib.Proof",
          "name": "",
          "type": "tuple"
        },
        {
          "components": [
            {
              "internalType": "uint256",
              "name": "state",
              "type": "uint256"
            },
            {
              "internalType": "uint256",
              "name": "claimsRoot",
              "type": "uint256"
            },
            {
              "internalType": "uint256",
              "name": "revocationsRoot",
              "type": "uint256"
            },
            {
              "internalType": "uint256",
              "name": "rootsRoot",
              "type": "uint256"
            }
          ],
          "internalType": "struct IdentityLib.StateInfo",
          "name": "",
          "type": "tuple"
        }
      ],
      "stateMutability": "view",
      "type": "function"
    },
    {
      "inputs": [
        {
          "internalType": "uint256",
          "name": "id",
          "type": "uint256"
        },
        {
          "internalType": "uint64",
          "name": "nonce",
          "type": "uint64"
        }
      ],
      "name": "getRevocationStatus",
      "outputs": [
        {
          "components": [
            {
              "components": [
                {
                  "internalType": "uint256",
                  "name": "state",
                  "type": "uint256"
                },
                {
                  "internalType": "uint256",
                  "name": "claimsTreeRoot",
                  "type": "uint256"
                },
                {
                  "internalType": "uint256",
                  "name": "revocationTreeRoot",
                  "type": "uint256"
                },
                {
                  "internalType": "uint256",
                  "name": "rootOfRoots",
                  "type": "uint256"
                }
              ],
              "internalType": "struct IOnchainCredentialStatusResolver.IdentityStateRoots",
              "name": "issuer",
              "type": "tuple"
            },
            {
              "components": [
                {
                  "internalType": "uint256",
                  "name": "root",
                  "type": "uint256"
                },
                {
                  "internalType": "bool",
                  "name": "existence",
                  "type": "bool"
                },
                {
                  "internalType": "uint256[]",
                  "name": "siblings",
                  "type": "uint256[]"
                },
                {
                  "internalType": "uint256",
                  "name": "index",
                  "type": "uint256"
                },
                {
                  "internalType": "uint256",
                  "name": "value",
                  "type": "uint256"
                },
                {
                  "internalType": "bool",
                  "name": "auxExistence",
                  "type": "bool"
                },
                {
                  "internalType": "uint256",
                  "name": "auxIndex",
                  "type": "uint256"
                },
                {
                  "internalType": "uint256",
                  "name": "auxValue",
                  "type": "uint256"
                }
              ],
              "internalType": "struct IOnchainCredentialStatusResolver.Proof",
              "name": "mtp",
              "type": "tuple"
            }
          ],
          "internalType": "struct IOnchainCredentialStatusResolver.CredentialStatus",
          "name": "",
          "type": "tuple"
        }
      ],
      "stateMutability": "view",
      "type": "function"
    },
    {
      "inputs": [
        {
          "internalType": "uint256",
          "name": "id",
          "type": "uint256"
        },
        {
          "internalType": "uint256",
          "name": "state",
          "type": "uint256"
        },
        {
          "internalType": "uint64",
          "name": "nonce",
          "type": "uint64"
        }
      ],
      "name": "getRevocationStatusByIdAndState",
      "outputs": [
        {
          "components": [
            {
              "components": [
                {
                  "internalType": "uint256",
                  "name": "state",
                  "type": "uint256"
                },
                {
                  "internalType": "uint256",
                  "name": "claimsTreeRoot",
                  "type": "uint256"
                },
                {
                  "internalType": "uint256",
                  "name": "revocationTreeRoot",
                  "type": "uint256"
                },
                {
                  "internalType": "uint256",
                  "name": "rootOfRoots",
                  "type": "uint256"
                }
              ],
              "internalType": "struct IOnchainCredentialStatusResolver.IdentityStateRoots",
              "name": "issuer",
              "type": "tuple"
            },
            {
              "components": [
                {
                  "internalType": "uint256",
                  "name": "root",
                  "type": "uint256"
                },
                {
                  "internalType": "bool",
                  "name": "existence",
                  "type": "bool"
                },
                {
                  "internalType": "uint256[]",
                  "name": "siblings",
                  "type": "uint256[]"
                },
                {
                  "internalType": "uint256",
                  "name": "index",
                  "type": "uint256"
                },
                {
                  "internalType": "uint256",
                  "name": "value",
                  "type": "uint256"
                },
                {
                  "internalType": "bool",
                  "name": "auxExistence",
                  "type": "bool"
                },
                {
                  "internalType": "uint256",
                  "name": "auxIndex",
                  "type": "uint256"
                },
                {
                  "internalType": "uint256",
                  "name": "auxValue",
                  "type": "uint256"
                }
              ],
              "internalType": "struct IOnchainCredentialStatusResolver.Proof",
              "name": "mtp",
              "type": "tuple"
            }
          ],
          "internalType": "struct IOnchainCredentialStatusResolver.CredentialStatus",
          "name": "",
          "type": "tuple"
        }
      ],
      "stateMutability": "view",
      "type": "function"
    },
    {
      "inputs": [],
      "name": "getRevocationsTreeRoot",
      "outputs": [
        {
          "internalType": "uint256",
          "name": "",
          "type": "uint256"
        }
      ],
      "stateMutability": "view",
      "type": "function"
    },
    {
      "inputs": [
        {
          "internalType": "uint256",
          "name": "rootsTreeRoot",
          "type": "uint256"
        }
      ],
      "name": "getRootProof",
      "outputs": [
        {
          "components": [
            {
              "internalType": "uint256",
              "name": "root",
              "type": "uint256"
            },
            {
              "internalType": "bool",
              "name": "existence",
              "type": "bool"
            },
            {
              "internalType": "uint256[]",
              "name": "siblings",
              "type": "uint256[]"
            },
            {
              "internalType": "uint256",
              "name": "index",
              "type": "uint256"
            },
            {
              "internalType": "uint256",
              "name": "value",
              "type": "uint256"
            },
            {
              "internalType": "bool",
              "name": "auxExistence",
              "type": "bool"
            },
            {
              "internalType": "uint256",
              "name": "auxIndex",
              "type": "uint256"
            },
            {
              "internalType": "uint256",
              "name": "auxValue",
              "type": "uint256"
            }
          ],
          "internalType": "struct SmtLib.Proof",
          "name": "",
          "type": "tuple"
        }
      ],
      "stateMutability": "view",
      "type": "function"
    },
    {
      "inputs": [
        {
          "internalType": "uint256",
          "name": "claimsTreeRoot",
          "type": "uint256"
        },
        {
          "internalType": "uint256",
          "name": "root",
          "type": "uint256"
        }
      ],
      "name": "getRootProofByRoot",
      "outputs": [
        {
          "components": [
            {
              "internalType": "uint256",
              "name": "root",
              "type": "uint256"
            },
            {
              "internalType": "bool",
              "name": "existence",
              "type": "bool"
            },
            {
              "internalType": "uint256[]",
              "name": "siblings",
              "type": "uint256[]"
            },
            {
              "internalType": "uint256",
              "name": "index",
              "type": "uint256"
            },
            {
              "internalType": "uint256",
              "name": "value",
              "type": "uint256"
            },
            {
              "internalType": "bool",
              "name": "auxExistence",
              "type": "bool"
            },
            {
              "internalType": "uint256",
              "name": "auxIndex",
              "type": "uint256"
            },
            {
              "internalType": "uint256",
              "name": "auxValue",
              "type": "uint256"
            }
          ],
          "internalType": "struct SmtLib.Proof",
          "name": "",
          "type": "tuple"
        }
      ],
      "stateMutability": "view",
      "type": "function"
    },
    {
      "inputs": [
        {
          "internalType": "uint256",
          "name": "rootsTreeRoot",
          "type": "uint256"
        }
      ],
      "name": "getRootProofWithStateInfo",
      "outputs": [
        {
          "components": [
            {
              "internalType": "uint256",
              "name": "root",
              "type": "uint256"
            },
            {
              "internalType": "bool",
              "name": "existence",
              "type": "bool"
            },
            {
              "internalType": "uint256[]",
              "name": "siblings",
              "type": "uint256[]"
            },
            {
              "internalType": "uint256",
              "name": "index",
              "type": "uint256"
            },
            {
              "internalType": "uint256",
              "name": "value",
              "type": "uint256"
            },
            {
              "internalType": "bool",
              "name": "auxExistence",
              "type": "bool"
            },
            {
              "internalType": "uint256",
              "name": "auxIndex",
              "type": "uint256"
            },
            {
              "internalType": "uint256",
              "name": "auxValue",
              "type": "uint256"
            }
          ],
          "internalType": "struct SmtLib.Proof",
          "name": "",
          "type": "tuple"
        },
        {
          "components": [
            {
              "internalType": "uint256",
              "name": "state",
              "type": "uint256"
            },
            {
              "internalType": "uint256",
              "name": "claimsRoot",
              "type": "uint256"
            },
            {
              "internalType": "uint256",
              "name": "revocationsRoot",
              "type": "uint256"
            },
            {
              "internalType": "uint256",
              "name": "rootsRoot",
              "type": "uint256"
            }
          ],
          "internalType": "struct IdentityLib.StateInfo",
          "name": "",
          "type": "tuple"
        }
      ],
      "stateMutability": "view",
      "type": "function"
    },
    {
      "inputs": [
        {
          "internalType": "uint256",
          "name": "state",
          "type": "uint256"
        }
      ],
      "name": "getRootsByState",
      "outputs": [
        {
          "components": [
            {
              "internalType": "uint256",
              "name": "claimsRoot",
              "type": "uint256"
            },
            {
              "internalType": "uint256",
              "name": "revocationsRoot",
              "type": "uint256"
            },
            {
              "internalType": "uint256",
              "name": "rootsRoot",
              "type": "uint256"
            }
          ],
          "internalType": "struct IdentityLib.Roots",
          "name": "",
          "type": "tuple"
        }
      ],
      "stateMutability": "view",
      "type": "function"
    },
    {
      "inputs": [],
      "name": "getRootsTreeRoot",
      "outputs": [
        {
          "internalType": "uint256",
          "name": "",
          "type": "uint256"
        }
      ],
      "stateMutability": "view",
      "type": "function"
    },
    {
      "inputs": [],
      "name": "getSigners",
      "outputs": [
        {
          "internalType": "address[]",
          "name": "",
          "type": "address[]"
        }
      ],
      "stateMutability": "view",
      "type": "function"
    },
    {
      "inputs": [],
      "name": "getSmtDepth",
      "outputs": [
        {
          "internalType": "uint256",
          "name": "",
          "type": "uint256"
        }
      ],
      "stateMutability": "pure",
      "type": "function"
    },
    {
      "inputs": [],
      "name": "getTemplateRoot",
      "outputs": [
        {
          "internalType": "uint256",
          "name": "",
          "type": "uint256"
        }
      ],
      "stateMutability": "view",
      "type": "function"
    },
    {
      "inputs": [
        {
          "internalType": "address",
          "name": "_stateContractAddr",
          "type": "address"
        },
        {
          "internalType": "bytes2",
          "name": "idType",
          "type": "bytes2"
        }
      ],
      "name": "initialize",
      "outputs": [],
      "stateMutability": "nonpayable",
      "type": "function"
    },
    {
      "inputs": [
        {
          "internalType": "uint256",
          "name": "expirationTime",
          "type": "uint256"
        },
        {
          "internalType": "uint256",
          "name": "templateRoot",
          "type": "uint256"
        },
        {
          "internalType": "string[]",
          "name": "credentialCircuitIds",
          "type": "string[]"
        },
        {
          "internalType": "address[]",
          "name": "credentialVerifierAddresses",
          "type": "address[]"
        },
        {
          "internalType": "address[]",
          "name": "signers",
          "type": "address[]"
        },
        {
          "internalType": "address",
          "name": "stateAddress",
          "type": "address"
        },
        {
          "internalType": "bytes2",
          "name": "idType",
          "type": "bytes2"
        },
        {
          "internalType": "address",
          "name": "owner",
          "type": "address"
        }
      ],
      "name": "initialize",
      "outputs": [],
      "stateMutability": "nonpayable",
      "type": "function"
    },
    {
      "inputs": [
        {
          "internalType": "uint256",
          "name": "nullifier",
          "type": "uint256"
        }
      ],
      "name": "nullifierExists",
      "outputs": [
        {
          "internalType": "bool",
          "name": "",
          "type": "bool"
        }
      ],
      "stateMutability": "view",
      "type": "function"
    },
    {
      "inputs": [],
      "name": "owner",
      "outputs": [
        {
          "internalType": "address",
          "name": "",
          "type": "address"
        }
      ],
      "stateMutability": "view",
      "type": "function"
    },
    {
      "inputs": [],
      "name": "pendingOwner",
      "outputs": [
        {
          "internalType": "address",
          "name": "",
          "type": "address"
        }
      ],
      "stateMutability": "view",
      "type": "function"
    },
    {
      "inputs": [],
      "name": "renounceOwnership",
      "outputs": [],
      "stateMutability": "nonpayable",
      "type": "function"
    },
    {
      "inputs": [
        {
          "internalType": "uint256",
          "name": "expirationTime",
          "type": "uint256"
        }
      ],
      "name": "setExpirationTime",
      "outputs": [],
      "stateMutability": "nonpayable",
      "type": "function"
    },
    {
      "inputs": [
        {
          "internalType": "uint256",
          "name": "templateRoot",
          "type": "uint256"
        }
      ],
      "name": "setTemplateRoot",
      "outputs": [],
      "stateMutability": "nonpayable",
      "type": "function"
    },
    {
      "inputs": [
        {
          "components": [
            {
              "internalType": "uint64",
              "name": "requestId",
              "type": "uint64"
            },
            {
              "internalType": "bytes",
              "name": "zkProof",
              "type": "bytes"
            },
            {
              "internalType": "bytes",
              "name": "data",
              "type": "bytes"
            }
          ],
          "internalType": "struct IZKPVerifier.ZKPResponse[]",
          "name": "responses",
          "type": "tuple[]"
        },
        {
          "internalType": "bytes",
          "name": "crossChainProofs",
          "type": "bytes"
        }
      ],
      "name": "submitZKPResponseV2",
      "outputs": [],
      "stateMutability": "nonpayable",
      "type": "function"
    },
    {
      "inputs": [
        {
          "internalType": "bytes4",
          "name": "interfaceId",
          "type": "bytes4"
        }
      ],
      "name": "supportsInterface",
      "outputs": [
        {
          "internalType": "bool",
          "name": "",
          "type": "bool"
        }
      ],
      "stateMutability": "view",
      "type": "function"
    },
    {
      "inputs": [
        {
          "internalType": "address",
          "name": "newOwner",
          "type": "address"
        }
      ],
      "name": "transferOwnership",
      "outputs": [],
      "stateMutability": "nonpayable",
      "type": "function"
    },
    {
      "inputs": [
        {
          "internalType": "string[]",
          "name": "circuitIds",
          "type": "string[]"
        },
        {
          "internalType": "address[]",
          "name": "verifierAddresses",
          "type": "address[]"
        }
      ],
      "name": "updateCredentialVerifiers",
      "outputs": [],
      "stateMutability": "nonpayable",
      "type": "function"
    }
  ],
  "bytecode": "0x6080806040523460d2577ff0c57e16840df040f15088dc2f81fe391c3923bec73e23a9662efc9c229c6a005460ff8160401c1660c1576002600160401b03196001600160401b03821601605c575b60405161390690816100d88239f35b6001600160401b0319166001600160401b039081177ff0c57e16840df040f15088dc2f81fe391c3923bec73e23a9662efc9c229c6a005581527fc7f505b2f371ae2175ee4913f4499e1f2633a7b5936321eed1cdaeb6115181d290602090a13880604d565b63f92ee8a960e01b60005260046000fd5b600080fdfe6080604052600436101561001257600080fd5b6000803560e01c90816233058d1461242557816301c85c77146123bf57816301ffc9a714612369578163110c96a71461230a57816326485063146122755781632afab62f1461223a5781632c1d3204146122105781632d5c4f251461218a578163310d0d5b146121045781633d59ec60146120c85781633df432fc1461202b5781633f0c664814612010578163406e8b4c14611fda578163443d753414611f52578163523b813614611f165781635d1ca63114611eec578163715018a614611e6c57816379ba509714611e1f57816384b0196e14611cd25781638da5cb5b14611c9d57816394cf795e14611bd25781639674cfa414611b96578163a635c78514611b6c578163aad7292114611b29578163acb8cc4914610223578163ade09fcd1461109a578163b354c2d814611040578163b37feda414610f83578163b57a40cb14610efe578163b8db687114610e34578163badf055d14610dd2578163c0cc365d14610d78578163c1e3273314610cf2578163c6365a3b14610cb6578163cfa350c814610c5a578163d622ea6e14610bfd578163d94b027114610b57578163da68a0b114610aac578163da93654014610a72578163e23a845a14610a48578163e26ecb0b14610978578163e30c397814610943578163e8906a2d146108ff578163ef801d63146102f3578163f2fde38b1461026c578163f84c7c1e14610228575063ffa1ad741461022357600080fd5b6127b1565b34610269578060031936011261026957602060ff7f3018a310c36c4f8228f09bf3b1822685cf0971daa8265a58ca807c4a4daba40254166040519015158152f35b80fd5b34610269576020366003190112610269576102856125ff565b61028d612ffb565b6000805160206138b183398151915280546001600160a01b0319166001600160a01b039283169081179091556000805160206137f1833981519152549091167f38d16b8cac22d99fc7c124b9cd0de2d3fa1faef420bfe791d8c362d765e227008380a380f35b3461026957610100366003190112610269576044356001600160401b0381116108fb576103249036906004016127ff565b6064929192356001600160401b0381116108f7576103469036906004016127ff565b906084356001600160401b0381116108f3576103669036906004016127ff565b909560a43594916001600160a01b03861686036108ef5760c4356001600160f01b0319811681036108eb5760e435906001600160a01b038216908183036108e757600080516020613871833981519152549860ff8a60401c1615996001600160401b038116801590816108df575b60011490816108d5575b1590816108cc575b506108bd5767ffffffffffffffff1981166001176000805160206138718339815191525561041c9291908b610890575b50612a42565b6104246134df565b61042c6134df565b1561087c5761043a90613031565b600435600080516020613831833981519152556024356000805160206138518339815191525560016000805160206137718339815191525561047a61278e565b976040516104896040826126e0565b601081526f50617373706f7274497373756572563160801b60208201526104ae6134df565b6104b66134df565b8051906001600160401b038211610868576104df6000805160206137d183398151915254612d58565b601f81116107f8575b50602090601f83116001146107795761051992918b918361076e575b50508160011b916000199060031b1c19161790565b6000805160206137d1833981519152555b88516001600160401b03811161075a5761055260008051602061381183398151915254612d58565b601f81116106ea575b506020601f821160011461066257816105f1949392610595928c9d6105f69c9d926106575750508160011b916000199060031b1c19161790565b600080516020613811833981519152555b897fa16a46d94261c7517cc8ff89f61c0ce93598e3c849801011dee649a6a557d10055897fa16a46d94261c7517cc8ff89f61c0ce93598e3c849801011dee649a6a557d1015561343f565b61313c565b6105fd5780f35b68ff0000000000000000196000805160206138718339815191525416600080516020613871833981519152557fc7f505b2f371ae2175ee4913f4499e1f2633a7b5936321eed1cdaeb6115181d2602060405160018152a180f35b015190508d80610504565b6000805160206138118339815191528a52808a209a601f1983168b5b8181106106d257509b60019284926105f19796956105f69d9e9f106106b9575b505050811b01600080516020613811833981519152556105a6565b015160001960f88460031b161c191690558c808061069e565b838301518e556001909d019c6020938401930161067e565b6000805160206138118339815191528a527f5f9ce34815f8e11431c7bb75a8e6886a91478f7ffc1dbb0a98dc240fddd76b75601f830160051c81019160208410610750575b601f0160051c01905b818110610745575061055b565b8a8155600101610738565b909150819061072f565b634e487b7160e01b89526041600452602489fd5b015190508c80610504565b6000805160206137d18339815191528b52818b209190601f1984168c5b8181106107e057509084600195949392106107c7575b505050811b016000805160206137d18339815191525561052a565b015160001960f88460031b161c191690558b80806107ac565b92936020600181928786015181550195019301610796565b6000805160206137d18339815191528b527f42ad5d3e1f2e6e70edcf6d991b8a3023d3fca8047a131592f9edb9fd9b89d57d601f840160051c8101916020851061085e575b601f0160051c01905b81811061085357506104e8565b8b8155600101610846565b909150819061083d565b634e487b7160e01b8a52604160045260248afd5b631e4fbdf760e01b88526004889052602488fd5b68ffffffffffffffffff19166801000000000000000117600080516020613871833981519152558d610416565b63f92ee8a960e01b8c5260048cfd5b9050158e6103e6565b303b1591506103de565b8c91506103d4565b8980fd5b8780fd5b8680fd5b8480fd5b8280fd5b5080fd5b34610269576020366003190112610269576004356001600160401b0381116108fb576109326109409136906004016127ff565b9061093b612ffb565b61343f565b80f35b346102695780600319360112610269576000805160206138b1833981519152546040516001600160a01b039091168152602090f35b34610269576040366003190112610269576109916124bc565b61099961282f565b506001600160401b0360405191630b2bcd1b60e11b835260008051602061389183398151915260048401521660248201526024356044820152818160648173__$068aad146bf104111ba65c4a1de2cd0e23$__5af4908115610a3d5782610a169392610a1a575b50506040519182916020835260208301906124d2565b0390f35b610a3692503d8091833e610a2e81836126e0565b810190612a1d565b8280610a00565b6040513d84823e3d90fd5b34610269578060031936011261026957602060008051602061383183398151915254604051908152f35b3461026957806003193601126102695760206040517f0d2a15c3140485b6db2a8c0f755486294daaae1eabcdd518f6beaf8e4ab4d8348152f35b34610269578060031936011261026957604051631e75e7f360e01b815260008051602061389183398151915260048201529060208260248173__$068aad146bf104111ba65c4a1de2cd0e23$__5af4908115610b4b5790610b13575b602090604051908152f35b506020813d602011610b43575b81610b2d602093836126e0565b81010312610b3e5760209051610b08565b600080fd5b3d9150610b20565b604051903d90823e3d90fd5b3461026957602036600319011261026957600435610b73612ffb565b8082526000805160206137b183398151915260205260ff60408320541615610bb85781526000805160206137b183398151915260205260408120805460ff1916905580f35b60405162461bcd60e51b815260206004820152601860248201527f4e756c6c696669657220646f6573206e6f7420657869737400000000000000006044820152606490fd5b3461026957602036600319011261026957610c466040610a169260043581527fd64ab600136c76c630ed81a54cc1acbcc213dadb956fdd8687dc5ebb0bb5f50460205220612f14565b604051918291602083526020830190612638565b3461026957610c8460208092610c6f36612753565b90508160405193828580945193849201612615565b81017fd64ab600136c76c630ed81a54cc1acbcc213dadb956fdd8687dc5ebb0bb5f50581520301902054604051908152f35b3461026957806003193601126102695760207f3018a310c36c4f8228f09bf3b1822685cf0971daa8265a58ca807c4a4daba49c54604051908152f35b3461026957602036600319011261026957610d0b61282f565b506040516397ac539160e01b815260008051602061389183398151915260048201526004356024820152818160448173__$068aad146bf104111ba65c4a1de2cd0e23$__5af4908115610a3d5782610a169392610a1a5750506040519182916020835260208301906124d2565b34610269576020366003190112610269577f7f7f3071c3c286700c199acae2fe071beb4a63dae1afff85186fa75d18090ae86020600435610db7612ffb565b8060008051602061383183398151915255604051908152a180f35b34610269576040366003190112610269576004356001600160401b0381116108fb57610e029036906004016127ff565b602435916001600160401b038311610e3057610e256109409336906004016127ff565b9290916105f1612ffb565b8380fd5b34610269576020366003190112610269578060408051610e538161265d565b8281528260208201520152604051630b1a9cd360e01b81526000805160206138918339815191526004820152600435602482015260608160448173__$068aad146bf104111ba65c4a1de2cd0e23$__5af4908115610a3d5760609291610ed1575b506040805191805183526020810151602084015201516040820152f35b610ef19150823d8411610ef7575b610ee981836126e0565b810190612b22565b82610eb4565b503d610edf565b3461026957602036600319011261026957610f1761282f565b50604051620cf08960e41b815260008051602061389183398151915260048201526004356024820152818160448173__$068aad146bf104111ba65c4a1de2cd0e23$__5af4908115610a3d5782610a169392610a1a5750506040519182916020835260208301906124d2565b3461026957602036600319011261026957610f9c61282f565b50610fa561286d565b5060405190636ad1d8a760e11b825260008051602061389183398151915260048301526004356024830152808260448173__$068aad146bf104111ba65c4a1de2cd0e23$__5af49182156110335781809361100c575b5050610a166040519283928361255f565b90915061102b92503d8091833e61102381836126e0565b81019061298d565b908280610ffb565b50604051903d90823e3d90fd5b34610269576020366003190112610269577ff007a02ba428e63fa98b65269e70f9a9db847e0a839049a2f31f069282267734602060043561107f612ffb565b8060008051602061385183398151915255604051908152a180f35b3461026957604036600319011261026957600435906001600160401b03821161026957366023830112156102695781600401356110d6816127cd565b926110e460405194856126e0565b8184526024602085019260051b82010190368211610e305760248101925b828410611a855785856024356001600160401b0381116108fb5761112a9036906004016127e4565b91805160018103611a6e57506001600160401b0361114782612d35565b51511682527fd64ab600136c76c630ed81a54cc1acbcc213dadb956fdd8687dc5ebb0bb5f50460205261117c60408320612f14565b90815115611a485761118f602091612d35565b51015180518101906101208160208401930312610e305760208101516001600160401b0381116108f3578260206111c89284010161289f565b946111d68360408401612fb6565b9083609f84011215611a44576040938451936111f286866126e0565b846101008201918383116108e7576080889101915b838310611a2a575050509061121b91612fb6565b9084519760c089018981106001600160401b0382111761075a57865261124081612d35565b518952805160011015611a16578581015160208a0152805160021015611a16576060810151868a0152805160031015611a1657608081015160608a0152805160041015611a165760a081015160808a0152805160051015611a165760c0015160a08901528451926112b08461268e565b83526020830193845284830191825260608301978852805181016020810191602081830312611a12576020810151906001600160401b0382116108e7570182603f82011215611a12576020810151611307816127cd565b93611314895195866126e0565b8185526020808087019360051b8501010192818411611a0e57898101925b8484106119365750505050505061134890612d35565b51946001600160a01b039061135c90612add565b54169182156119275751925190518751855163f398789b60e01b81529485939192919061138d9060048601906134b7565b8887604486015b6002831061190157505050506113ae9060c48401906134b7565b8661010483015b600682106118e7575050506101c4816020935afa9081156118dd5784916118a3575b5015611895576114b5825160426020850151916020815191015185519060208201927f0d2a15c3140485b6db2a8c0f755486294daaae1eabcdd518f6beaf8e4ab4d8348452878301526060820152606081526114346080826126e0565b51902061143f6136c1565b61144761372b565b86519060208201927f8b73c3c69bb8fe3d512ecc4cf759cc79239f7b179b0ffacaa9a75d522b39400f84528883015260608201524660808201523060a082015260a0815261149660c0826126e0565b5190209085519161190160f01b835260028301526022820152206135fc565b50600481101561188157611872576001600160a01b03168084527fd64ab600136c76c630ed81a54cc1acbcc213dadb956fdd8687dc5ebb0bb5f50860205281842054156118605750835151936020815101519260808251015190606083510151908460a085510151945101519051936020850151945190891561184c57871561183857600080516020613851833981519152549081810361182357505081810361180b5750506207a1208111156117e857630121eac081018082116117d4575b62093a7f1942014281116117c05762015180900462023ab162264965820160021b0590600460038362023ab10201059003906226496562164b09622649668401610fa00205926004846105b5020590030161098f601f82016050020592600b840590600282600c02860301936030190160640201019261271084029380850461271014901517156117ac576064830292808404606414901517156117ac5791601f61162f926050611634969561098f02059003019261350d565b61350d565b1161179a575042611654600080516020613831833981519152548361350d565b1061178957508084526000805160206137b183398151915260205260ff82852054166117775783526000805160206137b1833981519152602052808320805460ff1916600117905573__$068aad146bf104111ba65c4a1de2cd0e23$__91823b15610e30578151946306fb157560e01b86526000805160206138918339815191526004870152602486015260448501528284606481855af4801561176d57611758575b829350813b15611754578260249282519384809263175ba3e960e11b825260008051602061389183398151915260048301525af490811561174b575061173a5750f35b81611744916126e0565b6102695780f35b513d84823e3d90fd5b5050fd5b91909281611765916126e0565b9082906116f7565b81513d85823e3d90fd5b635377438b60e11b8452600452602483fd5b62bd09f160e11b8552600452602484fd5b635d5e30bf60e01b8652600452602485fd5b634e487b7160e01b8b52601160045260248bfd5b634e487b7160e01b88526011600452602488fd5b634e487b7160e01b87526011600452602487fd5b6301312d0081018082111561157557634e487b7160e01b87526011600452602487fd5b6001621d0d8360e21b03198852600452602452604486fd5b63e748379160e01b8a52600452602452604488fd5b634bdc991b60e11b89526004889052602489fd5b631b1aad8760e11b895260048a9052602489fd5b631432861160e31b8452600452602483fd5b63df2b56ff60e01b8452600484fd5b634e487b7160e01b85526021600452602485fd5b6281723b60e21b8352600483fd5b90506020813d6020116118d5575b816118be602093836126e0565b81010312610e30576118cf90612892565b856113d7565b3d91506118b1565b82513d86823e3d90fd5b8293506020809160019394518152019301910184926113b5565b8394959650908161191860209360019596516134b7565b01930191018787959493611394565b6301dcf1ab60e31b8752600487fd5b83516001600160401b038111611a0a578201808703601f19019060200160608212611a02578c805192611968846126a9565b12611a02578c51611978816126a9565b602082015181528d820151602082015282526060810151906001600160401b038211611a065790602091010184601f82011215611a025780518d916119c86119bf83612701565b935193846126e0565b81835286602083830101116119fd57916119ee6020959392869593868085019101612615565b83820152815201930192611332565b508f80fd5b8e80fd5b8f80fd5b8d80fd5b8b80fd5b8880fd5b634e487b7160e01b88526032600452602488fd5b602090611a378685612fb6565b8152019101908790611207565b8580fd5b826001600160401b03611a5c602493612d35565b515163ea99bbcd60e01b835216600452fd5b630264a11560e21b83526004526001602452604482fd5b83356001600160401b038111611a4457820160606023198236030112611a445760405190611ab28261265d565b60248101356001600160401b03811681036108eb57825260448101356001600160401b0381116108eb57611aec90602436918401016127e4565b602083015260648101356001600160401b0381116108eb5791611b196020949260248695369201016127e4565b6040820152815201930192611102565b3461026957606036600319011261026957604435906001600160401b038216820361026957610a16611b6083602435600435612b53565b604051918291826125a0565b346102695760206001600160a01b03611b8c611b8736612753565b612add565b5416604051908152f35b3461026957806003193601126102695760207f3018a310c36c4f8228f09bf3b1822685cf0971daa8265a58ca807c4a4daba49b54604051908152f35b346102695780600319360112610269576040516000805160206137918339815191528054808352908352602082019081907f2d1221f3b50c4fa9e819d9409efdaee3e42b3167fda085f88cca66da2b6f319f90855b818110611c875750505082611c3d9103836126e0565b604051928392602084019060208552518091526040840192915b818110611c65575050500390f35b82516001600160a01b0316845285945060209384019390920191600101611c57565b8254845260209093019260019283019201611c27565b346102695780600319360112610269576000805160206137f1833981519152546040516001600160a01b039091168152602090f35b346102695780600319360112610269577fa16a46d94261c7517cc8ff89f61c0ce93598e3c849801011dee649a6a557d100541580611df6575b15611db957611d5d90611d1c612d92565b90611d25612e63565b906020611d6b60405193611d3983866126e0565b83855283368137604051968796600f60f81b885260e08589015260e0880190612638565b908682036040880152612638565b904660608601523060808601528260a086015284820360c08601528080855193848152019401925b828110611da257505050500390f35b835185528695509381019392810192600101611d93565b60405162461bcd60e51b81526020600482015260156024820152741152540dcc4c8e88155b9a5b9a5d1a585b1a5e9959605a1b6044820152606490fd5b507fa16a46d94261c7517cc8ff89f61c0ce93598e3c849801011dee649a6a557d1015415611d0b565b346102695780600319360112610269576000805160206138b183398151915254336001600160a01b0390911603611e595761094033613031565b63118cdaa760e01b815233600452602490fd5b34610269578060031936011261026957611e84612ffb565b6000805160206138b183398151915280546001600160a01b03199081169091556000805160206137f18339815191528054918216905581906001600160a01b03167f8be0079c531659141344cd1fd0a4f28419497f9722a3daafe3b4186f6b6457e08280a380f35b34610269578060031936011261026957602060008051602061389183398151915254604051908152f35b3461026957806003193601126102695760207f3018a310c36c4f8228f09bf3b1822685cf0971daa8265a58ca807c4a4daba49a54604051908152f35b3461026957602036600319011261026957611f6b61282f565b50611f7461286d565b506040519063a3018d7960e01b825260008051602061389183398151915260048301526004356024830152808260448173__$068aad146bf104111ba65c4a1de2cd0e23$__5af49182156110335781809361100c575050610a166040519283928361255f565b3461026957604036600319011261026957611ff36125ff565b6024356001600160f01b0319811681036108f75761094091612a42565b34610269578060031936011261026957602060405160288152f35b34610269578060031936011261026957604051631b8bf99b60e21b8152600080516020613891833981519152600482015260208160248173__$068aad146bf104111ba65c4a1de2cd0e23$__5af4908115610a3d578291612092575b602082604051908152f35b90506020813d6020116120c0575b816120ad602093836126e0565b810103126108fb57602091505182612087565b3d91506120a0565b3461026957806003193601126102695760207f3018a310c36c4f8228f09bf3b1822685cf0971daa8265a58ca807c4a4daba40154604051908152f35b3461026957612112366125e9565b61211a61282f565b5060405191636ac0c5c760e11b8352600080516020613891833981519152600484015260248301526044820152818160648173__$068aad146bf104111ba65c4a1de2cd0e23$__5af4908115610a3d5782610a169392610a1a5750506040519182916020835260208301906124d2565b3461026957612198366125e9565b6121a061282f565b506040519163d55da6a360e01b8352600080516020613891833981519152600484015260248301526044820152818160648173__$068aad146bf104111ba65c4a1de2cd0e23$__5af4908115610a3d5782610a169392610a1a5750506040519182916020835260208301906124d2565b34610269578060031936011261026957602060008051602061385183398151915254604051908152f35b346102695760203660031901126102695760ff604060209260043581526000805160206137b183398151915284522054166040519015158152f35b346102695760203660031901126102695761228e6124bc565b61229661282f565b506001600160401b0360405191637d0aba4f60e01b83526000805160206138918339815191526004840152166024820152818160448173__$068aad146bf104111ba65c4a1de2cd0e23$__5af4908115610a3d5782610a169392610a1a5750506040519182916020835260208301906124d2565b3461026957604036600319011261026957602435906001600160401b038216820361026957610a16611b608361233e6129f6565b507f3018a310c36c4f8228f09bf3b1822685cf0971daa8265a58ca807c4a4daba40154600435612b53565b346102695760203660031901126102695760043563ffffffff60e01b81168091036108fb57602090635d1ca63160e01b81149081156123ae575b506040519015158152f35b6301ffc9a760e01b149050826123a3565b3461026957806003193601126102695760405163765c2c6160e01b8152600080516020613891833981519152600482015260208160248173__$068aad146bf104111ba65c4a1de2cd0e23$__5af4908115610a3d57829161209257602082604051908152f35b346102695760203660031901126102695761243e6124bc565b9061244761282f565b5061245061286d565b506001600160401b0360405192631f17004d60e31b84526000805160206138918339815191526004850152166024830152808260448173__$068aad146bf104111ba65c4a1de2cd0e23$__5af49182156110335781809361100c575050610a166040519283928361255f565b600435906001600160401b0382168203610b3e57565b9061010081019180518252602081015115156020830152604081015192610100604084015283518091526020610120840194019060005b8181106125495750505060e08160608293015160608501526080810151608085015260a0810151151560a085015260c081015160c0850152015191015290565b8251865260209586019590920191600101612509565b9291602061257861259e9360a0875260a08701906124d2565b940190606080918051845260208101516020850152604081015160408501520151910152565b565b60c060206125e6938184526125d68285018251606080918051845260208101516020850152604081015160408501520151910152565b01519160a08082015201906124d2565b90565b6040906003190112610b3e576004359060243590565b600435906001600160a01b0382168203610b3e57565b60005b8381106126285750506000910152565b8181015183820152602001612618565b9060209161265181518092818552858086019101612615565b601f01601f1916010190565b606081019081106001600160401b0382111761267857604052565b634e487b7160e01b600052604160045260246000fd5b608081019081106001600160401b0382111761267857604052565b604081019081106001600160401b0382111761267857604052565b61010081019081106001600160401b0382111761267857604052565b90601f801991011681019081106001600160401b0382111761267857604052565b6001600160401b03811161267857601f01601f191660200190565b92919261272882612701565b9161273660405193846126e0565b829481845281830111610b3e578281602093846000960137010152565b6020600319820112610b3e57600435906001600160401b038211610b3e5780602383011215610b3e578160246125e69360040135910161271c565b6040519061279d6040836126e0565b60058252640312e302e360dc1b6020830152565b34610b3e576000366003190112610b3e57610a16610c4661278e565b6001600160401b0381116126785760051b60200190565b9080601f83011215610b3e578160206125e69335910161271c565b9181601f84011215610b3e578235916001600160401b038311610b3e576020808501948460051b010111610b3e57565b6040519061283c826126c4565b600060e083828152826020820152606060408201528260608201528260808201528260a08201528260c08201520152565b6040519061287a8261268e565b60006060838281528260208201528260408201520152565b51908115158203610b3e57565b9080601f83011215610b3e5781516128b6816127cd565b926128c460405194856126e0565b81845260208085019260051b820101928311610b3e57602001905b8282106128ec5750505090565b81518152602091820191016128df565b91909161010081840312610b3e5760405190612917826126c4565b81938151835261292960208301612892565b60208401526040820151916001600160401b038311610b3e5761295260e093928493830161289f565b6040850152606081015160608501526080810151608085015261297760a08201612892565b60a085015260c081015160c08501520151910152565b808203929160a08412610b3e5781516001600160401b038111610b3e576080916129b89184016128fc565b93601f190112610b3e576080604051916129d18361268e565b6020810151835260408101516020840152606081015160408401520151606082015290565b60405190612a03826126a9565b81612a0c61286d565b81526020612a1861282f565b910152565b90602082820312610b3e5781516001600160401b038111610b3e576125e692016128fc565b73__$068aad146bf104111ba65c4a1de2cd0e23$__91823b15610b3e576040516359a6069160e01b815260008051602061389183398151915260048201526001600160a01b039092166024830152306044830152602860648301526001600160f01b031916608482015290600090829060a49082905af48015612ad157612ac65750565b600061259e916126e0565b6040513d6000823e3d90fd5b6020612af6918160405193828580945193849201612615565b81017fd64ab600136c76c630ed81a54cc1acbcc213dadb956fdd8687dc5ebb0bb5f50381520301902090565b90816060910312610b3e576040805191612b3b8361265d565b80518352602081015160208401520151604082015290565b919091612b5e6129f6565b506000805160206138918339815191525403612cf95773__$068aad146bf104111ba65c4a1de2cd0e23$__90604051630b1a9cd360e01b81526000805160206138918339815191526004820152836024820152606081604481865af4908115612ad1576000926001600160401b03926064928591612cda575b5060408101516020825192019182519060405199612bf48b61268e565b8a5260208a01526040890152606088015251946040519586948593630b2bcd1b60e11b8552600080516020613891833981519152600486015216602484015260448301525af4908115612ad157600091612cc1575b5080519060208101511515906040810151606082015160808301519060a084015115159260e060c08601519501519560405197612c85896126c4565b8852602088015260408701526060860152608085015260a084015260c083015260e082015260405191612cb7836126a9565b8252602082015290565b612cd4913d8091833e610a2e81836126e0565b38612c49565b612cf3915060603d606011610ef757610ee981836126e0565b38612bd7565b60405162461bcd60e51b8152602060048201526014602482015273092c8cadce8d2e8f240d2c840dad2e6dac2e8c6d60631b6044820152606490fd5b805115612d425760200190565b634e487b7160e01b600052603260045260246000fd5b90600182811c92168015612d88575b6020831014612d7257565b634e487b7160e01b600052602260045260246000fd5b91607f1691612d67565b604051906000826000805160206137d18339815191525491612db383612d58565b8083529260018116908115612e445750600114612dd7575b61259e925003836126e0565b506000805160206137d1833981519152600090815290917f42ad5d3e1f2e6e70edcf6d991b8a3023d3fca8047a131592f9edb9fd9b89d57d5b818310612e2857505090602061259e92820101612dcb565b6020919350806001915483858901015201910190918492612e10565b6020925061259e94915060ff191682840152151560051b820101612dcb565b604051906000826000805160206138118339815191525491612e8483612d58565b8083529260018116908115612e445750600114612ea75761259e925003836126e0565b50600080516020613811833981519152600090815290917f5f9ce34815f8e11431c7bb75a8e6886a91478f7ffc1dbb0a98dc240fddd76b755b818310612ef857505090602061259e92820101612dcb565b6020919350806001915483858901015201910190918492612ee0565b9060405191826000825492612f2884612d58565b8084529360018116908115612f945750600114612f4d575b5061259e925003836126e0565b90506000929192526020600020906000915b818310612f7857505090602061259e9282010138612f40565b6020919350806001915483858901015201910190918492612f5f565b90506020925061259e94915060ff191682840152151560051b82010138612f40565b9080601f83011215610b3e576040805192612fd182856126e0565b83918101928311610b3e57905b828210612feb5750505090565b8151815260209182019101612fde565b6000805160206137f1833981519152546001600160a01b0316330361301c57565b63118cdaa760e01b6000523360045260246000fd5b6000805160206138b183398151915280546001600160a01b03199081169091556000805160206137f183398151915280549182166001600160a01b0393841690811790915591167f8be0079c531659141344cd1fd0a4f28419497f9722a3daafe3b4186f6b6457e0600080a3565b9190811015612d425760051b0190565b356001600160a01b0381168103610b3e5790565b9190811015612d425760051b81013590601e1981360301821215610b3e5701908135916001600160401b038311610b3e576020018236038113610b3e579190565b60209082604051938492833781017fd64ab600136c76c630ed81a54cc1acbcc213dadb956fdd8687dc5ebb0bb5f50581520301902090565b929091928183036134265760005b838110613158575050505050565b61316b61316682858861309f565b6130af565b60206131788387866130c3565b919082604051938492833781017fd64ab600136c76c630ed81a54cc1acbcc213dadb956fdd8687dc5ebb0bb5f5038152030190209060018060a01b03166bffffffffffffffffffffffff60a01b82541617905582856131e16131db8488876130c3565b90613104565b5486811561326f575b7f17b20bbf8df0ff1422db2abe4b28c298e32929a2d112f027c3f68d488cf3cf74928580959361322f61316661322560019a6080978d6130c3565b978895919661309f565b60405195869460608652816060870152868601376000858486010152888060a01b031660208401526040830152601f80199101168101030190a10161314a565b505050506000805160206137718339815191525490816132936131db8388876130c3565b5561329f8186856130c3565b836000527fd64ab600136c76c630ed81a54cc1acbcc213dadb956fdd8687dc5ebb0bb5f5046020526040600020916001600160401b038211612678576132e58354612d58565b601f81116133de575b50600090601f831160011461337a5761331f92916000918361336f5750508160011b916000199060031b1c19161790565b90555b60008051602061377183398151915254600019811461335957600101600080516020613771833981519152559083908690866131ea565b634e487b7160e01b600052601160045260246000fd5b013590503880610504565b8382526020822091601f198416815b8181106133c657509084600195949392106133ac575b505050811b019055613322565b0135600019600384901b60f8161c1916905538808061339f565b91936020600181928787013581550195019201613389565b836000526020600020601f840160051c8101916020851061341c575b601f0160051c01905b81811061341057506132ee565b60008155600101613403565b90915081906133fa565b50906355c5b3e360e11b60005260045260245260446000fd5b9060005b81811061344f57505050565b6001906134716001600160a01b0361346b61316684878961309f565b1661351a565b507f47d1c22a25bb3a5d4e481b9b1e6944c2eade3181a0a20b495ed61d35b5323f2460206134a361316684878961309f565b60405190858060a01b03168152a101613443565b906000905b600282106134c957505050565b60208060019285518152019301910190916134bc565b60ff6000805160206138718339815191525460401c16156134fc57565b631afcd79f60e31b60005260046000fd5b9190820180921161335957565b806000527fd64ab600136c76c630ed81a54cc1acbcc213dadb956fdd8687dc5ebb0bb5f508602052604060002054156000146135f657600080516020613791833981519152546801000000000000000081101561267857600181018060008051602061379183398151915255811015612d42577f2d1221f3b50c4fa9e819d9409efdaee3e42b3167fda085f88cca66da2b6f319f018190556000805160206137918339815191525460009182527fd64ab600136c76c630ed81a54cc1acbcc213dadb956fdd8687dc5ebb0bb5f508602052604090912055600190565b50600090565b815191906041830361362d5761362692506020820151906060604084015193015160001a90613638565b9192909190565b505060009160029190565b91907f7fffffffffffffffffffffffffffffff5d576e7357a4501ddfe92f46681b20a084116136b5579160209360809260ff60009560405194855216868401526040830152606082015282805260015afa15612ad1576000516001600160a01b038116156136a95790600090600090565b50600090600190600090565b50505060009160039190565b6136c9612d92565b80519081156136d9576020012090565b50507fa16a46d94261c7517cc8ff89f61c0ce93598e3c849801011dee649a6a557d1005480156137065790565b507fc5d2460186f7233c927e7db2dcc703c0e500b653ca82273b7bfad8045d85a47090565b613733612e63565b8051908115613743576020012090565b50507fa16a46d94261c7517cc8ff89f61c0ce93598e3c849801011dee649a6a557d101548015613706579056fed64ab600136c76c630ed81a54cc1acbcc213dadb956fdd8687dc5ebb0bb5f506d64ab600136c76c630ed81a54cc1acbcc213dadb956fdd8687dc5ebb0bb5f507d64ab600136c76c630ed81a54cc1acbcc213dadb956fdd8687dc5ebb0bb5f502a16a46d94261c7517cc8ff89f61c0ce93598e3c849801011dee649a6a557d1029016d09d72d40fdae2fd8ceac6b6234c7706214fd39c1cd1e609a0528c199300a16a46d94261c7517cc8ff89f61c0ce93598e3c849801011dee649a6a557d103d64ab600136c76c630ed81a54cc1acbcc213dadb956fdd8687dc5ebb0bb5f500d64ab600136c76c630ed81a54cc1acbcc213dadb956fdd8687dc5ebb0bb5f501f0c57e16840df040f15088dc2f81fe391c3923bec73e23a9662efc9c229c6a003018a310c36c4f8228f09bf3b1822685cf0971daa8265a58ca807c4a4daba400237e158222e3e6968b72b9db0d8043aacf074ad9f650f0d1606b4d82ee432c00a2646970667358221220b519001f4bd1e156dbbdd465bcd1639c71552865ceee249b03c21d2d130a2e8f64736f6c634300081b0033",
  "linkReferences": {
    "@iden3/contracts/lib/IdentityLib.sol": {
      "IdentityLib": [
        {
          "length": 20,
          "start": 2737
        },
        {
          "length": 20,
          "start": 3006
        },
        {
          "length": 20,
          "start": 3604
        },
        {
          "length": 20,
          "start": 3943
        },
        {
          "length": 20,
          "start": 4127
        },
        {
          "length": 20,
          "start": 4271
        },
        {
          "length": 20,
          "start": 6006
        },
        {
          "length": 20,
          "start": 8318
        },
        {
          "length": 20,
          "start": 8508
        },
        {
          "length": 20,
          "start": 8742
        },
        {
          "length": 20,
          "start": 8876
        },
        {
          "length": 20,
          "start": 9126
        },
        {
          "length": 20,
          "start": 9424
        },
        {
          "length": 20,
          "start": 9568
        },
        {
          "length": 20,
          "start": 11036
        },
        {
          "length": 20,
          "start": 11342
        }
      ]
    }
  },
  "deployedLinkReferences": {
    "@iden3/contracts/lib/IdentityLib.sol": {
      "IdentityLib": [
        {
          "length": 20,
          "start": 2521
        },
        {
          "length": 20,
          "start": 2790
        },
        {
          "length": 20,
          "start": 3388
        },
        {
          "length": 20,
          "start": 3727
        },
        {
          "length": 20,
          "start": 3911
        },
        {
          "length": 20,
          "start": 4055
        },
        {
          "length": 20,
          "start": 5790
        },
        {
          "length": 20,
          "start": 8102
        },
        {
          "length": 20,
          "start": 8292
        },
        {
          "length": 20,
          "start": 8526
        },
        {
          "length": 20,
          "start": 8660
        },
        {
          "length": 20,
          "start": 8910
        },
        {
          "length": 20,
          "start": 9208
        },
        {
          "length": 20,
          "start": 9352
        },
        {
          "length": 20,
          "start": 10820
        },
        {
          "length": 20,
          "start": 11126
        }
      ]
    }
  }
}