{
  "_format": "hh-sol-artifact-1",
  "contractName": "SmtLib",
  "sourceName": "@iden3/contracts/lib/SmtLib.sol",
  "abi": [
    {
      "inputs": [],
      "name": "MAX_DEPTH_HARD_CAP",
      "outputs": [
        {
          "internalType": "uint256",
          "name": "",
          "type": "uint256"
        }
      ],
      "stateMutability": "view",
      "type": "function"
    },
    {
      "inputs": [],
      "name": "ROOT_INFO_LIST_RETURN_LIMIT",
      "outputs": [
        {
          "internalType": "uint256",
          "name": "",
          "type": "uint256"
        }
      ],
      "stateMutability": "view",
      "type": "function"
    }
  ],
  "bytecode": "0x60808060405234601b57611bb890816100218239308160080152f35b600080fdfe608080604052307f000000000000000000000000000000000000000000000000000000000000000014600436101561003657600080fd5b60003560e01c91826278f030146107a4575081630912610a1461078c578163138271361461076757816317c850f01461075357816321d60953146106e157816340a73d98146106c95781635db40cda146106a857816362e8f2151461068b578163792a470f1461065c57816379c17a961461063357816379f9712514610612578163893f99f3146105f557816391761b751461053457816392f5b06c146105065781639e43b813146103de578163a751be24146103c6578163c1d29f011461028e57508063dc9a7c8c1461027a578063dea7633a146101b4578063e170cf6e1461014f5763ec1451081461012957600080fd5b602036600319011261014a57602060ff600480350154166040519015158152f35b600080fd5b61016161015b366107c2565b90611063565b6040518151600381101561019e5760a092608091835260208101516020840152604081015160408401526060810151606084015201516080820152f35b634e487b7160e01b600052602160045260246000fd5b6101bd366107c2565b6101c5610aec565b506101e86101e3828460029160005201602052604060002054151590565b610c3c565b600052600281016020526040600020908154906000198201918211610264576102166102239260c094610f89565b90549060031b1c906111f2565b610262604051809260a0809180518452602081015160208501526040810151604085015260608101516060850152608081015160808501520151910152565bf35b634e487b7160e01b600052601160045260246000fd5b60c0610223610288366107c2565b90610fad565b61014a5760006102eb6102a0366107d8565b849294506102b460ff600487015416610ef8565b604051916102c183610a43565b60018352836020840152836040840152606083015260808201526102e484610f3d565b90846112d2565b6001820191604051916102fd83610a5f565b808352602083019242845260408101904382528554600160401b81101561039a5780600161032e9201885587610f6d565b9290926103b0576002958692518455516001840155519101556000520160205260406000209054906000198201918211610264578054600160401b81101561039a5761037f91600182018155610f89565b819291549060031b91821b91600019901b1916179055600080f35b634e487b7160e01b600052604160045260246000fd5b634e487b7160e01b600052600060045260246000fd5b600036600319011261014a5760206040516101008152f35b61014a576103eb366107c2565b90600481019160ff8354166104c1576104049082610906565b604051600182019161041582610a5f565b600082526020820191600083526040810190600082528454600160401b81101561039a578060016104499201875586610f6d565b9290926103b057600294859251845551600184015551910155600080520160205260406000209054906000198201918211610264578054600160401b81101561039a5761049b91600182018155610f89565b815460001960039290921b91821b191692901b919091179055805460ff19166001179055005b60405162461bcd60e51b815260206004820152601a60248201527f536d7420697320616c726561647920696e697469616c697a65640000000000006044820152606490fd5b602061052a610514366107c2565b9060029160005201602052604060002054151590565b6040519015158152f35b608036600319011261014a576004356024356105636101e3828460029160005201602052604060002054151590565b6000526002810160205260406000209061058360643560443584546110f5565b916105966105918385610b9d565b610bc2565b93825b8481106105b257604051806105ae8882610886565b0390f35b806105ee6105d26105c560019486610f89565b90549060031b1c866111f2565b6105dc8784610b9d565b906105e7828b610c12565b5288610c12565b5001610599565b602036600319011261014a57602060036004350154604051908152f35b602036600319011261014a57602061062b600435610f3d565b604051908152f35b6105ae610650610642366107d8565b9161064b610aae565b610c7e565b604051918291826107f2565b6105ae61065061068161066e366107d8565b61067a93919293610aae565b5083610fad565b519161064b610aae565b602036600319011261014a57602060016004350154604051908152f35b6105ae6106506106b7366107c2565b6106bf610aae565b5061064282610f3d565b600036600319011261014a5760206040516103e88152f35b6106fa6106ed366107d8565b90600183949301546110f5565b906107086105918284610b9d565b92815b83811061072057604051806105ae8782610886565b8061074c610730600193856111f2565b61073a8684610b9d565b90610745828a610c12565b5287610c12565b500161070b565b60c0610223610761366107c2565b90610b1d565b6105ae610650610681610779366107d8565b61078593919293610aae565b5083610b1d565b61014a576107a261079c366107c2565b90610906565b005b60209060026107b2366107c2565b6000520182526040600020548152f35b604090600319011261014a576004359060243590565b606090600319011261014a57600435906024359060443590565b6020815261012081019180516020830152602081015115156040830152604081015192610100606084015283518091526020610140840194019060005b8181106108705750505060e08160606101009301516080850152608081015160a085015260a0810151151560c085015260c081015182850152015191015290565b825186526020958601959092019160010161082f565b602060408183019282815284518094520192019060005b8181106108aa5750505090565b909192602060c0826108f1600194885160a0809180518452602081015160208501526040810151604085015260608101516060850152608081015160808501520151910152565b01940192910161089d565b6003111561019e57565b81156109b95760030180548211156109745761010082116109245755565b60405162461bcd60e51b815260206004820152602260248201527f4d61782064657074682069732067726561746572207468616e20686172642063604482015261061760f41b6064820152608490fd5b60405162461bcd60e51b815260206004820152601f60248201527f4d61782064657074682063616e206f6e6c7920626520696e63726561736564006044820152606490fd5b60405162461bcd60e51b815260206004820152602360248201527f4d6178206465707468206d7573742062652067726561746572207468616e207a60448201526265726f60e81b6064820152608490fd5b610100810190811067ffffffffffffffff82111761039a57604052565b60c0810190811067ffffffffffffffff82111761039a57604052565b60a0810190811067ffffffffffffffff82111761039a57604052565b6060810190811067ffffffffffffffff82111761039a57604052565b90601f8019910116810190811067ffffffffffffffff82111761039a57604052565b60405190610aac60a083610a7b565b565b60405190610abb82610a0a565b600060e083828152826020820152606060408201528260608201528260808201528260a08201528260c08201520152565b60405190610af982610a27565b600060a0838281528260208201528260408201528260608201528260808201520152565b90610b26610aec565b50428111610b5857610b5591610b48610b5092610b41610aec565b5082611483565b9290926110bd565b6111f2565b90565b60405162461bcd60e51b815260206004820152601c60248201527f4e6f206675747572652074696d657374616d707320616c6c6f776564000000006044820152606490fd5b9190820391821161026457565b67ffffffffffffffff811161039a5760051b60200190565b90610bcc82610baa565b610bd96040519182610a7b565b8281528092610bea601f1991610baa565b019060005b828110610bfb57505050565b602090610c06610aec565b82828501015201610bef565b8051821015610c265760209160051b010190565b634e487b7160e01b600052603260045260246000fd5b15610c4357565b60405162461bcd60e51b8152602060048201526013602482015272149bdbdd08191bd95cc81b9bdd08195e1a5cdd606a1b6044820152606490fd5b509190610c9e6101e3838560029160005201602052604060002054151590565b600383015492610cad84610baa565b92610cbb6040519485610a7b565b848452601f19610cca86610baa565b0136602086013760005b858110610ea1575060405194610ce986610a0a565b818652602086019360008552604087019586526060870190815260808701956000875260a08801906000825260c08901936000855260e08a01956000875296610d30610ebe565b506000975b82891115610d4c575b505050505050505050505090565b610d569082611063565b978851600381101561019e57600090610d6f5750610d3e565b89516003811015610e8d57600103610ddb57505050505060608501918251905114600014610db55750505050600160809252015190523880808080808080808080610d3e565b608094939550600190525190520190815190525190523880808080808080808080610d3e565b899293949951906003821015610e795750600203610e4057610e22906001808851831c1614600014610e2b5760206040840151930151610e1c828c51610c12565b52610ee9565b97929190610d35565b60406020840151930151610e1c828c51610c12565b60405162461bcd60e51b8152602060048201526011602482015270496e76616c6964206e6f6465207479706560781b6044820152606490fd5b634e487b7160e01b81526021600452602490fd5b634e487b7160e01b82526021600452602482fd5b806000610eb360019388969998610c12565b520194919394610cd4565b60405190610ecb82610a43565b60006080838281528260208201528260408201528260608201520152565b60001981146102645760010190565b15610eff57565b60405162461bcd60e51b815260206004820152601660248201527514db5d081a5cc81b9bdd081a5b9a5d1a585b1a5e995960521b6044820152606490fd5b600190610f5060ff600483015416610ef8565b018054600019810190811161026457610f6891610f6d565b505490565b8054821015610c26576000526003602060002091020190600090565b8054821015610c265760005260206000200190600090565b600382101561019e5752565b90610fb6610aec565b50438111610fd857610b5591610b48610b5092610fd1610aec565b50826115c0565b60405162461bcd60e51b815260206004820152601860248201527f4e6f2066757475726520626c6f636b7320616c6c6f77656400000000000000006044820152606490fd5b9060405161102a81610a43565b60806004829461103e60ff82541685610fa1565b6001810154602085015260028101546040850152600381015460608501520154910152565b9061106c610ebe565b50600052602052604060002060046040519161108783610a43565b61109560ff82541684610fa1565b6001810154602084015260028101546040840152600381015460608401520154608082015290565b156110c457565b634e487b7160e01b600052600160045260246000fd5b906001820180921161026457565b9190820180921161026457565b929180156111ad576103e88111611170578382101561112b5761111890826110e8565b9280841161112557509190565b90925090565b60405162461bcd60e51b815260206004820152601960248201527f537461727420696e646578206f7574206f6620626f756e6473000000000000006044820152606490fd5b60405162461bcd60e51b815260206004820152601560248201527413195b99dd1a081b1a5b5a5d08195e18d959591959605a1b6044820152606490fd5b60405162461bcd60e51b815260206004820152601f60248201527f4c656e6774682073686f756c642062652067726561746572207468616e2030006044820152606490fd5b6001906111fd610aec565b5001908154600019810190811161026457811461121a8284610f6d565b5080549382156112b5576000935b60018301549184156112935760026000945b015494156112735750506000935b6040519561125587610a27565b8652602086015260408501526060840152608083015260a082015290565b600182018092116102645760029161128a91610f6d565b50015493611248565b600182018083116102645760016112ac60029284610f6d565b5001549461123a565b60018401808511610264576112ca9082610f6d565b505493611228565b92909160038401548211611422576112f76112fc918590600052602052604060002090565b61101d565b60008151611309816108fc565b611312816108fc565b61132257505050610b55916116ba565b6001825161132f816108fc565b611338816108fc565b036113665750606081015160608401511460001461135b575050610b55916116ba565b9091610b55936117ec565b9392600282939251611377816108fc565b611380816108fc565b1461138d575b5050505090565b611395610ebe565b506001806060830151841c16146000146113fe576113c2916113bb6040850151916110da565b91856112d2565b9260206113f594920151916113d5610a9d565b6002815292602084015260408301528060608301526080820152906116ba565b38808080611386565b611410916113bb6020850151916110da565b9260406113f5949201516113d5610a9d565b60405162461bcd60e51b815260206004820152601160248201527013585e0819195c1d1a081c995858da1959607a1b6044820152606490fd5b9060405161146881610a5f565b60406002829480548452600181015460208501520154910152565b6001019081549081156115b557600092600019830192831192836115a15780945b858111156114b757505050505090600190565b6114c181876110e8565b60011c906114e260006114dd6114d78588610f6d565b5061145b565b611935565b80860361153c575050909192938095505b610264578181101561153157600181018082116102645761151d60006114dd6114d7889488610f6d565b036115315761152b90610ee9565b846114f3565b935050505090600190565b8086111561156857505060018101809111156114a457634e487b7160e01b600052601160045260246000fd5b909650841080611598575b1561158a57600019810190811161026457946114a4565b505050505050600090600090565b50801515611573565b634e487b7160e01b85526011600452602485fd5b505050600090600090565b6001019081549081156115b557600092600019830192831192836115a15780945b858111156115f457505050505090600190565b6115fe81876110e8565b60011c9061161460016114dd6114d78588610f6d565b808603611663575050909192938095505b610264578181101561153157600181018082116102645761164f60016114dd6114d7889488610f6d565b036115315761165d90610ee9565b84611625565b8086111561168f57505060018101809111156115e157634e487b7160e01b600052601160045260246000fd5b9096508410806116b1575b1561158a57600019810190811161026457946115e1565b5080151561169a565b906116c481611995565b91826000528060205260ff60406000205416600381101561019e5761173357826000526020526040600020908051600381101561019e5760049160809160ff80198654169116178455602081015160018501556040810151600285015560608101516003850155015191015590565b826000528060205260ff60406000205416908251600381101561019e5760009260038110156117d857610b559493608093611773600494604094146110bd565b8782528060205261178f600184842001546020880151146110bd565b878252806020526117aa6002848420015484880151146110bd565b878252806020526117c6600384842001546060880151146110bd565b878252602052200154910151146110bd565b634e487b7160e01b84526021600452602484fd5b9091600382015484101561142257611802610ebe565b506001806060850151861c1614936118246001806060850151841c1614151590565b85146118bc575061187990610b559460001461187f5761184390611995565b61184c84611995565b611854610a9d565b6002815291602083015260408201526000606082015260006080820152925b826116ba565b506116ba565b61189161188b85611995565b91611995565b611899610a9d565b600281529160208301526040820152600060608201526000608082015292611873565b906118cb6118d29394926110da565b91846117ec565b610b559215611908576118e3610a9d565b60028152906000602083015260408201526000606082015260006080820152906116ba565b611910610a9d565b60028152906020820152600060408201526000606082015260006080820152906116ba565b90600281101561019e576001810361194f57506040015190565b61195a576020015190565b60405162461bcd60e51b8152602060048201526013602482015272496e76616c696420736561726368207479706560681b6044820152606490fd5b600081516003811015610e8d57600103611a6f57506080604051916119b983610a5f565b606081015183520151602082015260016040820152604051906304b98e1d60e31b8252600482016000905b60038210611a595750505060208160648173__$03320550cd1b629da90608251571b2532e$__5af4908115611a4d57600091611a1e575090565b90506020813d602011611a45575b81611a3960209383610a7b565b8101031261014a575190565b3d9150611a2c565b6040513d6000823e3d90fd5b60208060019285518152019301910190916119e4565b9080516003811015611b6e57600214611a86575090565b604051906040820182811067ffffffffffffffff821117611b5a579060409182526020810151835201516020820152604051906314d2f97b60e11b82526004820183905b60028210611b445750505060208160448173__$ebe82a1924a894141c89e6680d3cbc7e88$__5af4918215611b38578092611b0457505090565b9091506020823d602011611b30575b81611b2060209383610a7b565b81010312611b2d57505190565b80fd5b3d9150611b13565b604051903d90823e3d90fd5b6020806001928551815201930191019091611aca565b634e487b7160e01b84526041600452602484fd5b634e487b7160e01b83526021600452602483fdfea264697066735822122014f05f0484e4cc6a13121706786585ff0ebf8e7679f874e0133d5a3041d6996364736f6c634300081b0033",
  "linkReferences": {
    "@iden3/contracts/lib/Poseidon.sol": {
      "PoseidonUnit2L": [
        {
          "length": 20,
          "start": 6910
        }
      ],
      "PoseidonUnit3L": [
        {
          "length": 20,
          "start": 6680
        }
      ]
    }
  },
  "deployedLinkReferences": {
    "@iden3/contracts/lib/Poseidon.sol": {
      "PoseidonUnit2L": [
        {
          "length": 20,
          "start": 6877
        }
      ],
      "PoseidonUnit3L": [
        {
          "length": 20,
          "start": 6647
        }
      ]
    }
  }
}