{
  "_format": "hh-sol-artifact-1",
  "contractName": "IdentityRegistryImplV1",
  "sourceName": "contracts/registry/IdentityRegistryImplV1.sol",
  "abi": [
    {
      "inputs": [],
      "stateMutability": "nonpayable",
      "type": "constructor"
    },
    {
      "inputs": [
        {
          "internalType": "address",
          "name": "target",
          "type": "address"
        }
      ],
      "name": "AddressEmptyCode",
      "type": "error"
    },
    {
      "inputs": [
        {
          "internalType": "address",
          "name": "implementation",
          "type": "address"
        }
      ],
      "name": "ERC1967InvalidImplementation",
      "type": "error"
    },
    {
      "inputs": [],
      "name": "ERC1967NonPayable",
      "type": "error"
    },
    {
      "inputs": [],
      "name": "FailedCall",
      "type": "error"
    },
    {
      "inputs": [],
      "name": "HUB_NOT_SET",
      "type": "error"
    },
    {
      "inputs": [],
      "name": "InvalidInitialization",
      "type": "error"
    },
    {
      "inputs": [],
      "name": "LeafAlreadyExists",
      "type": "error"
    },
    {
      "inputs": [],
      "name": "LeafCannotBeZero",
      "type": "error"
    },
    {
      "inputs": [],
      "name": "LeafDoesNotExist",
      "type": "error"
    },
    {
      "inputs": [],
      "name": "LeafGreaterThanSnarkScalarField",
      "type": "error"
    },
    {
      "inputs": [],
      "name": "NotInitializing",
      "type": "error"
    },
    {
      "inputs": [],
      "name": "ONLY_HUB_CAN_ACCESS",
      "type": "error"
    },
    {
      "inputs": [
        {
          "internalType": "address",
          "name": "owner",
          "type": "address"
        }
      ],
      "name": "OwnableInvalidOwner",
      "type": "error"
    },
    {
      "inputs": [
        {
          "internalType": "address",
          "name": "account",
          "type": "address"
        }
      ],
      "name": "OwnableUnauthorizedAccount",
      "type": "error"
    },
    {
      "inputs": [],
      "name": "REGISTERED_COMMITMENT",
      "type": "error"
    },
    {
      "inputs": [],
      "name": "UUPSUnauthorizedCallContext",
      "type": "error"
    },
    {
      "inputs": [
        {
          "internalType": "bytes32",
          "name": "slot",
          "type": "bytes32"
        }
      ],
      "name": "UUPSUnsupportedProxiableUUID",
      "type": "error"
    },
    {
      "inputs": [],
      "name": "WrongSiblingNodes",
      "type": "error"
    },
    {
      "anonymous": false,
      "inputs": [
        {
          "indexed": true,
          "internalType": "bytes32",
          "name": "attestationId",
          "type": "bytes32"
        },
        {
          "indexed": true,
          "internalType": "uint256",
          "name": "nullifier",
          "type": "uint256"
        },
        {
          "indexed": true,
          "internalType": "uint256",
          "name": "commitment",
          "type": "uint256"
        },
        {
          "indexed": false,
          "internalType": "uint256",
          "name": "timestamp",
          "type": "uint256"
        },
        {
          "indexed": false,
          "internalType": "uint256",
          "name": "imtRoot",
          "type": "uint256"
        },
        {
          "indexed": false,
          "internalType": "uint256",
          "name": "imtIndex",
          "type": "uint256"
        }
      ],
      "name": "CommitmentRegistered",
      "type": "event"
    },
    {
      "anonymous": false,
      "inputs": [
        {
          "indexed": false,
          "internalType": "uint256",
          "name": "cscaRoot",
          "type": "uint256"
        }
      ],
      "name": "CscaRootUpdated",
      "type": "event"
    },
    {
      "anonymous": false,
      "inputs": [
        {
          "indexed": true,
          "internalType": "bytes32",
          "name": "attestationId",
          "type": "bytes32"
        },
        {
          "indexed": true,
          "internalType": "uint256",
          "name": "nullifier",
          "type": "uint256"
        },
        {
          "indexed": true,
          "internalType": "uint256",
          "name": "commitment",
          "type": "uint256"
        },
        {
          "indexed": false,
          "internalType": "uint256",
          "name": "timestamp",
          "type": "uint256"
        },
        {
          "indexed": false,
          "internalType": "uint256",
          "name": "imtRoot",
          "type": "uint256"
        },
        {
          "indexed": false,
          "internalType": "uint256",
          "name": "imtIndex",
          "type": "uint256"
        }
      ],
      "name": "DevCommitmentRegistered",
      "type": "event"
    },
    {
      "anonymous": false,
      "inputs": [
        {
          "indexed": true,
          "internalType": "uint256",
          "name": "oldLeaf",
          "type": "uint256"
        },
        {
          "indexed": false,
          "internalType": "uint256",
          "name": "imtRoot",
          "type": "uint256"
        },
        {
          "indexed": false,
          "internalType": "uint256",
          "name": "timestamp",
          "type": "uint256"
        }
      ],
      "name": "DevCommitmentRemoved",
      "type": "event"
    },
    {
      "anonymous": false,
      "inputs": [
        {
          "indexed": true,
          "internalType": "uint256",
          "name": "oldLeaf",
          "type": "uint256"
        },
        {
          "indexed": true,
          "internalType": "uint256",
          "name": "newLeaf",
          "type": "uint256"
        },
        {
          "indexed": false,
          "internalType": "uint256",
          "name": "imtRoot",
          "type": "uint256"
        },
        {
          "indexed": false,
          "internalType": "uint256",
          "name": "timestamp",
          "type": "uint256"
        }
      ],
      "name": "DevCommitmentUpdated",
      "type": "event"
    },
    {
      "anonymous": false,
      "inputs": [
        {
          "indexed": true,
          "internalType": "uint256",
          "name": "commitment",
          "type": "uint256"
        },
        {
          "indexed": false,
          "internalType": "uint256",
          "name": "imtRoot",
          "type": "uint256"
        },
        {
          "indexed": false,
          "internalType": "uint256",
          "name": "imtIndex",
          "type": "uint256"
        }
      ],
      "name": "DevDscKeyCommitmentRegistered",
      "type": "event"
    },
    {
      "anonymous": false,
      "inputs": [
        {
          "indexed": true,
          "internalType": "uint256",
          "name": "oldLeaf",
          "type": "uint256"
        },
        {
          "indexed": false,
          "internalType": "uint256",
          "name": "imtRoot",
          "type": "uint256"
        }
      ],
      "name": "DevDscKeyCommitmentRemoved",
      "type": "event"
    },
    {
      "anonymous": false,
      "inputs": [
        {
          "indexed": true,
          "internalType": "uint256",
          "name": "commitment",
          "type": "uint256"
        },
        {
          "indexed": false,
          "internalType": "bool",
          "name": "state",
          "type": "bool"
        }
      ],
      "name": "DevDscKeyCommitmentStateChanged",
      "type": "event"
    },
    {
      "anonymous": false,
      "inputs": [
        {
          "indexed": true,
          "internalType": "uint256",
          "name": "oldLeaf",
          "type": "uint256"
        },
        {
          "indexed": true,
          "internalType": "uint256",
          "name": "newLeaf",
          "type": "uint256"
        },
        {
          "indexed": false,
          "internalType": "uint256",
          "name": "imtRoot",
          "type": "uint256"
        }
      ],
      "name": "DevDscKeyCommitmentUpdated",
      "type": "event"
    },
    {
      "anonymous": false,
      "inputs": [
        {
          "indexed": true,
          "internalType": "bytes32",
          "name": "attestationId",
          "type": "bytes32"
        },
        {
          "indexed": true,
          "internalType": "uint256",
          "name": "nullifier",
          "type": "uint256"
        },
        {
          "indexed": false,
          "internalType": "bool",
          "name": "state",
          "type": "bool"
        }
      ],
      "name": "DevNullifierStateChanged",
      "type": "event"
    },
    {
      "anonymous": false,
      "inputs": [
        {
          "indexed": true,
          "internalType": "uint256",
          "name": "commitment",
          "type": "uint256"
        },
        {
          "indexed": false,
          "internalType": "uint256",
          "name": "timestamp",
          "type": "uint256"
        },
        {
          "indexed": false,
          "internalType": "uint256",
          "name": "imtRoot",
          "type": "uint256"
        },
        {
          "indexed": false,
          "internalType": "uint256",
          "name": "imtIndex",
          "type": "uint256"
        }
      ],
      "name": "DscKeyCommitmentRegistered",
      "type": "event"
    },
    {
      "anonymous": false,
      "inputs": [
        {
          "indexed": false,
          "internalType": "address",
          "name": "hub",
          "type": "address"
        }
      ],
      "name": "HubUpdated",
      "type": "event"
    },
    {
      "anonymous": false,
      "inputs": [
        {
          "indexed": false,
          "internalType": "uint64",
          "name": "version",
          "type": "uint64"
        }
      ],
      "name": "Initialized",
      "type": "event"
    },
    {
      "anonymous": false,
      "inputs": [
        {
          "indexed": true,
          "internalType": "address",
          "name": "previousOwner",
          "type": "address"
        },
        {
          "indexed": true,
          "internalType": "address",
          "name": "newOwner",
          "type": "address"
        }
      ],
      "name": "OwnershipTransferStarted",
      "type": "event"
    },
    {
      "anonymous": false,
      "inputs": [
        {
          "indexed": true,
          "internalType": "address",
          "name": "previousOwner",
          "type": "address"
        },
        {
          "indexed": true,
          "internalType": "address",
          "name": "newOwner",
          "type": "address"
        }
      ],
      "name": "OwnershipTransferred",
      "type": "event"
    },
    {
      "anonymous": false,
      "inputs": [
        {
          "indexed": false,
          "internalType": "address",
          "name": "hub",
          "type": "address"
        }
      ],
      "name": "RegistryInitialized",
      "type": "event"
    },
    {
      "anonymous": false,
      "inputs": [
        {
          "indexed": true,
          "internalType": "address",
          "name": "implementation",
          "type": "address"
        }
      ],
      "name": "Upgraded",
      "type": "event"
    },
    {
      "inputs": [],
      "name": "UPGRADE_INTERFACE_VERSION",
      "outputs": [
        {
          "internalType": "string",
          "name": "",
          "type": "string"
        }
      ],
      "stateMutability": "view",
      "type": "function"
    },
    {
      "inputs": [],
      "name": "acceptOwnership",
      "outputs": [],
      "stateMutability": "nonpayable",
      "type": "function"
    },
    {
      "inputs": [
        {
          "internalType": "uint256",
          "name": "root",
          "type": "uint256"
        }
      ],
      "name": "checkCscaRoot",
      "outputs": [
        {
          "internalType": "bool",
          "name": "",
          "type": "bool"
        }
      ],
      "stateMutability": "view",
      "type": "function"
    },
    {
      "inputs": [
        {
          "internalType": "uint256",
          "name": "root",
          "type": "uint256"
        }
      ],
      "name": "checkDscKeyCommitmentMerkleRoot",
      "outputs": [
        {
          "internalType": "bool",
          "name": "",
          "type": "bool"
        }
      ],
      "stateMutability": "view",
      "type": "function"
    },
    {
      "inputs": [
        {
          "internalType": "uint256",
          "name": "root",
          "type": "uint256"
        }
      ],
      "name": "checkIdentityCommitmentRoot",
      "outputs": [
        {
          "internalType": "bool",
          "name": "",
          "type": "bool"
        }
      ],
      "stateMutability": "view",
      "type": "function"
    },
    {
      "inputs": [
        {
          "internalType": "uint256",
          "name": "dscCommitment",
          "type": "uint256"
        }
      ],
      "name": "devAddDscKeyCommitment",
      "outputs": [],
      "stateMutability": "nonpayable",
      "type": "function"
    },
    {
      "inputs": [
        {
          "internalType": "bytes32",
          "name": "attestationId",
          "type": "bytes32"
        },
        {
          "internalType": "uint256",
          "name": "nullifier",
          "type": "uint256"
        },
        {
          "internalType": "uint256",
          "name": "commitment",
          "type": "uint256"
        }
      ],
      "name": "devAddIdentityCommitment",
      "outputs": [],
      "stateMutability": "nonpayable",
      "type": "function"
    },
    {
      "inputs": [
        {
          "internalType": "uint256",
          "name": "dscCommitment",
          "type": "uint256"
        },
        {
          "internalType": "bool",
          "name": "state",
          "type": "bool"
        }
      ],
      "name": "devChangeDscKeyCommitmentState",
      "outputs": [],
      "stateMutability": "nonpayable",
      "type": "function"
    },
    {
      "inputs": [
        {
          "internalType": "bytes32",
          "name": "attestationId",
          "type": "bytes32"
        },
        {
          "internalType": "uint256",
          "name": "nullifier",
          "type": "uint256"
        },
        {
          "internalType": "bool",
          "name": "state",
          "type": "bool"
        }
      ],
      "name": "devChangeNullifierState",
      "outputs": [],
      "stateMutability": "nonpayable",
      "type": "function"
    },
    {
      "inputs": [
        {
          "internalType": "uint256",
          "name": "oldLeaf",
          "type": "uint256"
        },
        {
          "internalType": "uint256[]",
          "name": "siblingNodes",
          "type": "uint256[]"
        }
      ],
      "name": "devRemoveCommitment",
      "outputs": [],
      "stateMutability": "nonpayable",
      "type": "function"
    },
    {
      "inputs": [
        {
          "internalType": "uint256",
          "name": "oldLeaf",
          "type": "uint256"
        },
        {
          "internalType": "uint256[]",
          "name": "siblingNodes",
          "type": "uint256[]"
        }
      ],
      "name": "devRemoveDscKeyCommitment",
      "outputs": [],
      "stateMutability": "nonpayable",
      "type": "function"
    },
    {
      "inputs": [
        {
          "internalType": "uint256",
          "name": "oldLeaf",
          "type": "uint256"
        },
        {
          "internalType": "uint256",
          "name": "newLeaf",
          "type": "uint256"
        },
        {
          "internalType": "uint256[]",
          "name": "siblingNodes",
          "type": "uint256[]"
        }
      ],
      "name": "devUpdateCommitment",
      "outputs": [],
      "stateMutability": "nonpayable",
      "type": "function"
    },
    {
      "inputs": [
        {
          "internalType": "uint256",
          "name": "oldLeaf",
          "type": "uint256"
        },
        {
          "internalType": "uint256",
          "name": "newLeaf",
          "type": "uint256"
        },
        {
          "internalType": "uint256[]",
          "name": "siblingNodes",
          "type": "uint256[]"
        }
      ],
      "name": "devUpdateDscKeyCommitment",
      "outputs": [],
      "stateMutability": "nonpayable",
      "type": "function"
    },
    {
      "inputs": [],
      "name": "getCscaRoot",
      "outputs": [
        {
          "internalType": "uint256",
          "name": "",
          "type": "uint256"
        }
      ],
      "stateMutability": "view",
      "type": "function"
    },
    {
      "inputs": [
        {
          "internalType": "uint256",
          "name": "commitment",
          "type": "uint256"
        }
      ],
      "name": "getDscKeyCommitmentIndex",
      "outputs": [
        {
          "internalType": "uint256",
          "name": "",
          "type": "uint256"
        }
      ],
      "stateMutability": "view",
      "type": "function"
    },
    {
      "inputs": [],
      "name": "getDscKeyCommitmentMerkleRoot",
      "outputs": [
        {
          "internalType": "uint256",
          "name": "",
          "type": "uint256"
        }
      ],
      "stateMutability": "view",
      "type": "function"
    },
    {
      "inputs": [],
      "name": "getDscKeyCommitmentTreeSize",
      "outputs": [
        {
          "internalType": "uint256",
          "name": "",
          "type": "uint256"
        }
      ],
      "stateMutability": "view",
      "type": "function"
    },
    {
      "inputs": [
        {
          "internalType": "uint256",
          "name": "commitment",
          "type": "uint256"
        }
      ],
      "name": "getIdentityCommitmentIndex",
      "outputs": [
        {
          "internalType": "uint256",
          "name": "",
          "type": "uint256"
        }
      ],
      "stateMutability": "view",
      "type": "function"
    },
    {
      "inputs": [],
      "name": "getIdentityCommitmentMerkleRoot",
      "outputs": [
        {
          "internalType": "uint256",
          "name": "",
          "type": "uint256"
        }
      ],
      "stateMutability": "view",
      "type": "function"
    },
    {
      "inputs": [],
      "name": "getIdentityCommitmentMerkleTreeSize",
      "outputs": [
        {
          "internalType": "uint256",
          "name": "",
          "type": "uint256"
        }
      ],
      "stateMutability": "view",
      "type": "function"
    },
    {
      "inputs": [],
      "name": "hub",
      "outputs": [
        {
          "internalType": "address",
          "name": "",
          "type": "address"
        }
      ],
      "stateMutability": "view",
      "type": "function"
    },
    {
      "inputs": [
        {
          "internalType": "address",
          "name": "_hub",
          "type": "address"
        }
      ],
      "name": "initialize",
      "outputs": [],
      "stateMutability": "nonpayable",
      "type": "function"
    },
    {
      "inputs": [
        {
          "internalType": "uint256",
          "name": "commitment",
          "type": "uint256"
        }
      ],
      "name": "isRegisteredDscKeyCommitment",
      "outputs": [
        {
          "internalType": "bool",
          "name": "",
          "type": "bool"
        }
      ],
      "stateMutability": "view",
      "type": "function"
    },
    {
      "inputs": [
        {
          "internalType": "bytes32",
          "name": "attestationId",
          "type": "bytes32"
        },
        {
          "internalType": "uint256",
          "name": "nullifier",
          "type": "uint256"
        }
      ],
      "name": "nullifiers",
      "outputs": [
        {
          "internalType": "bool",
          "name": "",
          "type": "bool"
        }
      ],
      "stateMutability": "view",
      "type": "function"
    },
    {
      "inputs": [],
      "name": "owner",
      "outputs": [
        {
          "internalType": "address",
          "name": "",
          "type": "address"
        }
      ],
      "stateMutability": "view",
      "type": "function"
    },
    {
      "inputs": [],
      "name": "pendingOwner",
      "outputs": [
        {
          "internalType": "address",
          "name": "",
          "type": "address"
        }
      ],
      "stateMutability": "view",
      "type": "function"
    },
    {
      "inputs": [],
      "name": "proxiableUUID",
      "outputs": [
        {
          "internalType": "bytes32",
          "name": "",
          "type": "bytes32"
        }
      ],
      "stateMutability": "view",
      "type": "function"
    },
    {
      "inputs": [
        {
          "internalType": "bytes32",
          "name": "attestationId",
          "type": "bytes32"
        },
        {
          "internalType": "uint256",
          "name": "nullifier",
          "type": "uint256"
        },
        {
          "internalType": "uint256",
          "name": "commitment",
          "type": "uint256"
        }
      ],
      "name": "registerCommitment",
      "outputs": [],
      "stateMutability": "nonpayable",
      "type": "function"
    },
    {
      "inputs": [
        {
          "internalType": "uint256",
          "name": "dscCommitment",
          "type": "uint256"
        }
      ],
      "name": "registerDscKeyCommitment",
      "outputs": [],
      "stateMutability": "nonpayable",
      "type": "function"
    },
    {
      "inputs": [],
      "name": "renounceOwnership",
      "outputs": [],
      "stateMutability": "nonpayable",
      "type": "function"
    },
    {
      "inputs": [
        {
          "internalType": "uint256",
          "name": "root",
          "type": "uint256"
        }
      ],
      "name": "rootTimestamps",
      "outputs": [
        {
          "internalType": "uint256",
          "name": "",
          "type": "uint256"
        }
      ],
      "stateMutability": "view",
      "type": "function"
    },
    {
      "inputs": [
        {
          "internalType": "address",
          "name": "newOwner",
          "type": "address"
        }
      ],
      "name": "transferOwnership",
      "outputs": [],
      "stateMutability": "nonpayable",
      "type": "function"
    },
    {
      "inputs": [
        {
          "internalType": "uint256",
          "name": "newCscaRoot",
          "type": "uint256"
        }
      ],
      "name": "updateCscaRoot",
      "outputs": [],
      "stateMutability": "nonpayable",
      "type": "function"
    },
    {
      "inputs": [
        {
          "internalType": "address",
          "name": "newHubAddress",
          "type": "address"
        }
      ],
      "name": "updateHub",
      "outputs": [],
      "stateMutability": "nonpayable",
      "type": "function"
    },
    {
      "inputs": [
        {
          "internalType": "address",
          "name": "newImplementation",
          "type": "address"
        },
        {
          "internalType": "bytes",
          "name": "data",
          "type": "bytes"
        }
      ],
      "name": "upgradeToAndCall",
      "outputs": [],
      "stateMutability": "payable",
      "type": "function"
    }
  ],
  "bytecode": "0x60a06040523060805234801561001457600080fd5b5061001d610022565b6100d4565b7ff0c57e16840df040f15088dc2f81fe391c3923bec73e23a9662efc9c229c6a00805468010000000000000000900460ff16156100725760405163f92ee8a960e01b815260040160405180910390fd5b80546001600160401b03908116146100d15780546001600160401b0319166001600160401b0390811782556040519081527fc7f505b2f371ae2175ee4913f4499e1f2633a7b5936321eed1cdaeb6115181d29060200160405180910390a15b50565b6080516122456100fd600039600081816111010152818161112a015261133a01526122456000f3fe6080604052600436106102045760003560e01c806398966e3c11610118578063c9c17b3f116100a0578063f2fde38b1161006f578063f2fde38b146105a9578063fbf08da9146105c9578063fc20a024146105e9578063fcceca2e14610609578063fd05ecd81461061e57600080fd5b8063c9c17b3f1461053f578063d78ff6f51461055f578063e30c397814610574578063ede12d9f1461058957600080fd5b8063ad3cb1cc116100e7578063ad3cb1cc1461048c578063addee776146104ca578063aedba93c146104ea578063b3ccecb8146104ff578063c4d66de81461051f57600080fd5b806398966e3c1461040c5780639a85d40a1461042c5780639fc1e4231461044c578063ad26e6751461046c57600080fd5b80634bf4dc7a1161019b578063715018a61161016a578063715018a61461038d57806379ba5097146103a257806388581195146103b757806388b7b189146103d75780638da5cb5b146103f757600080fd5b80634bf4dc7a1461033b5780634f1ef2861461035057806352d1902d1461036357806364567e8a1461037857600080fd5b80631f299f57116101d75780631f299f57146102ae578063365a86fc146102ce5780634378cb53146102fb578063445257da1461031b57600080fd5b80630bc19639146102095780630f48a1591461022b5780631465ff7f1461024b5780631bcc023d14610280575b600080fd5b34801561021557600080fd5b50610229610224366004611d2b565b61063e565b005b34801561023757600080fd5b50610229610246366004611d77565b6106b4565b34801561025757600080fd5b5061026b610266366004611dca565b610718565b60405190151581526020015b60405180910390f35b34801561028c57600080fd5b506102a061029b366004611dca565b61072e565b604051908152602001610277565b3480156102ba57600080fd5b506102296102c9366004611df3565b610749565b3480156102da57600080fd5b506102e36107b0565b6040516001600160a01b039091168152602001610277565b34801561030757600080fd5b50610229610316366004611d77565b6107ca565b34801561032757600080fd5b50610229610336366004611dca565b610839565b34801561034757600080fd5b506102a0610939565b61022961035e366004611e4c565b610959565b34801561036f57600080fd5b506102a0610978565b34801561038457600080fd5b506102a0610995565b34801561039957600080fd5b506102296109a6565b3480156103ae57600080fd5b506102296109ba565b3480156103c357600080fd5b506102296103d2366004611f16565b610a07565b3480156103e357600080fd5b506102296103f2366004611dca565b610a79565b34801561040357600080fd5b506102e3610ac5565b34801561041857600080fd5b506102a0610427366004611dca565b610afa565b34801561043857600080fd5b50610229610447366004611f4b565b610b0f565b34801561045857600080fd5b5061026b610467366004611dca565b610c3f565b34801561047857600080fd5b50610229610487366004611f4b565b610c60565b34801561049857600080fd5b506104bd604051806040016040528060058152602001640352e302e360dc1b81525081565b6040516102779190611f9b565b3480156104d657600080fd5b5061026b6104e5366004611fce565b610d05565b3480156104f657600080fd5b506102a0610d30565b34801561050b57600080fd5b5061022961051a366004611d2b565b610d41565b34801561052b57600080fd5b5061022961053a366004611ff0565b610d94565b34801561054b57600080fd5b5061022961055a366004611dca565b610edf565b34801561056b57600080fd5b506102a0610f5d565b34801561058057600080fd5b506102e3610f7d565b34801561059557600080fd5b506102a06105a4366004611dca565b610fa6565b3480156105b557600080fd5b506102296105c4366004611ff0565b610fc3565b3480156105d557600080fd5b506102296105e4366004611ff0565b611048565b3480156105f557600080fd5b5061026b610604366004611dca565b6110a6565b34801561061557600080fd5b506102a06110c6565b34801561062a57600080fd5b5061026b610639366004611dca565b6110d7565b6106466110f6565b61064e61119b565b600061065d60338585856111cd565b600081815260376020908152604091829020429081905582518481529182015291925085917f8814493b3599188c61d7bf20585a0355af60987c540db9988392ae830a54c64a91015b60405180910390a250505050565b6106bc6110f6565b6106c461119b565b60006106d46039868686866111e4565b905083857f0bb5433e87cfc429682aadc2e217fe3b6915922eb25540401aaa64d0b8eaa1c08360405161070991815260200190565b60405180910390a35050505050565b60006107226110f6565b50603e5481145b919050565b60006107386110f6565b6107436039836111fd565b92915050565b6107516110f6565b61075961119b565b6000828152603d6020908152604091829020805460ff1916841515908117909155915191825283917f11e1b30cd0b6eab7020e0fbd635ef39b211bda7696dfd324caaef4f1ae9cd315910160405180910390a25050565b60006107ba6110f6565b506032546001600160a01b031690565b6107d26110f6565b6107da61119b565b60006107ea6033868686866111e4565b6000818152603760209081526040918290204290819055825184815291820152919250859187917f9d5851adacc1956f388355223351dad2704088fae99b36711607250dd9afe3fc9101610709565b6108416110f6565b6032546001600160a01b031661086a576040516309ff533360e31b815260040160405180910390fd5b6032546001600160a01b031633146108955760405163ba0318cb60e01b815260040160405180910390fd5b6000818152603d602052604090205460ff16156108c45760405162d2b3f360e21b815260040160405180910390fd5b6000818152603d60205260408120805460ff191660011790556039805491906108ed9084611251565b604080514281526020810183905290810184905290915083907f8fd1e12daf7bbc111604e9312366b73b92a65058cc13768ee02edf176ab7ba8e906060015b60405180910390a2505050565b60006109436110f6565b5060345460009081526035602052604090205490565b6109616110f6565b61096a8261125d565b610974828261126d565b5050565b600061098261132f565b506000805160206121d083398151915290565b600061099f6110f6565b5060335490565b6109ae61119b565b6109b86000611378565b565b33806109c4610f7d565b6001600160a01b0316146109fb5760405163118cdaa760e01b81526001600160a01b03821660048201526024015b60405180910390fd5b610a0481611378565b50565b610a0f6110f6565b610a1761119b565b6000838152603860209081526040808320858452825291829020805460ff19168415159081179091559151918252839185917ffdea0e3abaa4a1f72ff03f918d65910a9e2ce74814cfc21561b188db582bbe15910160405180910390a3505050565b610a816110f6565b610a8961119b565b603e8190556040518181527f02dd6b96a8b84ff5245724a410a499208af7b8fb2150fa85f297ae005f48ecc7906020015b60405180910390a150565b6000807f9016d09d72d40fdae2fd8ceac6b6234c7706214fd39c1cd1e609a0528c1993005b546001600160a01b031692915050565b6000610b046110f6565b6107436033836111fd565b610b176110f6565b6032546001600160a01b0316610b40576040516309ff533360e31b815260040160405180910390fd5b6032546001600160a01b03163314610b6b5760405163ba0318cb60e01b815260040160405180910390fd5b600083815260386020908152604080832085845290915290205460ff1615610ba55760405162d2b3f360e21b815260040160405180910390fd5b60008381526038602090815260408083208584529091528120805460ff19166001179055603380549190610bd99084611251565b600081815260376020908152604091829020429081905582519081529081018390529081018490529091508390859087907feb119b7270209cdf8b25ab82dcae1e1f269d3244ed481853debf439b49415dff906060015b60405180910390a45050505050565b6000610c496110f6565b50603a546000908152603b60205260409020541490565b610c686110f6565b610c7061119b565b60008381526038602090815260408083208584529091528120805460ff19166001179055610c9f603383611251565b6000818152603760205260408120429055909150610cbe6033846111fd565b60408051428152602081018590529081018290529091508390859087907ffc5b28a97d17b16ee3dd749eecd0a602288e98dc57b251e77a8095147f8366b590606001610c30565b6000610d0f6110f6565b50600091825260386020908152604080842092845291905290205460ff1690565b6000610d3a6110f6565b50603e5490565b610d496110f6565b610d5161119b565b6000610d6060398585856111cd565b9050837fdb059cfc380ead4900d342dc84f5f44bfa83e73439c4740ba3a13b1b12e0ba26826040516106a691815260200190565b7ff0c57e16840df040f15088dc2f81fe391c3923bec73e23a9662efc9c229c6a008054600160401b810460ff16159067ffffffffffffffff16600081158015610dda5750825b905060008267ffffffffffffffff166001148015610df75750303b155b905081158015610e05575080155b15610e235760405163f92ee8a960e01b815260040160405180910390fd5b845467ffffffffffffffff191660011785558315610e4d57845460ff60401b1916600160401b1785555b610e556113b0565b6040516001600160a01b03871681527f43dcf2166be267d8f6dc31580b9b1a605fddb5259a48dddd50b0348ac38fb24e9060200160405180910390a18315610ed757845460ff60401b19168555604051600181527fc7f505b2f371ae2175ee4913f4499e1f2633a7b5936321eed1cdaeb6115181d29060200160405180910390a15b505050505050565b610ee76110f6565b610eef61119b565b6000818152603d60205260408120805460ff19166001179055610f13603983611251565b90506000610f226039846111fd565b604080518481526020810183905291925084917f324818d8d34a2d439a57172d0cccad7d8476d81b3cb18a43969b503ebe973da8910161092c565b6000610f676110f6565b50603a546000908152603b602052604090205490565b6000807f237e158222e3e6968b72b9db0d8043aacf074ad9f650f0d1606b4d82ee432c00610aea565b6000610fb06110f6565b5060009081526037602052604090205490565b610fcb61119b565b7f237e158222e3e6968b72b9db0d8043aacf074ad9f650f0d1606b4d82ee432c0080546001600160a01b0319166001600160a01b038316908117825561100f610ac5565b6001600160a01b03167f38d16b8cac22d99fc7c124b9cd0de2d3fa1faef420bfe791d8c362d765e2270060405160405180910390a35050565b6110506110f6565b61105861119b565b603280546001600160a01b0319166001600160a01b0383169081179091556040519081527f5b4b08c1a8c9cb40687a2bb0a22c161920757446a2a35c3c2856ec693946d4f090602001610aba565b60006110b06110f6565b506000908152603d602052604090205460ff1690565b60006110d06110f6565b5060395490565b60006110e16110f6565b50600090815260376020526040902054151590565b306001600160a01b037f000000000000000000000000000000000000000000000000000000000000000016148061117d57507f00000000000000000000000000000000000000000000000000000000000000006001600160a01b03166111716000805160206121d0833981519152546001600160a01b031690565b6001600160a01b031614155b156109b85760405163703e46dd60e11b815260040160405180910390fd5b336111a4610ac5565b6001600160a01b0316146109b85760405163118cdaa760e01b81523360048201526024016109f2565b60006111db858585856113c9565b95945050505050565b60006111f386868686866113d5565b9695505050505050565b6000818152600383016020526040812054810361122d57604051631c811d5b60e21b815260040160405180910390fd5b600082815260038401602052604090205461124a90600190612021565b9392505050565b600061124a8383611845565b6112656110f6565b610a0461119b565b816001600160a01b03166352d1902d6040518163ffffffff1660e01b8152600401602060405180830381865afa9250505080156112c7575060408051601f3d908101601f191682019092526112c491810190612034565b60015b6112ef57604051634c9c8ce360e01b81526001600160a01b03831660048201526024016109f2565b6000805160206121d0833981519152811461132057604051632a87526960e21b8152600481018290526024016109f2565b61132a8383611a0e565b505050565b306001600160a01b037f000000000000000000000000000000000000000000000000000000000000000016146109b85760405163703e46dd60e11b815260040160405180910390fd5b7f237e158222e3e6968b72b9db0d8043aacf074ad9f650f0d1606b4d82ee432c0080546001600160a01b031916815561097482611a64565b6113b8611ad5565b6113c133611b1e565b6109b8611b2f565b60006111db8585600086865b60006000805160206121f08339815191528410611405576040516361c0541760e11b815260040160405180910390fd5b600085815260038701602052604090205461143357604051631c811d5b60e21b815260040160405180910390fd5b600084815260038701602052604090205415611462576040516312c50cad60e11b815260040160405180910390fd5b600061146e87876111fd565b87549091508590879060009061148690600190612021565b60018b0154909150600090815b818110156117bc578087901c600116600103611646576000805160206121f08339815191528a8a858181106114ca576114ca61204d565b90506020020135106114ef576040516361c0541760e11b815260040160405180910390fd5b73__$75f79a42d9bcbdbb69ad79ebd80f556f39$__63561558fe60405180604001604052808d8d888181106115265761152661204d565b905060200201358152602001898152506040518263ffffffff1660e01b81526004016115529190612063565b602060405180830381865af415801561156f573d6000803e3d6000fd5b505050506040513d601f19601f820116820180604052508101906115939190612034565b955073__$75f79a42d9bcbdbb69ad79ebd80f556f39$__63561558fe60405180604001604052808d8d888181106115cc576115cc61204d565b905060200201358152602001888152506040518263ffffffff1660e01b81526004016115f89190612063565b602060405180830381865af4158015611615573d6000803e3d6000fd5b505050506040513d601f19601f820116820180604052508101906116399190612034565b94508260010192506117b4565b86811c84821c146117a0576000805160206121f08339815191528a8a858181106116725761167261204d565b9050602002013510611697576040516361c0541760e11b815260040160405180910390fd5b73__$75f79a42d9bcbdbb69ad79ebd80f556f39$__63561558fe60405180604001604052808981526020018d8d888181106116d4576116d461204d565b905060200201358152506040518263ffffffff1660e01b81526004016116fa9190612063565b602060405180830381865af4158015611717573d6000803e3d6000fd5b505050506040513d601f19601f8201168201806040525081019061173b9190612034565b955073__$75f79a42d9bcbdbb69ad79ebd80f556f39$__63561558fe60405180604001604052808881526020018d8d8881811061177a5761177a61204d565b905060200201358152506040518263ffffffff1660e01b81526004016115f89190612063565b600083815260028e01602052604090208690555b600101611493565b5060018c0154600090815260028d01602052604090205484146117f257604051631fd4986360e11b815260040160405180910390fd5b600081815260028d016020526040902085905589156118245760008b815260038d016020526040808220548c83529120555b505050600088815260038a0160205260408120555091505095945050505050565b60006000805160206121f08339815191528210611875576040516361c0541760e11b815260040160405180910390fd5b81600003611896576040516314b48df160e11b815260040160405180910390fd5b6000828152600384016020526040902054156118c5576040516312c50cad60e11b815260040160405180910390fd5b8254600180850154906118d9908390612094565b6118e482600261218e565b10156118f6576118f38161219a565b90505b600185018190558360005b828110156119d3578084901c6001166001036119b757604080518082018252600083815260028a0160209081529083902054825281018490529051632b0aac7f60e11b815273__$75f79a42d9bcbdbb69ad79ebd80f556f39$__9163561558fe9161196f9190600401612063565b602060405180830381865af415801561198c573d6000803e3d6000fd5b505050506040513d601f19601f820116820180604052508101906119b09190612034565b91506119cb565b600081815260028801602052604090208290555b600101611901565b506119dd8361219a565b8087556000928352600287016020908152604080852084905596845260039097019096529390209390935550919050565b611a1782611b37565b6040516001600160a01b038316907fbc7cd75a20ee27fd9adebab32041f755214dbc6bffa90cc0225b39da2e5c2d3b90600090a2805115611a5c5761132a8282611b9c565b610974611c09565b7f9016d09d72d40fdae2fd8ceac6b6234c7706214fd39c1cd1e609a0528c19930080546001600160a01b031981166001600160a01b03848116918217845560405192169182907f8be0079c531659141344cd1fd0a4f28419497f9722a3daafe3b4186f6b6457e090600090a3505050565b7ff0c57e16840df040f15088dc2f81fe391c3923bec73e23a9662efc9c229c6a0054600160401b900460ff166109b857604051631afcd79f60e31b815260040160405180910390fd5b611b26611ad5565b610a0481611c28565b6109b8611ad5565b806001600160a01b03163b600003611b6d57604051634c9c8ce360e01b81526001600160a01b03821660048201526024016109f2565b6000805160206121d083398151915280546001600160a01b0319166001600160a01b0392909216919091179055565b6060600080846001600160a01b031684604051611bb991906121b3565b600060405180830381855af49150503d8060008114611bf4576040519150601f19603f3d011682016040523d82523d6000602084013e611bf9565b606091505b50915091506111db858383611c5a565b34156109b85760405163b398979f60e01b815260040160405180910390fd5b611c30611ad5565b6001600160a01b0381166109fb57604051631e4fbdf760e01b8152600060048201526024016109f2565b606082611c6f57611c6a82611cb6565b61124a565b8151158015611c8657506001600160a01b0384163b155b15611caf57604051639996b31560e01b81526001600160a01b03851660048201526024016109f2565b5092915050565b805115611cc65780518082602001fd5b60405163d6bda27560e01b815260040160405180910390fd5b60008083601f840112611cf157600080fd5b50813567ffffffffffffffff811115611d0957600080fd5b6020830191508360208260051b8501011115611d2457600080fd5b9250929050565b600080600060408486031215611d4057600080fd5b83359250602084013567ffffffffffffffff811115611d5e57600080fd5b611d6a86828701611cdf565b9497909650939450505050565b60008060008060608587031215611d8d57600080fd5b8435935060208501359250604085013567ffffffffffffffff811115611db257600080fd5b611dbe87828801611cdf565b95989497509550505050565b600060208284031215611ddc57600080fd5b5035919050565b8035801515811461072957600080fd5b60008060408385031215611e0657600080fd5b82359150611e1660208401611de3565b90509250929050565b80356001600160a01b038116811461072957600080fd5b634e487b7160e01b600052604160045260246000fd5b60008060408385031215611e5f57600080fd5b611e6883611e1f565b9150602083013567ffffffffffffffff811115611e8457600080fd5b8301601f81018513611e9557600080fd5b803567ffffffffffffffff811115611eaf57611eaf611e36565b604051601f8201601f19908116603f0116810167ffffffffffffffff81118282101715611ede57611ede611e36565b604052818152828201602001871015611ef657600080fd5b816020840160208301376000602083830101528093505050509250929050565b600080600060608486031215611f2b57600080fd5b8335925060208401359150611f4260408501611de3565b90509250925092565b600080600060608486031215611f6057600080fd5b505081359360208301359350604090920135919050565b60005b83811015611f92578181015183820152602001611f7a565b50506000910152565b6020815260008251806020840152611fba816040850160208701611f77565b601f01601f19169190910160400192915050565b60008060408385031215611fe157600080fd5b50508035926020909101359150565b60006020828403121561200257600080fd5b61124a82611e1f565b634e487b7160e01b600052601160045260246000fd5b818103818111156107435761074361200b565b60006020828403121561204657600080fd5b5051919050565b634e487b7160e01b600052603260045260246000fd5b60408101818360005b600281101561208b57815183526020928301929091019060010161206c565b50505092915050565b808201808211156107435761074361200b565b6001815b60018411156120e2578085048111156120c6576120c661200b565b60018416156120d457908102905b60019390931c9280026120ab565b935093915050565b6000826120f957506001610743565b8161210657506000610743565b816001811461211c576002811461212657612142565b6001915050610743565b60ff8411156121375761213761200b565b50506001821b610743565b5060208310610133831016604e8410600b8410161715612165575081810a610743565b61217260001984846120a7565b80600019048211156121865761218661200b565b029392505050565b600061124a83836120ea565b6000600182016121ac576121ac61200b565b5060010190565b600082516121c5818460208701611f77565b919091019291505056fe360894a13ba1a3210667c828492db98dca3e2076cc3735a920a3ca505d382bbc30644e72e131a029b85045b68181585d2833e84879b9709143e1f593f0000001a26469706673582212207c1232e1a3ce6ae9fe9e6e1391bca1f9902d0f58141e0dfcc9bdb5105b3fa37364736f6c634300081b0033",
  "linkReferences": {
    "poseidon-solidity/PoseidonT3.sol": {
      "PoseidonT3": [
        {
          "length": 20,
          "start": 5614
        },
        {
          "length": 20,
          "start": 5780
        },
        {
          "length": 20,
          "start": 6038
        },
        {
          "length": 20,
          "start": 6204
        },
        {
          "length": 20,
          "start": 6725
        }
      ]
    }
  },
  "deployedLinkReferences": {
    "poseidon-solidity/PoseidonT3.sol": {
      "PoseidonT3": [
        {
          "length": 20,
          "start": 5361
        },
        {
          "length": 20,
          "start": 5527
        },
        {
          "length": 20,
          "start": 5785
        },
        {
          "length": 20,
          "start": 5951
        },
        {
          "length": 20,
          "start": 6472
        }
      ]
    }
  }
}