{
  "_format": "hh-sol-artifact-1",
  "contractName": "PassportCredentialIssuerImplV1",
  "sourceName": "contracts/verifiers/PassportCredentialIssuerImplV1.sol",
  "abi": [
    {
      "inputs": [],
      "stateMutability": "nonpayable",
      "type": "constructor"
    },
    {
      "inputs": [
        {
          "internalType": "address",
          "name": "target",
          "type": "address"
        }
      ],
      "name": "AddressEmptyCode",
      "type": "error"
    },
    {
      "inputs": [
        {
          "internalType": "address",
          "name": "implementation",
          "type": "address"
        }
      ],
      "name": "ERC1967InvalidImplementation",
      "type": "error"
    },
    {
      "inputs": [],
      "name": "ERC1967NonPayable",
      "type": "error"
    },
    {
      "inputs": [],
      "name": "FailedCall",
      "type": "error"
    },
    {
      "inputs": [],
      "name": "InvalidCredentialProof",
      "type": "error"
    },
    {
      "inputs": [],
      "name": "InvalidDscCommitmentRoot",
      "type": "error"
    },
    {
      "inputs": [
        {
          "internalType": "uint256",
          "name": "hashIndex",
          "type": "uint256"
        }
      ],
      "name": "InvalidHashIndex",
      "type": "error"
    },
    {
      "inputs": [
        {
          "internalType": "uint256",
          "name": "hashValue",
          "type": "uint256"
        }
      ],
      "name": "InvalidHashValue",
      "type": "error"
    },
    {
      "inputs": [],
      "name": "InvalidInitialization",
      "type": "error"
    },
    {
      "inputs": [
        {
          "internalType": "uint256",
          "name": "linkId1",
          "type": "uint256"
        },
        {
          "internalType": "uint256",
          "name": "linkId2",
          "type": "uint256"
        }
      ],
      "name": "InvalidLinkId",
      "type": "error"
    },
    {
      "inputs": [
        {
          "internalType": "uint256",
          "name": "length",
          "type": "uint256"
        },
        {
          "internalType": "uint256",
          "name": "expectedLength",
          "type": "uint256"
        }
      ],
      "name": "InvalidResponsesLength",
      "type": "error"
    },
    {
      "inputs": [],
      "name": "InvalidSignatureProof",
      "type": "error"
    },
    {
      "inputs": [
        {
          "internalType": "uint256",
          "name": "templateRoot",
          "type": "uint256"
        },
        {
          "internalType": "uint256",
          "name": "expectedTemplateRoot",
          "type": "uint256"
        }
      ],
      "name": "InvalidTemplateRoot",
      "type": "error"
    },
    {
      "inputs": [
        {
          "internalType": "uint256",
          "name": "issuanceDate",
          "type": "uint256"
        }
      ],
      "name": "IssuanceDateExpired",
      "type": "error"
    },
    {
      "inputs": [
        {
          "internalType": "uint256",
          "name": "length1",
          "type": "uint256"
        },
        {
          "internalType": "uint256",
          "name": "length2",
          "type": "uint256"
        }
      ],
      "name": "LengthMismatch",
      "type": "error"
    },
    {
      "inputs": [
        {
          "internalType": "uint256",
          "name": "requestId",
          "type": "uint256"
        }
      ],
      "name": "NoCredentialCircuitForRequestId",
      "type": "error"
    },
    {
      "inputs": [
        {
          "internalType": "uint256",
          "name": "requestId",
          "type": "uint256"
        }
      ],
      "name": "NoSignatureCircuitForRequestId",
      "type": "error"
    },
    {
      "inputs": [],
      "name": "NoVerifierSet",
      "type": "error"
    },
    {
      "inputs": [],
      "name": "NotInitializing",
      "type": "error"
    },
    {
      "inputs": [
        {
          "internalType": "uint256",
          "name": "nullifier",
          "type": "uint256"
        }
      ],
      "name": "NullifierAlreadyExists",
      "type": "error"
    },
    {
      "inputs": [
        {
          "internalType": "address",
          "name": "owner",
          "type": "address"
        }
      ],
      "name": "OwnableInvalidOwner",
      "type": "error"
    },
    {
      "inputs": [
        {
          "internalType": "address",
          "name": "account",
          "type": "address"
        }
      ],
      "name": "OwnableUnauthorizedAccount",
      "type": "error"
    },
    {
      "inputs": [],
      "name": "UUPSUnauthorizedCallContext",
      "type": "error"
    },
    {
      "inputs": [
        {
          "internalType": "bytes32",
          "name": "slot",
          "type": "bytes32"
        }
      ],
      "name": "UUPSUnsupportedProxiableUUID",
      "type": "error"
    },
    {
      "anonymous": false,
      "inputs": [
        {
          "indexed": false,
          "internalType": "string",
          "name": "circuitId",
          "type": "string"
        },
        {
          "indexed": false,
          "internalType": "address",
          "name": "verifier",
          "type": "address"
        },
        {
          "indexed": false,
          "internalType": "uint256",
          "name": "requestId",
          "type": "uint256"
        }
      ],
      "name": "CredentialCircuitVerifierUpdated",
      "type": "event"
    },
    {
      "anonymous": false,
      "inputs": [
        {
          "indexed": false,
          "internalType": "uint256",
          "name": "expirationTime",
          "type": "uint256"
        }
      ],
      "name": "ExpirationTimeUpdated",
      "type": "event"
    },
    {
      "anonymous": false,
      "inputs": [
        {
          "indexed": false,
          "internalType": "uint64",
          "name": "version",
          "type": "uint64"
        }
      ],
      "name": "Initialized",
      "type": "event"
    },
    {
      "anonymous": false,
      "inputs": [
        {
          "indexed": true,
          "internalType": "address",
          "name": "previousOwner",
          "type": "address"
        },
        {
          "indexed": true,
          "internalType": "address",
          "name": "newOwner",
          "type": "address"
        }
      ],
      "name": "OwnershipTransferStarted",
      "type": "event"
    },
    {
      "anonymous": false,
      "inputs": [
        {
          "indexed": true,
          "internalType": "address",
          "name": "previousOwner",
          "type": "address"
        },
        {
          "indexed": true,
          "internalType": "address",
          "name": "newOwner",
          "type": "address"
        }
      ],
      "name": "OwnershipTransferred",
      "type": "event"
    },
    {
      "anonymous": false,
      "inputs": [
        {
          "indexed": false,
          "internalType": "address",
          "name": "registry",
          "type": "address"
        }
      ],
      "name": "RegistryUpdated",
      "type": "event"
    },
    {
      "anonymous": false,
      "inputs": [
        {
          "indexed": false,
          "internalType": "string",
          "name": "circuitId",
          "type": "string"
        },
        {
          "indexed": false,
          "internalType": "address",
          "name": "verifier",
          "type": "address"
        },
        {
          "indexed": false,
          "internalType": "uint256",
          "name": "requestId",
          "type": "uint256"
        }
      ],
      "name": "SignatureCircuitVerifierUpdated",
      "type": "event"
    },
    {
      "anonymous": false,
      "inputs": [
        {
          "indexed": false,
          "internalType": "uint256",
          "name": "tampletRoot",
          "type": "uint256"
        }
      ],
      "name": "TemplateRootUpdated",
      "type": "event"
    },
    {
      "anonymous": false,
      "inputs": [
        {
          "indexed": true,
          "internalType": "address",
          "name": "implementation",
          "type": "address"
        }
      ],
      "name": "Upgraded",
      "type": "event"
    },
    {
      "inputs": [],
      "name": "UPGRADE_INTERFACE_VERSION",
      "outputs": [
        {
          "internalType": "string",
          "name": "",
          "type": "string"
        }
      ],
      "stateMutability": "view",
      "type": "function"
    },
    {
      "inputs": [],
      "name": "VERSION",
      "outputs": [
        {
          "internalType": "string",
          "name": "",
          "type": "string"
        }
      ],
      "stateMutability": "view",
      "type": "function"
    },
    {
      "inputs": [],
      "name": "acceptOwnership",
      "outputs": [],
      "stateMutability": "nonpayable",
      "type": "function"
    },
    {
      "inputs": [
        {
          "internalType": "uint256",
          "name": "nullifier",
          "type": "uint256"
        }
      ],
      "name": "cleanNullifier",
      "outputs": [],
      "stateMutability": "nonpayable",
      "type": "function"
    },
    {
      "inputs": [
        {
          "internalType": "string",
          "name": "circuitId",
          "type": "string"
        }
      ],
      "name": "credentialCircuitIdToRequestIds",
      "outputs": [
        {
          "internalType": "uint256",
          "name": "",
          "type": "uint256"
        }
      ],
      "stateMutability": "view",
      "type": "function"
    },
    {
      "inputs": [
        {
          "internalType": "uint256",
          "name": "requestId",
          "type": "uint256"
        }
      ],
      "name": "credentialRequestIdToCircuitIds",
      "outputs": [
        {
          "internalType": "string",
          "name": "",
          "type": "string"
        }
      ],
      "stateMutability": "view",
      "type": "function"
    },
    {
      "inputs": [
        {
          "internalType": "string",
          "name": "circuitId",
          "type": "string"
        }
      ],
      "name": "credentialVerifiers",
      "outputs": [
        {
          "internalType": "address",
          "name": "",
          "type": "address"
        }
      ],
      "stateMutability": "view",
      "type": "function"
    },
    {
      "inputs": [
        {
          "internalType": "uint256",
          "name": "claimIndexHash",
          "type": "uint256"
        }
      ],
      "name": "getClaimProof",
      "outputs": [
        {
          "components": [
            {
              "internalType": "uint256",
              "name": "root",
              "type": "uint256"
            },
            {
              "internalType": "bool",
              "name": "existence",
              "type": "bool"
            },
            {
              "internalType": "uint256[]",
              "name": "siblings",
              "type": "uint256[]"
            },
            {
              "internalType": "uint256",
              "name": "index",
              "type": "uint256"
            },
            {
              "internalType": "uint256",
              "name": "value",
              "type": "uint256"
            },
            {
              "internalType": "bool",
              "name": "auxExistence",
              "type": "bool"
            },
            {
              "internalType": "uint256",
              "name": "auxIndex",
              "type": "uint256"
            },
            {
              "internalType": "uint256",
              "name": "auxValue",
              "type": "uint256"
            }
          ],
          "internalType": "struct SmtLib.Proof",
          "name": "",
          "type": "tuple"
        }
      ],
      "stateMutability": "view",
      "type": "function"
    },
    {
      "inputs": [
        {
          "internalType": "uint256",
          "name": "claimIndexHash",
          "type": "uint256"
        },
        {
          "internalType": "uint256",
          "name": "root",
          "type": "uint256"
        }
      ],
      "name": "getClaimProofByRoot",
      "outputs": [
        {
          "components": [
            {
              "internalType": "uint256",
              "name": "root",
              "type": "uint256"
            },
            {
              "internalType": "bool",
              "name": "existence",
              "type": "bool"
            },
            {
              "internalType": "uint256[]",
              "name": "siblings",
              "type": "uint256[]"
            },
            {
              "internalType": "uint256",
              "name": "index",
              "type": "uint256"
            },
            {
              "internalType": "uint256",
              "name": "value",
              "type": "uint256"
            },
            {
              "internalType": "bool",
              "name": "auxExistence",
              "type": "bool"
            },
            {
              "internalType": "uint256",
              "name": "auxIndex",
              "type": "uint256"
            },
            {
              "internalType": "uint256",
              "name": "auxValue",
              "type": "uint256"
            }
          ],
          "internalType": "struct SmtLib.Proof",
          "name": "",
          "type": "tuple"
        }
      ],
      "stateMutability": "view",
      "type": "function"
    },
    {
      "inputs": [
        {
          "internalType": "uint256",
          "name": "claimIndexHash",
          "type": "uint256"
        }
      ],
      "name": "getClaimProofWithStateInfo",
      "outputs": [
        {
          "components": [
            {
              "internalType": "uint256",
              "name": "root",
              "type": "uint256"
            },
            {
              "internalType": "bool",
              "name": "existence",
              "type": "bool"
            },
            {
              "internalType": "uint256[]",
              "name": "siblings",
              "type": "uint256[]"
            },
            {
              "internalType": "uint256",
              "name": "index",
              "type": "uint256"
            },
            {
              "internalType": "uint256",
              "name": "value",
              "type": "uint256"
            },
            {
              "internalType": "bool",
              "name": "auxExistence",
              "type": "bool"
            },
            {
              "internalType": "uint256",
              "name": "auxIndex",
              "type": "uint256"
            },
            {
              "internalType": "uint256",
              "name": "auxValue",
              "type": "uint256"
            }
          ],
          "internalType": "struct SmtLib.Proof",
          "name": "",
          "type": "tuple"
        },
        {
          "components": [
            {
              "internalType": "uint256",
              "name": "state",
              "type": "uint256"
            },
            {
              "internalType": "uint256",
              "name": "claimsRoot",
              "type": "uint256"
            },
            {
              "internalType": "uint256",
              "name": "revocationsRoot",
              "type": "uint256"
            },
            {
              "internalType": "uint256",
              "name": "rootsRoot",
              "type": "uint256"
            }
          ],
          "internalType": "struct IdentityLib.StateInfo",
          "name": "",
          "type": "tuple"
        }
      ],
      "stateMutability": "view",
      "type": "function"
    },
    {
      "inputs": [],
      "name": "getClaimsTreeRoot",
      "outputs": [
        {
          "internalType": "uint256",
          "name": "",
          "type": "uint256"
        }
      ],
      "stateMutability": "view",
      "type": "function"
    },
    {
      "inputs": [],
      "name": "getExpirationTime",
      "outputs": [
        {
          "internalType": "uint256",
          "name": "",
          "type": "uint256"
        }
      ],
      "stateMutability": "view",
      "type": "function"
    },
    {
      "inputs": [],
      "name": "getId",
      "outputs": [
        {
          "internalType": "uint256",
          "name": "",
          "type": "uint256"
        }
      ],
      "stateMutability": "view",
      "type": "function"
    },
    {
      "inputs": [],
      "name": "getIsOldStateGenesis",
      "outputs": [
        {
          "internalType": "bool",
          "name": "",
          "type": "bool"
        }
      ],
      "stateMutability": "view",
      "type": "function"
    },
    {
      "inputs": [],
      "name": "getLatestPublishedClaimsRoot",
      "outputs": [
        {
          "internalType": "uint256",
          "name": "",
          "type": "uint256"
        }
      ],
      "stateMutability": "view",
      "type": "function"
    },
    {
      "inputs": [],
      "name": "getLatestPublishedRevocationsRoot",
      "outputs": [
        {
          "internalType": "uint256",
          "name": "",
          "type": "uint256"
        }
      ],
      "stateMutability": "view",
      "type": "function"
    },
    {
      "inputs": [],
      "name": "getLatestPublishedRootsRoot",
      "outputs": [
        {
          "internalType": "uint256",
          "name": "",
          "type": "uint256"
        }
      ],
      "stateMutability": "view",
      "type": "function"
    },
    {
      "inputs": [],
      "name": "getLatestPublishedState",
      "outputs": [
        {
          "internalType": "uint256",
          "name": "",
          "type": "uint256"
        }
      ],
      "stateMutability": "view",
      "type": "function"
    },
    {
      "inputs": [],
      "name": "getRegistry",
      "outputs": [
        {
          "internalType": "address",
          "name": "",
          "type": "address"
        }
      ],
      "stateMutability": "view",
      "type": "function"
    },
    {
      "inputs": [
        {
          "internalType": "uint64",
          "name": "revocationNonce",
          "type": "uint64"
        }
      ],
      "name": "getRevocationProof",
      "outputs": [
        {
          "components": [
            {
              "internalType": "uint256",
              "name": "root",
              "type": "uint256"
            },
            {
              "internalType": "bool",
              "name": "existence",
              "type": "bool"
            },
            {
              "internalType": "uint256[]",
              "name": "siblings",
              "type": "uint256[]"
            },
            {
              "internalType": "uint256",
              "name": "index",
              "type": "uint256"
            },
            {
              "internalType": "uint256",
              "name": "value",
              "type": "uint256"
            },
            {
              "internalType": "bool",
              "name": "auxExistence",
              "type": "bool"
            },
            {
              "internalType": "uint256",
              "name": "auxIndex",
              "type": "uint256"
            },
            {
              "internalType": "uint256",
              "name": "auxValue",
              "type": "uint256"
            }
          ],
          "internalType": "struct SmtLib.Proof",
          "name": "",
          "type": "tuple"
        }
      ],
      "stateMutability": "view",
      "type": "function"
    },
    {
      "inputs": [
        {
          "internalType": "uint64",
          "name": "revocationNonce",
          "type": "uint64"
        },
        {
          "internalType": "uint256",
          "name": "root",
          "type": "uint256"
        }
      ],
      "name": "getRevocationProofByRoot",
      "outputs": [
        {
          "components": [
            {
              "internalType": "uint256",
              "name": "root",
              "type": "uint256"
            },
            {
              "internalType": "bool",
              "name": "existence",
              "type": "bool"
            },
            {
              "internalType": "uint256[]",
              "name": "siblings",
              "type": "uint256[]"
            },
            {
              "internalType": "uint256",
              "name": "index",
              "type": "uint256"
            },
            {
              "internalType": "uint256",
              "name": "value",
              "type": "uint256"
            },
            {
              "internalType": "bool",
              "name": "auxExistence",
              "type": "bool"
            },
            {
              "internalType": "uint256",
              "name": "auxIndex",
              "type": "uint256"
            },
            {
              "internalType": "uint256",
              "name": "auxValue",
              "type": "uint256"
            }
          ],
          "internalType": "struct SmtLib.Proof",
          "name": "",
          "type": "tuple"
        }
      ],
      "stateMutability": "view",
      "type": "function"
    },
    {
      "inputs": [
        {
          "internalType": "uint64",
          "name": "revocationNonce",
          "type": "uint64"
        }
      ],
      "name": "getRevocationProofWithStateInfo",
      "outputs": [
        {
          "components": [
            {
              "internalType": "uint256",
              "name": "root",
              "type": "uint256"
            },
            {
              "internalType": "bool",
              "name": "existence",
              "type": "bool"
            },
            {
              "internalType": "uint256[]",
              "name": "siblings",
              "type": "uint256[]"
            },
            {
              "internalType": "uint256",
              "name": "index",
              "type": "uint256"
            },
            {
              "internalType": "uint256",
              "name": "value",
              "type": "uint256"
            },
            {
              "internalType": "bool",
              "name": "auxExistence",
              "type": "bool"
            },
            {
              "internalType": "uint256",
              "name": "auxIndex",
              "type": "uint256"
            },
            {
              "internalType": "uint256",
              "name": "auxValue",
              "type": "uint256"
            }
          ],
          "internalType": "struct SmtLib.Proof",
          "name": "",
          "type": "tuple"
        },
        {
          "components": [
            {
              "internalType": "uint256",
              "name": "state",
              "type": "uint256"
            },
            {
              "internalType": "uint256",
              "name": "claimsRoot",
              "type": "uint256"
            },
            {
              "internalType": "uint256",
              "name": "revocationsRoot",
              "type": "uint256"
            },
            {
              "internalType": "uint256",
              "name": "rootsRoot",
              "type": "uint256"
            }
          ],
          "internalType": "struct IdentityLib.StateInfo",
          "name": "",
          "type": "tuple"
        }
      ],
      "stateMutability": "view",
      "type": "function"
    },
    {
      "inputs": [
        {
          "internalType": "uint256",
          "name": "id",
          "type": "uint256"
        },
        {
          "internalType": "uint64",
          "name": "nonce",
          "type": "uint64"
        }
      ],
      "name": "getRevocationStatus",
      "outputs": [
        {
          "components": [
            {
              "components": [
                {
                  "internalType": "uint256",
                  "name": "state",
                  "type": "uint256"
                },
                {
                  "internalType": "uint256",
                  "name": "claimsTreeRoot",
                  "type": "uint256"
                },
                {
                  "internalType": "uint256",
                  "name": "revocationTreeRoot",
                  "type": "uint256"
                },
                {
                  "internalType": "uint256",
                  "name": "rootOfRoots",
                  "type": "uint256"
                }
              ],
              "internalType": "struct IOnchainCredentialStatusResolver.IdentityStateRoots",
              "name": "issuer",
              "type": "tuple"
            },
            {
              "components": [
                {
                  "internalType": "uint256",
                  "name": "root",
                  "type": "uint256"
                },
                {
                  "internalType": "bool",
                  "name": "existence",
                  "type": "bool"
                },
                {
                  "internalType": "uint256[]",
                  "name": "siblings",
                  "type": "uint256[]"
                },
                {
                  "internalType": "uint256",
                  "name": "index",
                  "type": "uint256"
                },
                {
                  "internalType": "uint256",
                  "name": "value",
                  "type": "uint256"
                },
                {
                  "internalType": "bool",
                  "name": "auxExistence",
                  "type": "bool"
                },
                {
                  "internalType": "uint256",
                  "name": "auxIndex",
                  "type": "uint256"
                },
                {
                  "internalType": "uint256",
                  "name": "auxValue",
                  "type": "uint256"
                }
              ],
              "internalType": "struct IOnchainCredentialStatusResolver.Proof",
              "name": "mtp",
              "type": "tuple"
            }
          ],
          "internalType": "struct IOnchainCredentialStatusResolver.CredentialStatus",
          "name": "",
          "type": "tuple"
        }
      ],
      "stateMutability": "view",
      "type": "function"
    },
    {
      "inputs": [
        {
          "internalType": "uint256",
          "name": "id",
          "type": "uint256"
        },
        {
          "internalType": "uint256",
          "name": "state",
          "type": "uint256"
        },
        {
          "internalType": "uint64",
          "name": "nonce",
          "type": "uint64"
        }
      ],
      "name": "getRevocationStatusByIdAndState",
      "outputs": [
        {
          "components": [
            {
              "components": [
                {
                  "internalType": "uint256",
                  "name": "state",
                  "type": "uint256"
                },
                {
                  "internalType": "uint256",
                  "name": "claimsTreeRoot",
                  "type": "uint256"
                },
                {
                  "internalType": "uint256",
                  "name": "revocationTreeRoot",
                  "type": "uint256"
                },
                {
                  "internalType": "uint256",
                  "name": "rootOfRoots",
                  "type": "uint256"
                }
              ],
              "internalType": "struct IOnchainCredentialStatusResolver.IdentityStateRoots",
              "name": "issuer",
              "type": "tuple"
            },
            {
              "components": [
                {
                  "internalType": "uint256",
                  "name": "root",
                  "type": "uint256"
                },
                {
                  "internalType": "bool",
                  "name": "existence",
                  "type": "bool"
                },
                {
                  "internalType": "uint256[]",
                  "name": "siblings",
                  "type": "uint256[]"
                },
                {
                  "internalType": "uint256",
                  "name": "index",
                  "type": "uint256"
                },
                {
                  "internalType": "uint256",
                  "name": "value",
                  "type": "uint256"
                },
                {
                  "internalType": "bool",
                  "name": "auxExistence",
                  "type": "bool"
                },
                {
                  "internalType": "uint256",
                  "name": "auxIndex",
                  "type": "uint256"
                },
                {
                  "internalType": "uint256",
                  "name": "auxValue",
                  "type": "uint256"
                }
              ],
              "internalType": "struct IOnchainCredentialStatusResolver.Proof",
              "name": "mtp",
              "type": "tuple"
            }
          ],
          "internalType": "struct IOnchainCredentialStatusResolver.CredentialStatus",
          "name": "",
          "type": "tuple"
        }
      ],
      "stateMutability": "view",
      "type": "function"
    },
    {
      "inputs": [],
      "name": "getRevocationsTreeRoot",
      "outputs": [
        {
          "internalType": "uint256",
          "name": "",
          "type": "uint256"
        }
      ],
      "stateMutability": "view",
      "type": "function"
    },
    {
      "inputs": [
        {
          "internalType": "uint256",
          "name": "rootsTreeRoot",
          "type": "uint256"
        }
      ],
      "name": "getRootProof",
      "outputs": [
        {
          "components": [
            {
              "internalType": "uint256",
              "name": "root",
              "type": "uint256"
            },
            {
              "internalType": "bool",
              "name": "existence",
              "type": "bool"
            },
            {
              "internalType": "uint256[]",
              "name": "siblings",
              "type": "uint256[]"
            },
            {
              "internalType": "uint256",
              "name": "index",
              "type": "uint256"
            },
            {
              "internalType": "uint256",
              "name": "value",
              "type": "uint256"
            },
            {
              "internalType": "bool",
              "name": "auxExistence",
              "type": "bool"
            },
            {
              "internalType": "uint256",
              "name": "auxIndex",
              "type": "uint256"
            },
            {
              "internalType": "uint256",
              "name": "auxValue",
              "type": "uint256"
            }
          ],
          "internalType": "struct SmtLib.Proof",
          "name": "",
          "type": "tuple"
        }
      ],
      "stateMutability": "view",
      "type": "function"
    },
    {
      "inputs": [
        {
          "internalType": "uint256",
          "name": "claimsTreeRoot",
          "type": "uint256"
        },
        {
          "internalType": "uint256",
          "name": "root",
          "type": "uint256"
        }
      ],
      "name": "getRootProofByRoot",
      "outputs": [
        {
          "components": [
            {
              "internalType": "uint256",
              "name": "root",
              "type": "uint256"
            },
            {
              "internalType": "bool",
              "name": "existence",
              "type": "bool"
            },
            {
              "internalType": "uint256[]",
              "name": "siblings",
              "type": "uint256[]"
            },
            {
              "internalType": "uint256",
              "name": "index",
              "type": "uint256"
            },
            {
              "internalType": "uint256",
              "name": "value",
              "type": "uint256"
            },
            {
              "internalType": "bool",
              "name": "auxExistence",
              "type": "bool"
            },
            {
              "internalType": "uint256",
              "name": "auxIndex",
              "type": "uint256"
            },
            {
              "internalType": "uint256",
              "name": "auxValue",
              "type": "uint256"
            }
          ],
          "internalType": "struct SmtLib.Proof",
          "name": "",
          "type": "tuple"
        }
      ],
      "stateMutability": "view",
      "type": "function"
    },
    {
      "inputs": [
        {
          "internalType": "uint256",
          "name": "rootsTreeRoot",
          "type": "uint256"
        }
      ],
      "name": "getRootProofWithStateInfo",
      "outputs": [
        {
          "components": [
            {
              "internalType": "uint256",
              "name": "root",
              "type": "uint256"
            },
            {
              "internalType": "bool",
              "name": "existence",
              "type": "bool"
            },
            {
              "internalType": "uint256[]",
              "name": "siblings",
              "type": "uint256[]"
            },
            {
              "internalType": "uint256",
              "name": "index",
              "type": "uint256"
            },
            {
              "internalType": "uint256",
              "name": "value",
              "type": "uint256"
            },
            {
              "internalType": "bool",
              "name": "auxExistence",
              "type": "bool"
            },
            {
              "internalType": "uint256",
              "name": "auxIndex",
              "type": "uint256"
            },
            {
              "internalType": "uint256",
              "name": "auxValue",
              "type": "uint256"
            }
          ],
          "internalType": "struct SmtLib.Proof",
          "name": "",
          "type": "tuple"
        },
        {
          "components": [
            {
              "internalType": "uint256",
              "name": "state",
              "type": "uint256"
            },
            {
              "internalType": "uint256",
              "name": "claimsRoot",
              "type": "uint256"
            },
            {
              "internalType": "uint256",
              "name": "revocationsRoot",
              "type": "uint256"
            },
            {
              "internalType": "uint256",
              "name": "rootsRoot",
              "type": "uint256"
            }
          ],
          "internalType": "struct IdentityLib.StateInfo",
          "name": "",
          "type": "tuple"
        }
      ],
      "stateMutability": "view",
      "type": "function"
    },
    {
      "inputs": [
        {
          "internalType": "uint256",
          "name": "state",
          "type": "uint256"
        }
      ],
      "name": "getRootsByState",
      "outputs": [
        {
          "components": [
            {
              "internalType": "uint256",
              "name": "claimsRoot",
              "type": "uint256"
            },
            {
              "internalType": "uint256",
              "name": "revocationsRoot",
              "type": "uint256"
            },
            {
              "internalType": "uint256",
              "name": "rootsRoot",
              "type": "uint256"
            }
          ],
          "internalType": "struct IdentityLib.Roots",
          "name": "",
          "type": "tuple"
        }
      ],
      "stateMutability": "view",
      "type": "function"
    },
    {
      "inputs": [],
      "name": "getRootsTreeRoot",
      "outputs": [
        {
          "internalType": "uint256",
          "name": "",
          "type": "uint256"
        }
      ],
      "stateMutability": "view",
      "type": "function"
    },
    {
      "inputs": [],
      "name": "getSmtDepth",
      "outputs": [
        {
          "internalType": "uint256",
          "name": "",
          "type": "uint256"
        }
      ],
      "stateMutability": "pure",
      "type": "function"
    },
    {
      "inputs": [],
      "name": "getTemplateRoot",
      "outputs": [
        {
          "internalType": "uint256",
          "name": "",
          "type": "uint256"
        }
      ],
      "stateMutability": "view",
      "type": "function"
    },
    {
      "inputs": [
        {
          "internalType": "address",
          "name": "_stateContractAddr",
          "type": "address"
        },
        {
          "internalType": "bytes2",
          "name": "idType",
          "type": "bytes2"
        }
      ],
      "name": "initialize",
      "outputs": [],
      "stateMutability": "nonpayable",
      "type": "function"
    },
    {
      "inputs": [
        {
          "internalType": "uint256",
          "name": "expirationTime",
          "type": "uint256"
        },
        {
          "internalType": "uint256",
          "name": "templateRoot",
          "type": "uint256"
        },
        {
          "internalType": "address",
          "name": "registry",
          "type": "address"
        },
        {
          "internalType": "string[]",
          "name": "credentialCircuitIds",
          "type": "string[]"
        },
        {
          "internalType": "address[]",
          "name": "credentialVerifierAddresses",
          "type": "address[]"
        },
        {
          "internalType": "string[]",
          "name": "signatureCircuitIds",
          "type": "string[]"
        },
        {
          "internalType": "address[]",
          "name": "signatureVerifierAddresses",
          "type": "address[]"
        },
        {
          "internalType": "address",
          "name": "stateAddress",
          "type": "address"
        },
        {
          "internalType": "bytes2",
          "name": "idType",
          "type": "bytes2"
        }
      ],
      "name": "initializeIssuer",
      "outputs": [],
      "stateMutability": "nonpayable",
      "type": "function"
    },
    {
      "inputs": [],
      "name": "owner",
      "outputs": [
        {
          "internalType": "address",
          "name": "",
          "type": "address"
        }
      ],
      "stateMutability": "view",
      "type": "function"
    },
    {
      "inputs": [],
      "name": "pendingOwner",
      "outputs": [
        {
          "internalType": "address",
          "name": "",
          "type": "address"
        }
      ],
      "stateMutability": "view",
      "type": "function"
    },
    {
      "inputs": [],
      "name": "proxiableUUID",
      "outputs": [
        {
          "internalType": "bytes32",
          "name": "",
          "type": "bytes32"
        }
      ],
      "stateMutability": "view",
      "type": "function"
    },
    {
      "inputs": [],
      "name": "renounceOwnership",
      "outputs": [],
      "stateMutability": "nonpayable",
      "type": "function"
    },
    {
      "inputs": [
        {
          "internalType": "uint256",
          "name": "expirationTime",
          "type": "uint256"
        }
      ],
      "name": "setExpirationTime",
      "outputs": [],
      "stateMutability": "nonpayable",
      "type": "function"
    },
    {
      "inputs": [
        {
          "internalType": "address",
          "name": "registry",
          "type": "address"
        }
      ],
      "name": "setRegistry",
      "outputs": [],
      "stateMutability": "nonpayable",
      "type": "function"
    },
    {
      "inputs": [
        {
          "internalType": "uint256",
          "name": "templateRoot",
          "type": "uint256"
        }
      ],
      "name": "setTemplateRoot",
      "outputs": [],
      "stateMutability": "nonpayable",
      "type": "function"
    },
    {
      "inputs": [
        {
          "internalType": "string",
          "name": "circuitId",
          "type": "string"
        }
      ],
      "name": "signatureCircuitIdToRequestIds",
      "outputs": [
        {
          "internalType": "uint256",
          "name": "",
          "type": "uint256"
        }
      ],
      "stateMutability": "view",
      "type": "function"
    },
    {
      "inputs": [
        {
          "internalType": "uint256",
          "name": "requestId",
          "type": "uint256"
        }
      ],
      "name": "signatureRequestIdToCircuitIds",
      "outputs": [
        {
          "internalType": "string",
          "name": "",
          "type": "string"
        }
      ],
      "stateMutability": "view",
      "type": "function"
    },
    {
      "inputs": [
        {
          "internalType": "string",
          "name": "circuitId",
          "type": "string"
        }
      ],
      "name": "signatureVerifiers",
      "outputs": [
        {
          "internalType": "address",
          "name": "",
          "type": "address"
        }
      ],
      "stateMutability": "view",
      "type": "function"
    },
    {
      "inputs": [
        {
          "components": [
            {
              "internalType": "uint64",
              "name": "requestId",
              "type": "uint64"
            },
            {
              "internalType": "bytes",
              "name": "zkProof",
              "type": "bytes"
            },
            {
              "internalType": "bytes",
              "name": "data",
              "type": "bytes"
            }
          ],
          "internalType": "struct IZKPVerifier.ZKPResponse[]",
          "name": "responses",
          "type": "tuple[]"
        },
        {
          "internalType": "bytes",
          "name": "crossChainProofs",
          "type": "bytes"
        }
      ],
      "name": "submitZKPResponseV2",
      "outputs": [],
      "stateMutability": "nonpayable",
      "type": "function"
    },
    {
      "inputs": [
        {
          "internalType": "bytes4",
          "name": "interfaceId",
          "type": "bytes4"
        }
      ],
      "name": "supportsInterface",
      "outputs": [
        {
          "internalType": "bool",
          "name": "",
          "type": "bool"
        }
      ],
      "stateMutability": "view",
      "type": "function"
    },
    {
      "inputs": [
        {
          "internalType": "address",
          "name": "newOwner",
          "type": "address"
        }
      ],
      "name": "transferOwnership",
      "outputs": [],
      "stateMutability": "nonpayable",
      "type": "function"
    },
    {
      "inputs": [
        {
          "internalType": "string[]",
          "name": "circuitIds",
          "type": "string[]"
        },
        {
          "internalType": "address[]",
          "name": "verifierAddresses",
          "type": "address[]"
        }
      ],
      "name": "updateCredentialVerifiers",
      "outputs": [],
      "stateMutability": "nonpayable",
      "type": "function"
    },
    {
      "inputs": [
        {
          "internalType": "string[]",
          "name": "circuitIds",
          "type": "string[]"
        },
        {
          "internalType": "address[]",
          "name": "verifierAddresses",
          "type": "address[]"
        }
      ],
      "name": "updateSignatureVerifiers",
      "outputs": [],
      "stateMutability": "nonpayable",
      "type": "function"
    },
    {
      "inputs": [
        {
          "internalType": "address",
          "name": "newImplementation",
          "type": "address"
        },
        {
          "internalType": "bytes",
          "name": "data",
          "type": "bytes"
        }
      ],
      "name": "upgradeToAndCall",
      "outputs": [],
      "stateMutability": "payable",
      "type": "function"
    }
  ],
  "bytecode": "0x60a06040523060805234801561001457600080fd5b5061001d610022565b6100d4565b7ff0c57e16840df040f15088dc2f81fe391c3923bec73e23a9662efc9c229c6a00805468010000000000000000900460ff16156100725760405163f92ee8a960e01b815260040160405180910390fd5b80546001600160401b03908116146100d15780546001600160401b0319166001600160401b0390811782556040519081527fc7f505b2f371ae2175ee4913f4499e1f2633a7b5936321eed1cdaeb6115181d29060200160405180910390a15b50565b608051613ba96100fd600039600081816121c5015281816121ee015261233c0152613ba96000f3fe6080604052600436106102c85760003560e01c8063a635c78511610175578063c6365a3b116100dc578063dbdf185211610095578063e30c39781161006f578063e30c397814610878578063f2fde38b1461088d578063f84c7c1e146108ad578063ffa1ad74146108c257600080fd5b8063dbdf185214610823578063e23a845a14610843578063e26ecb0b1461085857600080fd5b8063c6365a3b14610779578063cde1cacb1461078e578063cfa350c8146107ae578063d622ea6e146107ce578063d94b0271146107ee578063da68a0b11461080e57600080fd5b8063b37feda41161012e578063b37feda414610697578063b57a40cb146106b7578063b8db6871146106d7578063badf055d14610719578063c0cc365d14610739578063c1e327331461075957600080fd5b8063a635c785146105b9578063a91ee0dc146105d9578063aad72921146105f9578063ad3cb1cc14610619578063ade09fcd14610657578063b354c2d81461067757600080fd5b8063406e8b4c116102345780635d1ca631116101ed5780638affdc60116101c75780638affdc601461054f5780638da5cb5b1461056f5780639674cfa4146105845780639dc3c7ba1461059957600080fd5b80635d1ca63114610510578063715018a61461052557806379ba50971461053a57600080fd5b8063406e8b4c14610466578063443d7534146104865780634f1ef286146104a6578063523b8136146104b957806352d1902d146104ce5780635ab1bd53146104e357600080fd5b80632c1d3204116102865780632c1d3204146103d35780632d5c4f25146103e8578063310d0d5b146104085780633d59ec60146104285780633df432fc1461043d5780633f0c66481461045257600080fd5b806233058d146102cd57806301c85c771461030457806301ffc9a71461032757806309bdc4b114610357578063110c96a71461037957806326485063146103a6575b600080fd5b3480156102d957600080fd5b506102ed6102e8366004612ca1565b6108f3565b6040516102fb929190612d5e565b60405180910390f35b34801561031057600080fd5b506103196109c0565b6040519081526020016102fb565b34801561033357600080fd5b50610347610342366004612da1565b610a45565b60405190151581526020016102fb565b34801561036357600080fd5b5061037761037236600461301a565b610a7c565b005b34801561038557600080fd5b5061039961039436600461311c565b610c02565b6040516102fb9190613148565b3480156103b257600080fd5b506103c66103c1366004612ca1565b610c2d565b6040516102fb9190613195565b3480156103df57600080fd5b50610319610cc6565b3480156103f457600080fd5b506103c66104033660046131a8565b610ce1565b34801561041457600080fd5b506103c66104233660046131a8565b610d80565b34801561043457600080fd5b50610319610dd7565b34801561044957600080fd5b50610319610dea565b34801561045e57600080fd5b506028610319565b34801561047257600080fd5b506103776104813660046131ca565b610e2d565b34801561049257600080fd5b506102ed6104a13660046131f4565b610eca565b6103776104b436600461320d565b610f45565b3480156104c557600080fd5b50610319610f64565b3480156104da57600080fd5b50610319610f77565b3480156104ef57600080fd5b506104f8610f94565b6040516001600160a01b0390911681526020016102fb565b34801561051c57600080fd5b50610319610fb8565b34801561053157600080fd5b50610377610fc8565b34801561054657600080fd5b50610377610fdc565b34801561055b57600080fd5b5061031961056a36600461325a565b611029565b34801561057b57600080fd5b506104f8611063565b34801561059057600080fd5b50610319611098565b3480156105a557600080fd5b506103776105b436600461328e565b6110ab565b3480156105c557600080fd5b506104f86105d436600461325a565b611291565b3480156105e557600080fd5b506103776105f43660046132eb565b6112d4565b34801561060557600080fd5b50610399610614366004613306565b611343565b34801561062557600080fd5b5061064a604051806040016040528060058152602001640352e302e360dc1b81525081565b6040516102fb919061338b565b34801561066357600080fd5b5061037761067236600461339e565b61155c565b34801561068357600080fd5b506103776106923660046131f4565b6119d9565b3480156106a357600080fd5b506102ed6106b23660046131f4565b611a26565b3480156106c357600080fd5b506103c66106d23660046131f4565b611aa1565b3480156106e357600080fd5b506106f76106f23660046131f4565b611aef565b60408051825181526020808401519082015291810151908201526060016102fb565b34801561072557600080fd5b5061037761073436600461328e565b611b97565b34801561074557600080fd5b506103776107543660046131f4565b611d77565b34801561076557600080fd5b506103c66107743660046131f4565b611dc1565b34801561078557600080fd5b50610319611e11565b34801561079a57600080fd5b506104f86107a936600461325a565b611e24565b3480156107ba57600080fd5b506103196107c936600461325a565b611e47565b3480156107da57600080fd5b5061064a6107e93660046131f4565b611e6a565b3480156107fa57600080fd5b506103776108093660046131f4565b611f1e565b34801561081a57600080fd5b50610319611fac565b34801561082f57600080fd5b5061064a61083e3660046131f4565b611fef565b34801561084f57600080fd5b5061031961201e565b34801561086457600080fd5b506103c66108733660046134e1565b61203e565b34801561088457600080fd5b506104f861209d565b34801561089957600080fd5b506103776108a83660046132eb565b6120c6565b3480156108b957600080fd5b5061034761214b565b3480156108ce57600080fd5b5061064a60405180604001604052806005815260200164312e302e3360d81b81525081565b6108fb612bb5565b6109266040518060800160405280600081526020016000815260200160008152602001600081525090565b61092e612161565b604051631f17004d60e31b815260048101919091526001600160401b038416602482015273__$068aad146bf104111ba65c4a1de2cd0e23$__9063f8b80268906044015b600060405180830381865af415801561098f573d6000803e3d6000fd5b505050506040513d6000823e601f3d908101601f191682016040526109b79190810190613617565b91509150915091565b60006109ca612161565b60405163765c2c6160e01b8152600481019190915273__$068aad146bf104111ba65c4a1de2cd0e23$__9063765c2c61906024015b602060405180830381865af4158015610a1c573d6000803e3d6000fd5b505050506040513d601f19601f82011682018060405250810190610a4091906136bb565b905090565b60006001600160e01b03198216635d1ca63160e01b1480610a7657506301ffc9a760e01b6001600160e01b03198316145b92915050565b7ff0c57e16840df040f15088dc2f81fe391c3923bec73e23a9662efc9c229c6a008054600160401b810460ff1615906001600160401b0316600081158015610ac15750825b90506000826001600160401b03166001148015610add5750303b155b905081158015610aeb575080155b15610b095760405163f92ee8a960e01b815260040160405180910390fd5b845467ffffffffffffffff191660011785558315610b3357845460ff60401b1916600160401b1785555b610b3d8787610e2d565b610b4633612185565b6000610b50612196565b90508e81600001819055508d81600101819055508c8160030160006101000a8154816001600160a01b0302191690836001600160a01b03160217905550600181600a0181905550610ba18c8c611b97565b610bab8a8a6110ab565b508315610bf257845460ff60401b19168555604051600181527fc7f505b2f371ae2175ee4913f4499e1f2633a7b5936321eed1cdaeb6115181d29060200160405180910390a15b5050505050505050505050505050565b610c0a612bfe565b6000610c14612161565b600101549050610c25848285611343565b949350505050565b610c35612bb5565b610c3d612161565b604051637d0aba4f60e01b815260048101919091526001600160401b038316602482015273__$068aad146bf104111ba65c4a1de2cd0e23$__90637d0aba4f906044015b600060405180830381865af4158015610c9e573d6000803e3d6000fd5b505050506040513d6000823e601f3d908101601f19168201604052610a7691908101906136d4565b6000610cd06121ba565b610cd8612196565b60010154905090565b610ce9612bb5565b610cf1612161565b60405163d55da6a360e01b81526004810191909152602481018490526044810183905273__$068aad146bf104111ba65c4a1de2cd0e23$__9063d55da6a3906064015b600060405180830381865af4158015610d51573d6000803e3d6000fd5b505050506040513d6000823e601f3d908101601f19168201604052610d7991908101906136d4565b9392505050565b610d88612bb5565b610d90612161565b604051636ac0c5c760e11b81526004810191909152602481018490526044810183905273__$068aad146bf104111ba65c4a1de2cd0e23$__9063d5818b8e90606401610d34565b6000610de1612161565b60010154919050565b6000610df4612161565b604051631b8bf99b60e21b8152600481019190915273__$068aad146bf104111ba65c4a1de2cd0e23$__90636e2fe66c906024016109ff565b610e35612161565b6040516359a6069160e01b815260048101919091526001600160a01b0383166024820152306044820152602860648201526001600160f01b03198216608482015273__$068aad146bf104111ba65c4a1de2cd0e23$__906359a606919060a4015b60006040518083038186803b158015610eae57600080fd5b505af4158015610ec2573d6000803e3d6000fd5b505050505050565b610ed2612bb5565b610efd6040518060800160405280600081526020016000815260200160008152602001600081525090565b610f05612161565b60405163a3018d7960e01b815260048101919091526024810184905273__$068aad146bf104111ba65c4a1de2cd0e23$__9063a3018d7990604401610972565b610f4d6121ba565b610f568261225f565b610f60828261226f565b5050565b6000610f6e612161565b609a0154919050565b6000610f81612331565b50600080516020613b5483398151915290565b6000610f9e6121ba565b610fa6612196565b600301546001600160a01b0316905090565b6000610fc2612161565b54919050565b610fd061237a565b610fda60006123ac565b565b3380610fe661209d565b6001600160a01b03161461101d5760405163118cdaa760e01b81526001600160a01b03821660048201526024015b60405180910390fd5b611026816123ac565b50565b60006110336121ba565b61103b612196565b6009018260405161104c9190613708565b90815260200160405180910390205490505b919050565b6000807f9016d09d72d40fdae2fd8ceac6b6234c7706214fd39c1cd1e609a0528c1993005b546001600160a01b031692915050565b60006110a2612161565b609b0154919050565b6110b36121ba565b6110bb61237a565b60006110c5612196565b905081518351146110f657825182516040516355c5b3e360e11b815260048101929092526024820152604401611014565b60005b835181101561128b5782818151811061111457611114613724565b60200260200101518260050185838151811061113257611132613724565b60200260200101516040516111479190613708565b908152602001604051809103902060006101000a8154816001600160a01b0302191690836001600160a01b0316021790555081600a01548260090185838151811061119457611194613724565b60200260200101516040516111a99190613708565b9081526020016040518091039020819055508381815181106111cd576111cd613724565b602002602001015182600701600084600a0154815260200190815260200160002090816111fa91906137c2565b507f73293df9496ecb6cf8b93101e8333c4e3add8400c974d542a34600d304c9224484828151811061122e5761122e613724565b602002602001015184838151811061124857611248613724565b602002602001015184600a015460405161126493929190613880565b60405180910390a1600a8201805490600061127e836138c4565b90915550506001016110f9565b50505050565b600061129b6121ba565b6112a3612196565b600401826040516112b49190613708565b908152604051908190036020019020546001600160a01b03169050919050565b6112dc6121ba565b6112e461237a565b806112ed612196565b60030180546001600160a01b0319166001600160a01b0392831617905560405190821681527fd6ceddf6d2a22f21c7c81675c518004eff43bc5c8a6fc32a0b748e69d58671cd906020015b60405180910390a150565b61134b612bfe565b611353612161565b5484146113995760405162461bcd60e51b8152602060048201526014602482015273092c8cadce8d2e8f240d2c840dad2e6dac2e8c6d60631b6044820152606401611014565b60006113a3612161565b604051630b1a9cd360e01b815260048101919091526024810185905273__$068aad146bf104111ba65c4a1de2cd0e23$__90630b1a9cd390604401606060405180830381865af41580156113fb573d6000803e3d6000fd5b505050506040513d601f19601f8201168201806040525081019061141f91906138dd565b604080516080810182528681528251602080830191909152830151818301529082015160608201529091506000611454612161565b6020840151604051630b2bcd1b60e11b815260048101929092526001600160401b0387166024830152604482015273__$068aad146bf104111ba65c4a1de2cd0e23$__906316579a3690606401600060405180830381865af41580156114be573d6000803e3d6000fd5b505050506040513d6000823e601f3d908101601f191682016040526114e691908101906136d4565b6040805161010081018252825181526020808401511515818301528284015182840152606080850151908301526080808501519083015260a08085015115159083015260c0808501519083015260e093840151938201939093528151808301909252938152908101929092525095945050505050565b6000611566612196565b90508251600214611597578251604051630264a11560e21b8152600481019190915260026024820152604401611014565b606080826006016000866000815181106115b3576115b3613724565b6020026020010151600001516001600160401b0316815260200190815260200160002080546115e19061373a565b80601f016020809104026020016040519081016040528092919081815260200182805461160d9061373a565b801561165a5780601f1061162f5761010080835404028352916020019161165a565b820191906000526020600020905b81548152906001019060200180831161163d57829003601f168201915b505050505091508260070160008660018151811061167a5761167a613724565b6020026020010151600001516001600160401b0316815260200190815260200160002080546116a89061373a565b80601f01602080910402602001604051908101604052809291908181526020018280546116d49061373a565b80156117215780601f106116f657610100808354040283529160200191611721565b820191906000526020600020905b81548152906001019060200180831161170457829003601f168201915b505050505090508151600003611775578460008151811061174457611744613724565b60209081029190910101515160405163ea99bbcd60e01b81526001600160401b039091166004820152602401611014565b80516000036117c2578460018151811061179157611791613724565b60209081029190910101515160405163138379c160e01b81526001600160401b039091166004820152602401611014565b600080600080886000815181106117db576117db613724565b6020026020010151602001518060200190518101906117fa919061396c565b9350935093509350600060405180608001604052808581526020018481526020018381526020016040518060c001604052808860008151811061183f5761183f613724565b602002602001015181526020018860018151811061185f5761185f613724565b602002602001015181526020018860028151811061187f5761187f613724565b602002602001015181526020018860038151811061189f5761189f613724565b60200260200101518152602001886004815181106118bf576118bf613724565b60200260200101518152602001886005815181106118df576118df613724565b602002602001015181525081525090506000806000808d60018151811061190857611908613724565b602002602001015160200151806020019051810190611927919061396c565b93509350935093506000604051806080016040528085815260200184815260200183815260200160405180606001604052808860008151811061196c5761196c613724565b602002602001015181526020018860018151811061198c5761198c613724565b60200260200101518152602001886002815181106119ac576119ac613724565b602002602001015181525081525090506119c88c878d846123e4565b505050505050505050505050505050565b6119e16121ba565b6119e961237a565b806119f2612196565b600101556040518181527ff007a02ba428e63fa98b65269e70f9a9db847e0a839049a2f31f06928226773490602001611338565b611a2e612bb5565b611a596040518060800160405280600081526020016000815260200160008152602001600081525090565b611a61612161565b604051636ad1d8a760e11b815260048101919091526024810184905273__$068aad146bf104111ba65c4a1de2cd0e23$__9063d5a3b14e90604401610972565b611aa9612bb5565b611ab1612161565b604051620cf08960e41b815260048101919091526024810183905273__$068aad146bf104111ba65c4a1de2cd0e23$__9062cf089090604401610c81565b611b1360405180606001604052806000815260200160008152602001600081525090565b611b1b612161565b604051630b1a9cd360e01b815260048101919091526024810183905273__$068aad146bf104111ba65c4a1de2cd0e23$__90630b1a9cd390604401606060405180830381865af4158015611b73573d6000803e3d6000fd5b505050506040513d601f19601f82011682018060405250810190610a7691906138dd565b611b9f6121ba565b611ba761237a565b6000611bb1612196565b90508151835114611be257825182516040516355c5b3e360e11b815260048101929092526024820152604401611014565b60005b835181101561128b57828181518110611c0057611c00613724565b602002602001015182600401858381518110611c1e57611c1e613724565b6020026020010151604051611c339190613708565b908152602001604051809103902060006101000a8154816001600160a01b0302191690836001600160a01b0316021790555081600a015482600801858381518110611c8057611c80613724565b6020026020010151604051611c959190613708565b908152602001604051809103902081905550838181518110611cb957611cb9613724565b602002602001015182600601600084600a015481526020019081526020016000209081611ce691906137c2565b507f17b20bbf8df0ff1422db2abe4b28c298e32929a2d112f027c3f68d488cf3cf74848281518110611d1a57611d1a613724565b6020026020010151848381518110611d3457611d34613724565b602002602001015184600a0154604051611d5093929190613880565b60405180910390a1600a82018054906000611d6a836138c4565b9091555050600101611be5565b611d7f6121ba565b611d8761237a565b80611d90612196565b556040518181527f7f7f3071c3c286700c199acae2fe071beb4a63dae1afff85186fa75d18090ae890602001611338565b611dc9612bb5565b611dd1612161565b6040516397ac539160e01b815260048101919091526024810183905273__$068aad146bf104111ba65c4a1de2cd0e23$__906397ac539190604401610c81565b6000611e1b612161565b609c0154919050565b6000611e2e6121ba565b611e36612196565b600501826040516112b49190613708565b6000611e516121ba565b611e59612196565b6008018260405161104c9190613708565b6060611e746121ba565b611e7c612196565b6000838152600691909101602052604090208054611e999061373a565b80601f0160208091040260200160405190810160405280929190818152602001828054611ec59061373a565b8015611f125780601f10611ee757610100808354040283529160200191611f12565b820191906000526020600020905b815481529060010190602001808311611ef557829003601f168201915b50505050509050919050565b611f2661237a565b6000611f30612196565b600083815260028201602052604090205490915060ff16611f935760405162461bcd60e51b815260206004820152601860248201527f4e756c6c696669657220646f6573206e6f7420657869737400000000000000006044820152606401611014565b600091825260020160205260409020805460ff19169055565b6000611fb6612161565b604051631e75e7f360e01b8152600481019190915273__$068aad146bf104111ba65c4a1de2cd0e23$__90631e75e7f3906024016109ff565b6060611ff96121ba565b612001612196565b6000838152600791909101602052604090208054611e999061373a565b60006120286121ba565b61203061237a565b612038612196565b54905090565b612046612bb5565b61204e612161565b604051630b2bcd1b60e11b815260048101919091526001600160401b03841660248201526044810183905273__$068aad146bf104111ba65c4a1de2cd0e23$__906316579a3690606401610d34565b6000807f237e158222e3e6968b72b9db0d8043aacf074ad9f650f0d1606b4d82ee432c00611088565b6120ce61237a565b7f237e158222e3e6968b72b9db0d8043aacf074ad9f650f0d1606b4d82ee432c0080546001600160a01b0319166001600160a01b0383169081178255612112611063565b6001600160a01b03167f38d16b8cac22d99fc7c124b9cd0de2d3fa1faef420bfe791d8c362d765e2270060405160405180910390a35050565b6000612155612161565b6002015460ff16919050565b7f3018a310c36c4f8228f09bf3b1822685cf0971daa8265a58ca807c4a4daba40090565b61218d612402565b6110268161244b565b7fd64ab600136c76c630ed81a54cc1acbcc213dadb956fdd8687dc5ebb0bb5f50090565b306001600160a01b037f000000000000000000000000000000000000000000000000000000000000000016148061224157507f00000000000000000000000000000000000000000000000000000000000000006001600160a01b0316612235600080516020613b54833981519152546001600160a01b031690565b6001600160a01b031614155b15610fda5760405163703e46dd60e11b815260040160405180910390fd5b6122676121ba565b61102661237a565b816001600160a01b03166352d1902d6040518163ffffffff1660e01b8152600401602060405180830381865afa9250505080156122c9575060408051601f3d908101601f191682019092526122c6918101906136bb565b60015b6122f157604051634c9c8ce360e01b81526001600160a01b0383166004820152602401611014565b600080516020613b54833981519152811461232257604051632a87526960e21b815260048101829052602401611014565b61232c838361247d565b505050565b306001600160a01b037f00000000000000000000000000000000000000000000000000000000000000001614610fda5760405163703e46dd60e11b815260040160405180910390fd5b33612383611063565b6001600160a01b031614610fda5760405163118cdaa760e01b8152336004820152602401611014565b7f237e158222e3e6968b72b9db0d8043aacf074ad9f650f0d1606b4d82ee432c0080546001600160a01b0319168155610f60826124d3565b6123ee8484612544565b6123f8828261263c565b61128b8382612735565b7ff0c57e16840df040f15088dc2f81fe391c3923bec73e23a9662efc9c229c6a0054600160401b900460ff16610fda57604051631afcd79f60e31b815260040160405180910390fd5b612453612402565b6001600160a01b03811661101d57604051631e4fbdf760e01b815260006004820152602401611014565b612486826127a3565b6040516001600160a01b038316907fbc7cd75a20ee27fd9adebab32041f755214dbc6bffa90cc0225b39da2e5c2d3b90600090a28051156124cb5761232c8282612808565b610f6061287e565b7f9016d09d72d40fdae2fd8ceac6b6234c7706214fd39c1cd1e609a0528c19930080546001600160a01b031981166001600160a01b03848116918217845560405192169182907f8be0079c531659141344cd1fd0a4f28419497f9722a3daafe3b4186f6b6457e090600090a3505050565b600061254e612196565b9050600081600401846040516125649190613708565b908152604051908190036020019020546001600160a01b031690508061259d576040516301dcf1ab60e31b815260040160405180910390fd5b806001600160a01b031663f398789b84600001518560200151866040015187606001516040518563ffffffff1660e01b81526004016125df9493929190613a77565b602060405180830381865afa1580156125fc573d6000803e3d6000fd5b505050506040513d601f19601f820116820180604052508101906126209190613ad4565b61128b576040516281723b60e21b815260040160405180910390fd5b6000612646612196565b90506000816005018460405161265c9190613708565b908152604051908190036020019020546001600160a01b0316905080612695576040516301dcf1ab60e31b815260040160405180910390fd5b806001600160a01b03166311479fea84600001518560200151866040015187606001516040518563ffffffff1660e01b81526004016126d79493929190613aef565b602060405180830381865afa1580156126f4573d6000803e3d6000fd5b505050506040513d601f19601f820116820180604052508101906127189190613ad4565b61128b576040516389fa585960e01b815260040160405180910390fd5b606082810151805160208083015183850151608085015160a08601516040968701519789015194850151855195909701519597939692959194909392916127838989898989888a898961289d565b61278c82612a4e565b6127968989612a75565b5050505050505050505050565b806001600160a01b03163b6000036127d957604051634c9c8ce360e01b81526001600160a01b0382166004820152602401611014565b600080516020613b5483398151915280546001600160a01b0319166001600160a01b0392909216919091179055565b6060600080846001600160a01b0316846040516128259190613708565b600060405180830381855af49150503d8060008114612860576040519150601f19603f3d011682016040523d82523d6000602084013e612865565b606091505b5091509150612875858383612b30565b95945050505050565b3415610fda5760405163b398979f60e01b815260040160405180910390fd5b60006128a7612196565b9050896000036128cd57604051631b1aad8760e11b8152600481018b9052602401611014565b886000036128f157604051634bdc991b60e11b8152600481018a9052602401611014565b8060010154861461292557600181015460405163e748379160e01b8152611014918891600401918252602082015260400190565b848414612952576040516001621d0d8360e21b031981526004810185905260248101869052604401611014565b6003810154604051639fc1e42360e01b8152600481018490526001600160a01b0390911690639fc1e42390602401602060405180830381865afa15801561299d573d6000803e3d6000fd5b505050506040513d601f19601f820116820180604052508101906129c19190613ad4565b6129de57604051634cb305bb60e01b815260040160405180910390fd5b805442906129ec9089613b40565b1015612a0d5760405162bd09f160e11b815260048101889052602401611014565b600083815260028201602052604090205460ff1615612a4257604051635377438b60e11b815260048101849052602401611014565b50505050505050505050565b6000612a58612196565b60009283526002016020525060409020805460ff19166001179055565b612a7d612161565b6040516306fb157560e01b81526004810191909152602481018390526044810182905273__$068aad146bf104111ba65c4a1de2cd0e23$__906306fb15759060640160006040518083038186803b158015612ad757600080fd5b505af4158015612aeb573d6000803e3d6000fd5b50505050612af7612161565b60405163175ba3e960e11b8152600481019190915273__$068aad146bf104111ba65c4a1de2cd0e23$__90632eb747d290602401610e96565b606082612b4557612b4082612b8c565b610d79565b8151158015612b5c57506001600160a01b0384163b155b15612b8557604051639996b31560e01b81526001600160a01b0385166004820152602401611014565b5080610d79565b805115612b9c5780518082602001fd5b60405163d6bda27560e01b815260040160405180910390fd5b6040518061010001604052806000815260200160001515815260200160608152602001600081526020016000815260200160001515815260200160008152602001600081525090565b6040518060400160405280612c346040518060800160405280600081526020016000815260200160008152602001600081525090565b8152602001612c856040518061010001604052806000815260200160001515815260200160608152602001600081526020016000815260200160001515815260200160008152602001600081525090565b905290565b80356001600160401b038116811461105e57600080fd5b600060208284031215612cb357600080fd5b610d7982612c8a565b805182526020808201511515818401526040808301516101009185018290528051918501829052600092019082906101208601905b80831015612d145783518252602082019150602084019350600183019250612cf1565b50606085015160608701526080850151608087015260a08501519250612d3e60a087018415159052565b60c085015160c087015260e085015160e087015280935050505092915050565b60a081526000612d7160a0830185612cbc565b9050610d796020830184805182526020810151602083015260408101516040830152606081015160608301525050565b600060208284031215612db357600080fd5b81356001600160e01b031981168114610d7957600080fd5b80356001600160a01b038116811461105e57600080fd5b634e487b7160e01b600052604160045260246000fd5b604051606081016001600160401b0381118282101715612e1a57612e1a612de2565b60405290565b60405161010081016001600160401b0381118282101715612e1a57612e1a612de2565b604051601f8201601f191681016001600160401b0381118282101715612e6b57612e6b612de2565b604052919050565b60006001600160401b03821115612e8c57612e8c612de2565b5060051b60200190565b600082601f830112612ea757600080fd5b8135602083016000806001600160401b03841115612ec757612ec7612de2565b50601f8301601f1916602001612edc81612e43565b915050828152858383011115612ef157600080fd5b82826020830137600092810160200192909252509392505050565b600082601f830112612f1d57600080fd5b8135612f30612f2b82612e73565b612e43565b8082825260208201915060208360051b860101925085831115612f5257600080fd5b602085015b83811015612f935780356001600160401b03811115612f7557600080fd5b612f84886020838a0101612e96565b84525060209283019201612f57565b5095945050505050565b600082601f830112612fae57600080fd5b8135612fbc612f2b82612e73565b8082825260208201915060208360051b860101925085831115612fde57600080fd5b602085015b83811015612f9357612ff481612dcb565b835260209283019201612fe3565b80356001600160f01b03198116811461105e57600080fd5b60008060008060008060008060006101208a8c03121561303957600080fd5b8935985060208a0135975061305060408b01612dcb565b965060608a01356001600160401b0381111561306b57600080fd5b6130778c828d01612f0c565b96505060808a01356001600160401b0381111561309357600080fd5b61309f8c828d01612f9d565b95505060a08a01356001600160401b038111156130bb57600080fd5b6130c78c828d01612f0c565b94505060c08a01356001600160401b038111156130e357600080fd5b6130ef8c828d01612f9d565b9350506130fe60e08b01612dcb565b915061310d6101008b01613002565b90509295985092959850929598565b6000806040838503121561312f57600080fd5b8235915061313f60208401612c8a565b90509250929050565b6020815261317b602082018351805182526020810151602083015260408101516040830152606081015160608301525050565b6000602083015160a080840152610c2560c0840182612cbc565b602081526000610d796020830184612cbc565b600080604083850312156131bb57600080fd5b50508035926020909101359150565b600080604083850312156131dd57600080fd5b6131e683612dcb565b915061313f60208401613002565b60006020828403121561320657600080fd5b5035919050565b6000806040838503121561322057600080fd5b61322983612dcb565b915060208301356001600160401b0381111561324457600080fd5b61325085828601612e96565b9150509250929050565b60006020828403121561326c57600080fd5b81356001600160401b0381111561328257600080fd5b610c2584828501612e96565b600080604083850312156132a157600080fd5b82356001600160401b038111156132b757600080fd5b6132c385828601612f0c565b92505060208301356001600160401b038111156132df57600080fd5b61325085828601612f9d565b6000602082840312156132fd57600080fd5b610d7982612dcb565b60008060006060848603121561331b57600080fd5b833592506020840135915061333260408501612c8a565b90509250925092565b60005b8381101561335657818101518382015260200161333e565b50506000910152565b6000815180845261337781602086016020860161333b565b601f01601f19169290920160200192915050565b602081526000610d79602083018461335f565b600080604083850312156133b157600080fd5b82356001600160401b038111156133c757600080fd5b8301601f810185136133d857600080fd5b80356133e6612f2b82612e73565b8082825260208201915060208360051b85010192508783111561340857600080fd5b602084015b838110156134c25780356001600160401b0381111561342b57600080fd5b85016060818b03601f1901121561344157600080fd5b613449612df8565b61345560208301612c8a565b815260408201356001600160401b0381111561347057600080fd5b61347f8c602083860101612e96565b60208301525060608201356001600160401b0381111561349e57600080fd5b6134ad8c602083860101612e96565b6040830152508452506020928301920161340d565b50945050505060208301356001600160401b0381111561324457600080fd5b600080604083850312156134f457600080fd5b6134fd83612c8a565b946020939093013593505050565b8051801515811461105e57600080fd5b600082601f83011261352c57600080fd5b815161353a612f2b82612e73565b8082825260208201915060208360051b86010192508583111561355c57600080fd5b602085015b83811015612f93578051835260209283019201613561565b6000610100828403121561358c57600080fd5b613594612e20565b8251815290506135a66020830161350b565b602082015260408201516001600160401b038111156135c457600080fd5b6135d08482850161351b565b60408301525060608281015190820152608080830151908201526135f660a0830161350b565b60a082015260c0828101519082015260e09182015191810191909152919050565b60008082840360a081121561362b57600080fd5b83516001600160401b0381111561364157600080fd5b61364d86828701613579565b9350506080601f198201121561366257600080fd5b50604051608081016001600160401b038111828210171561368557613685612de2565b60409081526020858101518352858201519083015260608086015191830191909152608090940151938101939093525092909150565b6000602082840312156136cd57600080fd5b5051919050565b6000602082840312156136e657600080fd5b81516001600160401b038111156136fc57600080fd5b610c2584828501613579565b6000825161371a81846020870161333b565b9190910192915050565b634e487b7160e01b600052603260045260246000fd5b600181811c9082168061374e57607f821691505b60208210810361376e57634e487b7160e01b600052602260045260246000fd5b50919050565b601f82111561232c57806000526020600020601f840160051c8101602085101561379b5750805b601f840160051c820191505b818110156137bb57600081556001016137a7565b5050505050565b81516001600160401b038111156137db576137db612de2565b6137ef816137e9845461373a565b84613774565b6020601f821160018114613823576000831561380b5750848201515b600019600385901b1c1916600184901b1784556137bb565b600084815260208120601f198516915b828110156138535787850151825560209485019460019092019101613833565b50848210156138715786840151600019600387901b60f8161c191681555b50505050600190811b01905550565b606081526000613893606083018661335f565b6001600160a01b039490941660208301525060400152919050565b634e487b7160e01b600052601160045260246000fd5b6000600182016138d6576138d66138ae565b5060010190565b600060608284031280156138f057600080fd5b506138f9612df8565b82518152602080840151908201526040928301519281019290925250919050565b600082601f83011261392b57600080fd5b6139356040612e43565b80604084018581111561394757600080fd5b845b81811015613961578051845260209384019301613949565b509095945050505050565b600080600080610120858703121561398357600080fd5b84516001600160401b0381111561399957600080fd5b6139a58782880161351b565b9450506139b5866020870161391a565b925085607f8601126139c657600080fd5b60406139d181612e43565b8060e08801898111156139e357600080fd5b606089015b81811015613a09576139fa8b8261391a565b845260209093019284016139e8565b50819550613a178a8261391a565b94505050505092959194509250565b8060005b600281101561128b578151845260209384019390910190600101613a2a565b8060005b600281101561128b57613a61848351613a26565b6040939093019260209190910190600101613a4d565b6101c08101613a868287613a26565b613a936040830186613a49565b613aa060c0830185613a26565b61010082018360005b6006811015613ac8578151835260209283019290910190600101613aa9565b50505095945050505050565b600060208284031215613ae657600080fd5b610d798261350b565b6101608101613afe8287613a26565b613b0b6040830186613a49565b613b1860c0830185613a26565b61010082018360005b6003811015613ac8578151835260209283019290910190600101613b21565b80820180821115610a7657610a766138ae56fe360894a13ba1a3210667c828492db98dca3e2076cc3735a920a3ca505d382bbca2646970667358221220e5e6ec83a711b83dd69c4aaab4655dc4dd2eef8b5e7fcd6cf1c9e3439e9fa1bc64736f6c634300081b0033",
  "linkReferences": {
    "@iden3/contracts/lib/IdentityLib.sol": {
      "IdentityLib": [
        {
          "length": 20,
          "start": 2641
        },
        {
          "length": 20,
          "start": 2782
        },
        {
          "length": 20,
          "start": 3424
        },
        {
          "length": 20,
          "start": 3603
        },
        {
          "length": 20,
          "start": 3762
        },
        {
          "length": 20,
          "start": 3848
        },
        {
          "length": 20,
          "start": 3957
        },
        {
          "length": 20,
          "start": 4128
        },
        {
          "length": 20,
          "start": 5310
        },
        {
          "length": 20,
          "start": 5505
        },
        {
          "length": 20,
          "start": 7036
        },
        {
          "length": 20,
          "start": 7115
        },
        {
          "length": 20,
          "start": 7222
        },
        {
          "length": 20,
          "start": 7916
        },
        {
          "length": 20,
          "start": 8394
        },
        {
          "length": 20,
          "start": 8568
        },
        {
          "length": 20,
          "start": 11167
        },
        {
          "length": 20,
          "start": 11275
        }
      ]
    }
  },
  "deployedLinkReferences": {
    "@iden3/contracts/lib/IdentityLib.sol": {
      "IdentityLib": [
        {
          "length": 20,
          "start": 2388
        },
        {
          "length": 20,
          "start": 2529
        },
        {
          "length": 20,
          "start": 3171
        },
        {
          "length": 20,
          "start": 3350
        },
        {
          "length": 20,
          "start": 3509
        },
        {
          "length": 20,
          "start": 3595
        },
        {
          "length": 20,
          "start": 3704
        },
        {
          "length": 20,
          "start": 3875
        },
        {
          "length": 20,
          "start": 5057
        },
        {
          "length": 20,
          "start": 5252
        },
        {
          "length": 20,
          "start": 6783
        },
        {
          "length": 20,
          "start": 6862
        },
        {
          "length": 20,
          "start": 6969
        },
        {
          "length": 20,
          "start": 7663
        },
        {
          "length": 20,
          "start": 8141
        },
        {
          "length": 20,
          "start": 8315
        },
        {
          "length": 20,
          "start": 10914
        },
        {
          "length": 20,
          "start": 11022
        }
      ]
    }
  }
}