{
  "_format": "hh-sol-artifact-1",
  "contractName": "PassportCredentialIssuerImplV1",
  "sourceName": "contracts/verifiers/PassportCredentialIssuerImplV1.sol",
  "abi": [
    {
      "inputs": [],
      "stateMutability": "nonpayable",
      "type": "constructor"
    },
    {
      "inputs": [
        {
          "internalType": "address",
          "name": "target",
          "type": "address"
        }
      ],
      "name": "AddressEmptyCode",
      "type": "error"
    },
    {
      "inputs": [
        {
          "internalType": "address",
          "name": "implementation",
          "type": "address"
        }
      ],
      "name": "ERC1967InvalidImplementation",
      "type": "error"
    },
    {
      "inputs": [],
      "name": "ERC1967NonPayable",
      "type": "error"
    },
    {
      "inputs": [],
      "name": "FailedCall",
      "type": "error"
    },
    {
      "inputs": [],
      "name": "InvalidCredentialProof",
      "type": "error"
    },
    {
      "inputs": [
        {
          "internalType": "uint256",
          "name": "hashIndex",
          "type": "uint256"
        }
      ],
      "name": "InvalidHashIndex",
      "type": "error"
    },
    {
      "inputs": [
        {
          "internalType": "uint256",
          "name": "hashValue",
          "type": "uint256"
        }
      ],
      "name": "InvalidHashValue",
      "type": "error"
    },
    {
      "inputs": [],
      "name": "InvalidInitialization",
      "type": "error"
    },
    {
      "inputs": [
        {
          "internalType": "uint256",
          "name": "linkId1",
          "type": "uint256"
        },
        {
          "internalType": "uint256",
          "name": "linkId2",
          "type": "uint256"
        }
      ],
      "name": "InvalidLinkId",
      "type": "error"
    },
    {
      "inputs": [
        {
          "internalType": "uint256",
          "name": "length",
          "type": "uint256"
        },
        {
          "internalType": "uint256",
          "name": "expectedLength",
          "type": "uint256"
        }
      ],
      "name": "InvalidResponsesLength",
      "type": "error"
    },
    {
      "inputs": [],
      "name": "InvalidSignatureProof",
      "type": "error"
    },
    {
      "inputs": [
        {
          "internalType": "uint256",
          "name": "templateRoot",
          "type": "uint256"
        },
        {
          "internalType": "uint256",
          "name": "expectedTemplateRoot",
          "type": "uint256"
        }
      ],
      "name": "InvalidTemplateRoot",
      "type": "error"
    },
    {
      "inputs": [
        {
          "internalType": "uint256",
          "name": "issuanceDate",
          "type": "uint256"
        }
      ],
      "name": "IssuanceDateExpired",
      "type": "error"
    },
    {
      "inputs": [
        {
          "internalType": "uint256",
          "name": "length1",
          "type": "uint256"
        },
        {
          "internalType": "uint256",
          "name": "length2",
          "type": "uint256"
        }
      ],
      "name": "LengthMismatch",
      "type": "error"
    },
    {
      "inputs": [
        {
          "internalType": "uint256",
          "name": "requestId",
          "type": "uint256"
        }
      ],
      "name": "NoCredentialCircuitForRequestId",
      "type": "error"
    },
    {
      "inputs": [
        {
          "internalType": "uint256",
          "name": "requestId",
          "type": "uint256"
        }
      ],
      "name": "NoSignatureCircuitForRequestId",
      "type": "error"
    },
    {
      "inputs": [],
      "name": "NoVerifierSet",
      "type": "error"
    },
    {
      "inputs": [],
      "name": "NotInitializing",
      "type": "error"
    },
    {
      "inputs": [
        {
          "internalType": "uint256",
          "name": "nullifier",
          "type": "uint256"
        }
      ],
      "name": "NullifierAlreadyExists",
      "type": "error"
    },
    {
      "inputs": [
        {
          "internalType": "address",
          "name": "owner",
          "type": "address"
        }
      ],
      "name": "OwnableInvalidOwner",
      "type": "error"
    },
    {
      "inputs": [
        {
          "internalType": "address",
          "name": "account",
          "type": "address"
        }
      ],
      "name": "OwnableUnauthorizedAccount",
      "type": "error"
    },
    {
      "inputs": [],
      "name": "UUPSUnauthorizedCallContext",
      "type": "error"
    },
    {
      "inputs": [
        {
          "internalType": "bytes32",
          "name": "slot",
          "type": "bytes32"
        }
      ],
      "name": "UUPSUnsupportedProxiableUUID",
      "type": "error"
    },
    {
      "anonymous": false,
      "inputs": [
        {
          "indexed": false,
          "internalType": "string",
          "name": "circuitId",
          "type": "string"
        },
        {
          "indexed": false,
          "internalType": "address",
          "name": "verifier",
          "type": "address"
        }
      ],
      "name": "CredentialCircuitVerifierUpdated",
      "type": "event"
    },
    {
      "anonymous": false,
      "inputs": [
        {
          "indexed": false,
          "internalType": "uint256",
          "name": "requestId",
          "type": "uint256"
        },
        {
          "indexed": false,
          "internalType": "string",
          "name": "circuitId",
          "type": "string"
        }
      ],
      "name": "CredentialRequestIdToCircuitIdUpdated",
      "type": "event"
    },
    {
      "anonymous": false,
      "inputs": [
        {
          "indexed": false,
          "internalType": "uint256",
          "name": "expirationTime",
          "type": "uint256"
        }
      ],
      "name": "ExpirationTimeUpdated",
      "type": "event"
    },
    {
      "anonymous": false,
      "inputs": [
        {
          "indexed": false,
          "internalType": "uint64",
          "name": "version",
          "type": "uint64"
        }
      ],
      "name": "Initialized",
      "type": "event"
    },
    {
      "anonymous": false,
      "inputs": [
        {
          "indexed": true,
          "internalType": "address",
          "name": "previousOwner",
          "type": "address"
        },
        {
          "indexed": true,
          "internalType": "address",
          "name": "newOwner",
          "type": "address"
        }
      ],
      "name": "OwnershipTransferStarted",
      "type": "event"
    },
    {
      "anonymous": false,
      "inputs": [
        {
          "indexed": true,
          "internalType": "address",
          "name": "previousOwner",
          "type": "address"
        },
        {
          "indexed": true,
          "internalType": "address",
          "name": "newOwner",
          "type": "address"
        }
      ],
      "name": "OwnershipTransferred",
      "type": "event"
    },
    {
      "anonymous": false,
      "inputs": [
        {
          "indexed": false,
          "internalType": "address",
          "name": "registry",
          "type": "address"
        }
      ],
      "name": "RegistryUpdated",
      "type": "event"
    },
    {
      "anonymous": false,
      "inputs": [
        {
          "indexed": false,
          "internalType": "string",
          "name": "circuitId",
          "type": "string"
        },
        {
          "indexed": false,
          "internalType": "address",
          "name": "verifier",
          "type": "address"
        }
      ],
      "name": "SignatureCircuitVerifierUpdated",
      "type": "event"
    },
    {
      "anonymous": false,
      "inputs": [
        {
          "indexed": false,
          "internalType": "uint256",
          "name": "requestId",
          "type": "uint256"
        },
        {
          "indexed": false,
          "internalType": "string",
          "name": "circuitId",
          "type": "string"
        }
      ],
      "name": "SignatureRequestIdToCircuitIdUpdated",
      "type": "event"
    },
    {
      "anonymous": false,
      "inputs": [
        {
          "indexed": false,
          "internalType": "uint256",
          "name": "tampletRoot",
          "type": "uint256"
        }
      ],
      "name": "TemplateRootUpdated",
      "type": "event"
    },
    {
      "anonymous": false,
      "inputs": [
        {
          "indexed": true,
          "internalType": "address",
          "name": "implementation",
          "type": "address"
        }
      ],
      "name": "Upgraded",
      "type": "event"
    },
    {
      "inputs": [],
      "name": "UPGRADE_INTERFACE_VERSION",
      "outputs": [
        {
          "internalType": "string",
          "name": "",
          "type": "string"
        }
      ],
      "stateMutability": "view",
      "type": "function"
    },
    {
      "inputs": [],
      "name": "VERSION",
      "outputs": [
        {
          "internalType": "string",
          "name": "",
          "type": "string"
        }
      ],
      "stateMutability": "view",
      "type": "function"
    },
    {
      "inputs": [],
      "name": "acceptOwnership",
      "outputs": [],
      "stateMutability": "nonpayable",
      "type": "function"
    },
    {
      "inputs": [
        {
          "internalType": "uint256",
          "name": "nullifier",
          "type": "uint256"
        }
      ],
      "name": "cleanNullifier",
      "outputs": [],
      "stateMutability": "nonpayable",
      "type": "function"
    },
    {
      "inputs": [
        {
          "internalType": "uint256",
          "name": "requestId",
          "type": "uint256"
        }
      ],
      "name": "credentialRequestIdToCircuitIds",
      "outputs": [
        {
          "internalType": "string",
          "name": "",
          "type": "string"
        }
      ],
      "stateMutability": "view",
      "type": "function"
    },
    {
      "inputs": [
        {
          "internalType": "string",
          "name": "circuitId",
          "type": "string"
        }
      ],
      "name": "credentialVerifiers",
      "outputs": [
        {
          "internalType": "address",
          "name": "",
          "type": "address"
        }
      ],
      "stateMutability": "view",
      "type": "function"
    },
    {
      "inputs": [
        {
          "internalType": "uint256",
          "name": "claimIndexHash",
          "type": "uint256"
        }
      ],
      "name": "getClaimProof",
      "outputs": [
        {
          "components": [
            {
              "internalType": "uint256",
              "name": "root",
              "type": "uint256"
            },
            {
              "internalType": "bool",
              "name": "existence",
              "type": "bool"
            },
            {
              "internalType": "uint256[]",
              "name": "siblings",
              "type": "uint256[]"
            },
            {
              "internalType": "uint256",
              "name": "index",
              "type": "uint256"
            },
            {
              "internalType": "uint256",
              "name": "value",
              "type": "uint256"
            },
            {
              "internalType": "bool",
              "name": "auxExistence",
              "type": "bool"
            },
            {
              "internalType": "uint256",
              "name": "auxIndex",
              "type": "uint256"
            },
            {
              "internalType": "uint256",
              "name": "auxValue",
              "type": "uint256"
            }
          ],
          "internalType": "struct SmtLib.Proof",
          "name": "",
          "type": "tuple"
        }
      ],
      "stateMutability": "view",
      "type": "function"
    },
    {
      "inputs": [
        {
          "internalType": "uint256",
          "name": "claimIndexHash",
          "type": "uint256"
        },
        {
          "internalType": "uint256",
          "name": "root",
          "type": "uint256"
        }
      ],
      "name": "getClaimProofByRoot",
      "outputs": [
        {
          "components": [
            {
              "internalType": "uint256",
              "name": "root",
              "type": "uint256"
            },
            {
              "internalType": "bool",
              "name": "existence",
              "type": "bool"
            },
            {
              "internalType": "uint256[]",
              "name": "siblings",
              "type": "uint256[]"
            },
            {
              "internalType": "uint256",
              "name": "index",
              "type": "uint256"
            },
            {
              "internalType": "uint256",
              "name": "value",
              "type": "uint256"
            },
            {
              "internalType": "bool",
              "name": "auxExistence",
              "type": "bool"
            },
            {
              "internalType": "uint256",
              "name": "auxIndex",
              "type": "uint256"
            },
            {
              "internalType": "uint256",
              "name": "auxValue",
              "type": "uint256"
            }
          ],
          "internalType": "struct SmtLib.Proof",
          "name": "",
          "type": "tuple"
        }
      ],
      "stateMutability": "view",
      "type": "function"
    },
    {
      "inputs": [
        {
          "internalType": "uint256",
          "name": "claimIndexHash",
          "type": "uint256"
        }
      ],
      "name": "getClaimProofWithStateInfo",
      "outputs": [
        {
          "components": [
            {
              "internalType": "uint256",
              "name": "root",
              "type": "uint256"
            },
            {
              "internalType": "bool",
              "name": "existence",
              "type": "bool"
            },
            {
              "internalType": "uint256[]",
              "name": "siblings",
              "type": "uint256[]"
            },
            {
              "internalType": "uint256",
              "name": "index",
              "type": "uint256"
            },
            {
              "internalType": "uint256",
              "name": "value",
              "type": "uint256"
            },
            {
              "internalType": "bool",
              "name": "auxExistence",
              "type": "bool"
            },
            {
              "internalType": "uint256",
              "name": "auxIndex",
              "type": "uint256"
            },
            {
              "internalType": "uint256",
              "name": "auxValue",
              "type": "uint256"
            }
          ],
          "internalType": "struct SmtLib.Proof",
          "name": "",
          "type": "tuple"
        },
        {
          "components": [
            {
              "internalType": "uint256",
              "name": "state",
              "type": "uint256"
            },
            {
              "internalType": "uint256",
              "name": "claimsRoot",
              "type": "uint256"
            },
            {
              "internalType": "uint256",
              "name": "revocationsRoot",
              "type": "uint256"
            },
            {
              "internalType": "uint256",
              "name": "rootsRoot",
              "type": "uint256"
            }
          ],
          "internalType": "struct IdentityLib.StateInfo",
          "name": "",
          "type": "tuple"
        }
      ],
      "stateMutability": "view",
      "type": "function"
    },
    {
      "inputs": [],
      "name": "getClaimsTreeRoot",
      "outputs": [
        {
          "internalType": "uint256",
          "name": "",
          "type": "uint256"
        }
      ],
      "stateMutability": "view",
      "type": "function"
    },
    {
      "inputs": [],
      "name": "getExpirationTime",
      "outputs": [
        {
          "internalType": "uint256",
          "name": "",
          "type": "uint256"
        }
      ],
      "stateMutability": "view",
      "type": "function"
    },
    {
      "inputs": [],
      "name": "getId",
      "outputs": [
        {
          "internalType": "uint256",
          "name": "",
          "type": "uint256"
        }
      ],
      "stateMutability": "view",
      "type": "function"
    },
    {
      "inputs": [],
      "name": "getIsOldStateGenesis",
      "outputs": [
        {
          "internalType": "bool",
          "name": "",
          "type": "bool"
        }
      ],
      "stateMutability": "view",
      "type": "function"
    },
    {
      "inputs": [],
      "name": "getLatestPublishedClaimsRoot",
      "outputs": [
        {
          "internalType": "uint256",
          "name": "",
          "type": "uint256"
        }
      ],
      "stateMutability": "view",
      "type": "function"
    },
    {
      "inputs": [],
      "name": "getLatestPublishedRevocationsRoot",
      "outputs": [
        {
          "internalType": "uint256",
          "name": "",
          "type": "uint256"
        }
      ],
      "stateMutability": "view",
      "type": "function"
    },
    {
      "inputs": [],
      "name": "getLatestPublishedRootsRoot",
      "outputs": [
        {
          "internalType": "uint256",
          "name": "",
          "type": "uint256"
        }
      ],
      "stateMutability": "view",
      "type": "function"
    },
    {
      "inputs": [],
      "name": "getLatestPublishedState",
      "outputs": [
        {
          "internalType": "uint256",
          "name": "",
          "type": "uint256"
        }
      ],
      "stateMutability": "view",
      "type": "function"
    },
    {
      "inputs": [],
      "name": "getRegistry",
      "outputs": [
        {
          "internalType": "address",
          "name": "",
          "type": "address"
        }
      ],
      "stateMutability": "view",
      "type": "function"
    },
    {
      "inputs": [
        {
          "internalType": "uint64",
          "name": "revocationNonce",
          "type": "uint64"
        }
      ],
      "name": "getRevocationProof",
      "outputs": [
        {
          "components": [
            {
              "internalType": "uint256",
              "name": "root",
              "type": "uint256"
            },
            {
              "internalType": "bool",
              "name": "existence",
              "type": "bool"
            },
            {
              "internalType": "uint256[]",
              "name": "siblings",
              "type": "uint256[]"
            },
            {
              "internalType": "uint256",
              "name": "index",
              "type": "uint256"
            },
            {
              "internalType": "uint256",
              "name": "value",
              "type": "uint256"
            },
            {
              "internalType": "bool",
              "name": "auxExistence",
              "type": "bool"
            },
            {
              "internalType": "uint256",
              "name": "auxIndex",
              "type": "uint256"
            },
            {
              "internalType": "uint256",
              "name": "auxValue",
              "type": "uint256"
            }
          ],
          "internalType": "struct SmtLib.Proof",
          "name": "",
          "type": "tuple"
        }
      ],
      "stateMutability": "view",
      "type": "function"
    },
    {
      "inputs": [
        {
          "internalType": "uint64",
          "name": "revocationNonce",
          "type": "uint64"
        },
        {
          "internalType": "uint256",
          "name": "root",
          "type": "uint256"
        }
      ],
      "name": "getRevocationProofByRoot",
      "outputs": [
        {
          "components": [
            {
              "internalType": "uint256",
              "name": "root",
              "type": "uint256"
            },
            {
              "internalType": "bool",
              "name": "existence",
              "type": "bool"
            },
            {
              "internalType": "uint256[]",
              "name": "siblings",
              "type": "uint256[]"
            },
            {
              "internalType": "uint256",
              "name": "index",
              "type": "uint256"
            },
            {
              "internalType": "uint256",
              "name": "value",
              "type": "uint256"
            },
            {
              "internalType": "bool",
              "name": "auxExistence",
              "type": "bool"
            },
            {
              "internalType": "uint256",
              "name": "auxIndex",
              "type": "uint256"
            },
            {
              "internalType": "uint256",
              "name": "auxValue",
              "type": "uint256"
            }
          ],
          "internalType": "struct SmtLib.Proof",
          "name": "",
          "type": "tuple"
        }
      ],
      "stateMutability": "view",
      "type": "function"
    },
    {
      "inputs": [
        {
          "internalType": "uint64",
          "name": "revocationNonce",
          "type": "uint64"
        }
      ],
      "name": "getRevocationProofWithStateInfo",
      "outputs": [
        {
          "components": [
            {
              "internalType": "uint256",
              "name": "root",
              "type": "uint256"
            },
            {
              "internalType": "bool",
              "name": "existence",
              "type": "bool"
            },
            {
              "internalType": "uint256[]",
              "name": "siblings",
              "type": "uint256[]"
            },
            {
              "internalType": "uint256",
              "name": "index",
              "type": "uint256"
            },
            {
              "internalType": "uint256",
              "name": "value",
              "type": "uint256"
            },
            {
              "internalType": "bool",
              "name": "auxExistence",
              "type": "bool"
            },
            {
              "internalType": "uint256",
              "name": "auxIndex",
              "type": "uint256"
            },
            {
              "internalType": "uint256",
              "name": "auxValue",
              "type": "uint256"
            }
          ],
          "internalType": "struct SmtLib.Proof",
          "name": "",
          "type": "tuple"
        },
        {
          "components": [
            {
              "internalType": "uint256",
              "name": "state",
              "type": "uint256"
            },
            {
              "internalType": "uint256",
              "name": "claimsRoot",
              "type": "uint256"
            },
            {
              "internalType": "uint256",
              "name": "revocationsRoot",
              "type": "uint256"
            },
            {
              "internalType": "uint256",
              "name": "rootsRoot",
              "type": "uint256"
            }
          ],
          "internalType": "struct IdentityLib.StateInfo",
          "name": "",
          "type": "tuple"
        }
      ],
      "stateMutability": "view",
      "type": "function"
    },
    {
      "inputs": [
        {
          "internalType": "uint256",
          "name": "id",
          "type": "uint256"
        },
        {
          "internalType": "uint64",
          "name": "nonce",
          "type": "uint64"
        }
      ],
      "name": "getRevocationStatus",
      "outputs": [
        {
          "components": [
            {
              "components": [
                {
                  "internalType": "uint256",
                  "name": "state",
                  "type": "uint256"
                },
                {
                  "internalType": "uint256",
                  "name": "claimsTreeRoot",
                  "type": "uint256"
                },
                {
                  "internalType": "uint256",
                  "name": "revocationTreeRoot",
                  "type": "uint256"
                },
                {
                  "internalType": "uint256",
                  "name": "rootOfRoots",
                  "type": "uint256"
                }
              ],
              "internalType": "struct IOnchainCredentialStatusResolver.IdentityStateRoots",
              "name": "issuer",
              "type": "tuple"
            },
            {
              "components": [
                {
                  "internalType": "uint256",
                  "name": "root",
                  "type": "uint256"
                },
                {
                  "internalType": "bool",
                  "name": "existence",
                  "type": "bool"
                },
                {
                  "internalType": "uint256[]",
                  "name": "siblings",
                  "type": "uint256[]"
                },
                {
                  "internalType": "uint256",
                  "name": "index",
                  "type": "uint256"
                },
                {
                  "internalType": "uint256",
                  "name": "value",
                  "type": "uint256"
                },
                {
                  "internalType": "bool",
                  "name": "auxExistence",
                  "type": "bool"
                },
                {
                  "internalType": "uint256",
                  "name": "auxIndex",
                  "type": "uint256"
                },
                {
                  "internalType": "uint256",
                  "name": "auxValue",
                  "type": "uint256"
                }
              ],
              "internalType": "struct IOnchainCredentialStatusResolver.Proof",
              "name": "mtp",
              "type": "tuple"
            }
          ],
          "internalType": "struct IOnchainCredentialStatusResolver.CredentialStatus",
          "name": "",
          "type": "tuple"
        }
      ],
      "stateMutability": "view",
      "type": "function"
    },
    {
      "inputs": [
        {
          "internalType": "uint256",
          "name": "id",
          "type": "uint256"
        },
        {
          "internalType": "uint256",
          "name": "state",
          "type": "uint256"
        },
        {
          "internalType": "uint64",
          "name": "nonce",
          "type": "uint64"
        }
      ],
      "name": "getRevocationStatusByIdAndState",
      "outputs": [
        {
          "components": [
            {
              "components": [
                {
                  "internalType": "uint256",
                  "name": "state",
                  "type": "uint256"
                },
                {
                  "internalType": "uint256",
                  "name": "claimsTreeRoot",
                  "type": "uint256"
                },
                {
                  "internalType": "uint256",
                  "name": "revocationTreeRoot",
                  "type": "uint256"
                },
                {
                  "internalType": "uint256",
                  "name": "rootOfRoots",
                  "type": "uint256"
                }
              ],
              "internalType": "struct IOnchainCredentialStatusResolver.IdentityStateRoots",
              "name": "issuer",
              "type": "tuple"
            },
            {
              "components": [
                {
                  "internalType": "uint256",
                  "name": "root",
                  "type": "uint256"
                },
                {
                  "internalType": "bool",
                  "name": "existence",
                  "type": "bool"
                },
                {
                  "internalType": "uint256[]",
                  "name": "siblings",
                  "type": "uint256[]"
                },
                {
                  "internalType": "uint256",
                  "name": "index",
                  "type": "uint256"
                },
                {
                  "internalType": "uint256",
                  "name": "value",
                  "type": "uint256"
                },
                {
                  "internalType": "bool",
                  "name": "auxExistence",
                  "type": "bool"
                },
                {
                  "internalType": "uint256",
                  "name": "auxIndex",
                  "type": "uint256"
                },
                {
                  "internalType": "uint256",
                  "name": "auxValue",
                  "type": "uint256"
                }
              ],
              "internalType": "struct IOnchainCredentialStatusResolver.Proof",
              "name": "mtp",
              "type": "tuple"
            }
          ],
          "internalType": "struct IOnchainCredentialStatusResolver.CredentialStatus",
          "name": "",
          "type": "tuple"
        }
      ],
      "stateMutability": "view",
      "type": "function"
    },
    {
      "inputs": [],
      "name": "getRevocationsTreeRoot",
      "outputs": [
        {
          "internalType": "uint256",
          "name": "",
          "type": "uint256"
        }
      ],
      "stateMutability": "view",
      "type": "function"
    },
    {
      "inputs": [
        {
          "internalType": "uint256",
          "name": "rootsTreeRoot",
          "type": "uint256"
        }
      ],
      "name": "getRootProof",
      "outputs": [
        {
          "components": [
            {
              "internalType": "uint256",
              "name": "root",
              "type": "uint256"
            },
            {
              "internalType": "bool",
              "name": "existence",
              "type": "bool"
            },
            {
              "internalType": "uint256[]",
              "name": "siblings",
              "type": "uint256[]"
            },
            {
              "internalType": "uint256",
              "name": "index",
              "type": "uint256"
            },
            {
              "internalType": "uint256",
              "name": "value",
              "type": "uint256"
            },
            {
              "internalType": "bool",
              "name": "auxExistence",
              "type": "bool"
            },
            {
              "internalType": "uint256",
              "name": "auxIndex",
              "type": "uint256"
            },
            {
              "internalType": "uint256",
              "name": "auxValue",
              "type": "uint256"
            }
          ],
          "internalType": "struct SmtLib.Proof",
          "name": "",
          "type": "tuple"
        }
      ],
      "stateMutability": "view",
      "type": "function"
    },
    {
      "inputs": [
        {
          "internalType": "uint256",
          "name": "claimsTreeRoot",
          "type": "uint256"
        },
        {
          "internalType": "uint256",
          "name": "root",
          "type": "uint256"
        }
      ],
      "name": "getRootProofByRoot",
      "outputs": [
        {
          "components": [
            {
              "internalType": "uint256",
              "name": "root",
              "type": "uint256"
            },
            {
              "internalType": "bool",
              "name": "existence",
              "type": "bool"
            },
            {
              "internalType": "uint256[]",
              "name": "siblings",
              "type": "uint256[]"
            },
            {
              "internalType": "uint256",
              "name": "index",
              "type": "uint256"
            },
            {
              "internalType": "uint256",
              "name": "value",
              "type": "uint256"
            },
            {
              "internalType": "bool",
              "name": "auxExistence",
              "type": "bool"
            },
            {
              "internalType": "uint256",
              "name": "auxIndex",
              "type": "uint256"
            },
            {
              "internalType": "uint256",
              "name": "auxValue",
              "type": "uint256"
            }
          ],
          "internalType": "struct SmtLib.Proof",
          "name": "",
          "type": "tuple"
        }
      ],
      "stateMutability": "view",
      "type": "function"
    },
    {
      "inputs": [
        {
          "internalType": "uint256",
          "name": "rootsTreeRoot",
          "type": "uint256"
        }
      ],
      "name": "getRootProofWithStateInfo",
      "outputs": [
        {
          "components": [
            {
              "internalType": "uint256",
              "name": "root",
              "type": "uint256"
            },
            {
              "internalType": "bool",
              "name": "existence",
              "type": "bool"
            },
            {
              "internalType": "uint256[]",
              "name": "siblings",
              "type": "uint256[]"
            },
            {
              "internalType": "uint256",
              "name": "index",
              "type": "uint256"
            },
            {
              "internalType": "uint256",
              "name": "value",
              "type": "uint256"
            },
            {
              "internalType": "bool",
              "name": "auxExistence",
              "type": "bool"
            },
            {
              "internalType": "uint256",
              "name": "auxIndex",
              "type": "uint256"
            },
            {
              "internalType": "uint256",
              "name": "auxValue",
              "type": "uint256"
            }
          ],
          "internalType": "struct SmtLib.Proof",
          "name": "",
          "type": "tuple"
        },
        {
          "components": [
            {
              "internalType": "uint256",
              "name": "state",
              "type": "uint256"
            },
            {
              "internalType": "uint256",
              "name": "claimsRoot",
              "type": "uint256"
            },
            {
              "internalType": "uint256",
              "name": "revocationsRoot",
              "type": "uint256"
            },
            {
              "internalType": "uint256",
              "name": "rootsRoot",
              "type": "uint256"
            }
          ],
          "internalType": "struct IdentityLib.StateInfo",
          "name": "",
          "type": "tuple"
        }
      ],
      "stateMutability": "view",
      "type": "function"
    },
    {
      "inputs": [
        {
          "internalType": "uint256",
          "name": "state",
          "type": "uint256"
        }
      ],
      "name": "getRootsByState",
      "outputs": [
        {
          "components": [
            {
              "internalType": "uint256",
              "name": "claimsRoot",
              "type": "uint256"
            },
            {
              "internalType": "uint256",
              "name": "revocationsRoot",
              "type": "uint256"
            },
            {
              "internalType": "uint256",
              "name": "rootsRoot",
              "type": "uint256"
            }
          ],
          "internalType": "struct IdentityLib.Roots",
          "name": "",
          "type": "tuple"
        }
      ],
      "stateMutability": "view",
      "type": "function"
    },
    {
      "inputs": [],
      "name": "getRootsTreeRoot",
      "outputs": [
        {
          "internalType": "uint256",
          "name": "",
          "type": "uint256"
        }
      ],
      "stateMutability": "view",
      "type": "function"
    },
    {
      "inputs": [],
      "name": "getSmtDepth",
      "outputs": [
        {
          "internalType": "uint256",
          "name": "",
          "type": "uint256"
        }
      ],
      "stateMutability": "pure",
      "type": "function"
    },
    {
      "inputs": [],
      "name": "getTemplateRoot",
      "outputs": [
        {
          "internalType": "uint256",
          "name": "",
          "type": "uint256"
        }
      ],
      "stateMutability": "view",
      "type": "function"
    },
    {
      "inputs": [
        {
          "internalType": "address",
          "name": "_stateContractAddr",
          "type": "address"
        },
        {
          "internalType": "bytes2",
          "name": "idType",
          "type": "bytes2"
        }
      ],
      "name": "initialize",
      "outputs": [],
      "stateMutability": "nonpayable",
      "type": "function"
    },
    {
      "inputs": [
        {
          "internalType": "uint256",
          "name": "expirationTime",
          "type": "uint256"
        },
        {
          "internalType": "uint256",
          "name": "templateRoot",
          "type": "uint256"
        },
        {
          "internalType": "address",
          "name": "registry",
          "type": "address"
        },
        {
          "internalType": "string[]",
          "name": "credentialCircuitIds",
          "type": "string[]"
        },
        {
          "internalType": "address[]",
          "name": "credentialVerifierAddresses",
          "type": "address[]"
        },
        {
          "internalType": "string[]",
          "name": "signatureCircuitIds",
          "type": "string[]"
        },
        {
          "internalType": "address[]",
          "name": "signatureVerifierAddresses",
          "type": "address[]"
        },
        {
          "internalType": "address",
          "name": "stateAddress",
          "type": "address"
        },
        {
          "internalType": "bytes2",
          "name": "idType",
          "type": "bytes2"
        }
      ],
      "name": "initializeIssuer",
      "outputs": [],
      "stateMutability": "nonpayable",
      "type": "function"
    },
    {
      "inputs": [],
      "name": "owner",
      "outputs": [
        {
          "internalType": "address",
          "name": "",
          "type": "address"
        }
      ],
      "stateMutability": "view",
      "type": "function"
    },
    {
      "inputs": [],
      "name": "pendingOwner",
      "outputs": [
        {
          "internalType": "address",
          "name": "",
          "type": "address"
        }
      ],
      "stateMutability": "view",
      "type": "function"
    },
    {
      "inputs": [],
      "name": "proxiableUUID",
      "outputs": [
        {
          "internalType": "bytes32",
          "name": "",
          "type": "bytes32"
        }
      ],
      "stateMutability": "view",
      "type": "function"
    },
    {
      "inputs": [],
      "name": "renounceOwnership",
      "outputs": [],
      "stateMutability": "nonpayable",
      "type": "function"
    },
    {
      "inputs": [
        {
          "internalType": "uint256",
          "name": "expirationTime",
          "type": "uint256"
        }
      ],
      "name": "setExpirationTime",
      "outputs": [],
      "stateMutability": "nonpayable",
      "type": "function"
    },
    {
      "inputs": [
        {
          "internalType": "address",
          "name": "registry",
          "type": "address"
        }
      ],
      "name": "setRegistry",
      "outputs": [],
      "stateMutability": "nonpayable",
      "type": "function"
    },
    {
      "inputs": [
        {
          "internalType": "uint256",
          "name": "templateRoot",
          "type": "uint256"
        }
      ],
      "name": "setTemplateRoot",
      "outputs": [],
      "stateMutability": "nonpayable",
      "type": "function"
    },
    {
      "inputs": [
        {
          "internalType": "uint256",
          "name": "requestId",
          "type": "uint256"
        }
      ],
      "name": "signatureRequestIdToCircuitIds",
      "outputs": [
        {
          "internalType": "string",
          "name": "",
          "type": "string"
        }
      ],
      "stateMutability": "view",
      "type": "function"
    },
    {
      "inputs": [
        {
          "internalType": "string",
          "name": "circuitId",
          "type": "string"
        }
      ],
      "name": "signatureVerifiers",
      "outputs": [
        {
          "internalType": "address",
          "name": "",
          "type": "address"
        }
      ],
      "stateMutability": "view",
      "type": "function"
    },
    {
      "inputs": [
        {
          "components": [
            {
              "internalType": "uint64",
              "name": "requestId",
              "type": "uint64"
            },
            {
              "internalType": "bytes",
              "name": "zkProof",
              "type": "bytes"
            },
            {
              "internalType": "bytes",
              "name": "data",
              "type": "bytes"
            }
          ],
          "internalType": "struct IZKPVerifier.ZKPResponse[]",
          "name": "responses",
          "type": "tuple[]"
        },
        {
          "internalType": "bytes",
          "name": "crossChainProofs",
          "type": "bytes"
        }
      ],
      "name": "submitZKPResponseV2",
      "outputs": [],
      "stateMutability": "nonpayable",
      "type": "function"
    },
    {
      "inputs": [
        {
          "internalType": "bytes4",
          "name": "interfaceId",
          "type": "bytes4"
        }
      ],
      "name": "supportsInterface",
      "outputs": [
        {
          "internalType": "bool",
          "name": "",
          "type": "bool"
        }
      ],
      "stateMutability": "view",
      "type": "function"
    },
    {
      "inputs": [
        {
          "internalType": "address",
          "name": "newOwner",
          "type": "address"
        }
      ],
      "name": "transferOwnership",
      "outputs": [],
      "stateMutability": "nonpayable",
      "type": "function"
    },
    {
      "inputs": [
        {
          "internalType": "uint256[]",
          "name": "requestIds",
          "type": "uint256[]"
        },
        {
          "internalType": "string[]",
          "name": "circuitIds",
          "type": "string[]"
        }
      ],
      "name": "updateCredentialRequestIdToCircuitId",
      "outputs": [],
      "stateMutability": "nonpayable",
      "type": "function"
    },
    {
      "inputs": [
        {
          "internalType": "string[]",
          "name": "circuitIds",
          "type": "string[]"
        },
        {
          "internalType": "address[]",
          "name": "verifierAddresses",
          "type": "address[]"
        }
      ],
      "name": "updateCredentialVerifiers",
      "outputs": [],
      "stateMutability": "nonpayable",
      "type": "function"
    },
    {
      "inputs": [
        {
          "internalType": "uint256[]",
          "name": "requestIds",
          "type": "uint256[]"
        },
        {
          "internalType": "string[]",
          "name": "circuitIds",
          "type": "string[]"
        }
      ],
      "name": "updateSignatureRequestIdToCircuitId",
      "outputs": [],
      "stateMutability": "nonpayable",
      "type": "function"
    },
    {
      "inputs": [
        {
          "internalType": "string[]",
          "name": "circuitIds",
          "type": "string[]"
        },
        {
          "internalType": "address[]",
          "name": "verifierAddresses",
          "type": "address[]"
        }
      ],
      "name": "updateSignatureVerifiers",
      "outputs": [],
      "stateMutability": "nonpayable",
      "type": "function"
    },
    {
      "inputs": [
        {
          "internalType": "address",
          "name": "newImplementation",
          "type": "address"
        },
        {
          "internalType": "bytes",
          "name": "data",
          "type": "bytes"
        }
      ],
      "name": "upgradeToAndCall",
      "outputs": [],
      "stateMutability": "payable",
      "type": "function"
    }
  ],
  "bytecode": "0x60a06040523060805234801561001457600080fd5b5061001d610022565b6100d4565b7ff0c57e16840df040f15088dc2f81fe391c3923bec73e23a9662efc9c229c6a00805468010000000000000000900460ff16156100725760405163f92ee8a960e01b815260040160405180910390fd5b80546001600160401b03908116146100d15780546001600160401b0319166001600160401b0390811782556040519081527fc7f505b2f371ae2175ee4913f4499e1f2633a7b5936321eed1cdaeb6115181d29060200160405180910390a15b50565b608051613ee96100fd600039600081816124dc0152818161250501526126850152613ee96000f3fe6080604052600436106102c85760003560e01c80639dc3c7ba11610175578063c1e32733116100dc578063dbdf185211610095578063e30c39781161006f578063e30c397814610878578063f2fde38b1461088d578063f84c7c1e146108ad578063ffa1ad74146108c257600080fd5b8063dbdf185214610823578063e23a845a14610843578063e26ecb0b1461085857600080fd5b8063c1e3273314610779578063c6365a3b14610799578063cde1cacb146107ae578063d622ea6e146107ce578063d94b0271146107ee578063da68a0b11461080e57600080fd5b8063b354c2d81161012e578063b354c2d814610697578063b37feda4146106b7578063b57a40cb146106d7578063b8db6871146106f7578063badf055d14610739578063c0cc365d1461075957600080fd5b80639dc3c7ba146105b9578063a635c785146105d9578063a91ee0dc146105f9578063aad7292114610619578063ad3cb1cc14610639578063ade09fcd1461067757600080fd5b80633f0c66481161023457806352d1902d116101ed578063715018a6116101c7578063715018a61461056557806379ba50971461057a5780638da5cb5b1461058f5780639674cfa4146105a457600080fd5b806352d1902d1461050e5780635ab1bd53146105235780635d1ca6311461055057600080fd5b80633f0c664814610472578063406e8b4c14610486578063424e14a4146104a6578063443d7534146104c65780634f1ef286146104e6578063523b8136146104f957600080fd5b8063264850631161028657806326485063146103c65780632c1d3204146103f35780632d5c4f2514610408578063310d0d5b146104285780633d59ec60146104485780633df432fc1461045d57600080fd5b806233058d146102cd57806301c85c771461030457806301ffc9a71461032757806309bdc4b114610357578063110c96a714610379578063116e6ae9146103a6575b600080fd5b3480156102d957600080fd5b506102ed6102e8366004612f37565b6108f3565b6040516102fb929190612ff4565b60405180910390f35b34801561031057600080fd5b506103196109c0565b6040519081526020016102fb565b34801561033357600080fd5b50610347610342366004613037565b610a45565b60405190151581526020016102fb565b34801561036357600080fd5b506103776103723660046132b0565b610a7c565b005b34801561038557600080fd5b506103996103943660046133b2565b610d59565b6040516102fb91906133de565b3480156103b257600080fd5b506103776103c136600461342b565b610d84565b3480156103d257600080fd5b506103e66103e1366004612f37565b610ea9565b6040516102fb91906134eb565b3480156103ff57600080fd5b50610319610f42565b34801561041457600080fd5b506103e66104233660046134fe565b610f5d565b34801561043457600080fd5b506103e66104433660046134fe565b610ffc565b34801561045457600080fd5b50610319611053565b34801561046957600080fd5b50610319611066565b34801561047e57600080fd5b506028610319565b34801561049257600080fd5b506103776104a1366004613520565b6110a9565b3480156104b257600080fd5b506103776104c136600461342b565b611146565b3480156104d257600080fd5b506102ed6104e136600461354a565b611265565b6103776104f4366004613563565b6112e0565b34801561050557600080fd5b506103196112ff565b34801561051a57600080fd5b50610319611312565b34801561052f57600080fd5b5061053861132f565b6040516001600160a01b0390911681526020016102fb565b34801561055c57600080fd5b50610319611353565b34801561057157600080fd5b50610377611363565b34801561058657600080fd5b50610377611377565b34801561059b57600080fd5b506105386113bf565b3480156105b057600080fd5b506103196113f4565b3480156105c557600080fd5b506103776105d43660046135a6565b611407565b3480156105e557600080fd5b506105386105f4366004613603565b611548565b34801561060557600080fd5b50610377610614366004613637565b61158c565b34801561062557600080fd5b50610399610634366004613652565b6115fb565b34801561064557600080fd5b5061066a604051806040016040528060058152602001640352e302e360dc1b81525081565b6040516102fb91906136d7565b34801561068357600080fd5b506103776106923660046136ea565b611814565b3480156106a357600080fd5b506103776106b236600461354a565b611db2565b3480156106c357600080fd5b506102ed6106d236600461354a565b611dff565b3480156106e357600080fd5b506103e66106f236600461354a565b611e7a565b34801561070357600080fd5b5061071761071236600461354a565b611ec8565b60408051825181526020808401519082015291810151908201526060016102fb565b34801561074557600080fd5b506103776107543660046135a6565b611f70565b34801561076557600080fd5b5061037761077436600461354a565b6120b1565b34801561078557600080fd5b506103e661079436600461354a565b6120fb565b3480156107a557600080fd5b5061031961214b565b3480156107ba57600080fd5b506105386107c9366004613603565b61215e565b3480156107da57600080fd5b5061066a6107e936600461354a565b612181565b3480156107fa57600080fd5b5061037761080936600461354a565b612235565b34801561081a57600080fd5b506103196122c3565b34801561082f57600080fd5b5061066a61083e36600461354a565b612306565b34801561084f57600080fd5b50610319612335565b34801561086457600080fd5b506103e661087336600461382d565b612355565b34801561088457600080fd5b506105386123b4565b34801561089957600080fd5b506103776108a8366004613637565b6123dd565b3480156108b957600080fd5b50610347612462565b3480156108ce57600080fd5b5061066a60405180604001604052806005815260200164312e302e3160d81b81525081565b6108fb612e4b565b6109266040518060800160405280600081526020016000815260200160008152602001600081525090565b61092e612478565b604051631f17004d60e31b815260048101919091526001600160401b038416602482015273__$068aad146bf104111ba65c4a1de2cd0e23$__9063f8b80268906044015b600060405180830381865af415801561098f573d6000803e3d6000fd5b505050506040513d6000823e601f3d908101601f191682016040526109b79190810190613963565b91509150915091565b60006109ca612478565b60405163765c2c6160e01b8152600481019190915273__$068aad146bf104111ba65c4a1de2cd0e23$__9063765c2c61906024015b602060405180830381865af4158015610a1c573d6000803e3d6000fd5b505050506040513d601f19601f82011682018060405250810190610a409190613a07565b905090565b60006001600160e01b03198216635d1ca63160e01b1480610a7657506301ffc9a760e01b6001600160e01b03198316145b92915050565b7ff0c57e16840df040f15088dc2f81fe391c3923bec73e23a9662efc9c229c6a008054600160401b810460ff1615906001600160401b0316600081158015610ac15750825b90506000826001600160401b03166001148015610add5750303b155b905081158015610aeb575080155b15610b095760405163f92ee8a960e01b815260040160405180910390fd5b845467ffffffffffffffff191660011785558315610b3357845460ff60401b1916600160401b1785555b610b3d87876110a9565b610b463361249c565b6000610b506124ad565b90508e81600001819055508d81600101819055508c8160030160006101000a8154816001600160a01b0302191690836001600160a01b031602179055508a518c5114610bc1578b518b516040516355c5b3e360e11b8152600481019290925260248201526044015b60405180910390fd5b88518a5114610bf057895189516040516355c5b3e360e11b815260048101929092526024820152604401610bb8565b60005b8c51811015610c78578b8181518110610c0e57610c0e613a20565b6020026020010151826004018e8381518110610c2c57610c2c613a20565b6020026020010151604051610c419190613a36565b90815260405190819003602001902080546001600160a01b03929092166001600160a01b0319909216919091179055600101610bf3565b5060005b8a51811015610d0157898181518110610c9757610c97613a20565b6020026020010151826005018c8381518110610cb557610cb5613a20565b6020026020010151604051610cca9190613a36565b90815260405190819003602001902080546001600160a01b03929092166001600160a01b0319909216919091179055600101610c7c565b50508315610d4957845460ff60401b19168555604051600181527fc7f505b2f371ae2175ee4913f4499e1f2633a7b5936321eed1cdaeb6115181d29060200160405180910390a15b5050505050505050505050505050565b610d61612e94565b6000610d6b612478565b600101549050610d7c8482856115fb565b949350505050565b610d8c6124d1565b610d94612576565b6000610d9e6124ad565b90508251825114610dcf57825182516040516355c5b3e360e11b815260048101929092526024820152604401610bb8565b60005b8351811015610ea357828181518110610ded57610ded613a20565b6020026020010151826006016000868481518110610e0d57610e0d613a20565b602002602001015181526020019081526020016000209081610e2f9190613ada565b507f041133f77d321d756b41ca72a0c5948eeef44cd9d587ed593d4baed71d317e7d848281518110610e6357610e63613a20565b6020026020010151848381518110610e7d57610e7d613a20565b6020026020010151604051610e93929190613b98565b60405180910390a1600101610dd2565b50505050565b610eb1612e4b565b610eb9612478565b604051637d0aba4f60e01b815260048101919091526001600160401b038316602482015273__$068aad146bf104111ba65c4a1de2cd0e23$__90637d0aba4f906044015b600060405180830381865af4158015610f1a573d6000803e3d6000fd5b505050506040513d6000823e601f3d908101601f19168201604052610a769190810190613bb1565b6000610f4c6124d1565b610f546124ad565b60010154905090565b610f65612e4b565b610f6d612478565b60405163d55da6a360e01b81526004810191909152602481018490526044810183905273__$068aad146bf104111ba65c4a1de2cd0e23$__9063d55da6a3906064015b600060405180830381865af4158015610fcd573d6000803e3d6000fd5b505050506040513d6000823e601f3d908101601f19168201604052610ff59190810190613bb1565b9392505050565b611004612e4b565b61100c612478565b604051636ac0c5c760e11b81526004810191909152602481018490526044810183905273__$068aad146bf104111ba65c4a1de2cd0e23$__9063d5818b8e90606401610fb0565b600061105d612478565b60010154919050565b6000611070612478565b604051631b8bf99b60e21b8152600481019190915273__$068aad146bf104111ba65c4a1de2cd0e23$__90636e2fe66c906024016109ff565b6110b1612478565b6040516359a6069160e01b815260048101919091526001600160a01b0383166024820152306044820152602860648201526001600160f01b03198216608482015273__$068aad146bf104111ba65c4a1de2cd0e23$__906359a606919060a4015b60006040518083038186803b15801561112a57600080fd5b505af415801561113e573d6000803e3d6000fd5b505050505050565b61114e6124d1565b611156612576565b60006111606124ad565b9050825182511461119157825182516040516355c5b3e360e11b815260048101929092526024820152604401610bb8565b60005b8351811015610ea3578281815181106111af576111af613a20565b60200260200101518260070160008684815181106111cf576111cf613a20565b6020026020010151815260200190815260200160002090816111f19190613ada565b507f02dd940b9b98369e18f7f95142c08af8d3517a19f539258131cf48e9786bf5fe84828151811061122557611225613a20565b602002602001015184838151811061123f5761123f613a20565b6020026020010151604051611255929190613b98565b60405180910390a1600101611194565b61126d612e4b565b6112986040518060800160405280600081526020016000815260200160008152602001600081525090565b6112a0612478565b60405163a3018d7960e01b815260048101919091526024810184905273__$068aad146bf104111ba65c4a1de2cd0e23$__9063a3018d7990604401610972565b6112e86124d1565b6112f1826125a8565b6112fb82826125b8565b5050565b6000611309612478565b609a0154919050565b600061131c61267a565b50600080516020613e9483398151915290565b60006113396124d1565b6113416124ad565b600301546001600160a01b0316905090565b600061135d612478565b54919050565b61136b612576565b61137560006126c3565b565b33806113816123b4565b6001600160a01b0316146113b35760405163118cdaa760e01b81526001600160a01b0382166004820152602401610bb8565b6113bc816126c3565b50565b6000807f9016d09d72d40fdae2fd8ceac6b6234c7706214fd39c1cd1e609a0528c1993005b546001600160a01b031692915050565b60006113fe612478565b609b0154919050565b61140f6124d1565b611417612576565b60006114216124ad565b9050815183511461145257825182516040516355c5b3e360e11b815260048101929092526024820152604401610bb8565b60005b8351811015610ea35782818151811061147057611470613a20565b60200260200101518260050185838151811061148e5761148e613a20565b60200260200101516040516114a39190613a36565b908152602001604051809103902060006101000a8154816001600160a01b0302191690836001600160a01b031602179055507f5aec749fec66d318cfdd4a5c0883a270ab62150d656ca8d9a9d0ad551ee4466b84828151811061150857611508613a20565b602002602001015184838151811061152257611522613a20565b6020026020010151604051611538929190613be5565b60405180910390a1600101611455565b60006115526124d1565b61155a6124ad565b6004018260405161156b9190613a36565b908152604051908190036020019020546001600160a01b031690505b919050565b6115946124d1565b61159c612576565b806115a56124ad565b60030180546001600160a01b0319166001600160a01b0392831617905560405190821681527fd6ceddf6d2a22f21c7c81675c518004eff43bc5c8a6fc32a0b748e69d58671cd906020015b60405180910390a150565b611603612e94565b61160b612478565b5484146116515760405162461bcd60e51b8152602060048201526014602482015273092c8cadce8d2e8f240d2c840dad2e6dac2e8c6d60631b6044820152606401610bb8565b600061165b612478565b604051630b1a9cd360e01b815260048101919091526024810185905273__$068aad146bf104111ba65c4a1de2cd0e23$__90630b1a9cd390604401606060405180830381865af41580156116b3573d6000803e3d6000fd5b505050506040513d601f19601f820116820180604052508101906116d79190613c0f565b60408051608081018252868152825160208083019190915283015181830152908201516060820152909150600061170c612478565b6020840151604051630b2bcd1b60e11b815260048101929092526001600160401b0387166024830152604482015273__$068aad146bf104111ba65c4a1de2cd0e23$__906316579a3690606401600060405180830381865af4158015611776573d6000803e3d6000fd5b505050506040513d6000823e601f3d908101601f1916820160405261179e9190810190613bb1565b6040805161010081018252825181526020808401511515818301528284015182840152606080850151908301526080808501519083015260a08085015115159083015260c0808501519083015260e093840151938201939093528151808301909252938152908101929092525095945050505050565b600061181e6124ad565b9050825160021461184f578251604051630264a11560e21b8152600481019190915260026024820152604401610bb8565b6060808260060160008660008151811061186b5761186b613a20565b6020026020010151600001516001600160401b03168152602001908152602001600020805461189990613a52565b80601f01602080910402602001604051908101604052809291908181526020018280546118c590613a52565b80156119125780601f106118e757610100808354040283529160200191611912565b820191906000526020600020905b8154815290600101906020018083116118f557829003601f168201915b505050505091508260070160008660018151811061193257611932613a20565b6020026020010151600001516001600160401b03168152602001908152602001600020805461196090613a52565b80601f016020809104026020016040519081016040528092919081815260200182805461198c90613a52565b80156119d95780601f106119ae576101008083540402835291602001916119d9565b820191906000526020600020905b8154815290600101906020018083116119bc57829003601f168201915b505050505090508151600003611a2d57846000815181106119fc576119fc613a20565b60209081029190910101515160405163ea99bbcd60e01b81526001600160401b039091166004820152602401610bb8565b8051600003611a7a5784600181518110611a4957611a49613a20565b60209081029190910101515160405163138379c160e01b81526001600160401b039091166004820152602401610bb8565b60008060008088600081518110611a9357611a93613a20565b602002602001015160200151806020019051810190611ab29190613c9e565b935093509350935060006040518060800160405280858152602001848152602001838152602001604051806101e0016040528088600081518110611af857611af8613a20565b6020026020010151815260200188600181518110611b1857611b18613a20565b6020026020010151815260200188600281518110611b3857611b38613a20565b6020026020010151815260200188600381518110611b5857611b58613a20565b6020026020010151815260200188600481518110611b7857611b78613a20565b6020026020010151815260200188600581518110611b9857611b98613a20565b6020026020010151815260200188600681518110611bb857611bb8613a20565b6020026020010151815260200188600781518110611bd857611bd8613a20565b6020026020010151815260200188600881518110611bf857611bf8613a20565b6020026020010151815260200188600981518110611c1857611c18613a20565b6020026020010151815260200188600a81518110611c3857611c38613a20565b6020026020010151815260200188600b81518110611c5857611c58613a20565b6020026020010151815260200188600c81518110611c7857611c78613a20565b6020026020010151815260200188600d81518110611c9857611c98613a20565b6020026020010151815260200188600e81518110611cb857611cb8613a20565b602002602001015181525081525090506000806000808d600181518110611ce157611ce1613a20565b602002602001015160200151806020019051810190611d009190613c9e565b935093509350935060006040518060800160405280858152602001848152602001838152602001604051806060016040528088600081518110611d4557611d45613a20565b6020026020010151815260200188600181518110611d6557611d65613a20565b6020026020010151815260200188600281518110611d8557611d85613a20565b60200260200101518152508152509050611da18c878d846126fb565b505050505050505050505050505050565b611dba6124d1565b611dc2612576565b80611dcb6124ad565b600101556040518181527ff007a02ba428e63fa98b65269e70f9a9db847e0a839049a2f31f069282267734906020016115f0565b611e07612e4b565b611e326040518060800160405280600081526020016000815260200160008152602001600081525090565b611e3a612478565b604051636ad1d8a760e11b815260048101919091526024810184905273__$068aad146bf104111ba65c4a1de2cd0e23$__9063d5a3b14e90604401610972565b611e82612e4b565b611e8a612478565b604051620cf08960e41b815260048101919091526024810183905273__$068aad146bf104111ba65c4a1de2cd0e23$__9062cf089090604401610efd565b611eec60405180606001604052806000815260200160008152602001600081525090565b611ef4612478565b604051630b1a9cd360e01b815260048101919091526024810183905273__$068aad146bf104111ba65c4a1de2cd0e23$__90630b1a9cd390604401606060405180830381865af4158015611f4c573d6000803e3d6000fd5b505050506040513d601f19601f82011682018060405250810190610a769190613c0f565b611f786124d1565b611f80612576565b6000611f8a6124ad565b90508151835114611fbb57825182516040516355c5b3e360e11b815260048101929092526024820152604401610bb8565b60005b8351811015610ea357828181518110611fd957611fd9613a20565b602002602001015182600401858381518110611ff757611ff7613a20565b602002602001015160405161200c9190613a36565b908152602001604051809103902060006101000a8154816001600160a01b0302191690836001600160a01b031602179055507f5d864db8d88e9085fd5e7752a2094701e558355b75b561c00174d27aefd3e28984828151811061207157612071613a20565b602002602001015184838151811061208b5761208b613a20565b60200260200101516040516120a1929190613be5565b60405180910390a1600101611fbe565b6120b96124d1565b6120c1612576565b806120ca6124ad565b556040518181527f7f7f3071c3c286700c199acae2fe071beb4a63dae1afff85186fa75d18090ae8906020016115f0565b612103612e4b565b61210b612478565b6040516397ac539160e01b815260048101919091526024810183905273__$068aad146bf104111ba65c4a1de2cd0e23$__906397ac539190604401610efd565b6000612155612478565b609c0154919050565b60006121686124d1565b6121706124ad565b6005018260405161156b9190613a36565b606061218b6124d1565b6121936124ad565b60008381526006919091016020526040902080546121b090613a52565b80601f01602080910402602001604051908101604052809291908181526020018280546121dc90613a52565b80156122295780601f106121fe57610100808354040283529160200191612229565b820191906000526020600020905b81548152906001019060200180831161220c57829003601f168201915b50505050509050919050565b61223d612576565b60006122476124ad565b600083815260028201602052604090205490915060ff166122aa5760405162461bcd60e51b815260206004820152601860248201527f4e756c6c696669657220646f6573206e6f7420657869737400000000000000006044820152606401610bb8565b600091825260020160205260409020805460ff19169055565b60006122cd612478565b604051631e75e7f360e01b8152600481019190915273__$068aad146bf104111ba65c4a1de2cd0e23$__90631e75e7f3906024016109ff565b60606123106124d1565b6123186124ad565b60008381526007919091016020526040902080546121b090613a52565b600061233f6124d1565b612347612576565b61234f6124ad565b54905090565b61235d612e4b565b612365612478565b604051630b2bcd1b60e11b815260048101919091526001600160401b03841660248201526044810183905273__$068aad146bf104111ba65c4a1de2cd0e23$__906316579a3690606401610fb0565b6000807f237e158222e3e6968b72b9db0d8043aacf074ad9f650f0d1606b4d82ee432c006113e4565b6123e5612576565b7f237e158222e3e6968b72b9db0d8043aacf074ad9f650f0d1606b4d82ee432c0080546001600160a01b0319166001600160a01b03831690811782556124296113bf565b6001600160a01b03167f38d16b8cac22d99fc7c124b9cd0de2d3fa1faef420bfe791d8c362d765e2270060405160405180910390a35050565b600061246c612478565b6002015460ff16919050565b7f3018a310c36c4f8228f09bf3b1822685cf0971daa8265a58ca807c4a4daba40090565b6124a4612719565b6113bc81612762565b7fd64ab600136c76c630ed81a54cc1acbcc213dadb956fdd8687dc5ebb0bb5f50090565b306001600160a01b037f000000000000000000000000000000000000000000000000000000000000000016148061255857507f00000000000000000000000000000000000000000000000000000000000000006001600160a01b031661254c600080516020613e94833981519152546001600160a01b031690565b6001600160a01b031614155b156113755760405163703e46dd60e11b815260040160405180910390fd5b3361257f6113bf565b6001600160a01b0316146113755760405163118cdaa760e01b8152336004820152602401610bb8565b6125b06124d1565b6113bc612576565b816001600160a01b03166352d1902d6040518163ffffffff1660e01b8152600401602060405180830381865afa925050508015612612575060408051601f3d908101601f1916820190925261260f91810190613a07565b60015b61263a57604051634c9c8ce360e01b81526001600160a01b0383166004820152602401610bb8565b600080516020613e94833981519152811461266b57604051632a87526960e21b815260048101829052602401610bb8565b6126758383612794565b505050565b306001600160a01b037f000000000000000000000000000000000000000000000000000000000000000016146113755760405163703e46dd60e11b815260040160405180910390fd5b7f237e158222e3e6968b72b9db0d8043aacf074ad9f650f0d1606b4d82ee432c0080546001600160a01b03191681556112fb826127ea565b612705848461285b565b61270f8282612953565b610ea38382612a4c565b7ff0c57e16840df040f15088dc2f81fe391c3923bec73e23a9662efc9c229c6a0054600160401b900460ff1661137557604051631afcd79f60e31b815260040160405180910390fd5b61276a612719565b6001600160a01b0381166113b357604051631e4fbdf760e01b815260006004820152602401610bb8565b61279d82612ac5565b6040516001600160a01b038316907fbc7cd75a20ee27fd9adebab32041f755214dbc6bffa90cc0225b39da2e5c2d3b90600090a28051156127e2576126758282612b2a565b6112fb612ba0565b7f9016d09d72d40fdae2fd8ceac6b6234c7706214fd39c1cd1e609a0528c19930080546001600160a01b031981166001600160a01b03848116918217845560405192169182907f8be0079c531659141344cd1fd0a4f28419497f9722a3daafe3b4186f6b6457e090600090a3505050565b60006128656124ad565b90506000816004018460405161287b9190613a36565b908152604051908190036020019020546001600160a01b03169050806128b4576040516301dcf1ab60e31b815260040160405180910390fd5b806001600160a01b031663f054a9a384600001518560200151866040015187606001516040518563ffffffff1660e01b81526004016128f69493929190613da9565b602060405180830381865afa158015612913573d6000803e3d6000fd5b505050506040513d601f19601f820116820180604052508101906129379190613e06565b610ea3576040516281723b60e21b815260040160405180910390fd5b600061295d6124ad565b9050600081600501846040516129739190613a36565b908152604051908190036020019020546001600160a01b03169050806129ac576040516301dcf1ab60e31b815260040160405180910390fd5b806001600160a01b03166311479fea84600001518560200151866040015187606001516040518563ffffffff1660e01b81526004016129ee9493929190613e21565b602060405180830381865afa158015612a0b573d6000803e3d6000fd5b505050506040513d601f19601f82011682018060405250810190612a2f9190613e06565b610ea3576040516389fa585960e01b815260040160405180910390fd5b6060828101516101208101516101408201516101808301516101a08401516101c0850151610160909501519587015160208101518151604090920151959794969395929492909190612aa58989898989888a8989612bbf565b612aae82612ce4565b612ab88989612d0b565b5050505050505050505050565b806001600160a01b03163b600003612afb57604051634c9c8ce360e01b81526001600160a01b0382166004820152602401610bb8565b600080516020613e9483398151915280546001600160a01b0319166001600160a01b0392909216919091179055565b6060600080846001600160a01b031684604051612b479190613a36565b600060405180830381855af49150503d8060008114612b82576040519150601f19603f3d011682016040523d82523d6000602084013e612b87565b606091505b5091509150612b97858383612dc6565b95945050505050565b34156113755760405163b398979f60e01b815260040160405180910390fd5b6000612bc96124ad565b905089600003612bef57604051631b1aad8760e11b8152600481018b9052602401610bb8565b88600003612c1357604051634bdc991b60e11b8152600481018a9052602401610bb8565b80600101548614612c4757600181015460405163e748379160e01b8152610bb8918891600401918252602082015260400190565b848414612c74576040516001621d0d8360e21b031981526004810185905260248101869052604401610bb8565b80544290612c829089613e72565b1015612ca35760405162bd09f160e11b815260048101889052602401610bb8565b600083815260028201602052604090205460ff1615612cd857604051635377438b60e11b815260048101849052602401610bb8565b50505050505050505050565b6000612cee6124ad565b60009283526002016020525060409020805460ff19166001179055565b612d13612478565b6040516306fb157560e01b81526004810191909152602481018390526044810182905273__$068aad146bf104111ba65c4a1de2cd0e23$__906306fb15759060640160006040518083038186803b158015612d6d57600080fd5b505af4158015612d81573d6000803e3d6000fd5b50505050612d8d612478565b60405163175ba3e960e11b8152600481019190915273__$068aad146bf104111ba65c4a1de2cd0e23$__90632eb747d290602401611112565b606082612ddb57612dd682612e22565b610ff5565b8151158015612df257506001600160a01b0384163b155b15612e1b57604051639996b31560e01b81526001600160a01b0385166004820152602401610bb8565b5080610ff5565b805115612e325780518082602001fd5b60405163d6bda27560e01b815260040160405180910390fd5b6040518061010001604052806000815260200160001515815260200160608152602001600081526020016000815260200160001515815260200160008152602001600081525090565b6040518060400160405280612eca6040518060800160405280600081526020016000815260200160008152602001600081525090565b8152602001612f1b6040518061010001604052806000815260200160001515815260200160608152602001600081526020016000815260200160001515815260200160008152602001600081525090565b905290565b80356001600160401b038116811461158757600080fd5b600060208284031215612f4957600080fd5b610ff582612f20565b805182526020808201511515818401526040808301516101009185018290528051918501829052600092019082906101208601905b80831015612faa5783518252602082019150602084019350600183019250612f87565b50606085015160608701526080850151608087015260a08501519250612fd460a087018415159052565b60c085015160c087015260e085015160e087015280935050505092915050565b60a08152600061300760a0830185612f52565b9050610ff56020830184805182526020810151602083015260408101516040830152606081015160608301525050565b60006020828403121561304957600080fd5b81356001600160e01b031981168114610ff557600080fd5b80356001600160a01b038116811461158757600080fd5b634e487b7160e01b600052604160045260246000fd5b604051606081016001600160401b03811182821017156130b0576130b0613078565b60405290565b60405161010081016001600160401b03811182821017156130b0576130b0613078565b604051601f8201601f191681016001600160401b038111828210171561310157613101613078565b604052919050565b60006001600160401b0382111561312257613122613078565b5060051b60200190565b600082601f83011261313d57600080fd5b8135602083016000806001600160401b0384111561315d5761315d613078565b50601f8301601f1916602001613172816130d9565b91505082815285838301111561318757600080fd5b82826020830137600092810160200192909252509392505050565b600082601f8301126131b357600080fd5b81356131c66131c182613109565b6130d9565b8082825260208201915060208360051b8601019250858311156131e857600080fd5b602085015b838110156132295780356001600160401b0381111561320b57600080fd5b61321a886020838a010161312c565b845250602092830192016131ed565b5095945050505050565b600082601f83011261324457600080fd5b81356132526131c182613109565b8082825260208201915060208360051b86010192508583111561327457600080fd5b602085015b838110156132295761328a81613061565b835260209283019201613279565b80356001600160f01b03198116811461158757600080fd5b60008060008060008060008060006101208a8c0312156132cf57600080fd5b8935985060208a013597506132e660408b01613061565b965060608a01356001600160401b0381111561330157600080fd5b61330d8c828d016131a2565b96505060808a01356001600160401b0381111561332957600080fd5b6133358c828d01613233565b95505060a08a01356001600160401b0381111561335157600080fd5b61335d8c828d016131a2565b94505060c08a01356001600160401b0381111561337957600080fd5b6133858c828d01613233565b93505061339460e08b01613061565b91506133a36101008b01613298565b90509295985092959850929598565b600080604083850312156133c557600080fd5b823591506133d560208401612f20565b90509250929050565b60208152613411602082018351805182526020810151602083015260408101516040830152606081015160608301525050565b6000602083015160a080840152610d7c60c0840182612f52565b6000806040838503121561343e57600080fd5b82356001600160401b0381111561345457600080fd5b8301601f8101851361346557600080fd5b80356134736131c182613109565b8082825260208201915060208360051b85010192508783111561349557600080fd5b6020840193505b828410156134b757833582526020938401939091019061349c565b945050505060208301356001600160401b038111156134d557600080fd5b6134e1858286016131a2565b9150509250929050565b602081526000610ff56020830184612f52565b6000806040838503121561351157600080fd5b50508035926020909101359150565b6000806040838503121561353357600080fd5b61353c83613061565b91506133d560208401613298565b60006020828403121561355c57600080fd5b5035919050565b6000806040838503121561357657600080fd5b61357f83613061565b915060208301356001600160401b0381111561359a57600080fd5b6134e18582860161312c565b600080604083850312156135b957600080fd5b82356001600160401b038111156135cf57600080fd5b6135db858286016131a2565b92505060208301356001600160401b038111156135f757600080fd5b6134e185828601613233565b60006020828403121561361557600080fd5b81356001600160401b0381111561362b57600080fd5b610d7c8482850161312c565b60006020828403121561364957600080fd5b610ff582613061565b60008060006060848603121561366757600080fd5b833592506020840135915061367e60408501612f20565b90509250925092565b60005b838110156136a257818101518382015260200161368a565b50506000910152565b600081518084526136c3816020860160208601613687565b601f01601f19169290920160200192915050565b602081526000610ff560208301846136ab565b600080604083850312156136fd57600080fd5b82356001600160401b0381111561371357600080fd5b8301601f8101851361372457600080fd5b80356137326131c182613109565b8082825260208201915060208360051b85010192508783111561375457600080fd5b602084015b8381101561380e5780356001600160401b0381111561377757600080fd5b85016060818b03601f1901121561378d57600080fd5b61379561308e565b6137a160208301612f20565b815260408201356001600160401b038111156137bc57600080fd5b6137cb8c60208386010161312c565b60208301525060608201356001600160401b038111156137ea57600080fd5b6137f98c60208386010161312c565b60408301525084525060209283019201613759565b50945050505060208301356001600160401b0381111561359a57600080fd5b6000806040838503121561384057600080fd5b61384983612f20565b946020939093013593505050565b8051801515811461158757600080fd5b600082601f83011261387857600080fd5b81516138866131c182613109565b8082825260208201915060208360051b8601019250858311156138a857600080fd5b602085015b838110156132295780518352602092830192016138ad565b600061010082840312156138d857600080fd5b6138e06130b6565b8251815290506138f260208301613857565b602082015260408201516001600160401b0381111561391057600080fd5b61391c84828501613867565b604083015250606082810151908201526080808301519082015261394260a08301613857565b60a082015260c0828101519082015260e09182015191810191909152919050565b60008082840360a081121561397757600080fd5b83516001600160401b0381111561398d57600080fd5b613999868287016138c5565b9350506080601f19820112156139ae57600080fd5b50604051608081016001600160401b03811182821017156139d1576139d1613078565b60409081526020858101518352858201519083015260608086015191830191909152608090940151938101939093525092909150565b600060208284031215613a1957600080fd5b5051919050565b634e487b7160e01b600052603260045260246000fd5b60008251613a48818460208701613687565b9190910192915050565b600181811c90821680613a6657607f821691505b602082108103613a8657634e487b7160e01b600052602260045260246000fd5b50919050565b601f82111561267557806000526020600020601f840160051c81016020851015613ab35750805b601f840160051c820191505b81811015613ad35760008155600101613abf565b5050505050565b81516001600160401b03811115613af357613af3613078565b613b0781613b018454613a52565b84613a8c565b6020601f821160018114613b3b5760008315613b235750848201515b600019600385901b1c1916600184901b178455613ad3565b600084815260208120601f198516915b82811015613b6b5787850151825560209485019460019092019101613b4b565b5084821015613b895786840151600019600387901b60f8161c191681555b50505050600190811b01905550565b828152604060208201526000610d7c60408301846136ab565b600060208284031215613bc357600080fd5b81516001600160401b03811115613bd957600080fd5b610d7c848285016138c5565b604081526000613bf860408301856136ab565b905060018060a01b03831660208301529392505050565b60006060828403128015613c2257600080fd5b50613c2b61308e565b82518152602080840151908201526040928301519281019290925250919050565b600082601f830112613c5d57600080fd5b613c6760406130d9565b806040840185811115613c7957600080fd5b845b81811015613c93578051845260209384019301613c7b565b509095945050505050565b6000806000806101208587031215613cb557600080fd5b84516001600160401b03811115613ccb57600080fd5b613cd787828801613867565b945050613ce78660208701613c4c565b925085607f860112613cf857600080fd5b6040613d03816130d9565b8060e0880189811115613d1557600080fd5b606089015b81811015613d3b57613d2c8b82613c4c565b84526020909301928401613d1a565b50819550613d498a82613c4c565b94505050505092959194509250565b8060005b6002811015610ea3578151845260209384019390910190600101613d5c565b8060005b6002811015610ea357613d93848351613d58565b6040939093019260209190910190600101613d7f565b6102e08101613db88287613d58565b613dc56040830186613d7b565b613dd260c0830185613d58565b61010082018360005b600f811015613dfa578151835260209283019290910190600101613ddb565b50505095945050505050565b600060208284031215613e1857600080fd5b610ff582613857565b6101608101613e308287613d58565b613e3d6040830186613d7b565b613e4a60c0830185613d58565b61010082018360005b6003811015613dfa578151835260209283019290910190600101613e53565b80820180821115610a7657634e487b7160e01b600052601160045260246000fdfe360894a13ba1a3210667c828492db98dca3e2076cc3735a920a3ca505d382bbca2646970667358221220c49f811df366bbe8ff66006c5420620a2f0e7486f62ca448c78184d5b416561d64736f6c634300081b0033",
  "linkReferences": {
    "@iden3/contracts/lib/IdentityLib.sol": {
      "IdentityLib": [
        {
          "length": 20,
          "start": 2641
        },
        {
          "length": 20,
          "start": 2782
        },
        {
          "length": 20,
          "start": 4060
        },
        {
          "length": 20,
          "start": 4239
        },
        {
          "length": 20,
          "start": 4398
        },
        {
          "length": 20,
          "start": 4484
        },
        {
          "length": 20,
          "start": 4593
        },
        {
          "length": 20,
          "start": 5051
        },
        {
          "length": 20,
          "start": 6006
        },
        {
          "length": 20,
          "start": 6201
        },
        {
          "length": 20,
          "start": 8021
        },
        {
          "length": 20,
          "start": 8100
        },
        {
          "length": 20,
          "start": 8207
        },
        {
          "length": 20,
          "start": 8742
        },
        {
          "length": 20,
          "start": 9185
        },
        {
          "length": 20,
          "start": 9359
        },
        {
          "length": 20,
          "start": 11829
        },
        {
          "length": 20,
          "start": 11937
        }
      ]
    }
  },
  "deployedLinkReferences": {
    "@iden3/contracts/lib/IdentityLib.sol": {
      "IdentityLib": [
        {
          "length": 20,
          "start": 2388
        },
        {
          "length": 20,
          "start": 2529
        },
        {
          "length": 20,
          "start": 3807
        },
        {
          "length": 20,
          "start": 3986
        },
        {
          "length": 20,
          "start": 4145
        },
        {
          "length": 20,
          "start": 4231
        },
        {
          "length": 20,
          "start": 4340
        },
        {
          "length": 20,
          "start": 4798
        },
        {
          "length": 20,
          "start": 5753
        },
        {
          "length": 20,
          "start": 5948
        },
        {
          "length": 20,
          "start": 7768
        },
        {
          "length": 20,
          "start": 7847
        },
        {
          "length": 20,
          "start": 7954
        },
        {
          "length": 20,
          "start": 8489
        },
        {
          "length": 20,
          "start": 8932
        },
        {
          "length": 20,
          "start": 9106
        },
        {
          "length": 20,
          "start": 11576
        },
        {
          "length": 20,
          "start": 11684
        }
      ]
    }
  }
}