{
  "_format": "hh-sol-artifact-1",
  "contractName": "PassportCredentialIssuerImplV1",
  "sourceName": "contracts/verifiers/PassportCredentialIssuerImplV1.sol",
  "abi": [
    {
      "inputs": [],
      "stateMutability": "nonpayable",
      "type": "constructor"
    },
    {
      "inputs": [
        {
          "internalType": "address",
          "name": "target",
          "type": "address"
        }
      ],
      "name": "AddressEmptyCode",
      "type": "error"
    },
    {
      "inputs": [
        {
          "internalType": "uint256",
          "name": "currentDate",
          "type": "uint256"
        }
      ],
      "name": "CurrentDateExpired",
      "type": "error"
    },
    {
      "inputs": [
        {
          "internalType": "address",
          "name": "implementation",
          "type": "address"
        }
      ],
      "name": "ERC1967InvalidImplementation",
      "type": "error"
    },
    {
      "inputs": [],
      "name": "ERC1967NonPayable",
      "type": "error"
    },
    {
      "inputs": [],
      "name": "FailedCall",
      "type": "error"
    },
    {
      "inputs": [
        {
          "internalType": "bytes32",
          "name": "imageHash",
          "type": "bytes32"
        }
      ],
      "name": "ImageHashIsNotWhitelisted",
      "type": "error"
    },
    {
      "inputs": [],
      "name": "InvalidAttestation",
      "type": "error"
    },
    {
      "inputs": [],
      "name": "InvalidAttestationUserDataLength",
      "type": "error"
    },
    {
      "inputs": [],
      "name": "InvalidCredentialProof",
      "type": "error"
    },
    {
      "inputs": [
        {
          "internalType": "uint256",
          "name": "hashIndex",
          "type": "uint256"
        }
      ],
      "name": "InvalidHashIndex",
      "type": "error"
    },
    {
      "inputs": [
        {
          "internalType": "uint256",
          "name": "hashValue",
          "type": "uint256"
        }
      ],
      "name": "InvalidHashValue",
      "type": "error"
    },
    {
      "inputs": [],
      "name": "InvalidInitialization",
      "type": "error"
    },
    {
      "inputs": [
        {
          "internalType": "uint256",
          "name": "linkId1",
          "type": "uint256"
        },
        {
          "internalType": "uint256",
          "name": "linkId2",
          "type": "uint256"
        }
      ],
      "name": "InvalidLinkId",
      "type": "error"
    },
    {
      "inputs": [],
      "name": "InvalidPassportSignatureProof",
      "type": "error"
    },
    {
      "inputs": [
        {
          "internalType": "uint256",
          "name": "length",
          "type": "uint256"
        },
        {
          "internalType": "uint256",
          "name": "expectedLength",
          "type": "uint256"
        }
      ],
      "name": "InvalidResponsesLength",
      "type": "error"
    },
    {
      "inputs": [],
      "name": "InvalidSignerAddress",
      "type": "error"
    },
    {
      "inputs": [
        {
          "internalType": "address",
          "name": "signer",
          "type": "address"
        }
      ],
      "name": "InvalidSignerPassportSignatureProof",
      "type": "error"
    },
    {
      "inputs": [
        {
          "internalType": "uint256",
          "name": "templateRoot",
          "type": "uint256"
        },
        {
          "internalType": "uint256",
          "name": "expectedTemplateRoot",
          "type": "uint256"
        }
      ],
      "name": "InvalidTemplateRoot",
      "type": "error"
    },
    {
      "inputs": [
        {
          "internalType": "address",
          "name": "transactor",
          "type": "address"
        }
      ],
      "name": "InvalidTransactor",
      "type": "error"
    },
    {
      "inputs": [
        {
          "internalType": "uint256",
          "name": "issuanceDate",
          "type": "uint256"
        }
      ],
      "name": "IssuanceDateExpired",
      "type": "error"
    },
    {
      "inputs": [
        {
          "internalType": "uint256",
          "name": "length1",
          "type": "uint256"
        },
        {
          "internalType": "uint256",
          "name": "length2",
          "type": "uint256"
        }
      ],
      "name": "LengthMismatch",
      "type": "error"
    },
    {
      "inputs": [
        {
          "internalType": "uint256",
          "name": "requestId",
          "type": "uint256"
        }
      ],
      "name": "NoCredentialCircuitForRequestId",
      "type": "error"
    },
    {
      "inputs": [],
      "name": "NoVerifierSet",
      "type": "error"
    },
    {
      "inputs": [],
      "name": "NotInitializing",
      "type": "error"
    },
    {
      "inputs": [
        {
          "internalType": "uint256",
          "name": "nullifier",
          "type": "uint256"
        }
      ],
      "name": "NullifierAlreadyExists",
      "type": "error"
    },
    {
      "inputs": [
        {
          "internalType": "address",
          "name": "owner",
          "type": "address"
        }
      ],
      "name": "OwnableInvalidOwner",
      "type": "error"
    },
    {
      "inputs": [
        {
          "internalType": "address",
          "name": "account",
          "type": "address"
        }
      ],
      "name": "OwnableUnauthorizedAccount",
      "type": "error"
    },
    {
      "inputs": [],
      "name": "UUPSUnauthorizedCallContext",
      "type": "error"
    },
    {
      "inputs": [
        {
          "internalType": "bytes32",
          "name": "slot",
          "type": "bytes32"
        }
      ],
      "name": "UUPSUnsupportedProxiableUUID",
      "type": "error"
    },
    {
      "anonymous": false,
      "inputs": [
        {
          "indexed": false,
          "internalType": "string",
          "name": "circuitId",
          "type": "string"
        },
        {
          "indexed": false,
          "internalType": "address",
          "name": "verifier",
          "type": "address"
        },
        {
          "indexed": false,
          "internalType": "uint256",
          "name": "requestId",
          "type": "uint256"
        }
      ],
      "name": "CredentialCircuitVerifierUpdated",
      "type": "event"
    },
    {
      "anonymous": false,
      "inputs": [],
      "name": "EIP712DomainChanged",
      "type": "event"
    },
    {
      "anonymous": false,
      "inputs": [
        {
          "indexed": false,
          "internalType": "uint256",
          "name": "expirationTime",
          "type": "uint256"
        }
      ],
      "name": "ExpirationTimeUpdated",
      "type": "event"
    },
    {
      "anonymous": false,
      "inputs": [
        {
          "indexed": false,
          "internalType": "uint64",
          "name": "version",
          "type": "uint64"
        }
      ],
      "name": "Initialized",
      "type": "event"
    },
    {
      "anonymous": false,
      "inputs": [
        {
          "indexed": true,
          "internalType": "address",
          "name": "previousOwner",
          "type": "address"
        },
        {
          "indexed": true,
          "internalType": "address",
          "name": "newOwner",
          "type": "address"
        }
      ],
      "name": "OwnershipTransferStarted",
      "type": "event"
    },
    {
      "anonymous": false,
      "inputs": [
        {
          "indexed": true,
          "internalType": "address",
          "name": "previousOwner",
          "type": "address"
        },
        {
          "indexed": true,
          "internalType": "address",
          "name": "newOwner",
          "type": "address"
        }
      ],
      "name": "OwnershipTransferred",
      "type": "event"
    },
    {
      "anonymous": false,
      "inputs": [
        {
          "indexed": false,
          "internalType": "address",
          "name": "signer",
          "type": "address"
        }
      ],
      "name": "SignerAdded",
      "type": "event"
    },
    {
      "anonymous": false,
      "inputs": [
        {
          "indexed": false,
          "internalType": "uint256",
          "name": "tampletRoot",
          "type": "uint256"
        }
      ],
      "name": "TemplateRootUpdated",
      "type": "event"
    },
    {
      "anonymous": false,
      "inputs": [
        {
          "indexed": false,
          "internalType": "address",
          "name": "transactor",
          "type": "address"
        }
      ],
      "name": "TransactorAdded",
      "type": "event"
    },
    {
      "anonymous": false,
      "inputs": [
        {
          "indexed": true,
          "internalType": "address",
          "name": "implementation",
          "type": "address"
        }
      ],
      "name": "Upgraded",
      "type": "event"
    },
    {
      "inputs": [],
      "name": "DOMAIN_VERSION",
      "outputs": [
        {
          "internalType": "string",
          "name": "",
          "type": "string"
        }
      ],
      "stateMutability": "view",
      "type": "function"
    },
    {
      "inputs": [],
      "name": "PASSPORT_CREDENTIAL_MESSAGE_TYPEHASH",
      "outputs": [
        {
          "internalType": "bytes32",
          "name": "",
          "type": "bytes32"
        }
      ],
      "stateMutability": "view",
      "type": "function"
    },
    {
      "inputs": [],
      "name": "UPGRADE_INTERFACE_VERSION",
      "outputs": [
        {
          "internalType": "string",
          "name": "",
          "type": "string"
        }
      ],
      "stateMutability": "view",
      "type": "function"
    },
    {
      "inputs": [],
      "name": "VERSION",
      "outputs": [
        {
          "internalType": "string",
          "name": "",
          "type": "string"
        }
      ],
      "stateMutability": "view",
      "type": "function"
    },
    {
      "inputs": [],
      "name": "acceptOwnership",
      "outputs": [],
      "stateMutability": "nonpayable",
      "type": "function"
    },
    {
      "inputs": [
        {
          "internalType": "bytes32",
          "name": "imageHash",
          "type": "bytes32"
        }
      ],
      "name": "addImageHashToWhitelist",
      "outputs": [],
      "stateMutability": "nonpayable",
      "type": "function"
    },
    {
      "inputs": [
        {
          "internalType": "bytes",
          "name": "attestation",
          "type": "bytes"
        }
      ],
      "name": "addSigner",
      "outputs": [],
      "stateMutability": "nonpayable",
      "type": "function"
    },
    {
      "inputs": [
        {
          "internalType": "address",
          "name": "signer",
          "type": "address"
        }
      ],
      "name": "addSignerDev",
      "outputs": [],
      "stateMutability": "nonpayable",
      "type": "function"
    },
    {
      "inputs": [
        {
          "internalType": "address",
          "name": "transactor",
          "type": "address"
        }
      ],
      "name": "addTransactor",
      "outputs": [],
      "stateMutability": "nonpayable",
      "type": "function"
    },
    {
      "inputs": [
        {
          "internalType": "uint256",
          "name": "nullifier",
          "type": "uint256"
        }
      ],
      "name": "cleanNullifier",
      "outputs": [],
      "stateMutability": "nonpayable",
      "type": "function"
    },
    {
      "inputs": [
        {
          "internalType": "string",
          "name": "circuitId",
          "type": "string"
        }
      ],
      "name": "credentialCircuitIdToRequestIds",
      "outputs": [
        {
          "internalType": "uint256",
          "name": "",
          "type": "uint256"
        }
      ],
      "stateMutability": "view",
      "type": "function"
    },
    {
      "inputs": [
        {
          "internalType": "uint256",
          "name": "requestId",
          "type": "uint256"
        }
      ],
      "name": "credentialRequestIdToCircuitIds",
      "outputs": [
        {
          "internalType": "string",
          "name": "",
          "type": "string"
        }
      ],
      "stateMutability": "view",
      "type": "function"
    },
    {
      "inputs": [
        {
          "internalType": "string",
          "name": "circuitId",
          "type": "string"
        }
      ],
      "name": "credentialVerifiers",
      "outputs": [
        {
          "internalType": "address",
          "name": "",
          "type": "address"
        }
      ],
      "stateMutability": "view",
      "type": "function"
    },
    {
      "inputs": [],
      "name": "eip712Domain",
      "outputs": [
        {
          "internalType": "bytes1",
          "name": "fields",
          "type": "bytes1"
        },
        {
          "internalType": "string",
          "name": "name",
          "type": "string"
        },
        {
          "internalType": "string",
          "name": "version",
          "type": "string"
        },
        {
          "internalType": "uint256",
          "name": "chainId",
          "type": "uint256"
        },
        {
          "internalType": "address",
          "name": "verifyingContract",
          "type": "address"
        },
        {
          "internalType": "bytes32",
          "name": "salt",
          "type": "bytes32"
        },
        {
          "internalType": "uint256[]",
          "name": "extensions",
          "type": "uint256[]"
        }
      ],
      "stateMutability": "view",
      "type": "function"
    },
    {
      "inputs": [
        {
          "internalType": "uint256",
          "name": "claimIndexHash",
          "type": "uint256"
        }
      ],
      "name": "getClaimProof",
      "outputs": [
        {
          "components": [
            {
              "internalType": "uint256",
              "name": "root",
              "type": "uint256"
            },
            {
              "internalType": "bool",
              "name": "existence",
              "type": "bool"
            },
            {
              "internalType": "uint256[]",
              "name": "siblings",
              "type": "uint256[]"
            },
            {
              "internalType": "uint256",
              "name": "index",
              "type": "uint256"
            },
            {
              "internalType": "uint256",
              "name": "value",
              "type": "uint256"
            },
            {
              "internalType": "bool",
              "name": "auxExistence",
              "type": "bool"
            },
            {
              "internalType": "uint256",
              "name": "auxIndex",
              "type": "uint256"
            },
            {
              "internalType": "uint256",
              "name": "auxValue",
              "type": "uint256"
            }
          ],
          "internalType": "struct SmtLib.Proof",
          "name": "",
          "type": "tuple"
        }
      ],
      "stateMutability": "view",
      "type": "function"
    },
    {
      "inputs": [
        {
          "internalType": "uint256",
          "name": "claimIndexHash",
          "type": "uint256"
        },
        {
          "internalType": "uint256",
          "name": "root",
          "type": "uint256"
        }
      ],
      "name": "getClaimProofByRoot",
      "outputs": [
        {
          "components": [
            {
              "internalType": "uint256",
              "name": "root",
              "type": "uint256"
            },
            {
              "internalType": "bool",
              "name": "existence",
              "type": "bool"
            },
            {
              "internalType": "uint256[]",
              "name": "siblings",
              "type": "uint256[]"
            },
            {
              "internalType": "uint256",
              "name": "index",
              "type": "uint256"
            },
            {
              "internalType": "uint256",
              "name": "value",
              "type": "uint256"
            },
            {
              "internalType": "bool",
              "name": "auxExistence",
              "type": "bool"
            },
            {
              "internalType": "uint256",
              "name": "auxIndex",
              "type": "uint256"
            },
            {
              "internalType": "uint256",
              "name": "auxValue",
              "type": "uint256"
            }
          ],
          "internalType": "struct SmtLib.Proof",
          "name": "",
          "type": "tuple"
        }
      ],
      "stateMutability": "view",
      "type": "function"
    },
    {
      "inputs": [
        {
          "internalType": "uint256",
          "name": "claimIndexHash",
          "type": "uint256"
        }
      ],
      "name": "getClaimProofWithStateInfo",
      "outputs": [
        {
          "components": [
            {
              "internalType": "uint256",
              "name": "root",
              "type": "uint256"
            },
            {
              "internalType": "bool",
              "name": "existence",
              "type": "bool"
            },
            {
              "internalType": "uint256[]",
              "name": "siblings",
              "type": "uint256[]"
            },
            {
              "internalType": "uint256",
              "name": "index",
              "type": "uint256"
            },
            {
              "internalType": "uint256",
              "name": "value",
              "type": "uint256"
            },
            {
              "internalType": "bool",
              "name": "auxExistence",
              "type": "bool"
            },
            {
              "internalType": "uint256",
              "name": "auxIndex",
              "type": "uint256"
            },
            {
              "internalType": "uint256",
              "name": "auxValue",
              "type": "uint256"
            }
          ],
          "internalType": "struct SmtLib.Proof",
          "name": "",
          "type": "tuple"
        },
        {
          "components": [
            {
              "internalType": "uint256",
              "name": "state",
              "type": "uint256"
            },
            {
              "internalType": "uint256",
              "name": "claimsRoot",
              "type": "uint256"
            },
            {
              "internalType": "uint256",
              "name": "revocationsRoot",
              "type": "uint256"
            },
            {
              "internalType": "uint256",
              "name": "rootsRoot",
              "type": "uint256"
            }
          ],
          "internalType": "struct IdentityLib.StateInfo",
          "name": "",
          "type": "tuple"
        }
      ],
      "stateMutability": "view",
      "type": "function"
    },
    {
      "inputs": [],
      "name": "getClaimsTreeRoot",
      "outputs": [
        {
          "internalType": "uint256",
          "name": "",
          "type": "uint256"
        }
      ],
      "stateMutability": "view",
      "type": "function"
    },
    {
      "inputs": [],
      "name": "getExpirationTime",
      "outputs": [
        {
          "internalType": "uint256",
          "name": "",
          "type": "uint256"
        }
      ],
      "stateMutability": "view",
      "type": "function"
    },
    {
      "inputs": [],
      "name": "getId",
      "outputs": [
        {
          "internalType": "uint256",
          "name": "",
          "type": "uint256"
        }
      ],
      "stateMutability": "view",
      "type": "function"
    },
    {
      "inputs": [],
      "name": "getIsOldStateGenesis",
      "outputs": [
        {
          "internalType": "bool",
          "name": "",
          "type": "bool"
        }
      ],
      "stateMutability": "view",
      "type": "function"
    },
    {
      "inputs": [],
      "name": "getLatestPublishedClaimsRoot",
      "outputs": [
        {
          "internalType": "uint256",
          "name": "",
          "type": "uint256"
        }
      ],
      "stateMutability": "view",
      "type": "function"
    },
    {
      "inputs": [],
      "name": "getLatestPublishedRevocationsRoot",
      "outputs": [
        {
          "internalType": "uint256",
          "name": "",
          "type": "uint256"
        }
      ],
      "stateMutability": "view",
      "type": "function"
    },
    {
      "inputs": [],
      "name": "getLatestPublishedRootsRoot",
      "outputs": [
        {
          "internalType": "uint256",
          "name": "",
          "type": "uint256"
        }
      ],
      "stateMutability": "view",
      "type": "function"
    },
    {
      "inputs": [],
      "name": "getLatestPublishedState",
      "outputs": [
        {
          "internalType": "uint256",
          "name": "",
          "type": "uint256"
        }
      ],
      "stateMutability": "view",
      "type": "function"
    },
    {
      "inputs": [
        {
          "internalType": "uint64",
          "name": "revocationNonce",
          "type": "uint64"
        }
      ],
      "name": "getRevocationProof",
      "outputs": [
        {
          "components": [
            {
              "internalType": "uint256",
              "name": "root",
              "type": "uint256"
            },
            {
              "internalType": "bool",
              "name": "existence",
              "type": "bool"
            },
            {
              "internalType": "uint256[]",
              "name": "siblings",
              "type": "uint256[]"
            },
            {
              "internalType": "uint256",
              "name": "index",
              "type": "uint256"
            },
            {
              "internalType": "uint256",
              "name": "value",
              "type": "uint256"
            },
            {
              "internalType": "bool",
              "name": "auxExistence",
              "type": "bool"
            },
            {
              "internalType": "uint256",
              "name": "auxIndex",
              "type": "uint256"
            },
            {
              "internalType": "uint256",
              "name": "auxValue",
              "type": "uint256"
            }
          ],
          "internalType": "struct SmtLib.Proof",
          "name": "",
          "type": "tuple"
        }
      ],
      "stateMutability": "view",
      "type": "function"
    },
    {
      "inputs": [
        {
          "internalType": "uint64",
          "name": "revocationNonce",
          "type": "uint64"
        },
        {
          "internalType": "uint256",
          "name": "root",
          "type": "uint256"
        }
      ],
      "name": "getRevocationProofByRoot",
      "outputs": [
        {
          "components": [
            {
              "internalType": "uint256",
              "name": "root",
              "type": "uint256"
            },
            {
              "internalType": "bool",
              "name": "existence",
              "type": "bool"
            },
            {
              "internalType": "uint256[]",
              "name": "siblings",
              "type": "uint256[]"
            },
            {
              "internalType": "uint256",
              "name": "index",
              "type": "uint256"
            },
            {
              "internalType": "uint256",
              "name": "value",
              "type": "uint256"
            },
            {
              "internalType": "bool",
              "name": "auxExistence",
              "type": "bool"
            },
            {
              "internalType": "uint256",
              "name": "auxIndex",
              "type": "uint256"
            },
            {
              "internalType": "uint256",
              "name": "auxValue",
              "type": "uint256"
            }
          ],
          "internalType": "struct SmtLib.Proof",
          "name": "",
          "type": "tuple"
        }
      ],
      "stateMutability": "view",
      "type": "function"
    },
    {
      "inputs": [
        {
          "internalType": "uint64",
          "name": "revocationNonce",
          "type": "uint64"
        }
      ],
      "name": "getRevocationProofWithStateInfo",
      "outputs": [
        {
          "components": [
            {
              "internalType": "uint256",
              "name": "root",
              "type": "uint256"
            },
            {
              "internalType": "bool",
              "name": "existence",
              "type": "bool"
            },
            {
              "internalType": "uint256[]",
              "name": "siblings",
              "type": "uint256[]"
            },
            {
              "internalType": "uint256",
              "name": "index",
              "type": "uint256"
            },
            {
              "internalType": "uint256",
              "name": "value",
              "type": "uint256"
            },
            {
              "internalType": "bool",
              "name": "auxExistence",
              "type": "bool"
            },
            {
              "internalType": "uint256",
              "name": "auxIndex",
              "type": "uint256"
            },
            {
              "internalType": "uint256",
              "name": "auxValue",
              "type": "uint256"
            }
          ],
          "internalType": "struct SmtLib.Proof",
          "name": "",
          "type": "tuple"
        },
        {
          "components": [
            {
              "internalType": "uint256",
              "name": "state",
              "type": "uint256"
            },
            {
              "internalType": "uint256",
              "name": "claimsRoot",
              "type": "uint256"
            },
            {
              "internalType": "uint256",
              "name": "revocationsRoot",
              "type": "uint256"
            },
            {
              "internalType": "uint256",
              "name": "rootsRoot",
              "type": "uint256"
            }
          ],
          "internalType": "struct IdentityLib.StateInfo",
          "name": "",
          "type": "tuple"
        }
      ],
      "stateMutability": "view",
      "type": "function"
    },
    {
      "inputs": [
        {
          "internalType": "uint256",
          "name": "id",
          "type": "uint256"
        },
        {
          "internalType": "uint64",
          "name": "nonce",
          "type": "uint64"
        }
      ],
      "name": "getRevocationStatus",
      "outputs": [
        {
          "components": [
            {
              "components": [
                {
                  "internalType": "uint256",
                  "name": "state",
                  "type": "uint256"
                },
                {
                  "internalType": "uint256",
                  "name": "claimsTreeRoot",
                  "type": "uint256"
                },
                {
                  "internalType": "uint256",
                  "name": "revocationTreeRoot",
                  "type": "uint256"
                },
                {
                  "internalType": "uint256",
                  "name": "rootOfRoots",
                  "type": "uint256"
                }
              ],
              "internalType": "struct IOnchainCredentialStatusResolver.IdentityStateRoots",
              "name": "issuer",
              "type": "tuple"
            },
            {
              "components": [
                {
                  "internalType": "uint256",
                  "name": "root",
                  "type": "uint256"
                },
                {
                  "internalType": "bool",
                  "name": "existence",
                  "type": "bool"
                },
                {
                  "internalType": "uint256[]",
                  "name": "siblings",
                  "type": "uint256[]"
                },
                {
                  "internalType": "uint256",
                  "name": "index",
                  "type": "uint256"
                },
                {
                  "internalType": "uint256",
                  "name": "value",
                  "type": "uint256"
                },
                {
                  "internalType": "bool",
                  "name": "auxExistence",
                  "type": "bool"
                },
                {
                  "internalType": "uint256",
                  "name": "auxIndex",
                  "type": "uint256"
                },
                {
                  "internalType": "uint256",
                  "name": "auxValue",
                  "type": "uint256"
                }
              ],
              "internalType": "struct IOnchainCredentialStatusResolver.Proof",
              "name": "mtp",
              "type": "tuple"
            }
          ],
          "internalType": "struct IOnchainCredentialStatusResolver.CredentialStatus",
          "name": "",
          "type": "tuple"
        }
      ],
      "stateMutability": "view",
      "type": "function"
    },
    {
      "inputs": [
        {
          "internalType": "uint256",
          "name": "id",
          "type": "uint256"
        },
        {
          "internalType": "uint256",
          "name": "state",
          "type": "uint256"
        },
        {
          "internalType": "uint64",
          "name": "nonce",
          "type": "uint64"
        }
      ],
      "name": "getRevocationStatusByIdAndState",
      "outputs": [
        {
          "components": [
            {
              "components": [
                {
                  "internalType": "uint256",
                  "name": "state",
                  "type": "uint256"
                },
                {
                  "internalType": "uint256",
                  "name": "claimsTreeRoot",
                  "type": "uint256"
                },
                {
                  "internalType": "uint256",
                  "name": "revocationTreeRoot",
                  "type": "uint256"
                },
                {
                  "internalType": "uint256",
                  "name": "rootOfRoots",
                  "type": "uint256"
                }
              ],
              "internalType": "struct IOnchainCredentialStatusResolver.IdentityStateRoots",
              "name": "issuer",
              "type": "tuple"
            },
            {
              "components": [
                {
                  "internalType": "uint256",
                  "name": "root",
                  "type": "uint256"
                },
                {
                  "internalType": "bool",
                  "name": "existence",
                  "type": "bool"
                },
                {
                  "internalType": "uint256[]",
                  "name": "siblings",
                  "type": "uint256[]"
                },
                {
                  "internalType": "uint256",
                  "name": "index",
                  "type": "uint256"
                },
                {
                  "internalType": "uint256",
                  "name": "value",
                  "type": "uint256"
                },
                {
                  "internalType": "bool",
                  "name": "auxExistence",
                  "type": "bool"
                },
                {
                  "internalType": "uint256",
                  "name": "auxIndex",
                  "type": "uint256"
                },
                {
                  "internalType": "uint256",
                  "name": "auxValue",
                  "type": "uint256"
                }
              ],
              "internalType": "struct IOnchainCredentialStatusResolver.Proof",
              "name": "mtp",
              "type": "tuple"
            }
          ],
          "internalType": "struct IOnchainCredentialStatusResolver.CredentialStatus",
          "name": "",
          "type": "tuple"
        }
      ],
      "stateMutability": "view",
      "type": "function"
    },
    {
      "inputs": [],
      "name": "getRevocationsTreeRoot",
      "outputs": [
        {
          "internalType": "uint256",
          "name": "",
          "type": "uint256"
        }
      ],
      "stateMutability": "view",
      "type": "function"
    },
    {
      "inputs": [
        {
          "internalType": "uint256",
          "name": "rootsTreeRoot",
          "type": "uint256"
        }
      ],
      "name": "getRootProof",
      "outputs": [
        {
          "components": [
            {
              "internalType": "uint256",
              "name": "root",
              "type": "uint256"
            },
            {
              "internalType": "bool",
              "name": "existence",
              "type": "bool"
            },
            {
              "internalType": "uint256[]",
              "name": "siblings",
              "type": "uint256[]"
            },
            {
              "internalType": "uint256",
              "name": "index",
              "type": "uint256"
            },
            {
              "internalType": "uint256",
              "name": "value",
              "type": "uint256"
            },
            {
              "internalType": "bool",
              "name": "auxExistence",
              "type": "bool"
            },
            {
              "internalType": "uint256",
              "name": "auxIndex",
              "type": "uint256"
            },
            {
              "internalType": "uint256",
              "name": "auxValue",
              "type": "uint256"
            }
          ],
          "internalType": "struct SmtLib.Proof",
          "name": "",
          "type": "tuple"
        }
      ],
      "stateMutability": "view",
      "type": "function"
    },
    {
      "inputs": [
        {
          "internalType": "uint256",
          "name": "claimsTreeRoot",
          "type": "uint256"
        },
        {
          "internalType": "uint256",
          "name": "root",
          "type": "uint256"
        }
      ],
      "name": "getRootProofByRoot",
      "outputs": [
        {
          "components": [
            {
              "internalType": "uint256",
              "name": "root",
              "type": "uint256"
            },
            {
              "internalType": "bool",
              "name": "existence",
              "type": "bool"
            },
            {
              "internalType": "uint256[]",
              "name": "siblings",
              "type": "uint256[]"
            },
            {
              "internalType": "uint256",
              "name": "index",
              "type": "uint256"
            },
            {
              "internalType": "uint256",
              "name": "value",
              "type": "uint256"
            },
            {
              "internalType": "bool",
              "name": "auxExistence",
              "type": "bool"
            },
            {
              "internalType": "uint256",
              "name": "auxIndex",
              "type": "uint256"
            },
            {
              "internalType": "uint256",
              "name": "auxValue",
              "type": "uint256"
            }
          ],
          "internalType": "struct SmtLib.Proof",
          "name": "",
          "type": "tuple"
        }
      ],
      "stateMutability": "view",
      "type": "function"
    },
    {
      "inputs": [
        {
          "internalType": "uint256",
          "name": "rootsTreeRoot",
          "type": "uint256"
        }
      ],
      "name": "getRootProofWithStateInfo",
      "outputs": [
        {
          "components": [
            {
              "internalType": "uint256",
              "name": "root",
              "type": "uint256"
            },
            {
              "internalType": "bool",
              "name": "existence",
              "type": "bool"
            },
            {
              "internalType": "uint256[]",
              "name": "siblings",
              "type": "uint256[]"
            },
            {
              "internalType": "uint256",
              "name": "index",
              "type": "uint256"
            },
            {
              "internalType": "uint256",
              "name": "value",
              "type": "uint256"
            },
            {
              "internalType": "bool",
              "name": "auxExistence",
              "type": "bool"
            },
            {
              "internalType": "uint256",
              "name": "auxIndex",
              "type": "uint256"
            },
            {
              "internalType": "uint256",
              "name": "auxValue",
              "type": "uint256"
            }
          ],
          "internalType": "struct SmtLib.Proof",
          "name": "",
          "type": "tuple"
        },
        {
          "components": [
            {
              "internalType": "uint256",
              "name": "state",
              "type": "uint256"
            },
            {
              "internalType": "uint256",
              "name": "claimsRoot",
              "type": "uint256"
            },
            {
              "internalType": "uint256",
              "name": "revocationsRoot",
              "type": "uint256"
            },
            {
              "internalType": "uint256",
              "name": "rootsRoot",
              "type": "uint256"
            }
          ],
          "internalType": "struct IdentityLib.StateInfo",
          "name": "",
          "type": "tuple"
        }
      ],
      "stateMutability": "view",
      "type": "function"
    },
    {
      "inputs": [
        {
          "internalType": "uint256",
          "name": "state",
          "type": "uint256"
        }
      ],
      "name": "getRootsByState",
      "outputs": [
        {
          "components": [
            {
              "internalType": "uint256",
              "name": "claimsRoot",
              "type": "uint256"
            },
            {
              "internalType": "uint256",
              "name": "revocationsRoot",
              "type": "uint256"
            },
            {
              "internalType": "uint256",
              "name": "rootsRoot",
              "type": "uint256"
            }
          ],
          "internalType": "struct IdentityLib.Roots",
          "name": "",
          "type": "tuple"
        }
      ],
      "stateMutability": "view",
      "type": "function"
    },
    {
      "inputs": [],
      "name": "getRootsTreeRoot",
      "outputs": [
        {
          "internalType": "uint256",
          "name": "",
          "type": "uint256"
        }
      ],
      "stateMutability": "view",
      "type": "function"
    },
    {
      "inputs": [],
      "name": "getSigners",
      "outputs": [
        {
          "internalType": "address[]",
          "name": "",
          "type": "address[]"
        }
      ],
      "stateMutability": "view",
      "type": "function"
    },
    {
      "inputs": [],
      "name": "getSmtDepth",
      "outputs": [
        {
          "internalType": "uint256",
          "name": "",
          "type": "uint256"
        }
      ],
      "stateMutability": "pure",
      "type": "function"
    },
    {
      "inputs": [],
      "name": "getTemplateRoot",
      "outputs": [
        {
          "internalType": "uint256",
          "name": "",
          "type": "uint256"
        }
      ],
      "stateMutability": "view",
      "type": "function"
    },
    {
      "inputs": [],
      "name": "getTransactors",
      "outputs": [
        {
          "internalType": "address[]",
          "name": "",
          "type": "address[]"
        }
      ],
      "stateMutability": "view",
      "type": "function"
    },
    {
      "inputs": [
        {
          "internalType": "address",
          "name": "_stateContractAddr",
          "type": "address"
        },
        {
          "internalType": "bytes2",
          "name": "idType",
          "type": "bytes2"
        }
      ],
      "name": "initialize",
      "outputs": [],
      "stateMutability": "nonpayable",
      "type": "function"
    },
    {
      "inputs": [
        {
          "internalType": "uint256",
          "name": "expirationTime",
          "type": "uint256"
        },
        {
          "internalType": "uint256",
          "name": "templateRoot",
          "type": "uint256"
        },
        {
          "internalType": "string[]",
          "name": "credentialCircuitIds",
          "type": "string[]"
        },
        {
          "internalType": "address[]",
          "name": "credentialVerifierAddresses",
          "type": "address[]"
        },
        {
          "internalType": "address",
          "name": "stateAddress",
          "type": "address"
        },
        {
          "internalType": "bytes2",
          "name": "idType",
          "type": "bytes2"
        }
      ],
      "name": "initializeIssuer",
      "outputs": [],
      "stateMutability": "nonpayable",
      "type": "function"
    },
    {
      "inputs": [
        {
          "internalType": "bytes32",
          "name": "imageHash",
          "type": "bytes32"
        }
      ],
      "name": "isWhitelistedImageHash",
      "outputs": [
        {
          "internalType": "bool",
          "name": "",
          "type": "bool"
        }
      ],
      "stateMutability": "view",
      "type": "function"
    },
    {
      "inputs": [
        {
          "internalType": "uint256",
          "name": "nullifier",
          "type": "uint256"
        }
      ],
      "name": "nullifierExists",
      "outputs": [
        {
          "internalType": "bool",
          "name": "",
          "type": "bool"
        }
      ],
      "stateMutability": "view",
      "type": "function"
    },
    {
      "inputs": [],
      "name": "owner",
      "outputs": [
        {
          "internalType": "address",
          "name": "",
          "type": "address"
        }
      ],
      "stateMutability": "view",
      "type": "function"
    },
    {
      "inputs": [],
      "name": "pendingOwner",
      "outputs": [
        {
          "internalType": "address",
          "name": "",
          "type": "address"
        }
      ],
      "stateMutability": "view",
      "type": "function"
    },
    {
      "inputs": [],
      "name": "proxiableUUID",
      "outputs": [
        {
          "internalType": "bytes32",
          "name": "",
          "type": "bytes32"
        }
      ],
      "stateMutability": "view",
      "type": "function"
    },
    {
      "inputs": [
        {
          "internalType": "bytes32",
          "name": "imageHash",
          "type": "bytes32"
        }
      ],
      "name": "removeImageHashFromWhitelist",
      "outputs": [],
      "stateMutability": "nonpayable",
      "type": "function"
    },
    {
      "inputs": [],
      "name": "renounceOwnership",
      "outputs": [],
      "stateMutability": "nonpayable",
      "type": "function"
    },
    {
      "inputs": [
        {
          "internalType": "contract IAttestationValidator",
          "name": "validator",
          "type": "address"
        }
      ],
      "name": "setAttestationValidator",
      "outputs": [],
      "stateMutability": "nonpayable",
      "type": "function"
    },
    {
      "inputs": [
        {
          "internalType": "uint256",
          "name": "expirationTime",
          "type": "uint256"
        }
      ],
      "name": "setExpirationTime",
      "outputs": [],
      "stateMutability": "nonpayable",
      "type": "function"
    },
    {
      "inputs": [
        {
          "internalType": "uint256",
          "name": "templateRoot",
          "type": "uint256"
        }
      ],
      "name": "setTemplateRoot",
      "outputs": [],
      "stateMutability": "nonpayable",
      "type": "function"
    },
    {
      "inputs": [
        {
          "components": [
            {
              "internalType": "uint64",
              "name": "requestId",
              "type": "uint64"
            },
            {
              "internalType": "bytes",
              "name": "zkProof",
              "type": "bytes"
            },
            {
              "internalType": "bytes",
              "name": "data",
              "type": "bytes"
            }
          ],
          "internalType": "struct IZKPVerifier.ZKPResponse[]",
          "name": "responses",
          "type": "tuple[]"
        },
        {
          "internalType": "bytes",
          "name": "crossChainProofs",
          "type": "bytes"
        }
      ],
      "name": "submitZKPResponseV2",
      "outputs": [],
      "stateMutability": "nonpayable",
      "type": "function"
    },
    {
      "inputs": [
        {
          "internalType": "bytes4",
          "name": "interfaceId",
          "type": "bytes4"
        }
      ],
      "name": "supportsInterface",
      "outputs": [
        {
          "internalType": "bool",
          "name": "",
          "type": "bool"
        }
      ],
      "stateMutability": "view",
      "type": "function"
    },
    {
      "inputs": [
        {
          "internalType": "address",
          "name": "newOwner",
          "type": "address"
        }
      ],
      "name": "transferOwnership",
      "outputs": [],
      "stateMutability": "nonpayable",
      "type": "function"
    },
    {
      "inputs": [
        {
          "internalType": "string[]",
          "name": "circuitIds",
          "type": "string[]"
        },
        {
          "internalType": "address[]",
          "name": "verifierAddresses",
          "type": "address[]"
        }
      ],
      "name": "updateCredentialVerifiers",
      "outputs": [],
      "stateMutability": "nonpayable",
      "type": "function"
    },
    {
      "inputs": [
        {
          "internalType": "address",
          "name": "newImplementation",
          "type": "address"
        },
        {
          "internalType": "bytes",
          "name": "data",
          "type": "bytes"
        }
      ],
      "name": "upgradeToAndCall",
      "outputs": [],
      "stateMutability": "payable",
      "type": "function"
    }
  ],
  "bytecode": "0x60a06040523060805234801561001457600080fd5b5061001d610022565b6100d4565b7ff0c57e16840df040f15088dc2f81fe391c3923bec73e23a9662efc9c229c6a00805468010000000000000000900460ff16156100725760405163f92ee8a960e01b815260040160405180910390fd5b80546001600160401b03908116146100d15780546001600160401b0319166001600160401b0390811782556040519081527fc7f505b2f371ae2175ee4913f4499e1f2633a7b5936321eed1cdaeb6115181d29060200160405180910390a15b50565b60805161471e6100fd6000396000818161236901528181612392015261257b015261471e6000f3fe6080604052600436106103755760003560e01c80638a684553116101d1578063c0cc365d11610102578063da936540116100a0578063f2fde38b1161006f578063f2fde38b14610a29578063f84c7c1e14610a49578063fa78d88c14610a5e578063ffa1ad7414610a7e57600080fd5b8063da936540146109ab578063e23a845a146109df578063e26ecb0b146109f4578063e30c397814610a1457600080fd5b8063cfa350c8116100dc578063cfa350c814610936578063d622ea6e14610956578063d94b027114610976578063da68a0b11461099657600080fd5b8063c0cc365d146108e1578063c1e3273314610901578063c6365a3b1461092157600080fd5b8063ad3cb1cc1161016f578063b37feda411610149578063b37feda41461083f578063b57a40cb1461085f578063b8db68711461087f578063badf055d146108c157600080fd5b8063ad3cb1cc146107ce578063ade09fcd146107ff578063b354c2d81461081f57600080fd5b80639674cfa4116101ab5780639674cfa41461073b578063a635c78514610750578063aad7292114610770578063acb8cc491461079057600080fd5b80638a684553146106d95780638da5cb5b146106f957806394cf795e1461072657600080fd5b80633f0c6648116102ab5780635d1ca6311161024957806376ee7b491161022357806376ee7b491461065c57806379ba50971461067c57806384b0196e146106915780638a03c166146106b957600080fd5b80635d1ca6311461061257806370f4f9df14610627578063715018a61461064757600080fd5b8063443d753411610285578063443d7534146105b55780634f1ef286146105d5578063523b8136146105e857806352d1902d146105fd57600080fd5b80633f0c664814610561578063406e8b4c1461057557806342d4ef0f1461059557600080fd5b80632c1d320411610318578063310d0d5b116102f2578063310d0d5b146104f75780633cc8a8fa146105175780633d59ec60146105375780633df432fc1461054c57600080fd5b80632c1d3204146104a05780632d26b309146104b55780632d5c4f25146104d757600080fd5b8063110c96a711610354578063110c96a71461040457806323aafe3b1461043157806326485063146104535780632afab62f1461048057600080fd5b806233058d1461037a57806301c85c77146103b157806301ffc9a7146103d4575b600080fd5b34801561038657600080fd5b5061039a610395366004613484565b610aaf565b6040516103a8929190613541565b60405180910390f35b3480156103bd57600080fd5b506103c6610b7c565b6040519081526020016103a8565b3480156103e057600080fd5b506103f46103ef366004613584565b610c01565b60405190151581526020016103a8565b34801561041057600080fd5b5061042461041f3660046135ae565b610c38565b6040516103a891906135da565b34801561043d57600080fd5b5061045161044c366004613627565b610c63565b005b34801561045f57600080fd5b5061047361046e366004613484565b610c9e565b6040516103a89190613640565b34801561048c57600080fd5b506103f461049b366004613627565b610d37565b3480156104ac57600080fd5b506103c6610d67565b3480156104c157600080fd5b506104ca610d82565b6040516103a89190613653565b3480156104e357600080fd5b506104736104f236600461369f565b610d9f565b34801561050357600080fd5b5061047361051236600461369f565b610e3e565b34801561052357600080fd5b506104516105323660046136d6565b610e95565b34801561054357600080fd5b506103c6610f00565b34801561055857600080fd5b506103c6610f13565b34801561056d57600080fd5b5060286103c6565b34801561058157600080fd5b5061045161059036600461370b565b610f56565b3480156105a157600080fd5b506104516105b036600461377b565b610ff3565b3480156105c157600080fd5b5061039a6105d0366004613627565b611189565b6104516105e336600461395b565b611204565b3480156105f457600080fd5b506103c6611223565b34801561060957600080fd5b506103c6611236565b34801561061e57600080fd5b506103c6611253565b34801561063357600080fd5b506104516106423660046136d6565b611263565b34801561065357600080fd5b506104516112c6565b34801561066857600080fd5b506104516106773660046139aa565b6112da565b34801561068857600080fd5b50610451611471565b34801561069d57600080fd5b506106a66114b9565b6040516103a89796959493929190613a2e565b3480156106c557600080fd5b506104516106d4366004613627565b611565565b3480156106e557600080fd5b506104516106f43660046136d6565b61157f565b34801561070557600080fd5b5061070e6115bc565b6040516001600160a01b0390911681526020016103a8565b34801561073257600080fd5b506104ca6115f1565b34801561074757600080fd5b506103c661160e565b34801561075c57600080fd5b5061070e61076b366004613ac6565b611621565b34801561077c57600080fd5b5061042461078b366004613b0e565b611664565b34801561079c57600080fd5b506107c1604051806040016040528060058152602001640312e302e360dc1b81525081565b6040516103a89190613b43565b3480156107da57600080fd5b506107c1604051806040016040528060058152602001640352e302e360dc1b81525081565b34801561080b57600080fd5b5061045161081a366004613b79565b61187d565b34801561082b57600080fd5b5061045161083a366004613627565b611b44565b34801561084b57600080fd5b5061039a61085a366004613627565b611b98565b34801561086b57600080fd5b5061047361087a366004613627565b611c13565b34801561088b57600080fd5b5061089f61089a366004613627565b611c61565b60408051825181526020808401519082015291810151908201526060016103a8565b3480156108cd57600080fd5b506104516108dc366004613cbc565b611d09565b3480156108ed57600080fd5b506104516108fc366004613627565b611f6b565b34801561090d57600080fd5b5061047361091c366004613627565b611fb5565b34801561092d57600080fd5b506103c6612005565b34801561094257600080fd5b506103c6610951366004613ac6565b612018565b34801561096257600080fd5b506107c1610971366004613627565b612051565b34801561098257600080fd5b50610451610991366004613627565b612105565b3480156109a257600080fd5b506103c6612193565b3480156109b757600080fd5b506103c67f0d2a15c3140485b6db2a8c0f755486294daaae1eabcdd518f6beaf8e4ab4d83481565b3480156109eb57600080fd5b506103c66121d6565b348015610a0057600080fd5b50610473610a0f366004613d2b565b6121ee565b348015610a2057600080fd5b5061070e61224d565b348015610a3557600080fd5b50610451610a443660046136d6565b612276565b348015610a5557600080fd5b506103f46122fb565b348015610a6a57600080fd5b506103f4610a79366004613627565b612311565b348015610a8a57600080fd5b506107c160405180604001604052806005815260200164312e302e3360d81b81525081565b610ab7613398565b610ae26040518060800160405280600081526020016000815260200160008152602001600081525090565b610aea61233a565b604051631f17004d60e31b815260048101919091526001600160401b038416602482015273__$068aad146bf104111ba65c4a1de2cd0e23$__9063f8b80268906044015b600060405180830381865af4158015610b4b573d6000803e3d6000fd5b505050506040513d6000823e601f3d908101601f19168201604052610b739190810190613e6b565b91509150915091565b6000610b8661233a565b60405163765c2c6160e01b8152600481019190915273__$068aad146bf104111ba65c4a1de2cd0e23$__9063765c2c61906024015b602060405180830381865af4158015610bd8573d6000803e3d6000fd5b505050506040513d601f19601f82011682018060405250810190610bfc9190613f0f565b905090565b60006001600160e01b03198216635d1ca63160e01b1480610c3257506301ffc9a760e01b6001600160e01b03198316145b92915050565b610c406133e1565b6000610c4a61233a565b600101549050610c5b848285611664565b949350505050565b610c6b61235e565b610c73612403565b6000610c7d612435565b6000928352600a016020526040909120805460ff1916911515919091179055565b610ca6613398565b610cae61233a565b604051637d0aba4f60e01b815260048101919091526001600160401b038316602482015273__$068aad146bf104111ba65c4a1de2cd0e23$__90637d0aba4f906044015b600060405180830381865af4158015610d0f573d6000803e3d6000fd5b505050506040513d6000823e601f3d908101601f19168201604052610c329190810190613f28565b6000610d4161235e565b610d49612435565b6000838152600291909101602052604090205460ff1690505b919050565b6000610d7161235e565b610d79612435565b60010154905090565b6060610d8c61235e565b610bfc610d97612435565b600b01612459565b610da7613398565b610daf61233a565b60405163d55da6a360e01b81526004810191909152602481018490526044810183905273__$068aad146bf104111ba65c4a1de2cd0e23$__9063d55da6a3906064015b600060405180830381865af4158015610e0f573d6000803e3d6000fd5b505050506040513d6000823e601f3d908101601f19168201604052610e379190810190613f28565b9392505050565b610e46613398565b610e4e61233a565b604051636ac0c5c760e11b81526004810191909152602481018490526044810183905273__$068aad146bf104111ba65c4a1de2cd0e23$__9063d5818b8e90606401610df2565b610e9d61235e565b610ea5612403565b6000610eaf612435565b9050610ebe6007820183612466565b506040516001600160a01b03831681527f47d1c22a25bb3a5d4e481b9b1e6944c2eade3181a0a20b495ed61d35b5323f24906020015b60405180910390a15050565b6000610f0a61233a565b60010154919050565b6000610f1d61233a565b604051631b8bf99b60e21b8152600481019190915273__$068aad146bf104111ba65c4a1de2cd0e23$__90636e2fe66c90602401610bbb565b610f5e61233a565b6040516359a6069160e01b815260048101919091526001600160a01b0383166024820152306044820152602860648201526001600160f01b03198216608482015273__$068aad146bf104111ba65c4a1de2cd0e23$__906359a606919060a4015b60006040518083038186803b158015610fd757600080fd5b505af4158015610feb573d6000803e3d6000fd5b505050505050565b7ff0c57e16840df040f15088dc2f81fe391c3923bec73e23a9662efc9c229c6a008054600160401b810460ff1615906001600160401b03166000811580156110385750825b90506000826001600160401b031660011480156110545750303b155b905081158015611062575080155b156110805760405163f92ee8a960e01b815260040160405180910390fd5b845467ffffffffffffffff1916600117855583156110aa57845460ff60401b1916600160401b1785555b6110b48787610f56565b6110bd3361247b565b60006110c7612435565b8e815560018082018f90556006820155604080518082018252601081526f50617373706f7274497373756572563160801b602080830191909152825180840190935260058352640312e302e360dc1b90830152919250611127919061248c565b6111338c8c8c8c611d09565b50831561117a57845460ff60401b19168555604051600181527fc7f505b2f371ae2175ee4913f4499e1f2633a7b5936321eed1cdaeb6115181d29060200160405180910390a15b50505050505050505050505050565b611191613398565b6111bc6040518060800160405280600081526020016000815260200160008152602001600081525090565b6111c461233a565b60405163a3018d7960e01b815260048101919091526024810184905273__$068aad146bf104111ba65c4a1de2cd0e23$__9063a3018d7990604401610b2e565b61120c61235e565b6112158261249e565b61121f82826124ae565b5050565b600061122d61233a565b609a0154919050565b6000611240612570565b506000805160206146c983398151915290565b600061125d61233a565b54919050565b61126b61235e565b611273612403565b600061127d612435565b905061128c600b820183612466565b506040516001600160a01b03831681527f0a33c33ca5c931f5cbdaa4137c8b7f3ea632aa05390959f913c410776733061b90602001610ef4565b6112ce612403565b6112d860006125b9565b565b6112e261235e565b6112ea6125f1565b60008060006112f7612435565b600901546040516338e93f6b60e01b81526001600160a01b03909116906338e93f6b9061132b908790600090600401613f5c565b6000604051808303816000875af115801561134a573d6000803e3d6000fd5b505050506040513d6000823e601f3d908101601f191682016040526113729190810190613fc5565b92509250925061138182612311565b6113a657604051638338dba560e01b8152600481018390526024015b60405180910390fd5b806113c45760405163bd8ba84d60e01b815260040160405180910390fd5b6014835110156113e75760405163025198d560e31b815260040160405180910390fd5b60148301516001600160a01b03811661141357604051634501a91960e01b815260040160405180910390fd5b600061141d612435565b905061142c6007820183612466565b506040516001600160a01b03831681527f47d1c22a25bb3a5d4e481b9b1e6944c2eade3181a0a20b495ed61d35b5323f249060200160405180910390a1505050505050565b338061147b61224d565b6001600160a01b0316146114ad5760405163118cdaa760e01b81526001600160a01b038216600482015260240161139d565b6114b6816125b9565b50565b600060608082808083816000805160206146a983398151915280549091501580156114e657506001810154155b61152a5760405162461bcd60e51b81526020600482015260156024820152741152540dcc4c8e88155b9a5b9a5d1a585b1a5e9959605a1b604482015260640161139d565b611532612625565b61153a6126e8565b60408051600080825260208201909252600f60f81b9c939b5091995046985030975095509350915050565b61156d61235e565b611575612403565b6001610c7d612435565b61158761235e565b61158f612403565b80611598612435565b60090180546001600160a01b0319166001600160a01b039290921691909117905550565b6000807f9016d09d72d40fdae2fd8ceac6b6234c7706214fd39c1cd1e609a0528c1993005b546001600160a01b031692915050565b60606115fb61235e565b610bfc611606612435565b600701612459565b600061161861233a565b609b0154919050565b600061162b61235e565b611633612435565b600301826040516116449190614014565b908152604051908190036020019020546001600160a01b03169050919050565b61166c6133e1565b61167461233a565b5484146116ba5760405162461bcd60e51b8152602060048201526014602482015273092c8cadce8d2e8f240d2c840dad2e6dac2e8c6d60631b604482015260640161139d565b60006116c461233a565b604051630b1a9cd360e01b815260048101919091526024810185905273__$068aad146bf104111ba65c4a1de2cd0e23$__90630b1a9cd390604401606060405180830381865af415801561171c573d6000803e3d6000fd5b505050506040513d601f19601f820116820180604052508101906117409190614030565b60408051608081018252868152825160208083019190915283015181830152908201516060820152909150600061177561233a565b6020840151604051630b2bcd1b60e11b815260048101929092526001600160401b0387166024830152604482015273__$068aad146bf104111ba65c4a1de2cd0e23$__906316579a3690606401600060405180830381865af41580156117df573d6000803e3d6000fd5b505050506040513d6000823e601f3d908101601f191682016040526118079190810190613f28565b6040805161010081018252825181526020808401511515818301528284015182840152606080850151908301526080808501519083015260a08085015115159083015260c0808501519083015260e093840151938201939093528151808301909252938152908101929092525095945050505050565b6000611887612435565b905082516001146118b8578251604051630264a11560e21b815260048101919091526001602482015260440161139d565b6060816004016000856000815181106118d3576118d361406d565b6020026020010151600001516001600160401b03168152602001908152602001600020805461190190614083565b80601f016020809104026020016040519081016040528092919081815260200182805461192d90614083565b801561197a5780601f1061194f5761010080835404028352916020019161197a565b820191906000526020600020905b81548152906001019060200180831161195d57829003601f168201915b5050505050905080516000036119ce578360008151811061199d5761199d61406d565b60209081029190910101515160405163ea99bbcd60e01b81526001600160401b03909116600482015260240161139d565b600080600080876000815181106119e7576119e761406d565b602002602001015160200151806020019051810190611a069190614104565b9350935093509350600060405180608001604052808581526020018481526020018381526020016040518060c0016040528088600081518110611a4b57611a4b61406d565b6020026020010151815260200188600181518110611a6b57611a6b61406d565b6020026020010151815260200188600281518110611a8b57611a8b61406d565b6020026020010151815260200188600381518110611aab57611aab61406d565b6020026020010151815260200188600481518110611acb57611acb61406d565b6020026020010151815260200188600581518110611aeb57611aeb61406d565b60200260200101518152508152509050600088806020019051810190611b1191906141be565b9050611b38878383600081518110611b2b57611b2b61406d565b6020026020010151612727565b50505050505050505050565b611b4c61235e565b611b54612403565b80611b5d612435565b600101556040518181527ff007a02ba428e63fa98b65269e70f9a9db847e0a839049a2f31f069282267734906020015b60405180910390a150565b611ba0613398565b611bcb6040518060800160405280600081526020016000815260200160008152602001600081525090565b611bd361233a565b604051636ad1d8a760e11b815260048101919091526024810184905273__$068aad146bf104111ba65c4a1de2cd0e23$__9063d5a3b14e90604401610b2e565b611c1b613398565b611c2361233a565b604051620cf08960e41b815260048101919091526024810183905273__$068aad146bf104111ba65c4a1de2cd0e23$__9062cf089090604401610cf2565b611c8560405180606001604052806000815260200160008152602001600081525090565b611c8d61233a565b604051630b1a9cd360e01b815260048101919091526024810183905273__$068aad146bf104111ba65c4a1de2cd0e23$__90630b1a9cd390604401606060405180830381865af4158015611ce5573d6000803e3d6000fd5b505050506040513d601f19601f82011682018060405250810190610c329190614030565b611d1161235e565b611d19612403565b6000611d23612435565b9050838214611d4f576040516355c5b3e360e11b8152600481018590526024810183905260440161139d565b60005b84811015610feb57838382818110611d6c57611d6c61406d565b9050602002016020810190611d8191906136d6565b82600301878784818110611d9757611d9761406d565b9050602002810190611da991906142e3565b604051611db7929190614329565b90815260405190819003602001902080546001600160a01b03929092166001600160a01b0319909216919091179055600060058301878784818110611dfe57611dfe61406d565b9050602002810190611e1091906142e3565b604051611e1e929190614329565b908152602001604051809103902054905080600003611edd575060068201548060058401888885818110611e5457611e5461406d565b9050602002810190611e6691906142e3565b604051611e74929190614329565b90815260405190819003602001902055868683818110611e9657611e9661406d565b9050602002810190611ea891906142e3565b6000838152600486016020526040902091611ec4919083614387565b50600683018054906000611ed78361445c565b91905055505b7f17b20bbf8df0ff1422db2abe4b28c298e32929a2d112f027c3f68d488cf3cf74878784818110611f1057611f1061406d565b9050602002810190611f2291906142e3565b878786818110611f3457611f3461406d565b9050602002016020810190611f4991906136d6565b84604051611f5a9493929190614475565b60405180910390a150600101611d52565b611f7361235e565b611f7b612403565b80611f84612435565b556040518181527f7f7f3071c3c286700c199acae2fe071beb4a63dae1afff85186fa75d18090ae890602001611b8d565b611fbd613398565b611fc561233a565b6040516397ac539160e01b815260048101919091526024810183905273__$068aad146bf104111ba65c4a1de2cd0e23$__906397ac539190604401610cf2565b600061200f61233a565b609c0154919050565b600061202261235e565b61202a612435565b6005018260405161203b9190614014565b9081526020016040518091039020549050919050565b606061205b61235e565b612063612435565b600083815260049190910160205260409020805461208090614083565b80601f01602080910402602001604051908101604052809291908181526020018280546120ac90614083565b80156120f95780601f106120ce576101008083540402835291602001916120f9565b820191906000526020600020905b8154815290600101906020018083116120dc57829003601f168201915b50505050509050919050565b61210d612403565b6000612117612435565b600083815260028201602052604090205490915060ff1661217a5760405162461bcd60e51b815260206004820152601860248201527f4e756c6c696669657220646f6573206e6f742065786973740000000000000000604482015260640161139d565b600091825260020160205260409020805460ff19169055565b600061219d61233a565b604051631e75e7f360e01b8152600481019190915273__$068aad146bf104111ba65c4a1de2cd0e23$__90631e75e7f390602401610bbb565b60006121e061235e565b6121e8612435565b54905090565b6121f6613398565b6121fe61233a565b604051630b2bcd1b60e11b815260048101919091526001600160401b03841660248201526044810183905273__$068aad146bf104111ba65c4a1de2cd0e23$__906316579a3690606401610df2565b6000807f237e158222e3e6968b72b9db0d8043aacf074ad9f650f0d1606b4d82ee432c006115e1565b61227e612403565b7f237e158222e3e6968b72b9db0d8043aacf074ad9f650f0d1606b4d82ee432c0080546001600160a01b0319166001600160a01b03831690811782556122c26115bc565b6001600160a01b03167f38d16b8cac22d99fc7c124b9cd0de2d3fa1faef420bfe791d8c362d765e2270060405160405180910390a35050565b600061230561233a565b6002015460ff16919050565b600061231b61235e565b612323612435565b6000928352600a0160205250604090205460ff1690565b7f3018a310c36c4f8228f09bf3b1822685cf0971daa8265a58ca807c4a4daba40090565b306001600160a01b037f00000000000000000000000000000000000000000000000000000000000000001614806123e557507f00000000000000000000000000000000000000000000000000000000000000006001600160a01b03166123d96000805160206146c9833981519152546001600160a01b031690565b6001600160a01b031614155b156112d85760405163703e46dd60e11b815260040160405180910390fd5b3361240c6115bc565b6001600160a01b0316146112d85760405163118cdaa760e01b815233600482015260240161139d565b7fd64ab600136c76c630ed81a54cc1acbcc213dadb956fdd8687dc5ebb0bb5f50090565b60606000610e3783612744565b6000610e37836001600160a01b03841661279f565b6124836127ee565b6114b681612837565b6124946127ee565b61121f8282612869565b6124a661235e565b6114b6612403565b816001600160a01b03166352d1902d6040518163ffffffff1660e01b8152600401602060405180830381865afa925050508015612508575060408051601f3d908101601f1916820190925261250591810190613f0f565b60015b61253057604051634c9c8ce360e01b81526001600160a01b038316600482015260240161139d565b6000805160206146c9833981519152811461256157604051632a87526960e21b81526004810182905260240161139d565b61256b83836128ca565b505050565b306001600160a01b037f000000000000000000000000000000000000000000000000000000000000000016146112d85760405163703e46dd60e11b815260040160405180910390fd5b7f237e158222e3e6968b72b9db0d8043aacf074ad9f650f0d1606b4d82ee432c0080546001600160a01b031916815561121f82612920565b612606336125fd612435565b600b0190612991565b6112d857604051631d83d27f60e01b815233600482015260240161139d565b7fa16a46d94261c7517cc8ff89f61c0ce93598e3c849801011dee649a6a557d10280546060916000805160206146a98339815191529161266490614083565b80601f016020809104026020016040519081016040528092919081815260200182805461269090614083565b80156126dd5780601f106126b2576101008083540402835291602001916126dd565b820191906000526020600020905b8154815290600101906020018083116126c057829003601f168201915b505050505091505090565b7fa16a46d94261c7517cc8ff89f61c0ce93598e3c849801011dee649a6a557d10380546060916000805160206146a98339815191529161266490614083565b61273183836129b3565b61273a81612ab1565b61256b8282612b25565b6060816000018054806020026020016040519081016040528092919081815260200182805480156120f957602002820191906000526020600020905b8154815260200190600101908083116127805750505050509050919050565b60008181526001830160205260408120546127e657508154600181810184556000848152602080822090930184905584548482528286019093526040902091909155610c32565b506000610c32565b7ff0c57e16840df040f15088dc2f81fe391c3923bec73e23a9662efc9c229c6a0054600160401b900460ff166112d857604051631afcd79f60e31b815260040160405180910390fd5b61283f6127ee565b6001600160a01b0381166114ad57604051631e4fbdf760e01b81526000600482015260240161139d565b6128716127ee565b6000805160206146a98339815191527fa16a46d94261c7517cc8ff89f61c0ce93598e3c849801011dee649a6a557d1026128ab84826144be565b50600381016128ba83826144be565b5060008082556001909101555050565b6128d382612b8d565b6040516001600160a01b038316907fbc7cd75a20ee27fd9adebab32041f755214dbc6bffa90cc0225b39da2e5c2d3b90600090a28051156129185761256b8282612bf2565b61121f612c68565b7f9016d09d72d40fdae2fd8ceac6b6234c7706214fd39c1cd1e609a0528c19930080546001600160a01b031981166001600160a01b03848116918217845560405192169182907f8be0079c531659141344cd1fd0a4f28419497f9722a3daafe3b4186f6b6457e090600090a3505050565b6001600160a01b03811660009081526001830160205260408120541515610e37565b60006129bd612435565b9050600081600301846040516129d39190614014565b908152604051908190036020019020546001600160a01b0316905080612a0c576040516301dcf1ab60e31b815260040160405180910390fd5b806001600160a01b031663f398789b84600001518560200151866040015187606001516040518563ffffffff1660e01b8152600401612a4e949392919061459f565b602060405180830381865afa158015612a6b573d6000803e3d6000fd5b505050506040513d601f19601f82011682018060405250810190612a8f9190614624565b612aab576040516281723b60e21b815260040160405180910390fd5b50505050565b600080612ac683600001518460200151612c87565b9150915081612ae85760405163df2b56ff60e01b815260040160405180910390fd5b612afd81612af4612435565b60070190612991565b61256b57604051631432861160e31b81526001600160a01b038216600482015260240161139d565b606082810151805160208083015160808401519484015160a0850151604090950151875193840151935194969295929491939091612b6f9088908890889088908890889088612d31565b612b7881612f01565b612b828787612f28565b505050505050505050565b806001600160a01b03163b600003612bc357604051634c9c8ce360e01b81526001600160a01b038216600482015260240161139d565b6000805160206146c983398151915280546001600160a01b0319166001600160a01b0392909216919091179055565b6060600080846001600160a01b031684604051612c0f9190614014565b600060405180830381855af49150503d8060008114612c4a576040519150601f19603f3d011682016040523d82523d6000602084013e612c4f565b606091505b5091509150612c5f858383612fe3565b95945050505050565b34156112d85760405163b398979f60e01b815260040160405180910390fd5b6000806000612cf87f0d2a15c3140485b6db2a8c0f755486294daaae1eabcdd518f6beaf8e4ab4d83486600001518760200151604051602001612cdd939291909283526020830191909152604082015260600190565b6040516020818303038152906040528051906020012061303f565b9050600080612d07838761306c565b5090925090506000816003811115612d2157612d2161463f565b14945090925050505b9250929050565b6000612d3b612435565b905088600003612d6157604051631b1aad8760e11b8152600481018a905260240161139d565b87600003612d8557604051634bdc991b60e11b81526004810189905260240161139d565b80600101548514612db957600181015460405163e748379160e01b815261139d918791600401918252602082015260400190565b838314612de6576040516001621d0d8360e21b03198152600481018490526024810185905260440161139d565b60006207a120871115612e0857612e0187630121eac0614655565b9050612e19565b612e16876301312d00614655565b90505b60008080612e32612e2d62093a8042614668565b6130b9565b91945092509050600081612e4784606461467b565b612e538661271061467b565b612e5d9190614655565b612e679190614655565b905084811115612e8d57604051635d5e30bf60e01b8152600481018c905260240161139d565b85544290612e9b908e614655565b1015612ebc5760405162bd09f160e11b8152600481018d905260240161139d565b600087815260028701602052604090205460ff1615612ef157604051635377438b60e11b81526004810188905260240161139d565b5050505050505050505050505050565b6000612f0b612435565b60009283526002016020525060409020805460ff19166001179055565b612f3061233a565b6040516306fb157560e01b81526004810191909152602481018390526044810182905273__$068aad146bf104111ba65c4a1de2cd0e23$__906306fb15759060640160006040518083038186803b158015612f8a57600080fd5b505af4158015612f9e573d6000803e3d6000fd5b50505050612faa61233a565b60405163175ba3e960e11b8152600481019190915273__$068aad146bf104111ba65c4a1de2cd0e23$__90632eb747d290602401610fbf565b606082612ff857612ff3826130d8565b610e37565b815115801561300f57506001600160a01b0384163b155b1561303857604051639996b31560e01b81526001600160a01b038516600482015260240161139d565b5080610e37565b6000610c3261304c613101565b8360405161190160f01b8152600281019290925260228201526042902090565b600080600083516041036130a65760208401516040850151606086015160001a6130988882858561310b565b9550955095505050506130b2565b50508151600091506002905b9250925092565b600080806130cb6201518085046131da565b9196909550909350915050565b8051156130e85780518082602001fd5b60405163d6bda27560e01b815260040160405180910390fd5b6000610bfc613276565b600080807f7fffffffffffffffffffffffffffffff5d576e7357a4501ddfe92f46681b20a084111561314657506000915060039050826131d0565b604080516000808252602082018084528a905260ff891692820192909252606081018790526080810186905260019060a0016020604051602081039080840390855afa15801561319a573d6000803e3d6000fd5b5050604051601f1901519150506001600160a01b0381166131c6575060009250600191508290506131d0565b9250600091508190505b9450945094915050565b60008080836226496581018262023ab1600483020590506004600362023ab18302010590910390600062164b09610fa0600185010205905060046105b58202058303601f019250600061098f846050028161323757613237614692565b0590506000605061098f83020585039050600b820560301994909401606402929092018301996002600c90940290910392909201975095509350505050565b60007f8b73c3c69bb8fe3d512ecc4cf759cc79239f7b179b0ffacaa9a75d522b39400f6132a16132ea565b6132a9613354565b60408051602081019490945283019190915260608201524660808201523060a082015260c00160405160208183030381529060405280519060200120905090565b60006000805160206146a983398151915281613304612625565b80519091501561331c57805160209091012092915050565b8154801561332b579392505050565b7fc5d2460186f7233c927e7db2dcc703c0e500b653ca82273b7bfad8045d85a470935050505090565b60006000805160206146a98339815191528161336e6126e8565b80519091501561338657805160209091012092915050565b6001820154801561332b579392505050565b6040518061010001604052806000815260200160001515815260200160608152602001600081526020016000815260200160001515815260200160008152602001600081525090565b60405180604001604052806134176040518060800160405280600081526020016000815260200160008152602001600081525090565b81526020016134686040518061010001604052806000815260200160001515815260200160608152602001600081526020016000815260200160001515815260200160008152602001600081525090565b905290565b80356001600160401b0381168114610d6257600080fd5b60006020828403121561349657600080fd5b610e378261346d565b805182526020808201511515818401526040808301516101009185018290528051918501829052600092019082906101208601905b808310156134f757835182526020820191506020840193506001830192506134d4565b50606085015160608701526080850151608087015260a0850151925061352160a087018415159052565b60c085015160c087015260e085015160e087015280935050505092915050565b60a08152600061355460a083018561349f565b9050610e376020830184805182526020810151602083015260408101516040830152606081015160608301525050565b60006020828403121561359657600080fd5b81356001600160e01b031981168114610e3757600080fd5b600080604083850312156135c157600080fd5b823591506135d16020840161346d565b90509250929050565b6020815261360d602082018351805182526020810151602083015260408101516040830152606081015160608301525050565b6000602083015160a080840152610c5b60c084018261349f565b60006020828403121561363957600080fd5b5035919050565b602081526000610e37602083018461349f565b602080825282518282018190526000918401906040840190835b818110156136945783516001600160a01b031683526020938401939092019160010161366d565b509095945050505050565b600080604083850312156136b257600080fd5b50508035926020909101359150565b6001600160a01b03811681146114b657600080fd5b6000602082840312156136e857600080fd5b8135610e37816136c1565b80356001600160f01b031981168114610d6257600080fd5b6000806040838503121561371e57600080fd5b8235613729816136c1565b91506135d1602084016136f3565b60008083601f84011261374957600080fd5b5081356001600160401b0381111561376057600080fd5b6020830191508360208260051b8501011115612d2a57600080fd5b60008060008060008060008060c0898b03121561379757600080fd5b883597506020890135965060408901356001600160401b038111156137bb57600080fd5b6137c78b828c01613737565b90975095505060608901356001600160401b038111156137e657600080fd5b6137f28b828c01613737565b9095509350506080890135613806816136c1565b915061381460a08a016136f3565b90509295985092959890939650565b634e487b7160e01b600052604160045260246000fd5b604051606081016001600160401b038111828210171561385b5761385b613823565b60405290565b60405161010081016001600160401b038111828210171561385b5761385b613823565b604080519081016001600160401b038111828210171561385b5761385b613823565b604051601f8201601f191681016001600160401b03811182821017156138ce576138ce613823565b604052919050565b60006001600160401b038211156138ef576138ef613823565b50601f01601f191660200190565b600061391061390b846138d6565b6138a6565b905082815283838301111561392457600080fd5b828260208301376000602084830101529392505050565b600082601f83011261394c57600080fd5b610e37838335602085016138fd565b6000806040838503121561396e57600080fd5b8235613979816136c1565b915060208301356001600160401b0381111561399457600080fd5b6139a08582860161393b565b9150509250929050565b6000602082840312156139bc57600080fd5b81356001600160401b038111156139d257600080fd5b610c5b8482850161393b565b60005b838110156139f95781810151838201526020016139e1565b50506000910152565b60008151808452613a1a8160208601602086016139de565b601f01601f19169290920160200192915050565b60ff60f81b8816815260e060208201526000613a4d60e0830189613a02565b8281036040840152613a5f8189613a02565b606084018890526001600160a01b038716608085015260a0840186905283810360c08501528451808252602080870193509091019060005b81811015613ab5578351835260209384019390920191600101613a97565b50909b9a5050505050505050505050565b600060208284031215613ad857600080fd5b81356001600160401b03811115613aee57600080fd5b8201601f81018413613aff57600080fd5b610c5b848235602084016138fd565b600080600060608486031215613b2357600080fd5b8335925060208401359150613b3a6040850161346d565b90509250925092565b602081526000610e376020830184613a02565b60006001600160401b03821115613b6f57613b6f613823565b5060051b60200190565b60008060408385031215613b8c57600080fd5b82356001600160401b03811115613ba257600080fd5b8301601f81018513613bb357600080fd5b8035613bc161390b82613b56565b8082825260208201915060208360051b850101925087831115613be357600080fd5b602084015b83811015613c9d5780356001600160401b03811115613c0657600080fd5b85016060818b03601f19011215613c1c57600080fd5b613c24613839565b613c306020830161346d565b815260408201356001600160401b03811115613c4b57600080fd5b613c5a8c60208386010161393b565b60208301525060608201356001600160401b03811115613c7957600080fd5b613c888c60208386010161393b565b60408301525084525060209283019201613be8565b50945050505060208301356001600160401b0381111561399457600080fd5b60008060008060408587031215613cd257600080fd5b84356001600160401b03811115613ce857600080fd5b613cf487828801613737565b90955093505060208501356001600160401b03811115613d1357600080fd5b613d1f87828801613737565b95989497509550505050565b60008060408385031215613d3e57600080fd5b613d478361346d565b946020939093013593505050565b80518015158114610d6257600080fd5b600082601f830112613d7657600080fd5b8151613d8461390b82613b56565b8082825260208201915060208360051b860101925085831115613da657600080fd5b602085015b83811015613dc3578051835260209283019201613dab565b5095945050505050565b60006101008284031215613de057600080fd5b613de8613861565b825181529050613dfa60208301613d55565b602082015260408201516001600160401b03811115613e1857600080fd5b613e2484828501613d65565b6040830152506060828101519082015260808083015190820152613e4a60a08301613d55565b60a082015260c0828101519082015260e09182015191810191909152919050565b60008082840360a0811215613e7f57600080fd5b83516001600160401b03811115613e9557600080fd5b613ea186828701613dcd565b9350506080601f1982011215613eb657600080fd5b50604051608081016001600160401b0381118282101715613ed957613ed9613823565b60409081526020858101518352858201519083015260608086015191830191909152608090940151938101939093525092909150565b600060208284031215613f2157600080fd5b5051919050565b600060208284031215613f3a57600080fd5b81516001600160401b03811115613f5057600080fd5b610c5b84828501613dcd565b604081526000613f6f6040830185613a02565b905082151560208301529392505050565b600082601f830112613f9157600080fd5b8151613f9f61390b826138d6565b818152846020838601011115613fb457600080fd5b610c5b8260208301602087016139de565b600080600060608486031215613fda57600080fd5b83516001600160401b03811115613ff057600080fd5b613ffc86828701613f80565b60208601519094509250613b3a905060408501613d55565b600082516140268184602087016139de565b9190910192915050565b6000606082840312801561404357600080fd5b5061404c613839565b82518152602080840151908201526040928301519281019290925250919050565b634e487b7160e01b600052603260045260246000fd5b600181811c9082168061409757607f821691505b6020821081036140b757634e487b7160e01b600052602260045260246000fd5b50919050565b600082601f8301126140ce57600080fd5b6140d860406138a6565b8060408401858111156140ea57600080fd5b845b818110156136945780518452602093840193016140ec565b600080600080610120858703121561411b57600080fd5b84516001600160401b0381111561413157600080fd5b61413d87828801613d65565b94505061414d86602087016140bd565b925085607f86011261415e57600080fd5b6040614169816138a6565b8060e088018981111561417b57600080fd5b606089015b818110156141a1576141928b826140bd565b84526020909301928401614180565b508195506141af8a826140bd565b94505050505092959194509250565b6000602082840312156141d057600080fd5b81516001600160401b038111156141e657600080fd5b8201601f810184136141f757600080fd5b805161420561390b82613b56565b8082825260208201915060208360051b85010192508683111561422757600080fd5b602084015b838110156142d85780516001600160401b0381111561424a57600080fd5b8501808903601f1901606081121561426157600080fd5b614269613884565b604082121561427757600080fd5b61427f613884565b60208481015182526040850151908201528152606083015191506001600160401b038211156142ad57600080fd5b6142bc8b602084860101613f80565b602082015280865250505060208301925060208101905061422c565b509695505050505050565b6000808335601e198436030181126142fa57600080fd5b8301803591506001600160401b0382111561431457600080fd5b602001915036819003821315612d2a57600080fd5b8183823760009101908152919050565b601f82111561256b57806000526020600020601f840160051c810160208510156143605750805b601f840160051c820191505b81811015614380576000815560010161436c565b5050505050565b6001600160401b0383111561439e5761439e613823565b6143b2836143ac8354614083565b83614339565b6000601f8411600181146143e657600085156143ce5750838201355b600019600387901b1c1916600186901b178355614380565b600083815260209020601f19861690835b8281101561441757868501358255602094850194600190920191016143f7565b50868210156144345760001960f88860031b161c19848701351681555b505060018560011b0183555050505050565b634e487b7160e01b600052601160045260246000fd5b60006001820161446e5761446e614446565b5060010190565b6060815283606082015283856080830137600060808583018101919091526001600160a01b039390931660208201526040810191909152601f909201601f191690910101919050565b81516001600160401b038111156144d7576144d7613823565b6144eb816144e58454614083565b84614339565b6020601f82116001811461451f57600083156145075750848201515b600019600385901b1c1916600184901b178455614380565b600084815260208120601f198516915b8281101561454f578785015182556020948501946001909201910161452f565b508482101561456d5786840151600019600387901b60f8161c191681555b50505050600190811b01905550565b8060005b6002811015612aab578151845260209384019390910190600101614580565b6101c081016145ae828761457c565b604082018560005b60028110156145e0576145ca83835161457c565b60409290920191602091909101906001016145b6565b5050506145f060c083018561457c565b61010082018360005b60068110156146185781518352602092830192909101906001016145f9565b50505095945050505050565b60006020828403121561463657600080fd5b610e3782613d55565b634e487b7160e01b600052602160045260246000fd5b80820180821115610c3257610c32614446565b81810381811115610c3257610c32614446565b8082028115828204841417610c3257610c32614446565b634e487b7160e01b600052601260045260246000fdfea16a46d94261c7517cc8ff89f61c0ce93598e3c849801011dee649a6a557d100360894a13ba1a3210667c828492db98dca3e2076cc3735a920a3ca505d382bbca2646970667358221220d9e73378bf23e9986d1833a93daf8b93b424da01202e1a86511a73e6a2a567fa64736f6c634300081b0033",
  "linkReferences": {
    "@iden3/contracts/lib/IdentityLib.sol": {
      "IdentityLib": [
        {
          "length": 20,
          "start": 3085
        },
        {
          "length": 20,
          "start": 3226
        },
        {
          "length": 20,
          "start": 3537
        },
        {
          "length": 20,
          "start": 3793
        },
        {
          "length": 20,
          "start": 3952
        },
        {
          "length": 20,
          "start": 4145
        },
        {
          "length": 20,
          "start": 4254
        },
        {
          "length": 20,
          "start": 4831
        },
        {
          "length": 20,
          "start": 6111
        },
        {
          "length": 20,
          "start": 6306
        },
        {
          "length": 20,
          "start": 7406
        },
        {
          "length": 20,
          "start": 7485
        },
        {
          "length": 20,
          "start": 7592
        },
        {
          "length": 20,
          "start": 8416
        },
        {
          "length": 20,
          "start": 8881
        },
        {
          "length": 20,
          "start": 9000
        },
        {
          "length": 20,
          "start": 12370
        },
        {
          "length": 20,
          "start": 12478
        }
      ]
    }
  },
  "deployedLinkReferences": {
    "@iden3/contracts/lib/IdentityLib.sol": {
      "IdentityLib": [
        {
          "length": 20,
          "start": 2832
        },
        {
          "length": 20,
          "start": 2973
        },
        {
          "length": 20,
          "start": 3284
        },
        {
          "length": 20,
          "start": 3540
        },
        {
          "length": 20,
          "start": 3699
        },
        {
          "length": 20,
          "start": 3892
        },
        {
          "length": 20,
          "start": 4001
        },
        {
          "length": 20,
          "start": 4578
        },
        {
          "length": 20,
          "start": 5858
        },
        {
          "length": 20,
          "start": 6053
        },
        {
          "length": 20,
          "start": 7153
        },
        {
          "length": 20,
          "start": 7232
        },
        {
          "length": 20,
          "start": 7339
        },
        {
          "length": 20,
          "start": 8163
        },
        {
          "length": 20,
          "start": 8628
        },
        {
          "length": 20,
          "start": 8747
        },
        {
          "length": 20,
          "start": 12117
        },
        {
          "length": 20,
          "start": 12225
        }
      ]
    }
  }
}