{
  "_format": "hh-sol-artifact-1",
  "contractName": "PassportCredentialIssuerImplV1",
  "sourceName": "contracts/verifiers/PassportCredentialIssuerImplV1.sol",
  "abi": [
    {
      "inputs": [],
      "stateMutability": "nonpayable",
      "type": "constructor"
    },
    {
      "inputs": [
        {
          "internalType": "address",
          "name": "target",
          "type": "address"
        }
      ],
      "name": "AddressEmptyCode",
      "type": "error"
    },
    {
      "inputs": [
        {
          "internalType": "address",
          "name": "implementation",
          "type": "address"
        }
      ],
      "name": "ERC1967InvalidImplementation",
      "type": "error"
    },
    {
      "inputs": [],
      "name": "ERC1967NonPayable",
      "type": "error"
    },
    {
      "inputs": [],
      "name": "FailedCall",
      "type": "error"
    },
    {
      "inputs": [],
      "name": "InvalidCredentialProof",
      "type": "error"
    },
    {
      "inputs": [
        {
          "internalType": "uint256",
          "name": "hashIndex",
          "type": "uint256"
        }
      ],
      "name": "InvalidHashIndex",
      "type": "error"
    },
    {
      "inputs": [
        {
          "internalType": "uint256",
          "name": "hashValue",
          "type": "uint256"
        }
      ],
      "name": "InvalidHashValue",
      "type": "error"
    },
    {
      "inputs": [],
      "name": "InvalidInitialization",
      "type": "error"
    },
    {
      "inputs": [
        {
          "internalType": "uint256",
          "name": "linkId1",
          "type": "uint256"
        },
        {
          "internalType": "uint256",
          "name": "linkId2",
          "type": "uint256"
        }
      ],
      "name": "InvalidLinkId",
      "type": "error"
    },
    {
      "inputs": [
        {
          "internalType": "uint256",
          "name": "length",
          "type": "uint256"
        },
        {
          "internalType": "uint256",
          "name": "expectedLength",
          "type": "uint256"
        }
      ],
      "name": "InvalidResponsesLength",
      "type": "error"
    },
    {
      "inputs": [],
      "name": "InvalidSignatureProof",
      "type": "error"
    },
    {
      "inputs": [
        {
          "internalType": "uint256",
          "name": "templateRoot",
          "type": "uint256"
        },
        {
          "internalType": "uint256",
          "name": "expectedTemplateRoot",
          "type": "uint256"
        }
      ],
      "name": "InvalidTemplateRoot",
      "type": "error"
    },
    {
      "inputs": [
        {
          "internalType": "uint256",
          "name": "issuanceDate",
          "type": "uint256"
        }
      ],
      "name": "IssuanceDateExpired",
      "type": "error"
    },
    {
      "inputs": [
        {
          "internalType": "uint256",
          "name": "length1",
          "type": "uint256"
        },
        {
          "internalType": "uint256",
          "name": "length2",
          "type": "uint256"
        }
      ],
      "name": "LengthMismatch",
      "type": "error"
    },
    {
      "inputs": [
        {
          "internalType": "uint256",
          "name": "requestId",
          "type": "uint256"
        }
      ],
      "name": "NoCredentialCircuitForRequestId",
      "type": "error"
    },
    {
      "inputs": [
        {
          "internalType": "uint256",
          "name": "requestId",
          "type": "uint256"
        }
      ],
      "name": "NoSignatureCircuitForRequestId",
      "type": "error"
    },
    {
      "inputs": [],
      "name": "NoVerifierSet",
      "type": "error"
    },
    {
      "inputs": [],
      "name": "NotInitializing",
      "type": "error"
    },
    {
      "inputs": [
        {
          "internalType": "uint256",
          "name": "nullifier",
          "type": "uint256"
        }
      ],
      "name": "NullifierAlreadyExists",
      "type": "error"
    },
    {
      "inputs": [
        {
          "internalType": "address",
          "name": "owner",
          "type": "address"
        }
      ],
      "name": "OwnableInvalidOwner",
      "type": "error"
    },
    {
      "inputs": [
        {
          "internalType": "address",
          "name": "account",
          "type": "address"
        }
      ],
      "name": "OwnableUnauthorizedAccount",
      "type": "error"
    },
    {
      "inputs": [],
      "name": "UUPSUnauthorizedCallContext",
      "type": "error"
    },
    {
      "inputs": [
        {
          "internalType": "bytes32",
          "name": "slot",
          "type": "bytes32"
        }
      ],
      "name": "UUPSUnsupportedProxiableUUID",
      "type": "error"
    },
    {
      "anonymous": false,
      "inputs": [
        {
          "indexed": false,
          "internalType": "string",
          "name": "circuitId",
          "type": "string"
        },
        {
          "indexed": false,
          "internalType": "address",
          "name": "verifier",
          "type": "address"
        }
      ],
      "name": "CredentialCircuitVerifierUpdated",
      "type": "event"
    },
    {
      "anonymous": false,
      "inputs": [
        {
          "indexed": false,
          "internalType": "uint256",
          "name": "requestId",
          "type": "uint256"
        },
        {
          "indexed": false,
          "internalType": "string",
          "name": "circuitId",
          "type": "string"
        }
      ],
      "name": "CredentialRequestIdToCircuitIdUpdated",
      "type": "event"
    },
    {
      "anonymous": false,
      "inputs": [
        {
          "indexed": false,
          "internalType": "uint256",
          "name": "expirationTime",
          "type": "uint256"
        }
      ],
      "name": "ExpirationTimeUpdated",
      "type": "event"
    },
    {
      "anonymous": false,
      "inputs": [
        {
          "indexed": false,
          "internalType": "uint64",
          "name": "version",
          "type": "uint64"
        }
      ],
      "name": "Initialized",
      "type": "event"
    },
    {
      "anonymous": false,
      "inputs": [
        {
          "indexed": true,
          "internalType": "address",
          "name": "previousOwner",
          "type": "address"
        },
        {
          "indexed": true,
          "internalType": "address",
          "name": "newOwner",
          "type": "address"
        }
      ],
      "name": "OwnershipTransferStarted",
      "type": "event"
    },
    {
      "anonymous": false,
      "inputs": [
        {
          "indexed": true,
          "internalType": "address",
          "name": "previousOwner",
          "type": "address"
        },
        {
          "indexed": true,
          "internalType": "address",
          "name": "newOwner",
          "type": "address"
        }
      ],
      "name": "OwnershipTransferred",
      "type": "event"
    },
    {
      "anonymous": false,
      "inputs": [
        {
          "indexed": false,
          "internalType": "address",
          "name": "registry",
          "type": "address"
        }
      ],
      "name": "RegistryUpdated",
      "type": "event"
    },
    {
      "anonymous": false,
      "inputs": [
        {
          "indexed": false,
          "internalType": "string",
          "name": "circuitId",
          "type": "string"
        },
        {
          "indexed": false,
          "internalType": "address",
          "name": "verifier",
          "type": "address"
        }
      ],
      "name": "SignatureCircuitVerifierUpdated",
      "type": "event"
    },
    {
      "anonymous": false,
      "inputs": [
        {
          "indexed": false,
          "internalType": "uint256",
          "name": "requestId",
          "type": "uint256"
        },
        {
          "indexed": false,
          "internalType": "string",
          "name": "circuitId",
          "type": "string"
        }
      ],
      "name": "SignatureRequestIdToCircuitIdUpdated",
      "type": "event"
    },
    {
      "anonymous": false,
      "inputs": [
        {
          "indexed": false,
          "internalType": "uint256",
          "name": "tampletRoot",
          "type": "uint256"
        }
      ],
      "name": "TemplateRootUpdated",
      "type": "event"
    },
    {
      "anonymous": false,
      "inputs": [
        {
          "indexed": true,
          "internalType": "address",
          "name": "implementation",
          "type": "address"
        }
      ],
      "name": "Upgraded",
      "type": "event"
    },
    {
      "inputs": [],
      "name": "UPGRADE_INTERFACE_VERSION",
      "outputs": [
        {
          "internalType": "string",
          "name": "",
          "type": "string"
        }
      ],
      "stateMutability": "view",
      "type": "function"
    },
    {
      "inputs": [],
      "name": "VERSION",
      "outputs": [
        {
          "internalType": "string",
          "name": "",
          "type": "string"
        }
      ],
      "stateMutability": "view",
      "type": "function"
    },
    {
      "inputs": [],
      "name": "acceptOwnership",
      "outputs": [],
      "stateMutability": "nonpayable",
      "type": "function"
    },
    {
      "inputs": [
        {
          "internalType": "uint256",
          "name": "nullifier",
          "type": "uint256"
        }
      ],
      "name": "cleanNullifier",
      "outputs": [],
      "stateMutability": "nonpayable",
      "type": "function"
    },
    {
      "inputs": [
        {
          "internalType": "uint256",
          "name": "requestId",
          "type": "uint256"
        }
      ],
      "name": "credentialRequestIdToCircuitIds",
      "outputs": [
        {
          "internalType": "string",
          "name": "",
          "type": "string"
        }
      ],
      "stateMutability": "view",
      "type": "function"
    },
    {
      "inputs": [
        {
          "internalType": "string",
          "name": "circuitId",
          "type": "string"
        }
      ],
      "name": "credentialVerifiers",
      "outputs": [
        {
          "internalType": "address",
          "name": "",
          "type": "address"
        }
      ],
      "stateMutability": "view",
      "type": "function"
    },
    {
      "inputs": [
        {
          "internalType": "uint256",
          "name": "claimIndexHash",
          "type": "uint256"
        }
      ],
      "name": "getClaimProof",
      "outputs": [
        {
          "components": [
            {
              "internalType": "uint256",
              "name": "root",
              "type": "uint256"
            },
            {
              "internalType": "bool",
              "name": "existence",
              "type": "bool"
            },
            {
              "internalType": "uint256[]",
              "name": "siblings",
              "type": "uint256[]"
            },
            {
              "internalType": "uint256",
              "name": "index",
              "type": "uint256"
            },
            {
              "internalType": "uint256",
              "name": "value",
              "type": "uint256"
            },
            {
              "internalType": "bool",
              "name": "auxExistence",
              "type": "bool"
            },
            {
              "internalType": "uint256",
              "name": "auxIndex",
              "type": "uint256"
            },
            {
              "internalType": "uint256",
              "name": "auxValue",
              "type": "uint256"
            }
          ],
          "internalType": "struct SmtLib.Proof",
          "name": "",
          "type": "tuple"
        }
      ],
      "stateMutability": "view",
      "type": "function"
    },
    {
      "inputs": [
        {
          "internalType": "uint256",
          "name": "claimIndexHash",
          "type": "uint256"
        },
        {
          "internalType": "uint256",
          "name": "root",
          "type": "uint256"
        }
      ],
      "name": "getClaimProofByRoot",
      "outputs": [
        {
          "components": [
            {
              "internalType": "uint256",
              "name": "root",
              "type": "uint256"
            },
            {
              "internalType": "bool",
              "name": "existence",
              "type": "bool"
            },
            {
              "internalType": "uint256[]",
              "name": "siblings",
              "type": "uint256[]"
            },
            {
              "internalType": "uint256",
              "name": "index",
              "type": "uint256"
            },
            {
              "internalType": "uint256",
              "name": "value",
              "type": "uint256"
            },
            {
              "internalType": "bool",
              "name": "auxExistence",
              "type": "bool"
            },
            {
              "internalType": "uint256",
              "name": "auxIndex",
              "type": "uint256"
            },
            {
              "internalType": "uint256",
              "name": "auxValue",
              "type": "uint256"
            }
          ],
          "internalType": "struct SmtLib.Proof",
          "name": "",
          "type": "tuple"
        }
      ],
      "stateMutability": "view",
      "type": "function"
    },
    {
      "inputs": [
        {
          "internalType": "uint256",
          "name": "claimIndexHash",
          "type": "uint256"
        }
      ],
      "name": "getClaimProofWithStateInfo",
      "outputs": [
        {
          "components": [
            {
              "internalType": "uint256",
              "name": "root",
              "type": "uint256"
            },
            {
              "internalType": "bool",
              "name": "existence",
              "type": "bool"
            },
            {
              "internalType": "uint256[]",
              "name": "siblings",
              "type": "uint256[]"
            },
            {
              "internalType": "uint256",
              "name": "index",
              "type": "uint256"
            },
            {
              "internalType": "uint256",
              "name": "value",
              "type": "uint256"
            },
            {
              "internalType": "bool",
              "name": "auxExistence",
              "type": "bool"
            },
            {
              "internalType": "uint256",
              "name": "auxIndex",
              "type": "uint256"
            },
            {
              "internalType": "uint256",
              "name": "auxValue",
              "type": "uint256"
            }
          ],
          "internalType": "struct SmtLib.Proof",
          "name": "",
          "type": "tuple"
        },
        {
          "components": [
            {
              "internalType": "uint256",
              "name": "state",
              "type": "uint256"
            },
            {
              "internalType": "uint256",
              "name": "claimsRoot",
              "type": "uint256"
            },
            {
              "internalType": "uint256",
              "name": "revocationsRoot",
              "type": "uint256"
            },
            {
              "internalType": "uint256",
              "name": "rootsRoot",
              "type": "uint256"
            }
          ],
          "internalType": "struct IdentityLib.StateInfo",
          "name": "",
          "type": "tuple"
        }
      ],
      "stateMutability": "view",
      "type": "function"
    },
    {
      "inputs": [],
      "name": "getClaimsTreeRoot",
      "outputs": [
        {
          "internalType": "uint256",
          "name": "",
          "type": "uint256"
        }
      ],
      "stateMutability": "view",
      "type": "function"
    },
    {
      "inputs": [],
      "name": "getExpirationTime",
      "outputs": [
        {
          "internalType": "uint256",
          "name": "",
          "type": "uint256"
        }
      ],
      "stateMutability": "view",
      "type": "function"
    },
    {
      "inputs": [],
      "name": "getId",
      "outputs": [
        {
          "internalType": "uint256",
          "name": "",
          "type": "uint256"
        }
      ],
      "stateMutability": "view",
      "type": "function"
    },
    {
      "inputs": [],
      "name": "getIsOldStateGenesis",
      "outputs": [
        {
          "internalType": "bool",
          "name": "",
          "type": "bool"
        }
      ],
      "stateMutability": "view",
      "type": "function"
    },
    {
      "inputs": [],
      "name": "getLatestPublishedClaimsRoot",
      "outputs": [
        {
          "internalType": "uint256",
          "name": "",
          "type": "uint256"
        }
      ],
      "stateMutability": "view",
      "type": "function"
    },
    {
      "inputs": [],
      "name": "getLatestPublishedRevocationsRoot",
      "outputs": [
        {
          "internalType": "uint256",
          "name": "",
          "type": "uint256"
        }
      ],
      "stateMutability": "view",
      "type": "function"
    },
    {
      "inputs": [],
      "name": "getLatestPublishedRootsRoot",
      "outputs": [
        {
          "internalType": "uint256",
          "name": "",
          "type": "uint256"
        }
      ],
      "stateMutability": "view",
      "type": "function"
    },
    {
      "inputs": [],
      "name": "getLatestPublishedState",
      "outputs": [
        {
          "internalType": "uint256",
          "name": "",
          "type": "uint256"
        }
      ],
      "stateMutability": "view",
      "type": "function"
    },
    {
      "inputs": [],
      "name": "getRegistry",
      "outputs": [
        {
          "internalType": "address",
          "name": "",
          "type": "address"
        }
      ],
      "stateMutability": "view",
      "type": "function"
    },
    {
      "inputs": [
        {
          "internalType": "uint64",
          "name": "revocationNonce",
          "type": "uint64"
        }
      ],
      "name": "getRevocationProof",
      "outputs": [
        {
          "components": [
            {
              "internalType": "uint256",
              "name": "root",
              "type": "uint256"
            },
            {
              "internalType": "bool",
              "name": "existence",
              "type": "bool"
            },
            {
              "internalType": "uint256[]",
              "name": "siblings",
              "type": "uint256[]"
            },
            {
              "internalType": "uint256",
              "name": "index",
              "type": "uint256"
            },
            {
              "internalType": "uint256",
              "name": "value",
              "type": "uint256"
            },
            {
              "internalType": "bool",
              "name": "auxExistence",
              "type": "bool"
            },
            {
              "internalType": "uint256",
              "name": "auxIndex",
              "type": "uint256"
            },
            {
              "internalType": "uint256",
              "name": "auxValue",
              "type": "uint256"
            }
          ],
          "internalType": "struct SmtLib.Proof",
          "name": "",
          "type": "tuple"
        }
      ],
      "stateMutability": "view",
      "type": "function"
    },
    {
      "inputs": [
        {
          "internalType": "uint64",
          "name": "revocationNonce",
          "type": "uint64"
        },
        {
          "internalType": "uint256",
          "name": "root",
          "type": "uint256"
        }
      ],
      "name": "getRevocationProofByRoot",
      "outputs": [
        {
          "components": [
            {
              "internalType": "uint256",
              "name": "root",
              "type": "uint256"
            },
            {
              "internalType": "bool",
              "name": "existence",
              "type": "bool"
            },
            {
              "internalType": "uint256[]",
              "name": "siblings",
              "type": "uint256[]"
            },
            {
              "internalType": "uint256",
              "name": "index",
              "type": "uint256"
            },
            {
              "internalType": "uint256",
              "name": "value",
              "type": "uint256"
            },
            {
              "internalType": "bool",
              "name": "auxExistence",
              "type": "bool"
            },
            {
              "internalType": "uint256",
              "name": "auxIndex",
              "type": "uint256"
            },
            {
              "internalType": "uint256",
              "name": "auxValue",
              "type": "uint256"
            }
          ],
          "internalType": "struct SmtLib.Proof",
          "name": "",
          "type": "tuple"
        }
      ],
      "stateMutability": "view",
      "type": "function"
    },
    {
      "inputs": [
        {
          "internalType": "uint64",
          "name": "revocationNonce",
          "type": "uint64"
        }
      ],
      "name": "getRevocationProofWithStateInfo",
      "outputs": [
        {
          "components": [
            {
              "internalType": "uint256",
              "name": "root",
              "type": "uint256"
            },
            {
              "internalType": "bool",
              "name": "existence",
              "type": "bool"
            },
            {
              "internalType": "uint256[]",
              "name": "siblings",
              "type": "uint256[]"
            },
            {
              "internalType": "uint256",
              "name": "index",
              "type": "uint256"
            },
            {
              "internalType": "uint256",
              "name": "value",
              "type": "uint256"
            },
            {
              "internalType": "bool",
              "name": "auxExistence",
              "type": "bool"
            },
            {
              "internalType": "uint256",
              "name": "auxIndex",
              "type": "uint256"
            },
            {
              "internalType": "uint256",
              "name": "auxValue",
              "type": "uint256"
            }
          ],
          "internalType": "struct SmtLib.Proof",
          "name": "",
          "type": "tuple"
        },
        {
          "components": [
            {
              "internalType": "uint256",
              "name": "state",
              "type": "uint256"
            },
            {
              "internalType": "uint256",
              "name": "claimsRoot",
              "type": "uint256"
            },
            {
              "internalType": "uint256",
              "name": "revocationsRoot",
              "type": "uint256"
            },
            {
              "internalType": "uint256",
              "name": "rootsRoot",
              "type": "uint256"
            }
          ],
          "internalType": "struct IdentityLib.StateInfo",
          "name": "",
          "type": "tuple"
        }
      ],
      "stateMutability": "view",
      "type": "function"
    },
    {
      "inputs": [
        {
          "internalType": "uint256",
          "name": "id",
          "type": "uint256"
        },
        {
          "internalType": "uint64",
          "name": "nonce",
          "type": "uint64"
        }
      ],
      "name": "getRevocationStatus",
      "outputs": [
        {
          "components": [
            {
              "components": [
                {
                  "internalType": "uint256",
                  "name": "state",
                  "type": "uint256"
                },
                {
                  "internalType": "uint256",
                  "name": "claimsTreeRoot",
                  "type": "uint256"
                },
                {
                  "internalType": "uint256",
                  "name": "revocationTreeRoot",
                  "type": "uint256"
                },
                {
                  "internalType": "uint256",
                  "name": "rootOfRoots",
                  "type": "uint256"
                }
              ],
              "internalType": "struct IOnchainCredentialStatusResolver.IdentityStateRoots",
              "name": "issuer",
              "type": "tuple"
            },
            {
              "components": [
                {
                  "internalType": "uint256",
                  "name": "root",
                  "type": "uint256"
                },
                {
                  "internalType": "bool",
                  "name": "existence",
                  "type": "bool"
                },
                {
                  "internalType": "uint256[]",
                  "name": "siblings",
                  "type": "uint256[]"
                },
                {
                  "internalType": "uint256",
                  "name": "index",
                  "type": "uint256"
                },
                {
                  "internalType": "uint256",
                  "name": "value",
                  "type": "uint256"
                },
                {
                  "internalType": "bool",
                  "name": "auxExistence",
                  "type": "bool"
                },
                {
                  "internalType": "uint256",
                  "name": "auxIndex",
                  "type": "uint256"
                },
                {
                  "internalType": "uint256",
                  "name": "auxValue",
                  "type": "uint256"
                }
              ],
              "internalType": "struct IOnchainCredentialStatusResolver.Proof",
              "name": "mtp",
              "type": "tuple"
            }
          ],
          "internalType": "struct IOnchainCredentialStatusResolver.CredentialStatus",
          "name": "",
          "type": "tuple"
        }
      ],
      "stateMutability": "view",
      "type": "function"
    },
    {
      "inputs": [
        {
          "internalType": "uint256",
          "name": "id",
          "type": "uint256"
        },
        {
          "internalType": "uint256",
          "name": "state",
          "type": "uint256"
        },
        {
          "internalType": "uint64",
          "name": "nonce",
          "type": "uint64"
        }
      ],
      "name": "getRevocationStatusByIdAndState",
      "outputs": [
        {
          "components": [
            {
              "components": [
                {
                  "internalType": "uint256",
                  "name": "state",
                  "type": "uint256"
                },
                {
                  "internalType": "uint256",
                  "name": "claimsTreeRoot",
                  "type": "uint256"
                },
                {
                  "internalType": "uint256",
                  "name": "revocationTreeRoot",
                  "type": "uint256"
                },
                {
                  "internalType": "uint256",
                  "name": "rootOfRoots",
                  "type": "uint256"
                }
              ],
              "internalType": "struct IOnchainCredentialStatusResolver.IdentityStateRoots",
              "name": "issuer",
              "type": "tuple"
            },
            {
              "components": [
                {
                  "internalType": "uint256",
                  "name": "root",
                  "type": "uint256"
                },
                {
                  "internalType": "bool",
                  "name": "existence",
                  "type": "bool"
                },
                {
                  "internalType": "uint256[]",
                  "name": "siblings",
                  "type": "uint256[]"
                },
                {
                  "internalType": "uint256",
                  "name": "index",
                  "type": "uint256"
                },
                {
                  "internalType": "uint256",
                  "name": "value",
                  "type": "uint256"
                },
                {
                  "internalType": "bool",
                  "name": "auxExistence",
                  "type": "bool"
                },
                {
                  "internalType": "uint256",
                  "name": "auxIndex",
                  "type": "uint256"
                },
                {
                  "internalType": "uint256",
                  "name": "auxValue",
                  "type": "uint256"
                }
              ],
              "internalType": "struct IOnchainCredentialStatusResolver.Proof",
              "name": "mtp",
              "type": "tuple"
            }
          ],
          "internalType": "struct IOnchainCredentialStatusResolver.CredentialStatus",
          "name": "",
          "type": "tuple"
        }
      ],
      "stateMutability": "view",
      "type": "function"
    },
    {
      "inputs": [],
      "name": "getRevocationsTreeRoot",
      "outputs": [
        {
          "internalType": "uint256",
          "name": "",
          "type": "uint256"
        }
      ],
      "stateMutability": "view",
      "type": "function"
    },
    {
      "inputs": [
        {
          "internalType": "uint256",
          "name": "rootsTreeRoot",
          "type": "uint256"
        }
      ],
      "name": "getRootProof",
      "outputs": [
        {
          "components": [
            {
              "internalType": "uint256",
              "name": "root",
              "type": "uint256"
            },
            {
              "internalType": "bool",
              "name": "existence",
              "type": "bool"
            },
            {
              "internalType": "uint256[]",
              "name": "siblings",
              "type": "uint256[]"
            },
            {
              "internalType": "uint256",
              "name": "index",
              "type": "uint256"
            },
            {
              "internalType": "uint256",
              "name": "value",
              "type": "uint256"
            },
            {
              "internalType": "bool",
              "name": "auxExistence",
              "type": "bool"
            },
            {
              "internalType": "uint256",
              "name": "auxIndex",
              "type": "uint256"
            },
            {
              "internalType": "uint256",
              "name": "auxValue",
              "type": "uint256"
            }
          ],
          "internalType": "struct SmtLib.Proof",
          "name": "",
          "type": "tuple"
        }
      ],
      "stateMutability": "view",
      "type": "function"
    },
    {
      "inputs": [
        {
          "internalType": "uint256",
          "name": "claimsTreeRoot",
          "type": "uint256"
        },
        {
          "internalType": "uint256",
          "name": "root",
          "type": "uint256"
        }
      ],
      "name": "getRootProofByRoot",
      "outputs": [
        {
          "components": [
            {
              "internalType": "uint256",
              "name": "root",
              "type": "uint256"
            },
            {
              "internalType": "bool",
              "name": "existence",
              "type": "bool"
            },
            {
              "internalType": "uint256[]",
              "name": "siblings",
              "type": "uint256[]"
            },
            {
              "internalType": "uint256",
              "name": "index",
              "type": "uint256"
            },
            {
              "internalType": "uint256",
              "name": "value",
              "type": "uint256"
            },
            {
              "internalType": "bool",
              "name": "auxExistence",
              "type": "bool"
            },
            {
              "internalType": "uint256",
              "name": "auxIndex",
              "type": "uint256"
            },
            {
              "internalType": "uint256",
              "name": "auxValue",
              "type": "uint256"
            }
          ],
          "internalType": "struct SmtLib.Proof",
          "name": "",
          "type": "tuple"
        }
      ],
      "stateMutability": "view",
      "type": "function"
    },
    {
      "inputs": [
        {
          "internalType": "uint256",
          "name": "rootsTreeRoot",
          "type": "uint256"
        }
      ],
      "name": "getRootProofWithStateInfo",
      "outputs": [
        {
          "components": [
            {
              "internalType": "uint256",
              "name": "root",
              "type": "uint256"
            },
            {
              "internalType": "bool",
              "name": "existence",
              "type": "bool"
            },
            {
              "internalType": "uint256[]",
              "name": "siblings",
              "type": "uint256[]"
            },
            {
              "internalType": "uint256",
              "name": "index",
              "type": "uint256"
            },
            {
              "internalType": "uint256",
              "name": "value",
              "type": "uint256"
            },
            {
              "internalType": "bool",
              "name": "auxExistence",
              "type": "bool"
            },
            {
              "internalType": "uint256",
              "name": "auxIndex",
              "type": "uint256"
            },
            {
              "internalType": "uint256",
              "name": "auxValue",
              "type": "uint256"
            }
          ],
          "internalType": "struct SmtLib.Proof",
          "name": "",
          "type": "tuple"
        },
        {
          "components": [
            {
              "internalType": "uint256",
              "name": "state",
              "type": "uint256"
            },
            {
              "internalType": "uint256",
              "name": "claimsRoot",
              "type": "uint256"
            },
            {
              "internalType": "uint256",
              "name": "revocationsRoot",
              "type": "uint256"
            },
            {
              "internalType": "uint256",
              "name": "rootsRoot",
              "type": "uint256"
            }
          ],
          "internalType": "struct IdentityLib.StateInfo",
          "name": "",
          "type": "tuple"
        }
      ],
      "stateMutability": "view",
      "type": "function"
    },
    {
      "inputs": [
        {
          "internalType": "uint256",
          "name": "state",
          "type": "uint256"
        }
      ],
      "name": "getRootsByState",
      "outputs": [
        {
          "components": [
            {
              "internalType": "uint256",
              "name": "claimsRoot",
              "type": "uint256"
            },
            {
              "internalType": "uint256",
              "name": "revocationsRoot",
              "type": "uint256"
            },
            {
              "internalType": "uint256",
              "name": "rootsRoot",
              "type": "uint256"
            }
          ],
          "internalType": "struct IdentityLib.Roots",
          "name": "",
          "type": "tuple"
        }
      ],
      "stateMutability": "view",
      "type": "function"
    },
    {
      "inputs": [],
      "name": "getRootsTreeRoot",
      "outputs": [
        {
          "internalType": "uint256",
          "name": "",
          "type": "uint256"
        }
      ],
      "stateMutability": "view",
      "type": "function"
    },
    {
      "inputs": [],
      "name": "getSmtDepth",
      "outputs": [
        {
          "internalType": "uint256",
          "name": "",
          "type": "uint256"
        }
      ],
      "stateMutability": "pure",
      "type": "function"
    },
    {
      "inputs": [],
      "name": "getTemplateRoot",
      "outputs": [
        {
          "internalType": "uint256",
          "name": "",
          "type": "uint256"
        }
      ],
      "stateMutability": "view",
      "type": "function"
    },
    {
      "inputs": [
        {
          "internalType": "address",
          "name": "_stateContractAddr",
          "type": "address"
        },
        {
          "internalType": "bytes2",
          "name": "idType",
          "type": "bytes2"
        }
      ],
      "name": "initialize",
      "outputs": [],
      "stateMutability": "nonpayable",
      "type": "function"
    },
    {
      "inputs": [
        {
          "internalType": "uint256",
          "name": "expirationTime",
          "type": "uint256"
        },
        {
          "internalType": "uint256",
          "name": "templateRoot",
          "type": "uint256"
        },
        {
          "internalType": "address",
          "name": "registry",
          "type": "address"
        },
        {
          "internalType": "string[]",
          "name": "credentialCircuitIds",
          "type": "string[]"
        },
        {
          "internalType": "address[]",
          "name": "credentialVerifierAddresses",
          "type": "address[]"
        },
        {
          "internalType": "string[]",
          "name": "signatureCircuitIds",
          "type": "string[]"
        },
        {
          "internalType": "address[]",
          "name": "signatureVerifierAddresses",
          "type": "address[]"
        },
        {
          "internalType": "address",
          "name": "stateAddress",
          "type": "address"
        },
        {
          "internalType": "bytes2",
          "name": "idType",
          "type": "bytes2"
        }
      ],
      "name": "initializeIssuer",
      "outputs": [],
      "stateMutability": "nonpayable",
      "type": "function"
    },
    {
      "inputs": [],
      "name": "owner",
      "outputs": [
        {
          "internalType": "address",
          "name": "",
          "type": "address"
        }
      ],
      "stateMutability": "view",
      "type": "function"
    },
    {
      "inputs": [],
      "name": "pendingOwner",
      "outputs": [
        {
          "internalType": "address",
          "name": "",
          "type": "address"
        }
      ],
      "stateMutability": "view",
      "type": "function"
    },
    {
      "inputs": [],
      "name": "proxiableUUID",
      "outputs": [
        {
          "internalType": "bytes32",
          "name": "",
          "type": "bytes32"
        }
      ],
      "stateMutability": "view",
      "type": "function"
    },
    {
      "inputs": [],
      "name": "renounceOwnership",
      "outputs": [],
      "stateMutability": "nonpayable",
      "type": "function"
    },
    {
      "inputs": [
        {
          "internalType": "uint256",
          "name": "expirationTime",
          "type": "uint256"
        }
      ],
      "name": "setExpirationTime",
      "outputs": [],
      "stateMutability": "nonpayable",
      "type": "function"
    },
    {
      "inputs": [
        {
          "internalType": "address",
          "name": "registry",
          "type": "address"
        }
      ],
      "name": "setRegistry",
      "outputs": [],
      "stateMutability": "nonpayable",
      "type": "function"
    },
    {
      "inputs": [
        {
          "internalType": "uint256",
          "name": "templateRoot",
          "type": "uint256"
        }
      ],
      "name": "setTemplateRoot",
      "outputs": [],
      "stateMutability": "nonpayable",
      "type": "function"
    },
    {
      "inputs": [
        {
          "internalType": "uint256",
          "name": "requestId",
          "type": "uint256"
        }
      ],
      "name": "signatureRequestIdToCircuitIds",
      "outputs": [
        {
          "internalType": "string",
          "name": "",
          "type": "string"
        }
      ],
      "stateMutability": "view",
      "type": "function"
    },
    {
      "inputs": [
        {
          "internalType": "string",
          "name": "circuitId",
          "type": "string"
        }
      ],
      "name": "signatureVerifiers",
      "outputs": [
        {
          "internalType": "address",
          "name": "",
          "type": "address"
        }
      ],
      "stateMutability": "view",
      "type": "function"
    },
    {
      "inputs": [
        {
          "components": [
            {
              "internalType": "uint64",
              "name": "requestId",
              "type": "uint64"
            },
            {
              "internalType": "bytes",
              "name": "zkProof",
              "type": "bytes"
            },
            {
              "internalType": "bytes",
              "name": "data",
              "type": "bytes"
            }
          ],
          "internalType": "struct IZKPVerifier.ZKPResponse[]",
          "name": "responses",
          "type": "tuple[]"
        },
        {
          "internalType": "bytes",
          "name": "crossChainProofs",
          "type": "bytes"
        }
      ],
      "name": "submitZKPResponseV2",
      "outputs": [],
      "stateMutability": "nonpayable",
      "type": "function"
    },
    {
      "inputs": [
        {
          "internalType": "bytes4",
          "name": "interfaceId",
          "type": "bytes4"
        }
      ],
      "name": "supportsInterface",
      "outputs": [
        {
          "internalType": "bool",
          "name": "",
          "type": "bool"
        }
      ],
      "stateMutability": "view",
      "type": "function"
    },
    {
      "inputs": [
        {
          "internalType": "address",
          "name": "newOwner",
          "type": "address"
        }
      ],
      "name": "transferOwnership",
      "outputs": [],
      "stateMutability": "nonpayable",
      "type": "function"
    },
    {
      "inputs": [
        {
          "internalType": "uint256[]",
          "name": "requestIds",
          "type": "uint256[]"
        },
        {
          "internalType": "string[]",
          "name": "circuitIds",
          "type": "string[]"
        }
      ],
      "name": "updateCredentialRequestIdToCircuitId",
      "outputs": [],
      "stateMutability": "nonpayable",
      "type": "function"
    },
    {
      "inputs": [
        {
          "internalType": "string[]",
          "name": "circuitIds",
          "type": "string[]"
        },
        {
          "internalType": "address[]",
          "name": "verifierAddresses",
          "type": "address[]"
        }
      ],
      "name": "updateCredentialVerifiers",
      "outputs": [],
      "stateMutability": "nonpayable",
      "type": "function"
    },
    {
      "inputs": [
        {
          "internalType": "uint256[]",
          "name": "requestIds",
          "type": "uint256[]"
        },
        {
          "internalType": "string[]",
          "name": "circuitIds",
          "type": "string[]"
        }
      ],
      "name": "updateSignatureRequestIdToCircuitId",
      "outputs": [],
      "stateMutability": "nonpayable",
      "type": "function"
    },
    {
      "inputs": [
        {
          "internalType": "string[]",
          "name": "circuitIds",
          "type": "string[]"
        },
        {
          "internalType": "address[]",
          "name": "verifierAddresses",
          "type": "address[]"
        }
      ],
      "name": "updateSignatureVerifiers",
      "outputs": [],
      "stateMutability": "nonpayable",
      "type": "function"
    },
    {
      "inputs": [
        {
          "internalType": "address",
          "name": "newImplementation",
          "type": "address"
        },
        {
          "internalType": "bytes",
          "name": "data",
          "type": "bytes"
        }
      ],
      "name": "upgradeToAndCall",
      "outputs": [],
      "stateMutability": "payable",
      "type": "function"
    }
  ],
  "bytecode": "0x60a06040523060805234801561001457600080fd5b5061001d610022565b6100d4565b7ff0c57e16840df040f15088dc2f81fe391c3923bec73e23a9662efc9c229c6a00805468010000000000000000900460ff16156100725760405163f92ee8a960e01b815260040160405180910390fd5b80546001600160401b03908116146100d15780546001600160401b0319166001600160401b0390811782556040519081527fc7f505b2f371ae2175ee4913f4499e1f2633a7b5936321eed1cdaeb6115181d29060200160405180910390a15b50565b608051613dbd6100fd600039600081816123bb015281816123e401526125640152613dbd6000f3fe6080604052600436106102c85760003560e01c80639dc3c7ba11610175578063c1e32733116100dc578063dbdf185211610095578063e30c39781161006f578063e30c397814610878578063f2fde38b1461088d578063f84c7c1e146108ad578063ffa1ad74146108c257600080fd5b8063dbdf185214610823578063e23a845a14610843578063e26ecb0b1461085857600080fd5b8063c1e3273314610779578063c6365a3b14610799578063cde1cacb146107ae578063d622ea6e146107ce578063d94b0271146107ee578063da68a0b11461080e57600080fd5b8063b354c2d81161012e578063b354c2d814610697578063b37feda4146106b7578063b57a40cb146106d7578063b8db6871146106f7578063badf055d14610739578063c0cc365d1461075957600080fd5b80639dc3c7ba146105b9578063a635c785146105d9578063a91ee0dc146105f9578063aad7292114610619578063ad3cb1cc14610639578063ade09fcd1461067757600080fd5b80633f0c66481161023457806352d1902d116101ed578063715018a6116101c7578063715018a61461056557806379ba50971461057a5780638da5cb5b1461058f5780639674cfa4146105a457600080fd5b806352d1902d1461050e5780635ab1bd53146105235780635d1ca6311461055057600080fd5b80633f0c664814610472578063406e8b4c14610486578063424e14a4146104a6578063443d7534146104c65780634f1ef286146104e6578063523b8136146104f957600080fd5b8063264850631161028657806326485063146103c65780632c1d3204146103f35780632d5c4f2514610408578063310d0d5b146104285780633d59ec60146104485780633df432fc1461045d57600080fd5b806233058d146102cd57806301c85c771461030457806301ffc9a71461032757806309bdc4b114610357578063110c96a714610379578063116e6ae9146103a6575b600080fd5b3480156102d957600080fd5b506102ed6102e8366004612e0b565b6108f3565b6040516102fb929190612ec8565b60405180910390f35b34801561031057600080fd5b506103196109c0565b6040519081526020016102fb565b34801561033357600080fd5b50610347610342366004612f0b565b610a45565b60405190151581526020016102fb565b34801561036357600080fd5b50610377610372366004613184565b610a7c565b005b34801561038557600080fd5b50610399610394366004613286565b610d59565b6040516102fb91906132b2565b3480156103b257600080fd5b506103776103c13660046132ff565b610d84565b3480156103d257600080fd5b506103e66103e1366004612e0b565b610ea9565b6040516102fb91906133bf565b3480156103ff57600080fd5b50610319610f42565b34801561041457600080fd5b506103e66104233660046133d2565b610f5d565b34801561043457600080fd5b506103e66104433660046133d2565b610ffc565b34801561045457600080fd5b50610319611053565b34801561046957600080fd5b50610319611066565b34801561047e57600080fd5b506028610319565b34801561049257600080fd5b506103776104a13660046133f4565b6110a9565b3480156104b257600080fd5b506103776104c13660046132ff565b611146565b3480156104d257600080fd5b506102ed6104e136600461341e565b611265565b6103776104f4366004613437565b6112e0565b34801561050557600080fd5b506103196112ff565b34801561051a57600080fd5b50610319611312565b34801561052f57600080fd5b5061053861132f565b6040516001600160a01b0390911681526020016102fb565b34801561055c57600080fd5b50610319611353565b34801561057157600080fd5b50610377611363565b34801561058657600080fd5b50610377611377565b34801561059b57600080fd5b506105386113bf565b3480156105b057600080fd5b506103196113f4565b3480156105c557600080fd5b506103776105d436600461347a565b611407565b3480156105e557600080fd5b506105386105f43660046134d7565b611548565b34801561060557600080fd5b5061037761061436600461350b565b61158c565b34801561062557600080fd5b50610399610634366004613526565b6115fb565b34801561064557600080fd5b5061066a604051806040016040528060058152602001640352e302e360dc1b81525081565b6040516102fb91906135ab565b34801561068357600080fd5b506103776106923660046135be565b611814565b3480156106a357600080fd5b506103776106b236600461341e565b611c91565b3480156106c357600080fd5b506102ed6106d236600461341e565b611cde565b3480156106e357600080fd5b506103e66106f236600461341e565b611d59565b34801561070357600080fd5b5061071761071236600461341e565b611da7565b60408051825181526020808401519082015291810151908201526060016102fb565b34801561074557600080fd5b5061037761075436600461347a565b611e4f565b34801561076557600080fd5b5061037761077436600461341e565b611f90565b34801561078557600080fd5b506103e661079436600461341e565b611fda565b3480156107a557600080fd5b5061031961202a565b3480156107ba57600080fd5b506105386107c93660046134d7565b61203d565b3480156107da57600080fd5b5061066a6107e936600461341e565b612060565b3480156107fa57600080fd5b5061037761080936600461341e565b612114565b34801561081a57600080fd5b506103196121a2565b34801561082f57600080fd5b5061066a61083e36600461341e565b6121e5565b34801561084f57600080fd5b50610319612214565b34801561086457600080fd5b506103e6610873366004613701565b612234565b34801561088457600080fd5b50610538612293565b34801561089957600080fd5b506103776108a836600461350b565b6122bc565b3480156108b957600080fd5b50610347612341565b3480156108ce57600080fd5b5061066a60405180604001604052806005815260200164189718171960d91b81525081565b6108fb612d1f565b6109266040518060800160405280600081526020016000815260200160008152602001600081525090565b61092e612357565b604051631f17004d60e31b815260048101919091526001600160401b038416602482015273__$068aad146bf104111ba65c4a1de2cd0e23$__9063f8b80268906044015b600060405180830381865af415801561098f573d6000803e3d6000fd5b505050506040513d6000823e601f3d908101601f191682016040526109b79190810190613837565b91509150915091565b60006109ca612357565b60405163765c2c6160e01b8152600481019190915273__$068aad146bf104111ba65c4a1de2cd0e23$__9063765c2c61906024015b602060405180830381865af4158015610a1c573d6000803e3d6000fd5b505050506040513d601f19601f82011682018060405250810190610a4091906138db565b905090565b60006001600160e01b03198216635d1ca63160e01b1480610a7657506301ffc9a760e01b6001600160e01b03198316145b92915050565b7ff0c57e16840df040f15088dc2f81fe391c3923bec73e23a9662efc9c229c6a008054600160401b810460ff1615906001600160401b0316600081158015610ac15750825b90506000826001600160401b03166001148015610add5750303b155b905081158015610aeb575080155b15610b095760405163f92ee8a960e01b815260040160405180910390fd5b845467ffffffffffffffff191660011785558315610b3357845460ff60401b1916600160401b1785555b610b3d87876110a9565b610b463361237b565b6000610b5061238c565b90508e81600001819055508d81600101819055508c8160030160006101000a8154816001600160a01b0302191690836001600160a01b031602179055508a518c5114610bc1578b518b516040516355c5b3e360e11b8152600481019290925260248201526044015b60405180910390fd5b88518a5114610bf057895189516040516355c5b3e360e11b815260048101929092526024820152604401610bb8565b60005b8c51811015610c78578b8181518110610c0e57610c0e6138f4565b6020026020010151826004018e8381518110610c2c57610c2c6138f4565b6020026020010151604051610c41919061390a565b90815260405190819003602001902080546001600160a01b03929092166001600160a01b0319909216919091179055600101610bf3565b5060005b8a51811015610d0157898181518110610c9757610c976138f4565b6020026020010151826005018c8381518110610cb557610cb56138f4565b6020026020010151604051610cca919061390a565b90815260405190819003602001902080546001600160a01b03929092166001600160a01b0319909216919091179055600101610c7c565b50508315610d4957845460ff60401b19168555604051600181527fc7f505b2f371ae2175ee4913f4499e1f2633a7b5936321eed1cdaeb6115181d29060200160405180910390a15b5050505050505050505050505050565b610d61612d68565b6000610d6b612357565b600101549050610d7c8482856115fb565b949350505050565b610d8c6123b0565b610d94612455565b6000610d9e61238c565b90508251825114610dcf57825182516040516355c5b3e360e11b815260048101929092526024820152604401610bb8565b60005b8351811015610ea357828181518110610ded57610ded6138f4565b6020026020010151826006016000868481518110610e0d57610e0d6138f4565b602002602001015181526020019081526020016000209081610e2f91906139ae565b507f041133f77d321d756b41ca72a0c5948eeef44cd9d587ed593d4baed71d317e7d848281518110610e6357610e636138f4565b6020026020010151848381518110610e7d57610e7d6138f4565b6020026020010151604051610e93929190613a6c565b60405180910390a1600101610dd2565b50505050565b610eb1612d1f565b610eb9612357565b604051637d0aba4f60e01b815260048101919091526001600160401b038316602482015273__$068aad146bf104111ba65c4a1de2cd0e23$__90637d0aba4f906044015b600060405180830381865af4158015610f1a573d6000803e3d6000fd5b505050506040513d6000823e601f3d908101601f19168201604052610a769190810190613a85565b6000610f4c6123b0565b610f5461238c565b60010154905090565b610f65612d1f565b610f6d612357565b60405163d55da6a360e01b81526004810191909152602481018490526044810183905273__$068aad146bf104111ba65c4a1de2cd0e23$__9063d55da6a3906064015b600060405180830381865af4158015610fcd573d6000803e3d6000fd5b505050506040513d6000823e601f3d908101601f19168201604052610ff59190810190613a85565b9392505050565b611004612d1f565b61100c612357565b604051636ac0c5c760e11b81526004810191909152602481018490526044810183905273__$068aad146bf104111ba65c4a1de2cd0e23$__9063d5818b8e90606401610fb0565b600061105d612357565b60010154919050565b6000611070612357565b604051631b8bf99b60e21b8152600481019190915273__$068aad146bf104111ba65c4a1de2cd0e23$__90636e2fe66c906024016109ff565b6110b1612357565b6040516359a6069160e01b815260048101919091526001600160a01b0383166024820152306044820152602860648201526001600160f01b03198216608482015273__$068aad146bf104111ba65c4a1de2cd0e23$__906359a606919060a4015b60006040518083038186803b15801561112a57600080fd5b505af415801561113e573d6000803e3d6000fd5b505050505050565b61114e6123b0565b611156612455565b600061116061238c565b9050825182511461119157825182516040516355c5b3e360e11b815260048101929092526024820152604401610bb8565b60005b8351811015610ea3578281815181106111af576111af6138f4565b60200260200101518260070160008684815181106111cf576111cf6138f4565b6020026020010151815260200190815260200160002090816111f191906139ae565b507f02dd940b9b98369e18f7f95142c08af8d3517a19f539258131cf48e9786bf5fe848281518110611225576112256138f4565b602002602001015184838151811061123f5761123f6138f4565b6020026020010151604051611255929190613a6c565b60405180910390a1600101611194565b61126d612d1f565b6112986040518060800160405280600081526020016000815260200160008152602001600081525090565b6112a0612357565b60405163a3018d7960e01b815260048101919091526024810184905273__$068aad146bf104111ba65c4a1de2cd0e23$__9063a3018d7990604401610972565b6112e86123b0565b6112f182612487565b6112fb8282612497565b5050565b6000611309612357565b609a0154919050565b600061131c612559565b50600080516020613d6883398151915290565b60006113396123b0565b61134161238c565b600301546001600160a01b0316905090565b600061135d612357565b54919050565b61136b612455565b61137560006125a2565b565b3380611381612293565b6001600160a01b0316146113b35760405163118cdaa760e01b81526001600160a01b0382166004820152602401610bb8565b6113bc816125a2565b50565b6000807f9016d09d72d40fdae2fd8ceac6b6234c7706214fd39c1cd1e609a0528c1993005b546001600160a01b031692915050565b60006113fe612357565b609b0154919050565b61140f6123b0565b611417612455565b600061142161238c565b9050815183511461145257825182516040516355c5b3e360e11b815260048101929092526024820152604401610bb8565b60005b8351811015610ea357828181518110611470576114706138f4565b60200260200101518260050185838151811061148e5761148e6138f4565b60200260200101516040516114a3919061390a565b908152602001604051809103902060006101000a8154816001600160a01b0302191690836001600160a01b031602179055507f5aec749fec66d318cfdd4a5c0883a270ab62150d656ca8d9a9d0ad551ee4466b848281518110611508576115086138f4565b6020026020010151848381518110611522576115226138f4565b6020026020010151604051611538929190613ab9565b60405180910390a1600101611455565b60006115526123b0565b61155a61238c565b6004018260405161156b919061390a565b908152604051908190036020019020546001600160a01b031690505b919050565b6115946123b0565b61159c612455565b806115a561238c565b60030180546001600160a01b0319166001600160a01b0392831617905560405190821681527fd6ceddf6d2a22f21c7c81675c518004eff43bc5c8a6fc32a0b748e69d58671cd906020015b60405180910390a150565b611603612d68565b61160b612357565b5484146116515760405162461bcd60e51b8152602060048201526014602482015273092c8cadce8d2e8f240d2c840dad2e6dac2e8c6d60631b6044820152606401610bb8565b600061165b612357565b604051630b1a9cd360e01b815260048101919091526024810185905273__$068aad146bf104111ba65c4a1de2cd0e23$__90630b1a9cd390604401606060405180830381865af41580156116b3573d6000803e3d6000fd5b505050506040513d601f19601f820116820180604052508101906116d79190613ae3565b60408051608081018252868152825160208083019190915283015181830152908201516060820152909150600061170c612357565b6020840151604051630b2bcd1b60e11b815260048101929092526001600160401b0387166024830152604482015273__$068aad146bf104111ba65c4a1de2cd0e23$__906316579a3690606401600060405180830381865af4158015611776573d6000803e3d6000fd5b505050506040513d6000823e601f3d908101601f1916820160405261179e9190810190613a85565b6040805161010081018252825181526020808401511515818301528284015182840152606080850151908301526080808501519083015260a08085015115159083015260c0808501519083015260e093840151938201939093528151808301909252938152908101929092525095945050505050565b600061181e61238c565b9050825160021461184f578251604051630264a11560e21b8152600481019190915260026024820152604401610bb8565b6060808260060160008660008151811061186b5761186b6138f4565b6020026020010151600001516001600160401b03168152602001908152602001600020805461189990613926565b80601f01602080910402602001604051908101604052809291908181526020018280546118c590613926565b80156119125780601f106118e757610100808354040283529160200191611912565b820191906000526020600020905b8154815290600101906020018083116118f557829003601f168201915b5050505050915082600701600086600181518110611932576119326138f4565b6020026020010151600001516001600160401b03168152602001908152602001600020805461196090613926565b80601f016020809104026020016040519081016040528092919081815260200182805461198c90613926565b80156119d95780601f106119ae576101008083540402835291602001916119d9565b820191906000526020600020905b8154815290600101906020018083116119bc57829003601f168201915b505050505090508151600003611a2d57846000815181106119fc576119fc6138f4565b60209081029190910101515160405163ea99bbcd60e01b81526001600160401b039091166004820152602401610bb8565b8051600003611a7a5784600181518110611a4957611a496138f4565b60209081029190910101515160405163138379c160e01b81526001600160401b039091166004820152602401610bb8565b60008060008088600081518110611a9357611a936138f4565b602002602001015160200151806020019051810190611ab29190613b72565b9350935093509350600060405180608001604052808581526020018481526020018381526020016040518060c0016040528088600081518110611af757611af76138f4565b6020026020010151815260200188600181518110611b1757611b176138f4565b6020026020010151815260200188600281518110611b3757611b376138f4565b6020026020010151815260200188600381518110611b5757611b576138f4565b6020026020010151815260200188600481518110611b7757611b776138f4565b6020026020010151815260200188600581518110611b9757611b976138f4565b602002602001015181525081525090506000806000808d600181518110611bc057611bc06138f4565b602002602001015160200151806020019051810190611bdf9190613b72565b935093509350935060006040518060800160405280858152602001848152602001838152602001604051806060016040528088600081518110611c2457611c246138f4565b6020026020010151815260200188600181518110611c4457611c446138f4565b6020026020010151815260200188600281518110611c6457611c646138f4565b60200260200101518152508152509050611c808c878d846125da565b505050505050505050505050505050565b611c996123b0565b611ca1612455565b80611caa61238c565b600101556040518181527ff007a02ba428e63fa98b65269e70f9a9db847e0a839049a2f31f069282267734906020016115f0565b611ce6612d1f565b611d116040518060800160405280600081526020016000815260200160008152602001600081525090565b611d19612357565b604051636ad1d8a760e11b815260048101919091526024810184905273__$068aad146bf104111ba65c4a1de2cd0e23$__9063d5a3b14e90604401610972565b611d61612d1f565b611d69612357565b604051620cf08960e41b815260048101919091526024810183905273__$068aad146bf104111ba65c4a1de2cd0e23$__9062cf089090604401610efd565b611dcb60405180606001604052806000815260200160008152602001600081525090565b611dd3612357565b604051630b1a9cd360e01b815260048101919091526024810183905273__$068aad146bf104111ba65c4a1de2cd0e23$__90630b1a9cd390604401606060405180830381865af4158015611e2b573d6000803e3d6000fd5b505050506040513d601f19601f82011682018060405250810190610a769190613ae3565b611e576123b0565b611e5f612455565b6000611e6961238c565b90508151835114611e9a57825182516040516355c5b3e360e11b815260048101929092526024820152604401610bb8565b60005b8351811015610ea357828181518110611eb857611eb86138f4565b602002602001015182600401858381518110611ed657611ed66138f4565b6020026020010151604051611eeb919061390a565b908152602001604051809103902060006101000a8154816001600160a01b0302191690836001600160a01b031602179055507f5d864db8d88e9085fd5e7752a2094701e558355b75b561c00174d27aefd3e289848281518110611f5057611f506138f4565b6020026020010151848381518110611f6a57611f6a6138f4565b6020026020010151604051611f80929190613ab9565b60405180910390a1600101611e9d565b611f986123b0565b611fa0612455565b80611fa961238c565b556040518181527f7f7f3071c3c286700c199acae2fe071beb4a63dae1afff85186fa75d18090ae8906020016115f0565b611fe2612d1f565b611fea612357565b6040516397ac539160e01b815260048101919091526024810183905273__$068aad146bf104111ba65c4a1de2cd0e23$__906397ac539190604401610efd565b6000612034612357565b609c0154919050565b60006120476123b0565b61204f61238c565b6005018260405161156b919061390a565b606061206a6123b0565b61207261238c565b600083815260069190910160205260409020805461208f90613926565b80601f01602080910402602001604051908101604052809291908181526020018280546120bb90613926565b80156121085780601f106120dd57610100808354040283529160200191612108565b820191906000526020600020905b8154815290600101906020018083116120eb57829003601f168201915b50505050509050919050565b61211c612455565b600061212661238c565b600083815260028201602052604090205490915060ff166121895760405162461bcd60e51b815260206004820152601860248201527f4e756c6c696669657220646f6573206e6f7420657869737400000000000000006044820152606401610bb8565b600091825260020160205260409020805460ff19169055565b60006121ac612357565b604051631e75e7f360e01b8152600481019190915273__$068aad146bf104111ba65c4a1de2cd0e23$__90631e75e7f3906024016109ff565b60606121ef6123b0565b6121f761238c565b600083815260079190910160205260409020805461208f90613926565b600061221e6123b0565b612226612455565b61222e61238c565b54905090565b61223c612d1f565b612244612357565b604051630b2bcd1b60e11b815260048101919091526001600160401b03841660248201526044810183905273__$068aad146bf104111ba65c4a1de2cd0e23$__906316579a3690606401610fb0565b6000807f237e158222e3e6968b72b9db0d8043aacf074ad9f650f0d1606b4d82ee432c006113e4565b6122c4612455565b7f237e158222e3e6968b72b9db0d8043aacf074ad9f650f0d1606b4d82ee432c0080546001600160a01b0319166001600160a01b03831690811782556123086113bf565b6001600160a01b03167f38d16b8cac22d99fc7c124b9cd0de2d3fa1faef420bfe791d8c362d765e2270060405160405180910390a35050565b600061234b612357565b6002015460ff16919050565b7f3018a310c36c4f8228f09bf3b1822685cf0971daa8265a58ca807c4a4daba40090565b6123836125f8565b6113bc81612641565b7fd64ab600136c76c630ed81a54cc1acbcc213dadb956fdd8687dc5ebb0bb5f50090565b306001600160a01b037f000000000000000000000000000000000000000000000000000000000000000016148061243757507f00000000000000000000000000000000000000000000000000000000000000006001600160a01b031661242b600080516020613d68833981519152546001600160a01b031690565b6001600160a01b031614155b156113755760405163703e46dd60e11b815260040160405180910390fd5b3361245e6113bf565b6001600160a01b0316146113755760405163118cdaa760e01b8152336004820152602401610bb8565b61248f6123b0565b6113bc612455565b816001600160a01b03166352d1902d6040518163ffffffff1660e01b8152600401602060405180830381865afa9250505080156124f1575060408051601f3d908101601f191682019092526124ee918101906138db565b60015b61251957604051634c9c8ce360e01b81526001600160a01b0383166004820152602401610bb8565b600080516020613d68833981519152811461254a57604051632a87526960e21b815260048101829052602401610bb8565b6125548383612673565b505050565b306001600160a01b037f000000000000000000000000000000000000000000000000000000000000000016146113755760405163703e46dd60e11b815260040160405180910390fd5b7f237e158222e3e6968b72b9db0d8043aacf074ad9f650f0d1606b4d82ee432c0080546001600160a01b03191681556112fb826126c9565b6125e4848461273a565b6125ee8282612832565b610ea3838261292b565b7ff0c57e16840df040f15088dc2f81fe391c3923bec73e23a9662efc9c229c6a0054600160401b900460ff1661137557604051631afcd79f60e31b815260040160405180910390fd5b6126496125f8565b6001600160a01b0381166113b357604051631e4fbdf760e01b815260006004820152602401610bb8565b61267c82612999565b6040516001600160a01b038316907fbc7cd75a20ee27fd9adebab32041f755214dbc6bffa90cc0225b39da2e5c2d3b90600090a28051156126c15761255482826129fe565b6112fb612a74565b7f9016d09d72d40fdae2fd8ceac6b6234c7706214fd39c1cd1e609a0528c19930080546001600160a01b031981166001600160a01b03848116918217845560405192169182907f8be0079c531659141344cd1fd0a4f28419497f9722a3daafe3b4186f6b6457e090600090a3505050565b600061274461238c565b90506000816004018460405161275a919061390a565b908152604051908190036020019020546001600160a01b0316905080612793576040516301dcf1ab60e31b815260040160405180910390fd5b806001600160a01b031663f398789b84600001518560200151866040015187606001516040518563ffffffff1660e01b81526004016127d59493929190613c7d565b602060405180830381865afa1580156127f2573d6000803e3d6000fd5b505050506040513d601f19601f820116820180604052508101906128169190613cda565b610ea3576040516281723b60e21b815260040160405180910390fd5b600061283c61238c565b905060008160050184604051612852919061390a565b908152604051908190036020019020546001600160a01b031690508061288b576040516301dcf1ab60e31b815260040160405180910390fd5b806001600160a01b03166311479fea84600001518560200151866040015187606001516040518563ffffffff1660e01b81526004016128cd9493929190613cf5565b602060405180830381865afa1580156128ea573d6000803e3d6000fd5b505050506040513d601f19601f8201168201806040525081019061290e9190613cda565b610ea3576040516389fa585960e01b815260040160405180910390fd5b606082810151805160208083015183850151608085015160a08601516040968701519789015194850151855195909701519597939692959194909392916129798989898989888a8989612a93565b61298282612bb8565b61298c8989612bdf565b5050505050505050505050565b806001600160a01b03163b6000036129cf57604051634c9c8ce360e01b81526001600160a01b0382166004820152602401610bb8565b600080516020613d6883398151915280546001600160a01b0319166001600160a01b0392909216919091179055565b6060600080846001600160a01b031684604051612a1b919061390a565b600060405180830381855af49150503d8060008114612a56576040519150601f19603f3d011682016040523d82523d6000602084013e612a5b565b606091505b5091509150612a6b858383612c9a565b95945050505050565b34156113755760405163b398979f60e01b815260040160405180910390fd5b6000612a9d61238c565b905089600003612ac357604051631b1aad8760e11b8152600481018b9052602401610bb8565b88600003612ae757604051634bdc991b60e11b8152600481018a9052602401610bb8565b80600101548614612b1b57600181015460405163e748379160e01b8152610bb8918891600401918252602082015260400190565b848414612b48576040516001621d0d8360e21b031981526004810185905260248101869052604401610bb8565b80544290612b569089613d46565b1015612b775760405162bd09f160e11b815260048101889052602401610bb8565b600083815260028201602052604090205460ff1615612bac57604051635377438b60e11b815260048101849052602401610bb8565b50505050505050505050565b6000612bc261238c565b60009283526002016020525060409020805460ff19166001179055565b612be7612357565b6040516306fb157560e01b81526004810191909152602481018390526044810182905273__$068aad146bf104111ba65c4a1de2cd0e23$__906306fb15759060640160006040518083038186803b158015612c4157600080fd5b505af4158015612c55573d6000803e3d6000fd5b50505050612c61612357565b60405163175ba3e960e11b8152600481019190915273__$068aad146bf104111ba65c4a1de2cd0e23$__90632eb747d290602401611112565b606082612caf57612caa82612cf6565b610ff5565b8151158015612cc657506001600160a01b0384163b155b15612cef57604051639996b31560e01b81526001600160a01b0385166004820152602401610bb8565b5080610ff5565b805115612d065780518082602001fd5b60405163d6bda27560e01b815260040160405180910390fd5b6040518061010001604052806000815260200160001515815260200160608152602001600081526020016000815260200160001515815260200160008152602001600081525090565b6040518060400160405280612d9e6040518060800160405280600081526020016000815260200160008152602001600081525090565b8152602001612def6040518061010001604052806000815260200160001515815260200160608152602001600081526020016000815260200160001515815260200160008152602001600081525090565b905290565b80356001600160401b038116811461158757600080fd5b600060208284031215612e1d57600080fd5b610ff582612df4565b805182526020808201511515818401526040808301516101009185018290528051918501829052600092019082906101208601905b80831015612e7e5783518252602082019150602084019350600183019250612e5b565b50606085015160608701526080850151608087015260a08501519250612ea860a087018415159052565b60c085015160c087015260e085015160e087015280935050505092915050565b60a081526000612edb60a0830185612e26565b9050610ff56020830184805182526020810151602083015260408101516040830152606081015160608301525050565b600060208284031215612f1d57600080fd5b81356001600160e01b031981168114610ff557600080fd5b80356001600160a01b038116811461158757600080fd5b634e487b7160e01b600052604160045260246000fd5b604051606081016001600160401b0381118282101715612f8457612f84612f4c565b60405290565b60405161010081016001600160401b0381118282101715612f8457612f84612f4c565b604051601f8201601f191681016001600160401b0381118282101715612fd557612fd5612f4c565b604052919050565b60006001600160401b03821115612ff657612ff6612f4c565b5060051b60200190565b600082601f83011261301157600080fd5b8135602083016000806001600160401b0384111561303157613031612f4c565b50601f8301601f191660200161304681612fad565b91505082815285838301111561305b57600080fd5b82826020830137600092810160200192909252509392505050565b600082601f83011261308757600080fd5b813561309a61309582612fdd565b612fad565b8082825260208201915060208360051b8601019250858311156130bc57600080fd5b602085015b838110156130fd5780356001600160401b038111156130df57600080fd5b6130ee886020838a0101613000565b845250602092830192016130c1565b5095945050505050565b600082601f83011261311857600080fd5b813561312661309582612fdd565b8082825260208201915060208360051b86010192508583111561314857600080fd5b602085015b838110156130fd5761315e81612f35565b83526020928301920161314d565b80356001600160f01b03198116811461158757600080fd5b60008060008060008060008060006101208a8c0312156131a357600080fd5b8935985060208a013597506131ba60408b01612f35565b965060608a01356001600160401b038111156131d557600080fd5b6131e18c828d01613076565b96505060808a01356001600160401b038111156131fd57600080fd5b6132098c828d01613107565b95505060a08a01356001600160401b0381111561322557600080fd5b6132318c828d01613076565b94505060c08a01356001600160401b0381111561324d57600080fd5b6132598c828d01613107565b93505061326860e08b01612f35565b91506132776101008b0161316c565b90509295985092959850929598565b6000806040838503121561329957600080fd5b823591506132a960208401612df4565b90509250929050565b602081526132e5602082018351805182526020810151602083015260408101516040830152606081015160608301525050565b6000602083015160a080840152610d7c60c0840182612e26565b6000806040838503121561331257600080fd5b82356001600160401b0381111561332857600080fd5b8301601f8101851361333957600080fd5b803561334761309582612fdd565b8082825260208201915060208360051b85010192508783111561336957600080fd5b6020840193505b8284101561338b578335825260209384019390910190613370565b945050505060208301356001600160401b038111156133a957600080fd5b6133b585828601613076565b9150509250929050565b602081526000610ff56020830184612e26565b600080604083850312156133e557600080fd5b50508035926020909101359150565b6000806040838503121561340757600080fd5b61341083612f35565b91506132a96020840161316c565b60006020828403121561343057600080fd5b5035919050565b6000806040838503121561344a57600080fd5b61345383612f35565b915060208301356001600160401b0381111561346e57600080fd5b6133b585828601613000565b6000806040838503121561348d57600080fd5b82356001600160401b038111156134a357600080fd5b6134af85828601613076565b92505060208301356001600160401b038111156134cb57600080fd5b6133b585828601613107565b6000602082840312156134e957600080fd5b81356001600160401b038111156134ff57600080fd5b610d7c84828501613000565b60006020828403121561351d57600080fd5b610ff582612f35565b60008060006060848603121561353b57600080fd5b833592506020840135915061355260408501612df4565b90509250925092565b60005b8381101561357657818101518382015260200161355e565b50506000910152565b6000815180845261359781602086016020860161355b565b601f01601f19169290920160200192915050565b602081526000610ff5602083018461357f565b600080604083850312156135d157600080fd5b82356001600160401b038111156135e757600080fd5b8301601f810185136135f857600080fd5b803561360661309582612fdd565b8082825260208201915060208360051b85010192508783111561362857600080fd5b602084015b838110156136e25780356001600160401b0381111561364b57600080fd5b85016060818b03601f1901121561366157600080fd5b613669612f62565b61367560208301612df4565b815260408201356001600160401b0381111561369057600080fd5b61369f8c602083860101613000565b60208301525060608201356001600160401b038111156136be57600080fd5b6136cd8c602083860101613000565b6040830152508452506020928301920161362d565b50945050505060208301356001600160401b0381111561346e57600080fd5b6000806040838503121561371457600080fd5b61371d83612df4565b946020939093013593505050565b8051801515811461158757600080fd5b600082601f83011261374c57600080fd5b815161375a61309582612fdd565b8082825260208201915060208360051b86010192508583111561377c57600080fd5b602085015b838110156130fd578051835260209283019201613781565b600061010082840312156137ac57600080fd5b6137b4612f8a565b8251815290506137c66020830161372b565b602082015260408201516001600160401b038111156137e457600080fd5b6137f08482850161373b565b604083015250606082810151908201526080808301519082015261381660a0830161372b565b60a082015260c0828101519082015260e09182015191810191909152919050565b60008082840360a081121561384b57600080fd5b83516001600160401b0381111561386157600080fd5b61386d86828701613799565b9350506080601f198201121561388257600080fd5b50604051608081016001600160401b03811182821017156138a5576138a5612f4c565b60409081526020858101518352858201519083015260608086015191830191909152608090940151938101939093525092909150565b6000602082840312156138ed57600080fd5b5051919050565b634e487b7160e01b600052603260045260246000fd5b6000825161391c81846020870161355b565b9190910192915050565b600181811c9082168061393a57607f821691505b60208210810361395a57634e487b7160e01b600052602260045260246000fd5b50919050565b601f82111561255457806000526020600020601f840160051c810160208510156139875750805b601f840160051c820191505b818110156139a75760008155600101613993565b5050505050565b81516001600160401b038111156139c7576139c7612f4c565b6139db816139d58454613926565b84613960565b6020601f821160018114613a0f57600083156139f75750848201515b600019600385901b1c1916600184901b1784556139a7565b600084815260208120601f198516915b82811015613a3f5787850151825560209485019460019092019101613a1f565b5084821015613a5d5786840151600019600387901b60f8161c191681555b50505050600190811b01905550565b828152604060208201526000610d7c604083018461357f565b600060208284031215613a9757600080fd5b81516001600160401b03811115613aad57600080fd5b610d7c84828501613799565b604081526000613acc604083018561357f565b905060018060a01b03831660208301529392505050565b60006060828403128015613af657600080fd5b50613aff612f62565b82518152602080840151908201526040928301519281019290925250919050565b600082601f830112613b3157600080fd5b613b3b6040612fad565b806040840185811115613b4d57600080fd5b845b81811015613b67578051845260209384019301613b4f565b509095945050505050565b6000806000806101208587031215613b8957600080fd5b84516001600160401b03811115613b9f57600080fd5b613bab8782880161373b565b945050613bbb8660208701613b20565b925085607f860112613bcc57600080fd5b6040613bd781612fad565b8060e0880189811115613be957600080fd5b606089015b81811015613c0f57613c008b82613b20565b84526020909301928401613bee565b50819550613c1d8a82613b20565b94505050505092959194509250565b8060005b6002811015610ea3578151845260209384019390910190600101613c30565b8060005b6002811015610ea357613c67848351613c2c565b6040939093019260209190910190600101613c53565b6101c08101613c8c8287613c2c565b613c996040830186613c4f565b613ca660c0830185613c2c565b61010082018360005b6006811015613cce578151835260209283019290910190600101613caf565b50505095945050505050565b600060208284031215613cec57600080fd5b610ff58261372b565b6101608101613d048287613c2c565b613d116040830186613c4f565b613d1e60c0830185613c2c565b61010082018360005b6003811015613cce578151835260209283019290910190600101613d27565b80820180821115610a7657634e487b7160e01b600052601160045260246000fdfe360894a13ba1a3210667c828492db98dca3e2076cc3735a920a3ca505d382bbca264697066735822122037507d5759cf97c66206a19f2fc19ced0902fd3158f81a2d00ba7c9c614038ee64736f6c634300081b0033",
  "linkReferences": {
    "@iden3/contracts/lib/IdentityLib.sol": {
      "IdentityLib": [
        {
          "length": 20,
          "start": 2641
        },
        {
          "length": 20,
          "start": 2782
        },
        {
          "length": 20,
          "start": 4060
        },
        {
          "length": 20,
          "start": 4239
        },
        {
          "length": 20,
          "start": 4398
        },
        {
          "length": 20,
          "start": 4484
        },
        {
          "length": 20,
          "start": 4593
        },
        {
          "length": 20,
          "start": 5051
        },
        {
          "length": 20,
          "start": 6006
        },
        {
          "length": 20,
          "start": 6201
        },
        {
          "length": 20,
          "start": 7732
        },
        {
          "length": 20,
          "start": 7811
        },
        {
          "length": 20,
          "start": 7918
        },
        {
          "length": 20,
          "start": 8453
        },
        {
          "length": 20,
          "start": 8896
        },
        {
          "length": 20,
          "start": 9070
        },
        {
          "length": 20,
          "start": 11529
        },
        {
          "length": 20,
          "start": 11637
        }
      ]
    }
  },
  "deployedLinkReferences": {
    "@iden3/contracts/lib/IdentityLib.sol": {
      "IdentityLib": [
        {
          "length": 20,
          "start": 2388
        },
        {
          "length": 20,
          "start": 2529
        },
        {
          "length": 20,
          "start": 3807
        },
        {
          "length": 20,
          "start": 3986
        },
        {
          "length": 20,
          "start": 4145
        },
        {
          "length": 20,
          "start": 4231
        },
        {
          "length": 20,
          "start": 4340
        },
        {
          "length": 20,
          "start": 4798
        },
        {
          "length": 20,
          "start": 5753
        },
        {
          "length": 20,
          "start": 5948
        },
        {
          "length": 20,
          "start": 7479
        },
        {
          "length": 20,
          "start": 7558
        },
        {
          "length": 20,
          "start": 7665
        },
        {
          "length": 20,
          "start": 8200
        },
        {
          "length": 20,
          "start": 8643
        },
        {
          "length": 20,
          "start": 8817
        },
        {
          "length": 20,
          "start": 11276
        },
        {
          "length": 20,
          "start": 11384
        }
      ]
    }
  }
}