{
  "_format": "hh-sol-artifact-1",
  "contractName": "PassportCredentialIssuerImplV1",
  "sourceName": "contracts/verifiers/PassportCredentialIssuerImplV1.sol",
  "abi": [
    {
      "inputs": [],
      "stateMutability": "nonpayable",
      "type": "constructor"
    },
    {
      "inputs": [
        {
          "internalType": "address",
          "name": "target",
          "type": "address"
        }
      ],
      "name": "AddressEmptyCode",
      "type": "error"
    },
    {
      "inputs": [
        {
          "internalType": "address",
          "name": "implementation",
          "type": "address"
        }
      ],
      "name": "ERC1967InvalidImplementation",
      "type": "error"
    },
    {
      "inputs": [],
      "name": "ERC1967NonPayable",
      "type": "error"
    },
    {
      "inputs": [],
      "name": "FailedCall",
      "type": "error"
    },
    {
      "inputs": [],
      "name": "InvalidCredentialProof",
      "type": "error"
    },
    {
      "inputs": [
        {
          "internalType": "uint256",
          "name": "hashIndex",
          "type": "uint256"
        }
      ],
      "name": "InvalidHashIndex",
      "type": "error"
    },
    {
      "inputs": [
        {
          "internalType": "uint256",
          "name": "hashValue",
          "type": "uint256"
        }
      ],
      "name": "InvalidHashValue",
      "type": "error"
    },
    {
      "inputs": [],
      "name": "InvalidInitialization",
      "type": "error"
    },
    {
      "inputs": [
        {
          "internalType": "uint256",
          "name": "linkId1",
          "type": "uint256"
        },
        {
          "internalType": "uint256",
          "name": "linkId2",
          "type": "uint256"
        }
      ],
      "name": "InvalidLinkId",
      "type": "error"
    },
    {
      "inputs": [],
      "name": "InvalidPassportSignatureProof",
      "type": "error"
    },
    {
      "inputs": [
        {
          "internalType": "uint256",
          "name": "length",
          "type": "uint256"
        },
        {
          "internalType": "uint256",
          "name": "expectedLength",
          "type": "uint256"
        }
      ],
      "name": "InvalidResponsesLength",
      "type": "error"
    },
    {
      "inputs": [
        {
          "internalType": "address",
          "name": "signer",
          "type": "address"
        }
      ],
      "name": "InvalidSignerPassportSignatureProof",
      "type": "error"
    },
    {
      "inputs": [
        {
          "internalType": "uint256",
          "name": "templateRoot",
          "type": "uint256"
        },
        {
          "internalType": "uint256",
          "name": "expectedTemplateRoot",
          "type": "uint256"
        }
      ],
      "name": "InvalidTemplateRoot",
      "type": "error"
    },
    {
      "inputs": [
        {
          "internalType": "uint256",
          "name": "issuanceDate",
          "type": "uint256"
        }
      ],
      "name": "IssuanceDateExpired",
      "type": "error"
    },
    {
      "inputs": [
        {
          "internalType": "uint256",
          "name": "length1",
          "type": "uint256"
        },
        {
          "internalType": "uint256",
          "name": "length2",
          "type": "uint256"
        }
      ],
      "name": "LengthMismatch",
      "type": "error"
    },
    {
      "inputs": [
        {
          "internalType": "uint256",
          "name": "requestId",
          "type": "uint256"
        }
      ],
      "name": "NoCredentialCircuitForRequestId",
      "type": "error"
    },
    {
      "inputs": [],
      "name": "NoVerifierSet",
      "type": "error"
    },
    {
      "inputs": [],
      "name": "NotInitializing",
      "type": "error"
    },
    {
      "inputs": [
        {
          "internalType": "uint256",
          "name": "nullifier",
          "type": "uint256"
        }
      ],
      "name": "NullifierAlreadyExists",
      "type": "error"
    },
    {
      "inputs": [
        {
          "internalType": "address",
          "name": "owner",
          "type": "address"
        }
      ],
      "name": "OwnableInvalidOwner",
      "type": "error"
    },
    {
      "inputs": [
        {
          "internalType": "address",
          "name": "account",
          "type": "address"
        }
      ],
      "name": "OwnableUnauthorizedAccount",
      "type": "error"
    },
    {
      "inputs": [],
      "name": "UUPSUnauthorizedCallContext",
      "type": "error"
    },
    {
      "inputs": [
        {
          "internalType": "bytes32",
          "name": "slot",
          "type": "bytes32"
        }
      ],
      "name": "UUPSUnsupportedProxiableUUID",
      "type": "error"
    },
    {
      "anonymous": false,
      "inputs": [
        {
          "indexed": false,
          "internalType": "string",
          "name": "circuitId",
          "type": "string"
        },
        {
          "indexed": false,
          "internalType": "address",
          "name": "verifier",
          "type": "address"
        },
        {
          "indexed": false,
          "internalType": "uint256",
          "name": "requestId",
          "type": "uint256"
        }
      ],
      "name": "CredentialCircuitVerifierUpdated",
      "type": "event"
    },
    {
      "anonymous": false,
      "inputs": [],
      "name": "EIP712DomainChanged",
      "type": "event"
    },
    {
      "anonymous": false,
      "inputs": [
        {
          "indexed": false,
          "internalType": "uint256",
          "name": "expirationTime",
          "type": "uint256"
        }
      ],
      "name": "ExpirationTimeUpdated",
      "type": "event"
    },
    {
      "anonymous": false,
      "inputs": [
        {
          "indexed": false,
          "internalType": "uint64",
          "name": "version",
          "type": "uint64"
        }
      ],
      "name": "Initialized",
      "type": "event"
    },
    {
      "anonymous": false,
      "inputs": [
        {
          "indexed": true,
          "internalType": "address",
          "name": "previousOwner",
          "type": "address"
        },
        {
          "indexed": true,
          "internalType": "address",
          "name": "newOwner",
          "type": "address"
        }
      ],
      "name": "OwnershipTransferStarted",
      "type": "event"
    },
    {
      "anonymous": false,
      "inputs": [
        {
          "indexed": true,
          "internalType": "address",
          "name": "previousOwner",
          "type": "address"
        },
        {
          "indexed": true,
          "internalType": "address",
          "name": "newOwner",
          "type": "address"
        }
      ],
      "name": "OwnershipTransferred",
      "type": "event"
    },
    {
      "anonymous": false,
      "inputs": [
        {
          "indexed": false,
          "internalType": "address",
          "name": "signer",
          "type": "address"
        }
      ],
      "name": "SignerAdded",
      "type": "event"
    },
    {
      "anonymous": false,
      "inputs": [
        {
          "indexed": false,
          "internalType": "uint256",
          "name": "tampletRoot",
          "type": "uint256"
        }
      ],
      "name": "TemplateRootUpdated",
      "type": "event"
    },
    {
      "anonymous": false,
      "inputs": [
        {
          "indexed": true,
          "internalType": "address",
          "name": "implementation",
          "type": "address"
        }
      ],
      "name": "Upgraded",
      "type": "event"
    },
    {
      "inputs": [],
      "name": "DOMAIN_VERSION",
      "outputs": [
        {
          "internalType": "string",
          "name": "",
          "type": "string"
        }
      ],
      "stateMutability": "view",
      "type": "function"
    },
    {
      "inputs": [],
      "name": "PASSPORT_CREDENTIAL_MESSAGE_TYPEHASH",
      "outputs": [
        {
          "internalType": "bytes32",
          "name": "",
          "type": "bytes32"
        }
      ],
      "stateMutability": "view",
      "type": "function"
    },
    {
      "inputs": [],
      "name": "UPGRADE_INTERFACE_VERSION",
      "outputs": [
        {
          "internalType": "string",
          "name": "",
          "type": "string"
        }
      ],
      "stateMutability": "view",
      "type": "function"
    },
    {
      "inputs": [],
      "name": "VERSION",
      "outputs": [
        {
          "internalType": "string",
          "name": "",
          "type": "string"
        }
      ],
      "stateMutability": "view",
      "type": "function"
    },
    {
      "inputs": [],
      "name": "acceptOwnership",
      "outputs": [],
      "stateMutability": "nonpayable",
      "type": "function"
    },
    {
      "inputs": [
        {
          "internalType": "address[]",
          "name": "signers",
          "type": "address[]"
        }
      ],
      "name": "addSigners",
      "outputs": [],
      "stateMutability": "nonpayable",
      "type": "function"
    },
    {
      "inputs": [
        {
          "internalType": "uint256",
          "name": "nullifier",
          "type": "uint256"
        }
      ],
      "name": "cleanNullifier",
      "outputs": [],
      "stateMutability": "nonpayable",
      "type": "function"
    },
    {
      "inputs": [
        {
          "internalType": "string",
          "name": "circuitId",
          "type": "string"
        }
      ],
      "name": "credentialCircuitIdToRequestIds",
      "outputs": [
        {
          "internalType": "uint256",
          "name": "",
          "type": "uint256"
        }
      ],
      "stateMutability": "view",
      "type": "function"
    },
    {
      "inputs": [
        {
          "internalType": "uint256",
          "name": "requestId",
          "type": "uint256"
        }
      ],
      "name": "credentialRequestIdToCircuitIds",
      "outputs": [
        {
          "internalType": "string",
          "name": "",
          "type": "string"
        }
      ],
      "stateMutability": "view",
      "type": "function"
    },
    {
      "inputs": [
        {
          "internalType": "string",
          "name": "circuitId",
          "type": "string"
        }
      ],
      "name": "credentialVerifiers",
      "outputs": [
        {
          "internalType": "address",
          "name": "",
          "type": "address"
        }
      ],
      "stateMutability": "view",
      "type": "function"
    },
    {
      "inputs": [],
      "name": "eip712Domain",
      "outputs": [
        {
          "internalType": "bytes1",
          "name": "fields",
          "type": "bytes1"
        },
        {
          "internalType": "string",
          "name": "name",
          "type": "string"
        },
        {
          "internalType": "string",
          "name": "version",
          "type": "string"
        },
        {
          "internalType": "uint256",
          "name": "chainId",
          "type": "uint256"
        },
        {
          "internalType": "address",
          "name": "verifyingContract",
          "type": "address"
        },
        {
          "internalType": "bytes32",
          "name": "salt",
          "type": "bytes32"
        },
        {
          "internalType": "uint256[]",
          "name": "extensions",
          "type": "uint256[]"
        }
      ],
      "stateMutability": "view",
      "type": "function"
    },
    {
      "inputs": [
        {
          "internalType": "uint256",
          "name": "claimIndexHash",
          "type": "uint256"
        }
      ],
      "name": "getClaimProof",
      "outputs": [
        {
          "components": [
            {
              "internalType": "uint256",
              "name": "root",
              "type": "uint256"
            },
            {
              "internalType": "bool",
              "name": "existence",
              "type": "bool"
            },
            {
              "internalType": "uint256[]",
              "name": "siblings",
              "type": "uint256[]"
            },
            {
              "internalType": "uint256",
              "name": "index",
              "type": "uint256"
            },
            {
              "internalType": "uint256",
              "name": "value",
              "type": "uint256"
            },
            {
              "internalType": "bool",
              "name": "auxExistence",
              "type": "bool"
            },
            {
              "internalType": "uint256",
              "name": "auxIndex",
              "type": "uint256"
            },
            {
              "internalType": "uint256",
              "name": "auxValue",
              "type": "uint256"
            }
          ],
          "internalType": "struct SmtLib.Proof",
          "name": "",
          "type": "tuple"
        }
      ],
      "stateMutability": "view",
      "type": "function"
    },
    {
      "inputs": [
        {
          "internalType": "uint256",
          "name": "claimIndexHash",
          "type": "uint256"
        },
        {
          "internalType": "uint256",
          "name": "root",
          "type": "uint256"
        }
      ],
      "name": "getClaimProofByRoot",
      "outputs": [
        {
          "components": [
            {
              "internalType": "uint256",
              "name": "root",
              "type": "uint256"
            },
            {
              "internalType": "bool",
              "name": "existence",
              "type": "bool"
            },
            {
              "internalType": "uint256[]",
              "name": "siblings",
              "type": "uint256[]"
            },
            {
              "internalType": "uint256",
              "name": "index",
              "type": "uint256"
            },
            {
              "internalType": "uint256",
              "name": "value",
              "type": "uint256"
            },
            {
              "internalType": "bool",
              "name": "auxExistence",
              "type": "bool"
            },
            {
              "internalType": "uint256",
              "name": "auxIndex",
              "type": "uint256"
            },
            {
              "internalType": "uint256",
              "name": "auxValue",
              "type": "uint256"
            }
          ],
          "internalType": "struct SmtLib.Proof",
          "name": "",
          "type": "tuple"
        }
      ],
      "stateMutability": "view",
      "type": "function"
    },
    {
      "inputs": [
        {
          "internalType": "uint256",
          "name": "claimIndexHash",
          "type": "uint256"
        }
      ],
      "name": "getClaimProofWithStateInfo",
      "outputs": [
        {
          "components": [
            {
              "internalType": "uint256",
              "name": "root",
              "type": "uint256"
            },
            {
              "internalType": "bool",
              "name": "existence",
              "type": "bool"
            },
            {
              "internalType": "uint256[]",
              "name": "siblings",
              "type": "uint256[]"
            },
            {
              "internalType": "uint256",
              "name": "index",
              "type": "uint256"
            },
            {
              "internalType": "uint256",
              "name": "value",
              "type": "uint256"
            },
            {
              "internalType": "bool",
              "name": "auxExistence",
              "type": "bool"
            },
            {
              "internalType": "uint256",
              "name": "auxIndex",
              "type": "uint256"
            },
            {
              "internalType": "uint256",
              "name": "auxValue",
              "type": "uint256"
            }
          ],
          "internalType": "struct SmtLib.Proof",
          "name": "",
          "type": "tuple"
        },
        {
          "components": [
            {
              "internalType": "uint256",
              "name": "state",
              "type": "uint256"
            },
            {
              "internalType": "uint256",
              "name": "claimsRoot",
              "type": "uint256"
            },
            {
              "internalType": "uint256",
              "name": "revocationsRoot",
              "type": "uint256"
            },
            {
              "internalType": "uint256",
              "name": "rootsRoot",
              "type": "uint256"
            }
          ],
          "internalType": "struct IdentityLib.StateInfo",
          "name": "",
          "type": "tuple"
        }
      ],
      "stateMutability": "view",
      "type": "function"
    },
    {
      "inputs": [],
      "name": "getClaimsTreeRoot",
      "outputs": [
        {
          "internalType": "uint256",
          "name": "",
          "type": "uint256"
        }
      ],
      "stateMutability": "view",
      "type": "function"
    },
    {
      "inputs": [],
      "name": "getExpirationTime",
      "outputs": [
        {
          "internalType": "uint256",
          "name": "",
          "type": "uint256"
        }
      ],
      "stateMutability": "view",
      "type": "function"
    },
    {
      "inputs": [],
      "name": "getId",
      "outputs": [
        {
          "internalType": "uint256",
          "name": "",
          "type": "uint256"
        }
      ],
      "stateMutability": "view",
      "type": "function"
    },
    {
      "inputs": [],
      "name": "getIsOldStateGenesis",
      "outputs": [
        {
          "internalType": "bool",
          "name": "",
          "type": "bool"
        }
      ],
      "stateMutability": "view",
      "type": "function"
    },
    {
      "inputs": [],
      "name": "getLatestPublishedClaimsRoot",
      "outputs": [
        {
          "internalType": "uint256",
          "name": "",
          "type": "uint256"
        }
      ],
      "stateMutability": "view",
      "type": "function"
    },
    {
      "inputs": [],
      "name": "getLatestPublishedRevocationsRoot",
      "outputs": [
        {
          "internalType": "uint256",
          "name": "",
          "type": "uint256"
        }
      ],
      "stateMutability": "view",
      "type": "function"
    },
    {
      "inputs": [],
      "name": "getLatestPublishedRootsRoot",
      "outputs": [
        {
          "internalType": "uint256",
          "name": "",
          "type": "uint256"
        }
      ],
      "stateMutability": "view",
      "type": "function"
    },
    {
      "inputs": [],
      "name": "getLatestPublishedState",
      "outputs": [
        {
          "internalType": "uint256",
          "name": "",
          "type": "uint256"
        }
      ],
      "stateMutability": "view",
      "type": "function"
    },
    {
      "inputs": [
        {
          "internalType": "uint64",
          "name": "revocationNonce",
          "type": "uint64"
        }
      ],
      "name": "getRevocationProof",
      "outputs": [
        {
          "components": [
            {
              "internalType": "uint256",
              "name": "root",
              "type": "uint256"
            },
            {
              "internalType": "bool",
              "name": "existence",
              "type": "bool"
            },
            {
              "internalType": "uint256[]",
              "name": "siblings",
              "type": "uint256[]"
            },
            {
              "internalType": "uint256",
              "name": "index",
              "type": "uint256"
            },
            {
              "internalType": "uint256",
              "name": "value",
              "type": "uint256"
            },
            {
              "internalType": "bool",
              "name": "auxExistence",
              "type": "bool"
            },
            {
              "internalType": "uint256",
              "name": "auxIndex",
              "type": "uint256"
            },
            {
              "internalType": "uint256",
              "name": "auxValue",
              "type": "uint256"
            }
          ],
          "internalType": "struct SmtLib.Proof",
          "name": "",
          "type": "tuple"
        }
      ],
      "stateMutability": "view",
      "type": "function"
    },
    {
      "inputs": [
        {
          "internalType": "uint64",
          "name": "revocationNonce",
          "type": "uint64"
        },
        {
          "internalType": "uint256",
          "name": "root",
          "type": "uint256"
        }
      ],
      "name": "getRevocationProofByRoot",
      "outputs": [
        {
          "components": [
            {
              "internalType": "uint256",
              "name": "root",
              "type": "uint256"
            },
            {
              "internalType": "bool",
              "name": "existence",
              "type": "bool"
            },
            {
              "internalType": "uint256[]",
              "name": "siblings",
              "type": "uint256[]"
            },
            {
              "internalType": "uint256",
              "name": "index",
              "type": "uint256"
            },
            {
              "internalType": "uint256",
              "name": "value",
              "type": "uint256"
            },
            {
              "internalType": "bool",
              "name": "auxExistence",
              "type": "bool"
            },
            {
              "internalType": "uint256",
              "name": "auxIndex",
              "type": "uint256"
            },
            {
              "internalType": "uint256",
              "name": "auxValue",
              "type": "uint256"
            }
          ],
          "internalType": "struct SmtLib.Proof",
          "name": "",
          "type": "tuple"
        }
      ],
      "stateMutability": "view",
      "type": "function"
    },
    {
      "inputs": [
        {
          "internalType": "uint64",
          "name": "revocationNonce",
          "type": "uint64"
        }
      ],
      "name": "getRevocationProofWithStateInfo",
      "outputs": [
        {
          "components": [
            {
              "internalType": "uint256",
              "name": "root",
              "type": "uint256"
            },
            {
              "internalType": "bool",
              "name": "existence",
              "type": "bool"
            },
            {
              "internalType": "uint256[]",
              "name": "siblings",
              "type": "uint256[]"
            },
            {
              "internalType": "uint256",
              "name": "index",
              "type": "uint256"
            },
            {
              "internalType": "uint256",
              "name": "value",
              "type": "uint256"
            },
            {
              "internalType": "bool",
              "name": "auxExistence",
              "type": "bool"
            },
            {
              "internalType": "uint256",
              "name": "auxIndex",
              "type": "uint256"
            },
            {
              "internalType": "uint256",
              "name": "auxValue",
              "type": "uint256"
            }
          ],
          "internalType": "struct SmtLib.Proof",
          "name": "",
          "type": "tuple"
        },
        {
          "components": [
            {
              "internalType": "uint256",
              "name": "state",
              "type": "uint256"
            },
            {
              "internalType": "uint256",
              "name": "claimsRoot",
              "type": "uint256"
            },
            {
              "internalType": "uint256",
              "name": "revocationsRoot",
              "type": "uint256"
            },
            {
              "internalType": "uint256",
              "name": "rootsRoot",
              "type": "uint256"
            }
          ],
          "internalType": "struct IdentityLib.StateInfo",
          "name": "",
          "type": "tuple"
        }
      ],
      "stateMutability": "view",
      "type": "function"
    },
    {
      "inputs": [
        {
          "internalType": "uint256",
          "name": "id",
          "type": "uint256"
        },
        {
          "internalType": "uint64",
          "name": "nonce",
          "type": "uint64"
        }
      ],
      "name": "getRevocationStatus",
      "outputs": [
        {
          "components": [
            {
              "components": [
                {
                  "internalType": "uint256",
                  "name": "state",
                  "type": "uint256"
                },
                {
                  "internalType": "uint256",
                  "name": "claimsTreeRoot",
                  "type": "uint256"
                },
                {
                  "internalType": "uint256",
                  "name": "revocationTreeRoot",
                  "type": "uint256"
                },
                {
                  "internalType": "uint256",
                  "name": "rootOfRoots",
                  "type": "uint256"
                }
              ],
              "internalType": "struct IOnchainCredentialStatusResolver.IdentityStateRoots",
              "name": "issuer",
              "type": "tuple"
            },
            {
              "components": [
                {
                  "internalType": "uint256",
                  "name": "root",
                  "type": "uint256"
                },
                {
                  "internalType": "bool",
                  "name": "existence",
                  "type": "bool"
                },
                {
                  "internalType": "uint256[]",
                  "name": "siblings",
                  "type": "uint256[]"
                },
                {
                  "internalType": "uint256",
                  "name": "index",
                  "type": "uint256"
                },
                {
                  "internalType": "uint256",
                  "name": "value",
                  "type": "uint256"
                },
                {
                  "internalType": "bool",
                  "name": "auxExistence",
                  "type": "bool"
                },
                {
                  "internalType": "uint256",
                  "name": "auxIndex",
                  "type": "uint256"
                },
                {
                  "internalType": "uint256",
                  "name": "auxValue",
                  "type": "uint256"
                }
              ],
              "internalType": "struct IOnchainCredentialStatusResolver.Proof",
              "name": "mtp",
              "type": "tuple"
            }
          ],
          "internalType": "struct IOnchainCredentialStatusResolver.CredentialStatus",
          "name": "",
          "type": "tuple"
        }
      ],
      "stateMutability": "view",
      "type": "function"
    },
    {
      "inputs": [
        {
          "internalType": "uint256",
          "name": "id",
          "type": "uint256"
        },
        {
          "internalType": "uint256",
          "name": "state",
          "type": "uint256"
        },
        {
          "internalType": "uint64",
          "name": "nonce",
          "type": "uint64"
        }
      ],
      "name": "getRevocationStatusByIdAndState",
      "outputs": [
        {
          "components": [
            {
              "components": [
                {
                  "internalType": "uint256",
                  "name": "state",
                  "type": "uint256"
                },
                {
                  "internalType": "uint256",
                  "name": "claimsTreeRoot",
                  "type": "uint256"
                },
                {
                  "internalType": "uint256",
                  "name": "revocationTreeRoot",
                  "type": "uint256"
                },
                {
                  "internalType": "uint256",
                  "name": "rootOfRoots",
                  "type": "uint256"
                }
              ],
              "internalType": "struct IOnchainCredentialStatusResolver.IdentityStateRoots",
              "name": "issuer",
              "type": "tuple"
            },
            {
              "components": [
                {
                  "internalType": "uint256",
                  "name": "root",
                  "type": "uint256"
                },
                {
                  "internalType": "bool",
                  "name": "existence",
                  "type": "bool"
                },
                {
                  "internalType": "uint256[]",
                  "name": "siblings",
                  "type": "uint256[]"
                },
                {
                  "internalType": "uint256",
                  "name": "index",
                  "type": "uint256"
                },
                {
                  "internalType": "uint256",
                  "name": "value",
                  "type": "uint256"
                },
                {
                  "internalType": "bool",
                  "name": "auxExistence",
                  "type": "bool"
                },
                {
                  "internalType": "uint256",
                  "name": "auxIndex",
                  "type": "uint256"
                },
                {
                  "internalType": "uint256",
                  "name": "auxValue",
                  "type": "uint256"
                }
              ],
              "internalType": "struct IOnchainCredentialStatusResolver.Proof",
              "name": "mtp",
              "type": "tuple"
            }
          ],
          "internalType": "struct IOnchainCredentialStatusResolver.CredentialStatus",
          "name": "",
          "type": "tuple"
        }
      ],
      "stateMutability": "view",
      "type": "function"
    },
    {
      "inputs": [],
      "name": "getRevocationsTreeRoot",
      "outputs": [
        {
          "internalType": "uint256",
          "name": "",
          "type": "uint256"
        }
      ],
      "stateMutability": "view",
      "type": "function"
    },
    {
      "inputs": [
        {
          "internalType": "uint256",
          "name": "rootsTreeRoot",
          "type": "uint256"
        }
      ],
      "name": "getRootProof",
      "outputs": [
        {
          "components": [
            {
              "internalType": "uint256",
              "name": "root",
              "type": "uint256"
            },
            {
              "internalType": "bool",
              "name": "existence",
              "type": "bool"
            },
            {
              "internalType": "uint256[]",
              "name": "siblings",
              "type": "uint256[]"
            },
            {
              "internalType": "uint256",
              "name": "index",
              "type": "uint256"
            },
            {
              "internalType": "uint256",
              "name": "value",
              "type": "uint256"
            },
            {
              "internalType": "bool",
              "name": "auxExistence",
              "type": "bool"
            },
            {
              "internalType": "uint256",
              "name": "auxIndex",
              "type": "uint256"
            },
            {
              "internalType": "uint256",
              "name": "auxValue",
              "type": "uint256"
            }
          ],
          "internalType": "struct SmtLib.Proof",
          "name": "",
          "type": "tuple"
        }
      ],
      "stateMutability": "view",
      "type": "function"
    },
    {
      "inputs": [
        {
          "internalType": "uint256",
          "name": "claimsTreeRoot",
          "type": "uint256"
        },
        {
          "internalType": "uint256",
          "name": "root",
          "type": "uint256"
        }
      ],
      "name": "getRootProofByRoot",
      "outputs": [
        {
          "components": [
            {
              "internalType": "uint256",
              "name": "root",
              "type": "uint256"
            },
            {
              "internalType": "bool",
              "name": "existence",
              "type": "bool"
            },
            {
              "internalType": "uint256[]",
              "name": "siblings",
              "type": "uint256[]"
            },
            {
              "internalType": "uint256",
              "name": "index",
              "type": "uint256"
            },
            {
              "internalType": "uint256",
              "name": "value",
              "type": "uint256"
            },
            {
              "internalType": "bool",
              "name": "auxExistence",
              "type": "bool"
            },
            {
              "internalType": "uint256",
              "name": "auxIndex",
              "type": "uint256"
            },
            {
              "internalType": "uint256",
              "name": "auxValue",
              "type": "uint256"
            }
          ],
          "internalType": "struct SmtLib.Proof",
          "name": "",
          "type": "tuple"
        }
      ],
      "stateMutability": "view",
      "type": "function"
    },
    {
      "inputs": [
        {
          "internalType": "uint256",
          "name": "rootsTreeRoot",
          "type": "uint256"
        }
      ],
      "name": "getRootProofWithStateInfo",
      "outputs": [
        {
          "components": [
            {
              "internalType": "uint256",
              "name": "root",
              "type": "uint256"
            },
            {
              "internalType": "bool",
              "name": "existence",
              "type": "bool"
            },
            {
              "internalType": "uint256[]",
              "name": "siblings",
              "type": "uint256[]"
            },
            {
              "internalType": "uint256",
              "name": "index",
              "type": "uint256"
            },
            {
              "internalType": "uint256",
              "name": "value",
              "type": "uint256"
            },
            {
              "internalType": "bool",
              "name": "auxExistence",
              "type": "bool"
            },
            {
              "internalType": "uint256",
              "name": "auxIndex",
              "type": "uint256"
            },
            {
              "internalType": "uint256",
              "name": "auxValue",
              "type": "uint256"
            }
          ],
          "internalType": "struct SmtLib.Proof",
          "name": "",
          "type": "tuple"
        },
        {
          "components": [
            {
              "internalType": "uint256",
              "name": "state",
              "type": "uint256"
            },
            {
              "internalType": "uint256",
              "name": "claimsRoot",
              "type": "uint256"
            },
            {
              "internalType": "uint256",
              "name": "revocationsRoot",
              "type": "uint256"
            },
            {
              "internalType": "uint256",
              "name": "rootsRoot",
              "type": "uint256"
            }
          ],
          "internalType": "struct IdentityLib.StateInfo",
          "name": "",
          "type": "tuple"
        }
      ],
      "stateMutability": "view",
      "type": "function"
    },
    {
      "inputs": [
        {
          "internalType": "uint256",
          "name": "state",
          "type": "uint256"
        }
      ],
      "name": "getRootsByState",
      "outputs": [
        {
          "components": [
            {
              "internalType": "uint256",
              "name": "claimsRoot",
              "type": "uint256"
            },
            {
              "internalType": "uint256",
              "name": "revocationsRoot",
              "type": "uint256"
            },
            {
              "internalType": "uint256",
              "name": "rootsRoot",
              "type": "uint256"
            }
          ],
          "internalType": "struct IdentityLib.Roots",
          "name": "",
          "type": "tuple"
        }
      ],
      "stateMutability": "view",
      "type": "function"
    },
    {
      "inputs": [],
      "name": "getRootsTreeRoot",
      "outputs": [
        {
          "internalType": "uint256",
          "name": "",
          "type": "uint256"
        }
      ],
      "stateMutability": "view",
      "type": "function"
    },
    {
      "inputs": [],
      "name": "getSigners",
      "outputs": [
        {
          "internalType": "address[]",
          "name": "",
          "type": "address[]"
        }
      ],
      "stateMutability": "view",
      "type": "function"
    },
    {
      "inputs": [],
      "name": "getSmtDepth",
      "outputs": [
        {
          "internalType": "uint256",
          "name": "",
          "type": "uint256"
        }
      ],
      "stateMutability": "pure",
      "type": "function"
    },
    {
      "inputs": [],
      "name": "getTemplateRoot",
      "outputs": [
        {
          "internalType": "uint256",
          "name": "",
          "type": "uint256"
        }
      ],
      "stateMutability": "view",
      "type": "function"
    },
    {
      "inputs": [
        {
          "internalType": "address",
          "name": "_stateContractAddr",
          "type": "address"
        },
        {
          "internalType": "bytes2",
          "name": "idType",
          "type": "bytes2"
        }
      ],
      "name": "initialize",
      "outputs": [],
      "stateMutability": "nonpayable",
      "type": "function"
    },
    {
      "inputs": [
        {
          "internalType": "uint256",
          "name": "expirationTime",
          "type": "uint256"
        },
        {
          "internalType": "uint256",
          "name": "templateRoot",
          "type": "uint256"
        },
        {
          "internalType": "string[]",
          "name": "credentialCircuitIds",
          "type": "string[]"
        },
        {
          "internalType": "address[]",
          "name": "credentialVerifierAddresses",
          "type": "address[]"
        },
        {
          "internalType": "address[]",
          "name": "signers",
          "type": "address[]"
        },
        {
          "internalType": "address",
          "name": "stateAddress",
          "type": "address"
        },
        {
          "internalType": "bytes2",
          "name": "idType",
          "type": "bytes2"
        }
      ],
      "name": "initializeIssuer",
      "outputs": [],
      "stateMutability": "nonpayable",
      "type": "function"
    },
    {
      "inputs": [
        {
          "internalType": "uint256",
          "name": "nullifier",
          "type": "uint256"
        }
      ],
      "name": "nullifierExists",
      "outputs": [
        {
          "internalType": "bool",
          "name": "",
          "type": "bool"
        }
      ],
      "stateMutability": "view",
      "type": "function"
    },
    {
      "inputs": [],
      "name": "owner",
      "outputs": [
        {
          "internalType": "address",
          "name": "",
          "type": "address"
        }
      ],
      "stateMutability": "view",
      "type": "function"
    },
    {
      "inputs": [],
      "name": "pendingOwner",
      "outputs": [
        {
          "internalType": "address",
          "name": "",
          "type": "address"
        }
      ],
      "stateMutability": "view",
      "type": "function"
    },
    {
      "inputs": [],
      "name": "proxiableUUID",
      "outputs": [
        {
          "internalType": "bytes32",
          "name": "",
          "type": "bytes32"
        }
      ],
      "stateMutability": "view",
      "type": "function"
    },
    {
      "inputs": [],
      "name": "renounceOwnership",
      "outputs": [],
      "stateMutability": "nonpayable",
      "type": "function"
    },
    {
      "inputs": [
        {
          "internalType": "uint256",
          "name": "expirationTime",
          "type": "uint256"
        }
      ],
      "name": "setExpirationTime",
      "outputs": [],
      "stateMutability": "nonpayable",
      "type": "function"
    },
    {
      "inputs": [
        {
          "internalType": "uint256",
          "name": "templateRoot",
          "type": "uint256"
        }
      ],
      "name": "setTemplateRoot",
      "outputs": [],
      "stateMutability": "nonpayable",
      "type": "function"
    },
    {
      "inputs": [
        {
          "components": [
            {
              "internalType": "uint64",
              "name": "requestId",
              "type": "uint64"
            },
            {
              "internalType": "bytes",
              "name": "zkProof",
              "type": "bytes"
            },
            {
              "internalType": "bytes",
              "name": "data",
              "type": "bytes"
            }
          ],
          "internalType": "struct IZKPVerifier.ZKPResponse[]",
          "name": "responses",
          "type": "tuple[]"
        },
        {
          "internalType": "bytes",
          "name": "crossChainProofs",
          "type": "bytes"
        }
      ],
      "name": "submitZKPResponseV2",
      "outputs": [],
      "stateMutability": "nonpayable",
      "type": "function"
    },
    {
      "inputs": [
        {
          "internalType": "bytes4",
          "name": "interfaceId",
          "type": "bytes4"
        }
      ],
      "name": "supportsInterface",
      "outputs": [
        {
          "internalType": "bool",
          "name": "",
          "type": "bool"
        }
      ],
      "stateMutability": "view",
      "type": "function"
    },
    {
      "inputs": [
        {
          "internalType": "address",
          "name": "newOwner",
          "type": "address"
        }
      ],
      "name": "transferOwnership",
      "outputs": [],
      "stateMutability": "nonpayable",
      "type": "function"
    },
    {
      "inputs": [
        {
          "internalType": "string[]",
          "name": "circuitIds",
          "type": "string[]"
        },
        {
          "internalType": "address[]",
          "name": "verifierAddresses",
          "type": "address[]"
        }
      ],
      "name": "updateCredentialVerifiers",
      "outputs": [],
      "stateMutability": "nonpayable",
      "type": "function"
    },
    {
      "inputs": [
        {
          "internalType": "address",
          "name": "newImplementation",
          "type": "address"
        },
        {
          "internalType": "bytes",
          "name": "data",
          "type": "bytes"
        }
      ],
      "name": "upgradeToAndCall",
      "outputs": [],
      "stateMutability": "payable",
      "type": "function"
    }
  ],
  "bytecode": "0x60a06040523060805234801561001457600080fd5b5061001d610022565b6100d4565b7ff0c57e16840df040f15088dc2f81fe391c3923bec73e23a9662efc9c229c6a00805468010000000000000000900460ff16156100725760405163f92ee8a960e01b815260040160405180910390fd5b80546001600160401b03908116146100d15780546001600160401b0319166001600160401b0390811782556040519081527fc7f505b2f371ae2175ee4913f4499e1f2633a7b5936321eed1cdaeb6115181d29060200160405180910390a15b50565b6080516141066100fd60003960008181611fab01528181611fd4015261214501526141066000f3fe6080604052600436106102c85760003560e01c8063a635c78511610175578063c6365a3b116100dc578063e23a845a11610095578063e8906a2d1161006f578063e8906a2d146108a7578063f2fde38b146108c7578063f84c7c1e146108e7578063ffa1ad74146108fc57600080fd5b8063e23a845a1461085d578063e26ecb0b14610872578063e30c39781461089257600080fd5b8063c6365a3b1461079f578063cfa350c8146107b4578063d622ea6e146107d4578063d94b0271146107f4578063da68a0b114610814578063da9365401461082957600080fd5b8063b37feda41161012e578063b37feda4146106bd578063b57a40cb146106dd578063b8db6871146106fd578063badf055d1461073f578063c0cc365d1461075f578063c1e327331461077f57600080fd5b8063a635c785146105ce578063aad72921146105ee578063acb8cc491461060e578063ad3cb1cc1461064c578063ade09fcd1461067d578063b354c2d81461069d57600080fd5b80633f0c6648116102345780635d1ca631116101ed57806384b0196e116101c757806384b0196e146105425780638da5cb5b1461056a57806394cf795e146105975780639674cfa4146105b957600080fd5b80635d1ca63114610503578063715018a61461051857806379ba50971461052d57600080fd5b80633f0c664814610472578063406e8b4c14610486578063443d7534146104a65780634f1ef286146104c6578063523b8136146104d957806352d1902d146104ee57600080fd5b80632c1d3204116102865780632c1d3204146103d15780632d5c4f25146103e6578063310d0d5b1461040657806338b87751146104265780633d59ec60146104485780633df432fc1461045d57600080fd5b806233058d146102cd57806301c85c771461030457806301ffc9a714610327578063110c96a71461035757806326485063146103845780632afab62f146103b1575b600080fd5b3480156102d957600080fd5b506102ed6102e8366004612eec565b61092d565b6040516102fb929190612fa9565b60405180910390f35b34801561031057600080fd5b506103196109fa565b6040519081526020016102fb565b34801561033357600080fd5b50610347610342366004612fec565b610a7f565b60405190151581526020016102fb565b34801561036357600080fd5b50610377610372366004613016565b610ab6565b6040516102fb9190613042565b34801561039057600080fd5b506103a461039f366004612eec565b610ae1565b6040516102fb919061308f565b3480156103bd57600080fd5b506103476103cc3660046130a2565b610b7a565b3480156103dd57600080fd5b50610319610b9b565b3480156103f257600080fd5b506103a46104013660046130bb565b610bb6565b34801561041257600080fd5b506103a46104213660046130bb565b610c55565b34801561043257600080fd5b50610446610441366004613150565b610cac565b005b34801561045457600080fd5b50610319610e5b565b34801561046957600080fd5b50610319610e6e565b34801561047e57600080fd5b506028610319565b34801561049257600080fd5b506104466104a1366004613227565b610eb1565b3480156104b257600080fd5b506102ed6104c13660046130a2565b610f4e565b6104466104d4366004613389565b610fc9565b3480156104e557600080fd5b50610319610fe8565b3480156104fa57600080fd5b50610319610ffb565b34801561050f57600080fd5b50610319611018565b34801561052457600080fd5b50610446611028565b34801561053957600080fd5b5061044661103c565b34801561054e57600080fd5b50610557611089565b6040516102fb9796959493929190613426565b34801561057657600080fd5b5061057f611135565b6040516001600160a01b0390911681526020016102fb565b3480156105a357600080fd5b506105ac61116a565b6040516102fb91906134be565b3480156105c557600080fd5b50610319611187565b3480156105da57600080fd5b5061057f6105e936600461350a565b61119a565b3480156105fa57600080fd5b50610377610609366004613552565b6111de565b34801561061a57600080fd5b5061063f604051806040016040528060058152602001640312e302e360dc1b81525081565b6040516102fb9190613587565b34801561065857600080fd5b5061063f604051806040016040528060058152602001640352e302e360dc1b81525081565b34801561068957600080fd5b506104466106983660046135bd565b6113f7565b3480156106a957600080fd5b506104466106b83660046130a2565b6116be565b3480156106c957600080fd5b506102ed6106d83660046130a2565b611712565b3480156106e957600080fd5b506103a46106f83660046130a2565b61178d565b34801561070957600080fd5b5061071d6107183660046130a2565b6117db565b60408051825181526020808401519082015291810151908201526060016102fb565b34801561074b57600080fd5b5061044661075a366004613700565b611883565b34801561076b57600080fd5b5061044661077a3660046130a2565b611ae5565b34801561078b57600080fd5b506103a461079a3660046130a2565b611b2f565b3480156107ab57600080fd5b50610319611b7f565b3480156107c057600080fd5b506103196107cf36600461350a565b611b92565b3480156107e057600080fd5b5061063f6107ef3660046130a2565b611bcb565b34801561080057600080fd5b5061044661080f3660046130a2565b611c7f565b34801561082057600080fd5b50610319611d0d565b34801561083557600080fd5b506103197f0d2a15c3140485b6db2a8c0f755486294daaae1eabcdd518f6beaf8e4ab4d83481565b34801561086957600080fd5b50610319611d50565b34801561087e57600080fd5b506103a461088d36600461376f565b611d68565b34801561089e57600080fd5b5061057f611dc7565b3480156108b357600080fd5b506104466108c2366004613799565b611df0565b3480156108d357600080fd5b506104466108e23660046137da565b611ebd565b3480156108f357600080fd5b50610347611f42565b34801561090857600080fd5b5061063f60405180604001604052806005815260200164312e302e3160d81b81525081565b610935612e00565b6109606040518060800160405280600081526020016000815260200160008152602001600081525090565b610968611f58565b604051631f17004d60e31b815260048101919091526001600160401b038416602482015273__$068aad146bf104111ba65c4a1de2cd0e23$__9063f8b80268906044015b600060405180830381865af41580156109c9573d6000803e3d6000fd5b505050506040513d6000823e601f3d908101601f191682016040526109f1919081019061390b565b91509150915091565b6000610a04611f58565b60405163765c2c6160e01b8152600481019190915273__$068aad146bf104111ba65c4a1de2cd0e23$__9063765c2c61906024015b602060405180830381865af4158015610a56573d6000803e3d6000fd5b505050506040513d601f19601f82011682018060405250810190610a7a91906139af565b905090565b60006001600160e01b03198216635d1ca63160e01b1480610ab057506301ffc9a760e01b6001600160e01b03198316145b92915050565b610abe612e49565b6000610ac8611f58565b600101549050610ad98482856111de565b949350505050565b610ae9612e00565b610af1611f58565b604051637d0aba4f60e01b815260048101919091526001600160401b038316602482015273__$068aad146bf104111ba65c4a1de2cd0e23$__90637d0aba4f906044015b600060405180830381865af4158015610b52573d6000803e3d6000fd5b505050506040513d6000823e601f3d908101601f19168201604052610ab091908101906139c8565b6000610b84611f7c565b600092835260020160205250604090205460ff1690565b6000610ba5611fa0565b610bad611f7c565b60010154905090565b610bbe612e00565b610bc6611f58565b60405163d55da6a360e01b81526004810191909152602481018490526044810183905273__$068aad146bf104111ba65c4a1de2cd0e23$__9063d55da6a3906064015b600060405180830381865af4158015610c26573d6000803e3d6000fd5b505050506040513d6000823e601f3d908101601f19168201604052610c4e91908101906139c8565b9392505050565b610c5d612e00565b610c65611f58565b604051636ac0c5c760e11b81526004810191909152602481018490526044810183905273__$068aad146bf104111ba65c4a1de2cd0e23$__9063d5818b8e90606401610c09565b7ff0c57e16840df040f15088dc2f81fe391c3923bec73e23a9662efc9c229c6a008054600160401b810460ff1615906001600160401b0316600081158015610cf15750825b90506000826001600160401b03166001148015610d0d5750303b155b905081158015610d1b575080155b15610d395760405163f92ee8a960e01b815260040160405180910390fd5b845467ffffffffffffffff191660011785558315610d6357845460ff60401b1916600160401b1785555b610d6d8787610eb1565b610d7633612045565b6000610d80611f7c565b90508f81600001819055508e816001018190555060018160060181905550610ded6040518060400160405280601081526020016f50617373706f7274497373756572563160801b815250604051806040016040528060058152602001640312e302e360dc1b815250612056565b610df78a8a611df0565b610e038e8e8e8e611883565b508315610e4a57845460ff60401b19168555604051600181527fc7f505b2f371ae2175ee4913f4499e1f2633a7b5936321eed1cdaeb6115181d29060200160405180910390a15b505050505050505050505050505050565b6000610e65611f58565b60010154919050565b6000610e78611f58565b604051631b8bf99b60e21b8152600481019190915273__$068aad146bf104111ba65c4a1de2cd0e23$__90636e2fe66c90602401610a39565b610eb9611f58565b6040516359a6069160e01b815260048101919091526001600160a01b0383166024820152306044820152602860648201526001600160f01b03198216608482015273__$068aad146bf104111ba65c4a1de2cd0e23$__906359a606919060a4015b60006040518083038186803b158015610f3257600080fd5b505af4158015610f46573d6000803e3d6000fd5b505050505050565b610f56612e00565b610f816040518060800160405280600081526020016000815260200160008152602001600081525090565b610f89611f58565b60405163a3018d7960e01b815260048101919091526024810184905273__$068aad146bf104111ba65c4a1de2cd0e23$__9063a3018d79906044016109ac565b610fd1611fa0565b610fda82612068565b610fe48282612078565b5050565b6000610ff2611f58565b609a0154919050565b600061100561213a565b506000805160206140b183398151915290565b6000611022611f58565b54919050565b611030612183565b61103a60006121b5565b565b3380611046611dc7565b6001600160a01b03161461107d5760405163118cdaa760e01b81526001600160a01b03821660048201526024015b60405180910390fd5b611086816121b5565b50565b6000606080828080838160008051602061409183398151915280549091501580156110b657506001810154155b6110fa5760405162461bcd60e51b81526020600482015260156024820152741152540dcc4c8e88155b9a5b9a5d1a585b1a5e9959605a1b6044820152606401611074565b6111026121ed565b61110a6122b0565b60408051600080825260208201909252600f60f81b9c939b5091995046985030975095509350915050565b6000807f9016d09d72d40fdae2fd8ceac6b6234c7706214fd39c1cd1e609a0528c1993005b546001600160a01b031692915050565b6060611174611fa0565b610a7a61117f611f7c565b6007016122ef565b6000611191611f58565b609b0154919050565b60006111a4611fa0565b6111ac611f7c565b600301826040516111bd91906139fc565b908152604051908190036020019020546001600160a01b031690505b919050565b6111e6612e49565b6111ee611f58565b5484146112345760405162461bcd60e51b8152602060048201526014602482015273092c8cadce8d2e8f240d2c840dad2e6dac2e8c6d60631b6044820152606401611074565b600061123e611f58565b604051630b1a9cd360e01b815260048101919091526024810185905273__$068aad146bf104111ba65c4a1de2cd0e23$__90630b1a9cd390604401606060405180830381865af4158015611296573d6000803e3d6000fd5b505050506040513d601f19601f820116820180604052508101906112ba9190613a18565b6040805160808101825286815282516020808301919091528301518183015290820151606082015290915060006112ef611f58565b6020840151604051630b2bcd1b60e11b815260048101929092526001600160401b0387166024830152604482015273__$068aad146bf104111ba65c4a1de2cd0e23$__906316579a3690606401600060405180830381865af4158015611359573d6000803e3d6000fd5b505050506040513d6000823e601f3d908101601f1916820160405261138191908101906139c8565b6040805161010081018252825181526020808401511515818301528284015182840152606080850151908301526080808501519083015260a08085015115159083015260c0808501519083015260e093840151938201939093528151808301909252938152908101929092525095945050505050565b6000611401611f7c565b90508251600114611432578251604051630264a11560e21b8152600481019190915260016024820152604401611074565b60608160040160008560008151811061144d5761144d613a55565b6020026020010151600001516001600160401b03168152602001908152602001600020805461147b90613a6b565b80601f01602080910402602001604051908101604052809291908181526020018280546114a790613a6b565b80156114f45780601f106114c9576101008083540402835291602001916114f4565b820191906000526020600020905b8154815290600101906020018083116114d757829003601f168201915b505050505090508051600003611548578360008151811061151757611517613a55565b60209081029190910101515160405163ea99bbcd60e01b81526001600160401b039091166004820152602401611074565b6000806000808760008151811061156157611561613a55565b6020026020010151602001518060200190518101906115809190613aec565b9350935093509350600060405180608001604052808581526020018481526020018381526020016040518060c00160405280886000815181106115c5576115c5613a55565b60200260200101518152602001886001815181106115e5576115e5613a55565b602002602001015181526020018860028151811061160557611605613a55565b602002602001015181526020018860038151811061162557611625613a55565b602002602001015181526020018860048151811061164557611645613a55565b602002602001015181526020018860058151811061166557611665613a55565b6020026020010151815250815250905060008880602001905181019061168b9190613ba6565b90506116b28783836000815181106116a5576116a5613a55565b60200260200101516122fc565b50505050505050505050565b6116c6611fa0565b6116ce612183565b806116d7611f7c565b600101556040518181527ff007a02ba428e63fa98b65269e70f9a9db847e0a839049a2f31f069282267734906020015b60405180910390a150565b61171a612e00565b6117456040518060800160405280600081526020016000815260200160008152602001600081525090565b61174d611f58565b604051636ad1d8a760e11b815260048101919091526024810184905273__$068aad146bf104111ba65c4a1de2cd0e23$__9063d5a3b14e906044016109ac565b611795612e00565b61179d611f58565b604051620cf08960e41b815260048101919091526024810183905273__$068aad146bf104111ba65c4a1de2cd0e23$__9062cf089090604401610b35565b6117ff60405180606001604052806000815260200160008152602001600081525090565b611807611f58565b604051630b1a9cd360e01b815260048101919091526024810183905273__$068aad146bf104111ba65c4a1de2cd0e23$__90630b1a9cd390604401606060405180830381865af415801561185f573d6000803e3d6000fd5b505050506040513d601f19601f82011682018060405250810190610ab09190613a18565b61188b611fa0565b611893612183565b600061189d611f7c565b90508382146118c9576040516355c5b3e360e11b81526004810185905260248101839052604401611074565b60005b84811015610f46578383828181106118e6576118e6613a55565b90506020020160208101906118fb91906137da565b8260030187878481811061191157611911613a55565b90506020028101906119239190613d0b565b604051611931929190613d51565b90815260405190819003602001902080546001600160a01b03929092166001600160a01b031990921691909117905560006005830187878481811061197857611978613a55565b905060200281019061198a9190613d0b565b604051611998929190613d51565b908152602001604051809103902054905080600003611a575750600682015480600584018888858181106119ce576119ce613a55565b90506020028101906119e09190613d0b565b6040516119ee929190613d51565b90815260405190819003602001902055868683818110611a1057611a10613a55565b9050602002810190611a229190613d0b565b6000838152600486016020526040902091611a3e919083613daf565b50600683018054906000611a5183613e84565b91905055505b7f17b20bbf8df0ff1422db2abe4b28c298e32929a2d112f027c3f68d488cf3cf74878784818110611a8a57611a8a613a55565b9050602002810190611a9c9190613d0b565b878786818110611aae57611aae613a55565b9050602002016020810190611ac391906137da565b84604051611ad49493929190613e9d565b60405180910390a1506001016118cc565b611aed611fa0565b611af5612183565b80611afe611f7c565b556040518181527f7f7f3071c3c286700c199acae2fe071beb4a63dae1afff85186fa75d18090ae890602001611707565b611b37612e00565b611b3f611f58565b6040516397ac539160e01b815260048101919091526024810183905273__$068aad146bf104111ba65c4a1de2cd0e23$__906397ac539190604401610b35565b6000611b89611f58565b609c0154919050565b6000611b9c611fa0565b611ba4611f7c565b60050182604051611bb591906139fc565b9081526020016040518091039020549050919050565b6060611bd5611fa0565b611bdd611f7c565b6000838152600491909101602052604090208054611bfa90613a6b565b80601f0160208091040260200160405190810160405280929190818152602001828054611c2690613a6b565b8015611c735780601f10611c4857610100808354040283529160200191611c73565b820191906000526020600020905b815481529060010190602001808311611c5657829003601f168201915b50505050509050919050565b611c87612183565b6000611c91611f7c565b600083815260028201602052604090205490915060ff16611cf45760405162461bcd60e51b815260206004820152601860248201527f4e756c6c696669657220646f6573206e6f7420657869737400000000000000006044820152606401611074565b600091825260020160205260409020805460ff19169055565b6000611d17611f58565b604051631e75e7f360e01b8152600481019190915273__$068aad146bf104111ba65c4a1de2cd0e23$__90631e75e7f390602401610a39565b6000611d5a611fa0565b611d62611f7c565b54905090565b611d70612e00565b611d78611f58565b604051630b2bcd1b60e11b815260048101919091526001600160401b03841660248201526044810183905273__$068aad146bf104111ba65c4a1de2cd0e23$__906316579a3690606401610c09565b6000807f237e158222e3e6968b72b9db0d8043aacf074ad9f650f0d1606b4d82ee432c0061115a565b611df8611fa0565b611e00612183565b6000611e0a611f7c565b905060005b82811015611eb757611e4b848483818110611e2c57611e2c613a55565b9050602002016020810190611e4191906137da565b6007840190612319565b507f47d1c22a25bb3a5d4e481b9b1e6944c2eade3181a0a20b495ed61d35b5323f24848483818110611e7f57611e7f613a55565b9050602002016020810190611e9491906137da565b6040516001600160a01b03909116815260200160405180910390a1600101611e0f565b50505050565b611ec5612183565b7f237e158222e3e6968b72b9db0d8043aacf074ad9f650f0d1606b4d82ee432c0080546001600160a01b0319166001600160a01b0383169081178255611f09611135565b6001600160a01b03167f38d16b8cac22d99fc7c124b9cd0de2d3fa1faef420bfe791d8c362d765e2270060405160405180910390a35050565b6000611f4c611f58565b6002015460ff16919050565b7f3018a310c36c4f8228f09bf3b1822685cf0971daa8265a58ca807c4a4daba40090565b7fd64ab600136c76c630ed81a54cc1acbcc213dadb956fdd8687dc5ebb0bb5f50090565b306001600160a01b037f000000000000000000000000000000000000000000000000000000000000000016148061202757507f00000000000000000000000000000000000000000000000000000000000000006001600160a01b031661201b6000805160206140b1833981519152546001600160a01b031690565b6001600160a01b031614155b1561103a5760405163703e46dd60e11b815260040160405180910390fd5b61204d61232e565b61108681612377565b61205e61232e565b610fe482826123a9565b612070611fa0565b611086612183565b816001600160a01b03166352d1902d6040518163ffffffff1660e01b8152600401602060405180830381865afa9250505080156120d2575060408051601f3d908101601f191682019092526120cf918101906139af565b60015b6120fa57604051634c9c8ce360e01b81526001600160a01b0383166004820152602401611074565b6000805160206140b1833981519152811461212b57604051632a87526960e21b815260048101829052602401611074565b612135838361240a565b505050565b306001600160a01b037f0000000000000000000000000000000000000000000000000000000000000000161461103a5760405163703e46dd60e11b815260040160405180910390fd5b3361218c611135565b6001600160a01b03161461103a5760405163118cdaa760e01b8152336004820152602401611074565b7f237e158222e3e6968b72b9db0d8043aacf074ad9f650f0d1606b4d82ee432c0080546001600160a01b0319168155610fe482612460565b7fa16a46d94261c7517cc8ff89f61c0ce93598e3c849801011dee649a6a557d10280546060916000805160206140918339815191529161222c90613a6b565b80601f016020809104026020016040519081016040528092919081815260200182805461225890613a6b565b80156122a55780601f1061227a576101008083540402835291602001916122a5565b820191906000526020600020905b81548152906001019060200180831161228857829003601f168201915b505050505091505090565b7fa16a46d94261c7517cc8ff89f61c0ce93598e3c849801011dee649a6a557d10380546060916000805160206140918339815191529161222c90613a6b565b60606000610c4e836124d1565b612306838361252c565b61230f81612624565b6121358282612698565b6000610c4e836001600160a01b0384166126f6565b7ff0c57e16840df040f15088dc2f81fe391c3923bec73e23a9662efc9c229c6a0054600160401b900460ff1661103a57604051631afcd79f60e31b815260040160405180910390fd5b61237f61232e565b6001600160a01b03811661107d57604051631e4fbdf760e01b815260006004820152602401611074565b6123b161232e565b6000805160206140918339815191527fa16a46d94261c7517cc8ff89f61c0ce93598e3c849801011dee649a6a557d1026123eb8482613ee6565b50600381016123fa8382613ee6565b5060008082556001909101555050565b61241382612745565b6040516001600160a01b038316907fbc7cd75a20ee27fd9adebab32041f755214dbc6bffa90cc0225b39da2e5c2d3b90600090a28051156124585761213582826127aa565b610fe4612820565b7f9016d09d72d40fdae2fd8ceac6b6234c7706214fd39c1cd1e609a0528c19930080546001600160a01b031981166001600160a01b03848116918217845560405192169182907f8be0079c531659141344cd1fd0a4f28419497f9722a3daafe3b4186f6b6457e090600090a3505050565b606081600001805480602002602001604051908101604052809291908181526020018280548015611c7357602002820191906000526020600020905b81548152602001906001019080831161250d5750505050509050919050565b6000612536611f7c565b90506000816003018460405161254c91906139fc565b908152604051908190036020019020546001600160a01b0316905080612585576040516301dcf1ab60e31b815260040160405180910390fd5b806001600160a01b031663f398789b84600001518560200151866040015187606001516040518563ffffffff1660e01b81526004016125c79493929190613fc7565b602060405180830381865afa1580156125e4573d6000803e3d6000fd5b505050506040513d601f19601f82011682018060405250810190612608919061404c565b611eb7576040516281723b60e21b815260040160405180910390fd5b6000806126398360000151846020015161283f565b915091508161265b5760405163df2b56ff60e01b815260040160405180910390fd5b61267081612667611f7c565b600701906128e9565b61213557604051631432861160e31b81526001600160a01b0382166004820152602401611074565b60608201518051602080830151608084015160a0850151604090950151865193840151935194959294919390916126d990879087908790879087908761290b565b6126e281612a24565b6126ec8686612a4b565b5050505050505050565b600081815260018301602052604081205461273d57508154600181810184556000848152602080822090930184905584548482528286019093526040902091909155610ab0565b506000610ab0565b806001600160a01b03163b60000361277b57604051634c9c8ce360e01b81526001600160a01b0382166004820152602401611074565b6000805160206140b183398151915280546001600160a01b0319166001600160a01b0392909216919091179055565b6060600080846001600160a01b0316846040516127c791906139fc565b600060405180830381855af49150503d8060008114612802576040519150601f19603f3d011682016040523d82523d6000602084013e612807565b606091505b5091509150612817858383612b06565b95945050505050565b341561103a5760405163b398979f60e01b815260040160405180910390fd5b60008060006128b07f0d2a15c3140485b6db2a8c0f755486294daaae1eabcdd518f6beaf8e4ab4d83486600001518760200151604051602001612895939291909283526020830191909152604082015260600190565b60405160208183030381529060405280519060200120612b62565b90506000806128bf8387612b8f565b50909250905060008160038111156128d9576128d9614067565b14945090925050505b9250929050565b6001600160a01b03811660009081526001830160205260408120541515610c4e565b6000612915611f7c565b90508760000361293b57604051631b1aad8760e11b815260048101899052602401611074565b8660000361295f57604051634bdc991b60e11b815260048101889052602401611074565b8060010154851461299357600181015460405163e748379160e01b8152611074918791600401918252602082015260400190565b8383146129c0576040516001621d0d8360e21b031981526004810184905260248101859052604401611074565b805442906129ce908861407d565b10156129ef5760405162bd09f160e11b815260048101879052602401611074565b600082815260028201602052604090205460ff16156126ec57604051635377438b60e11b815260048101839052602401611074565b6000612a2e611f7c565b60009283526002016020525060409020805460ff19166001179055565b612a53611f58565b6040516306fb157560e01b81526004810191909152602481018390526044810182905273__$068aad146bf104111ba65c4a1de2cd0e23$__906306fb15759060640160006040518083038186803b158015612aad57600080fd5b505af4158015612ac1573d6000803e3d6000fd5b50505050612acd611f58565b60405163175ba3e960e11b8152600481019190915273__$068aad146bf104111ba65c4a1de2cd0e23$__90632eb747d290602401610f1a565b606082612b1b57612b1682612bdc565b610c4e565b8151158015612b3257506001600160a01b0384163b155b15612b5b57604051639996b31560e01b81526001600160a01b0385166004820152602401611074565b5080610c4e565b6000610ab0612b6f612c05565b8360405161190160f01b8152600281019290925260228201526042902090565b60008060008351604103612bc95760208401516040850151606086015160001a612bbb88828585612c0f565b955095509550505050612bd5565b50508151600091506002905b9250925092565b805115612bec5780518082602001fd5b60405163d6bda27560e01b815260040160405180910390fd5b6000610a7a612cde565b600080807f7fffffffffffffffffffffffffffffff5d576e7357a4501ddfe92f46681b20a0841115612c4a5750600091506003905082612cd4565b604080516000808252602082018084528a905260ff891692820192909252606081018790526080810186905260019060a0016020604051602081039080840390855afa158015612c9e573d6000803e3d6000fd5b5050604051601f1901519150506001600160a01b038116612cca57506000925060019150829050612cd4565b9250600091508190505b9450945094915050565b60007f8b73c3c69bb8fe3d512ecc4cf759cc79239f7b179b0ffacaa9a75d522b39400f612d09612d52565b612d11612dbc565b60408051602081019490945283019190915260608201524660808201523060a082015260c00160405160208183030381529060405280519060200120905090565b600060008051602061409183398151915281612d6c6121ed565b805190915015612d8457805160209091012092915050565b81548015612d93579392505050565b7fc5d2460186f7233c927e7db2dcc703c0e500b653ca82273b7bfad8045d85a470935050505090565b600060008051602061409183398151915281612dd66122b0565b805190915015612dee57805160209091012092915050565b60018201548015612d93579392505050565b6040518061010001604052806000815260200160001515815260200160608152602001600081526020016000815260200160001515815260200160008152602001600081525090565b6040518060400160405280612e7f6040518060800160405280600081526020016000815260200160008152602001600081525090565b8152602001612ed06040518061010001604052806000815260200160001515815260200160608152602001600081526020016000815260200160001515815260200160008152602001600081525090565b905290565b80356001600160401b03811681146111d957600080fd5b600060208284031215612efe57600080fd5b610c4e82612ed5565b805182526020808201511515818401526040808301516101009185018290528051918501829052600092019082906101208601905b80831015612f5f5783518252602082019150602084019350600183019250612f3c565b50606085015160608701526080850151608087015260a08501519250612f8960a087018415159052565b60c085015160c087015260e085015160e087015280935050505092915050565b60a081526000612fbc60a0830185612f07565b9050610c4e6020830184805182526020810151602083015260408101516040830152606081015160608301525050565b600060208284031215612ffe57600080fd5b81356001600160e01b031981168114610c4e57600080fd5b6000806040838503121561302957600080fd5b8235915061303960208401612ed5565b90509250929050565b60208152613075602082018351805182526020810151602083015260408101516040830152606081015160608301525050565b6000602083015160a080840152610ad960c0840182612f07565b602081526000610c4e6020830184612f07565b6000602082840312156130b457600080fd5b5035919050565b600080604083850312156130ce57600080fd5b50508035926020909101359150565b60008083601f8401126130ef57600080fd5b5081356001600160401b0381111561310657600080fd5b6020830191508360208260051b85010111156128e257600080fd5b80356001600160a01b03811681146111d957600080fd5b80356001600160f01b0319811681146111d957600080fd5b60008060008060008060008060008060e08b8d03121561316f57600080fd5b8a35995060208b0135985060408b01356001600160401b0381111561319357600080fd5b61319f8d828e016130dd565b90995097505060608b01356001600160401b038111156131be57600080fd5b6131ca8d828e016130dd565b90975095505060808b01356001600160401b038111156131e957600080fd5b6131f58d828e016130dd565b9095509350613208905060a08c01613121565b915061321660c08c01613138565b90509295989b9194979a5092959850565b6000806040838503121561323a57600080fd5b61324383613121565b915061303960208401613138565b634e487b7160e01b600052604160045260246000fd5b604051606081016001600160401b038111828210171561328957613289613251565b60405290565b60405161010081016001600160401b038111828210171561328957613289613251565b604080519081016001600160401b038111828210171561328957613289613251565b604051601f8201601f191681016001600160401b03811182821017156132fc576132fc613251565b604052919050565b60006001600160401b0382111561331d5761331d613251565b50601f01601f191660200190565b600061333e61333984613304565b6132d4565b905082815283838301111561335257600080fd5b828260208301376000602084830101529392505050565b600082601f83011261337a57600080fd5b610c4e8383356020850161332b565b6000806040838503121561339c57600080fd5b6133a583613121565b915060208301356001600160401b038111156133c057600080fd5b6133cc85828601613369565b9150509250929050565b60005b838110156133f15781810151838201526020016133d9565b50506000910152565b600081518084526134128160208601602086016133d6565b601f01601f19169290920160200192915050565b60ff60f81b8816815260e06020820152600061344560e08301896133fa565b828103604084015261345781896133fa565b606084018890526001600160a01b038716608085015260a0840186905283810360c08501528451808252602080870193509091019060005b818110156134ad57835183526020938401939092019160010161348f565b50909b9a5050505050505050505050565b602080825282518282018190526000918401906040840190835b818110156134ff5783516001600160a01b03168352602093840193909201916001016134d8565b509095945050505050565b60006020828403121561351c57600080fd5b81356001600160401b0381111561353257600080fd5b8201601f8101841361354357600080fd5b610ad98482356020840161332b565b60008060006060848603121561356757600080fd5b833592506020840135915061357e60408501612ed5565b90509250925092565b602081526000610c4e60208301846133fa565b60006001600160401b038211156135b3576135b3613251565b5060051b60200190565b600080604083850312156135d057600080fd5b82356001600160401b038111156135e657600080fd5b8301601f810185136135f757600080fd5b80356136056133398261359a565b8082825260208201915060208360051b85010192508783111561362757600080fd5b602084015b838110156136e15780356001600160401b0381111561364a57600080fd5b85016060818b03601f1901121561366057600080fd5b613668613267565b61367460208301612ed5565b815260408201356001600160401b0381111561368f57600080fd5b61369e8c602083860101613369565b60208301525060608201356001600160401b038111156136bd57600080fd5b6136cc8c602083860101613369565b6040830152508452506020928301920161362c565b50945050505060208301356001600160401b038111156133c057600080fd5b6000806000806040858703121561371657600080fd5b84356001600160401b0381111561372c57600080fd5b613738878288016130dd565b90955093505060208501356001600160401b0381111561375757600080fd5b613763878288016130dd565b95989497509550505050565b6000806040838503121561378257600080fd5b61378b83612ed5565b946020939093013593505050565b600080602083850312156137ac57600080fd5b82356001600160401b038111156137c257600080fd5b6137ce858286016130dd565b90969095509350505050565b6000602082840312156137ec57600080fd5b610c4e82613121565b805180151581146111d957600080fd5b600082601f83011261381657600080fd5b81516138246133398261359a565b8082825260208201915060208360051b86010192508583111561384657600080fd5b602085015b8381101561386357805183526020928301920161384b565b5095945050505050565b6000610100828403121561388057600080fd5b61388861328f565b82518152905061389a602083016137f5565b602082015260408201516001600160401b038111156138b857600080fd5b6138c484828501613805565b60408301525060608281015190820152608080830151908201526138ea60a083016137f5565b60a082015260c0828101519082015260e09182015191810191909152919050565b60008082840360a081121561391f57600080fd5b83516001600160401b0381111561393557600080fd5b6139418682870161386d565b9350506080601f198201121561395657600080fd5b50604051608081016001600160401b038111828210171561397957613979613251565b60409081526020858101518352858201519083015260608086015191830191909152608090940151938101939093525092909150565b6000602082840312156139c157600080fd5b5051919050565b6000602082840312156139da57600080fd5b81516001600160401b038111156139f057600080fd5b610ad98482850161386d565b60008251613a0e8184602087016133d6565b9190910192915050565b60006060828403128015613a2b57600080fd5b50613a34613267565b82518152602080840151908201526040928301519281019290925250919050565b634e487b7160e01b600052603260045260246000fd5b600181811c90821680613a7f57607f821691505b602082108103613a9f57634e487b7160e01b600052602260045260246000fd5b50919050565b600082601f830112613ab657600080fd5b613ac060406132d4565b806040840185811115613ad257600080fd5b845b818110156134ff578051845260209384019301613ad4565b6000806000806101208587031215613b0357600080fd5b84516001600160401b03811115613b1957600080fd5b613b2587828801613805565b945050613b358660208701613aa5565b925085607f860112613b4657600080fd5b6040613b51816132d4565b8060e0880189811115613b6357600080fd5b606089015b81811015613b8957613b7a8b82613aa5565b84526020909301928401613b68565b50819550613b978a82613aa5565b94505050505092959194509250565b600060208284031215613bb857600080fd5b81516001600160401b03811115613bce57600080fd5b8201601f81018413613bdf57600080fd5b8051613bed6133398261359a565b8082825260208201915060208360051b850101925086831115613c0f57600080fd5b602084015b83811015613d005780516001600160401b03811115613c3257600080fd5b8501808903601f19016060811215613c4957600080fd5b613c516132b2565b6040821215613c5f57600080fd5b613c676132b2565b60208481015182526040850151908201528152606083015191506001600160401b03821115613c9557600080fd5b60208284010192508a601f840112613cac57600080fd5b82519150613cbc61333983613304565b8281528b6020848601011115613cd157600080fd5b613ce28360208301602087016133d6565b80602083015250808652505050602083019250602081019050613c14565b509695505050505050565b6000808335601e19843603018112613d2257600080fd5b8301803591506001600160401b03821115613d3c57600080fd5b6020019150368190038213156128e257600080fd5b8183823760009101908152919050565b601f82111561213557806000526020600020601f840160051c81016020851015613d885750805b601f840160051c820191505b81811015613da85760008155600101613d94565b5050505050565b6001600160401b03831115613dc657613dc6613251565b613dda83613dd48354613a6b565b83613d61565b6000601f841160018114613e0e5760008515613df65750838201355b600019600387901b1c1916600186901b178355613da8565b600083815260209020601f19861690835b82811015613e3f5786850135825560209485019460019092019101613e1f565b5086821015613e5c5760001960f88860031b161c19848701351681555b505060018560011b0183555050505050565b634e487b7160e01b600052601160045260246000fd5b600060018201613e9657613e96613e6e565b5060010190565b6060815283606082015283856080830137600060808583018101919091526001600160a01b039390931660208201526040810191909152601f909201601f191690910101919050565b81516001600160401b03811115613eff57613eff613251565b613f1381613f0d8454613a6b565b84613d61565b6020601f821160018114613f475760008315613f2f5750848201515b600019600385901b1c1916600184901b178455613da8565b600084815260208120601f198516915b82811015613f775787850151825560209485019460019092019101613f57565b5084821015613f955786840151600019600387901b60f8161c191681555b50505050600190811b01905550565b8060005b6002811015611eb7578151845260209384019390910190600101613fa8565b6101c08101613fd68287613fa4565b604082018560005b600281101561400857613ff2838351613fa4565b6040929092019160209190910190600101613fde565b50505061401860c0830185613fa4565b61010082018360005b6006811015614040578151835260209283019290910190600101614021565b50505095945050505050565b60006020828403121561405e57600080fd5b610c4e826137f5565b634e487b7160e01b600052602160045260246000fd5b80820180821115610ab057610ab0613e6e56fea16a46d94261c7517cc8ff89f61c0ce93598e3c849801011dee649a6a557d100360894a13ba1a3210667c828492db98dca3e2076cc3735a920a3ca505d382bbca2646970667358221220b9b343b5043c51b00688e492d3cb413724e386b885d66dd1ca12d2f5c042c63d64736f6c634300081b0033",
  "linkReferences": {
    "@iden3/contracts/lib/IdentityLib.sol": {
      "IdentityLib": [
        {
          "length": 20,
          "start": 2699
        },
        {
          "length": 20,
          "start": 2840
        },
        {
          "length": 20,
          "start": 3092
        },
        {
          "length": 20,
          "start": 3304
        },
        {
          "length": 20,
          "start": 3463
        },
        {
          "length": 20,
          "start": 3980
        },
        {
          "length": 20,
          "start": 4089
        },
        {
          "length": 20,
          "start": 4260
        },
        {
          "length": 20,
          "start": 4953
        },
        {
          "length": 20,
          "start": 5148
        },
        {
          "length": 20,
          "start": 6248
        },
        {
          "length": 20,
          "start": 6327
        },
        {
          "length": 20,
          "start": 6434
        },
        {
          "length": 20,
          "start": 7258
        },
        {
          "length": 20,
          "start": 7723
        },
        {
          "length": 20,
          "start": 7842
        },
        {
          "length": 20,
          "start": 11125
        },
        {
          "length": 20,
          "start": 11233
        }
      ]
    }
  },
  "deployedLinkReferences": {
    "@iden3/contracts/lib/IdentityLib.sol": {
      "IdentityLib": [
        {
          "length": 20,
          "start": 2446
        },
        {
          "length": 20,
          "start": 2587
        },
        {
          "length": 20,
          "start": 2839
        },
        {
          "length": 20,
          "start": 3051
        },
        {
          "length": 20,
          "start": 3210
        },
        {
          "length": 20,
          "start": 3727
        },
        {
          "length": 20,
          "start": 3836
        },
        {
          "length": 20,
          "start": 4007
        },
        {
          "length": 20,
          "start": 4700
        },
        {
          "length": 20,
          "start": 4895
        },
        {
          "length": 20,
          "start": 5995
        },
        {
          "length": 20,
          "start": 6074
        },
        {
          "length": 20,
          "start": 6181
        },
        {
          "length": 20,
          "start": 7005
        },
        {
          "length": 20,
          "start": 7470
        },
        {
          "length": 20,
          "start": 7589
        },
        {
          "length": 20,
          "start": 10872
        },
        {
          "length": 20,
          "start": 10980
        }
      ]
    }
  }
}