{
  "_format": "hh-sol-artifact-1",
  "contractName": "PassportCredentialIssuer",
  "sourceName": "contracts/verifiers/PassportCredentialIssuer.sol",
  "abi": [
    {
      "inputs": [],
      "stateMutability": "nonpayable",
      "type": "constructor"
    },
    {
      "inputs": [
        {
          "internalType": "uint256",
          "name": "currentDate",
          "type": "uint256"
        }
      ],
      "name": "CurrentDateExpired",
      "type": "error"
    },
    {
      "inputs": [],
      "name": "InvalidCredentialProof",
      "type": "error"
    },
    {
      "inputs": [
        {
          "internalType": "uint256",
          "name": "hashIndex",
          "type": "uint256"
        }
      ],
      "name": "InvalidHashIndex",
      "type": "error"
    },
    {
      "inputs": [
        {
          "internalType": "uint256",
          "name": "hashValue",
          "type": "uint256"
        }
      ],
      "name": "InvalidHashValue",
      "type": "error"
    },
    {
      "inputs": [],
      "name": "InvalidInitialization",
      "type": "error"
    },
    {
      "inputs": [
        {
          "internalType": "uint256",
          "name": "linkId1",
          "type": "uint256"
        },
        {
          "internalType": "uint256",
          "name": "linkId2",
          "type": "uint256"
        }
      ],
      "name": "InvalidLinkId",
      "type": "error"
    },
    {
      "inputs": [],
      "name": "InvalidPassportSignatureProof",
      "type": "error"
    },
    {
      "inputs": [
        {
          "internalType": "uint256",
          "name": "length",
          "type": "uint256"
        },
        {
          "internalType": "uint256",
          "name": "expectedLength",
          "type": "uint256"
        }
      ],
      "name": "InvalidResponsesLength",
      "type": "error"
    },
    {
      "inputs": [
        {
          "internalType": "address",
          "name": "signer",
          "type": "address"
        }
      ],
      "name": "InvalidSignerPassportSignatureProof",
      "type": "error"
    },
    {
      "inputs": [
        {
          "internalType": "uint256",
          "name": "templateRoot",
          "type": "uint256"
        },
        {
          "internalType": "uint256",
          "name": "expectedTemplateRoot",
          "type": "uint256"
        }
      ],
      "name": "InvalidTemplateRoot",
      "type": "error"
    },
    {
      "inputs": [
        {
          "internalType": "uint256",
          "name": "issuanceDate",
          "type": "uint256"
        }
      ],
      "name": "IssuanceDateExpired",
      "type": "error"
    },
    {
      "inputs": [
        {
          "internalType": "uint256",
          "name": "length1",
          "type": "uint256"
        },
        {
          "internalType": "uint256",
          "name": "length2",
          "type": "uint256"
        }
      ],
      "name": "LengthMismatch",
      "type": "error"
    },
    {
      "inputs": [
        {
          "internalType": "uint256",
          "name": "requestId",
          "type": "uint256"
        }
      ],
      "name": "NoCredentialCircuitForRequestId",
      "type": "error"
    },
    {
      "inputs": [],
      "name": "NoVerifierSet",
      "type": "error"
    },
    {
      "inputs": [],
      "name": "NotInitializing",
      "type": "error"
    },
    {
      "inputs": [
        {
          "internalType": "uint256",
          "name": "nullifier",
          "type": "uint256"
        }
      ],
      "name": "NullifierAlreadyExists",
      "type": "error"
    },
    {
      "inputs": [
        {
          "internalType": "address",
          "name": "owner",
          "type": "address"
        }
      ],
      "name": "OwnableInvalidOwner",
      "type": "error"
    },
    {
      "inputs": [
        {
          "internalType": "address",
          "name": "account",
          "type": "address"
        }
      ],
      "name": "OwnableUnauthorizedAccount",
      "type": "error"
    },
    {
      "anonymous": false,
      "inputs": [
        {
          "indexed": false,
          "internalType": "string",
          "name": "circuitId",
          "type": "string"
        },
        {
          "indexed": false,
          "internalType": "address",
          "name": "verifier",
          "type": "address"
        },
        {
          "indexed": false,
          "internalType": "uint256",
          "name": "requestId",
          "type": "uint256"
        }
      ],
      "name": "CredentialCircuitVerifierUpdated",
      "type": "event"
    },
    {
      "anonymous": false,
      "inputs": [],
      "name": "EIP712DomainChanged",
      "type": "event"
    },
    {
      "anonymous": false,
      "inputs": [
        {
          "indexed": false,
          "internalType": "uint256",
          "name": "expirationTime",
          "type": "uint256"
        }
      ],
      "name": "ExpirationTimeUpdated",
      "type": "event"
    },
    {
      "anonymous": false,
      "inputs": [
        {
          "indexed": false,
          "internalType": "uint64",
          "name": "version",
          "type": "uint64"
        }
      ],
      "name": "Initialized",
      "type": "event"
    },
    {
      "anonymous": false,
      "inputs": [
        {
          "indexed": true,
          "internalType": "address",
          "name": "previousOwner",
          "type": "address"
        },
        {
          "indexed": true,
          "internalType": "address",
          "name": "newOwner",
          "type": "address"
        }
      ],
      "name": "OwnershipTransferStarted",
      "type": "event"
    },
    {
      "anonymous": false,
      "inputs": [
        {
          "indexed": true,
          "internalType": "address",
          "name": "previousOwner",
          "type": "address"
        },
        {
          "indexed": true,
          "internalType": "address",
          "name": "newOwner",
          "type": "address"
        }
      ],
      "name": "OwnershipTransferred",
      "type": "event"
    },
    {
      "anonymous": false,
      "inputs": [
        {
          "indexed": false,
          "internalType": "address",
          "name": "signer",
          "type": "address"
        }
      ],
      "name": "SignerAdded",
      "type": "event"
    },
    {
      "anonymous": false,
      "inputs": [
        {
          "indexed": false,
          "internalType": "uint256",
          "name": "tampletRoot",
          "type": "uint256"
        }
      ],
      "name": "TemplateRootUpdated",
      "type": "event"
    },
    {
      "inputs": [],
      "name": "DOMAIN_VERSION",
      "outputs": [
        {
          "internalType": "string",
          "name": "",
          "type": "string"
        }
      ],
      "stateMutability": "view",
      "type": "function"
    },
    {
      "inputs": [],
      "name": "PASSPORT_CREDENTIAL_MESSAGE_TYPEHASH",
      "outputs": [
        {
          "internalType": "bytes32",
          "name": "",
          "type": "bytes32"
        }
      ],
      "stateMutability": "view",
      "type": "function"
    },
    {
      "inputs": [],
      "name": "VERSION",
      "outputs": [
        {
          "internalType": "string",
          "name": "",
          "type": "string"
        }
      ],
      "stateMutability": "view",
      "type": "function"
    },
    {
      "inputs": [],
      "name": "acceptOwnership",
      "outputs": [],
      "stateMutability": "nonpayable",
      "type": "function"
    },
    {
      "inputs": [
        {
          "internalType": "address[]",
          "name": "signers",
          "type": "address[]"
        }
      ],
      "name": "addSigners",
      "outputs": [],
      "stateMutability": "nonpayable",
      "type": "function"
    },
    {
      "inputs": [
        {
          "internalType": "uint256",
          "name": "nullifier",
          "type": "uint256"
        }
      ],
      "name": "cleanNullifier",
      "outputs": [],
      "stateMutability": "nonpayable",
      "type": "function"
    },
    {
      "inputs": [
        {
          "internalType": "string",
          "name": "circuitId",
          "type": "string"
        }
      ],
      "name": "credentialCircuitIdToRequestIds",
      "outputs": [
        {
          "internalType": "uint256",
          "name": "",
          "type": "uint256"
        }
      ],
      "stateMutability": "view",
      "type": "function"
    },
    {
      "inputs": [
        {
          "internalType": "uint256",
          "name": "requestId",
          "type": "uint256"
        }
      ],
      "name": "credentialRequestIdToCircuitIds",
      "outputs": [
        {
          "internalType": "string",
          "name": "",
          "type": "string"
        }
      ],
      "stateMutability": "view",
      "type": "function"
    },
    {
      "inputs": [
        {
          "internalType": "string",
          "name": "circuitId",
          "type": "string"
        }
      ],
      "name": "credentialVerifiers",
      "outputs": [
        {
          "internalType": "address",
          "name": "",
          "type": "address"
        }
      ],
      "stateMutability": "view",
      "type": "function"
    },
    {
      "inputs": [],
      "name": "eip712Domain",
      "outputs": [
        {
          "internalType": "bytes1",
          "name": "fields",
          "type": "bytes1"
        },
        {
          "internalType": "string",
          "name": "name",
          "type": "string"
        },
        {
          "internalType": "string",
          "name": "version",
          "type": "string"
        },
        {
          "internalType": "uint256",
          "name": "chainId",
          "type": "uint256"
        },
        {
          "internalType": "address",
          "name": "verifyingContract",
          "type": "address"
        },
        {
          "internalType": "bytes32",
          "name": "salt",
          "type": "bytes32"
        },
        {
          "internalType": "uint256[]",
          "name": "extensions",
          "type": "uint256[]"
        }
      ],
      "stateMutability": "view",
      "type": "function"
    },
    {
      "inputs": [
        {
          "internalType": "uint256",
          "name": "claimIndexHash",
          "type": "uint256"
        }
      ],
      "name": "getClaimProof",
      "outputs": [
        {
          "components": [
            {
              "internalType": "uint256",
              "name": "root",
              "type": "uint256"
            },
            {
              "internalType": "bool",
              "name": "existence",
              "type": "bool"
            },
            {
              "internalType": "uint256[]",
              "name": "siblings",
              "type": "uint256[]"
            },
            {
              "internalType": "uint256",
              "name": "index",
              "type": "uint256"
            },
            {
              "internalType": "uint256",
              "name": "value",
              "type": "uint256"
            },
            {
              "internalType": "bool",
              "name": "auxExistence",
              "type": "bool"
            },
            {
              "internalType": "uint256",
              "name": "auxIndex",
              "type": "uint256"
            },
            {
              "internalType": "uint256",
              "name": "auxValue",
              "type": "uint256"
            }
          ],
          "internalType": "struct SmtLib.Proof",
          "name": "",
          "type": "tuple"
        }
      ],
      "stateMutability": "view",
      "type": "function"
    },
    {
      "inputs": [
        {
          "internalType": "uint256",
          "name": "claimIndexHash",
          "type": "uint256"
        },
        {
          "internalType": "uint256",
          "name": "root",
          "type": "uint256"
        }
      ],
      "name": "getClaimProofByRoot",
      "outputs": [
        {
          "components": [
            {
              "internalType": "uint256",
              "name": "root",
              "type": "uint256"
            },
            {
              "internalType": "bool",
              "name": "existence",
              "type": "bool"
            },
            {
              "internalType": "uint256[]",
              "name": "siblings",
              "type": "uint256[]"
            },
            {
              "internalType": "uint256",
              "name": "index",
              "type": "uint256"
            },
            {
              "internalType": "uint256",
              "name": "value",
              "type": "uint256"
            },
            {
              "internalType": "bool",
              "name": "auxExistence",
              "type": "bool"
            },
            {
              "internalType": "uint256",
              "name": "auxIndex",
              "type": "uint256"
            },
            {
              "internalType": "uint256",
              "name": "auxValue",
              "type": "uint256"
            }
          ],
          "internalType": "struct SmtLib.Proof",
          "name": "",
          "type": "tuple"
        }
      ],
      "stateMutability": "view",
      "type": "function"
    },
    {
      "inputs": [
        {
          "internalType": "uint256",
          "name": "claimIndexHash",
          "type": "uint256"
        }
      ],
      "name": "getClaimProofWithStateInfo",
      "outputs": [
        {
          "components": [
            {
              "internalType": "uint256",
              "name": "root",
              "type": "uint256"
            },
            {
              "internalType": "bool",
              "name": "existence",
              "type": "bool"
            },
            {
              "internalType": "uint256[]",
              "name": "siblings",
              "type": "uint256[]"
            },
            {
              "internalType": "uint256",
              "name": "index",
              "type": "uint256"
            },
            {
              "internalType": "uint256",
              "name": "value",
              "type": "uint256"
            },
            {
              "internalType": "bool",
              "name": "auxExistence",
              "type": "bool"
            },
            {
              "internalType": "uint256",
              "name": "auxIndex",
              "type": "uint256"
            },
            {
              "internalType": "uint256",
              "name": "auxValue",
              "type": "uint256"
            }
          ],
          "internalType": "struct SmtLib.Proof",
          "name": "",
          "type": "tuple"
        },
        {
          "components": [
            {
              "internalType": "uint256",
              "name": "state",
              "type": "uint256"
            },
            {
              "internalType": "uint256",
              "name": "claimsRoot",
              "type": "uint256"
            },
            {
              "internalType": "uint256",
              "name": "revocationsRoot",
              "type": "uint256"
            },
            {
              "internalType": "uint256",
              "name": "rootsRoot",
              "type": "uint256"
            }
          ],
          "internalType": "struct IdentityLib.StateInfo",
          "name": "",
          "type": "tuple"
        }
      ],
      "stateMutability": "view",
      "type": "function"
    },
    {
      "inputs": [],
      "name": "getClaimsTreeRoot",
      "outputs": [
        {
          "internalType": "uint256",
          "name": "",
          "type": "uint256"
        }
      ],
      "stateMutability": "view",
      "type": "function"
    },
    {
      "inputs": [],
      "name": "getExpirationTime",
      "outputs": [
        {
          "internalType": "uint256",
          "name": "",
          "type": "uint256"
        }
      ],
      "stateMutability": "view",
      "type": "function"
    },
    {
      "inputs": [],
      "name": "getId",
      "outputs": [
        {
          "internalType": "uint256",
          "name": "",
          "type": "uint256"
        }
      ],
      "stateMutability": "view",
      "type": "function"
    },
    {
      "inputs": [],
      "name": "getIsOldStateGenesis",
      "outputs": [
        {
          "internalType": "bool",
          "name": "",
          "type": "bool"
        }
      ],
      "stateMutability": "view",
      "type": "function"
    },
    {
      "inputs": [],
      "name": "getLatestPublishedClaimsRoot",
      "outputs": [
        {
          "internalType": "uint256",
          "name": "",
          "type": "uint256"
        }
      ],
      "stateMutability": "view",
      "type": "function"
    },
    {
      "inputs": [],
      "name": "getLatestPublishedRevocationsRoot",
      "outputs": [
        {
          "internalType": "uint256",
          "name": "",
          "type": "uint256"
        }
      ],
      "stateMutability": "view",
      "type": "function"
    },
    {
      "inputs": [],
      "name": "getLatestPublishedRootsRoot",
      "outputs": [
        {
          "internalType": "uint256",
          "name": "",
          "type": "uint256"
        }
      ],
      "stateMutability": "view",
      "type": "function"
    },
    {
      "inputs": [],
      "name": "getLatestPublishedState",
      "outputs": [
        {
          "internalType": "uint256",
          "name": "",
          "type": "uint256"
        }
      ],
      "stateMutability": "view",
      "type": "function"
    },
    {
      "inputs": [
        {
          "internalType": "uint64",
          "name": "revocationNonce",
          "type": "uint64"
        }
      ],
      "name": "getRevocationProof",
      "outputs": [
        {
          "components": [
            {
              "internalType": "uint256",
              "name": "root",
              "type": "uint256"
            },
            {
              "internalType": "bool",
              "name": "existence",
              "type": "bool"
            },
            {
              "internalType": "uint256[]",
              "name": "siblings",
              "type": "uint256[]"
            },
            {
              "internalType": "uint256",
              "name": "index",
              "type": "uint256"
            },
            {
              "internalType": "uint256",
              "name": "value",
              "type": "uint256"
            },
            {
              "internalType": "bool",
              "name": "auxExistence",
              "type": "bool"
            },
            {
              "internalType": "uint256",
              "name": "auxIndex",
              "type": "uint256"
            },
            {
              "internalType": "uint256",
              "name": "auxValue",
              "type": "uint256"
            }
          ],
          "internalType": "struct SmtLib.Proof",
          "name": "",
          "type": "tuple"
        }
      ],
      "stateMutability": "view",
      "type": "function"
    },
    {
      "inputs": [
        {
          "internalType": "uint64",
          "name": "revocationNonce",
          "type": "uint64"
        },
        {
          "internalType": "uint256",
          "name": "root",
          "type": "uint256"
        }
      ],
      "name": "getRevocationProofByRoot",
      "outputs": [
        {
          "components": [
            {
              "internalType": "uint256",
              "name": "root",
              "type": "uint256"
            },
            {
              "internalType": "bool",
              "name": "existence",
              "type": "bool"
            },
            {
              "internalType": "uint256[]",
              "name": "siblings",
              "type": "uint256[]"
            },
            {
              "internalType": "uint256",
              "name": "index",
              "type": "uint256"
            },
            {
              "internalType": "uint256",
              "name": "value",
              "type": "uint256"
            },
            {
              "internalType": "bool",
              "name": "auxExistence",
              "type": "bool"
            },
            {
              "internalType": "uint256",
              "name": "auxIndex",
              "type": "uint256"
            },
            {
              "internalType": "uint256",
              "name": "auxValue",
              "type": "uint256"
            }
          ],
          "internalType": "struct SmtLib.Proof",
          "name": "",
          "type": "tuple"
        }
      ],
      "stateMutability": "view",
      "type": "function"
    },
    {
      "inputs": [
        {
          "internalType": "uint64",
          "name": "revocationNonce",
          "type": "uint64"
        }
      ],
      "name": "getRevocationProofWithStateInfo",
      "outputs": [
        {
          "components": [
            {
              "internalType": "uint256",
              "name": "root",
              "type": "uint256"
            },
            {
              "internalType": "bool",
              "name": "existence",
              "type": "bool"
            },
            {
              "internalType": "uint256[]",
              "name": "siblings",
              "type": "uint256[]"
            },
            {
              "internalType": "uint256",
              "name": "index",
              "type": "uint256"
            },
            {
              "internalType": "uint256",
              "name": "value",
              "type": "uint256"
            },
            {
              "internalType": "bool",
              "name": "auxExistence",
              "type": "bool"
            },
            {
              "internalType": "uint256",
              "name": "auxIndex",
              "type": "uint256"
            },
            {
              "internalType": "uint256",
              "name": "auxValue",
              "type": "uint256"
            }
          ],
          "internalType": "struct SmtLib.Proof",
          "name": "",
          "type": "tuple"
        },
        {
          "components": [
            {
              "internalType": "uint256",
              "name": "state",
              "type": "uint256"
            },
            {
              "internalType": "uint256",
              "name": "claimsRoot",
              "type": "uint256"
            },
            {
              "internalType": "uint256",
              "name": "revocationsRoot",
              "type": "uint256"
            },
            {
              "internalType": "uint256",
              "name": "rootsRoot",
              "type": "uint256"
            }
          ],
          "internalType": "struct IdentityLib.StateInfo",
          "name": "",
          "type": "tuple"
        }
      ],
      "stateMutability": "view",
      "type": "function"
    },
    {
      "inputs": [
        {
          "internalType": "uint256",
          "name": "id",
          "type": "uint256"
        },
        {
          "internalType": "uint64",
          "name": "nonce",
          "type": "uint64"
        }
      ],
      "name": "getRevocationStatus",
      "outputs": [
        {
          "components": [
            {
              "components": [
                {
                  "internalType": "uint256",
                  "name": "state",
                  "type": "uint256"
                },
                {
                  "internalType": "uint256",
                  "name": "claimsTreeRoot",
                  "type": "uint256"
                },
                {
                  "internalType": "uint256",
                  "name": "revocationTreeRoot",
                  "type": "uint256"
                },
                {
                  "internalType": "uint256",
                  "name": "rootOfRoots",
                  "type": "uint256"
                }
              ],
              "internalType": "struct IOnchainCredentialStatusResolver.IdentityStateRoots",
              "name": "issuer",
              "type": "tuple"
            },
            {
              "components": [
                {
                  "internalType": "uint256",
                  "name": "root",
                  "type": "uint256"
                },
                {
                  "internalType": "bool",
                  "name": "existence",
                  "type": "bool"
                },
                {
                  "internalType": "uint256[]",
                  "name": "siblings",
                  "type": "uint256[]"
                },
                {
                  "internalType": "uint256",
                  "name": "index",
                  "type": "uint256"
                },
                {
                  "internalType": "uint256",
                  "name": "value",
                  "type": "uint256"
                },
                {
                  "internalType": "bool",
                  "name": "auxExistence",
                  "type": "bool"
                },
                {
                  "internalType": "uint256",
                  "name": "auxIndex",
                  "type": "uint256"
                },
                {
                  "internalType": "uint256",
                  "name": "auxValue",
                  "type": "uint256"
                }
              ],
              "internalType": "struct IOnchainCredentialStatusResolver.Proof",
              "name": "mtp",
              "type": "tuple"
            }
          ],
          "internalType": "struct IOnchainCredentialStatusResolver.CredentialStatus",
          "name": "",
          "type": "tuple"
        }
      ],
      "stateMutability": "view",
      "type": "function"
    },
    {
      "inputs": [
        {
          "internalType": "uint256",
          "name": "id",
          "type": "uint256"
        },
        {
          "internalType": "uint256",
          "name": "state",
          "type": "uint256"
        },
        {
          "internalType": "uint64",
          "name": "nonce",
          "type": "uint64"
        }
      ],
      "name": "getRevocationStatusByIdAndState",
      "outputs": [
        {
          "components": [
            {
              "components": [
                {
                  "internalType": "uint256",
                  "name": "state",
                  "type": "uint256"
                },
                {
                  "internalType": "uint256",
                  "name": "claimsTreeRoot",
                  "type": "uint256"
                },
                {
                  "internalType": "uint256",
                  "name": "revocationTreeRoot",
                  "type": "uint256"
                },
                {
                  "internalType": "uint256",
                  "name": "rootOfRoots",
                  "type": "uint256"
                }
              ],
              "internalType": "struct IOnchainCredentialStatusResolver.IdentityStateRoots",
              "name": "issuer",
              "type": "tuple"
            },
            {
              "components": [
                {
                  "internalType": "uint256",
                  "name": "root",
                  "type": "uint256"
                },
                {
                  "internalType": "bool",
                  "name": "existence",
                  "type": "bool"
                },
                {
                  "internalType": "uint256[]",
                  "name": "siblings",
                  "type": "uint256[]"
                },
                {
                  "internalType": "uint256",
                  "name": "index",
                  "type": "uint256"
                },
                {
                  "internalType": "uint256",
                  "name": "value",
                  "type": "uint256"
                },
                {
                  "internalType": "bool",
                  "name": "auxExistence",
                  "type": "bool"
                },
                {
                  "internalType": "uint256",
                  "name": "auxIndex",
                  "type": "uint256"
                },
                {
                  "internalType": "uint256",
                  "name": "auxValue",
                  "type": "uint256"
                }
              ],
              "internalType": "struct IOnchainCredentialStatusResolver.Proof",
              "name": "mtp",
              "type": "tuple"
            }
          ],
          "internalType": "struct IOnchainCredentialStatusResolver.CredentialStatus",
          "name": "",
          "type": "tuple"
        }
      ],
      "stateMutability": "view",
      "type": "function"
    },
    {
      "inputs": [],
      "name": "getRevocationsTreeRoot",
      "outputs": [
        {
          "internalType": "uint256",
          "name": "",
          "type": "uint256"
        }
      ],
      "stateMutability": "view",
      "type": "function"
    },
    {
      "inputs": [
        {
          "internalType": "uint256",
          "name": "rootsTreeRoot",
          "type": "uint256"
        }
      ],
      "name": "getRootProof",
      "outputs": [
        {
          "components": [
            {
              "internalType": "uint256",
              "name": "root",
              "type": "uint256"
            },
            {
              "internalType": "bool",
              "name": "existence",
              "type": "bool"
            },
            {
              "internalType": "uint256[]",
              "name": "siblings",
              "type": "uint256[]"
            },
            {
              "internalType": "uint256",
              "name": "index",
              "type": "uint256"
            },
            {
              "internalType": "uint256",
              "name": "value",
              "type": "uint256"
            },
            {
              "internalType": "bool",
              "name": "auxExistence",
              "type": "bool"
            },
            {
              "internalType": "uint256",
              "name": "auxIndex",
              "type": "uint256"
            },
            {
              "internalType": "uint256",
              "name": "auxValue",
              "type": "uint256"
            }
          ],
          "internalType": "struct SmtLib.Proof",
          "name": "",
          "type": "tuple"
        }
      ],
      "stateMutability": "view",
      "type": "function"
    },
    {
      "inputs": [
        {
          "internalType": "uint256",
          "name": "claimsTreeRoot",
          "type": "uint256"
        },
        {
          "internalType": "uint256",
          "name": "root",
          "type": "uint256"
        }
      ],
      "name": "getRootProofByRoot",
      "outputs": [
        {
          "components": [
            {
              "internalType": "uint256",
              "name": "root",
              "type": "uint256"
            },
            {
              "internalType": "bool",
              "name": "existence",
              "type": "bool"
            },
            {
              "internalType": "uint256[]",
              "name": "siblings",
              "type": "uint256[]"
            },
            {
              "internalType": "uint256",
              "name": "index",
              "type": "uint256"
            },
            {
              "internalType": "uint256",
              "name": "value",
              "type": "uint256"
            },
            {
              "internalType": "bool",
              "name": "auxExistence",
              "type": "bool"
            },
            {
              "internalType": "uint256",
              "name": "auxIndex",
              "type": "uint256"
            },
            {
              "internalType": "uint256",
              "name": "auxValue",
              "type": "uint256"
            }
          ],
          "internalType": "struct SmtLib.Proof",
          "name": "",
          "type": "tuple"
        }
      ],
      "stateMutability": "view",
      "type": "function"
    },
    {
      "inputs": [
        {
          "internalType": "uint256",
          "name": "rootsTreeRoot",
          "type": "uint256"
        }
      ],
      "name": "getRootProofWithStateInfo",
      "outputs": [
        {
          "components": [
            {
              "internalType": "uint256",
              "name": "root",
              "type": "uint256"
            },
            {
              "internalType": "bool",
              "name": "existence",
              "type": "bool"
            },
            {
              "internalType": "uint256[]",
              "name": "siblings",
              "type": "uint256[]"
            },
            {
              "internalType": "uint256",
              "name": "index",
              "type": "uint256"
            },
            {
              "internalType": "uint256",
              "name": "value",
              "type": "uint256"
            },
            {
              "internalType": "bool",
              "name": "auxExistence",
              "type": "bool"
            },
            {
              "internalType": "uint256",
              "name": "auxIndex",
              "type": "uint256"
            },
            {
              "internalType": "uint256",
              "name": "auxValue",
              "type": "uint256"
            }
          ],
          "internalType": "struct SmtLib.Proof",
          "name": "",
          "type": "tuple"
        },
        {
          "components": [
            {
              "internalType": "uint256",
              "name": "state",
              "type": "uint256"
            },
            {
              "internalType": "uint256",
              "name": "claimsRoot",
              "type": "uint256"
            },
            {
              "internalType": "uint256",
              "name": "revocationsRoot",
              "type": "uint256"
            },
            {
              "internalType": "uint256",
              "name": "rootsRoot",
              "type": "uint256"
            }
          ],
          "internalType": "struct IdentityLib.StateInfo",
          "name": "",
          "type": "tuple"
        }
      ],
      "stateMutability": "view",
      "type": "function"
    },
    {
      "inputs": [
        {
          "internalType": "uint256",
          "name": "state",
          "type": "uint256"
        }
      ],
      "name": "getRootsByState",
      "outputs": [
        {
          "components": [
            {
              "internalType": "uint256",
              "name": "claimsRoot",
              "type": "uint256"
            },
            {
              "internalType": "uint256",
              "name": "revocationsRoot",
              "type": "uint256"
            },
            {
              "internalType": "uint256",
              "name": "rootsRoot",
              "type": "uint256"
            }
          ],
          "internalType": "struct IdentityLib.Roots",
          "name": "",
          "type": "tuple"
        }
      ],
      "stateMutability": "view",
      "type": "function"
    },
    {
      "inputs": [],
      "name": "getRootsTreeRoot",
      "outputs": [
        {
          "internalType": "uint256",
          "name": "",
          "type": "uint256"
        }
      ],
      "stateMutability": "view",
      "type": "function"
    },
    {
      "inputs": [],
      "name": "getSigners",
      "outputs": [
        {
          "internalType": "address[]",
          "name": "",
          "type": "address[]"
        }
      ],
      "stateMutability": "view",
      "type": "function"
    },
    {
      "inputs": [],
      "name": "getSmtDepth",
      "outputs": [
        {
          "internalType": "uint256",
          "name": "",
          "type": "uint256"
        }
      ],
      "stateMutability": "pure",
      "type": "function"
    },
    {
      "inputs": [],
      "name": "getTemplateRoot",
      "outputs": [
        {
          "internalType": "uint256",
          "name": "",
          "type": "uint256"
        }
      ],
      "stateMutability": "view",
      "type": "function"
    },
    {
      "inputs": [
        {
          "internalType": "address",
          "name": "_stateContractAddr",
          "type": "address"
        },
        {
          "internalType": "bytes2",
          "name": "idType",
          "type": "bytes2"
        }
      ],
      "name": "initialize",
      "outputs": [],
      "stateMutability": "nonpayable",
      "type": "function"
    },
    {
      "inputs": [
        {
          "internalType": "uint256",
          "name": "expirationTime",
          "type": "uint256"
        },
        {
          "internalType": "uint256",
          "name": "templateRoot",
          "type": "uint256"
        },
        {
          "internalType": "string[]",
          "name": "credentialCircuitIds",
          "type": "string[]"
        },
        {
          "internalType": "address[]",
          "name": "credentialVerifierAddresses",
          "type": "address[]"
        },
        {
          "internalType": "address[]",
          "name": "signers",
          "type": "address[]"
        },
        {
          "internalType": "address",
          "name": "stateAddress",
          "type": "address"
        },
        {
          "internalType": "bytes2",
          "name": "idType",
          "type": "bytes2"
        },
        {
          "internalType": "address",
          "name": "owner",
          "type": "address"
        }
      ],
      "name": "initialize",
      "outputs": [],
      "stateMutability": "nonpayable",
      "type": "function"
    },
    {
      "inputs": [
        {
          "internalType": "uint256",
          "name": "nullifier",
          "type": "uint256"
        }
      ],
      "name": "nullifierExists",
      "outputs": [
        {
          "internalType": "bool",
          "name": "",
          "type": "bool"
        }
      ],
      "stateMutability": "view",
      "type": "function"
    },
    {
      "inputs": [],
      "name": "owner",
      "outputs": [
        {
          "internalType": "address",
          "name": "",
          "type": "address"
        }
      ],
      "stateMutability": "view",
      "type": "function"
    },
    {
      "inputs": [],
      "name": "pendingOwner",
      "outputs": [
        {
          "internalType": "address",
          "name": "",
          "type": "address"
        }
      ],
      "stateMutability": "view",
      "type": "function"
    },
    {
      "inputs": [],
      "name": "renounceOwnership",
      "outputs": [],
      "stateMutability": "nonpayable",
      "type": "function"
    },
    {
      "inputs": [
        {
          "internalType": "uint256",
          "name": "expirationTime",
          "type": "uint256"
        }
      ],
      "name": "setExpirationTime",
      "outputs": [],
      "stateMutability": "nonpayable",
      "type": "function"
    },
    {
      "inputs": [
        {
          "internalType": "uint256",
          "name": "templateRoot",
          "type": "uint256"
        }
      ],
      "name": "setTemplateRoot",
      "outputs": [],
      "stateMutability": "nonpayable",
      "type": "function"
    },
    {
      "inputs": [
        {
          "components": [
            {
              "internalType": "uint64",
              "name": "requestId",
              "type": "uint64"
            },
            {
              "internalType": "bytes",
              "name": "zkProof",
              "type": "bytes"
            },
            {
              "internalType": "bytes",
              "name": "data",
              "type": "bytes"
            }
          ],
          "internalType": "struct IZKPVerifier.ZKPResponse[]",
          "name": "responses",
          "type": "tuple[]"
        },
        {
          "internalType": "bytes",
          "name": "crossChainProofs",
          "type": "bytes"
        }
      ],
      "name": "submitZKPResponseV2",
      "outputs": [],
      "stateMutability": "nonpayable",
      "type": "function"
    },
    {
      "inputs": [
        {
          "internalType": "bytes4",
          "name": "interfaceId",
          "type": "bytes4"
        }
      ],
      "name": "supportsInterface",
      "outputs": [
        {
          "internalType": "bool",
          "name": "",
          "type": "bool"
        }
      ],
      "stateMutability": "view",
      "type": "function"
    },
    {
      "inputs": [
        {
          "internalType": "address",
          "name": "newOwner",
          "type": "address"
        }
      ],
      "name": "transferOwnership",
      "outputs": [],
      "stateMutability": "nonpayable",
      "type": "function"
    },
    {
      "inputs": [
        {
          "internalType": "string[]",
          "name": "circuitIds",
          "type": "string[]"
        },
        {
          "internalType": "address[]",
          "name": "verifierAddresses",
          "type": "address[]"
        }
      ],
      "name": "updateCredentialVerifiers",
      "outputs": [],
      "stateMutability": "nonpayable",
      "type": "function"
    }
  ],
  "bytecode": "0x6080806040523460d2577ff0c57e16840df040f15088dc2f81fe391c3923bec73e23a9662efc9c229c6a005460ff8160401c1660c1576002600160401b03196001600160401b03821601605c575b60405161396790816100d88239f35b6001600160401b0319166001600160401b039081177ff0c57e16840df040f15088dc2f81fe391c3923bec73e23a9662efc9c229c6a005581527fc7f505b2f371ae2175ee4913f4499e1f2633a7b5936321eed1cdaeb6115181d290602090a13880604d565b63f92ee8a960e01b60005260046000fd5b600080fdfe6080604052600436101561001257600080fd5b6000803560e01c806233058d146124a157806301c85c771461243a57806301ffc9a7146123e3578063110c96a71461238357806326485063146122ed5780632afab62f146122b15780632c1d3204146122865780632d5c4f25146121ff578063310d0d5b146121785780633d59ec601461213b5780633df432fc1461209d5780633f0c664814612081578063406e8b4c1461204a578063443d753414611fc1578063523b813614611f845780635d1ca63114611f59578063715018a614611ed857806379ba509714611e8a57806384b0196e14611d3c5780638da5cb5b14611d0657806394cf795e14611c3a5780639674cfa414611bfd578063a635c78514611bd2578063aad7292114611b8e578063acb8cc4914611b72578063ade09fcd146110e2578063b354c2d814611087578063b37feda414610fc9578063b57a40cb14610f43578063b8db687114610e78578063badf055d14610e15578063c0cc365d14610dba578063c1e3273314610d33578063c6365a3b14610cf6578063cfa350c814610c99578063d622ea6e14610c3b578063d94b027114610b94578063da68a0b114610ae8578063da93654014610aad578063e23a845a14610a82578063e26ecb0b146109b5578063e30c39781461097f578063e8906a2d1461093a578063ef801d6314610338578063f2fde38b146102b0578063f84c7c1e1461026e5763ffa1ad741461022157600080fd5b3461026b578060031936011261026b576102676040805190610243818361275d565b6005825264312e302e3160d81b6020830152519182916020835260208301906126b5565b0390f35b80fd5b503461026b578060031936011261026b57602060ff7f3018a310c36c4f8228f09bf3b1822685cf0971daa8265a58ca807c4a4daba40254166040519015158152f35b503461026b57602036600319011261026b576102ca61267c565b6102d261305c565b60008051602061391283398151915280546001600160a01b0319166001600160a01b03928316908117909155600080516020613852833981519152549091167f38d16b8cac22d99fc7c124b9cd0de2d3fa1faef420bfe791d8c362d765e227008380a380f35b503461026b5761010036600319011261026b576044356001600160401b0381116109365761036a903690600401612860565b6064929192356001600160401b0381116109325761038c903690600401612860565b906084356001600160401b03811161092e576103ac903690600401612860565b909560a43594916001600160a01b038616860361092a5760c4356001600160f01b0319811681036109265760e435906001600160a01b03821690818303610922576000805160206138d2833981519152549860ff8a60401c1615996001600160401b0381168015908161091a575b6001149081610910575b159081610907575b506108f85767ffffffffffffffff1981166001176000805160206138d2833981519152556104629291908b6108cb575b50612aa3565b61046a613540565b610472613540565b156108b75761048090613092565b600435600080516020613892833981519152556024356000805160206138b28339815191525560016000805160206137d2833981519152556104c061280b565b976040516104cf60408261275d565b601081526f50617373706f7274497373756572563160801b60208201526104f4613540565b6104fc613540565b8051906001600160401b0382116108a35761052560008051602061383283398151915254612db9565b601f8111610833575b50602090601f83116001146107b45761055f92918b918361069d575b50508160011b916000199060031b1c19161790565b600080516020613832833981519152555b88516001600160401b0381116107a05761059860008051602061387283398151915254612db9565b601f8111610730575b506020601f82116001146106a857816106379493926105db928c9d61063c9c9d9261069d5750508160011b916000199060031b1c19161790565b600080516020613872833981519152555b897fa16a46d94261c7517cc8ff89f61c0ce93598e3c849801011dee649a6a557d10055897fa16a46d94261c7517cc8ff89f61c0ce93598e3c849801011dee649a6a557d101556134a0565b61319d565b6106435780f35b68ff0000000000000000196000805160206138d283398151915254166000805160206138d2833981519152557fc7f505b2f371ae2175ee4913f4499e1f2633a7b5936321eed1cdaeb6115181d2602060405160018152a180f35b01519050388061054a565b6000805160206138728339815191528a52808a209a601f1983168b5b81811061071857509b600192849261063797969561063c9d9e9f106106ff575b505050811b01600080516020613872833981519152556105ec565b015160001960f88460031b161c191690553880806106e4565b838301518e556001909d019c602093840193016106c4565b6000805160206138728339815191528a527f5f9ce34815f8e11431c7bb75a8e6886a91478f7ffc1dbb0a98dc240fddd76b75601f830160051c81019160208410610796575b601f0160051c01905b81811061078b57506105a1565b8a815560010161077e565b9091508190610775565b634e487b7160e01b89526041600452602489fd5b6000805160206138328339815191528b52818b209190601f1984168c5b81811061081b5750908460019594939210610802575b505050811b0160008051602061383283398151915255610570565b015160001960f88460031b161c191690553880806107e7565b929360206001819287860151815501950193016107d1565b6000805160206138328339815191528b527f42ad5d3e1f2e6e70edcf6d991b8a3023d3fca8047a131592f9edb9fd9b89d57d601f840160051c81019160208510610899575b601f0160051c01905b81811061088e575061052e565b8b8155600101610881565b9091508190610878565b634e487b7160e01b8a52604160045260248afd5b631e4fbdf760e01b88526004889052602488fd5b68ffffffffffffffffff191668010000000000000001176000805160206138d2833981519152553861045c565b63f92ee8a960e01b8c5260048cfd5b9050153861042c565b303b159150610424565b8c915061041a565b8980fd5b8780fd5b8680fd5b8480fd5b8280fd5b5080fd5b503461026b57602036600319011261026b576004356001600160401b0381116109365761096e61097c913690600401612860565b9061097761305c565b6134a0565b80f35b503461026b578060031936011261026b57600080516020613912833981519152546040516001600160a01b039091168152602090f35b503461026b57604036600319011261026b576109cf612539565b6109d7612890565b506001600160401b0360405191630b2bcd1b60e11b83526000805160206138f283398151915260048401521660248201526024356044820152818160648173__$068aad146bf104111ba65c4a1de2cd0e23$__5af4908115610a7757826102679392610a54575b505060405191829160208352602083019061254f565b610a7092503d8091833e610a68818361275d565b810190612a7e565b3880610a3e565b6040513d84823e3d90fd5b503461026b578060031936011261026b57602060008051602061389283398151915254604051908152f35b503461026b578060031936011261026b5760206040517f0d2a15c3140485b6db2a8c0f755486294daaae1eabcdd518f6beaf8e4ab4d8348152f35b503461026b578060031936011261026b57604051631e75e7f360e01b81526000805160206138f283398151915260048201529060208260248173__$068aad146bf104111ba65c4a1de2cd0e23$__5af4908115610b885790610b50575b602090604051908152f35b506020813d602011610b80575b81610b6a6020938361275d565b81010312610b7b5760209051610b45565b600080fd5b3d9150610b5d565b604051903d90823e3d90fd5b503461026b57602036600319011261026b57600435610bb161305c565b80825260008051602061381283398151915260205260ff60408320541615610bf657815260008051602061381283398151915260205260408120805460ff1916905580f35b60405162461bcd60e51b815260206004820152601860248201527f4e756c6c696669657220646f6573206e6f7420657869737400000000000000006044820152606490fd5b503461026b57602036600319011261026b57610c8560406102679260043581527fd64ab600136c76c630ed81a54cc1acbcc213dadb956fdd8687dc5ebb0bb5f50460205220612f75565b6040519182916020835260208301906126b5565b503461026b57610cc460208092610caf366127d0565b90508160405193828580945193849201612692565b81017fd64ab600136c76c630ed81a54cc1acbcc213dadb956fdd8687dc5ebb0bb5f50581520301902054604051908152f35b503461026b578060031936011261026b5760207f3018a310c36c4f8228f09bf3b1822685cf0971daa8265a58ca807c4a4daba49c54604051908152f35b503461026b57602036600319011261026b57610d4d612890565b506040516397ac539160e01b81526000805160206138f283398151915260048201526004356024820152818160448173__$068aad146bf104111ba65c4a1de2cd0e23$__5af4908115610a7757826102679392610a5457505060405191829160208352602083019061254f565b503461026b57602036600319011261026b577f7f7f3071c3c286700c199acae2fe071beb4a63dae1afff85186fa75d18090ae86020600435610dfa61305c565b8060008051602061389283398151915255604051908152a180f35b503461026b57604036600319011261026b576004356001600160401b03811161093657610e46903690600401612860565b602435916001600160401b038311610e7457610e6961097c933690600401612860565b92909161063761305c565b8380fd5b503461026b57602036600319011261026b578060408051610e98816126da565b8281528260208201520152604051630b1a9cd360e01b81526000805160206138f28339815191526004820152600435602482015260608160448173__$068aad146bf104111ba65c4a1de2cd0e23$__5af4908115610a775760609291610f16575b506040805191805183526020810151602084015201516040820152f35b610f369150823d8411610f3c575b610f2e818361275d565b810190612b83565b38610ef9565b503d610f24565b503461026b57602036600319011261026b57610f5d612890565b50604051620cf08960e41b81526000805160206138f283398151915260048201526004356024820152818160448173__$068aad146bf104111ba65c4a1de2cd0e23$__5af4908115610a7757826102679392610a5457505060405191829160208352602083019061254f565b503461026b57602036600319011261026b57610fe3612890565b50610fec6128ce565b5060405190636ad1d8a760e11b82526000805160206138f283398151915260048301526004356024830152808260448173__$068aad146bf104111ba65c4a1de2cd0e23$__5af491821561107a57818093611053575b5050610267604051928392836125dc565b90915061107292503d8091833e61106a818361275d565b8101906129ee565b903880611042565b50604051903d90823e3d90fd5b503461026b57602036600319011261026b577ff007a02ba428e63fa98b65269e70f9a9db847e0a839049a2f31f06928226773460206004356110c761305c565b806000805160206138b283398151915255604051908152a180f35b503461026b57604036600319011261026b57600435906001600160401b03821161026b573660238301121561026b57816004013561111f8161282e565b9261112d604051948561275d565b8184526024602085019260051b82010190368211610e745760248101925b828410611ace5785856024356001600160401b03811161093657611173903690600401612845565b91805160018103611ab757506001600160401b0361119082612d96565b51511682527fd64ab600136c76c630ed81a54cc1acbcc213dadb956fdd8687dc5ebb0bb5f5046020526111c560408320612f75565b90815115611a91576111d8602091612d96565b51015180518101906101208160208401930312610e745760208101516001600160401b03811161092e5782602061121192840101612900565b9461121f8360408401613017565b9083609f84011215611a8d5760409384519361123b868661275d565b84610100820191838311610922576080889101915b838310611a73575050509061126491613017565b9084519760c089018981106001600160401b038211176107a057865261128981612d96565b518952805160011015611a5f578581015160208a0152805160021015611a5f576060810151868a0152805160031015611a5f57608081015160608a0152805160041015611a5f5760a081015160808a0152805160051015611a5f5760c0015160a08901528451926112f98461270b565b83526020830193845284830191825260608301978852805181016020810191602081830312611a5b576020810151906001600160401b038211610922570182603f82011215611a5b5760208101516113508161282e565b9361135d8951958661275d565b8185526020808087019360051b8501010192818411611a5757898101925b84841061197f5750505050505061139190612d96565b51946001600160a01b03906113a590612b3e565b54169182156119705751925190518751855163f398789b60e01b8152948593919291906113d6906004860190613518565b8887604486015b6002831061194a57505050506113f79060c4840190613518565b8661010483015b60068210611930575050506101c4816020935afa9081156119265784916118ec575b50156118de576114fe825160426020850151916020815191015185519060208201927f0d2a15c3140485b6db2a8c0f755486294daaae1eabcdd518f6beaf8e4ab4d83484528783015260608201526060815261147d60808261275d565b519020611488613722565b61149061378c565b86519060208201927f8b73c3c69bb8fe3d512ecc4cf759cc79239f7b179b0ffacaa9a75d522b39400f84528883015260608201524660808201523060a082015260a081526114df60c08261275d565b5190209085519161190160f01b8352600283015260228201522061365d565b5060048110156118ca576118bb576001600160a01b03168084527fd64ab600136c76c630ed81a54cc1acbcc213dadb956fdd8687dc5ebb0bb5f50860205281842054156118a95750835151936020815101519260808251015190606083510151908460a0855101519451015190519360208501519451908915611895578715611881576000805160206138b2833981519152549081810361186c5750508181036118545750506207a12081111561183157630121eac0810180821161181d575b62093a7f1942014281116118095762015180900462023ab162264965820160021b0590600460038362023ab10201059003906226496562164b09622649668401610fa00205926004846105b5020590030161098f601f82016050020592600b840590600282600c02860301936030190160640201019261271084029380850461271014901517156117f5576064830292808404606414901517156117f55791601f61167892605061167d969561098f02059003019261356e565b61356e565b116117e357504261169d600080516020613892833981519152548361356e565b106117d2575080845260008051602061381283398151915260205260ff82852054166117c0578352600080516020613812833981519152602052808320805460ff1916600117905573__$068aad146bf104111ba65c4a1de2cd0e23$__91823b15610e74578151946306fb157560e01b86526000805160206138f28339815191526004870152602486015260448501528284606481855af480156117b6576117a1575b829350813b1561179d578260249282519384809263175ba3e960e11b82526000805160206138f283398151915260048301525af490811561179457506117835750f35b8161178d9161275d565b61026b5780f35b513d84823e3d90fd5b5050fd5b919092816117ae9161275d565b908290611740565b81513d85823e3d90fd5b635377438b60e11b8452600452602483fd5b62bd09f160e11b8552600452602484fd5b635d5e30bf60e01b8652600452602485fd5b634e487b7160e01b8b52601160045260248bfd5b634e487b7160e01b88526011600452602488fd5b634e487b7160e01b87526011600452602487fd5b6301312d008101808211156115be57634e487b7160e01b87526011600452602487fd5b6001621d0d8360e21b03198852600452602452604486fd5b63e748379160e01b8a52600452602452604488fd5b634bdc991b60e11b89526004889052602489fd5b631b1aad8760e11b895260048a9052602489fd5b631432861160e31b8452600452602483fd5b63df2b56ff60e01b8452600484fd5b634e487b7160e01b85526021600452602485fd5b6281723b60e21b8352600483fd5b90506020813d60201161191e575b816119076020938361275d565b81010312610e7457611918906128f3565b85611420565b3d91506118fa565b82513d86823e3d90fd5b8293506020809160019394518152019301910184926113fe565b839495965090816119616020936001959651613518565b019301910187879594936113dd565b6301dcf1ab60e31b8752600487fd5b83516001600160401b038111611a53578201808703601f19019060200160608212611a4b578c8051926119b184612726565b12611a4b578c516119c181612726565b602082015181528d820151602082015282526060810151906001600160401b038211611a4f5790602091010184601f82011215611a4b5780518d91611a11611a088361277e565b9351938461275d565b8183528660208383010111611a465791611a376020959392869593868085019101612692565b8382015281520193019261137b565b508f80fd5b8e80fd5b8f80fd5b8d80fd5b8b80fd5b8880fd5b634e487b7160e01b88526032600452602488fd5b602090611a808685613017565b8152019101908790611250565b8580fd5b826001600160401b03611aa5602493612d96565b515163ea99bbcd60e01b835216600452fd5b630264a11560e21b83526004526001602452604482fd5b83356001600160401b038111611a8d57820160606023198236030112611a8d5760405190611afb826126da565b60248101356001600160401b038116810361092657825260448101356001600160401b03811161092657611b359060243691840101612845565b602083015260648101356001600160401b0381116109265791611b62602094926024869536920101612845565b604082015281520193019261114b565b503461026b578060031936011261026b57610267610c8561280b565b503461026b57606036600319011261026b57604435906001600160401b038216820361026b57610267611bc683602435600435612bb4565b6040519182918261261d565b503461026b5760206001600160a01b03611bf3611bee366127d0565b612b3e565b5416604051908152f35b503461026b578060031936011261026b5760207f3018a310c36c4f8228f09bf3b1822685cf0971daa8265a58ca807c4a4daba49b54604051908152f35b503461026b578060031936011261026b576040516000805160206137f28339815191528054808352908352602082019081907f2d1221f3b50c4fa9e819d9409efdaee3e42b3167fda085f88cca66da2b6f319f90855b818110611cf05750505082611ca691038361275d565b604051928392602084019060208552518091526040840192915b818110611cce575050500390f35b82516001600160a01b0316845285945060209384019390920191600101611cc0565b8254845260209093019260019283019201611c90565b503461026b578060031936011261026b57600080516020613852833981519152546040516001600160a01b039091168152602090f35b503461026b578060031936011261026b577fa16a46d94261c7517cc8ff89f61c0ce93598e3c849801011dee649a6a557d100541580611e61575b15611e2457611dc890611d87612df3565b90611d90612ec4565b906020611dd660405193611da4838661275d565b83855283368137604051968796600f60f81b885260e08589015260e08801906126b5565b9086820360408801526126b5565b904660608601523060808601528260a086015284820360c08601528080855193848152019401925b828110611e0d57505050500390f35b835185528695509381019392810192600101611dfe565b60405162461bcd60e51b81526020600482015260156024820152741152540dcc4c8e88155b9a5b9a5d1a585b1a5e9959605a1b6044820152606490fd5b507fa16a46d94261c7517cc8ff89f61c0ce93598e3c849801011dee649a6a557d1015415611d76565b503461026b578060031936011261026b5760008051602061391283398151915254336001600160a01b0390911603611ec55761097c33613092565b63118cdaa760e01b815233600452602490fd5b503461026b578060031936011261026b57611ef161305c565b60008051602061391283398151915280546001600160a01b03199081169091556000805160206138528339815191528054918216905581906001600160a01b03167f8be0079c531659141344cd1fd0a4f28419497f9722a3daafe3b4186f6b6457e08280a380f35b503461026b578060031936011261026b5760206000805160206138f283398151915254604051908152f35b503461026b578060031936011261026b5760207f3018a310c36c4f8228f09bf3b1822685cf0971daa8265a58ca807c4a4daba49a54604051908152f35b503461026b57602036600319011261026b57611fdb612890565b50611fe46128ce565b506040519063a3018d7960e01b82526000805160206138f283398151915260048301526004356024830152808260448173__$068aad146bf104111ba65c4a1de2cd0e23$__5af491821561107a57818093611053575050610267604051928392836125dc565b503461026b57604036600319011261026b5761206461267c565b6024356001600160f01b0319811681036109325761097c91612aa3565b503461026b578060031936011261026b57602060405160288152f35b503461026b578060031936011261026b57604051631b8bf99b60e21b81526000805160206138f2833981519152600482015260208160248173__$068aad146bf104111ba65c4a1de2cd0e23$__5af4908115610a77578291612105575b602082604051908152f35b90506020813d602011612133575b816121206020938361275d565b81010312610936576020915051386120fa565b3d9150612113565b503461026b578060031936011261026b5760207f3018a310c36c4f8228f09bf3b1822685cf0971daa8265a58ca807c4a4daba40154604051908152f35b503461026b5761218736612666565b61218f612890565b5060405191636ac0c5c760e11b83526000805160206138f2833981519152600484015260248301526044820152818160648173__$068aad146bf104111ba65c4a1de2cd0e23$__5af4908115610a7757826102679392610a5457505060405191829160208352602083019061254f565b503461026b5761220e36612666565b612216612890565b506040519163d55da6a360e01b83526000805160206138f2833981519152600484015260248301526044820152818160648173__$068aad146bf104111ba65c4a1de2cd0e23$__5af4908115610a7757826102679392610a5457505060405191829160208352602083019061254f565b503461026b578060031936011261026b5760206000805160206138b283398151915254604051908152f35b503461026b57602036600319011261026b5760ff6040602092600435815260008051602061381283398151915284522054166040519015158152f35b503461026b57602036600319011261026b57612307612539565b61230f612890565b506001600160401b0360405191637d0aba4f60e01b83526000805160206138f28339815191526004840152166024820152818160448173__$068aad146bf104111ba65c4a1de2cd0e23$__5af4908115610a7757826102679392610a5457505060405191829160208352602083019061254f565b503461026b57604036600319011261026b57602435906001600160401b038216820361026b57610267611bc6836123b8612a57565b507f3018a310c36c4f8228f09bf3b1822685cf0971daa8265a58ca807c4a4daba40154600435612bb4565b503461026b57602036600319011261026b5760043563ffffffff60e01b811680910361093657602090635d1ca63160e01b8114908115612429575b506040519015158152f35b6301ffc9a760e01b1490508261241e565b503461026b578060031936011261026b5760405163765c2c6160e01b81526000805160206138f2833981519152600482015260208160248173__$068aad146bf104111ba65c4a1de2cd0e23$__5af4908115610a7757829161210557602082604051908152f35b503461026b57602036600319011261026b576124bb612539565b906124c4612890565b506124cd6128ce565b506001600160401b0360405192631f17004d60e31b84526000805160206138f28339815191526004850152166024830152808260448173__$068aad146bf104111ba65c4a1de2cd0e23$__5af491821561107a57818093611053575050610267604051928392836125dc565b600435906001600160401b0382168203610b7b57565b9061010081019180518252602081015115156020830152604081015192610100604084015283518091526020610120840194019060005b8181106125c65750505060e08160608293015160608501526080810151608085015260a0810151151560a085015260c081015160c0850152015191015290565b8251865260209586019590920191600101612586565b929160206125f561261b9360a0875260a087019061254f565b940190606080918051845260208101516020850152604081015160408501520151910152565b565b60c06020612663938184526126538285018251606080918051845260208101516020850152604081015160408501520151910152565b01519160a080820152019061254f565b90565b6040906003190112610b7b576004359060243590565b600435906001600160a01b0382168203610b7b57565b60005b8381106126a55750506000910152565b8181015183820152602001612695565b906020916126ce81518092818552858086019101612692565b601f01601f1916010190565b606081019081106001600160401b038211176126f557604052565b634e487b7160e01b600052604160045260246000fd5b608081019081106001600160401b038211176126f557604052565b604081019081106001600160401b038211176126f557604052565b61010081019081106001600160401b038211176126f557604052565b90601f801991011681019081106001600160401b038211176126f557604052565b6001600160401b0381116126f557601f01601f191660200190565b9291926127a58261277e565b916127b3604051938461275d565b829481845281830111610b7b578281602093846000960137010152565b6020600319820112610b7b57600435906001600160401b038211610b7b5780602383011215610b7b5781602461266393600401359101612799565b6040519061281a60408361275d565b60058252640312e302e360dc1b6020830152565b6001600160401b0381116126f55760051b60200190565b9080601f83011215610b7b5781602061266393359101612799565b9181601f84011215610b7b578235916001600160401b038311610b7b576020808501948460051b010111610b7b57565b6040519061289d82612741565b600060e083828152826020820152606060408201528260608201528260808201528260a08201528260c08201520152565b604051906128db8261270b565b60006060838281528260208201528260408201520152565b51908115158203610b7b57565b9080601f83011215610b7b5781516129178161282e565b92612925604051948561275d565b81845260208085019260051b820101928311610b7b57602001905b82821061294d5750505090565b8151815260209182019101612940565b91909161010081840312610b7b576040519061297882612741565b81938151835261298a602083016128f3565b60208401526040820151916001600160401b038311610b7b576129b360e0939284938301612900565b604085015260608101516060850152608081015160808501526129d860a082016128f3565b60a085015260c081015160c08501520151910152565b808203929160a08412610b7b5781516001600160401b038111610b7b57608091612a1991840161295d565b93601f190112610b7b57608060405191612a328361270b565b6020810151835260408101516020840152606081015160408401520151606082015290565b60405190612a6482612726565b81612a6d6128ce565b81526020612a79612890565b910152565b90602082820312610b7b5781516001600160401b038111610b7b57612663920161295d565b73__$068aad146bf104111ba65c4a1de2cd0e23$__91823b15610b7b576040516359a6069160e01b81526000805160206138f283398151915260048201526001600160a01b039092166024830152306044830152602860648301526001600160f01b031916608482015290600090829060a49082905af48015612b3257612b275750565b600061261b9161275d565b6040513d6000823e3d90fd5b6020612b57918160405193828580945193849201612692565b81017fd64ab600136c76c630ed81a54cc1acbcc213dadb956fdd8687dc5ebb0bb5f50381520301902090565b90816060910312610b7b576040805191612b9c836126da565b80518352602081015160208401520151604082015290565b919091612bbf612a57565b506000805160206138f28339815191525403612d5a5773__$068aad146bf104111ba65c4a1de2cd0e23$__90604051630b1a9cd360e01b81526000805160206138f28339815191526004820152836024820152606081604481865af4908115612b32576000926001600160401b03926064928591612d3b575b5060408101516020825192019182519060405199612c558b61270b565b8a5260208a01526040890152606088015251946040519586948593630b2bcd1b60e11b85526000805160206138f2833981519152600486015216602484015260448301525af4908115612b3257600091612d22575b5080519060208101511515906040810151606082015160808301519060a084015115159260e060c08601519501519560405197612ce689612741565b8852602088015260408701526060860152608085015260a084015260c083015260e082015260405191612d1883612726565b8252602082015290565b612d35913d8091833e610a68818361275d565b38612caa565b612d54915060603d606011610f3c57610f2e818361275d565b38612c38565b60405162461bcd60e51b8152602060048201526014602482015273092c8cadce8d2e8f240d2c840dad2e6dac2e8c6d60631b6044820152606490fd5b805115612da35760200190565b634e487b7160e01b600052603260045260246000fd5b90600182811c92168015612de9575b6020831014612dd357565b634e487b7160e01b600052602260045260246000fd5b91607f1691612dc8565b604051906000826000805160206138328339815191525491612e1483612db9565b8083529260018116908115612ea55750600114612e38575b61261b9250038361275d565b50600080516020613832833981519152600090815290917f42ad5d3e1f2e6e70edcf6d991b8a3023d3fca8047a131592f9edb9fd9b89d57d5b818310612e8957505090602061261b92820101612e2c565b6020919350806001915483858901015201910190918492612e71565b6020925061261b94915060ff191682840152151560051b820101612e2c565b604051906000826000805160206138728339815191525491612ee583612db9565b8083529260018116908115612ea55750600114612f085761261b9250038361275d565b50600080516020613872833981519152600090815290917f5f9ce34815f8e11431c7bb75a8e6886a91478f7ffc1dbb0a98dc240fddd76b755b818310612f5957505090602061261b92820101612e2c565b6020919350806001915483858901015201910190918492612f41565b9060405191826000825492612f8984612db9565b8084529360018116908115612ff55750600114612fae575b5061261b9250038361275d565b90506000929192526020600020906000915b818310612fd957505090602061261b9282010138612fa1565b6020919350806001915483858901015201910190918492612fc0565b90506020925061261b94915060ff191682840152151560051b82010138612fa1565b9080601f83011215610b7b576040805192613032828561275d565b83918101928311610b7b57905b82821061304c5750505090565b815181526020918201910161303f565b600080516020613852833981519152546001600160a01b0316330361307d57565b63118cdaa760e01b6000523360045260246000fd5b60008051602061391283398151915280546001600160a01b031990811690915560008051602061385283398151915280549182166001600160a01b0393841690811790915591167f8be0079c531659141344cd1fd0a4f28419497f9722a3daafe3b4186f6b6457e0600080a3565b9190811015612da35760051b0190565b356001600160a01b0381168103610b7b5790565b9190811015612da35760051b81013590601e1981360301821215610b7b5701908135916001600160401b038311610b7b576020018236038113610b7b579190565b60209082604051938492833781017fd64ab600136c76c630ed81a54cc1acbcc213dadb956fdd8687dc5ebb0bb5f50581520301902090565b929091928183036134875760005b8381106131b9575050505050565b6131cc6131c7828588613100565b613110565b60206131d9838786613124565b919082604051938492833781017fd64ab600136c76c630ed81a54cc1acbcc213dadb956fdd8687dc5ebb0bb5f5038152030190209060018060a01b03166bffffffffffffffffffffffff60a01b825416179055828561324261323c848887613124565b90613165565b548681156132d0575b7f17b20bbf8df0ff1422db2abe4b28c298e32929a2d112f027c3f68d488cf3cf7492858095936132906131c761328660019a6080978d613124565b9788959196613100565b60405195869460608652816060870152868601376000858486010152888060a01b031660208401526040830152601f80199101168101030190a1016131ab565b505050506000805160206137d28339815191525490816132f461323c838887613124565b55613300818685613124565b836000527fd64ab600136c76c630ed81a54cc1acbcc213dadb956fdd8687dc5ebb0bb5f5046020526040600020916001600160401b0382116126f5576133468354612db9565b601f811161343f575b50600090601f83116001146133db576133809291600091836133d05750508160011b916000199060031b1c19161790565b90555b6000805160206137d28339815191525460001981146133ba576001016000805160206137d28339815191525590839086908661324b565b634e487b7160e01b600052601160045260246000fd5b01359050388061054a565b8382526020822091601f198416815b818110613427575090846001959493921061340d575b505050811b019055613383565b0135600019600384901b60f8161c19169055388080613400565b919360206001819287870135815501950192016133ea565b836000526020600020601f840160051c8101916020851061347d575b601f0160051c01905b818110613471575061334f565b60008155600101613464565b909150819061345b565b50906355c5b3e360e11b60005260045260245260446000fd5b9060005b8181106134b057505050565b6001906134d26001600160a01b036134cc6131c7848789613100565b1661357b565b507f47d1c22a25bb3a5d4e481b9b1e6944c2eade3181a0a20b495ed61d35b5323f2460206135046131c7848789613100565b60405190858060a01b03168152a1016134a4565b906000905b6002821061352a57505050565b602080600192855181520193019101909161351d565b60ff6000805160206138d28339815191525460401c161561355d57565b631afcd79f60e31b60005260046000fd5b919082018092116133ba57565b806000527fd64ab600136c76c630ed81a54cc1acbcc213dadb956fdd8687dc5ebb0bb5f50860205260406000205415600014613657576000805160206137f283398151915254680100000000000000008110156126f55760018101806000805160206137f283398151915255811015612da3577f2d1221f3b50c4fa9e819d9409efdaee3e42b3167fda085f88cca66da2b6f319f018190556000805160206137f28339815191525460009182527fd64ab600136c76c630ed81a54cc1acbcc213dadb956fdd8687dc5ebb0bb5f508602052604090912055600190565b50600090565b815191906041830361368e5761368792506020820151906060604084015193015160001a90613699565b9192909190565b505060009160029190565b91907f7fffffffffffffffffffffffffffffff5d576e7357a4501ddfe92f46681b20a08411613716579160209360809260ff60009560405194855216868401526040830152606082015282805260015afa15612b32576000516001600160a01b0381161561370a5790600090600090565b50600090600190600090565b50505060009160039190565b61372a612df3565b805190811561373a576020012090565b50507fa16a46d94261c7517cc8ff89f61c0ce93598e3c849801011dee649a6a557d1005480156137675790565b507fc5d2460186f7233c927e7db2dcc703c0e500b653ca82273b7bfad8045d85a47090565b613794612ec4565b80519081156137a4576020012090565b50507fa16a46d94261c7517cc8ff89f61c0ce93598e3c849801011dee649a6a557d101548015613767579056fed64ab600136c76c630ed81a54cc1acbcc213dadb956fdd8687dc5ebb0bb5f506d64ab600136c76c630ed81a54cc1acbcc213dadb956fdd8687dc5ebb0bb5f507d64ab600136c76c630ed81a54cc1acbcc213dadb956fdd8687dc5ebb0bb5f502a16a46d94261c7517cc8ff89f61c0ce93598e3c849801011dee649a6a557d1029016d09d72d40fdae2fd8ceac6b6234c7706214fd39c1cd1e609a0528c199300a16a46d94261c7517cc8ff89f61c0ce93598e3c849801011dee649a6a557d103d64ab600136c76c630ed81a54cc1acbcc213dadb956fdd8687dc5ebb0bb5f500d64ab600136c76c630ed81a54cc1acbcc213dadb956fdd8687dc5ebb0bb5f501f0c57e16840df040f15088dc2f81fe391c3923bec73e23a9662efc9c229c6a003018a310c36c4f8228f09bf3b1822685cf0971daa8265a58ca807c4a4daba400237e158222e3e6968b72b9db0d8043aacf074ad9f650f0d1606b4d82ee432c00a26469706673582212202ba98645acb9f8183a5b146663e562bba542c06cc6ac34ef6488f9869784e90c64736f6c634300081b0033",
  "linkReferences": {
    "@iden3/contracts/lib/IdentityLib.sol": {
      "IdentityLib": [
        {
          "length": 20,
          "start": 2799
        },
        {
          "length": 20,
          "start": 3067
        },
        {
          "length": 20,
          "start": 3670
        },
        {
          "length": 20,
          "start": 4012
        },
        {
          "length": 20,
          "start": 4197
        },
        {
          "length": 20,
          "start": 4342
        },
        {
          "length": 20,
          "start": 6079
        },
        {
          "length": 20,
          "start": 8430
        },
        {
          "length": 20,
          "start": 8623
        },
        {
          "length": 20,
          "start": 8859
        },
        {
          "length": 20,
          "start": 8994
        },
        {
          "length": 20,
          "start": 9247
        },
        {
          "length": 20,
          "start": 9548
        },
        {
          "length": 20,
          "start": 9693
        },
        {
          "length": 20,
          "start": 11133
        },
        {
          "length": 20,
          "start": 11439
        }
      ]
    }
  },
  "deployedLinkReferences": {
    "@iden3/contracts/lib/IdentityLib.sol": {
      "IdentityLib": [
        {
          "length": 20,
          "start": 2583
        },
        {
          "length": 20,
          "start": 2851
        },
        {
          "length": 20,
          "start": 3454
        },
        {
          "length": 20,
          "start": 3796
        },
        {
          "length": 20,
          "start": 3981
        },
        {
          "length": 20,
          "start": 4126
        },
        {
          "length": 20,
          "start": 5863
        },
        {
          "length": 20,
          "start": 8214
        },
        {
          "length": 20,
          "start": 8407
        },
        {
          "length": 20,
          "start": 8643
        },
        {
          "length": 20,
          "start": 8778
        },
        {
          "length": 20,
          "start": 9031
        },
        {
          "length": 20,
          "start": 9332
        },
        {
          "length": 20,
          "start": 9477
        },
        {
          "length": 20,
          "start": 10917
        },
        {
          "length": 20,
          "start": 11223
        }
      ]
    }
  }
}