{
  "_format": "hh-sol-artifact-1",
  "contractName": "PassportCredentialIssuerImplV1",
  "sourceName": "contracts/verifiers/PassportCredentialIssuerImplV1.sol",
  "abi": [
    {
      "inputs": [],
      "stateMutability": "nonpayable",
      "type": "constructor"
    },
    {
      "inputs": [
        {
          "internalType": "address",
          "name": "target",
          "type": "address"
        }
      ],
      "name": "AddressEmptyCode",
      "type": "error"
    },
    {
      "inputs": [
        {
          "internalType": "address",
          "name": "implementation",
          "type": "address"
        }
      ],
      "name": "ERC1967InvalidImplementation",
      "type": "error"
    },
    {
      "inputs": [],
      "name": "ERC1967NonPayable",
      "type": "error"
    },
    {
      "inputs": [],
      "name": "FailedCall",
      "type": "error"
    },
    {
      "inputs": [],
      "name": "InvalidCredentialProof",
      "type": "error"
    },
    {
      "inputs": [],
      "name": "InvalidDscCommitmentRoot",
      "type": "error"
    },
    {
      "inputs": [
        {
          "internalType": "uint256",
          "name": "hashIndex",
          "type": "uint256"
        }
      ],
      "name": "InvalidHashIndex",
      "type": "error"
    },
    {
      "inputs": [
        {
          "internalType": "uint256",
          "name": "hashValue",
          "type": "uint256"
        }
      ],
      "name": "InvalidHashValue",
      "type": "error"
    },
    {
      "inputs": [],
      "name": "InvalidInitialization",
      "type": "error"
    },
    {
      "inputs": [
        {
          "internalType": "uint256",
          "name": "linkId1",
          "type": "uint256"
        },
        {
          "internalType": "uint256",
          "name": "linkId2",
          "type": "uint256"
        }
      ],
      "name": "InvalidLinkId",
      "type": "error"
    },
    {
      "inputs": [
        {
          "internalType": "uint256",
          "name": "length",
          "type": "uint256"
        },
        {
          "internalType": "uint256",
          "name": "expectedLength",
          "type": "uint256"
        }
      ],
      "name": "InvalidResponsesLength",
      "type": "error"
    },
    {
      "inputs": [],
      "name": "InvalidSignatureProof",
      "type": "error"
    },
    {
      "inputs": [
        {
          "internalType": "uint256",
          "name": "templateRoot",
          "type": "uint256"
        },
        {
          "internalType": "uint256",
          "name": "expectedTemplateRoot",
          "type": "uint256"
        }
      ],
      "name": "InvalidTemplateRoot",
      "type": "error"
    },
    {
      "inputs": [
        {
          "internalType": "uint256",
          "name": "issuanceDate",
          "type": "uint256"
        }
      ],
      "name": "IssuanceDateExpired",
      "type": "error"
    },
    {
      "inputs": [
        {
          "internalType": "uint256",
          "name": "length1",
          "type": "uint256"
        },
        {
          "internalType": "uint256",
          "name": "length2",
          "type": "uint256"
        }
      ],
      "name": "LengthMismatch",
      "type": "error"
    },
    {
      "inputs": [
        {
          "internalType": "uint256",
          "name": "requestId",
          "type": "uint256"
        }
      ],
      "name": "NoCredentialCircuitForRequestId",
      "type": "error"
    },
    {
      "inputs": [
        {
          "internalType": "uint256",
          "name": "requestId",
          "type": "uint256"
        }
      ],
      "name": "NoSignatureCircuitForRequestId",
      "type": "error"
    },
    {
      "inputs": [],
      "name": "NoVerifierSet",
      "type": "error"
    },
    {
      "inputs": [],
      "name": "NotInitializing",
      "type": "error"
    },
    {
      "inputs": [
        {
          "internalType": "uint256",
          "name": "nullifier",
          "type": "uint256"
        }
      ],
      "name": "NullifierAlreadyExists",
      "type": "error"
    },
    {
      "inputs": [
        {
          "internalType": "address",
          "name": "owner",
          "type": "address"
        }
      ],
      "name": "OwnableInvalidOwner",
      "type": "error"
    },
    {
      "inputs": [
        {
          "internalType": "address",
          "name": "account",
          "type": "address"
        }
      ],
      "name": "OwnableUnauthorizedAccount",
      "type": "error"
    },
    {
      "inputs": [],
      "name": "UUPSUnauthorizedCallContext",
      "type": "error"
    },
    {
      "inputs": [
        {
          "internalType": "bytes32",
          "name": "slot",
          "type": "bytes32"
        }
      ],
      "name": "UUPSUnsupportedProxiableUUID",
      "type": "error"
    },
    {
      "anonymous": false,
      "inputs": [
        {
          "indexed": false,
          "internalType": "string",
          "name": "circuitId",
          "type": "string"
        },
        {
          "indexed": false,
          "internalType": "address",
          "name": "verifier",
          "type": "address"
        },
        {
          "indexed": false,
          "internalType": "uint256",
          "name": "requestId",
          "type": "uint256"
        }
      ],
      "name": "CredentialCircuitVerifierUpdated",
      "type": "event"
    },
    {
      "anonymous": false,
      "inputs": [
        {
          "indexed": false,
          "internalType": "uint256",
          "name": "expirationTime",
          "type": "uint256"
        }
      ],
      "name": "ExpirationTimeUpdated",
      "type": "event"
    },
    {
      "anonymous": false,
      "inputs": [
        {
          "indexed": false,
          "internalType": "uint64",
          "name": "version",
          "type": "uint64"
        }
      ],
      "name": "Initialized",
      "type": "event"
    },
    {
      "anonymous": false,
      "inputs": [
        {
          "indexed": true,
          "internalType": "address",
          "name": "previousOwner",
          "type": "address"
        },
        {
          "indexed": true,
          "internalType": "address",
          "name": "newOwner",
          "type": "address"
        }
      ],
      "name": "OwnershipTransferStarted",
      "type": "event"
    },
    {
      "anonymous": false,
      "inputs": [
        {
          "indexed": true,
          "internalType": "address",
          "name": "previousOwner",
          "type": "address"
        },
        {
          "indexed": true,
          "internalType": "address",
          "name": "newOwner",
          "type": "address"
        }
      ],
      "name": "OwnershipTransferred",
      "type": "event"
    },
    {
      "anonymous": false,
      "inputs": [
        {
          "indexed": false,
          "internalType": "address",
          "name": "registry",
          "type": "address"
        }
      ],
      "name": "RegistryUpdated",
      "type": "event"
    },
    {
      "anonymous": false,
      "inputs": [
        {
          "indexed": false,
          "internalType": "string",
          "name": "circuitId",
          "type": "string"
        },
        {
          "indexed": false,
          "internalType": "address",
          "name": "verifier",
          "type": "address"
        },
        {
          "indexed": false,
          "internalType": "uint256",
          "name": "requestId",
          "type": "uint256"
        }
      ],
      "name": "SignatureCircuitVerifierUpdated",
      "type": "event"
    },
    {
      "anonymous": false,
      "inputs": [
        {
          "indexed": false,
          "internalType": "uint256",
          "name": "tampletRoot",
          "type": "uint256"
        }
      ],
      "name": "TemplateRootUpdated",
      "type": "event"
    },
    {
      "anonymous": false,
      "inputs": [
        {
          "indexed": true,
          "internalType": "address",
          "name": "implementation",
          "type": "address"
        }
      ],
      "name": "Upgraded",
      "type": "event"
    },
    {
      "inputs": [],
      "name": "UPGRADE_INTERFACE_VERSION",
      "outputs": [
        {
          "internalType": "string",
          "name": "",
          "type": "string"
        }
      ],
      "stateMutability": "view",
      "type": "function"
    },
    {
      "inputs": [],
      "name": "VERSION",
      "outputs": [
        {
          "internalType": "string",
          "name": "",
          "type": "string"
        }
      ],
      "stateMutability": "view",
      "type": "function"
    },
    {
      "inputs": [],
      "name": "acceptOwnership",
      "outputs": [],
      "stateMutability": "nonpayable",
      "type": "function"
    },
    {
      "inputs": [
        {
          "internalType": "uint256",
          "name": "nullifier",
          "type": "uint256"
        }
      ],
      "name": "cleanNullifier",
      "outputs": [],
      "stateMutability": "nonpayable",
      "type": "function"
    },
    {
      "inputs": [
        {
          "internalType": "string",
          "name": "circuitId",
          "type": "string"
        }
      ],
      "name": "credentialCircuitIdToRequestIds",
      "outputs": [
        {
          "internalType": "uint256",
          "name": "",
          "type": "uint256"
        }
      ],
      "stateMutability": "view",
      "type": "function"
    },
    {
      "inputs": [
        {
          "internalType": "uint256",
          "name": "requestId",
          "type": "uint256"
        }
      ],
      "name": "credentialRequestIdToCircuitIds",
      "outputs": [
        {
          "internalType": "string",
          "name": "",
          "type": "string"
        }
      ],
      "stateMutability": "view",
      "type": "function"
    },
    {
      "inputs": [
        {
          "internalType": "string",
          "name": "circuitId",
          "type": "string"
        }
      ],
      "name": "credentialVerifiers",
      "outputs": [
        {
          "internalType": "address",
          "name": "",
          "type": "address"
        }
      ],
      "stateMutability": "view",
      "type": "function"
    },
    {
      "inputs": [
        {
          "internalType": "uint256",
          "name": "claimIndexHash",
          "type": "uint256"
        }
      ],
      "name": "getClaimProof",
      "outputs": [
        {
          "components": [
            {
              "internalType": "uint256",
              "name": "root",
              "type": "uint256"
            },
            {
              "internalType": "bool",
              "name": "existence",
              "type": "bool"
            },
            {
              "internalType": "uint256[]",
              "name": "siblings",
              "type": "uint256[]"
            },
            {
              "internalType": "uint256",
              "name": "index",
              "type": "uint256"
            },
            {
              "internalType": "uint256",
              "name": "value",
              "type": "uint256"
            },
            {
              "internalType": "bool",
              "name": "auxExistence",
              "type": "bool"
            },
            {
              "internalType": "uint256",
              "name": "auxIndex",
              "type": "uint256"
            },
            {
              "internalType": "uint256",
              "name": "auxValue",
              "type": "uint256"
            }
          ],
          "internalType": "struct SmtLib.Proof",
          "name": "",
          "type": "tuple"
        }
      ],
      "stateMutability": "view",
      "type": "function"
    },
    {
      "inputs": [
        {
          "internalType": "uint256",
          "name": "claimIndexHash",
          "type": "uint256"
        },
        {
          "internalType": "uint256",
          "name": "root",
          "type": "uint256"
        }
      ],
      "name": "getClaimProofByRoot",
      "outputs": [
        {
          "components": [
            {
              "internalType": "uint256",
              "name": "root",
              "type": "uint256"
            },
            {
              "internalType": "bool",
              "name": "existence",
              "type": "bool"
            },
            {
              "internalType": "uint256[]",
              "name": "siblings",
              "type": "uint256[]"
            },
            {
              "internalType": "uint256",
              "name": "index",
              "type": "uint256"
            },
            {
              "internalType": "uint256",
              "name": "value",
              "type": "uint256"
            },
            {
              "internalType": "bool",
              "name": "auxExistence",
              "type": "bool"
            },
            {
              "internalType": "uint256",
              "name": "auxIndex",
              "type": "uint256"
            },
            {
              "internalType": "uint256",
              "name": "auxValue",
              "type": "uint256"
            }
          ],
          "internalType": "struct SmtLib.Proof",
          "name": "",
          "type": "tuple"
        }
      ],
      "stateMutability": "view",
      "type": "function"
    },
    {
      "inputs": [
        {
          "internalType": "uint256",
          "name": "claimIndexHash",
          "type": "uint256"
        }
      ],
      "name": "getClaimProofWithStateInfo",
      "outputs": [
        {
          "components": [
            {
              "internalType": "uint256",
              "name": "root",
              "type": "uint256"
            },
            {
              "internalType": "bool",
              "name": "existence",
              "type": "bool"
            },
            {
              "internalType": "uint256[]",
              "name": "siblings",
              "type": "uint256[]"
            },
            {
              "internalType": "uint256",
              "name": "index",
              "type": "uint256"
            },
            {
              "internalType": "uint256",
              "name": "value",
              "type": "uint256"
            },
            {
              "internalType": "bool",
              "name": "auxExistence",
              "type": "bool"
            },
            {
              "internalType": "uint256",
              "name": "auxIndex",
              "type": "uint256"
            },
            {
              "internalType": "uint256",
              "name": "auxValue",
              "type": "uint256"
            }
          ],
          "internalType": "struct SmtLib.Proof",
          "name": "",
          "type": "tuple"
        },
        {
          "components": [
            {
              "internalType": "uint256",
              "name": "state",
              "type": "uint256"
            },
            {
              "internalType": "uint256",
              "name": "claimsRoot",
              "type": "uint256"
            },
            {
              "internalType": "uint256",
              "name": "revocationsRoot",
              "type": "uint256"
            },
            {
              "internalType": "uint256",
              "name": "rootsRoot",
              "type": "uint256"
            }
          ],
          "internalType": "struct IdentityLib.StateInfo",
          "name": "",
          "type": "tuple"
        }
      ],
      "stateMutability": "view",
      "type": "function"
    },
    {
      "inputs": [],
      "name": "getClaimsTreeRoot",
      "outputs": [
        {
          "internalType": "uint256",
          "name": "",
          "type": "uint256"
        }
      ],
      "stateMutability": "view",
      "type": "function"
    },
    {
      "inputs": [],
      "name": "getExpirationTime",
      "outputs": [
        {
          "internalType": "uint256",
          "name": "",
          "type": "uint256"
        }
      ],
      "stateMutability": "view",
      "type": "function"
    },
    {
      "inputs": [],
      "name": "getId",
      "outputs": [
        {
          "internalType": "uint256",
          "name": "",
          "type": "uint256"
        }
      ],
      "stateMutability": "view",
      "type": "function"
    },
    {
      "inputs": [],
      "name": "getIsOldStateGenesis",
      "outputs": [
        {
          "internalType": "bool",
          "name": "",
          "type": "bool"
        }
      ],
      "stateMutability": "view",
      "type": "function"
    },
    {
      "inputs": [],
      "name": "getLatestPublishedClaimsRoot",
      "outputs": [
        {
          "internalType": "uint256",
          "name": "",
          "type": "uint256"
        }
      ],
      "stateMutability": "view",
      "type": "function"
    },
    {
      "inputs": [],
      "name": "getLatestPublishedRevocationsRoot",
      "outputs": [
        {
          "internalType": "uint256",
          "name": "",
          "type": "uint256"
        }
      ],
      "stateMutability": "view",
      "type": "function"
    },
    {
      "inputs": [],
      "name": "getLatestPublishedRootsRoot",
      "outputs": [
        {
          "internalType": "uint256",
          "name": "",
          "type": "uint256"
        }
      ],
      "stateMutability": "view",
      "type": "function"
    },
    {
      "inputs": [],
      "name": "getLatestPublishedState",
      "outputs": [
        {
          "internalType": "uint256",
          "name": "",
          "type": "uint256"
        }
      ],
      "stateMutability": "view",
      "type": "function"
    },
    {
      "inputs": [],
      "name": "getRegistry",
      "outputs": [
        {
          "internalType": "address",
          "name": "",
          "type": "address"
        }
      ],
      "stateMutability": "view",
      "type": "function"
    },
    {
      "inputs": [
        {
          "internalType": "uint64",
          "name": "revocationNonce",
          "type": "uint64"
        }
      ],
      "name": "getRevocationProof",
      "outputs": [
        {
          "components": [
            {
              "internalType": "uint256",
              "name": "root",
              "type": "uint256"
            },
            {
              "internalType": "bool",
              "name": "existence",
              "type": "bool"
            },
            {
              "internalType": "uint256[]",
              "name": "siblings",
              "type": "uint256[]"
            },
            {
              "internalType": "uint256",
              "name": "index",
              "type": "uint256"
            },
            {
              "internalType": "uint256",
              "name": "value",
              "type": "uint256"
            },
            {
              "internalType": "bool",
              "name": "auxExistence",
              "type": "bool"
            },
            {
              "internalType": "uint256",
              "name": "auxIndex",
              "type": "uint256"
            },
            {
              "internalType": "uint256",
              "name": "auxValue",
              "type": "uint256"
            }
          ],
          "internalType": "struct SmtLib.Proof",
          "name": "",
          "type": "tuple"
        }
      ],
      "stateMutability": "view",
      "type": "function"
    },
    {
      "inputs": [
        {
          "internalType": "uint64",
          "name": "revocationNonce",
          "type": "uint64"
        },
        {
          "internalType": "uint256",
          "name": "root",
          "type": "uint256"
        }
      ],
      "name": "getRevocationProofByRoot",
      "outputs": [
        {
          "components": [
            {
              "internalType": "uint256",
              "name": "root",
              "type": "uint256"
            },
            {
              "internalType": "bool",
              "name": "existence",
              "type": "bool"
            },
            {
              "internalType": "uint256[]",
              "name": "siblings",
              "type": "uint256[]"
            },
            {
              "internalType": "uint256",
              "name": "index",
              "type": "uint256"
            },
            {
              "internalType": "uint256",
              "name": "value",
              "type": "uint256"
            },
            {
              "internalType": "bool",
              "name": "auxExistence",
              "type": "bool"
            },
            {
              "internalType": "uint256",
              "name": "auxIndex",
              "type": "uint256"
            },
            {
              "internalType": "uint256",
              "name": "auxValue",
              "type": "uint256"
            }
          ],
          "internalType": "struct SmtLib.Proof",
          "name": "",
          "type": "tuple"
        }
      ],
      "stateMutability": "view",
      "type": "function"
    },
    {
      "inputs": [
        {
          "internalType": "uint64",
          "name": "revocationNonce",
          "type": "uint64"
        }
      ],
      "name": "getRevocationProofWithStateInfo",
      "outputs": [
        {
          "components": [
            {
              "internalType": "uint256",
              "name": "root",
              "type": "uint256"
            },
            {
              "internalType": "bool",
              "name": "existence",
              "type": "bool"
            },
            {
              "internalType": "uint256[]",
              "name": "siblings",
              "type": "uint256[]"
            },
            {
              "internalType": "uint256",
              "name": "index",
              "type": "uint256"
            },
            {
              "internalType": "uint256",
              "name": "value",
              "type": "uint256"
            },
            {
              "internalType": "bool",
              "name": "auxExistence",
              "type": "bool"
            },
            {
              "internalType": "uint256",
              "name": "auxIndex",
              "type": "uint256"
            },
            {
              "internalType": "uint256",
              "name": "auxValue",
              "type": "uint256"
            }
          ],
          "internalType": "struct SmtLib.Proof",
          "name": "",
          "type": "tuple"
        },
        {
          "components": [
            {
              "internalType": "uint256",
              "name": "state",
              "type": "uint256"
            },
            {
              "internalType": "uint256",
              "name": "claimsRoot",
              "type": "uint256"
            },
            {
              "internalType": "uint256",
              "name": "revocationsRoot",
              "type": "uint256"
            },
            {
              "internalType": "uint256",
              "name": "rootsRoot",
              "type": "uint256"
            }
          ],
          "internalType": "struct IdentityLib.StateInfo",
          "name": "",
          "type": "tuple"
        }
      ],
      "stateMutability": "view",
      "type": "function"
    },
    {
      "inputs": [
        {
          "internalType": "uint256",
          "name": "id",
          "type": "uint256"
        },
        {
          "internalType": "uint64",
          "name": "nonce",
          "type": "uint64"
        }
      ],
      "name": "getRevocationStatus",
      "outputs": [
        {
          "components": [
            {
              "components": [
                {
                  "internalType": "uint256",
                  "name": "state",
                  "type": "uint256"
                },
                {
                  "internalType": "uint256",
                  "name": "claimsTreeRoot",
                  "type": "uint256"
                },
                {
                  "internalType": "uint256",
                  "name": "revocationTreeRoot",
                  "type": "uint256"
                },
                {
                  "internalType": "uint256",
                  "name": "rootOfRoots",
                  "type": "uint256"
                }
              ],
              "internalType": "struct IOnchainCredentialStatusResolver.IdentityStateRoots",
              "name": "issuer",
              "type": "tuple"
            },
            {
              "components": [
                {
                  "internalType": "uint256",
                  "name": "root",
                  "type": "uint256"
                },
                {
                  "internalType": "bool",
                  "name": "existence",
                  "type": "bool"
                },
                {
                  "internalType": "uint256[]",
                  "name": "siblings",
                  "type": "uint256[]"
                },
                {
                  "internalType": "uint256",
                  "name": "index",
                  "type": "uint256"
                },
                {
                  "internalType": "uint256",
                  "name": "value",
                  "type": "uint256"
                },
                {
                  "internalType": "bool",
                  "name": "auxExistence",
                  "type": "bool"
                },
                {
                  "internalType": "uint256",
                  "name": "auxIndex",
                  "type": "uint256"
                },
                {
                  "internalType": "uint256",
                  "name": "auxValue",
                  "type": "uint256"
                }
              ],
              "internalType": "struct IOnchainCredentialStatusResolver.Proof",
              "name": "mtp",
              "type": "tuple"
            }
          ],
          "internalType": "struct IOnchainCredentialStatusResolver.CredentialStatus",
          "name": "",
          "type": "tuple"
        }
      ],
      "stateMutability": "view",
      "type": "function"
    },
    {
      "inputs": [
        {
          "internalType": "uint256",
          "name": "id",
          "type": "uint256"
        },
        {
          "internalType": "uint256",
          "name": "state",
          "type": "uint256"
        },
        {
          "internalType": "uint64",
          "name": "nonce",
          "type": "uint64"
        }
      ],
      "name": "getRevocationStatusByIdAndState",
      "outputs": [
        {
          "components": [
            {
              "components": [
                {
                  "internalType": "uint256",
                  "name": "state",
                  "type": "uint256"
                },
                {
                  "internalType": "uint256",
                  "name": "claimsTreeRoot",
                  "type": "uint256"
                },
                {
                  "internalType": "uint256",
                  "name": "revocationTreeRoot",
                  "type": "uint256"
                },
                {
                  "internalType": "uint256",
                  "name": "rootOfRoots",
                  "type": "uint256"
                }
              ],
              "internalType": "struct IOnchainCredentialStatusResolver.IdentityStateRoots",
              "name": "issuer",
              "type": "tuple"
            },
            {
              "components": [
                {
                  "internalType": "uint256",
                  "name": "root",
                  "type": "uint256"
                },
                {
                  "internalType": "bool",
                  "name": "existence",
                  "type": "bool"
                },
                {
                  "internalType": "uint256[]",
                  "name": "siblings",
                  "type": "uint256[]"
                },
                {
                  "internalType": "uint256",
                  "name": "index",
                  "type": "uint256"
                },
                {
                  "internalType": "uint256",
                  "name": "value",
                  "type": "uint256"
                },
                {
                  "internalType": "bool",
                  "name": "auxExistence",
                  "type": "bool"
                },
                {
                  "internalType": "uint256",
                  "name": "auxIndex",
                  "type": "uint256"
                },
                {
                  "internalType": "uint256",
                  "name": "auxValue",
                  "type": "uint256"
                }
              ],
              "internalType": "struct IOnchainCredentialStatusResolver.Proof",
              "name": "mtp",
              "type": "tuple"
            }
          ],
          "internalType": "struct IOnchainCredentialStatusResolver.CredentialStatus",
          "name": "",
          "type": "tuple"
        }
      ],
      "stateMutability": "view",
      "type": "function"
    },
    {
      "inputs": [],
      "name": "getRevocationsTreeRoot",
      "outputs": [
        {
          "internalType": "uint256",
          "name": "",
          "type": "uint256"
        }
      ],
      "stateMutability": "view",
      "type": "function"
    },
    {
      "inputs": [
        {
          "internalType": "uint256",
          "name": "rootsTreeRoot",
          "type": "uint256"
        }
      ],
      "name": "getRootProof",
      "outputs": [
        {
          "components": [
            {
              "internalType": "uint256",
              "name": "root",
              "type": "uint256"
            },
            {
              "internalType": "bool",
              "name": "existence",
              "type": "bool"
            },
            {
              "internalType": "uint256[]",
              "name": "siblings",
              "type": "uint256[]"
            },
            {
              "internalType": "uint256",
              "name": "index",
              "type": "uint256"
            },
            {
              "internalType": "uint256",
              "name": "value",
              "type": "uint256"
            },
            {
              "internalType": "bool",
              "name": "auxExistence",
              "type": "bool"
            },
            {
              "internalType": "uint256",
              "name": "auxIndex",
              "type": "uint256"
            },
            {
              "internalType": "uint256",
              "name": "auxValue",
              "type": "uint256"
            }
          ],
          "internalType": "struct SmtLib.Proof",
          "name": "",
          "type": "tuple"
        }
      ],
      "stateMutability": "view",
      "type": "function"
    },
    {
      "inputs": [
        {
          "internalType": "uint256",
          "name": "claimsTreeRoot",
          "type": "uint256"
        },
        {
          "internalType": "uint256",
          "name": "root",
          "type": "uint256"
        }
      ],
      "name": "getRootProofByRoot",
      "outputs": [
        {
          "components": [
            {
              "internalType": "uint256",
              "name": "root",
              "type": "uint256"
            },
            {
              "internalType": "bool",
              "name": "existence",
              "type": "bool"
            },
            {
              "internalType": "uint256[]",
              "name": "siblings",
              "type": "uint256[]"
            },
            {
              "internalType": "uint256",
              "name": "index",
              "type": "uint256"
            },
            {
              "internalType": "uint256",
              "name": "value",
              "type": "uint256"
            },
            {
              "internalType": "bool",
              "name": "auxExistence",
              "type": "bool"
            },
            {
              "internalType": "uint256",
              "name": "auxIndex",
              "type": "uint256"
            },
            {
              "internalType": "uint256",
              "name": "auxValue",
              "type": "uint256"
            }
          ],
          "internalType": "struct SmtLib.Proof",
          "name": "",
          "type": "tuple"
        }
      ],
      "stateMutability": "view",
      "type": "function"
    },
    {
      "inputs": [
        {
          "internalType": "uint256",
          "name": "rootsTreeRoot",
          "type": "uint256"
        }
      ],
      "name": "getRootProofWithStateInfo",
      "outputs": [
        {
          "components": [
            {
              "internalType": "uint256",
              "name": "root",
              "type": "uint256"
            },
            {
              "internalType": "bool",
              "name": "existence",
              "type": "bool"
            },
            {
              "internalType": "uint256[]",
              "name": "siblings",
              "type": "uint256[]"
            },
            {
              "internalType": "uint256",
              "name": "index",
              "type": "uint256"
            },
            {
              "internalType": "uint256",
              "name": "value",
              "type": "uint256"
            },
            {
              "internalType": "bool",
              "name": "auxExistence",
              "type": "bool"
            },
            {
              "internalType": "uint256",
              "name": "auxIndex",
              "type": "uint256"
            },
            {
              "internalType": "uint256",
              "name": "auxValue",
              "type": "uint256"
            }
          ],
          "internalType": "struct SmtLib.Proof",
          "name": "",
          "type": "tuple"
        },
        {
          "components": [
            {
              "internalType": "uint256",
              "name": "state",
              "type": "uint256"
            },
            {
              "internalType": "uint256",
              "name": "claimsRoot",
              "type": "uint256"
            },
            {
              "internalType": "uint256",
              "name": "revocationsRoot",
              "type": "uint256"
            },
            {
              "internalType": "uint256",
              "name": "rootsRoot",
              "type": "uint256"
            }
          ],
          "internalType": "struct IdentityLib.StateInfo",
          "name": "",
          "type": "tuple"
        }
      ],
      "stateMutability": "view",
      "type": "function"
    },
    {
      "inputs": [
        {
          "internalType": "uint256",
          "name": "state",
          "type": "uint256"
        }
      ],
      "name": "getRootsByState",
      "outputs": [
        {
          "components": [
            {
              "internalType": "uint256",
              "name": "claimsRoot",
              "type": "uint256"
            },
            {
              "internalType": "uint256",
              "name": "revocationsRoot",
              "type": "uint256"
            },
            {
              "internalType": "uint256",
              "name": "rootsRoot",
              "type": "uint256"
            }
          ],
          "internalType": "struct IdentityLib.Roots",
          "name": "",
          "type": "tuple"
        }
      ],
      "stateMutability": "view",
      "type": "function"
    },
    {
      "inputs": [],
      "name": "getRootsTreeRoot",
      "outputs": [
        {
          "internalType": "uint256",
          "name": "",
          "type": "uint256"
        }
      ],
      "stateMutability": "view",
      "type": "function"
    },
    {
      "inputs": [],
      "name": "getSmtDepth",
      "outputs": [
        {
          "internalType": "uint256",
          "name": "",
          "type": "uint256"
        }
      ],
      "stateMutability": "pure",
      "type": "function"
    },
    {
      "inputs": [],
      "name": "getTemplateRoot",
      "outputs": [
        {
          "internalType": "uint256",
          "name": "",
          "type": "uint256"
        }
      ],
      "stateMutability": "view",
      "type": "function"
    },
    {
      "inputs": [
        {
          "internalType": "address",
          "name": "_stateContractAddr",
          "type": "address"
        },
        {
          "internalType": "bytes2",
          "name": "idType",
          "type": "bytes2"
        }
      ],
      "name": "initialize",
      "outputs": [],
      "stateMutability": "nonpayable",
      "type": "function"
    },
    {
      "inputs": [
        {
          "internalType": "uint256",
          "name": "expirationTime",
          "type": "uint256"
        },
        {
          "internalType": "uint256",
          "name": "templateRoot",
          "type": "uint256"
        },
        {
          "internalType": "address",
          "name": "registry",
          "type": "address"
        },
        {
          "internalType": "string[]",
          "name": "credentialCircuitIds",
          "type": "string[]"
        },
        {
          "internalType": "address[]",
          "name": "credentialVerifierAddresses",
          "type": "address[]"
        },
        {
          "internalType": "string[]",
          "name": "signatureCircuitIds",
          "type": "string[]"
        },
        {
          "internalType": "address[]",
          "name": "signatureVerifierAddresses",
          "type": "address[]"
        },
        {
          "internalType": "address",
          "name": "stateAddress",
          "type": "address"
        },
        {
          "internalType": "bytes2",
          "name": "idType",
          "type": "bytes2"
        }
      ],
      "name": "initializeIssuer",
      "outputs": [],
      "stateMutability": "nonpayable",
      "type": "function"
    },
    {
      "inputs": [],
      "name": "owner",
      "outputs": [
        {
          "internalType": "address",
          "name": "",
          "type": "address"
        }
      ],
      "stateMutability": "view",
      "type": "function"
    },
    {
      "inputs": [],
      "name": "pendingOwner",
      "outputs": [
        {
          "internalType": "address",
          "name": "",
          "type": "address"
        }
      ],
      "stateMutability": "view",
      "type": "function"
    },
    {
      "inputs": [],
      "name": "proxiableUUID",
      "outputs": [
        {
          "internalType": "bytes32",
          "name": "",
          "type": "bytes32"
        }
      ],
      "stateMutability": "view",
      "type": "function"
    },
    {
      "inputs": [],
      "name": "renounceOwnership",
      "outputs": [],
      "stateMutability": "nonpayable",
      "type": "function"
    },
    {
      "inputs": [
        {
          "internalType": "uint256",
          "name": "expirationTime",
          "type": "uint256"
        }
      ],
      "name": "setExpirationTime",
      "outputs": [],
      "stateMutability": "nonpayable",
      "type": "function"
    },
    {
      "inputs": [
        {
          "internalType": "address",
          "name": "registry",
          "type": "address"
        }
      ],
      "name": "setRegistry",
      "outputs": [],
      "stateMutability": "nonpayable",
      "type": "function"
    },
    {
      "inputs": [
        {
          "internalType": "uint256",
          "name": "templateRoot",
          "type": "uint256"
        }
      ],
      "name": "setTemplateRoot",
      "outputs": [],
      "stateMutability": "nonpayable",
      "type": "function"
    },
    {
      "inputs": [
        {
          "internalType": "string",
          "name": "circuitId",
          "type": "string"
        }
      ],
      "name": "signatureCircuitIdToRequestIds",
      "outputs": [
        {
          "internalType": "uint256",
          "name": "",
          "type": "uint256"
        }
      ],
      "stateMutability": "view",
      "type": "function"
    },
    {
      "inputs": [
        {
          "internalType": "uint256",
          "name": "requestId",
          "type": "uint256"
        }
      ],
      "name": "signatureRequestIdToCircuitIds",
      "outputs": [
        {
          "internalType": "string",
          "name": "",
          "type": "string"
        }
      ],
      "stateMutability": "view",
      "type": "function"
    },
    {
      "inputs": [
        {
          "internalType": "string",
          "name": "circuitId",
          "type": "string"
        }
      ],
      "name": "signatureVerifiers",
      "outputs": [
        {
          "internalType": "address",
          "name": "",
          "type": "address"
        }
      ],
      "stateMutability": "view",
      "type": "function"
    },
    {
      "inputs": [
        {
          "components": [
            {
              "internalType": "uint64",
              "name": "requestId",
              "type": "uint64"
            },
            {
              "internalType": "bytes",
              "name": "zkProof",
              "type": "bytes"
            },
            {
              "internalType": "bytes",
              "name": "data",
              "type": "bytes"
            }
          ],
          "internalType": "struct IZKPVerifier.ZKPResponse[]",
          "name": "responses",
          "type": "tuple[]"
        },
        {
          "internalType": "bytes",
          "name": "crossChainProofs",
          "type": "bytes"
        }
      ],
      "name": "submitZKPResponseV2",
      "outputs": [],
      "stateMutability": "nonpayable",
      "type": "function"
    },
    {
      "inputs": [
        {
          "internalType": "bytes4",
          "name": "interfaceId",
          "type": "bytes4"
        }
      ],
      "name": "supportsInterface",
      "outputs": [
        {
          "internalType": "bool",
          "name": "",
          "type": "bool"
        }
      ],
      "stateMutability": "view",
      "type": "function"
    },
    {
      "inputs": [
        {
          "internalType": "address",
          "name": "newOwner",
          "type": "address"
        }
      ],
      "name": "transferOwnership",
      "outputs": [],
      "stateMutability": "nonpayable",
      "type": "function"
    },
    {
      "inputs": [
        {
          "internalType": "string[]",
          "name": "circuitIds",
          "type": "string[]"
        },
        {
          "internalType": "address[]",
          "name": "verifierAddresses",
          "type": "address[]"
        }
      ],
      "name": "updateCredentialVerifiers",
      "outputs": [],
      "stateMutability": "nonpayable",
      "type": "function"
    },
    {
      "inputs": [
        {
          "internalType": "string[]",
          "name": "circuitIds",
          "type": "string[]"
        },
        {
          "internalType": "address[]",
          "name": "verifierAddresses",
          "type": "address[]"
        }
      ],
      "name": "updateSignatureVerifiers",
      "outputs": [],
      "stateMutability": "nonpayable",
      "type": "function"
    },
    {
      "inputs": [
        {
          "internalType": "address",
          "name": "newImplementation",
          "type": "address"
        },
        {
          "internalType": "bytes",
          "name": "data",
          "type": "bytes"
        }
      ],
      "name": "upgradeToAndCall",
      "outputs": [],
      "stateMutability": "payable",
      "type": "function"
    }
  ],
  "bytecode": "0x60a06040523060805234801561001457600080fd5b5061001d610022565b6100d4565b7ff0c57e16840df040f15088dc2f81fe391c3923bec73e23a9662efc9c229c6a00805468010000000000000000900460ff16156100725760405163f92ee8a960e01b815260040160405180910390fd5b80546001600160401b03908116146100d15780546001600160401b0319166001600160401b0390811782556040519081527fc7f505b2f371ae2175ee4913f4499e1f2633a7b5936321eed1cdaeb6115181d29060200160405180910390a15b50565b608051613c2f6100fd6000396000818161224b0152818161227401526123c20152613c2f6000f3fe6080604052600436106102c85760003560e01c8063a635c78511610175578063c6365a3b116100dc578063dbdf185211610095578063e30c39781161006f578063e30c397814610878578063f2fde38b1461088d578063f84c7c1e146108ad578063ffa1ad74146108c257600080fd5b8063dbdf185214610823578063e23a845a14610843578063e26ecb0b1461085857600080fd5b8063c6365a3b14610779578063cde1cacb1461078e578063cfa350c8146107ae578063d622ea6e146107ce578063d94b0271146107ee578063da68a0b11461080e57600080fd5b8063b37feda41161012e578063b37feda414610697578063b57a40cb146106b7578063b8db6871146106d7578063badf055d14610719578063c0cc365d14610739578063c1e327331461075957600080fd5b8063a635c785146105b9578063a91ee0dc146105d9578063aad72921146105f9578063ad3cb1cc14610619578063ade09fcd14610657578063b354c2d81461067757600080fd5b8063406e8b4c116102345780635d1ca631116101ed5780638affdc60116101c75780638affdc601461054f5780638da5cb5b1461056f5780639674cfa4146105845780639dc3c7ba1461059957600080fd5b80635d1ca63114610510578063715018a61461052557806379ba50971461053a57600080fd5b8063406e8b4c14610466578063443d7534146104865780634f1ef286146104a6578063523b8136146104b957806352d1902d146104ce5780635ab1bd53146104e357600080fd5b80632c1d3204116102865780632c1d3204146103d35780632d5c4f25146103e8578063310d0d5b146104085780633d59ec60146104285780633df432fc1461043d5780633f0c66481461045257600080fd5b806233058d146102cd57806301c85c771461030457806301ffc9a71461032757806309bdc4b114610357578063110c96a71461037957806326485063146103a6575b600080fd5b3480156102d957600080fd5b506102ed6102e8366004612d27565b6108f3565b6040516102fb929190612de4565b60405180910390f35b34801561031057600080fd5b506103196109c0565b6040519081526020016102fb565b34801561033357600080fd5b50610347610342366004612e27565b610a45565b60405190151581526020016102fb565b34801561036357600080fd5b506103776103723660046130a0565b610a7c565b005b34801561038557600080fd5b506103996103943660046131a2565b610c02565b6040516102fb91906131ce565b3480156103b257600080fd5b506103c66103c1366004612d27565b610c2d565b6040516102fb919061321b565b3480156103df57600080fd5b50610319610cc6565b3480156103f457600080fd5b506103c661040336600461322e565b610ce1565b34801561041457600080fd5b506103c661042336600461322e565b610d80565b34801561043457600080fd5b50610319610dd7565b34801561044957600080fd5b50610319610dea565b34801561045e57600080fd5b506028610319565b34801561047257600080fd5b50610377610481366004613250565b610e2d565b34801561049257600080fd5b506102ed6104a136600461327a565b610eca565b6103776104b4366004613293565b610f45565b3480156104c557600080fd5b50610319610f64565b3480156104da57600080fd5b50610319610f77565b3480156104ef57600080fd5b506104f8610f94565b6040516001600160a01b0390911681526020016102fb565b34801561051c57600080fd5b50610319610fb8565b34801561053157600080fd5b50610377610fc8565b34801561054657600080fd5b50610377610fdc565b34801561055b57600080fd5b5061031961056a3660046132e0565b611029565b34801561057b57600080fd5b506104f8611063565b34801561059057600080fd5b50610319611098565b3480156105a557600080fd5b506103776105b4366004613314565b6110ab565b3480156105c557600080fd5b506104f86105d43660046132e0565b6112d4565b3480156105e557600080fd5b506103776105f4366004613371565b611317565b34801561060557600080fd5b5061039961061436600461338c565b611386565b34801561062557600080fd5b5061064a604051806040016040528060058152602001640352e302e360dc1b81525081565b6040516102fb9190613411565b34801561066357600080fd5b50610377610672366004613424565b61159f565b34801561068357600080fd5b5061037761069236600461327a565b611a1c565b3480156106a357600080fd5b506102ed6106b236600461327a565b611a69565b3480156106c357600080fd5b506103c66106d236600461327a565b611ae4565b3480156106e357600080fd5b506106f76106f236600461327a565b611b32565b60408051825181526020808401519082015291810151908201526060016102fb565b34801561072557600080fd5b50610377610734366004613314565b611bda565b34801561074557600080fd5b5061037761075436600461327a565b611dfd565b34801561076557600080fd5b506103c661077436600461327a565b611e47565b34801561078557600080fd5b50610319611e97565b34801561079a57600080fd5b506104f86107a93660046132e0565b611eaa565b3480156107ba57600080fd5b506103196107c93660046132e0565b611ecd565b3480156107da57600080fd5b5061064a6107e936600461327a565b611ef0565b3480156107fa57600080fd5b5061037761080936600461327a565b611fa4565b34801561081a57600080fd5b50610319612032565b34801561082f57600080fd5b5061064a61083e36600461327a565b612075565b34801561084f57600080fd5b506103196120a4565b34801561086457600080fd5b506103c6610873366004613567565b6120c4565b34801561088457600080fd5b506104f8612123565b34801561089957600080fd5b506103776108a8366004613371565b61214c565b3480156108b957600080fd5b506103476121d1565b3480156108ce57600080fd5b5061064a604051806040016040528060058152602001640c4b8c0b8d60da1b81525081565b6108fb612c3b565b6109266040518060800160405280600081526020016000815260200160008152602001600081525090565b61092e6121e7565b604051631f17004d60e31b815260048101919091526001600160401b038416602482015273__$068aad146bf104111ba65c4a1de2cd0e23$__9063f8b80268906044015b600060405180830381865af415801561098f573d6000803e3d6000fd5b505050506040513d6000823e601f3d908101601f191682016040526109b7919081019061369d565b91509150915091565b60006109ca6121e7565b60405163765c2c6160e01b8152600481019190915273__$068aad146bf104111ba65c4a1de2cd0e23$__9063765c2c61906024015b602060405180830381865af4158015610a1c573d6000803e3d6000fd5b505050506040513d601f19601f82011682018060405250810190610a409190613741565b905090565b60006001600160e01b03198216635d1ca63160e01b1480610a7657506301ffc9a760e01b6001600160e01b03198316145b92915050565b7ff0c57e16840df040f15088dc2f81fe391c3923bec73e23a9662efc9c229c6a008054600160401b810460ff1615906001600160401b0316600081158015610ac15750825b90506000826001600160401b03166001148015610add5750303b155b905081158015610aeb575080155b15610b095760405163f92ee8a960e01b815260040160405180910390fd5b845467ffffffffffffffff191660011785558315610b3357845460ff60401b1916600160401b1785555b610b3d8787610e2d565b610b463361220b565b6000610b5061221c565b90508e81600001819055508d81600101819055508c8160030160006101000a8154816001600160a01b0302191690836001600160a01b03160217905550600181600a0181905550610ba18c8c611bda565b610bab8a8a6110ab565b508315610bf257845460ff60401b19168555604051600181527fc7f505b2f371ae2175ee4913f4499e1f2633a7b5936321eed1cdaeb6115181d29060200160405180910390a15b5050505050505050505050505050565b610c0a612c84565b6000610c146121e7565b600101549050610c25848285611386565b949350505050565b610c35612c3b565b610c3d6121e7565b604051637d0aba4f60e01b815260048101919091526001600160401b038316602482015273__$068aad146bf104111ba65c4a1de2cd0e23$__90637d0aba4f906044015b600060405180830381865af4158015610c9e573d6000803e3d6000fd5b505050506040513d6000823e601f3d908101601f19168201604052610a76919081019061375a565b6000610cd0612240565b610cd861221c565b60010154905090565b610ce9612c3b565b610cf16121e7565b60405163d55da6a360e01b81526004810191909152602481018490526044810183905273__$068aad146bf104111ba65c4a1de2cd0e23$__9063d55da6a3906064015b600060405180830381865af4158015610d51573d6000803e3d6000fd5b505050506040513d6000823e601f3d908101601f19168201604052610d79919081019061375a565b9392505050565b610d88612c3b565b610d906121e7565b604051636ac0c5c760e11b81526004810191909152602481018490526044810183905273__$068aad146bf104111ba65c4a1de2cd0e23$__9063d5818b8e90606401610d34565b6000610de16121e7565b60010154919050565b6000610df46121e7565b604051631b8bf99b60e21b8152600481019190915273__$068aad146bf104111ba65c4a1de2cd0e23$__90636e2fe66c906024016109ff565b610e356121e7565b6040516359a6069160e01b815260048101919091526001600160a01b0383166024820152306044820152602860648201526001600160f01b03198216608482015273__$068aad146bf104111ba65c4a1de2cd0e23$__906359a606919060a4015b60006040518083038186803b158015610eae57600080fd5b505af4158015610ec2573d6000803e3d6000fd5b505050505050565b610ed2612c3b565b610efd6040518060800160405280600081526020016000815260200160008152602001600081525090565b610f056121e7565b60405163a3018d7960e01b815260048101919091526024810184905273__$068aad146bf104111ba65c4a1de2cd0e23$__9063a3018d7990604401610972565b610f4d612240565b610f56826122e5565b610f6082826122f5565b5050565b6000610f6e6121e7565b609a0154919050565b6000610f816123b7565b50600080516020613bda83398151915290565b6000610f9e612240565b610fa661221c565b600301546001600160a01b0316905090565b6000610fc26121e7565b54919050565b610fd0612400565b610fda6000612432565b565b3380610fe6612123565b6001600160a01b03161461101d5760405163118cdaa760e01b81526001600160a01b03821660048201526024015b60405180910390fd5b61102681612432565b50565b6000611033612240565b61103b61221c565b6009018260405161104c919061378e565b90815260200160405180910390205490505b919050565b6000807f9016d09d72d40fdae2fd8ceac6b6234c7706214fd39c1cd1e609a0528c1993005b546001600160a01b031692915050565b60006110a26121e7565b609b0154919050565b6110b3612240565b6110bb612400565b60006110c561221c565b905081518351146110f657825182516040516355c5b3e360e11b815260048101929092526024820152604401611014565b60005b83518110156112ce57828181518110611114576111146137aa565b602002602001015182600501858381518110611132576111326137aa565b6020026020010151604051611147919061378e565b908152602001604051809103902060006101000a8154816001600160a01b0302191690836001600160a01b03160217905550600082600901858381518110611191576111916137aa565b60200260200101516040516111a6919061378e565b9081526020016040518091039020549050806000036112585782600a0154905080836009018684815181106111dd576111dd6137aa565b60200260200101516040516111f2919061378e565b908152602001604051809103902081905550848281518110611216576112166137aa565b6020026020010151836007016000838152602001908152602001600020908161123f9190613848565b50600a830180549060006112528361391c565b91905055505b7f73293df9496ecb6cf8b93101e8333c4e3add8400c974d542a34600d304c9224485838151811061128b5761128b6137aa565b60200260200101518584815181106112a5576112a56137aa565b6020026020010151836040516112bd93929190613935565b60405180910390a1506001016110f9565b50505050565b60006112de612240565b6112e661221c565b600401826040516112f7919061378e565b908152604051908190036020019020546001600160a01b03169050919050565b61131f612240565b611327612400565b8061133061221c565b60030180546001600160a01b0319166001600160a01b0392831617905560405190821681527fd6ceddf6d2a22f21c7c81675c518004eff43bc5c8a6fc32a0b748e69d58671cd906020015b60405180910390a150565b61138e612c84565b6113966121e7565b5484146113dc5760405162461bcd60e51b8152602060048201526014602482015273092c8cadce8d2e8f240d2c840dad2e6dac2e8c6d60631b6044820152606401611014565b60006113e66121e7565b604051630b1a9cd360e01b815260048101919091526024810185905273__$068aad146bf104111ba65c4a1de2cd0e23$__90630b1a9cd390604401606060405180830381865af415801561143e573d6000803e3d6000fd5b505050506040513d601f19601f820116820180604052508101906114629190613963565b6040805160808101825286815282516020808301919091528301518183015290820151606082015290915060006114976121e7565b6020840151604051630b2bcd1b60e11b815260048101929092526001600160401b0387166024830152604482015273__$068aad146bf104111ba65c4a1de2cd0e23$__906316579a3690606401600060405180830381865af4158015611501573d6000803e3d6000fd5b505050506040513d6000823e601f3d908101601f19168201604052611529919081019061375a565b6040805161010081018252825181526020808401511515818301528284015182840152606080850151908301526080808501519083015260a08085015115159083015260c0808501519083015260e093840151938201939093528151808301909252938152908101929092525095945050505050565b60006115a961221c565b905082516002146115da578251604051630264a11560e21b8152600481019190915260026024820152604401611014565b606080826006016000866000815181106115f6576115f66137aa565b6020026020010151600001516001600160401b031681526020019081526020016000208054611624906137c0565b80601f0160208091040260200160405190810160405280929190818152602001828054611650906137c0565b801561169d5780601f106116725761010080835404028352916020019161169d565b820191906000526020600020905b81548152906001019060200180831161168057829003601f168201915b50505050509150826007016000866001815181106116bd576116bd6137aa565b6020026020010151600001516001600160401b0316815260200190815260200160002080546116eb906137c0565b80601f0160208091040260200160405190810160405280929190818152602001828054611717906137c0565b80156117645780601f1061173957610100808354040283529160200191611764565b820191906000526020600020905b81548152906001019060200180831161174757829003601f168201915b5050505050905081516000036117b85784600081518110611787576117876137aa565b60209081029190910101515160405163ea99bbcd60e01b81526001600160401b039091166004820152602401611014565b805160000361180557846001815181106117d4576117d46137aa565b60209081029190910101515160405163138379c160e01b81526001600160401b039091166004820152602401611014565b6000806000808860008151811061181e5761181e6137aa565b60200260200101516020015180602001905181019061183d91906139f2565b9350935093509350600060405180608001604052808581526020018481526020018381526020016040518060c0016040528088600081518110611882576118826137aa565b60200260200101518152602001886001815181106118a2576118a26137aa565b60200260200101518152602001886002815181106118c2576118c26137aa565b60200260200101518152602001886003815181106118e2576118e26137aa565b6020026020010151815260200188600481518110611902576119026137aa565b6020026020010151815260200188600581518110611922576119226137aa565b602002602001015181525081525090506000806000808d60018151811061194b5761194b6137aa565b60200260200101516020015180602001905181019061196a91906139f2565b9350935093509350600060405180608001604052808581526020018481526020018381526020016040518060600160405280886000815181106119af576119af6137aa565b60200260200101518152602001886001815181106119cf576119cf6137aa565b60200260200101518152602001886002815181106119ef576119ef6137aa565b60200260200101518152508152509050611a0b8c878d8461246a565b505050505050505050505050505050565b611a24612240565b611a2c612400565b80611a3561221c565b600101556040518181527ff007a02ba428e63fa98b65269e70f9a9db847e0a839049a2f31f0692822677349060200161137b565b611a71612c3b565b611a9c6040518060800160405280600081526020016000815260200160008152602001600081525090565b611aa46121e7565b604051636ad1d8a760e11b815260048101919091526024810184905273__$068aad146bf104111ba65c4a1de2cd0e23$__9063d5a3b14e90604401610972565b611aec612c3b565b611af46121e7565b604051620cf08960e41b815260048101919091526024810183905273__$068aad146bf104111ba65c4a1de2cd0e23$__9062cf089090604401610c81565b611b5660405180606001604052806000815260200160008152602001600081525090565b611b5e6121e7565b604051630b1a9cd360e01b815260048101919091526024810183905273__$068aad146bf104111ba65c4a1de2cd0e23$__90630b1a9cd390604401606060405180830381865af4158015611bb6573d6000803e3d6000fd5b505050506040513d601f19601f82011682018060405250810190610a769190613963565b611be2612240565b611bea612400565b6000611bf461221c565b90508151835114611c2557825182516040516355c5b3e360e11b815260048101929092526024820152604401611014565b60005b83518110156112ce57828181518110611c4357611c436137aa565b602002602001015182600401858381518110611c6157611c616137aa565b6020026020010151604051611c76919061378e565b908152602001604051809103902060006101000a8154816001600160a01b0302191690836001600160a01b03160217905550600082600801858381518110611cc057611cc06137aa565b6020026020010151604051611cd5919061378e565b908152602001604051809103902054905080600003611d875782600a015490508083600801868481518110611d0c57611d0c6137aa565b6020026020010151604051611d21919061378e565b908152602001604051809103902081905550848281518110611d4557611d456137aa565b60200260200101518360060160008381526020019081526020016000209081611d6e9190613848565b50600a83018054906000611d818361391c565b91905055505b7f17b20bbf8df0ff1422db2abe4b28c298e32929a2d112f027c3f68d488cf3cf74858381518110611dba57611dba6137aa565b6020026020010151858481518110611dd457611dd46137aa565b602002602001015183604051611dec93929190613935565b60405180910390a150600101611c28565b611e05612240565b611e0d612400565b80611e1661221c565b556040518181527f7f7f3071c3c286700c199acae2fe071beb4a63dae1afff85186fa75d18090ae89060200161137b565b611e4f612c3b565b611e576121e7565b6040516397ac539160e01b815260048101919091526024810183905273__$068aad146bf104111ba65c4a1de2cd0e23$__906397ac539190604401610c81565b6000611ea16121e7565b609c0154919050565b6000611eb4612240565b611ebc61221c565b600501826040516112f7919061378e565b6000611ed7612240565b611edf61221c565b6008018260405161104c919061378e565b6060611efa612240565b611f0261221c565b6000838152600691909101602052604090208054611f1f906137c0565b80601f0160208091040260200160405190810160405280929190818152602001828054611f4b906137c0565b8015611f985780601f10611f6d57610100808354040283529160200191611f98565b820191906000526020600020905b815481529060010190602001808311611f7b57829003601f168201915b50505050509050919050565b611fac612400565b6000611fb661221c565b600083815260028201602052604090205490915060ff166120195760405162461bcd60e51b815260206004820152601860248201527f4e756c6c696669657220646f6573206e6f7420657869737400000000000000006044820152606401611014565b600091825260020160205260409020805460ff19169055565b600061203c6121e7565b604051631e75e7f360e01b8152600481019190915273__$068aad146bf104111ba65c4a1de2cd0e23$__90631e75e7f3906024016109ff565b606061207f612240565b61208761221c565b6000838152600791909101602052604090208054611f1f906137c0565b60006120ae612240565b6120b6612400565b6120be61221c565b54905090565b6120cc612c3b565b6120d46121e7565b604051630b2bcd1b60e11b815260048101919091526001600160401b03841660248201526044810183905273__$068aad146bf104111ba65c4a1de2cd0e23$__906316579a3690606401610d34565b6000807f237e158222e3e6968b72b9db0d8043aacf074ad9f650f0d1606b4d82ee432c00611088565b612154612400565b7f237e158222e3e6968b72b9db0d8043aacf074ad9f650f0d1606b4d82ee432c0080546001600160a01b0319166001600160a01b0383169081178255612198611063565b6001600160a01b03167f38d16b8cac22d99fc7c124b9cd0de2d3fa1faef420bfe791d8c362d765e2270060405160405180910390a35050565b60006121db6121e7565b6002015460ff16919050565b7f3018a310c36c4f8228f09bf3b1822685cf0971daa8265a58ca807c4a4daba40090565b612213612488565b611026816124d1565b7fd64ab600136c76c630ed81a54cc1acbcc213dadb956fdd8687dc5ebb0bb5f50090565b306001600160a01b037f00000000000000000000000000000000000000000000000000000000000000001614806122c757507f00000000000000000000000000000000000000000000000000000000000000006001600160a01b03166122bb600080516020613bda833981519152546001600160a01b031690565b6001600160a01b031614155b15610fda5760405163703e46dd60e11b815260040160405180910390fd5b6122ed612240565b611026612400565b816001600160a01b03166352d1902d6040518163ffffffff1660e01b8152600401602060405180830381865afa92505050801561234f575060408051601f3d908101601f1916820190925261234c91810190613741565b60015b61237757604051634c9c8ce360e01b81526001600160a01b0383166004820152602401611014565b600080516020613bda83398151915281146123a857604051632a87526960e21b815260048101829052602401611014565b6123b28383612503565b505050565b306001600160a01b037f00000000000000000000000000000000000000000000000000000000000000001614610fda5760405163703e46dd60e11b815260040160405180910390fd5b33612409611063565b6001600160a01b031614610fda5760405163118cdaa760e01b8152336004820152602401611014565b7f237e158222e3e6968b72b9db0d8043aacf074ad9f650f0d1606b4d82ee432c0080546001600160a01b0319168155610f6082612559565b61247484846125ca565b61247e82826126c2565b6112ce83826127bb565b7ff0c57e16840df040f15088dc2f81fe391c3923bec73e23a9662efc9c229c6a0054600160401b900460ff16610fda57604051631afcd79f60e31b815260040160405180910390fd5b6124d9612488565b6001600160a01b03811661101d57604051631e4fbdf760e01b815260006004820152602401611014565b61250c82612829565b6040516001600160a01b038316907fbc7cd75a20ee27fd9adebab32041f755214dbc6bffa90cc0225b39da2e5c2d3b90600090a2805115612551576123b2828261288e565b610f60612904565b7f9016d09d72d40fdae2fd8ceac6b6234c7706214fd39c1cd1e609a0528c19930080546001600160a01b031981166001600160a01b03848116918217845560405192169182907f8be0079c531659141344cd1fd0a4f28419497f9722a3daafe3b4186f6b6457e090600090a3505050565b60006125d461221c565b9050600081600401846040516125ea919061378e565b908152604051908190036020019020546001600160a01b0316905080612623576040516301dcf1ab60e31b815260040160405180910390fd5b806001600160a01b031663f398789b84600001518560200151866040015187606001516040518563ffffffff1660e01b81526004016126659493929190613afd565b602060405180830381865afa158015612682573d6000803e3d6000fd5b505050506040513d601f19601f820116820180604052508101906126a69190613b5a565b6112ce576040516281723b60e21b815260040160405180910390fd5b60006126cc61221c565b9050600081600501846040516126e2919061378e565b908152604051908190036020019020546001600160a01b031690508061271b576040516301dcf1ab60e31b815260040160405180910390fd5b806001600160a01b03166311479fea84600001518560200151866040015187606001516040518563ffffffff1660e01b815260040161275d9493929190613b75565b602060405180830381865afa15801561277a573d6000803e3d6000fd5b505050506040513d601f19601f8201168201806040525081019061279e9190613b5a565b6112ce576040516389fa585960e01b815260040160405180910390fd5b606082810151805160208083015183850151608085015160a08601516040968701519789015194850151855195909701519597939692959194909392916128098989898989888a8989612923565b61281282612ad4565b61281c8989612afb565b5050505050505050505050565b806001600160a01b03163b60000361285f57604051634c9c8ce360e01b81526001600160a01b0382166004820152602401611014565b600080516020613bda83398151915280546001600160a01b0319166001600160a01b0392909216919091179055565b6060600080846001600160a01b0316846040516128ab919061378e565b600060405180830381855af49150503d80600081146128e6576040519150601f19603f3d011682016040523d82523d6000602084013e6128eb565b606091505b50915091506128fb858383612bb6565b95945050505050565b3415610fda5760405163b398979f60e01b815260040160405180910390fd5b600061292d61221c565b90508960000361295357604051631b1aad8760e11b8152600481018b9052602401611014565b8860000361297757604051634bdc991b60e11b8152600481018a9052602401611014565b806001015486146129ab57600181015460405163e748379160e01b8152611014918891600401918252602082015260400190565b8484146129d8576040516001621d0d8360e21b031981526004810185905260248101869052604401611014565b6003810154604051639fc1e42360e01b8152600481018490526001600160a01b0390911690639fc1e42390602401602060405180830381865afa158015612a23573d6000803e3d6000fd5b505050506040513d601f19601f82011682018060405250810190612a479190613b5a565b612a6457604051634cb305bb60e01b815260040160405180910390fd5b80544290612a729089613bc6565b1015612a935760405162bd09f160e11b815260048101889052602401611014565b600083815260028201602052604090205460ff1615612ac857604051635377438b60e11b815260048101849052602401611014565b50505050505050505050565b6000612ade61221c565b60009283526002016020525060409020805460ff19166001179055565b612b036121e7565b6040516306fb157560e01b81526004810191909152602481018390526044810182905273__$068aad146bf104111ba65c4a1de2cd0e23$__906306fb15759060640160006040518083038186803b158015612b5d57600080fd5b505af4158015612b71573d6000803e3d6000fd5b50505050612b7d6121e7565b60405163175ba3e960e11b8152600481019190915273__$068aad146bf104111ba65c4a1de2cd0e23$__90632eb747d290602401610e96565b606082612bcb57612bc682612c12565b610d79565b8151158015612be257506001600160a01b0384163b155b15612c0b57604051639996b31560e01b81526001600160a01b0385166004820152602401611014565b5080610d79565b805115612c225780518082602001fd5b60405163d6bda27560e01b815260040160405180910390fd5b6040518061010001604052806000815260200160001515815260200160608152602001600081526020016000815260200160001515815260200160008152602001600081525090565b6040518060400160405280612cba6040518060800160405280600081526020016000815260200160008152602001600081525090565b8152602001612d0b6040518061010001604052806000815260200160001515815260200160608152602001600081526020016000815260200160001515815260200160008152602001600081525090565b905290565b80356001600160401b038116811461105e57600080fd5b600060208284031215612d3957600080fd5b610d7982612d10565b805182526020808201511515818401526040808301516101009185018290528051918501829052600092019082906101208601905b80831015612d9a5783518252602082019150602084019350600183019250612d77565b50606085015160608701526080850151608087015260a08501519250612dc460a087018415159052565b60c085015160c087015260e085015160e087015280935050505092915050565b60a081526000612df760a0830185612d42565b9050610d796020830184805182526020810151602083015260408101516040830152606081015160608301525050565b600060208284031215612e3957600080fd5b81356001600160e01b031981168114610d7957600080fd5b80356001600160a01b038116811461105e57600080fd5b634e487b7160e01b600052604160045260246000fd5b604051606081016001600160401b0381118282101715612ea057612ea0612e68565b60405290565b60405161010081016001600160401b0381118282101715612ea057612ea0612e68565b604051601f8201601f191681016001600160401b0381118282101715612ef157612ef1612e68565b604052919050565b60006001600160401b03821115612f1257612f12612e68565b5060051b60200190565b600082601f830112612f2d57600080fd5b8135602083016000806001600160401b03841115612f4d57612f4d612e68565b50601f8301601f1916602001612f6281612ec9565b915050828152858383011115612f7757600080fd5b82826020830137600092810160200192909252509392505050565b600082601f830112612fa357600080fd5b8135612fb6612fb182612ef9565b612ec9565b8082825260208201915060208360051b860101925085831115612fd857600080fd5b602085015b838110156130195780356001600160401b03811115612ffb57600080fd5b61300a886020838a0101612f1c565b84525060209283019201612fdd565b5095945050505050565b600082601f83011261303457600080fd5b8135613042612fb182612ef9565b8082825260208201915060208360051b86010192508583111561306457600080fd5b602085015b838110156130195761307a81612e51565b835260209283019201613069565b80356001600160f01b03198116811461105e57600080fd5b60008060008060008060008060006101208a8c0312156130bf57600080fd5b8935985060208a013597506130d660408b01612e51565b965060608a01356001600160401b038111156130f157600080fd5b6130fd8c828d01612f92565b96505060808a01356001600160401b0381111561311957600080fd5b6131258c828d01613023565b95505060a08a01356001600160401b0381111561314157600080fd5b61314d8c828d01612f92565b94505060c08a01356001600160401b0381111561316957600080fd5b6131758c828d01613023565b93505061318460e08b01612e51565b91506131936101008b01613088565b90509295985092959850929598565b600080604083850312156131b557600080fd5b823591506131c560208401612d10565b90509250929050565b60208152613201602082018351805182526020810151602083015260408101516040830152606081015160608301525050565b6000602083015160a080840152610c2560c0840182612d42565b602081526000610d796020830184612d42565b6000806040838503121561324157600080fd5b50508035926020909101359150565b6000806040838503121561326357600080fd5b61326c83612e51565b91506131c560208401613088565b60006020828403121561328c57600080fd5b5035919050565b600080604083850312156132a657600080fd5b6132af83612e51565b915060208301356001600160401b038111156132ca57600080fd5b6132d685828601612f1c565b9150509250929050565b6000602082840312156132f257600080fd5b81356001600160401b0381111561330857600080fd5b610c2584828501612f1c565b6000806040838503121561332757600080fd5b82356001600160401b0381111561333d57600080fd5b61334985828601612f92565b92505060208301356001600160401b0381111561336557600080fd5b6132d685828601613023565b60006020828403121561338357600080fd5b610d7982612e51565b6000806000606084860312156133a157600080fd5b83359250602084013591506133b860408501612d10565b90509250925092565b60005b838110156133dc5781810151838201526020016133c4565b50506000910152565b600081518084526133fd8160208601602086016133c1565b601f01601f19169290920160200192915050565b602081526000610d7960208301846133e5565b6000806040838503121561343757600080fd5b82356001600160401b0381111561344d57600080fd5b8301601f8101851361345e57600080fd5b803561346c612fb182612ef9565b8082825260208201915060208360051b85010192508783111561348e57600080fd5b602084015b838110156135485780356001600160401b038111156134b157600080fd5b85016060818b03601f190112156134c757600080fd5b6134cf612e7e565b6134db60208301612d10565b815260408201356001600160401b038111156134f657600080fd5b6135058c602083860101612f1c565b60208301525060608201356001600160401b0381111561352457600080fd5b6135338c602083860101612f1c565b60408301525084525060209283019201613493565b50945050505060208301356001600160401b038111156132ca57600080fd5b6000806040838503121561357a57600080fd5b61358383612d10565b946020939093013593505050565b8051801515811461105e57600080fd5b600082601f8301126135b257600080fd5b81516135c0612fb182612ef9565b8082825260208201915060208360051b8601019250858311156135e257600080fd5b602085015b838110156130195780518352602092830192016135e7565b6000610100828403121561361257600080fd5b61361a612ea6565b82518152905061362c60208301613591565b602082015260408201516001600160401b0381111561364a57600080fd5b613656848285016135a1565b604083015250606082810151908201526080808301519082015261367c60a08301613591565b60a082015260c0828101519082015260e09182015191810191909152919050565b60008082840360a08112156136b157600080fd5b83516001600160401b038111156136c757600080fd5b6136d3868287016135ff565b9350506080601f19820112156136e857600080fd5b50604051608081016001600160401b038111828210171561370b5761370b612e68565b60409081526020858101518352858201519083015260608086015191830191909152608090940151938101939093525092909150565b60006020828403121561375357600080fd5b5051919050565b60006020828403121561376c57600080fd5b81516001600160401b0381111561378257600080fd5b610c25848285016135ff565b600082516137a08184602087016133c1565b9190910192915050565b634e487b7160e01b600052603260045260246000fd5b600181811c908216806137d457607f821691505b6020821081036137f457634e487b7160e01b600052602260045260246000fd5b50919050565b601f8211156123b257806000526020600020601f840160051c810160208510156138215750805b601f840160051c820191505b81811015613841576000815560010161382d565b5050505050565b81516001600160401b0381111561386157613861612e68565b6138758161386f84546137c0565b846137fa565b6020601f8211600181146138a957600083156138915750848201515b600019600385901b1c1916600184901b178455613841565b600084815260208120601f198516915b828110156138d957878501518255602094850194600190920191016138b9565b50848210156138f75786840151600019600387901b60f8161c191681555b50505050600190811b01905550565b634e487b7160e01b600052601160045260246000fd5b60006001820161392e5761392e613906565b5060010190565b60608152600061394860608301866133e5565b6001600160a01b039490941660208301525060400152919050565b6000606082840312801561397657600080fd5b5061397f612e7e565b82518152602080840151908201526040928301519281019290925250919050565b600082601f8301126139b157600080fd5b6139bb6040612ec9565b8060408401858111156139cd57600080fd5b845b818110156139e75780518452602093840193016139cf565b509095945050505050565b6000806000806101208587031215613a0957600080fd5b84516001600160401b03811115613a1f57600080fd5b613a2b878288016135a1565b945050613a3b86602087016139a0565b925085607f860112613a4c57600080fd5b6040613a5781612ec9565b8060e0880189811115613a6957600080fd5b606089015b81811015613a8f57613a808b826139a0565b84526020909301928401613a6e565b50819550613a9d8a826139a0565b94505050505092959194509250565b8060005b60028110156112ce578151845260209384019390910190600101613ab0565b8060005b60028110156112ce57613ae7848351613aac565b6040939093019260209190910190600101613ad3565b6101c08101613b0c8287613aac565b613b196040830186613acf565b613b2660c0830185613aac565b61010082018360005b6006811015613b4e578151835260209283019290910190600101613b2f565b50505095945050505050565b600060208284031215613b6c57600080fd5b610d7982613591565b6101608101613b848287613aac565b613b916040830186613acf565b613b9e60c0830185613aac565b61010082018360005b6003811015613b4e578151835260209283019290910190600101613ba7565b80820180821115610a7657610a7661390656fe360894a13ba1a3210667c828492db98dca3e2076cc3735a920a3ca505d382bbca264697066735822122036716e7890402e6f734f4267fba0995c42e408d4e4ef2c1294876ba0bfc84d5e64736f6c634300081b0033",
  "linkReferences": {
    "@iden3/contracts/lib/IdentityLib.sol": {
      "IdentityLib": [
        {
          "length": 20,
          "start": 2641
        },
        {
          "length": 20,
          "start": 2782
        },
        {
          "length": 20,
          "start": 3424
        },
        {
          "length": 20,
          "start": 3603
        },
        {
          "length": 20,
          "start": 3762
        },
        {
          "length": 20,
          "start": 3848
        },
        {
          "length": 20,
          "start": 3957
        },
        {
          "length": 20,
          "start": 4128
        },
        {
          "length": 20,
          "start": 5377
        },
        {
          "length": 20,
          "start": 5572
        },
        {
          "length": 20,
          "start": 7103
        },
        {
          "length": 20,
          "start": 7182
        },
        {
          "length": 20,
          "start": 7289
        },
        {
          "length": 20,
          "start": 8050
        },
        {
          "length": 20,
          "start": 8528
        },
        {
          "length": 20,
          "start": 8702
        },
        {
          "length": 20,
          "start": 11301
        },
        {
          "length": 20,
          "start": 11409
        }
      ]
    }
  },
  "deployedLinkReferences": {
    "@iden3/contracts/lib/IdentityLib.sol": {
      "IdentityLib": [
        {
          "length": 20,
          "start": 2388
        },
        {
          "length": 20,
          "start": 2529
        },
        {
          "length": 20,
          "start": 3171
        },
        {
          "length": 20,
          "start": 3350
        },
        {
          "length": 20,
          "start": 3509
        },
        {
          "length": 20,
          "start": 3595
        },
        {
          "length": 20,
          "start": 3704
        },
        {
          "length": 20,
          "start": 3875
        },
        {
          "length": 20,
          "start": 5124
        },
        {
          "length": 20,
          "start": 5319
        },
        {
          "length": 20,
          "start": 6850
        },
        {
          "length": 20,
          "start": 6929
        },
        {
          "length": 20,
          "start": 7036
        },
        {
          "length": 20,
          "start": 7797
        },
        {
          "length": 20,
          "start": 8275
        },
        {
          "length": 20,
          "start": 8449
        },
        {
          "length": 20,
          "start": 11048
        },
        {
          "length": 20,
          "start": 11156
        }
      ]
    }
  }
}