{
  "contracts/verifiers/anonAadhaarV1/Verifier_anon_aadhaar_v1.sol": {
    "Verifier_anon_aadhaar_v1": {
      "abi": [
        {
          "inputs": [
            {
              "internalType": "uint256[2]",
              "name": "_pA",
              "type": "uint256[2]"
            },
            {
              "internalType": "uint256[2][2]",
              "name": "_pB",
              "type": "uint256[2][2]"
            },
            {
              "internalType": "uint256[2]",
              "name": "_pC",
              "type": "uint256[2]"
            },
            {
              "internalType": "uint256[10]",
              "name": "_pubSignals",
              "type": "uint256[10]"
            }
          ],
          "name": "verifyProof",
          "outputs": [
            {
              "internalType": "bool",
              "name": "",
              "type": "bool"
            }
          ],
          "stateMutability": "view",
          "type": "function"
        }
      ],
      "evm": {
        "bytecode": {
          "linkReferences": {},
          "object": "6080604052348015600f57600080fd5b506108a68061001f6000396000f3fe608060405234801561001057600080fd5b506004361061002b5760003560e01c8063f3bb70f614610030575b600080fd5b61004361003e366004610809565b610057565b604051901515815260200160405180910390f35b600061074a565b7f30644e72e131a029b85045b68181585d2833e84879b9709143e1f593f0000001811061008f576000805260206000f35b50565b600060405183815284602082015285604082015260408160608360076107d05a03fa9150816100c5576000805260206000f35b825160408201526020830151606082015260408360808360066107d05a03fa915050806100f6576000805260206000f35b5050505050565b7f2bd8a0ed59a2aa940c5dd05efbb7414319fea154fc6fb9ae54a28d82ac97246d85527f1c0ef73657ac39b9401fd8f8450eae33c6b72c89f64564b04544fed5d753775d60208601526000608086018661019a87357f2559b64e8c0f7f9ef0f028a89d4ee32c4f94b33eff37e60791bf21e1589eb8387f15cfb07a802f3bbe448f806fbfa79448c6a2615d3cb32eb14e6a60499fff0a7384610092565b6101ea60208801357f19c9e17c4ceed864491a21ada36d391f6096ca09a2f1235626859392831f88097f1e2dae6855a00abca9aca47802d24fc0e3006234e8d2b37cb74fe9776425fc8584610092565b61023a60408801357f0e8e226950fa1ec3de22ff49e9b6d7aea6dbb35af78f05f97efbd48aacfab9947f0ccffd9a567ad0df21b63f9d1bb8801a4cfd5055677f9ef7f5dde7cb79ae072f84610092565b61028960608801357f2e65a079ec780ed897d8bab8d42008f4334175fb0f193a27470dc7ee3e6c462d7e91c9c14e6ef1a5a279905231f99dff4163bef8558b6de39cada2f771f8e9c084610092565b6102d960808801357f24adca73b3f2c5b478f4b936c32cb3ce37554292110c5398d78e4f6d9b571fb67f1ab97a4797800d2988506ea86d1ec4ddb2c03a0ed91cec4523e54302231e0a0184610092565b61032960a08801357f20083a83f755ef140ee49f888187fb171f2eb112c833d96480d37776a1be22e67f0df039fd2e2046f94f26a80e9594b1b29488c47f3aadf90e62006f3abcc56f5084610092565b61037960c08801357f154325cd93b197f51c3b22ae24e3b4801d2cdf4bcb579f9e4ccdbb9958283e327f1c9060db3ea57539bec5d49e8de0c05da8b01a3e5ca6a40cb5df76f8160cb01284610092565b6103c860e08801357f2aafce561dd9dce63528710f4c592ce153bf1b7a12f34bbc7148f0acb0dc65457ef438f228e64e9f64b3a434593356a960e37eb9aeb8ce234d1515d5510a823f84610092565b6104196101008801357f1ed4f77da90ecda33006c6a357daa9176f0cc6f406e48249258ba14fcc3e57057f1e5d5bc968b95fda37cc906b7aff539f39d22e3e3042f636e4ab68c323bc2be684610092565b61046a6101208801357f2381007ac73e773db80c727e0a2e6923347411be9adfacf798af600ac471f02e7f26a26ff46e675bc3c07d9fef469a85da2b32f10f1bdfc9b9f4d72704f7cae9cd84610092565b50823581527f30644e72e131a029b85045b68181585d97816a916871ca8d3c208c16d87cfd4760208401357f30644e72e131a029b85045b68181585d97816a916871ca8d3c208c16d87cfd4703066020820152833560408201526020840135606082015260408401356080820152606084013560a08201527f2d4d9aa7e302d9df41749d5507949d05dbea33fbb16c643b22f599a2be6df2e260c08201527f14bedd503c37ceb061d8ec60209fe345ce89830a19230301f076caff004d192660e08201527f0967032fcbf776d1afc985f88877f182d38480a653f2decaa9794cbc3bf3060c6101008201527f0e187847ad4c798374d0d6732bf501847dd68bc0e071241e0213bc7fc13db7ab6101208201527f304cfbd1e08a704a99f5e847d93f8c3caafddec46b7a0d379da69a4d112346a76101408201527f1739c1b1a457a8c7313123d24d2f9192f896b7c63eea05a9d57f06547ad0cec8610160820152600087015161018082015260206000018701516101a08201527f198e9393920d483a7260bfb731fb5d25f1aa493335a9e71297e485b7aef312c26101c08201527f1800deef121f1e76426a00665e5c4479674322d4f75edadd46debd5cd992f6ed6101e08201527f090689d0585ff075ec9e99ad690c3395bc4b313370b38ef355acdadcd122975b6102008201527f12c85ea5db8c6deb4aab71808dcb408fe3d1e7690c43d37b4ce6cc0166fa7daa610220820152843561024082015260208501356102608201527f12e43c9bb0b129fd9fbd5827530660abf70a55968f37c3ebb31f42d83c593fd56102808201527f21dfdb007238fd96f9d3169ab32bcba32c35f5ccc7afe404e7024d9e7937b9ee6102a08201527f2731bd6494a38c393aabfbcf4f81f7e3655859960ede6f59363e3dc810a8267d6102c08201527f1165c632f815a9196c20bc4e82f4abf8f3ba3b55acaa9ac081d290a598c153416102e08201526020816103008360086107d05a03fa9051169695505050505050565b6040516103808101604052610762600084013561005e565b61076f602084013561005e565b61077c604084013561005e565b610789606084013561005e565b610796608084013561005e565b6107a360a084013561005e565b6107b060c084013561005e565b6107bd60e084013561005e565b6107cb61010084013561005e565b6107d961012084013561005e565b6107e6818486888a6100fd565b90508060005260206000f35b806040810183101561080357600080fd5b92915050565b600080600080610240858703121561082057600080fd5b61082a86866107f2565b935060c085018681111561083d57600080fd5b60408601935061084d87826107f2565b925050856102408601111561086157600080fd5b5091949093509091610100019056fea2646970667358221220a947aedd0964e7da20af99e82f9fd6c4194f507f935f7355885d36aa599c466564736f6c634300081b0033",
          "opcodes": "PUSH1 0x80 PUSH1 0x40 MSTORE CALLVALUE DUP1 ISZERO PUSH1 0xF JUMPI PUSH1 0x0 DUP1 REVERT JUMPDEST POP PUSH2 0x8A6 DUP1 PUSH2 0x1F PUSH1 0x0 CODECOPY PUSH1 0x0 RETURN INVALID PUSH1 0x80 PUSH1 0x40 MSTORE CALLVALUE DUP1 ISZERO PUSH2 0x10 JUMPI PUSH1 0x0 DUP1 REVERT JUMPDEST POP PUSH1 0x4 CALLDATASIZE LT PUSH2 0x2B JUMPI PUSH1 0x0 CALLDATALOAD PUSH1 0xE0 SHR DUP1 PUSH4 0xF3BB70F6 EQ PUSH2 0x30 JUMPI JUMPDEST PUSH1 0x0 DUP1 REVERT JUMPDEST PUSH2 0x43 PUSH2 0x3E CALLDATASIZE PUSH1 0x4 PUSH2 0x809 JUMP JUMPDEST PUSH2 0x57 JUMP JUMPDEST PUSH1 0x40 MLOAD SWAP1 ISZERO ISZERO DUP2 MSTORE PUSH1 0x20 ADD PUSH1 0x40 MLOAD DUP1 SWAP2 SUB SWAP1 RETURN JUMPDEST PUSH1 0x0 PUSH2 0x74A JUMP JUMPDEST PUSH32 0x30644E72E131A029B85045B68181585D2833E84879B9709143E1F593F0000001 DUP2 LT PUSH2 0x8F JUMPI PUSH1 0x0 DUP1 MSTORE PUSH1 0x20 PUSH1 0x0 RETURN JUMPDEST POP JUMP JUMPDEST PUSH1 0x0 PUSH1 0x40 MLOAD DUP4 DUP2 MSTORE DUP5 PUSH1 0x20 DUP3 ADD MSTORE DUP6 PUSH1 0x40 DUP3 ADD MSTORE PUSH1 0x40 DUP2 PUSH1 0x60 DUP4 PUSH1 0x7 PUSH2 0x7D0 GAS SUB STATICCALL SWAP2 POP DUP2 PUSH2 0xC5 JUMPI PUSH1 0x0 DUP1 MSTORE PUSH1 0x20 PUSH1 0x0 RETURN JUMPDEST DUP3 MLOAD PUSH1 0x40 DUP3 ADD MSTORE PUSH1 0x20 DUP4 ADD MLOAD PUSH1 0x60 DUP3 ADD MSTORE PUSH1 0x40 DUP4 PUSH1 0x80 DUP4 PUSH1 0x6 PUSH2 0x7D0 GAS SUB STATICCALL SWAP2 POP POP DUP1 PUSH2 0xF6 JUMPI PUSH1 0x0 DUP1 MSTORE PUSH1 0x20 PUSH1 0x0 RETURN JUMPDEST POP POP POP POP POP JUMP JUMPDEST PUSH32 0x2BD8A0ED59A2AA940C5DD05EFBB7414319FEA154FC6FB9AE54A28D82AC97246D DUP6 MSTORE PUSH32 0x1C0EF73657AC39B9401FD8F8450EAE33C6B72C89F64564B04544FED5D753775D PUSH1 0x20 DUP7 ADD MSTORE PUSH1 0x0 PUSH1 0x80 DUP7 ADD DUP7 PUSH2 0x19A DUP8 CALLDATALOAD PUSH32 0x2559B64E8C0F7F9EF0F028A89D4EE32C4F94B33EFF37E60791BF21E1589EB838 PUSH32 0x15CFB07A802F3BBE448F806FBFA79448C6A2615D3CB32EB14E6A60499FFF0A73 DUP5 PUSH2 0x92 JUMP JUMPDEST PUSH2 0x1EA PUSH1 0x20 DUP9 ADD CALLDATALOAD PUSH32 0x19C9E17C4CEED864491A21ADA36D391F6096CA09A2F1235626859392831F8809 PUSH32 0x1E2DAE6855A00ABCA9ACA47802D24FC0E3006234E8D2B37CB74FE9776425FC85 DUP5 PUSH2 0x92 JUMP JUMPDEST PUSH2 0x23A PUSH1 0x40 DUP9 ADD CALLDATALOAD PUSH32 0xE8E226950FA1EC3DE22FF49E9B6D7AEA6DBB35AF78F05F97EFBD48AACFAB994 PUSH32 0xCCFFD9A567AD0DF21B63F9D1BB8801A4CFD5055677F9EF7F5DDE7CB79AE072F DUP5 PUSH2 0x92 JUMP JUMPDEST PUSH2 0x289 PUSH1 0x60 DUP9 ADD CALLDATALOAD PUSH32 0x2E65A079EC780ED897D8BAB8D42008F4334175FB0F193A27470DC7EE3E6C462D PUSH31 0x91C9C14E6EF1A5A279905231F99DFF4163BEF8558B6DE39CADA2F771F8E9C0 DUP5 PUSH2 0x92 JUMP JUMPDEST PUSH2 0x2D9 PUSH1 0x80 DUP9 ADD CALLDATALOAD PUSH32 0x24ADCA73B3F2C5B478F4B936C32CB3CE37554292110C5398D78E4F6D9B571FB6 PUSH32 0x1AB97A4797800D2988506EA86D1EC4DDB2C03A0ED91CEC4523E54302231E0A01 DUP5 PUSH2 0x92 JUMP JUMPDEST PUSH2 0x329 PUSH1 0xA0 DUP9 ADD CALLDATALOAD PUSH32 0x20083A83F755EF140EE49F888187FB171F2EB112C833D96480D37776A1BE22E6 PUSH32 0xDF039FD2E2046F94F26A80E9594B1B29488C47F3AADF90E62006F3ABCC56F50 DUP5 PUSH2 0x92 JUMP JUMPDEST PUSH2 0x379 PUSH1 0xC0 DUP9 ADD CALLDATALOAD PUSH32 0x154325CD93B197F51C3B22AE24E3B4801D2CDF4BCB579F9E4CCDBB9958283E32 PUSH32 0x1C9060DB3EA57539BEC5D49E8DE0C05DA8B01A3E5CA6A40CB5DF76F8160CB012 DUP5 PUSH2 0x92 JUMP JUMPDEST PUSH2 0x3C8 PUSH1 0xE0 DUP9 ADD CALLDATALOAD PUSH32 0x2AAFCE561DD9DCE63528710F4C592CE153BF1B7A12F34BBC7148F0ACB0DC6545 PUSH31 0xF438F228E64E9F64B3A434593356A960E37EB9AEB8CE234D1515D5510A823F DUP5 PUSH2 0x92 JUMP JUMPDEST PUSH2 0x419 PUSH2 0x100 DUP9 ADD CALLDATALOAD PUSH32 0x1ED4F77DA90ECDA33006C6A357DAA9176F0CC6F406E48249258BA14FCC3E5705 PUSH32 0x1E5D5BC968B95FDA37CC906B7AFF539F39D22E3E3042F636E4AB68C323BC2BE6 DUP5 PUSH2 0x92 JUMP JUMPDEST PUSH2 0x46A PUSH2 0x120 DUP9 ADD CALLDATALOAD PUSH32 0x2381007AC73E773DB80C727E0A2E6923347411BE9ADFACF798AF600AC471F02E PUSH32 0x26A26FF46E675BC3C07D9FEF469A85DA2B32F10F1BDFC9B9F4D72704F7CAE9CD DUP5 PUSH2 0x92 JUMP JUMPDEST POP DUP3 CALLDATALOAD DUP2 MSTORE PUSH32 0x30644E72E131A029B85045B68181585D97816A916871CA8D3C208C16D87CFD47 PUSH1 0x20 DUP5 ADD CALLDATALOAD PUSH32 0x30644E72E131A029B85045B68181585D97816A916871CA8D3C208C16D87CFD47 SUB MOD PUSH1 0x20 DUP3 ADD MSTORE DUP4 CALLDATALOAD PUSH1 0x40 DUP3 ADD MSTORE PUSH1 0x20 DUP5 ADD CALLDATALOAD PUSH1 0x60 DUP3 ADD MSTORE PUSH1 0x40 DUP5 ADD CALLDATALOAD PUSH1 0x80 DUP3 ADD MSTORE PUSH1 0x60 DUP5 ADD CALLDATALOAD PUSH1 0xA0 DUP3 ADD MSTORE PUSH32 0x2D4D9AA7E302D9DF41749D5507949D05DBEA33FBB16C643B22F599A2BE6DF2E2 PUSH1 0xC0 DUP3 ADD MSTORE PUSH32 0x14BEDD503C37CEB061D8EC60209FE345CE89830A19230301F076CAFF004D1926 PUSH1 0xE0 DUP3 ADD MSTORE PUSH32 0x967032FCBF776D1AFC985F88877F182D38480A653F2DECAA9794CBC3BF3060C PUSH2 0x100 DUP3 ADD MSTORE PUSH32 0xE187847AD4C798374D0D6732BF501847DD68BC0E071241E0213BC7FC13DB7AB PUSH2 0x120 DUP3 ADD MSTORE PUSH32 0x304CFBD1E08A704A99F5E847D93F8C3CAAFDDEC46B7A0D379DA69A4D112346A7 PUSH2 0x140 DUP3 ADD MSTORE PUSH32 0x1739C1B1A457A8C7313123D24D2F9192F896B7C63EEA05A9D57F06547AD0CEC8 PUSH2 0x160 DUP3 ADD MSTORE PUSH1 0x0 DUP8 ADD MLOAD PUSH2 0x180 DUP3 ADD MSTORE PUSH1 0x20 PUSH1 0x0 ADD DUP8 ADD MLOAD PUSH2 0x1A0 DUP3 ADD MSTORE PUSH32 0x198E9393920D483A7260BFB731FB5D25F1AA493335A9E71297E485B7AEF312C2 PUSH2 0x1C0 DUP3 ADD MSTORE PUSH32 0x1800DEEF121F1E76426A00665E5C4479674322D4F75EDADD46DEBD5CD992F6ED PUSH2 0x1E0 DUP3 ADD MSTORE PUSH32 0x90689D0585FF075EC9E99AD690C3395BC4B313370B38EF355ACDADCD122975B PUSH2 0x200 DUP3 ADD MSTORE PUSH32 0x12C85EA5DB8C6DEB4AAB71808DCB408FE3D1E7690C43D37B4CE6CC0166FA7DAA PUSH2 0x220 DUP3 ADD MSTORE DUP5 CALLDATALOAD PUSH2 0x240 DUP3 ADD MSTORE PUSH1 0x20 DUP6 ADD CALLDATALOAD PUSH2 0x260 DUP3 ADD MSTORE PUSH32 0x12E43C9BB0B129FD9FBD5827530660ABF70A55968F37C3EBB31F42D83C593FD5 PUSH2 0x280 DUP3 ADD MSTORE PUSH32 0x21DFDB007238FD96F9D3169AB32BCBA32C35F5CCC7AFE404E7024D9E7937B9EE PUSH2 0x2A0 DUP3 ADD MSTORE PUSH32 0x2731BD6494A38C393AABFBCF4F81F7E3655859960EDE6F59363E3DC810A8267D PUSH2 0x2C0 DUP3 ADD MSTORE PUSH32 0x1165C632F815A9196C20BC4E82F4ABF8F3BA3B55ACAA9AC081D290A598C15341 PUSH2 0x2E0 DUP3 ADD MSTORE PUSH1 0x20 DUP2 PUSH2 0x300 DUP4 PUSH1 0x8 PUSH2 0x7D0 GAS SUB STATICCALL SWAP1 MLOAD AND SWAP7 SWAP6 POP POP POP POP POP POP JUMP JUMPDEST PUSH1 0x40 MLOAD PUSH2 0x380 DUP2 ADD PUSH1 0x40 MSTORE PUSH2 0x762 PUSH1 0x0 DUP5 ADD CALLDATALOAD PUSH2 0x5E JUMP JUMPDEST PUSH2 0x76F PUSH1 0x20 DUP5 ADD CALLDATALOAD PUSH2 0x5E JUMP JUMPDEST PUSH2 0x77C PUSH1 0x40 DUP5 ADD CALLDATALOAD PUSH2 0x5E JUMP JUMPDEST PUSH2 0x789 PUSH1 0x60 DUP5 ADD CALLDATALOAD PUSH2 0x5E JUMP JUMPDEST PUSH2 0x796 PUSH1 0x80 DUP5 ADD CALLDATALOAD PUSH2 0x5E JUMP JUMPDEST PUSH2 0x7A3 PUSH1 0xA0 DUP5 ADD CALLDATALOAD PUSH2 0x5E JUMP JUMPDEST PUSH2 0x7B0 PUSH1 0xC0 DUP5 ADD CALLDATALOAD PUSH2 0x5E JUMP JUMPDEST PUSH2 0x7BD PUSH1 0xE0 DUP5 ADD CALLDATALOAD PUSH2 0x5E JUMP JUMPDEST PUSH2 0x7CB PUSH2 0x100 DUP5 ADD CALLDATALOAD PUSH2 0x5E JUMP JUMPDEST PUSH2 0x7D9 PUSH2 0x120 DUP5 ADD CALLDATALOAD PUSH2 0x5E JUMP JUMPDEST PUSH2 0x7E6 DUP2 DUP5 DUP7 DUP9 DUP11 PUSH2 0xFD JUMP JUMPDEST SWAP1 POP DUP1 PUSH1 0x0 MSTORE PUSH1 0x20 PUSH1 0x0 RETURN JUMPDEST DUP1 PUSH1 0x40 DUP2 ADD DUP4 LT ISZERO PUSH2 0x803 JUMPI PUSH1 0x0 DUP1 REVERT JUMPDEST SWAP3 SWAP2 POP POP JUMP JUMPDEST PUSH1 0x0 DUP1 PUSH1 0x0 DUP1 PUSH2 0x240 DUP6 DUP8 SUB SLT ISZERO PUSH2 0x820 JUMPI PUSH1 0x0 DUP1 REVERT JUMPDEST PUSH2 0x82A DUP7 DUP7 PUSH2 0x7F2 JUMP JUMPDEST SWAP4 POP PUSH1 0xC0 DUP6 ADD DUP7 DUP2 GT ISZERO PUSH2 0x83D JUMPI PUSH1 0x0 DUP1 REVERT JUMPDEST PUSH1 0x40 DUP7 ADD SWAP4 POP PUSH2 0x84D DUP8 DUP3 PUSH2 0x7F2 JUMP JUMPDEST SWAP3 POP POP DUP6 PUSH2 0x240 DUP7 ADD GT ISZERO PUSH2 0x861 JUMPI PUSH1 0x0 DUP1 REVERT JUMPDEST POP SWAP2 SWAP5 SWAP1 SWAP4 POP SWAP1 SWAP2 PUSH2 0x100 ADD SWAP1 JUMP INVALID LOG2 PUSH5 0x6970667358 0x22 SLT KECCAK256 0xA9 SELFBALANCE 0xAE 0xDD MULMOD PUSH5 0xE7DA20AF99 0xE8 0x2F SWAP16 0xD6 0xC4 NOT 0x4F POP PUSH32 0x935F7355885D36AA599C466564736F6C634300081B0033000000000000000000 "
        },
        "methodIdentifiers": {
          "verifyProof(uint256[2],uint256[2][2],uint256[2],uint256[10])": "f3bb70f6"
        }
      },
      "storageLayout": {
        "storage": [],
        "types": null
      }
    }
  }
}