{
  "contracts/verifiers/anonAadhaarV1/Verifier_anon_aadhaar_v1.sol": {
    "Verifier_anon_aadhaar_v1": {
      "abi": [
        {
          "inputs": [
            {
              "internalType": "uint256[2]",
              "name": "_pA",
              "type": "uint256[2]"
            },
            {
              "internalType": "uint256[2][2]",
              "name": "_pB",
              "type": "uint256[2][2]"
            },
            {
              "internalType": "uint256[2]",
              "name": "_pC",
              "type": "uint256[2]"
            },
            {
              "internalType": "uint256[12]",
              "name": "_pubSignals",
              "type": "uint256[12]"
            }
          ],
          "name": "verifyProof",
          "outputs": [
            {
              "internalType": "bool",
              "name": "",
              "type": "bool"
            }
          ],
          "stateMutability": "view",
          "type": "function"
        }
      ],
      "evm": {
        "bytecode": {
          "linkReferences": {},
          "object": "6080604052348015600f57600080fd5b506109668061001f6000396000f3fe608060405234801561001057600080fd5b506004361061002b5760003560e01c80638cbac0fa14610030575b600080fd5b61004361003e3660046108c9565b610057565b604051901515815260200160405180910390f35b60006107ee565b7f30644e72e131a029b85045b68181585d2833e84879b9709143e1f593f0000001811061008f576000805260206000f35b50565b600060405183815284602082015285604082015260408160608360076107d05a03fa9150816100c5576000805260206000f35b825160408201526020830151606082015260408360808360066107d05a03fa915050806100f6576000805260206000f35b5050505050565b7f1e79c4b9904729798d9678144a6be73328fb8656e634298a7d4be144008dd2e985527f03c2c84365ecc679d19a76b1f92235f5cc98dab06b2e6ace41d07aa880471c7d60208601526000608086018661019a87357f29c29227a007cb41ad2515aa37aa1683c5161450d76baf6b027d564cf247d03e7f0d3e74a5e5e2dee1e475348082931b32aba565cd78c03793cf63ea411b86022b84610092565b6101ea60208801357f18a70ebd9729ed094decd169d3e7bcf4e410ee838cdfa6e1d6150bab22d159237f2797551e6d65aa356d58d04537ae3faac87f8e6417d8b1fff9ad7384f855075784610092565b61023a60408801357f276b28ec1587c750abdb722bbc34151ebad3f08011a0a4fb76ef742d6a6a665b7f1566c74aaeea4ce7882963d0b461bba1fb1411df0ef8fbdbde4671668071037484610092565b61028a60608801357f02cff593b2f191899362ccd6dda4ddf3569424cd21f3a6d53e2cc9ccb29965767f166d3857de2c85545817be220c380bc1a3bb6390b819d081e4d3d9952ca4c67684610092565b6102da60808801357f02d4317f2b31b821da6eafa51d6dd573ba0ed26a5a1559b22e75789cccc050827f2b6abc06cb3ebdf53d318debcaca963c70ea99e404b23faf6456a1796737e39b84610092565b61032a60a08801357f2c92edacb3e834e4231cda6f8b9a4e0490d572d166f8b64c99bf5ca23bf8e5b87f0b1c451f88900b6d464f4f987a7f7d5f8480f0f67d92d57a1fe0b5113142991a84610092565b61037a60c08801357f17216e7d39dc273313a79f99e69c36ceb5a03a2abb6e341413d1c77f25cfea427f02e3373dce67e7503b783d9ca521ef06ca6ec48e7c345bc94b82d74db932c7f784610092565b6103ca60e08801357f0b4699bce5cc5d80d3c57c4f0584fbd017bf5fe5c310ec0cd220c9608048259d7f0ab239fc9e381caa730ded03b92da274ff2e56562effe0c6db034025c6eb479a84610092565b61041b6101008801357f0b597742fc5156b74a4f87ddc9dd6c8065d96437290afa4baed9ddd8a81024627f1b7e6efb7051467ebb8468e2d2983f6eed3f6475756564154ae420f73cd7572584610092565b61046c6101208801357f20d6620435fde1991bd0cdd5c31012b3c331a70376b99bf136ad6332bce19d837f09465d138d9cb60eca3237d8374d7e2822e7277ad835e4443fe22a29b15539ac84610092565b6104bd6101408801357f0a3148bd8d4e4320be9984617534dcbbef1b6f0201d2ea6933007743876367097f1839329a4525184630c4d89b8c90de6bec93e75f44368980a1bad62e3ed7dd2984610092565b61050e6101608801357f025bb374cc0c3004e2598bcaf7072ea9f4a335dbe411f485f51ed56a23cfc7587f2898e16802df56c5baa60373bf22a2e394d37356286ae4bc17e8f461512e1a0684610092565b50823581527f30644e72e131a029b85045b68181585d97816a916871ca8d3c208c16d87cfd4760208401357f30644e72e131a029b85045b68181585d97816a916871ca8d3c208c16d87cfd4703066020820152833560408201526020840135606082015260408401356080820152606084013560a08201527f2d4d9aa7e302d9df41749d5507949d05dbea33fbb16c643b22f599a2be6df2e260c08201527f14bedd503c37ceb061d8ec60209fe345ce89830a19230301f076caff004d192660e08201527f0967032fcbf776d1afc985f88877f182d38480a653f2decaa9794cbc3bf3060c6101008201527f0e187847ad4c798374d0d6732bf501847dd68bc0e071241e0213bc7fc13db7ab6101208201527f304cfbd1e08a704a99f5e847d93f8c3caafddec46b7a0d379da69a4d112346a76101408201527f1739c1b1a457a8c7313123d24d2f9192f896b7c63eea05a9d57f06547ad0cec8610160820152600087015161018082015260206000018701516101a08201527f198e9393920d483a7260bfb731fb5d25f1aa493335a9e71297e485b7aef312c26101c08201527f1800deef121f1e76426a00665e5c4479674322d4f75edadd46debd5cd992f6ed6101e08201527f090689d0585ff075ec9e99ad690c3395bc4b313370b38ef355acdadcd122975b6102008201527f12c85ea5db8c6deb4aab71808dcb408fe3d1e7690c43d37b4ce6cc0166fa7daa610220820152843561024082015260208501356102608201527f090c5a3db8c5a2d695bdfeba0a97d32699aea3f69f60e379873ebd4fc7cc2e0d6102808201527f076c89774a7ab4579366774730f31d16f6dbf52c9cb8daaf8b5f46873f3efbc96102a08201527f2708c2498eee715613f1d460a87c72946defe7e9d63c3d5e5667e9c2f6eb5ef26102c08201527f16dfbe0375facccb193b0a3ddde1f3c8d69c7cc34d7c98dcb0bc378c13869fac6102e08201526020816103008360086107d05a03fa9051169695505050505050565b6040516103808101604052610806600084013561005e565b610813602084013561005e565b610820604084013561005e565b61082d606084013561005e565b61083a608084013561005e565b61084760a084013561005e565b61085460c084013561005e565b61086160e084013561005e565b61086f61010084013561005e565b61087d61012084013561005e565b61088b61014084013561005e565b61089961016084013561005e565b6108a6818486888a6100fd565b90508060005260206000f35b80604081018310156108c357600080fd5b92915050565b60008060008061028085870312156108e057600080fd5b6108ea86866108b2565b935060c08501868111156108fd57600080fd5b60408601935061090d87826108b2565b925050856102808601111561092157600080fd5b5091949093509091610100019056fea264697066735822122035ce8b79e7dfc8a8fea26e9dcc4b1be865389ab70412724bc34d92f5d14c6ee964736f6c634300081b0033",
          "opcodes": "PUSH1 0x80 PUSH1 0x40 MSTORE CALLVALUE DUP1 ISZERO PUSH1 0xF JUMPI PUSH1 0x0 DUP1 REVERT JUMPDEST POP PUSH2 0x966 DUP1 PUSH2 0x1F PUSH1 0x0 CODECOPY PUSH1 0x0 RETURN INVALID PUSH1 0x80 PUSH1 0x40 MSTORE CALLVALUE DUP1 ISZERO PUSH2 0x10 JUMPI PUSH1 0x0 DUP1 REVERT JUMPDEST POP PUSH1 0x4 CALLDATASIZE LT PUSH2 0x2B JUMPI PUSH1 0x0 CALLDATALOAD PUSH1 0xE0 SHR DUP1 PUSH4 0x8CBAC0FA EQ PUSH2 0x30 JUMPI JUMPDEST PUSH1 0x0 DUP1 REVERT JUMPDEST PUSH2 0x43 PUSH2 0x3E CALLDATASIZE PUSH1 0x4 PUSH2 0x8C9 JUMP JUMPDEST PUSH2 0x57 JUMP JUMPDEST PUSH1 0x40 MLOAD SWAP1 ISZERO ISZERO DUP2 MSTORE PUSH1 0x20 ADD PUSH1 0x40 MLOAD DUP1 SWAP2 SUB SWAP1 RETURN JUMPDEST PUSH1 0x0 PUSH2 0x7EE JUMP JUMPDEST PUSH32 0x30644E72E131A029B85045B68181585D2833E84879B9709143E1F593F0000001 DUP2 LT PUSH2 0x8F JUMPI PUSH1 0x0 DUP1 MSTORE PUSH1 0x20 PUSH1 0x0 RETURN JUMPDEST POP JUMP JUMPDEST PUSH1 0x0 PUSH1 0x40 MLOAD DUP4 DUP2 MSTORE DUP5 PUSH1 0x20 DUP3 ADD MSTORE DUP6 PUSH1 0x40 DUP3 ADD MSTORE PUSH1 0x40 DUP2 PUSH1 0x60 DUP4 PUSH1 0x7 PUSH2 0x7D0 GAS SUB STATICCALL SWAP2 POP DUP2 PUSH2 0xC5 JUMPI PUSH1 0x0 DUP1 MSTORE PUSH1 0x20 PUSH1 0x0 RETURN JUMPDEST DUP3 MLOAD PUSH1 0x40 DUP3 ADD MSTORE PUSH1 0x20 DUP4 ADD MLOAD PUSH1 0x60 DUP3 ADD MSTORE PUSH1 0x40 DUP4 PUSH1 0x80 DUP4 PUSH1 0x6 PUSH2 0x7D0 GAS SUB STATICCALL SWAP2 POP POP DUP1 PUSH2 0xF6 JUMPI PUSH1 0x0 DUP1 MSTORE PUSH1 0x20 PUSH1 0x0 RETURN JUMPDEST POP POP POP POP POP JUMP JUMPDEST PUSH32 0x1E79C4B9904729798D9678144A6BE73328FB8656E634298A7D4BE144008DD2E9 DUP6 MSTORE PUSH32 0x3C2C84365ECC679D19A76B1F92235F5CC98DAB06B2E6ACE41D07AA880471C7D PUSH1 0x20 DUP7 ADD MSTORE PUSH1 0x0 PUSH1 0x80 DUP7 ADD DUP7 PUSH2 0x19A DUP8 CALLDATALOAD PUSH32 0x29C29227A007CB41AD2515AA37AA1683C5161450D76BAF6B027D564CF247D03E PUSH32 0xD3E74A5E5E2DEE1E475348082931B32ABA565CD78C03793CF63EA411B86022B DUP5 PUSH2 0x92 JUMP JUMPDEST PUSH2 0x1EA PUSH1 0x20 DUP9 ADD CALLDATALOAD PUSH32 0x18A70EBD9729ED094DECD169D3E7BCF4E410EE838CDFA6E1D6150BAB22D15923 PUSH32 0x2797551E6D65AA356D58D04537AE3FAAC87F8E6417D8B1FFF9AD7384F8550757 DUP5 PUSH2 0x92 JUMP JUMPDEST PUSH2 0x23A PUSH1 0x40 DUP9 ADD CALLDATALOAD PUSH32 0x276B28EC1587C750ABDB722BBC34151EBAD3F08011A0A4FB76EF742D6A6A665B PUSH32 0x1566C74AAEEA4CE7882963D0B461BBA1FB1411DF0EF8FBDBDE46716680710374 DUP5 PUSH2 0x92 JUMP JUMPDEST PUSH2 0x28A PUSH1 0x60 DUP9 ADD CALLDATALOAD PUSH32 0x2CFF593B2F191899362CCD6DDA4DDF3569424CD21F3A6D53E2CC9CCB2996576 PUSH32 0x166D3857DE2C85545817BE220C380BC1A3BB6390B819D081E4D3D9952CA4C676 DUP5 PUSH2 0x92 JUMP JUMPDEST PUSH2 0x2DA PUSH1 0x80 DUP9 ADD CALLDATALOAD PUSH32 0x2D4317F2B31B821DA6EAFA51D6DD573BA0ED26A5A1559B22E75789CCCC05082 PUSH32 0x2B6ABC06CB3EBDF53D318DEBCACA963C70EA99E404B23FAF6456A1796737E39B DUP5 PUSH2 0x92 JUMP JUMPDEST PUSH2 0x32A PUSH1 0xA0 DUP9 ADD CALLDATALOAD PUSH32 0x2C92EDACB3E834E4231CDA6F8B9A4E0490D572D166F8B64C99BF5CA23BF8E5B8 PUSH32 0xB1C451F88900B6D464F4F987A7F7D5F8480F0F67D92D57A1FE0B5113142991A DUP5 PUSH2 0x92 JUMP JUMPDEST PUSH2 0x37A PUSH1 0xC0 DUP9 ADD CALLDATALOAD PUSH32 0x17216E7D39DC273313A79F99E69C36CEB5A03A2ABB6E341413D1C77F25CFEA42 PUSH32 0x2E3373DCE67E7503B783D9CA521EF06CA6EC48E7C345BC94B82D74DB932C7F7 DUP5 PUSH2 0x92 JUMP JUMPDEST PUSH2 0x3CA PUSH1 0xE0 DUP9 ADD CALLDATALOAD PUSH32 0xB4699BCE5CC5D80D3C57C4F0584FBD017BF5FE5C310EC0CD220C9608048259D PUSH32 0xAB239FC9E381CAA730DED03B92DA274FF2E56562EFFE0C6DB034025C6EB479A DUP5 PUSH2 0x92 JUMP JUMPDEST PUSH2 0x41B PUSH2 0x100 DUP9 ADD CALLDATALOAD PUSH32 0xB597742FC5156B74A4F87DDC9DD6C8065D96437290AFA4BAED9DDD8A8102462 PUSH32 0x1B7E6EFB7051467EBB8468E2D2983F6EED3F6475756564154AE420F73CD75725 DUP5 PUSH2 0x92 JUMP JUMPDEST PUSH2 0x46C PUSH2 0x120 DUP9 ADD CALLDATALOAD PUSH32 0x20D6620435FDE1991BD0CDD5C31012B3C331A70376B99BF136AD6332BCE19D83 PUSH32 0x9465D138D9CB60ECA3237D8374D7E2822E7277AD835E4443FE22A29B15539AC DUP5 PUSH2 0x92 JUMP JUMPDEST PUSH2 0x4BD PUSH2 0x140 DUP9 ADD CALLDATALOAD PUSH32 0xA3148BD8D4E4320BE9984617534DCBBEF1B6F0201D2EA693300774387636709 PUSH32 0x1839329A4525184630C4D89B8C90DE6BEC93E75F44368980A1BAD62E3ED7DD29 DUP5 PUSH2 0x92 JUMP JUMPDEST PUSH2 0x50E PUSH2 0x160 DUP9 ADD CALLDATALOAD PUSH32 0x25BB374CC0C3004E2598BCAF7072EA9F4A335DBE411F485F51ED56A23CFC758 PUSH32 0x2898E16802DF56C5BAA60373BF22A2E394D37356286AE4BC17E8F461512E1A06 DUP5 PUSH2 0x92 JUMP JUMPDEST POP DUP3 CALLDATALOAD DUP2 MSTORE PUSH32 0x30644E72E131A029B85045B68181585D97816A916871CA8D3C208C16D87CFD47 PUSH1 0x20 DUP5 ADD CALLDATALOAD PUSH32 0x30644E72E131A029B85045B68181585D97816A916871CA8D3C208C16D87CFD47 SUB MOD PUSH1 0x20 DUP3 ADD MSTORE DUP4 CALLDATALOAD PUSH1 0x40 DUP3 ADD MSTORE PUSH1 0x20 DUP5 ADD CALLDATALOAD PUSH1 0x60 DUP3 ADD MSTORE PUSH1 0x40 DUP5 ADD CALLDATALOAD PUSH1 0x80 DUP3 ADD MSTORE PUSH1 0x60 DUP5 ADD CALLDATALOAD PUSH1 0xA0 DUP3 ADD MSTORE PUSH32 0x2D4D9AA7E302D9DF41749D5507949D05DBEA33FBB16C643B22F599A2BE6DF2E2 PUSH1 0xC0 DUP3 ADD MSTORE PUSH32 0x14BEDD503C37CEB061D8EC60209FE345CE89830A19230301F076CAFF004D1926 PUSH1 0xE0 DUP3 ADD MSTORE PUSH32 0x967032FCBF776D1AFC985F88877F182D38480A653F2DECAA9794CBC3BF3060C PUSH2 0x100 DUP3 ADD MSTORE PUSH32 0xE187847AD4C798374D0D6732BF501847DD68BC0E071241E0213BC7FC13DB7AB PUSH2 0x120 DUP3 ADD MSTORE PUSH32 0x304CFBD1E08A704A99F5E847D93F8C3CAAFDDEC46B7A0D379DA69A4D112346A7 PUSH2 0x140 DUP3 ADD MSTORE PUSH32 0x1739C1B1A457A8C7313123D24D2F9192F896B7C63EEA05A9D57F06547AD0CEC8 PUSH2 0x160 DUP3 ADD MSTORE PUSH1 0x0 DUP8 ADD MLOAD PUSH2 0x180 DUP3 ADD MSTORE PUSH1 0x20 PUSH1 0x0 ADD DUP8 ADD MLOAD PUSH2 0x1A0 DUP3 ADD MSTORE PUSH32 0x198E9393920D483A7260BFB731FB5D25F1AA493335A9E71297E485B7AEF312C2 PUSH2 0x1C0 DUP3 ADD MSTORE PUSH32 0x1800DEEF121F1E76426A00665E5C4479674322D4F75EDADD46DEBD5CD992F6ED PUSH2 0x1E0 DUP3 ADD MSTORE PUSH32 0x90689D0585FF075EC9E99AD690C3395BC4B313370B38EF355ACDADCD122975B PUSH2 0x200 DUP3 ADD MSTORE PUSH32 0x12C85EA5DB8C6DEB4AAB71808DCB408FE3D1E7690C43D37B4CE6CC0166FA7DAA PUSH2 0x220 DUP3 ADD MSTORE DUP5 CALLDATALOAD PUSH2 0x240 DUP3 ADD MSTORE PUSH1 0x20 DUP6 ADD CALLDATALOAD PUSH2 0x260 DUP3 ADD MSTORE PUSH32 0x90C5A3DB8C5A2D695BDFEBA0A97D32699AEA3F69F60E379873EBD4FC7CC2E0D PUSH2 0x280 DUP3 ADD MSTORE PUSH32 0x76C89774A7AB4579366774730F31D16F6DBF52C9CB8DAAF8B5F46873F3EFBC9 PUSH2 0x2A0 DUP3 ADD MSTORE PUSH32 0x2708C2498EEE715613F1D460A87C72946DEFE7E9D63C3D5E5667E9C2F6EB5EF2 PUSH2 0x2C0 DUP3 ADD MSTORE PUSH32 0x16DFBE0375FACCCB193B0A3DDDE1F3C8D69C7CC34D7C98DCB0BC378C13869FAC PUSH2 0x2E0 DUP3 ADD MSTORE PUSH1 0x20 DUP2 PUSH2 0x300 DUP4 PUSH1 0x8 PUSH2 0x7D0 GAS SUB STATICCALL SWAP1 MLOAD AND SWAP7 SWAP6 POP POP POP POP POP POP JUMP JUMPDEST PUSH1 0x40 MLOAD PUSH2 0x380 DUP2 ADD PUSH1 0x40 MSTORE PUSH2 0x806 PUSH1 0x0 DUP5 ADD CALLDATALOAD PUSH2 0x5E JUMP JUMPDEST PUSH2 0x813 PUSH1 0x20 DUP5 ADD CALLDATALOAD PUSH2 0x5E JUMP JUMPDEST PUSH2 0x820 PUSH1 0x40 DUP5 ADD CALLDATALOAD PUSH2 0x5E JUMP JUMPDEST PUSH2 0x82D PUSH1 0x60 DUP5 ADD CALLDATALOAD PUSH2 0x5E JUMP JUMPDEST PUSH2 0x83A PUSH1 0x80 DUP5 ADD CALLDATALOAD PUSH2 0x5E JUMP JUMPDEST PUSH2 0x847 PUSH1 0xA0 DUP5 ADD CALLDATALOAD PUSH2 0x5E JUMP JUMPDEST PUSH2 0x854 PUSH1 0xC0 DUP5 ADD CALLDATALOAD PUSH2 0x5E JUMP JUMPDEST PUSH2 0x861 PUSH1 0xE0 DUP5 ADD CALLDATALOAD PUSH2 0x5E JUMP JUMPDEST PUSH2 0x86F PUSH2 0x100 DUP5 ADD CALLDATALOAD PUSH2 0x5E JUMP JUMPDEST PUSH2 0x87D PUSH2 0x120 DUP5 ADD CALLDATALOAD PUSH2 0x5E JUMP JUMPDEST PUSH2 0x88B PUSH2 0x140 DUP5 ADD CALLDATALOAD PUSH2 0x5E JUMP JUMPDEST PUSH2 0x899 PUSH2 0x160 DUP5 ADD CALLDATALOAD PUSH2 0x5E JUMP JUMPDEST PUSH2 0x8A6 DUP2 DUP5 DUP7 DUP9 DUP11 PUSH2 0xFD JUMP JUMPDEST SWAP1 POP DUP1 PUSH1 0x0 MSTORE PUSH1 0x20 PUSH1 0x0 RETURN JUMPDEST DUP1 PUSH1 0x40 DUP2 ADD DUP4 LT ISZERO PUSH2 0x8C3 JUMPI PUSH1 0x0 DUP1 REVERT JUMPDEST SWAP3 SWAP2 POP POP JUMP JUMPDEST PUSH1 0x0 DUP1 PUSH1 0x0 DUP1 PUSH2 0x280 DUP6 DUP8 SUB SLT ISZERO PUSH2 0x8E0 JUMPI PUSH1 0x0 DUP1 REVERT JUMPDEST PUSH2 0x8EA DUP7 DUP7 PUSH2 0x8B2 JUMP JUMPDEST SWAP4 POP PUSH1 0xC0 DUP6 ADD DUP7 DUP2 GT ISZERO PUSH2 0x8FD JUMPI PUSH1 0x0 DUP1 REVERT JUMPDEST PUSH1 0x40 DUP7 ADD SWAP4 POP PUSH2 0x90D DUP8 DUP3 PUSH2 0x8B2 JUMP JUMPDEST SWAP3 POP POP DUP6 PUSH2 0x280 DUP7 ADD GT ISZERO PUSH2 0x921 JUMPI PUSH1 0x0 DUP1 REVERT JUMPDEST POP SWAP2 SWAP5 SWAP1 SWAP4 POP SWAP1 SWAP2 PUSH2 0x100 ADD SWAP1 JUMP INVALID LOG2 PUSH5 0x6970667358 0x22 SLT KECCAK256 CALLDATALOAD 0xCE DUP12 PUSH26 0xE7DFC8A8FEA26E9DCC4B1BE865389AB70412724BC34D92F5D14C PUSH15 0xE964736F6C634300081B0033000000 "
        },
        "methodIdentifiers": {
          "verifyProof(uint256[2],uint256[2][2],uint256[2],uint256[12])": "8cbac0fa"
        }
      },
      "storageLayout": {
        "storage": [],
        "types": null
      }
    }
  }
}