{
  "contracts/verifiers/credential/Verifier_credential_sha1.sol": {
    "Verifier_credential_sha1": {
      "abi": [
        {
          "inputs": [
            {
              "internalType": "uint256[2]",
              "name": "_pA",
              "type": "uint256[2]"
            },
            {
              "internalType": "uint256[2][2]",
              "name": "_pB",
              "type": "uint256[2][2]"
            },
            {
              "internalType": "uint256[2]",
              "name": "_pC",
              "type": "uint256[2]"
            },
            {
              "internalType": "uint256[8]",
              "name": "_pubSignals",
              "type": "uint256[8]"
            }
          ],
          "name": "verifyProof",
          "outputs": [
            {
              "internalType": "bool",
              "name": "",
              "type": "bool"
            }
          ],
          "stateMutability": "view",
          "type": "function"
        }
      ],
      "evm": {
        "bytecode": {
          "linkReferences": {},
          "object": "6080604052348015600f57600080fd5b506107e98061001f6000396000f3fe608060405234801561001057600080fd5b506004361061002b5760003560e01c8063c9219a7a14610030575b600080fd5b61004361003e36600461074c565b610057565b604051901515815260200160405180910390f35b60006106a9565b7f30644e72e131a029b85045b68181585d2833e84879b9709143e1f593f0000001811061008f576000805260206000f35b50565b600060405183815284602082015285604082015260408160608360076107d05a03fa9150816100c5576000805260206000f35b825160408201526020830151606082015260408360808360066107d05a03fa915050806100f6576000805260206000f35b5050505050565b7f1e7a4136c5c2a8e56ecab2adec4a9b19b65d52e91bd64e9f0b86431d2a5ab4e385527f2470d665f2051d67db6cf0b42c3d2fe5a136486c676363b66f20ccd248ea7f9a60208601526000608086018661019a87357f0f2e1a52faa655affa996ecb7d4b759594012fe3eebdf9c171151f3c6c93d2297f1883b27389410886780ad923233bfdfc9d10e769376f99b4097244f3d4a1269a84610092565b6101ea60208801357f0ca95bd9deb3ced5c604e1c10e54dc374a9f0fe997a35f938d121573bad9e0dc7f20990d123cdab34adb176eb700c5873ea3ecdb40de1f16a7c12c92cc5333cb9884610092565b61023a60408801357f17db22c2a0c62419064b6945ba8783c23fb26abb629607c892e6ea4e6cf59e817f0c21970d26995c5a9c76502bce0ed0340da5a9fff71c463b91c88e268c30103a84610092565b61028a60608801357f0587b5387f113729ee8ef175b0bee4fce0a554415d5de9175a20b77711a2f7e17f2029f7cce1473bd90e87bb67e98e60c9e2e5427d367b27fcd1254c252c88d6cd84610092565b6102da60808801357f0c7060885ffd706e0b49c556bd631d63e5dbd3b2fdb4a4fd4c3a9d4bb72dbed97f1569e464bb2b8b40ab2d32c4036fec43c97ae02c2db05550c58c65190a25075084610092565b61032a60a08801357f2f97784b7f7e095f0801dee4ddc8b99ab303d942db53efffffd2c60a13e671a17f0dbb792122269eeca0e75f4fd893a9c1c7eef4c35066f289d959204e6beb339b84610092565b61037a60c08801357f21b43deaa25e2633d19219995dbd7d08fd6d2e8e1ad4032b6a29c6a92709fdb87f04bbfdb5cf82abb3f0ce056e4ab47796d0ab3874c344130613de171a4efe8f0384610092565b6103ca60e08801357f2e808c78fc52046ea848fb3c4af0c38ffcb078aa5a724c54e0adf1edd6e165bc7f1f0ff52c16453b10a0ca37533b6411fc2e5500f4c258d8a9049908d09d344ba584610092565b50823581527f30644e72e131a029b85045b68181585d97816a916871ca8d3c208c16d87cfd4760208401357f30644e72e131a029b85045b68181585d97816a916871ca8d3c208c16d87cfd4703066020820152833560408201526020840135606082015260408401356080820152606084013560a08201527f2d4d9aa7e302d9df41749d5507949d05dbea33fbb16c643b22f599a2be6df2e260c08201527f14bedd503c37ceb061d8ec60209fe345ce89830a19230301f076caff004d192660e08201527f0967032fcbf776d1afc985f88877f182d38480a653f2decaa9794cbc3bf3060c6101008201527f0e187847ad4c798374d0d6732bf501847dd68bc0e071241e0213bc7fc13db7ab6101208201527f304cfbd1e08a704a99f5e847d93f8c3caafddec46b7a0d379da69a4d112346a76101408201527f1739c1b1a457a8c7313123d24d2f9192f896b7c63eea05a9d57f06547ad0cec8610160820152600087015161018082015260206000018701516101a08201527f198e9393920d483a7260bfb731fb5d25f1aa493335a9e71297e485b7aef312c26101c08201527f1800deef121f1e76426a00665e5c4479674322d4f75edadd46debd5cd992f6ed6101e08201527f090689d0585ff075ec9e99ad690c3395bc4b313370b38ef355acdadcd122975b6102008201527f12c85ea5db8c6deb4aab71808dcb408fe3d1e7690c43d37b4ce6cc0166fa7daa610220820152843561024082015260208501356102608201527f257062525a5db993b73b1bac7c2c7a17d93aeb8aa7d3af45d0fb3724b14741586102808201527f11910c58136f0bd177f7b699fc6ad55f96df40b34b06cc5efd3772fd8de39de86102a08201527ef1e30629991a9a285f142fb50d4ae6715b63d3e4f5e3a8bdeacbd09ad44afa6102c08201527f180a9a7b4c198ca0b4c3822198ae9b6ca396c480f95a0a49965ad6287d9457df6102e08201526020816103008360086107d05a03fa9051169695505050505050565b60405161038081016040526106c1600084013561005e565b6106ce602084013561005e565b6106db604084013561005e565b6106e8606084013561005e565b6106f5608084013561005e565b61070260a084013561005e565b61070f60c084013561005e565b61071c60e084013561005e565b610729818486888a6100fd565b90508060005260206000f35b806040810183101561074657600080fd5b92915050565b600080600080610200858703121561076357600080fd5b61076d8686610735565b935060c085018681111561078057600080fd5b6040860193506107908782610735565b92505085610200860111156107a457600080fd5b5091949093509091610100019056fea26469706673582212208685a97e2fd895c41afbd754a8bb4f8fc7ac350150ca18d65d5f4a86bb5c62af64736f6c634300081b0033",
          "opcodes": "PUSH1 0x80 PUSH1 0x40 MSTORE CALLVALUE DUP1 ISZERO PUSH1 0xF JUMPI PUSH1 0x0 DUP1 REVERT JUMPDEST POP PUSH2 0x7E9 DUP1 PUSH2 0x1F PUSH1 0x0 CODECOPY PUSH1 0x0 RETURN INVALID PUSH1 0x80 PUSH1 0x40 MSTORE CALLVALUE DUP1 ISZERO PUSH2 0x10 JUMPI PUSH1 0x0 DUP1 REVERT JUMPDEST POP PUSH1 0x4 CALLDATASIZE LT PUSH2 0x2B JUMPI PUSH1 0x0 CALLDATALOAD PUSH1 0xE0 SHR DUP1 PUSH4 0xC9219A7A EQ PUSH2 0x30 JUMPI JUMPDEST PUSH1 0x0 DUP1 REVERT JUMPDEST PUSH2 0x43 PUSH2 0x3E CALLDATASIZE PUSH1 0x4 PUSH2 0x74C JUMP JUMPDEST PUSH2 0x57 JUMP JUMPDEST PUSH1 0x40 MLOAD SWAP1 ISZERO ISZERO DUP2 MSTORE PUSH1 0x20 ADD PUSH1 0x40 MLOAD DUP1 SWAP2 SUB SWAP1 RETURN JUMPDEST PUSH1 0x0 PUSH2 0x6A9 JUMP JUMPDEST PUSH32 0x30644E72E131A029B85045B68181585D2833E84879B9709143E1F593F0000001 DUP2 LT PUSH2 0x8F JUMPI PUSH1 0x0 DUP1 MSTORE PUSH1 0x20 PUSH1 0x0 RETURN JUMPDEST POP JUMP JUMPDEST PUSH1 0x0 PUSH1 0x40 MLOAD DUP4 DUP2 MSTORE DUP5 PUSH1 0x20 DUP3 ADD MSTORE DUP6 PUSH1 0x40 DUP3 ADD MSTORE PUSH1 0x40 DUP2 PUSH1 0x60 DUP4 PUSH1 0x7 PUSH2 0x7D0 GAS SUB STATICCALL SWAP2 POP DUP2 PUSH2 0xC5 JUMPI PUSH1 0x0 DUP1 MSTORE PUSH1 0x20 PUSH1 0x0 RETURN JUMPDEST DUP3 MLOAD PUSH1 0x40 DUP3 ADD MSTORE PUSH1 0x20 DUP4 ADD MLOAD PUSH1 0x60 DUP3 ADD MSTORE PUSH1 0x40 DUP4 PUSH1 0x80 DUP4 PUSH1 0x6 PUSH2 0x7D0 GAS SUB STATICCALL SWAP2 POP POP DUP1 PUSH2 0xF6 JUMPI PUSH1 0x0 DUP1 MSTORE PUSH1 0x20 PUSH1 0x0 RETURN JUMPDEST POP POP POP POP POP JUMP JUMPDEST PUSH32 0x1E7A4136C5C2A8E56ECAB2ADEC4A9B19B65D52E91BD64E9F0B86431D2A5AB4E3 DUP6 MSTORE PUSH32 0x2470D665F2051D67DB6CF0B42C3D2FE5A136486C676363B66F20CCD248EA7F9A PUSH1 0x20 DUP7 ADD MSTORE PUSH1 0x0 PUSH1 0x80 DUP7 ADD DUP7 PUSH2 0x19A DUP8 CALLDATALOAD PUSH32 0xF2E1A52FAA655AFFA996ECB7D4B759594012FE3EEBDF9C171151F3C6C93D229 PUSH32 0x1883B27389410886780AD923233BFDFC9D10E769376F99B4097244F3D4A1269A DUP5 PUSH2 0x92 JUMP JUMPDEST PUSH2 0x1EA PUSH1 0x20 DUP9 ADD CALLDATALOAD PUSH32 0xCA95BD9DEB3CED5C604E1C10E54DC374A9F0FE997A35F938D121573BAD9E0DC PUSH32 0x20990D123CDAB34ADB176EB700C5873EA3ECDB40DE1F16A7C12C92CC5333CB98 DUP5 PUSH2 0x92 JUMP JUMPDEST PUSH2 0x23A PUSH1 0x40 DUP9 ADD CALLDATALOAD PUSH32 0x17DB22C2A0C62419064B6945BA8783C23FB26ABB629607C892E6EA4E6CF59E81 PUSH32 0xC21970D26995C5A9C76502BCE0ED0340DA5A9FFF71C463B91C88E268C30103A DUP5 PUSH2 0x92 JUMP JUMPDEST PUSH2 0x28A PUSH1 0x60 DUP9 ADD CALLDATALOAD PUSH32 0x587B5387F113729EE8EF175B0BEE4FCE0A554415D5DE9175A20B77711A2F7E1 PUSH32 0x2029F7CCE1473BD90E87BB67E98E60C9E2E5427D367B27FCD1254C252C88D6CD DUP5 PUSH2 0x92 JUMP JUMPDEST PUSH2 0x2DA PUSH1 0x80 DUP9 ADD CALLDATALOAD PUSH32 0xC7060885FFD706E0B49C556BD631D63E5DBD3B2FDB4A4FD4C3A9D4BB72DBED9 PUSH32 0x1569E464BB2B8B40AB2D32C4036FEC43C97AE02C2DB05550C58C65190A250750 DUP5 PUSH2 0x92 JUMP JUMPDEST PUSH2 0x32A PUSH1 0xA0 DUP9 ADD CALLDATALOAD PUSH32 0x2F97784B7F7E095F0801DEE4DDC8B99AB303D942DB53EFFFFFD2C60A13E671A1 PUSH32 0xDBB792122269EECA0E75F4FD893A9C1C7EEF4C35066F289D959204E6BEB339B DUP5 PUSH2 0x92 JUMP JUMPDEST PUSH2 0x37A PUSH1 0xC0 DUP9 ADD CALLDATALOAD PUSH32 0x21B43DEAA25E2633D19219995DBD7D08FD6D2E8E1AD4032B6A29C6A92709FDB8 PUSH32 0x4BBFDB5CF82ABB3F0CE056E4AB47796D0AB3874C344130613DE171A4EFE8F03 DUP5 PUSH2 0x92 JUMP JUMPDEST PUSH2 0x3CA PUSH1 0xE0 DUP9 ADD CALLDATALOAD PUSH32 0x2E808C78FC52046EA848FB3C4AF0C38FFCB078AA5A724C54E0ADF1EDD6E165BC PUSH32 0x1F0FF52C16453B10A0CA37533B6411FC2E5500F4C258D8A9049908D09D344BA5 DUP5 PUSH2 0x92 JUMP JUMPDEST POP DUP3 CALLDATALOAD DUP2 MSTORE PUSH32 0x30644E72E131A029B85045B68181585D97816A916871CA8D3C208C16D87CFD47 PUSH1 0x20 DUP5 ADD CALLDATALOAD PUSH32 0x30644E72E131A029B85045B68181585D97816A916871CA8D3C208C16D87CFD47 SUB MOD PUSH1 0x20 DUP3 ADD MSTORE DUP4 CALLDATALOAD PUSH1 0x40 DUP3 ADD MSTORE PUSH1 0x20 DUP5 ADD CALLDATALOAD PUSH1 0x60 DUP3 ADD MSTORE PUSH1 0x40 DUP5 ADD CALLDATALOAD PUSH1 0x80 DUP3 ADD MSTORE PUSH1 0x60 DUP5 ADD CALLDATALOAD PUSH1 0xA0 DUP3 ADD MSTORE PUSH32 0x2D4D9AA7E302D9DF41749D5507949D05DBEA33FBB16C643B22F599A2BE6DF2E2 PUSH1 0xC0 DUP3 ADD MSTORE PUSH32 0x14BEDD503C37CEB061D8EC60209FE345CE89830A19230301F076CAFF004D1926 PUSH1 0xE0 DUP3 ADD MSTORE PUSH32 0x967032FCBF776D1AFC985F88877F182D38480A653F2DECAA9794CBC3BF3060C PUSH2 0x100 DUP3 ADD MSTORE PUSH32 0xE187847AD4C798374D0D6732BF501847DD68BC0E071241E0213BC7FC13DB7AB PUSH2 0x120 DUP3 ADD MSTORE PUSH32 0x304CFBD1E08A704A99F5E847D93F8C3CAAFDDEC46B7A0D379DA69A4D112346A7 PUSH2 0x140 DUP3 ADD MSTORE PUSH32 0x1739C1B1A457A8C7313123D24D2F9192F896B7C63EEA05A9D57F06547AD0CEC8 PUSH2 0x160 DUP3 ADD MSTORE PUSH1 0x0 DUP8 ADD MLOAD PUSH2 0x180 DUP3 ADD MSTORE PUSH1 0x20 PUSH1 0x0 ADD DUP8 ADD MLOAD PUSH2 0x1A0 DUP3 ADD MSTORE PUSH32 0x198E9393920D483A7260BFB731FB5D25F1AA493335A9E71297E485B7AEF312C2 PUSH2 0x1C0 DUP3 ADD MSTORE PUSH32 0x1800DEEF121F1E76426A00665E5C4479674322D4F75EDADD46DEBD5CD992F6ED PUSH2 0x1E0 DUP3 ADD MSTORE PUSH32 0x90689D0585FF075EC9E99AD690C3395BC4B313370B38EF355ACDADCD122975B PUSH2 0x200 DUP3 ADD MSTORE PUSH32 0x12C85EA5DB8C6DEB4AAB71808DCB408FE3D1E7690C43D37B4CE6CC0166FA7DAA PUSH2 0x220 DUP3 ADD MSTORE DUP5 CALLDATALOAD PUSH2 0x240 DUP3 ADD MSTORE PUSH1 0x20 DUP6 ADD CALLDATALOAD PUSH2 0x260 DUP3 ADD MSTORE PUSH32 0x257062525A5DB993B73B1BAC7C2C7A17D93AEB8AA7D3AF45D0FB3724B1474158 PUSH2 0x280 DUP3 ADD MSTORE PUSH32 0x11910C58136F0BD177F7B699FC6AD55F96DF40B34B06CC5EFD3772FD8DE39DE8 PUSH2 0x2A0 DUP3 ADD MSTORE PUSH31 0xF1E30629991A9A285F142FB50D4AE6715B63D3E4F5E3A8BDEACBD09AD44AFA PUSH2 0x2C0 DUP3 ADD MSTORE PUSH32 0x180A9A7B4C198CA0B4C3822198AE9B6CA396C480F95A0A49965AD6287D9457DF PUSH2 0x2E0 DUP3 ADD MSTORE PUSH1 0x20 DUP2 PUSH2 0x300 DUP4 PUSH1 0x8 PUSH2 0x7D0 GAS SUB STATICCALL SWAP1 MLOAD AND SWAP7 SWAP6 POP POP POP POP POP POP JUMP JUMPDEST PUSH1 0x40 MLOAD PUSH2 0x380 DUP2 ADD PUSH1 0x40 MSTORE PUSH2 0x6C1 PUSH1 0x0 DUP5 ADD CALLDATALOAD PUSH2 0x5E JUMP JUMPDEST PUSH2 0x6CE PUSH1 0x20 DUP5 ADD CALLDATALOAD PUSH2 0x5E JUMP JUMPDEST PUSH2 0x6DB PUSH1 0x40 DUP5 ADD CALLDATALOAD PUSH2 0x5E JUMP JUMPDEST PUSH2 0x6E8 PUSH1 0x60 DUP5 ADD CALLDATALOAD PUSH2 0x5E JUMP JUMPDEST PUSH2 0x6F5 PUSH1 0x80 DUP5 ADD CALLDATALOAD PUSH2 0x5E JUMP JUMPDEST PUSH2 0x702 PUSH1 0xA0 DUP5 ADD CALLDATALOAD PUSH2 0x5E JUMP JUMPDEST PUSH2 0x70F PUSH1 0xC0 DUP5 ADD CALLDATALOAD PUSH2 0x5E JUMP JUMPDEST PUSH2 0x71C PUSH1 0xE0 DUP5 ADD CALLDATALOAD PUSH2 0x5E JUMP JUMPDEST PUSH2 0x729 DUP2 DUP5 DUP7 DUP9 DUP11 PUSH2 0xFD JUMP JUMPDEST SWAP1 POP DUP1 PUSH1 0x0 MSTORE PUSH1 0x20 PUSH1 0x0 RETURN JUMPDEST DUP1 PUSH1 0x40 DUP2 ADD DUP4 LT ISZERO PUSH2 0x746 JUMPI PUSH1 0x0 DUP1 REVERT JUMPDEST SWAP3 SWAP2 POP POP JUMP JUMPDEST PUSH1 0x0 DUP1 PUSH1 0x0 DUP1 PUSH2 0x200 DUP6 DUP8 SUB SLT ISZERO PUSH2 0x763 JUMPI PUSH1 0x0 DUP1 REVERT JUMPDEST PUSH2 0x76D DUP7 DUP7 PUSH2 0x735 JUMP JUMPDEST SWAP4 POP PUSH1 0xC0 DUP6 ADD DUP7 DUP2 GT ISZERO PUSH2 0x780 JUMPI PUSH1 0x0 DUP1 REVERT JUMPDEST PUSH1 0x40 DUP7 ADD SWAP4 POP PUSH2 0x790 DUP8 DUP3 PUSH2 0x735 JUMP JUMPDEST SWAP3 POP POP DUP6 PUSH2 0x200 DUP7 ADD GT ISZERO PUSH2 0x7A4 JUMPI PUSH1 0x0 DUP1 REVERT JUMPDEST POP SWAP2 SWAP5 SWAP1 SWAP4 POP SWAP1 SWAP2 PUSH2 0x100 ADD SWAP1 JUMP INVALID LOG2 PUSH5 0x6970667358 0x22 SLT KECCAK256 DUP7 DUP6 0xA9 PUSH31 0x2FD895C41AFBD754A8BB4F8FC7AC350150CA18D65D5F4A86BB5C62AF64736F PUSH13 0x634300081B0033000000000000 "
        },
        "methodIdentifiers": {
          "verifyProof(uint256[2],uint256[2][2],uint256[2],uint256[8])": "c9219a7a"
        }
      },
      "storageLayout": {
        "storage": [],
        "types": null
      }
    }
  }
}