{
  "contracts/verifiers/credential/Verifier_credential_sha224.sol": {
    "Verifier_credential_sha224": {
      "abi": [
        {
          "inputs": [
            {
              "internalType": "uint256[2]",
              "name": "_pA",
              "type": "uint256[2]"
            },
            {
              "internalType": "uint256[2][2]",
              "name": "_pB",
              "type": "uint256[2][2]"
            },
            {
              "internalType": "uint256[2]",
              "name": "_pC",
              "type": "uint256[2]"
            },
            {
              "internalType": "uint256[8]",
              "name": "_pubSignals",
              "type": "uint256[8]"
            }
          ],
          "name": "verifyProof",
          "outputs": [
            {
              "internalType": "bool",
              "name": "",
              "type": "bool"
            }
          ],
          "stateMutability": "view",
          "type": "function"
        }
      ],
      "evm": {
        "bytecode": {
          "linkReferences": {},
          "object": "6080604052348015600f57600080fd5b506107ea8061001f6000396000f3fe608060405234801561001057600080fd5b506004361061002b5760003560e01c8063c9219a7a14610030575b600080fd5b61004361003e36600461074d565b610057565b604051901515815260200160405180910390f35b60006106aa565b7f30644e72e131a029b85045b68181585d2833e84879b9709143e1f593f0000001811061008f576000805260206000f35b50565b600060405183815284602082015285604082015260408160608360076107d05a03fa9150816100c5576000805260206000f35b825160408201526020830151606082015260408360808360066107d05a03fa915050806100f6576000805260206000f35b5050505050565b7f07d90eb2dea66a63edd5205755d9024ae1095492b3cf9214c993d6a8d1e3c77a85527f0302db0269592504dbe8391fee666da179c1d1bfc29dcbaee4f2ad6450e35cf960208601526000608086018661019a87357f2874037ead7fd021fdcd1b54446858316e7ca790c8bd7fc4b5530cc9bf3bfda57f0c24678f264d32927875abffd858a688be5a4b40001bbe6eaed145bbef37a15684610092565b6101ea60208801357f1c8c306c8ac12ca21896651cf70397500befaacc4e61cb5cd963ec0a29dfc4487f2ff3fac583976d5175fcb9aa55caa15a4ceea3ff4fc3d68f06b1c849c512a3e384610092565b61023a60408801357f0f8da12884bc1f875c41a4a751115d9ea76a3ace005b78974db5670ae00c5ebb7f0605a0dd9e63c3fc976ea4f96d30181b79930d0637520f2dccc1667ffc22668b84610092565b61028a60608801357f22fc416b96fb95e6b2a42eb9a38da1ed55732637bc09238f8b9aacff5f2346347f09c8c723221e266967c28c17f6bcc87e6717cba95fd8b7ffeca7ce0195456fac84610092565b6102da60808801357f03c134bcec4d246502febb9d3386fc979b057fd4646b47cad113250845a17c4a7f02bb8e018311d3055021612cea141cd7ccb64d34337664bcd22932658822d75284610092565b61032a60a08801357f1cd9045eaca91e1b4a69620f81011c6bfc6e65131fc9ed22266730a904c6fac47f1003cef2a19b0e809ebe6666f1fd7001e7067e32cb4eb2c5b141b67291a1b74e84610092565b61037a60c08801357f04800c964808aafbef906ebe6585ce585f5f07ea03baada8cf15f343599a7d4d7f19d70d03ed1a8a3c8e45c411584016c4faa9655a4ea17e58acbf19ec8e3d7d9f84610092565b6103ca60e08801357f07a18fb63938bd97caf1c782b72a1b6f06193522f5a7fa3f2578bd615ce409a57f18b925ec17541cef2f19b7611d87761b996dd822cac3d39f96653ddff215b36584610092565b50823581527f30644e72e131a029b85045b68181585d97816a916871ca8d3c208c16d87cfd4760208401357f30644e72e131a029b85045b68181585d97816a916871ca8d3c208c16d87cfd4703066020820152833560408201526020840135606082015260408401356080820152606084013560a08201527f2d4d9aa7e302d9df41749d5507949d05dbea33fbb16c643b22f599a2be6df2e260c08201527f14bedd503c37ceb061d8ec60209fe345ce89830a19230301f076caff004d192660e08201527f0967032fcbf776d1afc985f88877f182d38480a653f2decaa9794cbc3bf3060c6101008201527f0e187847ad4c798374d0d6732bf501847dd68bc0e071241e0213bc7fc13db7ab6101208201527f304cfbd1e08a704a99f5e847d93f8c3caafddec46b7a0d379da69a4d112346a76101408201527f1739c1b1a457a8c7313123d24d2f9192f896b7c63eea05a9d57f06547ad0cec8610160820152600087015161018082015260206000018701516101a08201527f198e9393920d483a7260bfb731fb5d25f1aa493335a9e71297e485b7aef312c26101c08201527f1800deef121f1e76426a00665e5c4479674322d4f75edadd46debd5cd992f6ed6101e08201527f090689d0585ff075ec9e99ad690c3395bc4b313370b38ef355acdadcd122975b6102008201527f12c85ea5db8c6deb4aab71808dcb408fe3d1e7690c43d37b4ce6cc0166fa7daa610220820152843561024082015260208501356102608201527f06133d97eadc1a20c0d951e5f78f8ce426223c32628da02f7abbb02ec4a5c0b86102808201527f2af9e2b22217b6017b0fa9709c6f41e5ccb27ab14961b49614aff972b7caf9956102a08201527f1ba69d360410e4db5489f56cd317ebb8887af5862aa5866a45d3efb8914b24ea6102c08201527f0de23d6c74d773b6feace11cb710fb0fe83ae604b12a90d61ecc293393fae1dd6102e08201526020816103008360086107d05a03fa9051169695505050505050565b60405161038081016040526106c2600084013561005e565b6106cf602084013561005e565b6106dc604084013561005e565b6106e9606084013561005e565b6106f6608084013561005e565b61070360a084013561005e565b61071060c084013561005e565b61071d60e084013561005e565b61072a818486888a6100fd565b90508060005260206000f35b806040810183101561074757600080fd5b92915050565b600080600080610200858703121561076457600080fd5b61076e8686610736565b935060c085018681111561078157600080fd5b6040860193506107918782610736565b92505085610200860111156107a557600080fd5b5091949093509091610100019056fea2646970667358221220039fe8742e6e325f0d267bb1b32ed24b9d06fb05f76323a8be2a64c25281da2064736f6c634300081b0033",
          "opcodes": "PUSH1 0x80 PUSH1 0x40 MSTORE CALLVALUE DUP1 ISZERO PUSH1 0xF JUMPI PUSH1 0x0 DUP1 REVERT JUMPDEST POP PUSH2 0x7EA DUP1 PUSH2 0x1F PUSH1 0x0 CODECOPY PUSH1 0x0 RETURN INVALID PUSH1 0x80 PUSH1 0x40 MSTORE CALLVALUE DUP1 ISZERO PUSH2 0x10 JUMPI PUSH1 0x0 DUP1 REVERT JUMPDEST POP PUSH1 0x4 CALLDATASIZE LT PUSH2 0x2B JUMPI PUSH1 0x0 CALLDATALOAD PUSH1 0xE0 SHR DUP1 PUSH4 0xC9219A7A EQ PUSH2 0x30 JUMPI JUMPDEST PUSH1 0x0 DUP1 REVERT JUMPDEST PUSH2 0x43 PUSH2 0x3E CALLDATASIZE PUSH1 0x4 PUSH2 0x74D JUMP JUMPDEST PUSH2 0x57 JUMP JUMPDEST PUSH1 0x40 MLOAD SWAP1 ISZERO ISZERO DUP2 MSTORE PUSH1 0x20 ADD PUSH1 0x40 MLOAD DUP1 SWAP2 SUB SWAP1 RETURN JUMPDEST PUSH1 0x0 PUSH2 0x6AA JUMP JUMPDEST PUSH32 0x30644E72E131A029B85045B68181585D2833E84879B9709143E1F593F0000001 DUP2 LT PUSH2 0x8F JUMPI PUSH1 0x0 DUP1 MSTORE PUSH1 0x20 PUSH1 0x0 RETURN JUMPDEST POP JUMP JUMPDEST PUSH1 0x0 PUSH1 0x40 MLOAD DUP4 DUP2 MSTORE DUP5 PUSH1 0x20 DUP3 ADD MSTORE DUP6 PUSH1 0x40 DUP3 ADD MSTORE PUSH1 0x40 DUP2 PUSH1 0x60 DUP4 PUSH1 0x7 PUSH2 0x7D0 GAS SUB STATICCALL SWAP2 POP DUP2 PUSH2 0xC5 JUMPI PUSH1 0x0 DUP1 MSTORE PUSH1 0x20 PUSH1 0x0 RETURN JUMPDEST DUP3 MLOAD PUSH1 0x40 DUP3 ADD MSTORE PUSH1 0x20 DUP4 ADD MLOAD PUSH1 0x60 DUP3 ADD MSTORE PUSH1 0x40 DUP4 PUSH1 0x80 DUP4 PUSH1 0x6 PUSH2 0x7D0 GAS SUB STATICCALL SWAP2 POP POP DUP1 PUSH2 0xF6 JUMPI PUSH1 0x0 DUP1 MSTORE PUSH1 0x20 PUSH1 0x0 RETURN JUMPDEST POP POP POP POP POP JUMP JUMPDEST PUSH32 0x7D90EB2DEA66A63EDD5205755D9024AE1095492B3CF9214C993D6A8D1E3C77A DUP6 MSTORE PUSH32 0x302DB0269592504DBE8391FEE666DA179C1D1BFC29DCBAEE4F2AD6450E35CF9 PUSH1 0x20 DUP7 ADD MSTORE PUSH1 0x0 PUSH1 0x80 DUP7 ADD DUP7 PUSH2 0x19A DUP8 CALLDATALOAD PUSH32 0x2874037EAD7FD021FDCD1B54446858316E7CA790C8BD7FC4B5530CC9BF3BFDA5 PUSH32 0xC24678F264D32927875ABFFD858A688BE5A4B40001BBE6EAED145BBEF37A156 DUP5 PUSH2 0x92 JUMP JUMPDEST PUSH2 0x1EA PUSH1 0x20 DUP9 ADD CALLDATALOAD PUSH32 0x1C8C306C8AC12CA21896651CF70397500BEFAACC4E61CB5CD963EC0A29DFC448 PUSH32 0x2FF3FAC583976D5175FCB9AA55CAA15A4CEEA3FF4FC3D68F06B1C849C512A3E3 DUP5 PUSH2 0x92 JUMP JUMPDEST PUSH2 0x23A PUSH1 0x40 DUP9 ADD CALLDATALOAD PUSH32 0xF8DA12884BC1F875C41A4A751115D9EA76A3ACE005B78974DB5670AE00C5EBB PUSH32 0x605A0DD9E63C3FC976EA4F96D30181B79930D0637520F2DCCC1667FFC22668B DUP5 PUSH2 0x92 JUMP JUMPDEST PUSH2 0x28A PUSH1 0x60 DUP9 ADD CALLDATALOAD PUSH32 0x22FC416B96FB95E6B2A42EB9A38DA1ED55732637BC09238F8B9AACFF5F234634 PUSH32 0x9C8C723221E266967C28C17F6BCC87E6717CBA95FD8B7FFECA7CE0195456FAC DUP5 PUSH2 0x92 JUMP JUMPDEST PUSH2 0x2DA PUSH1 0x80 DUP9 ADD CALLDATALOAD PUSH32 0x3C134BCEC4D246502FEBB9D3386FC979B057FD4646B47CAD113250845A17C4A PUSH32 0x2BB8E018311D3055021612CEA141CD7CCB64D34337664BCD22932658822D752 DUP5 PUSH2 0x92 JUMP JUMPDEST PUSH2 0x32A PUSH1 0xA0 DUP9 ADD CALLDATALOAD PUSH32 0x1CD9045EACA91E1B4A69620F81011C6BFC6E65131FC9ED22266730A904C6FAC4 PUSH32 0x1003CEF2A19B0E809EBE6666F1FD7001E7067E32CB4EB2C5B141B67291A1B74E DUP5 PUSH2 0x92 JUMP JUMPDEST PUSH2 0x37A PUSH1 0xC0 DUP9 ADD CALLDATALOAD PUSH32 0x4800C964808AAFBEF906EBE6585CE585F5F07EA03BAADA8CF15F343599A7D4D PUSH32 0x19D70D03ED1A8A3C8E45C411584016C4FAA9655A4EA17E58ACBF19EC8E3D7D9F DUP5 PUSH2 0x92 JUMP JUMPDEST PUSH2 0x3CA PUSH1 0xE0 DUP9 ADD CALLDATALOAD PUSH32 0x7A18FB63938BD97CAF1C782B72A1B6F06193522F5A7FA3F2578BD615CE409A5 PUSH32 0x18B925EC17541CEF2F19B7611D87761B996DD822CAC3D39F96653DDFF215B365 DUP5 PUSH2 0x92 JUMP JUMPDEST POP DUP3 CALLDATALOAD DUP2 MSTORE PUSH32 0x30644E72E131A029B85045B68181585D97816A916871CA8D3C208C16D87CFD47 PUSH1 0x20 DUP5 ADD CALLDATALOAD PUSH32 0x30644E72E131A029B85045B68181585D97816A916871CA8D3C208C16D87CFD47 SUB MOD PUSH1 0x20 DUP3 ADD MSTORE DUP4 CALLDATALOAD PUSH1 0x40 DUP3 ADD MSTORE PUSH1 0x20 DUP5 ADD CALLDATALOAD PUSH1 0x60 DUP3 ADD MSTORE PUSH1 0x40 DUP5 ADD CALLDATALOAD PUSH1 0x80 DUP3 ADD MSTORE PUSH1 0x60 DUP5 ADD CALLDATALOAD PUSH1 0xA0 DUP3 ADD MSTORE PUSH32 0x2D4D9AA7E302D9DF41749D5507949D05DBEA33FBB16C643B22F599A2BE6DF2E2 PUSH1 0xC0 DUP3 ADD MSTORE PUSH32 0x14BEDD503C37CEB061D8EC60209FE345CE89830A19230301F076CAFF004D1926 PUSH1 0xE0 DUP3 ADD MSTORE PUSH32 0x967032FCBF776D1AFC985F88877F182D38480A653F2DECAA9794CBC3BF3060C PUSH2 0x100 DUP3 ADD MSTORE PUSH32 0xE187847AD4C798374D0D6732BF501847DD68BC0E071241E0213BC7FC13DB7AB PUSH2 0x120 DUP3 ADD MSTORE PUSH32 0x304CFBD1E08A704A99F5E847D93F8C3CAAFDDEC46B7A0D379DA69A4D112346A7 PUSH2 0x140 DUP3 ADD MSTORE PUSH32 0x1739C1B1A457A8C7313123D24D2F9192F896B7C63EEA05A9D57F06547AD0CEC8 PUSH2 0x160 DUP3 ADD MSTORE PUSH1 0x0 DUP8 ADD MLOAD PUSH2 0x180 DUP3 ADD MSTORE PUSH1 0x20 PUSH1 0x0 ADD DUP8 ADD MLOAD PUSH2 0x1A0 DUP3 ADD MSTORE PUSH32 0x198E9393920D483A7260BFB731FB5D25F1AA493335A9E71297E485B7AEF312C2 PUSH2 0x1C0 DUP3 ADD MSTORE PUSH32 0x1800DEEF121F1E76426A00665E5C4479674322D4F75EDADD46DEBD5CD992F6ED PUSH2 0x1E0 DUP3 ADD MSTORE PUSH32 0x90689D0585FF075EC9E99AD690C3395BC4B313370B38EF355ACDADCD122975B PUSH2 0x200 DUP3 ADD MSTORE PUSH32 0x12C85EA5DB8C6DEB4AAB71808DCB408FE3D1E7690C43D37B4CE6CC0166FA7DAA PUSH2 0x220 DUP3 ADD MSTORE DUP5 CALLDATALOAD PUSH2 0x240 DUP3 ADD MSTORE PUSH1 0x20 DUP6 ADD CALLDATALOAD PUSH2 0x260 DUP3 ADD MSTORE PUSH32 0x6133D97EADC1A20C0D951E5F78F8CE426223C32628DA02F7ABBB02EC4A5C0B8 PUSH2 0x280 DUP3 ADD MSTORE PUSH32 0x2AF9E2B22217B6017B0FA9709C6F41E5CCB27AB14961B49614AFF972B7CAF995 PUSH2 0x2A0 DUP3 ADD MSTORE PUSH32 0x1BA69D360410E4DB5489F56CD317EBB8887AF5862AA5866A45D3EFB8914B24EA PUSH2 0x2C0 DUP3 ADD MSTORE PUSH32 0xDE23D6C74D773B6FEACE11CB710FB0FE83AE604B12A90D61ECC293393FAE1DD PUSH2 0x2E0 DUP3 ADD MSTORE PUSH1 0x20 DUP2 PUSH2 0x300 DUP4 PUSH1 0x8 PUSH2 0x7D0 GAS SUB STATICCALL SWAP1 MLOAD AND SWAP7 SWAP6 POP POP POP POP POP POP JUMP JUMPDEST PUSH1 0x40 MLOAD PUSH2 0x380 DUP2 ADD PUSH1 0x40 MSTORE PUSH2 0x6C2 PUSH1 0x0 DUP5 ADD CALLDATALOAD PUSH2 0x5E JUMP JUMPDEST PUSH2 0x6CF PUSH1 0x20 DUP5 ADD CALLDATALOAD PUSH2 0x5E JUMP JUMPDEST PUSH2 0x6DC PUSH1 0x40 DUP5 ADD CALLDATALOAD PUSH2 0x5E JUMP JUMPDEST PUSH2 0x6E9 PUSH1 0x60 DUP5 ADD CALLDATALOAD PUSH2 0x5E JUMP JUMPDEST PUSH2 0x6F6 PUSH1 0x80 DUP5 ADD CALLDATALOAD PUSH2 0x5E JUMP JUMPDEST PUSH2 0x703 PUSH1 0xA0 DUP5 ADD CALLDATALOAD PUSH2 0x5E JUMP JUMPDEST PUSH2 0x710 PUSH1 0xC0 DUP5 ADD CALLDATALOAD PUSH2 0x5E JUMP JUMPDEST PUSH2 0x71D PUSH1 0xE0 DUP5 ADD CALLDATALOAD PUSH2 0x5E JUMP JUMPDEST PUSH2 0x72A DUP2 DUP5 DUP7 DUP9 DUP11 PUSH2 0xFD JUMP JUMPDEST SWAP1 POP DUP1 PUSH1 0x0 MSTORE PUSH1 0x20 PUSH1 0x0 RETURN JUMPDEST DUP1 PUSH1 0x40 DUP2 ADD DUP4 LT ISZERO PUSH2 0x747 JUMPI PUSH1 0x0 DUP1 REVERT JUMPDEST SWAP3 SWAP2 POP POP JUMP JUMPDEST PUSH1 0x0 DUP1 PUSH1 0x0 DUP1 PUSH2 0x200 DUP6 DUP8 SUB SLT ISZERO PUSH2 0x764 JUMPI PUSH1 0x0 DUP1 REVERT JUMPDEST PUSH2 0x76E DUP7 DUP7 PUSH2 0x736 JUMP JUMPDEST SWAP4 POP PUSH1 0xC0 DUP6 ADD DUP7 DUP2 GT ISZERO PUSH2 0x781 JUMPI PUSH1 0x0 DUP1 REVERT JUMPDEST PUSH1 0x40 DUP7 ADD SWAP4 POP PUSH2 0x791 DUP8 DUP3 PUSH2 0x736 JUMP JUMPDEST SWAP3 POP POP DUP6 PUSH2 0x200 DUP7 ADD GT ISZERO PUSH2 0x7A5 JUMPI PUSH1 0x0 DUP1 REVERT JUMPDEST POP SWAP2 SWAP5 SWAP1 SWAP4 POP SWAP1 SWAP2 PUSH2 0x100 ADD SWAP1 JUMP INVALID LOG2 PUSH5 0x6970667358 0x22 SLT KECCAK256 SUB SWAP16 0xE8 PUSH21 0x2E6E325F0D267BB1B32ED24B9D06FB05F76323A8BE 0x2A PUSH5 0xC25281DA20 PUSH5 0x736F6C6343 STOP ADDMOD SHL STOP CALLER "
        },
        "methodIdentifiers": {
          "verifyProof(uint256[2],uint256[2][2],uint256[2],uint256[8])": "c9219a7a"
        }
      },
      "storageLayout": {
        "storage": [],
        "types": null
      }
    }
  }
}