{
  "_format": "hh-sol-artifact-1",
  "contractName": "AnonAadhaarCredentialIssuer",
  "sourceName": "contracts/verifiers/AnonAadhaarCredentialIssuer.sol",
  "abi": [
    {
      "inputs": [],
      "stateMutability": "nonpayable",
      "type": "constructor"
    },
    {
      "inputs": [],
      "name": "InvalidAnonAadhaarProof",
      "type": "error"
    },
    {
      "inputs": [
        {
          "internalType": "uint256",
          "name": "expected",
          "type": "uint256"
        },
        {
          "internalType": "uint256",
          "name": "provided",
          "type": "uint256"
        }
      ],
      "name": "InvalidExpirationDate",
      "type": "error"
    },
    {
      "inputs": [],
      "name": "InvalidHashIndex",
      "type": "error"
    },
    {
      "inputs": [],
      "name": "InvalidHashValue",
      "type": "error"
    },
    {
      "inputs": [],
      "name": "InvalidInitialization",
      "type": "error"
    },
    {
      "inputs": [],
      "name": "InvalidIssuerDidHash",
      "type": "error"
    },
    {
      "inputs": [],
      "name": "InvalidNullifierSeed",
      "type": "error"
    },
    {
      "inputs": [],
      "name": "InvalidPubKeyHash",
      "type": "error"
    },
    {
      "inputs": [
        {
          "internalType": "uint64",
          "name": "revocationNonce",
          "type": "uint64"
        }
      ],
      "name": "InvalidRevocationNonce",
      "type": "error"
    },
    {
      "inputs": [],
      "name": "InvalidStateContractAddress",
      "type": "error"
    },
    {
      "inputs": [],
      "name": "InvalidTemplateRoot",
      "type": "error"
    },
    {
      "inputs": [],
      "name": "InvalidVerifierAddress",
      "type": "error"
    },
    {
      "inputs": [
        {
          "internalType": "uint256",
          "name": "length1",
          "type": "uint256"
        },
        {
          "internalType": "uint256",
          "name": "length2",
          "type": "uint256"
        }
      ],
      "name": "LengthMismatch",
      "type": "error"
    },
    {
      "inputs": [
        {
          "internalType": "string",
          "name": "circuitId",
          "type": "string"
        }
      ],
      "name": "NoAnonAadhaarCircuitIdFound",
      "type": "error"
    },
    {
      "inputs": [],
      "name": "NoVerifierSet",
      "type": "error"
    },
    {
      "inputs": [],
      "name": "NotInitializing",
      "type": "error"
    },
    {
      "inputs": [],
      "name": "NullifierAlreadyExists",
      "type": "error"
    },
    {
      "inputs": [],
      "name": "NullifierDoesNotExist",
      "type": "error"
    },
    {
      "inputs": [
        {
          "internalType": "address",
          "name": "owner",
          "type": "address"
        }
      ],
      "name": "OwnableInvalidOwner",
      "type": "error"
    },
    {
      "inputs": [
        {
          "internalType": "address",
          "name": "account",
          "type": "address"
        }
      ],
      "name": "OwnableUnauthorizedAccount",
      "type": "error"
    },
    {
      "inputs": [],
      "name": "ProofExpired",
      "type": "error"
    },
    {
      "inputs": [
        {
          "internalType": "uint256",
          "name": "qrVersion",
          "type": "uint256"
        }
      ],
      "name": "UnsupportedQrVersion",
      "type": "error"
    },
    {
      "anonymous": false,
      "inputs": [
        {
          "indexed": false,
          "internalType": "string",
          "name": "circuitId",
          "type": "string"
        },
        {
          "indexed": false,
          "internalType": "address",
          "name": "verifierAddress",
          "type": "address"
        }
      ],
      "name": "AnonAadhaarCircuitVerifierUpdated",
      "type": "event"
    },
    {
      "anonymous": false,
      "inputs": [
        {
          "indexed": false,
          "internalType": "uint256",
          "name": "nullifier",
          "type": "uint256"
        },
        {
          "indexed": false,
          "internalType": "uint64",
          "name": "revocationNonce",
          "type": "uint64"
        }
      ],
      "name": "CredentialRevoked",
      "type": "event"
    },
    {
      "anonymous": false,
      "inputs": [
        {
          "indexed": false,
          "internalType": "uint64",
          "name": "version",
          "type": "uint64"
        }
      ],
      "name": "Initialized",
      "type": "event"
    },
    {
      "anonymous": false,
      "inputs": [
        {
          "indexed": false,
          "internalType": "uint256",
          "name": "issuerDidHash",
          "type": "uint256"
        }
      ],
      "name": "IssuerDidHashUpdated",
      "type": "event"
    },
    {
      "anonymous": false,
      "inputs": [
        {
          "indexed": true,
          "internalType": "address",
          "name": "previousOwner",
          "type": "address"
        },
        {
          "indexed": true,
          "internalType": "address",
          "name": "newOwner",
          "type": "address"
        }
      ],
      "name": "OwnershipTransferStarted",
      "type": "event"
    },
    {
      "anonymous": false,
      "inputs": [
        {
          "indexed": true,
          "internalType": "address",
          "name": "previousOwner",
          "type": "address"
        },
        {
          "indexed": true,
          "internalType": "address",
          "name": "newOwner",
          "type": "address"
        }
      ],
      "name": "OwnershipTransferred",
      "type": "event"
    },
    {
      "anonymous": false,
      "inputs": [
        {
          "indexed": false,
          "internalType": "uint256",
          "name": "publicKeyHash",
          "type": "uint256"
        }
      ],
      "name": "PublicKeyHashAdded",
      "type": "event"
    },
    {
      "anonymous": false,
      "inputs": [
        {
          "indexed": false,
          "internalType": "uint256",
          "name": "templateRoot",
          "type": "uint256"
        }
      ],
      "name": "TemplateRootUpdated",
      "type": "event"
    },
    {
      "inputs": [],
      "name": "VERSION",
      "outputs": [
        {
          "internalType": "string",
          "name": "",
          "type": "string"
        }
      ],
      "stateMutability": "view",
      "type": "function"
    },
    {
      "inputs": [],
      "name": "acceptOwnership",
      "outputs": [],
      "stateMutability": "nonpayable",
      "type": "function"
    },
    {
      "inputs": [
        {
          "internalType": "uint256",
          "name": "publicKeyHash",
          "type": "uint256"
        }
      ],
      "name": "addPublicKeyHash",
      "outputs": [],
      "stateMutability": "nonpayable",
      "type": "function"
    },
    {
      "inputs": [
        {
          "internalType": "uint256[]",
          "name": "publicKeysHashes",
          "type": "uint256[]"
        }
      ],
      "name": "addPublicKeyHashesBatch",
      "outputs": [],
      "stateMutability": "nonpayable",
      "type": "function"
    },
    {
      "inputs": [
        {
          "internalType": "uint256",
          "name": "qrVersion",
          "type": "uint256"
        }
      ],
      "name": "addQrVersion",
      "outputs": [],
      "stateMutability": "nonpayable",
      "type": "function"
    },
    {
      "inputs": [
        {
          "internalType": "uint256[]",
          "name": "qrVersions",
          "type": "uint256[]"
        }
      ],
      "name": "addQrVersionBatch",
      "outputs": [],
      "stateMutability": "nonpayable",
      "type": "function"
    },
    {
      "inputs": [
        {
          "internalType": "string",
          "name": "circuitId",
          "type": "string"
        }
      ],
      "name": "anonAadhaarVerifiers",
      "outputs": [
        {
          "internalType": "address",
          "name": "",
          "type": "address"
        }
      ],
      "stateMutability": "view",
      "type": "function"
    },
    {
      "inputs": [
        {
          "internalType": "uint256",
          "name": "claimIndexHash",
          "type": "uint256"
        }
      ],
      "name": "getClaimProof",
      "outputs": [
        {
          "components": [
            {
              "internalType": "uint256",
              "name": "root",
              "type": "uint256"
            },
            {
              "internalType": "bool",
              "name": "existence",
              "type": "bool"
            },
            {
              "internalType": "uint256[]",
              "name": "siblings",
              "type": "uint256[]"
            },
            {
              "internalType": "uint256",
              "name": "index",
              "type": "uint256"
            },
            {
              "internalType": "uint256",
              "name": "value",
              "type": "uint256"
            },
            {
              "internalType": "bool",
              "name": "auxExistence",
              "type": "bool"
            },
            {
              "internalType": "uint256",
              "name": "auxIndex",
              "type": "uint256"
            },
            {
              "internalType": "uint256",
              "name": "auxValue",
              "type": "uint256"
            }
          ],
          "internalType": "struct SmtLib.Proof",
          "name": "",
          "type": "tuple"
        }
      ],
      "stateMutability": "view",
      "type": "function"
    },
    {
      "inputs": [
        {
          "internalType": "uint256",
          "name": "claimIndexHash",
          "type": "uint256"
        },
        {
          "internalType": "uint256",
          "name": "root",
          "type": "uint256"
        }
      ],
      "name": "getClaimProofByRoot",
      "outputs": [
        {
          "components": [
            {
              "internalType": "uint256",
              "name": "root",
              "type": "uint256"
            },
            {
              "internalType": "bool",
              "name": "existence",
              "type": "bool"
            },
            {
              "internalType": "uint256[]",
              "name": "siblings",
              "type": "uint256[]"
            },
            {
              "internalType": "uint256",
              "name": "index",
              "type": "uint256"
            },
            {
              "internalType": "uint256",
              "name": "value",
              "type": "uint256"
            },
            {
              "internalType": "bool",
              "name": "auxExistence",
              "type": "bool"
            },
            {
              "internalType": "uint256",
              "name": "auxIndex",
              "type": "uint256"
            },
            {
              "internalType": "uint256",
              "name": "auxValue",
              "type": "uint256"
            }
          ],
          "internalType": "struct SmtLib.Proof",
          "name": "",
          "type": "tuple"
        }
      ],
      "stateMutability": "view",
      "type": "function"
    },
    {
      "inputs": [
        {
          "internalType": "uint256",
          "name": "claimIndexHash",
          "type": "uint256"
        }
      ],
      "name": "getClaimProofWithStateInfo",
      "outputs": [
        {
          "components": [
            {
              "internalType": "uint256",
              "name": "root",
              "type": "uint256"
            },
            {
              "internalType": "bool",
              "name": "existence",
              "type": "bool"
            },
            {
              "internalType": "uint256[]",
              "name": "siblings",
              "type": "uint256[]"
            },
            {
              "internalType": "uint256",
              "name": "index",
              "type": "uint256"
            },
            {
              "internalType": "uint256",
              "name": "value",
              "type": "uint256"
            },
            {
              "internalType": "bool",
              "name": "auxExistence",
              "type": "bool"
            },
            {
              "internalType": "uint256",
              "name": "auxIndex",
              "type": "uint256"
            },
            {
              "internalType": "uint256",
              "name": "auxValue",
              "type": "uint256"
            }
          ],
          "internalType": "struct SmtLib.Proof",
          "name": "",
          "type": "tuple"
        },
        {
          "components": [
            {
              "internalType": "uint256",
              "name": "state",
              "type": "uint256"
            },
            {
              "internalType": "uint256",
              "name": "claimsRoot",
              "type": "uint256"
            },
            {
              "internalType": "uint256",
              "name": "revocationsRoot",
              "type": "uint256"
            },
            {
              "internalType": "uint256",
              "name": "rootsRoot",
              "type": "uint256"
            }
          ],
          "internalType": "struct IdentityLib.StateInfo",
          "name": "",
          "type": "tuple"
        }
      ],
      "stateMutability": "view",
      "type": "function"
    },
    {
      "inputs": [],
      "name": "getClaimsTreeRoot",
      "outputs": [
        {
          "internalType": "uint256",
          "name": "",
          "type": "uint256"
        }
      ],
      "stateMutability": "view",
      "type": "function"
    },
    {
      "inputs": [],
      "name": "getExpirationTime",
      "outputs": [
        {
          "internalType": "uint256",
          "name": "",
          "type": "uint256"
        }
      ],
      "stateMutability": "view",
      "type": "function"
    },
    {
      "inputs": [],
      "name": "getId",
      "outputs": [
        {
          "internalType": "uint256",
          "name": "",
          "type": "uint256"
        }
      ],
      "stateMutability": "view",
      "type": "function"
    },
    {
      "inputs": [],
      "name": "getIsOldStateGenesis",
      "outputs": [
        {
          "internalType": "bool",
          "name": "",
          "type": "bool"
        }
      ],
      "stateMutability": "view",
      "type": "function"
    },
    {
      "inputs": [],
      "name": "getLatestPublishedClaimsRoot",
      "outputs": [
        {
          "internalType": "uint256",
          "name": "",
          "type": "uint256"
        }
      ],
      "stateMutability": "view",
      "type": "function"
    },
    {
      "inputs": [],
      "name": "getLatestPublishedRevocationsRoot",
      "outputs": [
        {
          "internalType": "uint256",
          "name": "",
          "type": "uint256"
        }
      ],
      "stateMutability": "view",
      "type": "function"
    },
    {
      "inputs": [],
      "name": "getLatestPublishedRootsRoot",
      "outputs": [
        {
          "internalType": "uint256",
          "name": "",
          "type": "uint256"
        }
      ],
      "stateMutability": "view",
      "type": "function"
    },
    {
      "inputs": [],
      "name": "getLatestPublishedState",
      "outputs": [
        {
          "internalType": "uint256",
          "name": "",
          "type": "uint256"
        }
      ],
      "stateMutability": "view",
      "type": "function"
    },
    {
      "inputs": [],
      "name": "getNullifierSeed",
      "outputs": [
        {
          "internalType": "uint256",
          "name": "",
          "type": "uint256"
        }
      ],
      "stateMutability": "view",
      "type": "function"
    },
    {
      "inputs": [
        {
          "internalType": "uint64",
          "name": "revocationNonce",
          "type": "uint64"
        }
      ],
      "name": "getRevocationProof",
      "outputs": [
        {
          "components": [
            {
              "internalType": "uint256",
              "name": "root",
              "type": "uint256"
            },
            {
              "internalType": "bool",
              "name": "existence",
              "type": "bool"
            },
            {
              "internalType": "uint256[]",
              "name": "siblings",
              "type": "uint256[]"
            },
            {
              "internalType": "uint256",
              "name": "index",
              "type": "uint256"
            },
            {
              "internalType": "uint256",
              "name": "value",
              "type": "uint256"
            },
            {
              "internalType": "bool",
              "name": "auxExistence",
              "type": "bool"
            },
            {
              "internalType": "uint256",
              "name": "auxIndex",
              "type": "uint256"
            },
            {
              "internalType": "uint256",
              "name": "auxValue",
              "type": "uint256"
            }
          ],
          "internalType": "struct SmtLib.Proof",
          "name": "",
          "type": "tuple"
        }
      ],
      "stateMutability": "view",
      "type": "function"
    },
    {
      "inputs": [
        {
          "internalType": "uint64",
          "name": "revocationNonce",
          "type": "uint64"
        },
        {
          "internalType": "uint256",
          "name": "root",
          "type": "uint256"
        }
      ],
      "name": "getRevocationProofByRoot",
      "outputs": [
        {
          "components": [
            {
              "internalType": "uint256",
              "name": "root",
              "type": "uint256"
            },
            {
              "internalType": "bool",
              "name": "existence",
              "type": "bool"
            },
            {
              "internalType": "uint256[]",
              "name": "siblings",
              "type": "uint256[]"
            },
            {
              "internalType": "uint256",
              "name": "index",
              "type": "uint256"
            },
            {
              "internalType": "uint256",
              "name": "value",
              "type": "uint256"
            },
            {
              "internalType": "bool",
              "name": "auxExistence",
              "type": "bool"
            },
            {
              "internalType": "uint256",
              "name": "auxIndex",
              "type": "uint256"
            },
            {
              "internalType": "uint256",
              "name": "auxValue",
              "type": "uint256"
            }
          ],
          "internalType": "struct SmtLib.Proof",
          "name": "",
          "type": "tuple"
        }
      ],
      "stateMutability": "view",
      "type": "function"
    },
    {
      "inputs": [
        {
          "internalType": "uint64",
          "name": "revocationNonce",
          "type": "uint64"
        }
      ],
      "name": "getRevocationProofWithStateInfo",
      "outputs": [
        {
          "components": [
            {
              "internalType": "uint256",
              "name": "root",
              "type": "uint256"
            },
            {
              "internalType": "bool",
              "name": "existence",
              "type": "bool"
            },
            {
              "internalType": "uint256[]",
              "name": "siblings",
              "type": "uint256[]"
            },
            {
              "internalType": "uint256",
              "name": "index",
              "type": "uint256"
            },
            {
              "internalType": "uint256",
              "name": "value",
              "type": "uint256"
            },
            {
              "internalType": "bool",
              "name": "auxExistence",
              "type": "bool"
            },
            {
              "internalType": "uint256",
              "name": "auxIndex",
              "type": "uint256"
            },
            {
              "internalType": "uint256",
              "name": "auxValue",
              "type": "uint256"
            }
          ],
          "internalType": "struct SmtLib.Proof",
          "name": "",
          "type": "tuple"
        },
        {
          "components": [
            {
              "internalType": "uint256",
              "name": "state",
              "type": "uint256"
            },
            {
              "internalType": "uint256",
              "name": "claimsRoot",
              "type": "uint256"
            },
            {
              "internalType": "uint256",
              "name": "revocationsRoot",
              "type": "uint256"
            },
            {
              "internalType": "uint256",
              "name": "rootsRoot",
              "type": "uint256"
            }
          ],
          "internalType": "struct IdentityLib.StateInfo",
          "name": "",
          "type": "tuple"
        }
      ],
      "stateMutability": "view",
      "type": "function"
    },
    {
      "inputs": [
        {
          "internalType": "uint256",
          "name": "id",
          "type": "uint256"
        },
        {
          "internalType": "uint64",
          "name": "nonce",
          "type": "uint64"
        }
      ],
      "name": "getRevocationStatus",
      "outputs": [
        {
          "components": [
            {
              "components": [
                {
                  "internalType": "uint256",
                  "name": "state",
                  "type": "uint256"
                },
                {
                  "internalType": "uint256",
                  "name": "claimsTreeRoot",
                  "type": "uint256"
                },
                {
                  "internalType": "uint256",
                  "name": "revocationTreeRoot",
                  "type": "uint256"
                },
                {
                  "internalType": "uint256",
                  "name": "rootOfRoots",
                  "type": "uint256"
                }
              ],
              "internalType": "struct IOnchainCredentialStatusResolver.IdentityStateRoots",
              "name": "issuer",
              "type": "tuple"
            },
            {
              "components": [
                {
                  "internalType": "uint256",
                  "name": "root",
                  "type": "uint256"
                },
                {
                  "internalType": "bool",
                  "name": "existence",
                  "type": "bool"
                },
                {
                  "internalType": "uint256[]",
                  "name": "siblings",
                  "type": "uint256[]"
                },
                {
                  "internalType": "uint256",
                  "name": "index",
                  "type": "uint256"
                },
                {
                  "internalType": "uint256",
                  "name": "value",
                  "type": "uint256"
                },
                {
                  "internalType": "bool",
                  "name": "auxExistence",
                  "type": "bool"
                },
                {
                  "internalType": "uint256",
                  "name": "auxIndex",
                  "type": "uint256"
                },
                {
                  "internalType": "uint256",
                  "name": "auxValue",
                  "type": "uint256"
                }
              ],
              "internalType": "struct IOnchainCredentialStatusResolver.Proof",
              "name": "mtp",
              "type": "tuple"
            }
          ],
          "internalType": "struct IOnchainCredentialStatusResolver.CredentialStatus",
          "name": "",
          "type": "tuple"
        }
      ],
      "stateMutability": "view",
      "type": "function"
    },
    {
      "inputs": [
        {
          "internalType": "uint256",
          "name": "id",
          "type": "uint256"
        },
        {
          "internalType": "uint256",
          "name": "state",
          "type": "uint256"
        },
        {
          "internalType": "uint64",
          "name": "nonce",
          "type": "uint64"
        }
      ],
      "name": "getRevocationStatusByIdAndState",
      "outputs": [
        {
          "components": [
            {
              "components": [
                {
                  "internalType": "uint256",
                  "name": "state",
                  "type": "uint256"
                },
                {
                  "internalType": "uint256",
                  "name": "claimsTreeRoot",
                  "type": "uint256"
                },
                {
                  "internalType": "uint256",
                  "name": "revocationTreeRoot",
                  "type": "uint256"
                },
                {
                  "internalType": "uint256",
                  "name": "rootOfRoots",
                  "type": "uint256"
                }
              ],
              "internalType": "struct IOnchainCredentialStatusResolver.IdentityStateRoots",
              "name": "issuer",
              "type": "tuple"
            },
            {
              "components": [
                {
                  "internalType": "uint256",
                  "name": "root",
                  "type": "uint256"
                },
                {
                  "internalType": "bool",
                  "name": "existence",
                  "type": "bool"
                },
                {
                  "internalType": "uint256[]",
                  "name": "siblings",
                  "type": "uint256[]"
                },
                {
                  "internalType": "uint256",
                  "name": "index",
                  "type": "uint256"
                },
                {
                  "internalType": "uint256",
                  "name": "value",
                  "type": "uint256"
                },
                {
                  "internalType": "bool",
                  "name": "auxExistence",
                  "type": "bool"
                },
                {
                  "internalType": "uint256",
                  "name": "auxIndex",
                  "type": "uint256"
                },
                {
                  "internalType": "uint256",
                  "name": "auxValue",
                  "type": "uint256"
                }
              ],
              "internalType": "struct IOnchainCredentialStatusResolver.Proof",
              "name": "mtp",
              "type": "tuple"
            }
          ],
          "internalType": "struct IOnchainCredentialStatusResolver.CredentialStatus",
          "name": "",
          "type": "tuple"
        }
      ],
      "stateMutability": "view",
      "type": "function"
    },
    {
      "inputs": [],
      "name": "getRevocationsTreeRoot",
      "outputs": [
        {
          "internalType": "uint256",
          "name": "",
          "type": "uint256"
        }
      ],
      "stateMutability": "view",
      "type": "function"
    },
    {
      "inputs": [
        {
          "internalType": "uint256",
          "name": "rootsTreeRoot",
          "type": "uint256"
        }
      ],
      "name": "getRootProof",
      "outputs": [
        {
          "components": [
            {
              "internalType": "uint256",
              "name": "root",
              "type": "uint256"
            },
            {
              "internalType": "bool",
              "name": "existence",
              "type": "bool"
            },
            {
              "internalType": "uint256[]",
              "name": "siblings",
              "type": "uint256[]"
            },
            {
              "internalType": "uint256",
              "name": "index",
              "type": "uint256"
            },
            {
              "internalType": "uint256",
              "name": "value",
              "type": "uint256"
            },
            {
              "internalType": "bool",
              "name": "auxExistence",
              "type": "bool"
            },
            {
              "internalType": "uint256",
              "name": "auxIndex",
              "type": "uint256"
            },
            {
              "internalType": "uint256",
              "name": "auxValue",
              "type": "uint256"
            }
          ],
          "internalType": "struct SmtLib.Proof",
          "name": "",
          "type": "tuple"
        }
      ],
      "stateMutability": "view",
      "type": "function"
    },
    {
      "inputs": [
        {
          "internalType": "uint256",
          "name": "claimsTreeRoot",
          "type": "uint256"
        },
        {
          "internalType": "uint256",
          "name": "root",
          "type": "uint256"
        }
      ],
      "name": "getRootProofByRoot",
      "outputs": [
        {
          "components": [
            {
              "internalType": "uint256",
              "name": "root",
              "type": "uint256"
            },
            {
              "internalType": "bool",
              "name": "existence",
              "type": "bool"
            },
            {
              "internalType": "uint256[]",
              "name": "siblings",
              "type": "uint256[]"
            },
            {
              "internalType": "uint256",
              "name": "index",
              "type": "uint256"
            },
            {
              "internalType": "uint256",
              "name": "value",
              "type": "uint256"
            },
            {
              "internalType": "bool",
              "name": "auxExistence",
              "type": "bool"
            },
            {
              "internalType": "uint256",
              "name": "auxIndex",
              "type": "uint256"
            },
            {
              "internalType": "uint256",
              "name": "auxValue",
              "type": "uint256"
            }
          ],
          "internalType": "struct SmtLib.Proof",
          "name": "",
          "type": "tuple"
        }
      ],
      "stateMutability": "view",
      "type": "function"
    },
    {
      "inputs": [
        {
          "internalType": "uint256",
          "name": "rootsTreeRoot",
          "type": "uint256"
        }
      ],
      "name": "getRootProofWithStateInfo",
      "outputs": [
        {
          "components": [
            {
              "internalType": "uint256",
              "name": "root",
              "type": "uint256"
            },
            {
              "internalType": "bool",
              "name": "existence",
              "type": "bool"
            },
            {
              "internalType": "uint256[]",
              "name": "siblings",
              "type": "uint256[]"
            },
            {
              "internalType": "uint256",
              "name": "index",
              "type": "uint256"
            },
            {
              "internalType": "uint256",
              "name": "value",
              "type": "uint256"
            },
            {
              "internalType": "bool",
              "name": "auxExistence",
              "type": "bool"
            },
            {
              "internalType": "uint256",
              "name": "auxIndex",
              "type": "uint256"
            },
            {
              "internalType": "uint256",
              "name": "auxValue",
              "type": "uint256"
            }
          ],
          "internalType": "struct SmtLib.Proof",
          "name": "",
          "type": "tuple"
        },
        {
          "components": [
            {
              "internalType": "uint256",
              "name": "state",
              "type": "uint256"
            },
            {
              "internalType": "uint256",
              "name": "claimsRoot",
              "type": "uint256"
            },
            {
              "internalType": "uint256",
              "name": "revocationsRoot",
              "type": "uint256"
            },
            {
              "internalType": "uint256",
              "name": "rootsRoot",
              "type": "uint256"
            }
          ],
          "internalType": "struct IdentityLib.StateInfo",
          "name": "",
          "type": "tuple"
        }
      ],
      "stateMutability": "view",
      "type": "function"
    },
    {
      "inputs": [
        {
          "internalType": "uint256",
          "name": "state",
          "type": "uint256"
        }
      ],
      "name": "getRootsByState",
      "outputs": [
        {
          "components": [
            {
              "internalType": "uint256",
              "name": "claimsRoot",
              "type": "uint256"
            },
            {
              "internalType": "uint256",
              "name": "revocationsRoot",
              "type": "uint256"
            },
            {
              "internalType": "uint256",
              "name": "rootsRoot",
              "type": "uint256"
            }
          ],
          "internalType": "struct IdentityLib.Roots",
          "name": "",
          "type": "tuple"
        }
      ],
      "stateMutability": "view",
      "type": "function"
    },
    {
      "inputs": [],
      "name": "getRootsTreeRoot",
      "outputs": [
        {
          "internalType": "uint256",
          "name": "",
          "type": "uint256"
        }
      ],
      "stateMutability": "view",
      "type": "function"
    },
    {
      "inputs": [],
      "name": "getSmtDepth",
      "outputs": [
        {
          "internalType": "uint256",
          "name": "",
          "type": "uint256"
        }
      ],
      "stateMutability": "pure",
      "type": "function"
    },
    {
      "inputs": [],
      "name": "getTemplateRoot",
      "outputs": [
        {
          "internalType": "uint256",
          "name": "",
          "type": "uint256"
        }
      ],
      "stateMutability": "view",
      "type": "function"
    },
    {
      "inputs": [
        {
          "internalType": "address",
          "name": "_stateContractAddr",
          "type": "address"
        },
        {
          "internalType": "bytes2",
          "name": "idType",
          "type": "bytes2"
        }
      ],
      "name": "initialize",
      "outputs": [],
      "stateMutability": "nonpayable",
      "type": "function"
    },
    {
      "inputs": [
        {
          "internalType": "uint256",
          "name": "nullifierSeed",
          "type": "uint256"
        },
        {
          "internalType": "uint256[]",
          "name": "publicKeysHashes",
          "type": "uint256[]"
        },
        {
          "internalType": "uint256[]",
          "name": "qrVersions",
          "type": "uint256[]"
        },
        {
          "internalType": "uint256",
          "name": "expirationTime",
          "type": "uint256"
        },
        {
          "internalType": "uint256",
          "name": "templateRoot",
          "type": "uint256"
        },
        {
          "internalType": "address",
          "name": "anonAadhaarVerifier",
          "type": "address"
        },
        {
          "components": [
            {
              "internalType": "address",
              "name": "stateAddress",
              "type": "address"
            },
            {
              "internalType": "bytes2",
              "name": "idType",
              "type": "bytes2"
            }
          ],
          "internalType": "struct AnonAadhaarCredentialIssuer.StateInfo",
          "name": "stateInfo",
          "type": "tuple"
        },
        {
          "internalType": "address",
          "name": "owner",
          "type": "address"
        }
      ],
      "name": "initializeIssuer",
      "outputs": [],
      "stateMutability": "nonpayable",
      "type": "function"
    },
    {
      "inputs": [
        {
          "internalType": "uint256",
          "name": "nullifier",
          "type": "uint256"
        }
      ],
      "name": "nullifierExists",
      "outputs": [
        {
          "internalType": "bool",
          "name": "",
          "type": "bool"
        }
      ],
      "stateMutability": "view",
      "type": "function"
    },
    {
      "inputs": [],
      "name": "owner",
      "outputs": [
        {
          "internalType": "address",
          "name": "",
          "type": "address"
        }
      ],
      "stateMutability": "view",
      "type": "function"
    },
    {
      "inputs": [],
      "name": "pendingOwner",
      "outputs": [
        {
          "internalType": "address",
          "name": "",
          "type": "address"
        }
      ],
      "stateMutability": "view",
      "type": "function"
    },
    {
      "inputs": [
        {
          "internalType": "uint256",
          "name": "publicKeyHash",
          "type": "uint256"
        }
      ],
      "name": "publicKeyHashExists",
      "outputs": [
        {
          "internalType": "bool",
          "name": "",
          "type": "bool"
        }
      ],
      "stateMutability": "view",
      "type": "function"
    },
    {
      "inputs": [
        {
          "internalType": "uint256",
          "name": "qrVersion",
          "type": "uint256"
        }
      ],
      "name": "qrVersionSupported",
      "outputs": [
        {
          "internalType": "bool",
          "name": "",
          "type": "bool"
        }
      ],
      "stateMutability": "view",
      "type": "function"
    },
    {
      "inputs": [
        {
          "internalType": "uint256",
          "name": "publicKeyHash",
          "type": "uint256"
        }
      ],
      "name": "removePublicKeyHash",
      "outputs": [],
      "stateMutability": "nonpayable",
      "type": "function"
    },
    {
      "inputs": [
        {
          "internalType": "uint256",
          "name": "qrVersion",
          "type": "uint256"
        }
      ],
      "name": "removeQrVersion",
      "outputs": [],
      "stateMutability": "nonpayable",
      "type": "function"
    },
    {
      "inputs": [],
      "name": "renounceOwnership",
      "outputs": [],
      "stateMutability": "nonpayable",
      "type": "function"
    },
    {
      "inputs": [
        {
          "internalType": "uint256",
          "name": "nullifier",
          "type": "uint256"
        }
      ],
      "name": "revokeCredential",
      "outputs": [],
      "stateMutability": "nonpayable",
      "type": "function"
    },
    {
      "inputs": [
        {
          "internalType": "uint256",
          "name": "issuerDidHash",
          "type": "uint256"
        }
      ],
      "name": "setIssuerDidHash",
      "outputs": [],
      "stateMutability": "nonpayable",
      "type": "function"
    },
    {
      "inputs": [
        {
          "internalType": "uint256",
          "name": "templateRoot",
          "type": "uint256"
        }
      ],
      "name": "setTemplateRoot",
      "outputs": [],
      "stateMutability": "nonpayable",
      "type": "function"
    },
    {
      "inputs": [
        {
          "internalType": "bytes4",
          "name": "interfaceId",
          "type": "bytes4"
        }
      ],
      "name": "supportsInterface",
      "outputs": [
        {
          "internalType": "bool",
          "name": "",
          "type": "bool"
        }
      ],
      "stateMutability": "view",
      "type": "function"
    },
    {
      "inputs": [
        {
          "internalType": "address",
          "name": "newOwner",
          "type": "address"
        }
      ],
      "name": "transferOwnership",
      "outputs": [],
      "stateMutability": "nonpayable",
      "type": "function"
    },
    {
      "inputs": [
        {
          "internalType": "string[]",
          "name": "circuitIds",
          "type": "string[]"
        },
        {
          "internalType": "address[]",
          "name": "verifierAddresses",
          "type": "address[]"
        }
      ],
      "name": "updateAnonAadhaarVerifiers",
      "outputs": [],
      "stateMutability": "nonpayable",
      "type": "function"
    },
    {
      "inputs": [
        {
          "components": [
            {
              "internalType": "string",
              "name": "circuitId",
              "type": "string"
            },
            {
              "internalType": "bytes",
              "name": "proof",
              "type": "bytes"
            }
          ],
          "internalType": "struct AnonAadhaarCredentialIssuer.CredentialProof",
          "name": "credentialProof",
          "type": "tuple"
        },
        {
          "internalType": "bytes",
          "name": "passportSignatureProof",
          "type": "bytes"
        }
      ],
      "name": "verifyAadhaar",
      "outputs": [],
      "stateMutability": "nonpayable",
      "type": "function"
    }
  ],
  "bytecode": "0x6080604052348015600f57600080fd5b506016601a565b60ca565b7ff0c57e16840df040f15088dc2f81fe391c3923bec73e23a9662efc9c229c6a00805468010000000000000000900460ff161560695760405163f92ee8a960e01b815260040160405180910390fd5b80546001600160401b039081161460c75780546001600160401b0319166001600160401b0390811782556040519081527fc7f505b2f371ae2175ee4913f4499e1f2633a7b5936321eed1cdaeb6115181d29060200160405180910390a15b50565b613029806100d96000396000f3fe608060405234801561001057600080fd5b50600436106102ba5760003560e01c80635d1ca63111610182578063c1e32733116100e9578063e30c3978116100a2578063f2fde38b1161007c578063f2fde38b146105f0578063f84c7c1e14610603578063f8ba8b391461060b578063ffa1ad741461061e57600080fd5b8063e30c3978146105c2578063efc8385a146105ca578063f221b845146105dd57600080fd5b8063c1e3273314610571578063c6365a3b14610584578063da68a0b11461058c578063dcdd17c414610594578063e23a845a146105a7578063e26ecb0b146105af57600080fd5b8063ad5778c71161013b578063ad5778c7146104dd578063b354c2d8146104f0578063b37feda414610503578063b57a40cb14610516578063b5fff0ed14610529578063b8db68711461053c57600080fd5b80635d1ca6311461048a578063715018a61461049257806379ba50971461049a5780638da5cb5b146104a25780639674cfa4146104c2578063aad72921146104ca57600080fd5b8063310d0d5b1161022657806343e5c520116101df57806343e5c52014610423578063443d7534146104365780634c240f3414610449578063523b81361461045c578063552c9b7e1461046457806358ada6721461047757600080fd5b8063310d0d5b146103d3578063345f83ff146103e65780633d59ec60146103f95780633df432fc146104015780633f0c664814610409578063406e8b4c1461041057600080fd5b80631b87278d116102785780631b87278d1461035f57806326485063146103725780632afab62f146103925780632c1d3204146103a55780632d5c4f25146103ad5780632e1e252f146103c057600080fd5b806233058d146102bf57806301c85c77146102e957806301ffc9a7146102ff578063035dfdfe14610322578063110c96a71461033757806313e52ae714610357575b600080fd5b6102d26102cd3660046123b9565b61064f565b6040516102e0929190612476565b60405180910390f35b6102f161071c565b6040519081526020016102e0565b61031261030d3660046124b9565b6107a1565b60405190151581526020016102e0565b6103356103303660046124e3565b6107d8565b005b61034a6103453660046124fc565b610846565b6040516102e09190612528565b6102f1610871565b61033561036d3660046124e3565b610881565b6103856103803660046123b9565b61094c565b6040516102e09190612575565b6103126103a03660046124e3565b6109e5565b6102f1610a10565b6103856103bb366004612588565b610a23565b6103356103ce3660046124e3565b610ac2565b6103856103e1366004612588565b610b29565b6103356103f436600461260c565b610b80565b6102f1610da5565b6102f1610db8565b60286102f1565b61033561041e3660046126f2565b610dfb565b610335610431366004612823565b610e98565b6102d26104443660046124e3565b6111a3565b6103356104573660046124e3565b61121e565b6102f161126a565b6103356104723660046128ea565b61127d565b6103126104853660046124e3565b611293565b6102f16112b4565b6103356112be565b6103356112d2565b6104aa61131a565b6040516001600160a01b0390911681526020016102e0565b6102f161134f565b61034a6104d836600461292b565b611362565b6104aa6104eb366004612960565b61157b565b6103356104fe3660046124e3565b6115b5565b6102d26105113660046124e3565b611601565b6103856105243660046124e3565b61167c565b6103356105373660046128ea565b6116ca565b61054f61054a3660046124e3565b6116dc565b60408051825181526020808401519082015291810151908201526060016102e0565b61038561057f3660046124e3565b611784565b6102f16117d4565b6102f16117e7565b6103356105a23660046124e3565b61182a565b6102f1611859565b6103856105bd366004612994565b61186c565b6104aa6118cb565b6103126105d83660046124e3565b6118f4565b6103356105eb3660046124e3565b611915565b6103356105fe3660046129be565b611974565b6103126119f9565b6103356106193660046129d9565b611a0f565b610642604051806040016040528060058152602001640312e302e360dc1b81525081565b6040516102e09190612a6c565b6106576122c8565b6106826040518060800160405280600081526020016000815260200160008152602001600081525090565b61068a611a29565b604051631f17004d60e31b815260048101919091526001600160401b038416602482015273__$068aad146bf104111ba65c4a1de2cd0e23$__9063f8b80268906044015b600060405180830381865af41580156106eb573d6000803e3d6000fd5b505050506040513d6000823e601f3d908101601f191682016040526107139190810190612bcf565b91509150915091565b6000610726611a29565b60405163765c2c6160e01b8152600481019190915273__$068aad146bf104111ba65c4a1de2cd0e23$__9063765c2c61906024015b602060405180830381865af4158015610778573d6000803e3d6000fd5b505050506040513d601f19601f8201168201806040525081019061079c9190612c73565b905090565b60006001600160e01b03198216635d1ca63160e01b14806107d257506301ffc9a760e01b6001600160e01b03198316145b92915050565b6107e0611a4d565b60006107ea611a7f565b600083815260058201602052604090819020805460ff19166001179055519091507f192522987419be1c06ca88238df20a35b84c7a5025bbf1e244fac876d2d320ee9061083a9084815260200190565b60405180910390a15050565b61084e612311565b6000610858611a29565b600101549050610869848285611362565b949350505050565b600061087b611a7f565b54919050565b610889611a4d565b6000610893611a7f565b60008381526006820160205260408120549192506001600160401b03909116908190036108d3576040516327522baf60e01b815260040160405180910390fd5b6108dc81611aa3565b600083815260068301602052604090819020805467ffffffffffffffff19169055517f725d312746be14d750d0493aa7960a5aca3c30f98f74b0e07afc8f1a36b355c29061093f90859084909182526001600160401b0316602082015260400190565b60405180910390a1505050565b6109546122c8565b61095c611a29565b604051637d0aba4f60e01b815260048101919091526001600160401b038316602482015273__$068aad146bf104111ba65c4a1de2cd0e23$__90637d0aba4f906044015b600060405180830381865af41580156109bd573d6000803e3d6000fd5b505050506040513d6000823e601f3d908101601f191682016040526107d29190810190612c8c565b6000806109f0611a7f565b6000938452600601602052505060409020546001600160401b0316151590565b6000610a1a611a7f565b60020154905090565b610a2b6122c8565b610a33611a29565b60405163d55da6a360e01b81526004810191909152602481018490526044810183905273__$068aad146bf104111ba65c4a1de2cd0e23$__9063d55da6a3906064015b600060405180830381865af4158015610a93573d6000803e3d6000fd5b505050506040513d6000823e601f3d908101601f19168201604052610abb9190810190612c8c565b9392505050565b610aca611a4d565b6000610ad4611a7f565b600083815260078201602052604090205490915060ff16610b105760405163dbbaa55f60e01b8152600481018390526024015b60405180910390fd5b600091825260070160205260409020805460ff19169055565b610b316122c8565b610b39611a29565b604051636ac0c5c760e11b81526004810191909152602481018490526044810183905273__$068aad146bf104111ba65c4a1de2cd0e23$__9063d5818b8e90606401610a76565b6000610b8a611b8d565b805490915060ff600160401b82041615906001600160401b0316600081158015610bb15750825b90506000826001600160401b03166001148015610bcd5750303b155b905081158015610bdb575080155b15610bf95760405163f92ee8a960e01b815260040160405180910390fd5b845467ffffffffffffffff191660011785558315610c2357845460ff60401b1916600160401b1785555b6001600160a01b038816610c4a5760405163043103a360e21b815260040160405180910390fd5b6000610c5960208901896129be565b6001600160a01b031603610c8057604051637eb887b360e01b815260040160405180910390fd5b610ca0610c9060208901896129be565b61041e60408a0160208b01612cc0565b610ca986611bb6565b6000610cb3611a7f565b90508f81600001819055508a816001018190555089816002018190555088816004016040518060400160405280600f81526020016e616e6f6e5f616164686161725f763160881b815250604051610d0a9190612cdb565b90815260405190819003602001902080546001600160a01b03929092166001600160a01b0319909216919091179055610d438f8f611bc7565b610d4d8d8d611c7d565b508315610d9457845460ff60401b19168555604051600181527fc7f505b2f371ae2175ee4913f4499e1f2633a7b5936321eed1cdaeb6115181d29060200160405180910390a15b505050505050505050505050505050565b6000610daf611a29565b60010154919050565b6000610dc2611a29565b604051631b8bf99b60e21b8152600481019190915273__$068aad146bf104111ba65c4a1de2cd0e23$__90636e2fe66c9060240161075b565b610e03611a29565b6040516359a6069160e01b815260048101919091526001600160a01b0383166024820152306044820152602860648201526001600160f01b03198216608482015273__$068aad146bf104111ba65c4a1de2cd0e23$__906359a606919060a4015b60006040518083038186803b158015610e7c57600080fd5b505af4158015610e90573d6000803e3d6000fd5b505050505050565b815151600003610ebe5781516040516302a47c2f60e31b8152610b079190600401612a6c565b6000806000808560200151806020019051810190610edc9190612d49565b93509350935093506000604051806080016040528085815260200184815260200183815260200160405180610180016040528088600081518110610f2257610f22612e03565b6020026020010151815260200188600181518110610f4257610f42612e03565b6020026020010151815260200188600281518110610f6257610f62612e03565b6020026020010151815260200188600381518110610f8257610f82612e03565b6020026020010151815260200188600481518110610fa257610fa2612e03565b6020026020010151815260200188600581518110610fc257610fc2612e03565b6020026020010151815260200188600681518110610fe257610fe2612e03565b602002602001015181526020018860078151811061100257611002612e03565b602002602001015181526020018860088151811061102257611022612e03565b602002602001015181526020018860098151811061104257611042612e03565b6020026020010151815260200188600a8151811061106257611062612e03565b6020026020010151815260200188600b8151811061108257611082612e03565b60200260200101518152508152509050600061109c611a7f565b905060008160040189600001516040516110b69190612cdb565b908152604051908190036020019020546001600160a01b03169050806110ef576040516301dcf1ab60e31b815260040160405180910390fd5b806001600160a01b0316638cbac0fa84600001518560200151866040015187606001516040518563ffffffff1660e01b81526004016111319493929190612e3c565b602060405180830381865afa15801561114e573d6000803e3d6000fd5b505050506040513d601f19601f820116820180604052508101906111729190612ec1565b61118f5760405163b4b32e6f60e01b815260040160405180910390fd5b61119883611cde565b505050505050505050565b6111ab6122c8565b6111d66040518060800160405280600081526020016000815260200160008152602001600081525090565b6111de611a29565b60405163a3018d7960e01b815260048101919091526024810184905273__$068aad146bf104111ba65c4a1de2cd0e23$__9063a3018d79906044016106ce565b611226611a4d565b6000611230611a7f565b600381018390556040518381529091507fb69b4c35c29def0ac05e4ac2258986b58de5ae03feeea1802c95f4e0b5794cf19060200161083a565b6000611274611a29565b609a0154919050565b611285611a4d565b61128f8282611bc7565b5050565b600061129d611a7f565b600092835260050160205250604090205460ff1690565b600061087b611a29565b6112c6611a4d565b6112d06000611d6b565b565b33806112dc6118cb565b6001600160a01b03161461130e5760405163118cdaa760e01b81526001600160a01b0382166004820152602401610b07565b61131781611d6b565b50565b6000807f9016d09d72d40fdae2fd8ceac6b6234c7706214fd39c1cd1e609a0528c1993005b546001600160a01b031692915050565b6000611359611a29565b609b0154919050565b61136a612311565b611372611a29565b5484146113b85760405162461bcd60e51b8152602060048201526014602482015273092c8cadce8d2e8f240d2c840dad2e6dac2e8c6d60631b6044820152606401610b07565b60006113c2611a29565b604051630b1a9cd360e01b815260048101919091526024810185905273__$068aad146bf104111ba65c4a1de2cd0e23$__90630b1a9cd390604401606060405180830381865af415801561141a573d6000803e3d6000fd5b505050506040513d601f19601f8201168201806040525081019061143e9190612edc565b604080516080810182528681528251602080830191909152830151818301529082015160608201529091506000611473611a29565b6020840151604051630b2bcd1b60e11b815260048101929092526001600160401b0387166024830152604482015273__$068aad146bf104111ba65c4a1de2cd0e23$__906316579a3690606401600060405180830381865af41580156114dd573d6000803e3d6000fd5b505050506040513d6000823e601f3d908101601f191682016040526115059190810190612c8c565b6040805161010081018252825181526020808401511515818301528284015182840152606080850151908301526080808501519083015260a08085015115159083015260c0808501519083015260e093840151938201939093528151808301909252938152908101929092525095945050505050565b6000611585611a7f565b600401826040516115969190612cdb565b908152604051908190036020019020546001600160a01b031692915050565b6115bd611a4d565b60006115c7611a7f565b600281018390556040518381529091507ff007a02ba428e63fa98b65269e70f9a9db847e0a839049a2f31f0692822677349060200161083a565b6116096122c8565b6116346040518060800160405280600081526020016000815260200160008152602001600081525090565b61163c611a29565b604051636ad1d8a760e11b815260048101919091526024810184905273__$068aad146bf104111ba65c4a1de2cd0e23$__9063d5a3b14e906044016106ce565b6116846122c8565b61168c611a29565b604051620cf08960e41b815260048101919091526024810183905273__$068aad146bf104111ba65c4a1de2cd0e23$__9062cf0890906044016109a0565b6116d2611a4d565b61128f8282611c7d565b61170060405180606001604052806000815260200160008152602001600081525090565b611708611a29565b604051630b1a9cd360e01b815260048101919091526024810183905273__$068aad146bf104111ba65c4a1de2cd0e23$__90630b1a9cd390604401606060405180830381865af4158015611760573d6000803e3d6000fd5b505050506040513d601f19601f820116820180604052508101906107d29190612edc565b61178c6122c8565b611794611a29565b6040516397ac539160e01b815260048101919091526024810183905273__$068aad146bf104111ba65c4a1de2cd0e23$__906397ac5391906044016109a0565b60006117de611a29565b609c0154919050565b60006117f1611a29565b604051631e75e7f360e01b8152600481019190915273__$068aad146bf104111ba65c4a1de2cd0e23$__90631e75e7f39060240161075b565b611832611a4d565b600061183c611a7f565b60009283526007016020525060409020805460ff19166001179055565b6000611863611a7f565b60010154905090565b6118746122c8565b61187c611a29565b604051630b2bcd1b60e11b815260048101919091526001600160401b03841660248201526044810183905273__$068aad146bf104111ba65c4a1de2cd0e23$__906316579a3690606401610a76565b6000807f237e158222e3e6968b72b9db0d8043aacf074ad9f650f0d1606b4d82ee432c0061133f565b60006118fe611a7f565b600092835260070160205250604090205460ff1690565b61191d611a4d565b6000611927611a7f565b600083815260058201602052604090205490915060ff1661195b576040516356b6133160e11b815260040160405180910390fd5b600091825260050160205260409020805460ff19169055565b61197c611a4d565b7f237e158222e3e6968b72b9db0d8043aacf074ad9f650f0d1606b4d82ee432c0080546001600160a01b0319166001600160a01b03831690811782556119c061131a565b6001600160a01b03167f38d16b8cac22d99fc7c124b9cd0de2d3fa1faef420bfe791d8c362d765e2270060405160405180910390a35050565b6000611a03611a29565b6002015460ff16919050565b611a17611a4d565b611a2384848484611da3565b50505050565b7f3018a310c36c4f8228f09bf3b1822685cf0971daa8265a58ca807c4a4daba40090565b33611a5661131a565b6001600160a01b0316146112d05760405163118cdaa760e01b8152336004820152602401610b07565b7f45045675f3efe2ec0ccfad8aa4c678179d3e20b95a34ad9d981fab6f95ba1e0090565b611aab611a29565b604051638ad7195d60e01b815260048101919091526001600160401b038216602482015273__$068aad146bf104111ba65c4a1de2cd0e23$__90638ad7195d9060440160006040518083038186803b158015611b0657600080fd5b505af4158015611b1a573d6000803e3d6000fd5b50505050611b26611a29565b60405163175ba3e960e11b8152600481019190915273__$068aad146bf104111ba65c4a1de2cd0e23$__90632eb747d29060240160006040518083038186803b158015611b7257600080fd5b505af4158015611b86573d6000803e3d6000fd5b5050505050565b6000807ff0c57e16840df040f15088dc2f81fe391c3923bec73e23a9662efc9c229c6a006107d2565b611bbe611efb565b61131781611f20565b6000611bd1611a7f565b905060005b82811015611a23576001826005016000868685818110611bf857611bf8612e03565b90506020020135815260200190815260200160002060006101000a81548160ff0219169083151502179055507f192522987419be1c06ca88238df20a35b84c7a5025bbf1e244fac876d2d320ee848483818110611c5757611c57612e03565b90506020020135604051611c6d91815260200190565b60405180910390a1600101611bd6565b6000611c87611a7f565b905060005b82811015611a23576001826007016000868685818110611cae57611cae612e03565b60209081029290920135835250810191909152604001600020805460ff1916911515919091179055600101611c8c565b60608181015180516020820151604083015193830151608084015160a085015160c086015160e08701516101008801516101208901516101408a0151610160909a0151989a97999798969795969495939492939192909190611d488a8a8d8f898d8d8a8a8f611f52565b611d528b82612112565b611d5c8a8a612182565b50505050505050505050505050565b7f237e158222e3e6968b72b9db0d8043aacf074ad9f650f0d1606b4d82ee432c0080546001600160a01b031916815561128f8261223d565b6000611dad611a7f565b9050838214611dd9576040516355c5b3e360e11b81526004810185905260248101839052604401610b07565b60005b84811015610e9057838382818110611df657611df6612e03565b9050602002016020810190611e0b91906129be565b82600401878784818110611e2157611e21612e03565b9050602002810190611e339190612f3b565b604051611e41929190612f81565b90815260405190819003602001902080546001600160a01b03929092166001600160a01b03199092169190911790557f3f04312ecef010d1cb9901bb8602db84b7b52fddcef458e04bd8e83a7fc035a4868683818110611ea357611ea3612e03565b9050602002810190611eb59190612f3b565b868685818110611ec757611ec7612e03565b9050602002016020810190611edc91906129be565b604051611eeb93929190612f91565b60405180910390a1600101611ddc565b611f036122ae565b6112d057604051631afcd79f60e31b815260040160405180910390fd5b611f28611efb565b6001600160a01b03811661130e57604051631e4fbdf760e01b815260006004820152602401610b07565b6000611f5c611a7f565b90508a600003611f7f57604051634978c15760e11b815260040160405180910390fd5b89600003611fa057604051639d34ba4f60e01b815260040160405180910390fd5b80548714611fc15760405163d2cee05560e01b815260040160405180910390fd5b80600201548414611fe5576040516381d6039360e01b815260040160405180910390fd5b806003015483146120095760405163fe0c887b60e01b815260040160405180910390fd5b600081600101548761201b9190612fd2565b905080861461204757604051633abb8c7960e11b81526004810182905260248101879052604401610b07565b4286116120675760405163b67a771360e01b815260040160405180910390fd5b600089815260058301602052604090205460ff16612098576040516356b6133160e11b815260040160405180910390fd5b600083815260078301602052604090205460ff166120cc5760405163dbbaa55f60e01b815260048101849052602401610b07565b60008a81526006830160205260409020546001600160401b03161561210457604051639338373760e01b815260040160405180910390fd5b505050505050505050505050565b806001600160401b0316600003612147576040516337f969b360e11b81526001600160401b0382166004820152602401610b07565b6000612151611a7f565b6000938452600601602052506040909120805467ffffffffffffffff19166001600160401b03909216919091179055565b61218a611a29565b6040516306fb157560e01b81526004810191909152602481018390526044810182905273__$068aad146bf104111ba65c4a1de2cd0e23$__906306fb15759060640160006040518083038186803b1580156121e457600080fd5b505af41580156121f8573d6000803e3d6000fd5b50505050612204611a29565b60405163175ba3e960e11b8152600481019190915273__$068aad146bf104111ba65c4a1de2cd0e23$__90632eb747d290602401610e64565b7f9016d09d72d40fdae2fd8ceac6b6234c7706214fd39c1cd1e609a0528c19930080546001600160a01b031981166001600160a01b03848116918217845560405192169182907f8be0079c531659141344cd1fd0a4f28419497f9722a3daafe3b4186f6b6457e090600090a3505050565b60006122b8611b8d565b54600160401b900460ff16919050565b6040518061010001604052806000815260200160001515815260200160608152602001600081526020016000815260200160001515815260200160008152602001600081525090565b60405180604001604052806123476040518060800160405280600081526020016000815260200160008152602001600081525090565b81526020016123986040518061010001604052806000815260200160001515815260200160608152602001600081526020016000815260200160001515815260200160008152602001600081525090565b905290565b80356001600160401b03811681146123b457600080fd5b919050565b6000602082840312156123cb57600080fd5b610abb8261239d565b805182526020808201511515818401526040808301516101009185018290528051918501829052600092019082906101208601905b8083101561242c5783518252602082019150602084019350600183019250612409565b50606085015160608701526080850151608087015260a0850151925061245660a087018415159052565b60c085015160c087015260e085015160e087015280935050505092915050565b60a08152600061248960a08301856123d4565b9050610abb6020830184805182526020810151602083015260408101516040830152606081015160608301525050565b6000602082840312156124cb57600080fd5b81356001600160e01b031981168114610abb57600080fd5b6000602082840312156124f557600080fd5b5035919050565b6000806040838503121561250f57600080fd5b8235915061251f6020840161239d565b90509250929050565b6020815261255b602082018351805182526020810151602083015260408101516040830152606081015160608301525050565b6000602083015160a08084015261086960c08401826123d4565b602081526000610abb60208301846123d4565b6000806040838503121561259b57600080fd5b50508035926020909101359150565b60008083601f8401126125bc57600080fd5b5081356001600160401b038111156125d357600080fd5b6020830191508360208260051b85010111156125ee57600080fd5b9250929050565b80356001600160a01b03811681146123b457600080fd5b6000806000806000806000806000808a8c0361012081121561262d57600080fd5b8b359a5060208c01356001600160401b0381111561264a57600080fd5b6126568e828f016125aa565b909b5099505060408c01356001600160401b0381111561267557600080fd5b6126818e828f016125aa565b90995097505060608c0135955060808c013594506126a160a08d016125f5565b9350604060bf19820112156126b557600080fd5b5060c08b0191506126c96101008c016125f5565b90509295989b9194979a5092959850565b80356001600160f01b0319811681146123b457600080fd5b6000806040838503121561270557600080fd5b61270e836125f5565b915061251f602084016126da565b634e487b7160e01b600052604160045260246000fd5b604080519081016001600160401b03811182821017156127545761275461271c565b60405290565b60405161010081016001600160401b03811182821017156127545761275461271c565b604051601f8201601f191681016001600160401b03811182821017156127a5576127a561271c565b604052919050565b600082601f8301126127be57600080fd5b8135602083016000806001600160401b038411156127de576127de61271c565b50601f8301601f19166020016127f38161277d565b91505082815285838301111561280857600080fd5b82826020830137600092810160200192909252509392505050565b6000806040838503121561283657600080fd5b82356001600160401b0381111561284c57600080fd5b83016040818603121561285e57600080fd5b612866612732565b81356001600160401b0381111561287c57600080fd5b612888878285016127ad565b82525060208201356001600160401b038111156128a457600080fd5b6128b0878285016127ad565b602083015250809350505060208301356001600160401b038111156128d457600080fd5b6128e0858286016127ad565b9150509250929050565b600080602083850312156128fd57600080fd5b82356001600160401b0381111561291357600080fd5b61291f858286016125aa565b90969095509350505050565b60008060006060848603121561294057600080fd5b83359250602084013591506129576040850161239d565b90509250925092565b60006020828403121561297257600080fd5b81356001600160401b0381111561298857600080fd5b610869848285016127ad565b600080604083850312156129a757600080fd5b6129b08361239d565b946020939093013593505050565b6000602082840312156129d057600080fd5b610abb826125f5565b600080600080604085870312156129ef57600080fd5b84356001600160401b03811115612a0557600080fd5b612a11878288016125aa565b90955093505060208501356001600160401b03811115612a3057600080fd5b612a3c878288016125aa565b95989497509550505050565b60005b83811015612a63578181015183820152602001612a4b565b50506000910152565b6020815260008251806020840152612a8b816040850160208701612a48565b601f01601f19169190910160400192915050565b805180151581146123b457600080fd5b600082601f830112612ac057600080fd5b81516001600160401b03811115612ad957612ad961271c565b8060051b612ae96020820161277d565b91825260208185018101929081019086841115612b0557600080fd5b6020860192505b83831015612b27578251825260209283019290910190612b0c565b9695505050505050565b60006101008284031215612b4457600080fd5b612b4c61275a565b825181529050612b5e60208301612a9f565b602082015260408201516001600160401b03811115612b7c57600080fd5b612b8884828501612aaf565b6040830152506060828101519082015260808083015190820152612bae60a08301612a9f565b60a082015260c0828101519082015260e09182015191810191909152919050565b60008082840360a0811215612be357600080fd5b83516001600160401b03811115612bf957600080fd5b612c0586828701612b31565b9350506080601f1982011215612c1a57600080fd5b50604051608081016001600160401b0381118282101715612c3d57612c3d61271c565b60409081526020858101518352858201519083015260608086015191830191909152608090940151938101939093525092909150565b600060208284031215612c8557600080fd5b5051919050565b600060208284031215612c9e57600080fd5b81516001600160401b03811115612cb457600080fd5b61086984828501612b31565b600060208284031215612cd257600080fd5b610abb826126da565b60008251612ced818460208701612a48565b9190910192915050565b600082601f830112612d0857600080fd5b612d12604061277d565b806040840185811115612d2457600080fd5b845b81811015612d3e578051845260209384019301612d26565b509095945050505050565b6000806000806101208587031215612d6057600080fd5b84516001600160401b03811115612d7657600080fd5b612d8287828801612aaf565b945050612d928660208701612cf7565b925085607f860112612da357600080fd5b6040612dae8161277d565b8060e0880189811115612dc057600080fd5b606089015b81811015612de657612dd78b82612cf7565b84526020909301928401612dc5565b50819550612df48a82612cf7565b94505050505092959194509250565b634e487b7160e01b600052603260045260246000fd5b8060005b6002811015611a23578151845260209384019390910190600101612e1d565b6102808101612e4b8287612e19565b604082018560005b6002811015612e7d57612e67838351612e19565b6040929092019160209190910190600101612e53565b505050612e8d60c0830185612e19565b61010082018360005b600c811015612eb5578151835260209283019290910190600101612e96565b50505095945050505050565b600060208284031215612ed357600080fd5b610abb82612a9f565b60006060828403128015612eef57600080fd5b50604051600090606081016001600160401b0381118282101715612f1557612f1561271c565b604090815284518252602080860151908301529384015193810193909352509092915050565b6000808335601e19843603018112612f5257600080fd5b8301803591506001600160401b03821115612f6c57600080fd5b6020019150368190038213156125ee57600080fd5b8183823760009101908152919050565b6040815282604082015282846060830137600060608483018101919091526001600160a01b03929092166020820152601f909201601f191690910101919050565b808201808211156107d257634e487b7160e01b600052601160045260246000fdfea2646970667358221220fbf74e60ab3ad174e5e6945300b9f544df78fee04e622362dbfee1e17680168f64736f6c634300081b0033",
  "linkReferences": {
    "@iden3/contracts/lib/IdentityLib.sol": {
      "IdentityLib": [
        {
          "length": 20,
          "start": 1929
        },
        {
          "length": 20,
          "start": 2070
        },
        {
          "length": 20,
          "start": 2651
        },
        {
          "length": 20,
          "start": 2865
        },
        {
          "length": 20,
          "start": 3127
        },
        {
          "length": 20,
          "start": 3762
        },
        {
          "length": 20,
          "start": 3871
        },
        {
          "length": 20,
          "start": 4821
        },
        {
          "length": 20,
          "start": 5305
        },
        {
          "length": 20,
          "start": 5500
        },
        {
          "length": 20,
          "start": 5939
        },
        {
          "length": 20,
          "start": 6018
        },
        {
          "length": 20,
          "start": 6143
        },
        {
          "length": 20,
          "start": 6283
        },
        {
          "length": 20,
          "start": 6369
        },
        {
          "length": 20,
          "start": 6530
        },
        {
          "length": 20,
          "start": 7082
        },
        {
          "length": 20,
          "start": 7190
        },
        {
          "length": 20,
          "start": 8840
        },
        {
          "length": 20,
          "start": 8948
        }
      ]
    }
  },
  "deployedLinkReferences": {
    "@iden3/contracts/lib/IdentityLib.sol": {
      "IdentityLib": [
        {
          "length": 20,
          "start": 1712
        },
        {
          "length": 20,
          "start": 1853
        },
        {
          "length": 20,
          "start": 2434
        },
        {
          "length": 20,
          "start": 2648
        },
        {
          "length": 20,
          "start": 2910
        },
        {
          "length": 20,
          "start": 3545
        },
        {
          "length": 20,
          "start": 3654
        },
        {
          "length": 20,
          "start": 4604
        },
        {
          "length": 20,
          "start": 5088
        },
        {
          "length": 20,
          "start": 5283
        },
        {
          "length": 20,
          "start": 5722
        },
        {
          "length": 20,
          "start": 5801
        },
        {
          "length": 20,
          "start": 5926
        },
        {
          "length": 20,
          "start": 6066
        },
        {
          "length": 20,
          "start": 6152
        },
        {
          "length": 20,
          "start": 6313
        },
        {
          "length": 20,
          "start": 6865
        },
        {
          "length": 20,
          "start": 6973
        },
        {
          "length": 20,
          "start": 8623
        },
        {
          "length": 20,
          "start": 8731
        }
      ]
    }
  }
}