{
  "_format": "hh-sol-artifact-1",
  "contractName": "CertificatesLib",
  "sourceName": "contracts/utils/CertificatesLib.sol",
  "abi": [
    {
      "inputs": [],
      "name": "InvalidSignatureAlgorithm",
      "type": "error"
    },
    {
      "inputs": [
        {
          "internalType": "bytes",
          "name": "cert",
          "type": "bytes"
        }
      ],
      "name": "parseCertificate",
      "outputs": [
        {
          "components": [
            {
              "internalType": "uint160",
              "name": "serialNumber",
              "type": "uint160"
            },
            {
              "internalType": "uint40",
              "name": "validNotBefore",
              "type": "uint40"
            },
            {
              "internalType": "uint40",
              "name": "validNotAfter",
              "type": "uint40"
            },
            {
              "internalType": "bytes",
              "name": "publicKey",
              "type": "bytes"
            },
            {
              "internalType": "bytes",
              "name": "signature",
              "type": "bytes"
            },
            {
              "internalType": "bytes",
              "name": "tbsCertificate",
              "type": "bytes"
            }
          ],
          "internalType": "struct CertificatesLib.Certificate",
          "name": "",
          "type": "tuple"
        }
      ],
      "stateMutability": "pure",
      "type": "function"
    },
    {
      "inputs": [
        {
          "internalType": "bytes",
          "name": "cert",
          "type": "bytes"
        }
      ],
      "name": "parseCertificateMinimal",
      "outputs": [
        {
          "components": [
            {
              "internalType": "uint160",
              "name": "serialNumber",
              "type": "uint160"
            },
            {
              "internalType": "uint40",
              "name": "validNotBefore",
              "type": "uint40"
            },
            {
              "internalType": "uint40",
              "name": "validNotAfter",
              "type": "uint40"
            },
            {
              "internalType": "bytes",
              "name": "publicKey",
              "type": "bytes"
            },
            {
              "internalType": "bytes",
              "name": "signature",
              "type": "bytes"
            },
            {
              "internalType": "bytes",
              "name": "tbsCertificate",
              "type": "bytes"
            }
          ],
          "internalType": "struct CertificatesLib.Certificate",
          "name": "",
          "type": "tuple"
        }
      ],
      "stateMutability": "pure",
      "type": "function"
    },
    {
      "inputs": [
        {
          "internalType": "bytes",
          "name": "data",
          "type": "bytes"
        },
        {
          "internalType": "bytes",
          "name": "signature",
          "type": "bytes"
        },
        {
          "internalType": "bytes",
          "name": "publicKey",
          "type": "bytes"
        }
      ],
      "name": "verifyP384Signature",
      "outputs": [
        {
          "internalType": "bool",
          "name": "",
          "type": "bool"
        }
      ],
      "stateMutability": "view",
      "type": "function"
    }
  ],
  "bytecode": "0x613878610039600b82828239805160001a607314602c57634e487b7160e01b600052600060045260246000fd5b30600052607381538281f3fe730000000000000000000000000000000000000000301460806040526004361061004b5760003560e01c80632864ba7d14610050578063e3a414ab14610078578063ffe45ab614610098575b600080fd5b61006361005e36600461312a565b6100ab565b60405190151581526020015b60405180910390f35b61008b6100863660046131e3565b610268565b60405161006f91906132e9565b61008b6100a63660046131e3565b610388565b6000806040518060e001604052806040518060600160405280603081526020016137b36030913981526020016040518060600160405280603081526020016137236030913981526020016040518060600160405280603081526020016137836030913981526020016040518060600160405280603081526020016137536030913981526020016040518060600160405280603081526020016138136030913981526020016040518060600160405280603081526020016137e36030913981526020016040518060600160405280603081526020016137e360309139815250905061025a6101cd89898080601f01602080910402602001604051908101604052809392919081815260200183838082843760009201919091525061072092505050565b6040516020016101dd919061337d565b60408051601f198184030181526020601f8a018190048102840181019092528883529190899089908190840183828082843760009201919091525050604080516020601f8b0181900481028201810190925289815292508991508890819084018382808284376000920191909152508795949392505061082b9050565b9150505b9695505050505050565b610270613005565b610278613005565b60008061028485610a98565b91506102908583610aab565b915061029c8583610aab565b9050846001600160501b038216815181106102b9576102b9613399565b01602001516001600160f81b031916600560fd1b036102df576102dc8582610b43565b90505b6102e98582610b61565b6001600160a01b031683526102fe8583610aab565b915061030a8583610b43565b91506103168583610b43565b91506103228583610b43565b915061032e8583610b43565b915061033a8583610aab565b905061034e6103498683610ca6565b610ce5565b64ffffffffff1660208401526103648582610b43565b90506103736103498683610ca6565b64ffffffffff16604084015250909392505050565b610390613005565b610398613005565b60008060006103a686610a98565b92506103b28684610aab565b92506103be8684611122565b60a08501526103cd8684610b43565b91506103d98683610aab565b90506103e58682610ca6565b805190602001207f85ef26a14f187035b35fb2fcf11227afdac8a48fcf2ba3268f4281ae610e7caa1461042b576040516314a6364b60e31b815260040160405180910390fd5b6104358683610b43565b915060006104438784611137565b905061044e81610a98565b915061045a8183610aab565b91506104668183610ca6565b60808601819052516030101561049e57610498603086608001515161048b91906133c5565b6080870151906030611243565b60808601525b6104a88183610b43565b915060006104b68284610ca6565b90506030815111156104df576104dc603082516104d391906133c5565b82906030611243565b90505b8560800151816040516020016104f69291906133d8565b60408051601f1981840301815291905260808701526105158886610aab565b9350876001600160501b0385168151811061053257610532613399565b01602001516001600160f81b031916600560fd1b03610558576105558885610b43565b93505b6105628885610b61565b6001600160a01b031686526105778885610b43565b93506105838885610aab565b935061058f8886610aab565b945061059b8886610b43565b94506105a78886610b43565b94506105b38886610b43565b94506105bf8886610b43565b94506105cb8886610aab565b93506105da6103498986610ca6565b64ffffffffff1660208701526105f08885610b43565b93506105ff6103498986610ca6565b64ffffffffff1660408701526106158886610b43565b94506106218886610b43565b945061062d8886610aab565b93506106398885610b43565b935060006106478986611137565b90506001815161065791906133c5565b6001600160401b0381111561066e5761066e6131cd565b6040519080825280601f01601f191660200182016040528015610698576020820181803683370190505b50606088015260005b600182516106af91906133c5565b81101561071257816106c2826001613407565b815181106106d2576106d2613399565b602001015160f81c60f81b886060015182815181106106f3576106f3613399565b60200101906001600160f81b031916908160001a9053506001016106a1565b509598975050505050505050565b604080516101008101825267cbbb9d5dc1059ed8815267629a292a367cd5076020820152679159015a3070dd179181019190915267152fecd8f70e59396060828101919091526767332667ffc00b316080830152678eb44a876858151160a083015267db0c2e0d64f98fa760c08301526747b5481dbefa4fa460e0830152906107a983826112c4565b80516020808301516040808501516060860151608087015160a088015184516001600160c01b031960c0998a1b81169882019890985295881b8716602887015292871b8616603086015290861b85166038850152851b84169183019190915290921b166048820152605001604051602081830303815290604052915050919050565b60006108586040518060800160405280600081526020016000815260200160008152602001600081525090565b61086184611b00565b6020830152815261087183611b00565b6060830152604080830191909152805160e08101909152865160009190819061089990611b99565b81526020016108ab8960200151611b99565b81526020016108bd8960400151611b99565b81526020016108cf8960600151611b99565b81526020016108e18960800151611b99565b81526020016108f38960a00151611b99565b81526020016109058960c00151611b99565b905290506000610913611bdc565b83516020810151905191925015901516806109405750600061093d84600001518460a00151611bf8565b12155b8061095e575061095e83602001516000602082015191511591141690565b8061097a5750600061097884602001518460c00151611bf8565b135b1561098b5760009350505050610a90565b6109ad8183608001518460000151856020015187604001518860600151611c65565b6109bd5760009350505050610a90565b60006109db826109cc8a611b99565b86602001518660a00151611d4c565b905060006109f783866000015187602001518760a00151611d4c565b90506000610a36848660800151610a0e6002611d6d565b610a186003611d6d565b89600001518b604001518c606001518c604001518d60600151611d8f565b9050610a5f848660800151610a4b6002611d6d565b610a556003611d6d565b8951868989611f48565b508093505050610a7483838660a001516120fd565b8451602080820151908401519151845114911416955050505050505b949350505050565b6000610aa582600061210e565b92915050565b6000826001600160501b03831681518110610ac857610ac8613399565b0160200151600160fd1b90811614610b205760405162461bcd60e51b81526020600482015260166024820152754e6f74206120636f6e7374727563746564207479706560501b60448201526064015b60405180910390fd5b610b3c83605084901c6001600160501b031661210e565b61210e565b9392505050565b6000610b3c83610b376001600160501b0360a086901c166001613407565b6000826001600160501b03831681518110610b7e57610b7e613399565b6020910101516001600160f81b031916600160f91b14610bd35760405162461bcd60e51b815260206004820152601060248201526f2737ba103a3cb8329024a72a22a3a2a960811b6044820152606401610b17565b82605083901c6001600160501b031681518110610bf257610bf2613399565b0160200151600160ff1b1615610c395760405162461bcd60e51b815260206004820152600c60248201526b4e6f7420706f73697469766560a01b6044820152606401610b17565b6000605083901c6001600160501b031660a084901c6001600160501b0316610c62906001613407565b610c6c91906133c5565b9050610c798160206133c5565b610c8490600861341a565b610c9c856001600160501b03605087901c16846122be565b901c949350505050565b6060610b3c6001600160501b03605084901c16805b610cd36001600160501b0360a087901c166001613407565b610cdd91906133c5565b859190611243565b6000806000806000806000808851600d03610d4b57600560308a600081518110610d1157610d11613399565b0160200151610d23919060f81c613431565b60ff161015610d3f57610d386107d08861344a565b9650610dd1565b610d3861076c8861344a565b603089600181518110610d6057610d60613399565b0160200151610d72919060f81c613431565b610d7d906064613464565b60ff1660308a600081518110610d9557610d95613399565b0160200151610da7919060f81c613431565b610db69060ff166103e8613487565b610dc0919061344a565b610dca908861344a565b9650600290505b603089610ddf8360016134a4565b60ff1681518110610df257610df2613399565b016020015160f81c60308b610e088560006134a4565b60ff1681518110610e1b57610e1b613399565b0160200151610e2d919060f81c613431565b610e3890600a613464565b610e4291906134a4565b610e4c9190613431565b610e599060ff168861344a565b9650603089610e698360036134a4565b60ff1681518110610e7c57610e7c613399565b016020015160f81c60308b610e928560026134a4565b60ff1681518110610ea557610ea5613399565b0160200151610eb7919060f81c613431565b610ec290600a613464565b610ecc91906134a4565b610ed69190613431565b9550603089610ee68360056134a4565b60ff1681518110610ef957610ef9613399565b016020015160f81c60308b610f0f8560046134a4565b60ff1681518110610f2257610f22613399565b0160200151610f34919060f81c613431565b610f3f90600a613464565b610f4991906134a4565b610f539190613431565b610f5d90866134a4565b9450603089610f6d8360076134a4565b60ff1681518110610f8057610f80613399565b016020015160f81c60308b610f968560066134a4565b60ff1681518110610fa957610fa9613399565b0160200151610fbb919060f81c613431565b610fc690600a613464565b610fd091906134a4565b610fda9190613431565b610fe490856134a4565b9350603089610ff48360096134a4565b60ff168151811061100757611007613399565b016020015160f81c60308b61101d8560086134a4565b60ff168151811061103057611030613399565b0160200151611042919060f81c613431565b61104d90600a613464565b61105791906134a4565b6110619190613431565b61106b90846134a4565b925060308961107b83600b6134a4565b60ff168151811061108e5761108e613399565b016020015160f81c60308b6110a485600a6134a4565b60ff16815181106110b7576110b7613399565b01602001516110c9919060f81c613431565b6110d490600a613464565b6110de91906134a4565b6110e89190613431565b6110f290836134a4565b91506111158761ffff168760ff168760ff168760ff168760ff168760ff166122ff565b9998505050505050505050565b6060610b3c6001600160501b03831680610cbb565b6060826001600160501b0383168151811061115457611154613399565b6020910101516001600160f81b031916600360f81b146111ac5760405162461bcd60e51b81526020600482015260136024820152724e6f7420747970652042495420535452494e4760681b6044820152606401610b17565b82605083901c6001600160501b0316815181106111cb576111cb613399565b01602001516001600160f81b031916156111e457600080fd5b6000605083901c6001600160501b031660a084901c6001600160501b031661120d906001613407565b61121791906133c5565b9050610a906112346001600160501b03605086901c166001613407565b61123f6001846133c5565b8691905b82516060906112528385613407565b111561125d57600080fd5b6000826001600160401b03811115611277576112776131cd565b6040519080825280601f01601f1916602001820160405280156112a1576020820181803683370190505b509050602080820190868601016112b982828761235b565b509095945050505050565b60408051610a008101825267428a2f98d728ae228152677137449123ef65cd602082015267b5c0fbcfec4d3b2f9181019190915267e9b5dba58189dbbc6060820152673956c25bf348b53860808201526759f111f1b605d01960a082015267923f82a4af194f9b60c082015267ab1c5ed5da6d811860e082015267d807aa98a30302426101008201526712835b0145706fbe61012082015267243185be4ee4b28c61014082015267550c7dc3d5ffb4e26101608201526772be5d74f27b896f6101808201526780deb1fe3b1696b16101a0820152679bdc06a725c712356101c082015267c19bf174cf6926946101e082015267e49b69c19ef14ad261020082015267efbe4786384f25e3610220820152670fc19dc68b8cd5b561024082015267240ca1cc77ac9c65610260820152672de92c6f592b0275610280820152674a7484aa6ea6e4836102a0820152675cb0a9dcbd41fbd46102c08201526776f988da831153b56102e082015267983e5152ee66dfab61030082015267a831c66d2db4321061032082015267b00327c898fb213f61034082015267bf597fc7beef0ee461036082015267c6e00bf33da88fc261038082015267d5a79147930aa7256103a08201526706ca6351e003826f6103c082015267142929670a0e6e706103e08201526727b70a8546d22ffc610400820152672e1b21385c26c926610420820152674d2c6dfc5ac42aed6104408201526753380d139d95b3df61046082015267650a73548baf63de61048082015267766a0abb3c77b2a86104a08201526781c2c92e47edaee66104c08201526792722c851482353b6104e082015267a2bfe8a14cf1036461050082015267a81a664bbc42300161052082015267c24b8b70d0f8979161054082015267c76c51a30654be3061056082015267d192e819d6ef521861058082015267d69906245565a9106105a082015267f40e35855771202a6105c082015267106aa07032bbd1b86105e08201526719a4c116b8d2d0c8610600820152671e376c085141ab53610620820152672748774cdf8eeb996106408201526734b0bcb5e19b48a861066082015267391c0cb3c5c95a63610680820152674ed8aa4ae3418acb6106a0820152675b9cca4f7763e3736106c082015267682e6ff3d6b2b8a36106e082015267748f82ee5defb2fc6107008201526778a5636f43172f606107208201526784c87814a1f0ab72610740820152678cc702081a6439ec6107608201526790befffa23631e2861078082015267a4506cebde82bde96107a082015267bef9a3f7b2c679156107c082015267c67178f2e372532b6107e082015267ca273eceea26619c61080082015267d186b8c721c0c20761082082015267eada7dd6cde0eb1e61084082015267f57d4f7fee6ed1786108608201526706f067aa72176fba610880820152670a637dc5a2c898a66108a082015267113f9804bef90dae6108c0820152671b710b35131c471b6108e08201526728db77f523047d846109008201526732caab7b40c72493610920820152673c9ebe0a15c9bebc61094082015267431d67c49c100d4c610960820152674cc5d4becb3e42b661098082015267597f299cfc657e2a6109a0820152675fcb6fab3ad6faec6109c0820152676c44198c4a4758176109e08201526000611781846123cc565b90506080815161179191906134d3565b156117ce5760405162461bcd60e51b815260206004820152600d60248201526c2820a22224a723afa2a92927a960991b6044820152606401610b17565b6117d6613039565b6117de613058565b6117e6613077565b6000608088516117f691906134e7565b61180190608061341a565b905060005b85518201811015611af55781811015611829576118248984836124b4565b611836565b61183686848484036124b4565b60005b60108110156118865783816010811061185457611854613399565b602002015186826050811061186b5761186b613399565b6001600160401b039092166020929092020152600101611839565b5060105b605081101561193b578560108203605081106118a8576118a8613399565b60200201516118cf87600f8403605081106118c5576118c5613399565b6020020151612514565b8760078403605081106118e4576118e4613399565b602002015161190b89600286036050811061190157611901613399565b6020020151612542565b01010186826050811061192057611920613399565b6001600160401b03909216602092909202015260010161188a565b5060005b600881101561198c5788816008811061195a5761195a613399565b602002015185826008811061197157611971613399565b6001600160401b03909216602092909202015260010161193f565b5060005b6050811015611a995760008682605081106119ad576119ad613399565b60200201518983605081106119c4576119c4613399565b6020020151608088015160a089015160c08a015182191691161860808901516119ec90612568565b89600760200201510101010190506000611a25878260200201518860016020020151896002602002015180821690831691909216181890565b8751611a309061258b565b60c0890180516001600160401b0390811660e08c015260a08b018051821690925260808b018051821690925260608b0180518701821690925260408b018051821690925260208b01805182169092528a5181169091529101909201909116865250600101611990565b5060005b6008811015611aec57848160088110611ab857611ab8613399565b6020020151898260088110611acf57611acf613399565b602002018051919091016001600160401b03169052600101611a9d565b50608001611806565b505050505050505050565b6000808251606014611b1457611b146134fb565b604080516030808252606082019092526000916020820181803683375050604080516030808252606082019092529293506000929150602082018180368337019050509050611b6c60208601602084015b60306125ae565b611b7c6050860160208301611b65565b611b8582611b99565b611b8e82611b99565b935093505050915091565b60006041825110611bac57611bac6134fb565b6040805180820190915290506000815260006020820152815180816040038301826020860160045afa5050919050565b6000611bf061018060408051918201905290565b604001919050565b815181516000919080821115611c1357600192505050610aa5565b80821015611c275760001992505050610aa5565b50506020838101519083015180821115611c4657600192505050610aa5565b80821015611c5a5760001992505050610aa5565b506000949350505050565b602082015182516000911590151680611c8c57506020868101519084015187518551149114165b80611c9e575060208201518251159015165b80611cb757506020868101519083015187518451149114165b15611cc45750600061025e565b6000611cd3888460028a6125bc565b90506000611ce4898660038b6125bc565b6020880151885191925015901516611d1057611d0d8982611d078c898c8e6125dd565b8b6125fe565b90505b6020860151865115901516611d2e57611d2b8982888b6125fe565b90505b60208181015190830151915192519114911416979650505050505050565b6000611d5e6040808051918201905290565b9050610a90858585858561261f565b6000611d7f6040808051918201905290565b6000815260208101929092525090565b611d97613096565b611da085612679565b611da985612679565b6020808401519081019190915252611dc083612679565b611dc983612679565b61010083015160208101919091525260005b6008811015611f3a5760005b6008811015611f3157600281830110611f2957600382901b81178215611e9557600019830160031b8217611e568e8e8e8e8e8a8760408110611e2b57611e2b613399565b6020020151518b8860408110611e4357611e43613399565b6020020151600160200201518e8e6126a0565b868460408110611e6857611e68613399565b6020020151878560408110611e7f57611e7f613399565b6020020151600160200201919091525250611f27565b611eed8d8d8d8d8d896001890360038b901b1760408110611eb857611eb8613399565b6020020151518a60038b901b6000198b011760408110611eda57611eda613399565b6020020151600160200201518f8f6126a0565b858360408110611eff57611eff613399565b6020020151868460408110611f1657611f16613399565b602002015160016020020191909152525b505b600101611de7565b50600101611ddb565b509998505050505050505050565b60008080808060035b61018281116120ec576101808111611ffc57611f718882610180036127c7565b9250611f818782610180036127c7565b9150600283901c158015611f975750600282901c155b15611fb857611fab8e8e8e8e8e8b8b6127f9565b9096509450600101611f51565b611fc78e8e8e8e8e8b8b6127f9565b9096509450611fdb8e8e8e8e8e8b8b6127f9565b9096509450611fef8e8e8e8e8e8b8b6127f9565b909650945060030161208d565b8061018103612055576120108860006127c7565b60031692506120208760006127c7565b60031691506120348e8e8e8e8e8b8b6127f9565b90965094506120488e8e8e8e8e8b8b6127f9565b909650945060020161208d565b6120608860006127c7565b60011692506120708760006127c7565b60011691506120848e8e8e8e8e8b8b6127f9565b90965094506001015b600383901b8217935083156120e7576120e18e8e8e8e8e8e8a604081106120b6576120b6613399565b6020020151518f8b604081106120ce576120ce613399565b6020020151600160200201518d8d6126a0565b90965094505b611f51565b505050509850989650505050505050565b612109838383856128b2565b505050565b60008080808561211f866001613407565b8151811061212f5761212f613399565b0160200151600160ff1b1660000361219a578561214d866001613407565b8151811061215d5761215d613399565b016020015160f81c9250612172856002613407565b91506001612189846001600160501b038516613407565b61219391906133c5565b905061228e565b6000866121a8876001613407565b815181106121b8576121b8613399565b60209101015160f81c607f16905060018190036121ee576121e46121dd876002613407565b88906128fd565b60ff169350612250565b8060ff166002036122195761220e612207876002613407565b8890612921565b61ffff169350612250565b612224816020613431565b61222f906008613464565b60ff1661224b612240886002613407565b899060ff85166122be565b901c93505b60ff811661225f876002613407565b6122699190613407565b92506001612280856001600160501b038616613407565b61228a91906133c5565b9150505b69ffffffffffffffffffff60a01b60a082901b1669ffffffffffffffffffff60501b605084901b1686171761025e565b600060208211156122ce57600080fd5b83516122da8385613407565b11156122e557600080fd5b506020919092018101519190036101000a60001901191690565b60008161230d603c8561341a565b612319610e108761341a565b620151806123288b8b8b612949565b612332919061341a565b61233c9190613407565b6123469190613407565b6123509190613407565b979650505050505050565b602081106123935781518352612372602084613407565b925061237f602083613407565b915061238c6020826133c5565b905061235b565b600060016123a28360206133c5565b6123ae906101006135f8565b6123b891906133c5565b925184518416931916929092179092525050565b805160609060006123de82600861341a565b60c01b905060006123f06080846134d3565b90506000607082101561240f576124088260776133c5565b905061241d565b61241a8260f76133c5565b90505b6000816001600160401b03811115612437576124376131cd565b6040519080825280601f01601f191660200182016040528015612461576020820181803683370190505b509050600061247a8861247486896133c5565b88612a86565b604051909150612498908290600160ff1b9085908990602001613604565b6040516020818303038152906040529650505050505050919050565b60005b601081101561250e576124de846124cf83600861341a565b6124d99085613407565b612b94565b60c01c8382601081106124f3576124f3613399565b6001600160401b0390921660209290920201526001016124b7565b50505050565b60006007826001600160401b0316901c61252f836008612c1e565b61253a846001612c1e565b181892915050565b60006006826001600160401b0316901c61255d83603d612c1e565b61253a846013612c1e565b6000612575826029612c1e565b612580836012612c1e565b61253a84600e612c1e565b6000612598826027612c1e565b6125a3836022612c1e565b61253a84601c612c1e565b8082828560045afa50505050565b60006125ce6040808051918201905290565b9050610a908585858585612c58565b60006125ef6040808051918201905290565b9050610a908585858585612ca3565b60006126106040808051918201905290565b9050610a908585858585612ceb565b603f19850161263086858584612d6b565b61263b868683612de7565b60808652602080870152604080870152600160e0870152825161010087015260208301516101208701526040826101408860055afa50505050505050565b600061268b6040808051918201905290565b90508151815260208201516020820152919050565b6000808515806126ae575083155b156126fb57851580156126bf575083155b6127b95785156126e0576126d286612679565b6126db86612679565b6126f2565b6126e984612679565b6126f284612679565b915091506127b9565b6020848101519087015185518851149114161561273d5760208381015190860151845187511491141615612738576126f28b8b8b8b8b8b8b6127f9565b6127b9565b600061274b8c87868e612e91565b9050600061275b8d89888f612e91565b90506127698d83838f612eb2565b6127768d8360028f6125bc565b93506127848d858a8f612ebf565b6127908d85888f612ebf565b61279c8d89868f612e91565b92506127aa8d84848f612ecc565b6127b68d84898f612ebf565b50505b995099975050505050505050565b60008060fd83116127e35750506020820151811c600716610aa5565b5050601091909101516007607f199092011c1690565b60008083156128a65760208301518351159015166128a65760006128208a8660028c6125bc565b905061282e8a82898c612ecc565b61283a8a82888c612ed9565b60006128488b868b8d6125dd565b90506128568b83838d612eb2565b6128638b8360028d6125bc565b93506128718b85888d612ebf565b61287d8b85888d612ebf565b6128898b87868d612e91565b92506128978b84848d612ecc565b6128a38b84878d612ebf565b50505b97509795505050505050565b604084526020808501526040808501528251606085015260208301516080850152600160a0850152815160c0850152602082015160e08501526040816101008660055afa5050505050565b600082828151811061291157612911613399565b016020015160f81c905092915050565b8151600090612931836002613407565b111561293c57600080fd5b50016002015161ffff1690565b60006107b284101561295a57600080fd5b838383600062253d8c60046064600c612974600e8861365d565b61297e919061367d565b61298a886113246136ab565b61299491906136ab565b61299e919061367d565b6129a99060036136d3565b6129b3919061367d565b600c806129c1600e8861365d565b6129cb919061367d565b6129d690600c6136d3565b6129e160028861365d565b6129eb919061365d565b6129f79061016f6136d3565b612a01919061367d565b6004600c612a10600e8961365d565b612a1a919061367d565b612a26896112c06136ab565b612a3091906136ab565b612a3c906105b56136d3565b612a46919061367d565b612a52617d4b8761365d565b612a5c91906136ab565b612a6691906136ab565b612a70919061365d565b612a7a919061365d565b98975050505050505050565b606081831115612ad85760405162461bcd60e51b815260206004820152601a60248201527f46524f4d5f4c4553535f5448414e5f544f5f52455155495245440000000000006044820152606401610b17565b8351821115612b295760405162461bcd60e51b815260206004820152601c60248201527f544f5f4c4553535f5448414e5f4c454e4754485f5245515549524544000000006044820152606401610b17565b612b3383836133c5565b6001600160401b03811115612b4a57612b4a6131cd565b6040519080825280601f01601f191660200182016040528015612b74576020820181803683370190505b509050610b3c602082018460208701612b8d9190613407565b8351612ee6565b6000612ba1826008613407565b83511015612bff5760405162461bcd60e51b815260206004820152602560248201527f475245415445525f4f525f455155414c5f544f5f385f4c454e4754485f524551604482015264155254915160da1b6064820152608401610b17565b612c0a602083613407565b909201516001600160c01b03191692915050565b60006001600160401b038381169083161c612c3a836040613703565b6001600160401b0316846001600160401b0316901b17905092915050565b6040855260208086015260408086015283516060860152602084015160808601528260a0860152815160c0860152602082015160e08601526040816101008760055afa505050505050565b612cae858585612de7565b60808552602080860152604080860152600160e0860152815161010086015260208201516101208601526040816101408760055afa505050505050565b6000603f19860160208681015186820151810191830182905286518851019110018082528651919250108080612d2b57506000612d288386611bf8565b12155b15612d545750602081810151848201518103918401829052845192519111919003038152612d64565b5080518252602090810151908201525b5050505050565b6000603f1985019081526002601f19860190815260208481018051600119810193849052865190841190038085526040808a52838a01819052808a01819052885160608b01529288015160808a015260a089015260c0880192909252845160e08801529051610100870152826101208760055afa505050505050565b8151602083015182516020840151600019818409818402808210818303036000198488099387029392508301838310848403038482108101818110600019888a0989890297509550928601928686108787030392508684109190910182019082821001600019888b0960c08e019590955260a08d01939093529790950296870160808b01819052871101868210969091039590950394909401606090970196909652505050505050565b6000612ea36040808051918201905290565b9050610a908585858585612f87565b61250e848484848761261f565b61250e8484848487612f87565b61250e8484848487612ca3565b61250e8484848487612ceb565b6020811015612f0d57905182516020929092036101000a6000190180199091169116179052565b828203612f1957505050565b82821115612f535760208103905080820181840181515b82851015612f4b578451865260209586019590940193612f30565b905250505050565b60208103905080820181840183515b81861215612f7e5782518252601f199283019290910190612f62565b85525050505050565b6000612f938585611bf8565b12612fbc5760208085015181850151810391830182905284518651929091109103038152612d64565b602084810151838201518101601f19880181905293519551908410950194909401603f199590950194855282840151820393810184905291519351921192909103919091039052565b6040805160c0810182526000808252602082018190529181019190915260608082018190526080820181905260a082015290565b60405180610a0001604052806050906020820280368337509192915050565b6040518061010001604052806008906020820280368337509192915050565b6040518061020001604052806010906020820280368337509192915050565b6040518061080001604052806040905b6130ae6130c4565b8152602001906001900390816130a65790505090565b60405180604001604052806002906020820280368337509192915050565b60008083601f8401126130f457600080fd5b5081356001600160401b0381111561310b57600080fd5b60208301915083602082850101111561312357600080fd5b9250929050565b6000806000806000806060878903121561314357600080fd5b86356001600160401b0381111561315957600080fd5b61316589828a016130e2565b90975095505060208701356001600160401b0381111561318457600080fd5b61319089828a016130e2565b90955093505060408701356001600160401b038111156131af57600080fd5b6131bb89828a016130e2565b979a9699509497509295939492505050565b634e487b7160e01b600052604160045260246000fd5b6000602082840312156131f557600080fd5b81356001600160401b0381111561320b57600080fd5b8201601f8101841361321c57600080fd5b80356001600160401b03811115613235576132356131cd565b604051601f8201601f19908116603f011681016001600160401b0381118282101715613263576132636131cd565b60405281815282820160200186101561327b57600080fd5b81602084016020830137600091810160200191909152949350505050565b60005b838110156132b457818101518382015260200161329c565b50506000910152565b600081518084526132d5816020860160208601613299565b601f01601f19169290920160200192915050565b6020815260018060a01b03825116602082015264ffffffffff602083015116604082015264ffffffffff60408301511660608201526000606083015160c0608084015261333960e08401826132bd565b90506080840151601f198483030160a085015261335682826132bd565b91505060a0840151601f198483030160c085015261337482826132bd565b95945050505050565b6000825161338f818460208701613299565b9190910192915050565b634e487b7160e01b600052603260045260246000fd5b634e487b7160e01b600052601160045260246000fd5b81810381811115610aa557610aa56133af565b600083516133ea818460208801613299565b8351908301906133fe818360208801613299565b01949350505050565b80820180821115610aa557610aa56133af565b8082028115828204841417610aa557610aa56133af565b60ff8281168282160390811115610aa557610aa56133af565b61ffff8181168382160190811115610aa557610aa56133af565b60ff8181168382160290811690818114613480576134806133af565b5092915050565b61ffff8181168382160290811690818114613480576134806133af565b60ff8181168382160190811115610aa557610aa56133af565b634e487b7160e01b600052601260045260246000fd5b6000826134e2576134e26134bd565b500690565b6000826134f6576134f66134bd565b500490565b634e487b7160e01b600052600160045260246000fd5b6001815b600184111561354c57808504811115613530576135306133af565b600184161561353e57908102905b60019390931c928002613515565b935093915050565b60008261356357506001610aa5565b8161357057506000610aa5565b81600181146135865760028114613590576135ac565b6001915050610aa5565b60ff8411156135a1576135a16133af565b50506001821b610aa5565b5060208310610133831016604e8410600b84101617156135cf575081810a610aa5565b6135dc6000198484613511565b80600019048211156135f0576135f06133af565b029392505050565b6000610b3c8383613554565b60008551613616818460208a01613299565b6001600160f81b03198616908301908152845161363a816001840160208901613299565b6001600160c01b0319949094169301600181019390935250506009019392505050565b8181036000831280158383131683831282161715613480576134806133af565b60008261368c5761368c6134bd565b600160ff1b8214600019841416156136a6576136a66133af565b500590565b80820182811260008312801582168215821617156136cb576136cb6133af565b505092915050565b80820260008212600160ff1b841416156136ef576136ef6133af565b8181058314821517610aa557610aa56133af565b6001600160401b038281168282160390811115610aa557610aa56133af56feb3312fa7e23ee7e4988e056be3f82d19181d9c6efe8141120314088f5013875ac656398d8a2ed19d2a85c8edd3ec2aef3617de4a96262c6f5d9e98bf9292dc29f8f41dbd289a147ce9da3113b5f0b8c00a60b1ce1d7e819d7a431d7c90ea0e5faa87ca22be8b05378eb1c71ef320ad746e1d3b628ba79b9859f741e082542a385502f25dbf55296c3a545e3872760ab7fffffffffffffffffffffffffffffffffffffffffffffffffffffffffffffffeffffffff0000000000000000fffffffcffffffffffffffffffffffffffffffffffffffffffffffffc7634d81f4372ddf581a0db248b0a77aecec196accc52973fffffffffffffffffffffffffffffffffffffffffffffffffffffffffffffffeffffffff0000000000000000ffffffffa2646970667358221220001dc6c4c7cbd00a50086015f6492c3a8b424789c0f3cf8dce55fc4ddc9bfdc764736f6c634300081b0033",
  "linkReferences": {},
  "deployedLinkReferences": {}
}