{
  "_format": "hh-sol-artifact-1",
  "contractName": "CertificatesValidator",
  "sourceName": "contracts/validators/CertificatesValidator.sol",
  "abi": [
    {
      "inputs": [],
      "name": "CertificateExpired",
      "type": "error"
    },
    {
      "inputs": [
        {
          "internalType": "uint256",
          "name": "serialNumber",
          "type": "uint256"
        }
      ],
      "name": "CertificateNotVerifiedYet",
      "type": "error"
    },
    {
      "inputs": [],
      "name": "CertificateNotYetValid",
      "type": "error"
    },
    {
      "inputs": [
        {
          "internalType": "uint256",
          "name": "serialNumber",
          "type": "uint256"
        }
      ],
      "name": "CertificateVerificationFailed",
      "type": "error"
    },
    {
      "inputs": [],
      "name": "InvalidInitialization",
      "type": "error"
    },
    {
      "inputs": [],
      "name": "NotInitializing",
      "type": "error"
    },
    {
      "inputs": [
        {
          "internalType": "address",
          "name": "owner",
          "type": "address"
        }
      ],
      "name": "OwnableInvalidOwner",
      "type": "error"
    },
    {
      "inputs": [
        {
          "internalType": "address",
          "name": "account",
          "type": "address"
        }
      ],
      "name": "OwnableUnauthorizedAccount",
      "type": "error"
    },
    {
      "anonymous": false,
      "inputs": [
        {
          "indexed": false,
          "internalType": "uint64",
          "name": "version",
          "type": "uint64"
        }
      ],
      "name": "Initialized",
      "type": "event"
    },
    {
      "anonymous": false,
      "inputs": [
        {
          "indexed": true,
          "internalType": "address",
          "name": "previousOwner",
          "type": "address"
        },
        {
          "indexed": true,
          "internalType": "address",
          "name": "newOwner",
          "type": "address"
        }
      ],
      "name": "OwnershipTransferStarted",
      "type": "event"
    },
    {
      "anonymous": false,
      "inputs": [
        {
          "indexed": true,
          "internalType": "address",
          "name": "previousOwner",
          "type": "address"
        },
        {
          "indexed": true,
          "internalType": "address",
          "name": "newOwner",
          "type": "address"
        }
      ],
      "name": "OwnershipTransferred",
      "type": "event"
    },
    {
      "inputs": [],
      "name": "VERSION",
      "outputs": [
        {
          "internalType": "string",
          "name": "",
          "type": "string"
        }
      ],
      "stateMutability": "view",
      "type": "function"
    },
    {
      "inputs": [],
      "name": "acceptOwnership",
      "outputs": [],
      "stateMutability": "nonpayable",
      "type": "function"
    },
    {
      "inputs": [
        {
          "internalType": "bytes",
          "name": "subjectCertificate",
          "type": "bytes"
        },
        {
          "internalType": "bytes",
          "name": "issuerCertificate",
          "type": "bytes"
        }
      ],
      "name": "addCertificateVerification",
      "outputs": [],
      "stateMutability": "nonpayable",
      "type": "function"
    },
    {
      "inputs": [
        {
          "internalType": "address",
          "name": "owner",
          "type": "address"
        }
      ],
      "name": "initialize",
      "outputs": [],
      "stateMutability": "nonpayable",
      "type": "function"
    },
    {
      "inputs": [],
      "name": "owner",
      "outputs": [
        {
          "internalType": "address",
          "name": "",
          "type": "address"
        }
      ],
      "stateMutability": "view",
      "type": "function"
    },
    {
      "inputs": [],
      "name": "pendingOwner",
      "outputs": [
        {
          "internalType": "address",
          "name": "",
          "type": "address"
        }
      ],
      "stateMutability": "view",
      "type": "function"
    },
    {
      "inputs": [],
      "name": "renounceOwnership",
      "outputs": [],
      "stateMutability": "nonpayable",
      "type": "function"
    },
    {
      "inputs": [
        {
          "internalType": "address",
          "name": "newOwner",
          "type": "address"
        }
      ],
      "name": "transferOwnership",
      "outputs": [],
      "stateMutability": "nonpayable",
      "type": "function"
    },
    {
      "inputs": [
        {
          "internalType": "bytes[]",
          "name": "certificates",
          "type": "bytes[]"
        }
      ],
      "name": "validateChainOfCertificates",
      "outputs": [
        {
          "internalType": "bool",
          "name": "",
          "type": "bool"
        }
      ],
      "stateMutability": "view",
      "type": "function"
    },
    {
      "inputs": [],
      "name": "version",
      "outputs": [
        {
          "internalType": "string",
          "name": "",
          "type": "string"
        }
      ],
      "stateMutability": "pure",
      "type": "function"
    }
  ],
  "bytecode": "0x6080604052348015600f57600080fd5b50610f448061001f6000396000f3fe608060405234801561001057600080fd5b506004361061009e5760003560e01c80638f084f19116100665780638f084f191461011b578063c4d66de81461013e578063e30c397814610151578063f2fde38b14610159578063ffa1ad741461016c57600080fd5b80633d6584a6146100a357806354fd4d50146100b8578063715018a6146100eb57806379ba5097146100f35780638da5cb5b146100fb575b600080fd5b6100b66100b1366004610a99565b610190565b005b6040805180820190915260058152640312e302e360dc1b60208201525b6040516100e29190610b58565b60405180910390f35b6100b66103f4565b6100b6610408565b610103610450565b6040516001600160a01b0390911681526020016100e2565b61012e610129366004610b72565b610485565b60405190151581526020016100e2565b6100b661014c366004610bfc565b61071f565b610103610819565b6100b6610167366004610bfc565b610842565b6100d5604051806040016040528060058152602001640312e302e360dc1b81525081565b6040516001620dd2a560e11b0319815260009073__$769c5c51d4682383d6e302f1ddbb0e87c3$__9063ffe45ab6906101cf9088908890600401610c19565b600060405180830381865af41580156101ec573d6000803e3d6000fd5b505050506040513d6000823e601f3d908101601f191682016040526102149190810190610d34565b80516001600160a01b031660009081527fcb80662a476e272304626310789d2f9a6b29489a656625f60f1d91af64df6e00602052604090205490915060ff161561025e57506103ee565b6040516001620dd2a560e11b0319815260009073__$769c5c51d4682383d6e302f1ddbb0e87c3$__9063ffe45ab69061029d9087908790600401610c19565b600060405180830381865af41580156102ba573d6000803e3d6000fd5b505050506040513d6000823e601f3d908101601f191682016040526102e29190810190610d34565b9050600073__$769c5c51d4682383d6e302f1ddbb0e87c3$__632864ba7d8460a00151856080015185606001516040518463ffffffff1660e01b815260040161032d93929190610e2c565b602060405180830381865af415801561034a573d6000803e3d6000fd5b505050506040513d601f19601f8201168201806040525081019061036e9190610e6f565b905080156103be5782516001600160a01b031660009081527fcb80662a476e272304626310789d2f9a6b29489a656625f60f1d91af64df6e0060205260409020805460ff191660011790556103ea565b8251604051632c286ce160e01b81526001600160a01b0390911660048201526024015b60405180910390fd5b5050505b50505050565b6103fc6108c7565b61040660006108f9565b565b3380610412610819565b6001600160a01b0316146104445760405163118cdaa760e01b81526001600160a01b03821660048201526024016103e1565b61044d816108f9565b50565b6000807f9016d09d72d40fdae2fd8ceac6b6234c7706214fd39c1cd1e609a0528c1993005b546001600160a01b031692915050565b600080610493836001610e91565b6001600160401b038111156104aa576104aa610c48565b60405190808252806020026020018201604052801561050957816020015b6040805160c081018252600080825260208083018290529282015260608082018190526080820181905260a082015282526000199092019101816104c85790505b50905060005b838110156107125773__$769c5c51d4682383d6e302f1ddbb0e87c3$__63e3a414ab86868481811061054357610543610eb2565b90506020028101906105559190610ec8565b6040518363ffffffff1660e01b8152600401610572929190610c19565b600060405180830381865af415801561058f573d6000803e3d6000fd5b505050506040513d6000823e601f3d908101601f191682016040526105b79190810190610d34565b8282815181106105c9576105c9610eb2565b60200260200101819052506105fb7fcb80662a476e272304626310789d2f9a6b29489a656625f60f1d91af64df6e0090565b600001600083838151811061061257610612610eb2565b602090810291909101810151516001600160a01b031682528101919091526040016000205460ff166106805781818151811061065057610650610eb2565b602090810291909101015151604051625e0cab60e21b81526001600160a01b0390911660048201526024016103e1565b81818151811061069257610692610eb2565b60200260200101516040015164ffffffffff164211156106c557604051639b2b3aa960e01b815260040160405180910390fd5b428282815181106106d8576106d8610eb2565b60200260200101516020015164ffffffffff16111561070a5760405163e134424560e01b815260040160405180910390fd5b60010161050f565b5060019150505b92915050565b6000610729610935565b805490915060ff600160401b82041615906001600160401b03166000811580156107505750825b90506000826001600160401b0316600114801561076c5750303b155b90508115801561077a575080155b156107985760405163f92ee8a960e01b815260040160405180910390fd5b845467ffffffffffffffff1916600117855583156107c257845460ff60401b1916600160401b1785555b6107cb8661095e565b831561081157845460ff60401b19168555604051600181527fc7f505b2f371ae2175ee4913f4499e1f2633a7b5936321eed1cdaeb6115181d29060200160405180910390a15b505050505050565b6000807f237e158222e3e6968b72b9db0d8043aacf074ad9f650f0d1606b4d82ee432c00610475565b61084a6108c7565b7f237e158222e3e6968b72b9db0d8043aacf074ad9f650f0d1606b4d82ee432c0080546001600160a01b0319166001600160a01b038316908117825561088e610450565b6001600160a01b03167f38d16b8cac22d99fc7c124b9cd0de2d3fa1faef420bfe791d8c362d765e2270060405160405180910390a35050565b336108d0610450565b6001600160a01b0316146104065760405163118cdaa760e01b81523360048201526024016103e1565b7f237e158222e3e6968b72b9db0d8043aacf074ad9f650f0d1606b4d82ee432c0080546001600160a01b03191681556109318261096f565b5050565b6000807ff0c57e16840df040f15088dc2f81fe391c3923bec73e23a9662efc9c229c6a00610719565b6109666109e0565b61044d81610a05565b7f9016d09d72d40fdae2fd8ceac6b6234c7706214fd39c1cd1e609a0528c19930080546001600160a01b031981166001600160a01b03848116918217845560405192169182907f8be0079c531659141344cd1fd0a4f28419497f9722a3daafe3b4186f6b6457e090600090a3505050565b6109e8610a37565b61040657604051631afcd79f60e31b815260040160405180910390fd5b610a0d6109e0565b6001600160a01b03811661044457604051631e4fbdf760e01b8152600060048201526024016103e1565b6000610a41610935565b54600160401b900460ff16919050565b60008083601f840112610a6357600080fd5b5081356001600160401b03811115610a7a57600080fd5b602083019150836020828501011115610a9257600080fd5b9250929050565b60008060008060408587031215610aaf57600080fd5b84356001600160401b03811115610ac557600080fd5b610ad187828801610a51565b90955093505060208501356001600160401b03811115610af057600080fd5b610afc87828801610a51565b95989497509550505050565b60005b83811015610b23578181015183820152602001610b0b565b50506000910152565b60008151808452610b44816020860160208601610b08565b601f01601f19169290920160200192915050565b602081526000610b6b6020830184610b2c565b9392505050565b60008060208385031215610b8557600080fd5b82356001600160401b03811115610b9b57600080fd5b8301601f81018513610bac57600080fd5b80356001600160401b03811115610bc257600080fd5b8560208260051b8401011115610bd757600080fd5b6020919091019590945092505050565b6001600160a01b038116811461044d57600080fd5b600060208284031215610c0e57600080fd5b8135610b6b81610be7565b60208152816020820152818360408301376000818301604090810191909152601f909201601f19160101919050565b634e487b7160e01b600052604160045260246000fd5b60405160c081016001600160401b0381118282101715610c8057610c80610c48565b60405290565b8051610c9181610be7565b919050565b805164ffffffffff81168114610c9157600080fd5b600082601f830112610cbc57600080fd5b81516001600160401b03811115610cd557610cd5610c48565b604051601f8201601f19908116603f011681016001600160401b0381118282101715610d0357610d03610c48565b604052818152838201602001851015610d1b57600080fd5b610d2c826020830160208701610b08565b949350505050565b600060208284031215610d4657600080fd5b81516001600160401b03811115610d5c57600080fd5b820160c08185031215610d6e57600080fd5b610d76610c5e565b610d7f82610c86565b8152610d8d60208301610c96565b6020820152610d9e60408301610c96565b604082015260608201516001600160401b03811115610dbc57600080fd5b610dc886828501610cab565b60608301525060808201516001600160401b03811115610de757600080fd5b610df386828501610cab565b60808301525060a08201516001600160401b03811115610e1257600080fd5b610e1e86828501610cab565b60a083015250949350505050565b606081526000610e3f6060830186610b2c565b8281036020840152610e518186610b2c565b90508281036040840152610e658185610b2c565b9695505050505050565b600060208284031215610e8157600080fd5b81518015158114610b6b57600080fd5b8082018082111561071957634e487b7160e01b600052601160045260246000fd5b634e487b7160e01b600052603260045260246000fd5b6000808335601e19843603018112610edf57600080fd5b8301803591506001600160401b03821115610ef957600080fd5b602001915036819003821315610a9257600080fdfea26469706673582212205fe7981ead6576a1af5f5e3de556af131b74e8f1292524290738d705d01769dc64736f6c634300081b0033",
  "linkReferences": {
    "contracts/utils/CertificatesLib.sol": {
      "CertificatesLib": [
        {
          "length": 20,
          "start": 452
        },
        {
          "length": 20,
          "start": 658
        },
        {
          "length": 20,
          "start": 775
        },
        {
          "length": 20,
          "start": 1336
        }
      ]
    }
  },
  "deployedLinkReferences": {
    "contracts/utils/CertificatesLib.sol": {
      "CertificatesLib": [
        {
          "length": 20,
          "start": 421
        },
        {
          "length": 20,
          "start": 627
        },
        {
          "length": 20,
          "start": 744
        },
        {
          "length": 20,
          "start": 1305
        }
      ]
    }
  }
}