{
  "_format": "hh-sol-artifact-1",
  "contractName": "Verifier_anon_aadhaar_v1",
  "sourceName": "contracts/verifiers/anonAadhaarV1/Verifier_anon_aadhaar_v1.sol",
  "abi": [
    {
      "inputs": [
        {
          "internalType": "uint256[2]",
          "name": "_pA",
          "type": "uint256[2]"
        },
        {
          "internalType": "uint256[2][2]",
          "name": "_pB",
          "type": "uint256[2][2]"
        },
        {
          "internalType": "uint256[2]",
          "name": "_pC",
          "type": "uint256[2]"
        },
        {
          "internalType": "uint256[12]",
          "name": "_pubSignals",
          "type": "uint256[12]"
        }
      ],
      "name": "verifyProof",
      "outputs": [
        {
          "internalType": "bool",
          "name": "",
          "type": "bool"
        }
      ],
      "stateMutability": "view",
      "type": "function"
    }
  ],
  "bytecode": "0x6080604052348015600f57600080fd5b506109668061001f6000396000f3fe608060405234801561001057600080fd5b506004361061002b5760003560e01c80638cbac0fa14610030575b600080fd5b61004361003e3660046108c9565b610057565b604051901515815260200160405180910390f35b60006107ee565b7f30644e72e131a029b85045b68181585d2833e84879b9709143e1f593f0000001811061008f576000805260206000f35b50565b600060405183815284602082015285604082015260408160608360076107d05a03fa9150816100c5576000805260206000f35b825160408201526020830151606082015260408360808360066107d05a03fa915050806100f6576000805260206000f35b5050505050565b7f1e79c4b9904729798d9678144a6be73328fb8656e634298a7d4be144008dd2e985527f03c2c84365ecc679d19a76b1f92235f5cc98dab06b2e6ace41d07aa880471c7d60208601526000608086018661019a87357f29c29227a007cb41ad2515aa37aa1683c5161450d76baf6b027d564cf247d03e7f0d3e74a5e5e2dee1e475348082931b32aba565cd78c03793cf63ea411b86022b84610092565b6101ea60208801357f18a70ebd9729ed094decd169d3e7bcf4e410ee838cdfa6e1d6150bab22d159237f2797551e6d65aa356d58d04537ae3faac87f8e6417d8b1fff9ad7384f855075784610092565b61023a60408801357f276b28ec1587c750abdb722bbc34151ebad3f08011a0a4fb76ef742d6a6a665b7f1566c74aaeea4ce7882963d0b461bba1fb1411df0ef8fbdbde4671668071037484610092565b61028a60608801357f02cff593b2f191899362ccd6dda4ddf3569424cd21f3a6d53e2cc9ccb29965767f166d3857de2c85545817be220c380bc1a3bb6390b819d081e4d3d9952ca4c67684610092565b6102da60808801357f02d4317f2b31b821da6eafa51d6dd573ba0ed26a5a1559b22e75789cccc050827f2b6abc06cb3ebdf53d318debcaca963c70ea99e404b23faf6456a1796737e39b84610092565b61032a60a08801357f2c92edacb3e834e4231cda6f8b9a4e0490d572d166f8b64c99bf5ca23bf8e5b87f0b1c451f88900b6d464f4f987a7f7d5f8480f0f67d92d57a1fe0b5113142991a84610092565b61037a60c08801357f17216e7d39dc273313a79f99e69c36ceb5a03a2abb6e341413d1c77f25cfea427f02e3373dce67e7503b783d9ca521ef06ca6ec48e7c345bc94b82d74db932c7f784610092565b6103ca60e08801357f0b4699bce5cc5d80d3c57c4f0584fbd017bf5fe5c310ec0cd220c9608048259d7f0ab239fc9e381caa730ded03b92da274ff2e56562effe0c6db034025c6eb479a84610092565b61041b6101008801357f0b597742fc5156b74a4f87ddc9dd6c8065d96437290afa4baed9ddd8a81024627f1b7e6efb7051467ebb8468e2d2983f6eed3f6475756564154ae420f73cd7572584610092565b61046c6101208801357f20d6620435fde1991bd0cdd5c31012b3c331a70376b99bf136ad6332bce19d837f09465d138d9cb60eca3237d8374d7e2822e7277ad835e4443fe22a29b15539ac84610092565b6104bd6101408801357f0a3148bd8d4e4320be9984617534dcbbef1b6f0201d2ea6933007743876367097f1839329a4525184630c4d89b8c90de6bec93e75f44368980a1bad62e3ed7dd2984610092565b61050e6101608801357f025bb374cc0c3004e2598bcaf7072ea9f4a335dbe411f485f51ed56a23cfc7587f2898e16802df56c5baa60373bf22a2e394d37356286ae4bc17e8f461512e1a0684610092565b50823581527f30644e72e131a029b85045b68181585d97816a916871ca8d3c208c16d87cfd4760208401357f30644e72e131a029b85045b68181585d97816a916871ca8d3c208c16d87cfd4703066020820152833560408201526020840135606082015260408401356080820152606084013560a08201527f2d4d9aa7e302d9df41749d5507949d05dbea33fbb16c643b22f599a2be6df2e260c08201527f14bedd503c37ceb061d8ec60209fe345ce89830a19230301f076caff004d192660e08201527f0967032fcbf776d1afc985f88877f182d38480a653f2decaa9794cbc3bf3060c6101008201527f0e187847ad4c798374d0d6732bf501847dd68bc0e071241e0213bc7fc13db7ab6101208201527f304cfbd1e08a704a99f5e847d93f8c3caafddec46b7a0d379da69a4d112346a76101408201527f1739c1b1a457a8c7313123d24d2f9192f896b7c63eea05a9d57f06547ad0cec8610160820152600087015161018082015260206000018701516101a08201527f198e9393920d483a7260bfb731fb5d25f1aa493335a9e71297e485b7aef312c26101c08201527f1800deef121f1e76426a00665e5c4479674322d4f75edadd46debd5cd992f6ed6101e08201527f090689d0585ff075ec9e99ad690c3395bc4b313370b38ef355acdadcd122975b6102008201527f12c85ea5db8c6deb4aab71808dcb408fe3d1e7690c43d37b4ce6cc0166fa7daa610220820152843561024082015260208501356102608201527f090c5a3db8c5a2d695bdfeba0a97d32699aea3f69f60e379873ebd4fc7cc2e0d6102808201527f076c89774a7ab4579366774730f31d16f6dbf52c9cb8daaf8b5f46873f3efbc96102a08201527f2708c2498eee715613f1d460a87c72946defe7e9d63c3d5e5667e9c2f6eb5ef26102c08201527f16dfbe0375facccb193b0a3ddde1f3c8d69c7cc34d7c98dcb0bc378c13869fac6102e08201526020816103008360086107d05a03fa9051169695505050505050565b6040516103808101604052610806600084013561005e565b610813602084013561005e565b610820604084013561005e565b61082d606084013561005e565b61083a608084013561005e565b61084760a084013561005e565b61085460c084013561005e565b61086160e084013561005e565b61086f61010084013561005e565b61087d61012084013561005e565b61088b61014084013561005e565b61089961016084013561005e565b6108a6818486888a6100fd565b90508060005260206000f35b80604081018310156108c357600080fd5b92915050565b60008060008061028085870312156108e057600080fd5b6108ea86866108b2565b935060c08501868111156108fd57600080fd5b60408601935061090d87826108b2565b925050856102808601111561092157600080fd5b5091949093509091610100019056fea264697066735822122035ce8b79e7dfc8a8fea26e9dcc4b1be865389ab70412724bc34d92f5d14c6ee964736f6c634300081b0033",
  "linkReferences": {},
  "deployedLinkReferences": {}
}