{
  "_format": "hh-sol-artifact-1",
  "contractName": "PassportCredentialIssuerImplV1",
  "sourceName": "contracts/verifiers/PassportCredentialIssuerImplV1.sol",
  "abi": [
    {
      "inputs": [],
      "stateMutability": "nonpayable",
      "type": "constructor"
    },
    {
      "inputs": [
        {
          "internalType": "address",
          "name": "target",
          "type": "address"
        }
      ],
      "name": "AddressEmptyCode",
      "type": "error"
    },
    {
      "inputs": [
        {
          "internalType": "uint256",
          "name": "currentDate",
          "type": "uint256"
        }
      ],
      "name": "CurrentDateExpired",
      "type": "error"
    },
    {
      "inputs": [
        {
          "internalType": "address",
          "name": "implementation",
          "type": "address"
        }
      ],
      "name": "ERC1967InvalidImplementation",
      "type": "error"
    },
    {
      "inputs": [],
      "name": "ERC1967NonPayable",
      "type": "error"
    },
    {
      "inputs": [],
      "name": "FailedCall",
      "type": "error"
    },
    {
      "inputs": [],
      "name": "InvalidCredentialProof",
      "type": "error"
    },
    {
      "inputs": [
        {
          "internalType": "uint256",
          "name": "hashIndex",
          "type": "uint256"
        }
      ],
      "name": "InvalidHashIndex",
      "type": "error"
    },
    {
      "inputs": [
        {
          "internalType": "uint256",
          "name": "hashValue",
          "type": "uint256"
        }
      ],
      "name": "InvalidHashValue",
      "type": "error"
    },
    {
      "inputs": [],
      "name": "InvalidInitialization",
      "type": "error"
    },
    {
      "inputs": [
        {
          "internalType": "uint256",
          "name": "linkId1",
          "type": "uint256"
        },
        {
          "internalType": "uint256",
          "name": "linkId2",
          "type": "uint256"
        }
      ],
      "name": "InvalidLinkId",
      "type": "error"
    },
    {
      "inputs": [],
      "name": "InvalidPassportSignatureProof",
      "type": "error"
    },
    {
      "inputs": [
        {
          "internalType": "uint256",
          "name": "length",
          "type": "uint256"
        },
        {
          "internalType": "uint256",
          "name": "expectedLength",
          "type": "uint256"
        }
      ],
      "name": "InvalidResponsesLength",
      "type": "error"
    },
    {
      "inputs": [
        {
          "internalType": "address",
          "name": "signer",
          "type": "address"
        }
      ],
      "name": "InvalidSignerPassportSignatureProof",
      "type": "error"
    },
    {
      "inputs": [
        {
          "internalType": "uint256",
          "name": "templateRoot",
          "type": "uint256"
        },
        {
          "internalType": "uint256",
          "name": "expectedTemplateRoot",
          "type": "uint256"
        }
      ],
      "name": "InvalidTemplateRoot",
      "type": "error"
    },
    {
      "inputs": [
        {
          "internalType": "address",
          "name": "transactor",
          "type": "address"
        }
      ],
      "name": "InvalidTransactor",
      "type": "error"
    },
    {
      "inputs": [
        {
          "internalType": "uint256",
          "name": "issuanceDate",
          "type": "uint256"
        }
      ],
      "name": "IssuanceDateExpired",
      "type": "error"
    },
    {
      "inputs": [
        {
          "internalType": "uint256",
          "name": "length1",
          "type": "uint256"
        },
        {
          "internalType": "uint256",
          "name": "length2",
          "type": "uint256"
        }
      ],
      "name": "LengthMismatch",
      "type": "error"
    },
    {
      "inputs": [
        {
          "internalType": "uint256",
          "name": "requestId",
          "type": "uint256"
        }
      ],
      "name": "NoCredentialCircuitForRequestId",
      "type": "error"
    },
    {
      "inputs": [],
      "name": "NoVerifierSet",
      "type": "error"
    },
    {
      "inputs": [],
      "name": "NotInitializing",
      "type": "error"
    },
    {
      "inputs": [
        {
          "internalType": "uint256",
          "name": "nullifier",
          "type": "uint256"
        }
      ],
      "name": "NullifierAlreadyExists",
      "type": "error"
    },
    {
      "inputs": [
        {
          "internalType": "address",
          "name": "owner",
          "type": "address"
        }
      ],
      "name": "OwnableInvalidOwner",
      "type": "error"
    },
    {
      "inputs": [
        {
          "internalType": "address",
          "name": "account",
          "type": "address"
        }
      ],
      "name": "OwnableUnauthorizedAccount",
      "type": "error"
    },
    {
      "inputs": [],
      "name": "UUPSUnauthorizedCallContext",
      "type": "error"
    },
    {
      "inputs": [
        {
          "internalType": "bytes32",
          "name": "slot",
          "type": "bytes32"
        }
      ],
      "name": "UUPSUnsupportedProxiableUUID",
      "type": "error"
    },
    {
      "anonymous": false,
      "inputs": [
        {
          "indexed": false,
          "internalType": "string",
          "name": "circuitId",
          "type": "string"
        },
        {
          "indexed": false,
          "internalType": "address",
          "name": "verifier",
          "type": "address"
        },
        {
          "indexed": false,
          "internalType": "uint256",
          "name": "requestId",
          "type": "uint256"
        }
      ],
      "name": "CredentialCircuitVerifierUpdated",
      "type": "event"
    },
    {
      "anonymous": false,
      "inputs": [],
      "name": "EIP712DomainChanged",
      "type": "event"
    },
    {
      "anonymous": false,
      "inputs": [
        {
          "indexed": false,
          "internalType": "uint256",
          "name": "expirationTime",
          "type": "uint256"
        }
      ],
      "name": "ExpirationTimeUpdated",
      "type": "event"
    },
    {
      "anonymous": false,
      "inputs": [
        {
          "indexed": false,
          "internalType": "uint64",
          "name": "version",
          "type": "uint64"
        }
      ],
      "name": "Initialized",
      "type": "event"
    },
    {
      "anonymous": false,
      "inputs": [
        {
          "indexed": true,
          "internalType": "address",
          "name": "previousOwner",
          "type": "address"
        },
        {
          "indexed": true,
          "internalType": "address",
          "name": "newOwner",
          "type": "address"
        }
      ],
      "name": "OwnershipTransferStarted",
      "type": "event"
    },
    {
      "anonymous": false,
      "inputs": [
        {
          "indexed": true,
          "internalType": "address",
          "name": "previousOwner",
          "type": "address"
        },
        {
          "indexed": true,
          "internalType": "address",
          "name": "newOwner",
          "type": "address"
        }
      ],
      "name": "OwnershipTransferred",
      "type": "event"
    },
    {
      "anonymous": false,
      "inputs": [
        {
          "indexed": false,
          "internalType": "address",
          "name": "signer",
          "type": "address"
        }
      ],
      "name": "SignerAdded",
      "type": "event"
    },
    {
      "anonymous": false,
      "inputs": [
        {
          "indexed": false,
          "internalType": "uint256",
          "name": "tampletRoot",
          "type": "uint256"
        }
      ],
      "name": "TemplateRootUpdated",
      "type": "event"
    },
    {
      "anonymous": false,
      "inputs": [
        {
          "indexed": false,
          "internalType": "address",
          "name": "transactor",
          "type": "address"
        }
      ],
      "name": "TransactorAdded",
      "type": "event"
    },
    {
      "anonymous": false,
      "inputs": [
        {
          "indexed": true,
          "internalType": "address",
          "name": "implementation",
          "type": "address"
        }
      ],
      "name": "Upgraded",
      "type": "event"
    },
    {
      "inputs": [],
      "name": "DOMAIN_VERSION",
      "outputs": [
        {
          "internalType": "string",
          "name": "",
          "type": "string"
        }
      ],
      "stateMutability": "view",
      "type": "function"
    },
    {
      "inputs": [],
      "name": "PASSPORT_CREDENTIAL_MESSAGE_TYPEHASH",
      "outputs": [
        {
          "internalType": "bytes32",
          "name": "",
          "type": "bytes32"
        }
      ],
      "stateMutability": "view",
      "type": "function"
    },
    {
      "inputs": [],
      "name": "UPGRADE_INTERFACE_VERSION",
      "outputs": [
        {
          "internalType": "string",
          "name": "",
          "type": "string"
        }
      ],
      "stateMutability": "view",
      "type": "function"
    },
    {
      "inputs": [],
      "name": "VERSION",
      "outputs": [
        {
          "internalType": "string",
          "name": "",
          "type": "string"
        }
      ],
      "stateMutability": "view",
      "type": "function"
    },
    {
      "inputs": [],
      "name": "acceptOwnership",
      "outputs": [],
      "stateMutability": "nonpayable",
      "type": "function"
    },
    {
      "inputs": [
        {
          "internalType": "bytes32",
          "name": "imageHash",
          "type": "bytes32"
        }
      ],
      "name": "addImageHashToWhitelist",
      "outputs": [],
      "stateMutability": "nonpayable",
      "type": "function"
    },
    {
      "inputs": [
        {
          "internalType": "address",
          "name": "signer",
          "type": "address"
        }
      ],
      "name": "addSigner",
      "outputs": [],
      "stateMutability": "nonpayable",
      "type": "function"
    },
    {
      "inputs": [
        {
          "internalType": "address",
          "name": "transactor",
          "type": "address"
        }
      ],
      "name": "addTransactor",
      "outputs": [],
      "stateMutability": "nonpayable",
      "type": "function"
    },
    {
      "inputs": [
        {
          "internalType": "uint256",
          "name": "nullifier",
          "type": "uint256"
        }
      ],
      "name": "cleanNullifier",
      "outputs": [],
      "stateMutability": "nonpayable",
      "type": "function"
    },
    {
      "inputs": [
        {
          "internalType": "string",
          "name": "circuitId",
          "type": "string"
        }
      ],
      "name": "credentialCircuitIdToRequestIds",
      "outputs": [
        {
          "internalType": "uint256",
          "name": "",
          "type": "uint256"
        }
      ],
      "stateMutability": "view",
      "type": "function"
    },
    {
      "inputs": [
        {
          "internalType": "uint256",
          "name": "requestId",
          "type": "uint256"
        }
      ],
      "name": "credentialRequestIdToCircuitIds",
      "outputs": [
        {
          "internalType": "string",
          "name": "",
          "type": "string"
        }
      ],
      "stateMutability": "view",
      "type": "function"
    },
    {
      "inputs": [
        {
          "internalType": "string",
          "name": "circuitId",
          "type": "string"
        }
      ],
      "name": "credentialVerifiers",
      "outputs": [
        {
          "internalType": "address",
          "name": "",
          "type": "address"
        }
      ],
      "stateMutability": "view",
      "type": "function"
    },
    {
      "inputs": [],
      "name": "eip712Domain",
      "outputs": [
        {
          "internalType": "bytes1",
          "name": "fields",
          "type": "bytes1"
        },
        {
          "internalType": "string",
          "name": "name",
          "type": "string"
        },
        {
          "internalType": "string",
          "name": "version",
          "type": "string"
        },
        {
          "internalType": "uint256",
          "name": "chainId",
          "type": "uint256"
        },
        {
          "internalType": "address",
          "name": "verifyingContract",
          "type": "address"
        },
        {
          "internalType": "bytes32",
          "name": "salt",
          "type": "bytes32"
        },
        {
          "internalType": "uint256[]",
          "name": "extensions",
          "type": "uint256[]"
        }
      ],
      "stateMutability": "view",
      "type": "function"
    },
    {
      "inputs": [
        {
          "internalType": "uint256",
          "name": "claimIndexHash",
          "type": "uint256"
        }
      ],
      "name": "getClaimProof",
      "outputs": [
        {
          "components": [
            {
              "internalType": "uint256",
              "name": "root",
              "type": "uint256"
            },
            {
              "internalType": "bool",
              "name": "existence",
              "type": "bool"
            },
            {
              "internalType": "uint256[]",
              "name": "siblings",
              "type": "uint256[]"
            },
            {
              "internalType": "uint256",
              "name": "index",
              "type": "uint256"
            },
            {
              "internalType": "uint256",
              "name": "value",
              "type": "uint256"
            },
            {
              "internalType": "bool",
              "name": "auxExistence",
              "type": "bool"
            },
            {
              "internalType": "uint256",
              "name": "auxIndex",
              "type": "uint256"
            },
            {
              "internalType": "uint256",
              "name": "auxValue",
              "type": "uint256"
            }
          ],
          "internalType": "struct SmtLib.Proof",
          "name": "",
          "type": "tuple"
        }
      ],
      "stateMutability": "view",
      "type": "function"
    },
    {
      "inputs": [
        {
          "internalType": "uint256",
          "name": "claimIndexHash",
          "type": "uint256"
        },
        {
          "internalType": "uint256",
          "name": "root",
          "type": "uint256"
        }
      ],
      "name": "getClaimProofByRoot",
      "outputs": [
        {
          "components": [
            {
              "internalType": "uint256",
              "name": "root",
              "type": "uint256"
            },
            {
              "internalType": "bool",
              "name": "existence",
              "type": "bool"
            },
            {
              "internalType": "uint256[]",
              "name": "siblings",
              "type": "uint256[]"
            },
            {
              "internalType": "uint256",
              "name": "index",
              "type": "uint256"
            },
            {
              "internalType": "uint256",
              "name": "value",
              "type": "uint256"
            },
            {
              "internalType": "bool",
              "name": "auxExistence",
              "type": "bool"
            },
            {
              "internalType": "uint256",
              "name": "auxIndex",
              "type": "uint256"
            },
            {
              "internalType": "uint256",
              "name": "auxValue",
              "type": "uint256"
            }
          ],
          "internalType": "struct SmtLib.Proof",
          "name": "",
          "type": "tuple"
        }
      ],
      "stateMutability": "view",
      "type": "function"
    },
    {
      "inputs": [
        {
          "internalType": "uint256",
          "name": "claimIndexHash",
          "type": "uint256"
        }
      ],
      "name": "getClaimProofWithStateInfo",
      "outputs": [
        {
          "components": [
            {
              "internalType": "uint256",
              "name": "root",
              "type": "uint256"
            },
            {
              "internalType": "bool",
              "name": "existence",
              "type": "bool"
            },
            {
              "internalType": "uint256[]",
              "name": "siblings",
              "type": "uint256[]"
            },
            {
              "internalType": "uint256",
              "name": "index",
              "type": "uint256"
            },
            {
              "internalType": "uint256",
              "name": "value",
              "type": "uint256"
            },
            {
              "internalType": "bool",
              "name": "auxExistence",
              "type": "bool"
            },
            {
              "internalType": "uint256",
              "name": "auxIndex",
              "type": "uint256"
            },
            {
              "internalType": "uint256",
              "name": "auxValue",
              "type": "uint256"
            }
          ],
          "internalType": "struct SmtLib.Proof",
          "name": "",
          "type": "tuple"
        },
        {
          "components": [
            {
              "internalType": "uint256",
              "name": "state",
              "type": "uint256"
            },
            {
              "internalType": "uint256",
              "name": "claimsRoot",
              "type": "uint256"
            },
            {
              "internalType": "uint256",
              "name": "revocationsRoot",
              "type": "uint256"
            },
            {
              "internalType": "uint256",
              "name": "rootsRoot",
              "type": "uint256"
            }
          ],
          "internalType": "struct IdentityLib.StateInfo",
          "name": "",
          "type": "tuple"
        }
      ],
      "stateMutability": "view",
      "type": "function"
    },
    {
      "inputs": [],
      "name": "getClaimsTreeRoot",
      "outputs": [
        {
          "internalType": "uint256",
          "name": "",
          "type": "uint256"
        }
      ],
      "stateMutability": "view",
      "type": "function"
    },
    {
      "inputs": [],
      "name": "getExpirationTime",
      "outputs": [
        {
          "internalType": "uint256",
          "name": "",
          "type": "uint256"
        }
      ],
      "stateMutability": "view",
      "type": "function"
    },
    {
      "inputs": [],
      "name": "getId",
      "outputs": [
        {
          "internalType": "uint256",
          "name": "",
          "type": "uint256"
        }
      ],
      "stateMutability": "view",
      "type": "function"
    },
    {
      "inputs": [],
      "name": "getIsOldStateGenesis",
      "outputs": [
        {
          "internalType": "bool",
          "name": "",
          "type": "bool"
        }
      ],
      "stateMutability": "view",
      "type": "function"
    },
    {
      "inputs": [],
      "name": "getLatestPublishedClaimsRoot",
      "outputs": [
        {
          "internalType": "uint256",
          "name": "",
          "type": "uint256"
        }
      ],
      "stateMutability": "view",
      "type": "function"
    },
    {
      "inputs": [],
      "name": "getLatestPublishedRevocationsRoot",
      "outputs": [
        {
          "internalType": "uint256",
          "name": "",
          "type": "uint256"
        }
      ],
      "stateMutability": "view",
      "type": "function"
    },
    {
      "inputs": [],
      "name": "getLatestPublishedRootsRoot",
      "outputs": [
        {
          "internalType": "uint256",
          "name": "",
          "type": "uint256"
        }
      ],
      "stateMutability": "view",
      "type": "function"
    },
    {
      "inputs": [],
      "name": "getLatestPublishedState",
      "outputs": [
        {
          "internalType": "uint256",
          "name": "",
          "type": "uint256"
        }
      ],
      "stateMutability": "view",
      "type": "function"
    },
    {
      "inputs": [
        {
          "internalType": "uint64",
          "name": "revocationNonce",
          "type": "uint64"
        }
      ],
      "name": "getRevocationProof",
      "outputs": [
        {
          "components": [
            {
              "internalType": "uint256",
              "name": "root",
              "type": "uint256"
            },
            {
              "internalType": "bool",
              "name": "existence",
              "type": "bool"
            },
            {
              "internalType": "uint256[]",
              "name": "siblings",
              "type": "uint256[]"
            },
            {
              "internalType": "uint256",
              "name": "index",
              "type": "uint256"
            },
            {
              "internalType": "uint256",
              "name": "value",
              "type": "uint256"
            },
            {
              "internalType": "bool",
              "name": "auxExistence",
              "type": "bool"
            },
            {
              "internalType": "uint256",
              "name": "auxIndex",
              "type": "uint256"
            },
            {
              "internalType": "uint256",
              "name": "auxValue",
              "type": "uint256"
            }
          ],
          "internalType": "struct SmtLib.Proof",
          "name": "",
          "type": "tuple"
        }
      ],
      "stateMutability": "view",
      "type": "function"
    },
    {
      "inputs": [
        {
          "internalType": "uint64",
          "name": "revocationNonce",
          "type": "uint64"
        },
        {
          "internalType": "uint256",
          "name": "root",
          "type": "uint256"
        }
      ],
      "name": "getRevocationProofByRoot",
      "outputs": [
        {
          "components": [
            {
              "internalType": "uint256",
              "name": "root",
              "type": "uint256"
            },
            {
              "internalType": "bool",
              "name": "existence",
              "type": "bool"
            },
            {
              "internalType": "uint256[]",
              "name": "siblings",
              "type": "uint256[]"
            },
            {
              "internalType": "uint256",
              "name": "index",
              "type": "uint256"
            },
            {
              "internalType": "uint256",
              "name": "value",
              "type": "uint256"
            },
            {
              "internalType": "bool",
              "name": "auxExistence",
              "type": "bool"
            },
            {
              "internalType": "uint256",
              "name": "auxIndex",
              "type": "uint256"
            },
            {
              "internalType": "uint256",
              "name": "auxValue",
              "type": "uint256"
            }
          ],
          "internalType": "struct SmtLib.Proof",
          "name": "",
          "type": "tuple"
        }
      ],
      "stateMutability": "view",
      "type": "function"
    },
    {
      "inputs": [
        {
          "internalType": "uint64",
          "name": "revocationNonce",
          "type": "uint64"
        }
      ],
      "name": "getRevocationProofWithStateInfo",
      "outputs": [
        {
          "components": [
            {
              "internalType": "uint256",
              "name": "root",
              "type": "uint256"
            },
            {
              "internalType": "bool",
              "name": "existence",
              "type": "bool"
            },
            {
              "internalType": "uint256[]",
              "name": "siblings",
              "type": "uint256[]"
            },
            {
              "internalType": "uint256",
              "name": "index",
              "type": "uint256"
            },
            {
              "internalType": "uint256",
              "name": "value",
              "type": "uint256"
            },
            {
              "internalType": "bool",
              "name": "auxExistence",
              "type": "bool"
            },
            {
              "internalType": "uint256",
              "name": "auxIndex",
              "type": "uint256"
            },
            {
              "internalType": "uint256",
              "name": "auxValue",
              "type": "uint256"
            }
          ],
          "internalType": "struct SmtLib.Proof",
          "name": "",
          "type": "tuple"
        },
        {
          "components": [
            {
              "internalType": "uint256",
              "name": "state",
              "type": "uint256"
            },
            {
              "internalType": "uint256",
              "name": "claimsRoot",
              "type": "uint256"
            },
            {
              "internalType": "uint256",
              "name": "revocationsRoot",
              "type": "uint256"
            },
            {
              "internalType": "uint256",
              "name": "rootsRoot",
              "type": "uint256"
            }
          ],
          "internalType": "struct IdentityLib.StateInfo",
          "name": "",
          "type": "tuple"
        }
      ],
      "stateMutability": "view",
      "type": "function"
    },
    {
      "inputs": [
        {
          "internalType": "uint256",
          "name": "id",
          "type": "uint256"
        },
        {
          "internalType": "uint64",
          "name": "nonce",
          "type": "uint64"
        }
      ],
      "name": "getRevocationStatus",
      "outputs": [
        {
          "components": [
            {
              "components": [
                {
                  "internalType": "uint256",
                  "name": "state",
                  "type": "uint256"
                },
                {
                  "internalType": "uint256",
                  "name": "claimsTreeRoot",
                  "type": "uint256"
                },
                {
                  "internalType": "uint256",
                  "name": "revocationTreeRoot",
                  "type": "uint256"
                },
                {
                  "internalType": "uint256",
                  "name": "rootOfRoots",
                  "type": "uint256"
                }
              ],
              "internalType": "struct IOnchainCredentialStatusResolver.IdentityStateRoots",
              "name": "issuer",
              "type": "tuple"
            },
            {
              "components": [
                {
                  "internalType": "uint256",
                  "name": "root",
                  "type": "uint256"
                },
                {
                  "internalType": "bool",
                  "name": "existence",
                  "type": "bool"
                },
                {
                  "internalType": "uint256[]",
                  "name": "siblings",
                  "type": "uint256[]"
                },
                {
                  "internalType": "uint256",
                  "name": "index",
                  "type": "uint256"
                },
                {
                  "internalType": "uint256",
                  "name": "value",
                  "type": "uint256"
                },
                {
                  "internalType": "bool",
                  "name": "auxExistence",
                  "type": "bool"
                },
                {
                  "internalType": "uint256",
                  "name": "auxIndex",
                  "type": "uint256"
                },
                {
                  "internalType": "uint256",
                  "name": "auxValue",
                  "type": "uint256"
                }
              ],
              "internalType": "struct IOnchainCredentialStatusResolver.Proof",
              "name": "mtp",
              "type": "tuple"
            }
          ],
          "internalType": "struct IOnchainCredentialStatusResolver.CredentialStatus",
          "name": "",
          "type": "tuple"
        }
      ],
      "stateMutability": "view",
      "type": "function"
    },
    {
      "inputs": [
        {
          "internalType": "uint256",
          "name": "id",
          "type": "uint256"
        },
        {
          "internalType": "uint256",
          "name": "state",
          "type": "uint256"
        },
        {
          "internalType": "uint64",
          "name": "nonce",
          "type": "uint64"
        }
      ],
      "name": "getRevocationStatusByIdAndState",
      "outputs": [
        {
          "components": [
            {
              "components": [
                {
                  "internalType": "uint256",
                  "name": "state",
                  "type": "uint256"
                },
                {
                  "internalType": "uint256",
                  "name": "claimsTreeRoot",
                  "type": "uint256"
                },
                {
                  "internalType": "uint256",
                  "name": "revocationTreeRoot",
                  "type": "uint256"
                },
                {
                  "internalType": "uint256",
                  "name": "rootOfRoots",
                  "type": "uint256"
                }
              ],
              "internalType": "struct IOnchainCredentialStatusResolver.IdentityStateRoots",
              "name": "issuer",
              "type": "tuple"
            },
            {
              "components": [
                {
                  "internalType": "uint256",
                  "name": "root",
                  "type": "uint256"
                },
                {
                  "internalType": "bool",
                  "name": "existence",
                  "type": "bool"
                },
                {
                  "internalType": "uint256[]",
                  "name": "siblings",
                  "type": "uint256[]"
                },
                {
                  "internalType": "uint256",
                  "name": "index",
                  "type": "uint256"
                },
                {
                  "internalType": "uint256",
                  "name": "value",
                  "type": "uint256"
                },
                {
                  "internalType": "bool",
                  "name": "auxExistence",
                  "type": "bool"
                },
                {
                  "internalType": "uint256",
                  "name": "auxIndex",
                  "type": "uint256"
                },
                {
                  "internalType": "uint256",
                  "name": "auxValue",
                  "type": "uint256"
                }
              ],
              "internalType": "struct IOnchainCredentialStatusResolver.Proof",
              "name": "mtp",
              "type": "tuple"
            }
          ],
          "internalType": "struct IOnchainCredentialStatusResolver.CredentialStatus",
          "name": "",
          "type": "tuple"
        }
      ],
      "stateMutability": "view",
      "type": "function"
    },
    {
      "inputs": [],
      "name": "getRevocationsTreeRoot",
      "outputs": [
        {
          "internalType": "uint256",
          "name": "",
          "type": "uint256"
        }
      ],
      "stateMutability": "view",
      "type": "function"
    },
    {
      "inputs": [
        {
          "internalType": "uint256",
          "name": "rootsTreeRoot",
          "type": "uint256"
        }
      ],
      "name": "getRootProof",
      "outputs": [
        {
          "components": [
            {
              "internalType": "uint256",
              "name": "root",
              "type": "uint256"
            },
            {
              "internalType": "bool",
              "name": "existence",
              "type": "bool"
            },
            {
              "internalType": "uint256[]",
              "name": "siblings",
              "type": "uint256[]"
            },
            {
              "internalType": "uint256",
              "name": "index",
              "type": "uint256"
            },
            {
              "internalType": "uint256",
              "name": "value",
              "type": "uint256"
            },
            {
              "internalType": "bool",
              "name": "auxExistence",
              "type": "bool"
            },
            {
              "internalType": "uint256",
              "name": "auxIndex",
              "type": "uint256"
            },
            {
              "internalType": "uint256",
              "name": "auxValue",
              "type": "uint256"
            }
          ],
          "internalType": "struct SmtLib.Proof",
          "name": "",
          "type": "tuple"
        }
      ],
      "stateMutability": "view",
      "type": "function"
    },
    {
      "inputs": [
        {
          "internalType": "uint256",
          "name": "claimsTreeRoot",
          "type": "uint256"
        },
        {
          "internalType": "uint256",
          "name": "root",
          "type": "uint256"
        }
      ],
      "name": "getRootProofByRoot",
      "outputs": [
        {
          "components": [
            {
              "internalType": "uint256",
              "name": "root",
              "type": "uint256"
            },
            {
              "internalType": "bool",
              "name": "existence",
              "type": "bool"
            },
            {
              "internalType": "uint256[]",
              "name": "siblings",
              "type": "uint256[]"
            },
            {
              "internalType": "uint256",
              "name": "index",
              "type": "uint256"
            },
            {
              "internalType": "uint256",
              "name": "value",
              "type": "uint256"
            },
            {
              "internalType": "bool",
              "name": "auxExistence",
              "type": "bool"
            },
            {
              "internalType": "uint256",
              "name": "auxIndex",
              "type": "uint256"
            },
            {
              "internalType": "uint256",
              "name": "auxValue",
              "type": "uint256"
            }
          ],
          "internalType": "struct SmtLib.Proof",
          "name": "",
          "type": "tuple"
        }
      ],
      "stateMutability": "view",
      "type": "function"
    },
    {
      "inputs": [
        {
          "internalType": "uint256",
          "name": "rootsTreeRoot",
          "type": "uint256"
        }
      ],
      "name": "getRootProofWithStateInfo",
      "outputs": [
        {
          "components": [
            {
              "internalType": "uint256",
              "name": "root",
              "type": "uint256"
            },
            {
              "internalType": "bool",
              "name": "existence",
              "type": "bool"
            },
            {
              "internalType": "uint256[]",
              "name": "siblings",
              "type": "uint256[]"
            },
            {
              "internalType": "uint256",
              "name": "index",
              "type": "uint256"
            },
            {
              "internalType": "uint256",
              "name": "value",
              "type": "uint256"
            },
            {
              "internalType": "bool",
              "name": "auxExistence",
              "type": "bool"
            },
            {
              "internalType": "uint256",
              "name": "auxIndex",
              "type": "uint256"
            },
            {
              "internalType": "uint256",
              "name": "auxValue",
              "type": "uint256"
            }
          ],
          "internalType": "struct SmtLib.Proof",
          "name": "",
          "type": "tuple"
        },
        {
          "components": [
            {
              "internalType": "uint256",
              "name": "state",
              "type": "uint256"
            },
            {
              "internalType": "uint256",
              "name": "claimsRoot",
              "type": "uint256"
            },
            {
              "internalType": "uint256",
              "name": "revocationsRoot",
              "type": "uint256"
            },
            {
              "internalType": "uint256",
              "name": "rootsRoot",
              "type": "uint256"
            }
          ],
          "internalType": "struct IdentityLib.StateInfo",
          "name": "",
          "type": "tuple"
        }
      ],
      "stateMutability": "view",
      "type": "function"
    },
    {
      "inputs": [
        {
          "internalType": "uint256",
          "name": "state",
          "type": "uint256"
        }
      ],
      "name": "getRootsByState",
      "outputs": [
        {
          "components": [
            {
              "internalType": "uint256",
              "name": "claimsRoot",
              "type": "uint256"
            },
            {
              "internalType": "uint256",
              "name": "revocationsRoot",
              "type": "uint256"
            },
            {
              "internalType": "uint256",
              "name": "rootsRoot",
              "type": "uint256"
            }
          ],
          "internalType": "struct IdentityLib.Roots",
          "name": "",
          "type": "tuple"
        }
      ],
      "stateMutability": "view",
      "type": "function"
    },
    {
      "inputs": [],
      "name": "getRootsTreeRoot",
      "outputs": [
        {
          "internalType": "uint256",
          "name": "",
          "type": "uint256"
        }
      ],
      "stateMutability": "view",
      "type": "function"
    },
    {
      "inputs": [],
      "name": "getSigners",
      "outputs": [
        {
          "internalType": "address[]",
          "name": "",
          "type": "address[]"
        }
      ],
      "stateMutability": "view",
      "type": "function"
    },
    {
      "inputs": [],
      "name": "getSmtDepth",
      "outputs": [
        {
          "internalType": "uint256",
          "name": "",
          "type": "uint256"
        }
      ],
      "stateMutability": "pure",
      "type": "function"
    },
    {
      "inputs": [],
      "name": "getTemplateRoot",
      "outputs": [
        {
          "internalType": "uint256",
          "name": "",
          "type": "uint256"
        }
      ],
      "stateMutability": "view",
      "type": "function"
    },
    {
      "inputs": [],
      "name": "getTransactors",
      "outputs": [
        {
          "internalType": "address[]",
          "name": "",
          "type": "address[]"
        }
      ],
      "stateMutability": "view",
      "type": "function"
    },
    {
      "inputs": [
        {
          "internalType": "address",
          "name": "_stateContractAddr",
          "type": "address"
        },
        {
          "internalType": "bytes2",
          "name": "idType",
          "type": "bytes2"
        }
      ],
      "name": "initialize",
      "outputs": [],
      "stateMutability": "nonpayable",
      "type": "function"
    },
    {
      "inputs": [
        {
          "internalType": "uint256",
          "name": "expirationTime",
          "type": "uint256"
        },
        {
          "internalType": "uint256",
          "name": "templateRoot",
          "type": "uint256"
        },
        {
          "internalType": "string[]",
          "name": "credentialCircuitIds",
          "type": "string[]"
        },
        {
          "internalType": "address[]",
          "name": "credentialVerifierAddresses",
          "type": "address[]"
        },
        {
          "internalType": "address",
          "name": "stateAddress",
          "type": "address"
        },
        {
          "internalType": "bytes2",
          "name": "idType",
          "type": "bytes2"
        }
      ],
      "name": "initializeIssuer",
      "outputs": [],
      "stateMutability": "nonpayable",
      "type": "function"
    },
    {
      "inputs": [
        {
          "internalType": "bytes32",
          "name": "imageHash",
          "type": "bytes32"
        }
      ],
      "name": "isWhitelistedImageHash",
      "outputs": [
        {
          "internalType": "bool",
          "name": "",
          "type": "bool"
        }
      ],
      "stateMutability": "view",
      "type": "function"
    },
    {
      "inputs": [
        {
          "internalType": "uint256",
          "name": "nullifier",
          "type": "uint256"
        }
      ],
      "name": "nullifierExists",
      "outputs": [
        {
          "internalType": "bool",
          "name": "",
          "type": "bool"
        }
      ],
      "stateMutability": "view",
      "type": "function"
    },
    {
      "inputs": [],
      "name": "owner",
      "outputs": [
        {
          "internalType": "address",
          "name": "",
          "type": "address"
        }
      ],
      "stateMutability": "view",
      "type": "function"
    },
    {
      "inputs": [],
      "name": "pendingOwner",
      "outputs": [
        {
          "internalType": "address",
          "name": "",
          "type": "address"
        }
      ],
      "stateMutability": "view",
      "type": "function"
    },
    {
      "inputs": [],
      "name": "proxiableUUID",
      "outputs": [
        {
          "internalType": "bytes32",
          "name": "",
          "type": "bytes32"
        }
      ],
      "stateMutability": "view",
      "type": "function"
    },
    {
      "inputs": [
        {
          "internalType": "bytes32",
          "name": "imageHash",
          "type": "bytes32"
        }
      ],
      "name": "removeImageHashFromWhitelist",
      "outputs": [],
      "stateMutability": "nonpayable",
      "type": "function"
    },
    {
      "inputs": [],
      "name": "renounceOwnership",
      "outputs": [],
      "stateMutability": "nonpayable",
      "type": "function"
    },
    {
      "inputs": [
        {
          "internalType": "contract IAttestationValidator",
          "name": "validator",
          "type": "address"
        }
      ],
      "name": "setAttestationValidator",
      "outputs": [],
      "stateMutability": "nonpayable",
      "type": "function"
    },
    {
      "inputs": [
        {
          "internalType": "uint256",
          "name": "expirationTime",
          "type": "uint256"
        }
      ],
      "name": "setExpirationTime",
      "outputs": [],
      "stateMutability": "nonpayable",
      "type": "function"
    },
    {
      "inputs": [
        {
          "internalType": "uint256",
          "name": "templateRoot",
          "type": "uint256"
        }
      ],
      "name": "setTemplateRoot",
      "outputs": [],
      "stateMutability": "nonpayable",
      "type": "function"
    },
    {
      "inputs": [
        {
          "components": [
            {
              "internalType": "uint64",
              "name": "requestId",
              "type": "uint64"
            },
            {
              "internalType": "bytes",
              "name": "zkProof",
              "type": "bytes"
            },
            {
              "internalType": "bytes",
              "name": "data",
              "type": "bytes"
            }
          ],
          "internalType": "struct IZKPVerifier.ZKPResponse[]",
          "name": "responses",
          "type": "tuple[]"
        },
        {
          "internalType": "bytes",
          "name": "crossChainProofs",
          "type": "bytes"
        }
      ],
      "name": "submitZKPResponseV2",
      "outputs": [],
      "stateMutability": "nonpayable",
      "type": "function"
    },
    {
      "inputs": [
        {
          "internalType": "bytes4",
          "name": "interfaceId",
          "type": "bytes4"
        }
      ],
      "name": "supportsInterface",
      "outputs": [
        {
          "internalType": "bool",
          "name": "",
          "type": "bool"
        }
      ],
      "stateMutability": "view",
      "type": "function"
    },
    {
      "inputs": [
        {
          "internalType": "address",
          "name": "newOwner",
          "type": "address"
        }
      ],
      "name": "transferOwnership",
      "outputs": [],
      "stateMutability": "nonpayable",
      "type": "function"
    },
    {
      "inputs": [
        {
          "internalType": "string[]",
          "name": "circuitIds",
          "type": "string[]"
        },
        {
          "internalType": "address[]",
          "name": "verifierAddresses",
          "type": "address[]"
        }
      ],
      "name": "updateCredentialVerifiers",
      "outputs": [],
      "stateMutability": "nonpayable",
      "type": "function"
    },
    {
      "inputs": [
        {
          "internalType": "address",
          "name": "newImplementation",
          "type": "address"
        },
        {
          "internalType": "bytes",
          "name": "data",
          "type": "bytes"
        }
      ],
      "name": "upgradeToAndCall",
      "outputs": [],
      "stateMutability": "payable",
      "type": "function"
    }
  ],
  "bytecode": "0x60a06040523060805234801561001457600080fd5b5061001d610022565b6100d4565b7ff0c57e16840df040f15088dc2f81fe391c3923bec73e23a9662efc9c229c6a00805468010000000000000000900460ff16156100725760405163f92ee8a960e01b815260040160405180910390fd5b80546001600160401b03908116146100d15780546001600160401b0319166001600160401b0390811782556040519081527fc7f505b2f371ae2175ee4913f4499e1f2633a7b5936321eed1cdaeb6115181d29060200160405180910390a15b50565b6080516144c06100fd60003960008181612198015281816121c101526123be01526144c06000f3fe60806040526004361061036a5760003560e01c806394cf795e116101c6578063c6365a3b116100f7578063e26ecb0b11610095578063f2fde38b1161006f578063f2fde38b146109fe578063f84c7c1e14610a1e578063fa78d88c14610a33578063ffa1ad7414610a5357600080fd5b8063e26ecb0b146109a9578063e30c3978146109c9578063eb12d61e146109de57600080fd5b8063d94b0271116100d1578063d94b02711461092b578063da68a0b11461094b578063da93654014610960578063e23a845a1461099457600080fd5b8063c6365a3b146108d6578063cfa350c8146108eb578063d622ea6e1461090b57600080fd5b8063b354c2d811610164578063b8db68711161013e578063b8db687114610834578063badf055d14610876578063c0cc365d14610896578063c1e32733146108b657600080fd5b8063b354c2d8146107d4578063b37feda4146107f4578063b57a40cb1461081457600080fd5b8063aad72921116101a0578063aad7292114610725578063acb8cc4914610745578063ad3cb1cc14610783578063ade09fcd146107b457600080fd5b806394cf795e146106db5780639674cfa4146106f0578063a635c7851461070557600080fd5b8063406e8b4c116102a057806370f4f9df1161023e57806384b0196e1161021857806384b0196e146106465780638a03c1661461066e5780638a6845531461068e5780638da5cb5b146106ae57600080fd5b806370f4f9df146105fc578063715018a61461061c57806379ba50971461063157600080fd5b80634f1ef2861161027a5780634f1ef286146105aa578063523b8136146105bd57806352d1902d146105d25780635d1ca631146105e757600080fd5b8063406e8b4c1461054a57806342d4ef0f1461056a578063443d75341461058a57600080fd5b80632c1d32041161030d578063310d0d5b116102e7578063310d0d5b146104ec5780633d59ec601461050c5780633df432fc146105215780633f0c66481461053657600080fd5b80632c1d3204146104955780632d26b309146104aa5780632d5c4f25146104cc57600080fd5b8063110c96a711610349578063110c96a7146103f957806323aafe3b1461042657806326485063146104485780632afab62f1461047557600080fd5b806233058d1461036f57806301c85c77146103a657806301ffc9a7146103c9575b600080fd5b34801561037b57600080fd5b5061038f61038a3660046132d2565b610a84565b60405161039d92919061338f565b60405180910390f35b3480156103b257600080fd5b506103bb610b51565b60405190815260200161039d565b3480156103d557600080fd5b506103e96103e43660046133d2565b610bd6565b604051901515815260200161039d565b34801561040557600080fd5b506104196104143660046133fc565b610c0d565b60405161039d9190613428565b34801561043257600080fd5b50610446610441366004613475565b610c38565b005b34801561045457600080fd5b506104686104633660046132d2565b610c73565b60405161039d919061348e565b34801561048157600080fd5b506103e9610490366004613475565b610d0c565b3480156104a157600080fd5b506103bb610d3c565b3480156104b657600080fd5b506104bf610d57565b60405161039d91906134a1565b3480156104d857600080fd5b506104686104e73660046134ed565b610d74565b3480156104f857600080fd5b506104686105073660046134ed565b610e13565b34801561051857600080fd5b506103bb610e6a565b34801561052d57600080fd5b506103bb610e7d565b34801561054257600080fd5b5060286103bb565b34801561055657600080fd5b5061044661056536600461353c565b610ec0565b34801561057657600080fd5b506104466105853660046135ac565b610f5d565b34801561059657600080fd5b5061038f6105a5366004613475565b6110df565b6104466105b836600461378c565b61115a565b3480156105c957600080fd5b506103bb611179565b3480156105de57600080fd5b506103bb61118c565b3480156105f357600080fd5b506103bb6111a9565b34801561060857600080fd5b506104466106173660046137db565b6111b9565b34801561062857600080fd5b50610446611224565b34801561063d57600080fd5b50610446611238565b34801561065257600080fd5b5061065b611285565b60405161039d9796959493929190613848565b34801561067a57600080fd5b50610446610689366004613475565b611331565b34801561069a57600080fd5b506104466106a93660046137db565b61134b565b3480156106ba57600080fd5b506106c3611388565b6040516001600160a01b03909116815260200161039d565b3480156106e757600080fd5b506104bf6113bd565b3480156106fc57600080fd5b506103bb6113da565b34801561071157600080fd5b506106c36107203660046138e0565b6113ed565b34801561073157600080fd5b50610419610740366004613928565b611430565b34801561075157600080fd5b50610776604051806040016040528060058152602001640312e302e360dc1b81525081565b60405161039d919061395d565b34801561078f57600080fd5b50610776604051806040016040528060058152602001640352e302e360dc1b81525081565b3480156107c057600080fd5b506104466107cf366004613993565b611649565b3480156107e057600080fd5b506104466107ef366004613475565b611910565b34801561080057600080fd5b5061038f61080f366004613475565b611964565b34801561082057600080fd5b5061046861082f366004613475565b6119df565b34801561084057600080fd5b5061085461084f366004613475565b611a2d565b604080518251815260208084015190820152918101519082015260600161039d565b34801561088257600080fd5b50610446610891366004613ad6565b611ad5565b3480156108a257600080fd5b506104466108b1366004613475565b611d37565b3480156108c257600080fd5b506104686108d1366004613475565b611d81565b3480156108e257600080fd5b506103bb611dd1565b3480156108f757600080fd5b506103bb6109063660046138e0565b611de4565b34801561091757600080fd5b50610776610926366004613475565b611e1d565b34801561093757600080fd5b50610446610946366004613475565b611ed1565b34801561095757600080fd5b506103bb611f5f565b34801561096c57600080fd5b506103bb7f0d2a15c3140485b6db2a8c0f755486294daaae1eabcdd518f6beaf8e4ab4d83481565b3480156109a057600080fd5b506103bb611fa2565b3480156109b557600080fd5b506104686109c4366004613b45565b611fba565b3480156109d557600080fd5b506106c3612019565b3480156109ea57600080fd5b506104466109f93660046137db565b612042565b348015610a0a57600080fd5b50610446610a193660046137db565b6120a5565b348015610a2a57600080fd5b506103e961212a565b348015610a3f57600080fd5b506103e9610a4e366004613475565b612140565b348015610a5f57600080fd5b50610776604051806040016040528060058152602001640c4b8c0b8d60da1b81525081565b610a8c6131e6565b610ab76040518060800160405280600081526020016000815260200160008152602001600081525090565b610abf612169565b604051631f17004d60e31b815260048101919091526001600160401b038416602482015273__$068aad146bf104111ba65c4a1de2cd0e23$__9063f8b80268906044015b600060405180830381865af4158015610b20573d6000803e3d6000fd5b505050506040513d6000823e601f3d908101601f19168201604052610b489190810190613c85565b91509150915091565b6000610b5b612169565b60405163765c2c6160e01b8152600481019190915273__$068aad146bf104111ba65c4a1de2cd0e23$__9063765c2c61906024015b602060405180830381865af4158015610bad573d6000803e3d6000fd5b505050506040513d601f19601f82011682018060405250810190610bd19190613d29565b905090565b60006001600160e01b03198216635d1ca63160e01b1480610c0757506301ffc9a760e01b6001600160e01b03198316145b92915050565b610c1561322f565b6000610c1f612169565b600101549050610c30848285611430565b949350505050565b610c4061218d565b610c48612232565b6000610c52612264565b6000928352600a016020526040909120805460ff1916911515919091179055565b610c7b6131e6565b610c83612169565b604051637d0aba4f60e01b815260048101919091526001600160401b038316602482015273__$068aad146bf104111ba65c4a1de2cd0e23$__90637d0aba4f906044015b600060405180830381865af4158015610ce4573d6000803e3d6000fd5b505050506040513d6000823e601f3d908101601f19168201604052610c079190810190613d42565b6000610d1661218d565b610d1e612264565b6000838152600291909101602052604090205460ff1690505b919050565b6000610d4661218d565b610d4e612264565b60010154905090565b6060610d6161218d565b610bd1610d6c612264565b600b01612288565b610d7c6131e6565b610d84612169565b60405163d55da6a360e01b81526004810191909152602481018490526044810183905273__$068aad146bf104111ba65c4a1de2cd0e23$__9063d55da6a3906064015b600060405180830381865af4158015610de4573d6000803e3d6000fd5b505050506040513d6000823e601f3d908101601f19168201604052610e0c9190810190613d42565b9392505050565b610e1b6131e6565b610e23612169565b604051636ac0c5c760e11b81526004810191909152602481018490526044810183905273__$068aad146bf104111ba65c4a1de2cd0e23$__9063d5818b8e90606401610dc7565b6000610e74612169565b60010154919050565b6000610e87612169565b604051631b8bf99b60e21b8152600481019190915273__$068aad146bf104111ba65c4a1de2cd0e23$__90636e2fe66c90602401610b90565b610ec8612169565b6040516359a6069160e01b815260048101919091526001600160a01b0383166024820152306044820152602860648201526001600160f01b03198216608482015273__$068aad146bf104111ba65c4a1de2cd0e23$__906359a606919060a4015b60006040518083038186803b158015610f4157600080fd5b505af4158015610f55573d6000803e3d6000fd5b505050505050565b6000610f67612295565b805490915060ff600160401b82041615906001600160401b0316600081158015610f8e5750825b90506000826001600160401b03166001148015610faa5750303b155b905081158015610fb8575080155b15610fd65760405163f92ee8a960e01b815260040160405180910390fd5b845467ffffffffffffffff19166001178555831561100057845460ff60401b1916600160401b1785555b61100a8787610ec0565b611013336122be565b600061101d612264565b8e815560018082018f90556006820155604080518082018252601081526f50617373706f7274497373756572563160801b602080830191909152825180840190935260058352640312e302e360dc1b9083015291925061107d91906122cf565b6110898c8c8c8c611ad5565b5083156110d057845460ff60401b19168555604051600181527fc7f505b2f371ae2175ee4913f4499e1f2633a7b5936321eed1cdaeb6115181d29060200160405180910390a15b50505050505050505050505050565b6110e76131e6565b6111126040518060800160405280600081526020016000815260200160008152602001600081525090565b61111a612169565b60405163a3018d7960e01b815260048101919091526024810184905273__$068aad146bf104111ba65c4a1de2cd0e23$__9063a3018d7990604401610b03565b61116261218d565b61116b826122e1565b61117582826122f1565b5050565b6000611183612169565b609a0154919050565b60006111966123b3565b5060008051602061446b83398151915290565b60006111b3612169565b54919050565b6111c161218d565b6111c9612232565b60006111d3612264565b90506111e2600b8201836123fc565b506040516001600160a01b03831681527f0a33c33ca5c931f5cbdaa4137c8b7f3ea632aa05390959f913c410776733061b906020015b60405180910390a15050565b61122c612232565b6112366000612411565b565b3380611242612019565b6001600160a01b0316146112795760405163118cdaa760e01b81526001600160a01b03821660048201526024015b60405180910390fd5b61128281612411565b50565b6000606080828080838160008051602061444b83398151915280549091501580156112b257506001810154155b6112f65760405162461bcd60e51b81526020600482015260156024820152741152540dcc4c8e88155b9a5b9a5d1a585b1a5e9959605a1b6044820152606401611270565b6112fe612449565b61130661250c565b60408051600080825260208201909252600f60f81b9c939b5091995046985030975095509350915050565b61133961218d565b611341612232565b6001610c52612264565b61135361218d565b61135b612232565b80611364612264565b60090180546001600160a01b0319166001600160a01b039290921691909117905550565b6000807f9016d09d72d40fdae2fd8ceac6b6234c7706214fd39c1cd1e609a0528c1993005b546001600160a01b031692915050565b60606113c761218d565b610bd16113d2612264565b600701612288565b60006113e4612169565b609b0154919050565b60006113f761218d565b6113ff612264565b600301826040516114109190613d76565b908152604051908190036020019020546001600160a01b03169050919050565b61143861322f565b611440612169565b5484146114865760405162461bcd60e51b8152602060048201526014602482015273092c8cadce8d2e8f240d2c840dad2e6dac2e8c6d60631b6044820152606401611270565b6000611490612169565b604051630b1a9cd360e01b815260048101919091526024810185905273__$068aad146bf104111ba65c4a1de2cd0e23$__90630b1a9cd390604401606060405180830381865af41580156114e8573d6000803e3d6000fd5b505050506040513d601f19601f8201168201806040525081019061150c9190613d92565b604080516080810182528681528251602080830191909152830151818301529082015160608201529091506000611541612169565b6020840151604051630b2bcd1b60e11b815260048101929092526001600160401b0387166024830152604482015273__$068aad146bf104111ba65c4a1de2cd0e23$__906316579a3690606401600060405180830381865af41580156115ab573d6000803e3d6000fd5b505050506040513d6000823e601f3d908101601f191682016040526115d39190810190613d42565b6040805161010081018252825181526020808401511515818301528284015182840152606080850151908301526080808501519083015260a08085015115159083015260c0808501519083015260e093840151938201939093528151808301909252938152908101929092525095945050505050565b6000611653612264565b90508251600114611684578251604051630264a11560e21b8152600481019190915260016024820152604401611270565b60608160040160008560008151811061169f5761169f613dcf565b6020026020010151600001516001600160401b0316815260200190815260200160002080546116cd90613de5565b80601f01602080910402602001604051908101604052809291908181526020018280546116f990613de5565b80156117465780601f1061171b57610100808354040283529160200191611746565b820191906000526020600020905b81548152906001019060200180831161172957829003601f168201915b50505050509050805160000361179a578360008151811061176957611769613dcf565b60209081029190910101515160405163ea99bbcd60e01b81526001600160401b039091166004820152602401611270565b600080600080876000815181106117b3576117b3613dcf565b6020026020010151602001518060200190518101906117d29190613e66565b9350935093509350600060405180608001604052808581526020018481526020018381526020016040518060c001604052808860008151811061181757611817613dcf565b602002602001015181526020018860018151811061183757611837613dcf565b602002602001015181526020018860028151811061185757611857613dcf565b602002602001015181526020018860038151811061187757611877613dcf565b602002602001015181526020018860048151811061189757611897613dcf565b60200260200101518152602001886005815181106118b7576118b7613dcf565b602002602001015181525081525090506000888060200190518101906118dd9190613f20565b90506119048783836000815181106118f7576118f7613dcf565b602002602001015161254b565b50505050505050505050565b61191861218d565b611920612232565b80611929612264565b600101556040518181527ff007a02ba428e63fa98b65269e70f9a9db847e0a839049a2f31f069282267734906020015b60405180910390a150565b61196c6131e6565b6119976040518060800160405280600081526020016000815260200160008152602001600081525090565b61199f612169565b604051636ad1d8a760e11b815260048101919091526024810184905273__$068aad146bf104111ba65c4a1de2cd0e23$__9063d5a3b14e90604401610b03565b6119e76131e6565b6119ef612169565b604051620cf08960e41b815260048101919091526024810183905273__$068aad146bf104111ba65c4a1de2cd0e23$__9062cf089090604401610cc7565b611a5160405180606001604052806000815260200160008152602001600081525090565b611a59612169565b604051630b1a9cd360e01b815260048101919091526024810183905273__$068aad146bf104111ba65c4a1de2cd0e23$__90630b1a9cd390604401606060405180830381865af4158015611ab1573d6000803e3d6000fd5b505050506040513d601f19601f82011682018060405250810190610c079190613d92565b611add61218d565b611ae5612232565b6000611aef612264565b9050838214611b1b576040516355c5b3e360e11b81526004810185905260248101839052604401611270565b60005b84811015610f5557838382818110611b3857611b38613dcf565b9050602002016020810190611b4d91906137db565b82600301878784818110611b6357611b63613dcf565b9050602002810190611b759190614085565b604051611b839291906140cb565b90815260405190819003602001902080546001600160a01b03929092166001600160a01b0319909216919091179055600060058301878784818110611bca57611bca613dcf565b9050602002810190611bdc9190614085565b604051611bea9291906140cb565b908152602001604051809103902054905080600003611ca9575060068201548060058401888885818110611c2057611c20613dcf565b9050602002810190611c329190614085565b604051611c409291906140cb565b90815260405190819003602001902055868683818110611c6257611c62613dcf565b9050602002810190611c749190614085565b6000838152600486016020526040902091611c90919083614129565b50600683018054906000611ca3836141fe565b91905055505b7f17b20bbf8df0ff1422db2abe4b28c298e32929a2d112f027c3f68d488cf3cf74878784818110611cdc57611cdc613dcf565b9050602002810190611cee9190614085565b878786818110611d0057611d00613dcf565b9050602002016020810190611d1591906137db565b84604051611d269493929190614217565b60405180910390a150600101611b1e565b611d3f61218d565b611d47612232565b80611d50612264565b556040518181527f7f7f3071c3c286700c199acae2fe071beb4a63dae1afff85186fa75d18090ae890602001611959565b611d896131e6565b611d91612169565b6040516397ac539160e01b815260048101919091526024810183905273__$068aad146bf104111ba65c4a1de2cd0e23$__906397ac539190604401610cc7565b6000611ddb612169565b609c0154919050565b6000611dee61218d565b611df6612264565b60050182604051611e079190613d76565b9081526020016040518091039020549050919050565b6060611e2761218d565b611e2f612264565b6000838152600491909101602052604090208054611e4c90613de5565b80601f0160208091040260200160405190810160405280929190818152602001828054611e7890613de5565b8015611ec55780601f10611e9a57610100808354040283529160200191611ec5565b820191906000526020600020905b815481529060010190602001808311611ea857829003601f168201915b50505050509050919050565b611ed9612232565b6000611ee3612264565b600083815260028201602052604090205490915060ff16611f465760405162461bcd60e51b815260206004820152601860248201527f4e756c6c696669657220646f6573206e6f7420657869737400000000000000006044820152606401611270565b600091825260020160205260409020805460ff19169055565b6000611f69612169565b604051631e75e7f360e01b8152600481019190915273__$068aad146bf104111ba65c4a1de2cd0e23$__90631e75e7f390602401610b90565b6000611fac61218d565b611fb4612264565b54905090565b611fc26131e6565b611fca612169565b604051630b2bcd1b60e11b815260048101919091526001600160401b03841660248201526044810183905273__$068aad146bf104111ba65c4a1de2cd0e23$__906316579a3690606401610dc7565b6000807f237e158222e3e6968b72b9db0d8043aacf074ad9f650f0d1606b4d82ee432c006113ad565b61204a61218d565b612052612568565b600061205c612264565b905061206b60078201836123fc565b506040516001600160a01b03831681527f47d1c22a25bb3a5d4e481b9b1e6944c2eade3181a0a20b495ed61d35b5323f2490602001611218565b6120ad612232565b7f237e158222e3e6968b72b9db0d8043aacf074ad9f650f0d1606b4d82ee432c0080546001600160a01b0319166001600160a01b03831690811782556120f1611388565b6001600160a01b03167f38d16b8cac22d99fc7c124b9cd0de2d3fa1faef420bfe791d8c362d765e2270060405160405180910390a35050565b6000612134612169565b6002015460ff16919050565b600061214a61218d565b612152612264565b6000928352600a0160205250604090205460ff1690565b7f3018a310c36c4f8228f09bf3b1822685cf0971daa8265a58ca807c4a4daba40090565b306001600160a01b037f000000000000000000000000000000000000000000000000000000000000000016148061221457507f00000000000000000000000000000000000000000000000000000000000000006001600160a01b031661220860008051602061446b833981519152546001600160a01b031690565b6001600160a01b031614155b156112365760405163703e46dd60e11b815260040160405180910390fd5b3361223b611388565b6001600160a01b0316146112365760405163118cdaa760e01b8152336004820152602401611270565b7fd64ab600136c76c630ed81a54cc1acbcc213dadb956fdd8687dc5ebb0bb5f50090565b60606000610e0c8361259c565b6000807ff0c57e16840df040f15088dc2f81fe391c3923bec73e23a9662efc9c229c6a00610c07565b6122c66125f7565b6112828161261c565b6122d76125f7565b611175828261264e565b6122e961218d565b611282612232565b816001600160a01b03166352d1902d6040518163ffffffff1660e01b8152600401602060405180830381865afa92505050801561234b575060408051601f3d908101601f1916820190925261234891810190613d29565b60015b61237357604051634c9c8ce360e01b81526001600160a01b0383166004820152602401611270565b60008051602061446b83398151915281146123a457604051632a87526960e21b815260048101829052602401611270565b6123ae83836126af565b505050565b306001600160a01b037f000000000000000000000000000000000000000000000000000000000000000016146112365760405163703e46dd60e11b815260040160405180910390fd5b6000610e0c836001600160a01b038416612705565b7f237e158222e3e6968b72b9db0d8043aacf074ad9f650f0d1606b4d82ee432c0080546001600160a01b031916815561117582612754565b7fa16a46d94261c7517cc8ff89f61c0ce93598e3c849801011dee649a6a557d102805460609160008051602061444b8339815191529161248890613de5565b80601f01602080910402602001604051908101604052809291908181526020018280546124b490613de5565b80156125015780601f106124d657610100808354040283529160200191612501565b820191906000526020600020905b8154815290600101906020018083116124e457829003601f168201915b505050505091505090565b7fa16a46d94261c7517cc8ff89f61c0ce93598e3c849801011dee649a6a557d103805460609160008051602061444b8339815191529161248890613de5565b61255583836127c5565b61255e816128c3565b6123ae8282612937565b61257d33612574612264565b600b019061299f565b61123657604051631d83d27f60e01b8152336004820152602401611270565b606081600001805480602002602001604051908101604052809291908181526020018280548015611ec557602002820191906000526020600020905b8154815260200190600101908083116125d85750505050509050919050565b6125ff6129c1565b61123657604051631afcd79f60e31b815260040160405180910390fd5b6126246125f7565b6001600160a01b03811661127957604051631e4fbdf760e01b815260006004820152602401611270565b6126566125f7565b60008051602061444b8339815191527fa16a46d94261c7517cc8ff89f61c0ce93598e3c849801011dee649a6a557d1026126908482614260565b506003810161269f8382614260565b5060008082556001909101555050565b6126b8826129db565b6040516001600160a01b038316907fbc7cd75a20ee27fd9adebab32041f755214dbc6bffa90cc0225b39da2e5c2d3b90600090a28051156126fd576123ae8282612a40565b611175612ab6565b600081815260018301602052604081205461274c57508154600181810184556000848152602080822090930184905584548482528286019093526040902091909155610c07565b506000610c07565b7f9016d09d72d40fdae2fd8ceac6b6234c7706214fd39c1cd1e609a0528c19930080546001600160a01b031981166001600160a01b03848116918217845560405192169182907f8be0079c531659141344cd1fd0a4f28419497f9722a3daafe3b4186f6b6457e090600090a3505050565b60006127cf612264565b9050600081600301846040516127e59190613d76565b908152604051908190036020019020546001600160a01b031690508061281e576040516301dcf1ab60e31b815260040160405180910390fd5b806001600160a01b031663f398789b84600001518560200151866040015187606001516040518563ffffffff1660e01b81526004016128609493929190614341565b602060405180830381865afa15801561287d573d6000803e3d6000fd5b505050506040513d601f19601f820116820180604052508101906128a191906143c6565b6128bd576040516281723b60e21b815260040160405180910390fd5b50505050565b6000806128d883600001518460200151612ad5565b91509150816128fa5760405163df2b56ff60e01b815260040160405180910390fd5b61290f81612906612264565b6007019061299f565b6123ae57604051631432861160e31b81526001600160a01b0382166004820152602401611270565b606082810151805160208083015160808401519484015160a08501516040909501518751938401519351949692959294919390916129819088908890889088908890889088612b7f565b61298a81612d4f565b6129948787612d76565b505050505050505050565b6001600160a01b03811660009081526001830160205260408120541515610e0c565b60006129cb612295565b54600160401b900460ff16919050565b806001600160a01b03163b600003612a1157604051634c9c8ce360e01b81526001600160a01b0382166004820152602401611270565b60008051602061446b83398151915280546001600160a01b0319166001600160a01b0392909216919091179055565b6060600080846001600160a01b031684604051612a5d9190613d76565b600060405180830381855af49150503d8060008114612a98576040519150601f19603f3d011682016040523d82523d6000602084013e612a9d565b606091505b5091509150612aad858383612e31565b95945050505050565b34156112365760405163b398979f60e01b815260040160405180910390fd5b6000806000612b467f0d2a15c3140485b6db2a8c0f755486294daaae1eabcdd518f6beaf8e4ab4d83486600001518760200151604051602001612b2b939291909283526020830191909152604082015260600190565b60405160208183030381529060405280519060200120612e8d565b9050600080612b558387612eba565b5090925090506000816003811115612b6f57612b6f6143e1565b14945090925050505b9250929050565b6000612b89612264565b905088600003612baf57604051631b1aad8760e11b8152600481018a9052602401611270565b87600003612bd357604051634bdc991b60e11b815260048101899052602401611270565b80600101548514612c0757600181015460405163e748379160e01b8152611270918791600401918252602082015260400190565b838314612c34576040516001621d0d8360e21b031981526004810184905260248101859052604401611270565b60006207a120871115612c5657612c4f87630121eac06143f7565b9050612c67565b612c64876301312d006143f7565b90505b60008080612c80612c7b62093a804261440a565b612f07565b91945092509050600081612c9584606461441d565b612ca18661271061441d565b612cab91906143f7565b612cb591906143f7565b905084811115612cdb57604051635d5e30bf60e01b8152600481018c9052602401611270565b85544290612ce9908e6143f7565b1015612d0a5760405162bd09f160e11b8152600481018d9052602401611270565b600087815260028701602052604090205460ff1615612d3f57604051635377438b60e11b815260048101889052602401611270565b5050505050505050505050505050565b6000612d59612264565b60009283526002016020525060409020805460ff19166001179055565b612d7e612169565b6040516306fb157560e01b81526004810191909152602481018390526044810182905273__$068aad146bf104111ba65c4a1de2cd0e23$__906306fb15759060640160006040518083038186803b158015612dd857600080fd5b505af4158015612dec573d6000803e3d6000fd5b50505050612df8612169565b60405163175ba3e960e11b8152600481019190915273__$068aad146bf104111ba65c4a1de2cd0e23$__90632eb747d290602401610f29565b606082612e4657612e4182612f26565b610e0c565b8151158015612e5d57506001600160a01b0384163b155b15612e8657604051639996b31560e01b81526001600160a01b0385166004820152602401611270565b5080610e0c565b6000610c07612e9a612f4f565b8360405161190160f01b8152600281019290925260228201526042902090565b60008060008351604103612ef45760208401516040850151606086015160001a612ee688828585612f59565b955095509550505050612f00565b50508151600091506002905b9250925092565b60008080612f19620151808504613028565b9196909550909350915050565b805115612f365780518082602001fd5b60405163d6bda27560e01b815260040160405180910390fd5b6000610bd16130c4565b600080807f7fffffffffffffffffffffffffffffff5d576e7357a4501ddfe92f46681b20a0841115612f94575060009150600390508261301e565b604080516000808252602082018084528a905260ff891692820192909252606081018790526080810186905260019060a0016020604051602081039080840390855afa158015612fe8573d6000803e3d6000fd5b5050604051601f1901519150506001600160a01b0381166130145750600092506001915082905061301e565b9250600091508190505b9450945094915050565b60008080836226496581018262023ab1600483020590506004600362023ab18302010590910390600062164b09610fa0600185010205905060046105b58202058303601f019250600061098f846050028161308557613085614434565b0590506000605061098f83020585039050600b820560301994909401606402929092018301996002600c90940290910392909201975095509350505050565b60007f8b73c3c69bb8fe3d512ecc4cf759cc79239f7b179b0ffacaa9a75d522b39400f6130ef613138565b6130f76131a2565b60408051602081019490945283019190915260608201524660808201523060a082015260c00160405160208183030381529060405280519060200120905090565b600060008051602061444b83398151915281613152612449565b80519091501561316a57805160209091012092915050565b81548015613179579392505050565b7fc5d2460186f7233c927e7db2dcc703c0e500b653ca82273b7bfad8045d85a470935050505090565b600060008051602061444b833981519152816131bc61250c565b8051909150156131d457805160209091012092915050565b60018201548015613179579392505050565b6040518061010001604052806000815260200160001515815260200160608152602001600081526020016000815260200160001515815260200160008152602001600081525090565b60405180604001604052806132656040518060800160405280600081526020016000815260200160008152602001600081525090565b81526020016132b66040518061010001604052806000815260200160001515815260200160608152602001600081526020016000815260200160001515815260200160008152602001600081525090565b905290565b80356001600160401b0381168114610d3757600080fd5b6000602082840312156132e457600080fd5b610e0c826132bb565b805182526020808201511515818401526040808301516101009185018290528051918501829052600092019082906101208601905b808310156133455783518252602082019150602084019350600183019250613322565b50606085015160608701526080850151608087015260a0850151925061336f60a087018415159052565b60c085015160c087015260e085015160e087015280935050505092915050565b60a0815260006133a260a08301856132ed565b9050610e0c6020830184805182526020810151602083015260408101516040830152606081015160608301525050565b6000602082840312156133e457600080fd5b81356001600160e01b031981168114610e0c57600080fd5b6000806040838503121561340f57600080fd5b8235915061341f602084016132bb565b90509250929050565b6020815261345b602082018351805182526020810151602083015260408101516040830152606081015160608301525050565b6000602083015160a080840152610c3060c08401826132ed565b60006020828403121561348757600080fd5b5035919050565b602081526000610e0c60208301846132ed565b602080825282518282018190526000918401906040840190835b818110156134e25783516001600160a01b03168352602093840193909201916001016134bb565b509095945050505050565b6000806040838503121561350057600080fd5b50508035926020909101359150565b6001600160a01b038116811461128257600080fd5b80356001600160f01b031981168114610d3757600080fd5b6000806040838503121561354f57600080fd5b823561355a8161350f565b915061341f60208401613524565b60008083601f84011261357a57600080fd5b5081356001600160401b0381111561359157600080fd5b6020830191508360208260051b8501011115612b7857600080fd5b60008060008060008060008060c0898b0312156135c857600080fd5b883597506020890135965060408901356001600160401b038111156135ec57600080fd5b6135f88b828c01613568565b90975095505060608901356001600160401b0381111561361757600080fd5b6136238b828c01613568565b90955093505060808901356136378161350f565b915061364560a08a01613524565b90509295985092959890939650565b634e487b7160e01b600052604160045260246000fd5b604051606081016001600160401b038111828210171561368c5761368c613654565b60405290565b60405161010081016001600160401b038111828210171561368c5761368c613654565b604080519081016001600160401b038111828210171561368c5761368c613654565b604051601f8201601f191681016001600160401b03811182821017156136ff576136ff613654565b604052919050565b60006001600160401b0382111561372057613720613654565b50601f01601f191660200190565b600061374161373c84613707565b6136d7565b905082815283838301111561375557600080fd5b828260208301376000602084830101529392505050565b600082601f83011261377d57600080fd5b610e0c8383356020850161372e565b6000806040838503121561379f57600080fd5b82356137aa8161350f565b915060208301356001600160401b038111156137c557600080fd5b6137d18582860161376c565b9150509250929050565b6000602082840312156137ed57600080fd5b8135610e0c8161350f565b60005b838110156138135781810151838201526020016137fb565b50506000910152565b600081518084526138348160208601602086016137f8565b601f01601f19169290920160200192915050565b60ff60f81b8816815260e06020820152600061386760e083018961381c565b8281036040840152613879818961381c565b606084018890526001600160a01b038716608085015260a0840186905283810360c08501528451808252602080870193509091019060005b818110156138cf5783518352602093840193909201916001016138b1565b50909b9a5050505050505050505050565b6000602082840312156138f257600080fd5b81356001600160401b0381111561390857600080fd5b8201601f8101841361391957600080fd5b610c308482356020840161372e565b60008060006060848603121561393d57600080fd5b8335925060208401359150613954604085016132bb565b90509250925092565b602081526000610e0c602083018461381c565b60006001600160401b0382111561398957613989613654565b5060051b60200190565b600080604083850312156139a657600080fd5b82356001600160401b038111156139bc57600080fd5b8301601f810185136139cd57600080fd5b80356139db61373c82613970565b8082825260208201915060208360051b8501019250878311156139fd57600080fd5b602084015b83811015613ab75780356001600160401b03811115613a2057600080fd5b85016060818b03601f19011215613a3657600080fd5b613a3e61366a565b613a4a602083016132bb565b815260408201356001600160401b03811115613a6557600080fd5b613a748c60208386010161376c565b60208301525060608201356001600160401b03811115613a9357600080fd5b613aa28c60208386010161376c565b60408301525084525060209283019201613a02565b50945050505060208301356001600160401b038111156137c557600080fd5b60008060008060408587031215613aec57600080fd5b84356001600160401b03811115613b0257600080fd5b613b0e87828801613568565b90955093505060208501356001600160401b03811115613b2d57600080fd5b613b3987828801613568565b95989497509550505050565b60008060408385031215613b5857600080fd5b613b61836132bb565b946020939093013593505050565b80518015158114610d3757600080fd5b600082601f830112613b9057600080fd5b8151613b9e61373c82613970565b8082825260208201915060208360051b860101925085831115613bc057600080fd5b602085015b83811015613bdd578051835260209283019201613bc5565b5095945050505050565b60006101008284031215613bfa57600080fd5b613c02613692565b825181529050613c1460208301613b6f565b602082015260408201516001600160401b03811115613c3257600080fd5b613c3e84828501613b7f565b6040830152506060828101519082015260808083015190820152613c6460a08301613b6f565b60a082015260c0828101519082015260e09182015191810191909152919050565b60008082840360a0811215613c9957600080fd5b83516001600160401b03811115613caf57600080fd5b613cbb86828701613be7565b9350506080601f1982011215613cd057600080fd5b50604051608081016001600160401b0381118282101715613cf357613cf3613654565b60409081526020858101518352858201519083015260608086015191830191909152608090940151938101939093525092909150565b600060208284031215613d3b57600080fd5b5051919050565b600060208284031215613d5457600080fd5b81516001600160401b03811115613d6a57600080fd5b610c3084828501613be7565b60008251613d888184602087016137f8565b9190910192915050565b60006060828403128015613da557600080fd5b50613dae61366a565b82518152602080840151908201526040928301519281019290925250919050565b634e487b7160e01b600052603260045260246000fd5b600181811c90821680613df957607f821691505b602082108103613e1957634e487b7160e01b600052602260045260246000fd5b50919050565b600082601f830112613e3057600080fd5b613e3a60406136d7565b806040840185811115613e4c57600080fd5b845b818110156134e2578051845260209384019301613e4e565b6000806000806101208587031215613e7d57600080fd5b84516001600160401b03811115613e9357600080fd5b613e9f87828801613b7f565b945050613eaf8660208701613e1f565b925085607f860112613ec057600080fd5b6040613ecb816136d7565b8060e0880189811115613edd57600080fd5b606089015b81811015613f0357613ef48b82613e1f565b84526020909301928401613ee2565b50819550613f118a82613e1f565b94505050505092959194509250565b600060208284031215613f3257600080fd5b81516001600160401b03811115613f4857600080fd5b8201601f81018413613f5957600080fd5b8051613f6761373c82613970565b8082825260208201915060208360051b850101925086831115613f8957600080fd5b602084015b8381101561407a5780516001600160401b03811115613fac57600080fd5b8501808903601f19016060811215613fc357600080fd5b613fcb6136b5565b6040821215613fd957600080fd5b613fe16136b5565b60208481015182526040850151908201528152606083015191506001600160401b0382111561400f57600080fd5b60208284010192508a601f84011261402657600080fd5b8251915061403661373c83613707565b8281528b602084860101111561404b57600080fd5b61405c8360208301602087016137f8565b80602083015250808652505050602083019250602081019050613f8e565b509695505050505050565b6000808335601e1984360301811261409c57600080fd5b8301803591506001600160401b038211156140b657600080fd5b602001915036819003821315612b7857600080fd5b8183823760009101908152919050565b601f8211156123ae57806000526020600020601f840160051c810160208510156141025750805b601f840160051c820191505b81811015614122576000815560010161410e565b5050505050565b6001600160401b0383111561414057614140613654565b6141548361414e8354613de5565b836140db565b6000601f84116001811461418857600085156141705750838201355b600019600387901b1c1916600186901b178355614122565b600083815260209020601f19861690835b828110156141b95786850135825560209485019460019092019101614199565b50868210156141d65760001960f88860031b161c19848701351681555b505060018560011b0183555050505050565b634e487b7160e01b600052601160045260246000fd5b600060018201614210576142106141e8565b5060010190565b6060815283606082015283856080830137600060808583018101919091526001600160a01b039390931660208201526040810191909152601f909201601f191690910101919050565b81516001600160401b0381111561427957614279613654565b61428d816142878454613de5565b846140db565b6020601f8211600181146142c157600083156142a95750848201515b600019600385901b1c1916600184901b178455614122565b600084815260208120601f198516915b828110156142f157878501518255602094850194600190920191016142d1565b508482101561430f5786840151600019600387901b60f8161c191681555b50505050600190811b01905550565b8060005b60028110156128bd578151845260209384019390910190600101614322565b6101c08101614350828761431e565b604082018560005b60028110156143825761436c83835161431e565b6040929092019160209190910190600101614358565b50505061439260c083018561431e565b61010082018360005b60068110156143ba57815183526020928301929091019060010161439b565b50505095945050505050565b6000602082840312156143d857600080fd5b610e0c82613b6f565b634e487b7160e01b600052602160045260246000fd5b80820180821115610c0757610c076141e8565b81810381811115610c0757610c076141e8565b8082028115828204841417610c0757610c076141e8565b634e487b7160e01b600052601260045260246000fdfea16a46d94261c7517cc8ff89f61c0ce93598e3c849801011dee649a6a557d100360894a13ba1a3210667c828492db98dca3e2076cc3735a920a3ca505d382bbca2646970667358221220d9dd5bf2d81ede5e36f124a4d059403bcd41d1bcabc169b3d26ed0ed9bc0738f64736f6c634300081b0033",
  "linkReferences": {
    "@iden3/contracts/lib/IdentityLib.sol": {
      "IdentityLib": [
        {
          "length": 20,
          "start": 3042
        },
        {
          "length": 20,
          "start": 3183
        },
        {
          "length": 20,
          "start": 3494
        },
        {
          "length": 20,
          "start": 3750
        },
        {
          "length": 20,
          "start": 3909
        },
        {
          "length": 20,
          "start": 3995
        },
        {
          "length": 20,
          "start": 4104
        },
        {
          "length": 20,
          "start": 4661
        },
        {
          "length": 20,
          "start": 5547
        },
        {
          "length": 20,
          "start": 5742
        },
        {
          "length": 20,
          "start": 6842
        },
        {
          "length": 20,
          "start": 6921
        },
        {
          "length": 20,
          "start": 7028
        },
        {
          "length": 20,
          "start": 7852
        },
        {
          "length": 20,
          "start": 8317
        },
        {
          "length": 20,
          "start": 8436
        },
        {
          "length": 20,
          "start": 11936
        },
        {
          "length": 20,
          "start": 12044
        }
      ]
    }
  },
  "deployedLinkReferences": {
    "@iden3/contracts/lib/IdentityLib.sol": {
      "IdentityLib": [
        {
          "length": 20,
          "start": 2789
        },
        {
          "length": 20,
          "start": 2930
        },
        {
          "length": 20,
          "start": 3241
        },
        {
          "length": 20,
          "start": 3497
        },
        {
          "length": 20,
          "start": 3656
        },
        {
          "length": 20,
          "start": 3742
        },
        {
          "length": 20,
          "start": 3851
        },
        {
          "length": 20,
          "start": 4408
        },
        {
          "length": 20,
          "start": 5294
        },
        {
          "length": 20,
          "start": 5489
        },
        {
          "length": 20,
          "start": 6589
        },
        {
          "length": 20,
          "start": 6668
        },
        {
          "length": 20,
          "start": 6775
        },
        {
          "length": 20,
          "start": 7599
        },
        {
          "length": 20,
          "start": 8064
        },
        {
          "length": 20,
          "start": 8183
        },
        {
          "length": 20,
          "start": 11683
        },
        {
          "length": 20,
          "start": 11791
        }
      ]
    }
  }
}