{
  "_format": "hh-sol-artifact-1",
  "contractName": "Verifier_credential_sha224",
  "sourceName": "contracts/verifiers/credential/Verifier_credential_sha224.sol",
  "abi": [
    {
      "inputs": [
        {
          "internalType": "uint256[2]",
          "name": "_pA",
          "type": "uint256[2]"
        },
        {
          "internalType": "uint256[2][2]",
          "name": "_pB",
          "type": "uint256[2][2]"
        },
        {
          "internalType": "uint256[2]",
          "name": "_pC",
          "type": "uint256[2]"
        },
        {
          "internalType": "uint256[8]",
          "name": "_pubSignals",
          "type": "uint256[8]"
        }
      ],
      "name": "verifyProof",
      "outputs": [
        {
          "internalType": "bool",
          "name": "",
          "type": "bool"
        }
      ],
      "stateMutability": "view",
      "type": "function"
    }
  ],
  "bytecode": "0x6080604052348015600f57600080fd5b506107ea8061001f6000396000f3fe608060405234801561001057600080fd5b506004361061002b5760003560e01c8063c9219a7a14610030575b600080fd5b61004361003e36600461074d565b610057565b604051901515815260200160405180910390f35b60006106aa565b7f30644e72e131a029b85045b68181585d2833e84879b9709143e1f593f0000001811061008f576000805260206000f35b50565b600060405183815284602082015285604082015260408160608360076107d05a03fa9150816100c5576000805260206000f35b825160408201526020830151606082015260408360808360066107d05a03fa915050806100f6576000805260206000f35b5050505050565b7f07d90eb2dea66a63edd5205755d9024ae1095492b3cf9214c993d6a8d1e3c77a85527f0302db0269592504dbe8391fee666da179c1d1bfc29dcbaee4f2ad6450e35cf960208601526000608086018661019a87357f2874037ead7fd021fdcd1b54446858316e7ca790c8bd7fc4b5530cc9bf3bfda57f0c24678f264d32927875abffd858a688be5a4b40001bbe6eaed145bbef37a15684610092565b6101ea60208801357f1c8c306c8ac12ca21896651cf70397500befaacc4e61cb5cd963ec0a29dfc4487f2ff3fac583976d5175fcb9aa55caa15a4ceea3ff4fc3d68f06b1c849c512a3e384610092565b61023a60408801357f0f8da12884bc1f875c41a4a751115d9ea76a3ace005b78974db5670ae00c5ebb7f0605a0dd9e63c3fc976ea4f96d30181b79930d0637520f2dccc1667ffc22668b84610092565b61028a60608801357f22fc416b96fb95e6b2a42eb9a38da1ed55732637bc09238f8b9aacff5f2346347f09c8c723221e266967c28c17f6bcc87e6717cba95fd8b7ffeca7ce0195456fac84610092565b6102da60808801357f03c134bcec4d246502febb9d3386fc979b057fd4646b47cad113250845a17c4a7f02bb8e018311d3055021612cea141cd7ccb64d34337664bcd22932658822d75284610092565b61032a60a08801357f1cd9045eaca91e1b4a69620f81011c6bfc6e65131fc9ed22266730a904c6fac47f1003cef2a19b0e809ebe6666f1fd7001e7067e32cb4eb2c5b141b67291a1b74e84610092565b61037a60c08801357f04800c964808aafbef906ebe6585ce585f5f07ea03baada8cf15f343599a7d4d7f19d70d03ed1a8a3c8e45c411584016c4faa9655a4ea17e58acbf19ec8e3d7d9f84610092565b6103ca60e08801357f07a18fb63938bd97caf1c782b72a1b6f06193522f5a7fa3f2578bd615ce409a57f18b925ec17541cef2f19b7611d87761b996dd822cac3d39f96653ddff215b36584610092565b50823581527f30644e72e131a029b85045b68181585d97816a916871ca8d3c208c16d87cfd4760208401357f30644e72e131a029b85045b68181585d97816a916871ca8d3c208c16d87cfd4703066020820152833560408201526020840135606082015260408401356080820152606084013560a08201527f2d4d9aa7e302d9df41749d5507949d05dbea33fbb16c643b22f599a2be6df2e260c08201527f14bedd503c37ceb061d8ec60209fe345ce89830a19230301f076caff004d192660e08201527f0967032fcbf776d1afc985f88877f182d38480a653f2decaa9794cbc3bf3060c6101008201527f0e187847ad4c798374d0d6732bf501847dd68bc0e071241e0213bc7fc13db7ab6101208201527f304cfbd1e08a704a99f5e847d93f8c3caafddec46b7a0d379da69a4d112346a76101408201527f1739c1b1a457a8c7313123d24d2f9192f896b7c63eea05a9d57f06547ad0cec8610160820152600087015161018082015260206000018701516101a08201527f198e9393920d483a7260bfb731fb5d25f1aa493335a9e71297e485b7aef312c26101c08201527f1800deef121f1e76426a00665e5c4479674322d4f75edadd46debd5cd992f6ed6101e08201527f090689d0585ff075ec9e99ad690c3395bc4b313370b38ef355acdadcd122975b6102008201527f12c85ea5db8c6deb4aab71808dcb408fe3d1e7690c43d37b4ce6cc0166fa7daa610220820152843561024082015260208501356102608201527f06133d97eadc1a20c0d951e5f78f8ce426223c32628da02f7abbb02ec4a5c0b86102808201527f2af9e2b22217b6017b0fa9709c6f41e5ccb27ab14961b49614aff972b7caf9956102a08201527f1ba69d360410e4db5489f56cd317ebb8887af5862aa5866a45d3efb8914b24ea6102c08201527f0de23d6c74d773b6feace11cb710fb0fe83ae604b12a90d61ecc293393fae1dd6102e08201526020816103008360086107d05a03fa9051169695505050505050565b60405161038081016040526106c2600084013561005e565b6106cf602084013561005e565b6106dc604084013561005e565b6106e9606084013561005e565b6106f6608084013561005e565b61070360a084013561005e565b61071060c084013561005e565b61071d60e084013561005e565b61072a818486888a6100fd565b90508060005260206000f35b806040810183101561074757600080fd5b92915050565b600080600080610200858703121561076457600080fd5b61076e8686610736565b935060c085018681111561078157600080fd5b6040860193506107918782610736565b92505085610200860111156107a557600080fd5b5091949093509091610100019056fea2646970667358221220039fe8742e6e325f0d267bb1b32ed24b9d06fb05f76323a8be2a64c25281da2064736f6c634300081b0033",
  "linkReferences": {},
  "deployedLinkReferences": {}
}