{
  "_format": "hh-sol-artifact-1",
  "contractName": "SmtLib",
  "sourceName": "@iden3/contracts/lib/SmtLib.sol",
  "abi": [
    {
      "inputs": [],
      "name": "MAX_DEPTH_HARD_CAP",
      "outputs": [
        {
          "internalType": "uint256",
          "name": "",
          "type": "uint256"
        }
      ],
      "stateMutability": "view",
      "type": "function"
    },
    {
      "inputs": [],
      "name": "ROOT_INFO_LIST_RETURN_LIMIT",
      "outputs": [
        {
          "internalType": "uint256",
          "name": "",
          "type": "uint256"
        }
      ],
      "stateMutability": "view",
      "type": "function"
    }
  ],
  "bytecode": "0x611dc1610039600b82828239805160001a607314602c57634e487b7160e01b600052600060045260246000fd5b30600052607381538281f3fe73000000000000000000000000000000000000000030146080604052600436106101405760003560e01c806379f97125116100c2578063a751be2411610086578063a751be24146102d5578063c1d29f01146102de578063dc9a7c8c146102fe578063dea7633a14610311578063e170cf6e14610324578063ec1451081461034457600080fd5b806379f9712514610244578063893f99f31461025757806391761b751461026c57806392f5b06c1461027f5780639e43b813146102b557600080fd5b806340a73d981161010957806340a73d98146101ed5780635db40cda146101f657806362e8f21514610209578063792a470f1461021e57806379c17a961461023157600080fd5b806278f030146101455780630912610a1461016b578063138271361461018d57806317c850f0146101ad57806321d60953146101cd575b600080fd5b6101586101533660046119b6565b61035c565b6040519081526020015b60405180910390f35b81801561017757600080fd5b5061018b6101863660046119b6565b610374565b005b6101a061019b3660046119d8565b61048d565b6040516101629190611a04565b6101c06101bb3660046119b6565b6104bb565b6040516101629190611ab5565b6101e06101db3660046119d8565b610526565b6040516101629190611af8565b6101586103e881565b6101a06102043660046119b6565b6105f2565b610158610217366004611b7b565b6001015490565b6101a061022c3660046119d8565b610608565b6101a061023f3660046119d8565b61061c565b610158610252366004611b7b565b610899565b610158610265366004611b7b565b6003015490565b6101e061027a366004611b94565b61092b565b6102a561028d3660046119b6565b60009081526002919091016020526040902054151590565b6040519015158152602001610162565b8180156102c157600080fd5b5061018b6102d03660046119b6565b610a56565b61015861010081565b8180156102ea57600080fd5b5061018b6102f93660046119d8565b610ad4565b6101c061030c3660046119b6565b610b85565b6101c061031f3660046119b6565b610be9565b6103376103323660046119b6565b610c77565b6040516101629190611bdc565b6102a5610352366004611b7b565b6004015460ff1690565b60008181526002830160205260409020545b92915050565b600081116103d55760405162461bcd60e51b815260206004820152602360248201527f4d6178206465707468206d7573742062652067726561746572207468616e207a60448201526265726f60e81b60648201526084015b60405180910390fd5b816003015481116104285760405162461bcd60e51b815260206004820152601f60248201527f4d61782064657074682063616e206f6e6c7920626520696e637265617365640060448201526064016103cc565b6101008111156104855760405162461bcd60e51b815260206004820152602260248201527f4d61782064657074682069732067726561746572207468616e20686172642063604482015261061760f41b60648201526084016103cc565b600390910155565b610495611907565b60006104a185846104bb565b90506104b28585836000015161061c565b95945050505050565b6104c3611950565b428211156105135760405162461bcd60e51b815260206004820152601c60248201527f4e6f206675747572652074696d657374616d707320616c6c6f7765640000000060448201526064016103cc565b61051f83836000610cf4565b9392505050565b6060600080610540866001018054905086866103e8610d2f565b909250905060006105518383611c49565b67ffffffffffffffff81111561056957610569611c5c565b6040519080825280602002602001820160405280156105a257816020015b61058f611950565b8152602001906001900390816105875790505b509050825b828110156105e7576105b98882610e3d565b826105c48684611c49565b815181106105d4576105d4611c72565b60209081029190910101526001016105a7565b509695505050505050565b6105fa611907565b61051f838361023f86610899565b610610611907565b60006104a18584610b85565b610624611907565b6000828152600285016020526040902054849083906106555760405162461bcd60e51b81526004016103cc90611c88565b6000866003015467ffffffffffffffff81111561067457610674611c5c565b60405190808252806020026020018201604052801561069d578160200160208202803683370190505b50905060005b87600301548110156106d65760008282815181106106c3576106c3611c72565b60209081029190910101526001016106a3565b506040805161010081018252868152600060208201819052918101839052606081018890526080810182905260a0810182905260c0810182905260e081019190915285610721611986565b60005b8a60030154811161088a576107398b84610c77565b915060008251600281111561075057610750611bc6565b1461088a5760018251600281111561076a5761076a611bc6565b036107bb57836060015182606001510361079457600160208501526080808301519085015261088a565b600160a0850152606082015160c08501526080808301805160e0870152519085015261088a565b6002825160028111156107d0576107d0611bc6565b0361083c57808460600151901c60011660010361081a578160400151925081602001518460400151828151811061080957610809611c72565b602002602001018181525050610878565b8160200151925081604001518460400151828151811061080957610809611c72565b60405162461bcd60e51b8152602060048201526011602482015270496e76616c6964206e6f6465207479706560781b60448201526064016103cc565b8061088281611cb5565b915050610724565b50919998505050505050505050565b6000816108aa816004015460ff1690565b6108ef5760405162461bcd60e51b815260206004820152601660248201527514db5d081a5cc81b9bdd081a5b9a5d1a585b1a5e995960521b60448201526064016103cc565b60018084018054909161090191611c49565b8154811061091157610911611c72565b906000526020600020906003020160000154915050919050565b60008381526002850160205260409020546060908590859061095f5760405162461bcd60e51b81526004016103cc90611c88565b60008681526002880160205260408120805490919081906109849089896103e8610d2f565b909250905060006109958383611c49565b67ffffffffffffffff8111156109ad576109ad611c5c565b6040519080825280602002602001820160405280156109e657816020015b6109d3611950565b8152602001906001900390816109cb5790505b509050825b82811015610a4757610a198c868381548110610a0957610a09611c72565b9060005260206000200154610e3d565b82610a248684611c49565b81518110610a3457610a34611c72565b60209081029190910101526001016109eb565b509a9950505050505050505050565b600482015460ff1615610aab5760405162461bcd60e51b815260206004820152601a60248201527f536d7420697320616c726561647920696e697469616c697a656400000000000060448201526064016103cc565b610ab58282610374565b610ac3826000806000610f80565b50600401805460ff19166001179055565b82610ae3816004015460ff1690565b610b285760405162461bcd60e51b815260206004820152601660248201527514db5d081a5cc81b9bdd081a5b9a5d1a585b1a5e995960521b60448201526064016103cc565b6040805160a08101825260018152600060208201819052918101829052606081018590526080810184905290610b5d86610899565b90506000610b6e8784846000611000565b9050610b7c87824243610f80565b50505050505050565b610b8d611950565b43821115610bdd5760405162461bcd60e51b815260206004820152601860248201527f4e6f2066757475726520626c6f636b7320616c6c6f776564000000000000000060448201526064016103cc565b61051f83836001610cf4565b610bf1611950565b600082815260028401602052604090205483908390610c225760405162461bcd60e51b81526004016103cc90611c88565b6000848152600286016020526040812080549091908290610c4590600190611c49565b81548110610c5557610c55611c72565b90600052602060002001549050610c6c8782610e3d565b979650505050505050565b610c7f611986565b60008281526020849052604090819020815160a081019092528054829060ff166002811115610cb057610cb0611bc6565b6002811115610cc157610cc1611bc6565b81526001820154602082015260028201546040820152600382015460608201526004909101546080909101529392505050565b610cfc611950565b600080610d0a86868661121a565b9150915080610d1b57610d1b611cce565b610d258683610e3d565b9695505050505050565b60008060008411610d825760405162461bcd60e51b815260206004820152601f60248201527f4c656e6774682073686f756c642062652067726561746572207468616e20300060448201526064016103cc565b82841115610dca5760405162461bcd60e51b815260206004820152601560248201527413195b99dd1a081b1a5b5a5d08195e18d959591959605a1b60448201526064016103cc565b858510610e195760405162461bcd60e51b815260206004820152601960248201527f537461727420696e646578206f7574206f6620626f756e64730000000000000060448201526064016103cc565b6000610e258587611ce4565b905086811115610e325750855b949694955050505050565b610e45611950565b600183810154600091610e5791611c49565b831490506000846001018481548110610e7257610e72611c72565b906000526020600020906003020190506040518060c001604052808260000154815260200183610ed45786600101866001610ead9190611ce4565b81548110610ebd57610ebd611c72565b906000526020600020906003020160000154610ed7565b60005b81526020018260010154815260200183610f235786600101866001610efc9190611ce4565b81548110610f0c57610f0c611c72565b906000526020600020906003020160010154610f26565b60005b81526020018260020154815260200183610f725786600101866001610f4b9190611ce4565b81548110610f5b57610f5b611c72565b906000526020600020906003020160020154610f75565b60005b905295945050505050565b6040805160608101825284815260208082018581528284018581526001808a018054808301825560008281528681209751600390920290970190815593518483015591516002938401558885529189019092529290912090549091610fe491611c49565b8154600181018355600092835260209092209091015550505050565b6000846003015482111561104a5760405162461bcd60e51b815260206004820152601160248201527013585e0819195c1d1a081c995858da1959607a1b60448201526064016103cc565b600083815260208690526040808220815160a081019092528054829060ff16600281111561107a5761107a611bc6565b600281111561108b5761108b611bc6565b8152600182015460208201526002820154604082015260038201546060820152600490910154608090910152905060008080835160028111156110d0576110d0611bc6565b036110e6576110df88886113f1565b905061120d565b6001835160028111156110fb576110fb611bc6565b0361112a5786606001518360600151146111205761111b8888858861156a565b6110df565b6110df88886113f1565b60028351600281111561113f5761113f611bc6565b0361120d5761114c611986565b858860600151901c6001166001036111b35761117a898986604001518960016111759190611ce4565b611000565b6040805160a0810190915290935080600281526020018560200151815260200184815260200160008152602001600081525090506111ff565b6111ca898986602001518960016111759190611ce4565b6040805160a0810190915290935080600281526020018481526020018560400151815260200160008152602001600081525090505b61120989826113f1565b9150505b925050505b949350505050565b600183015460009081908103611235575060009050806113e9565b600185810154600091829161124a9190611c49565b905060005b8183116113e05760026112628484611ce4565b61126c9190611cf7565b905060006112c589600101838154811061128857611288611c72565b906000526020600020906003020160405180606001604052908160008201548152602001600182015481526020016002820154815250508861171a565b905087810361138a575b6001898101546112df9190611c49565b82101561137b5760006113498a6001018460016112fc9190611ce4565b8154811061130c5761130c611c72565b906000526020600020906003020160405180606001604052908160008201548152602001600182015481526020016002820154815250508961171a565b9050888103611364578261135c81611cb5565b935050611375565b8260019650965050505050506113e9565b506112cf565b509350600192506113e9915050565b808811156113a45761139d826001611ce4565b93506113da565b80881080156113b35750600082115b156113ca576113c3600183611c49565b92506113da565b60008095509550505050506113e9565b5061124f565b50925060019150505b935093915050565b6000806113fd836117a2565b90506000808281526020869052604090205460ff16600281111561142357611423611bc6565b14611504578251600281111561143b5761143b611bc6565b60008281526020869052604090205460ff16600281111561145e5761145e611bc6565b1461146b5761146b611cce565b6020808401516000838152918690526040909120600101541461149057611490611cce565b604080840151600083815260208790529190912060020154146114b5576114b5611cce565b6060830151600082815260208690526040902060030154146114d9576114d9611cce565b6080830151600082815260208690526040902060040154146114fd576114fd611cce565b905061036e565b60008181526020859052604090208351815485929190829060ff1916600183600281111561153457611534611bc6565b02179055506020820151600182015560408201516002820155606082015160038201556080909101516004909101559392505050565b6000846003015482106115b35760405162461bcd60e51b815260206004820152601160248201527013585e0819195c1d1a081c995858da1959607a1b60448201526064016103cc565b6115bb611986565b60608086015190850151600191851c821682149190851c8116148082036116735760006115f48989896115ef8a6001611ce4565b61156a565b9050821561162f576040805160a08101909152806002815260200160008152602001828152602001600081526020016000815250935061165e565b6040805160a0810190915280600281526020018281526020016000815260200160008152602001600081525093505b61166889856113f1565b945050505050611212565b81156116bb576040805160a081019091528060028152602001611695886117a2565b81526020016116a3896117a2565b815260200160008152602001600081525092506116f9565b6040805160a0810190915280600281526020016116d7896117a2565b81526020016116e5886117a2565b815260200160008152602001600081525092505b61170388886113f1565b5061170e88846113f1565b98975050505050505050565b6000600182600181111561173057611730611bc6565b036117405750604082015161036e565b600082600181111561175457611754611bc6565b036117645750602082015161036e565b60405162461bcd60e51b8152602060048201526013602482015272496e76616c696420736561726368207479706560681b60448201526064016103cc565b6000806001835160028111156117ba576117ba611bc6565b0361185e57604080516060808201835285015181526080850151602082015260018183015290516304b98e1d60e31b815273__$03320550cd1b629da90608251571b2532e$__906325cc70e890611815908490600401611d19565b602060405180830381865af4158015611832573d6000803e3d6000fd5b505050506040513d601f19601f820116820180604052508101906118569190611d4a565b91505061036e565b60028351600281111561187357611873611bc6565b0361036e576040805180820182526020808601518252858301519082015290516314d2f97b60e11b815273__$ebe82a1924a894141c89e6680d3cbc7e88$__916329a5f2f6916118c69190600401611d63565b602060405180830381865af41580156118e3573d6000803e3d6000fd5b505050506040513d601f19601f8201168201806040525081019061051f9190611d4a565b6040518061010001604052806000815260200160001515815260200160608152602001600081526020016000815260200160001515815260200160008152602001600081525090565b6040518060c001604052806000815260200160008152602001600081526020016000815260200160008152602001600081525090565b6040805160a081019091528060008152602001600081526020016000815260200160008152602001600081525090565b600080604083850312156119c957600080fd5b50508035926020909101359150565b6000806000606084860312156119ed57600080fd5b505081359360208301359350604090920135919050565b6020815260006101208201835160208401526020840151151560408401526040840151610100606085015281815180845261014086019150602083019350600092505b80831015611a6a5783518252602082019150602084019350600183019250611a47565b5060608601516080860152608086015160a086015260a08601519250611a9460c086018415159052565b60c086015160e086015260e086015161010086015280935050505092915050565b60c0810161036e8284805182526020810151602083015260408101516040830152606081015160608301526080810151608083015260a081015160a08301525050565b602080825282518282018190526000918401906040840190835b81811015611b7057611b5a838551805182526020810151602083015260408101516040830152606081015160608301526080810151608083015260a081015160a08301525050565b6020939093019260c09290920191600101611b12565b509095945050505050565b600060208284031215611b8d57600080fd5b5035919050565b60008060008060808587031215611baa57600080fd5b5050823594602084013594506040840135936060013592509050565b634e487b7160e01b600052602160045260246000fd5b815160a082019060038110611c0157634e487b7160e01b600052602160045260246000fd5b808352506020830151602083015260408301516040830152606083015160608301526080830151608083015292915050565b634e487b7160e01b600052601160045260246000fd5b8181038181111561036e5761036e611c33565b634e487b7160e01b600052604160045260246000fd5b634e487b7160e01b600052603260045260246000fd5b602080825260139082015272149bdbdd08191bd95cc81b9bdd08195e1a5cdd606a1b604082015260600190565b600060018201611cc757611cc7611c33565b5060010190565b634e487b7160e01b600052600160045260246000fd5b8082018082111561036e5761036e611c33565b600082611d1457634e487b7160e01b600052601260045260246000fd5b500490565b60608101818360005b6003811015611d41578151835260209283019290910190600101611d22565b50505092915050565b600060208284031215611d5c57600080fd5b5051919050565b60408101818360005b6002811015611d41578151835260209283019290910190600101611d6c56fea264697066735822122071bcc64c8a2a1640d7f892fc5f15aad8b6c4bd00ad037059279187506c93e5d064736f6c634300081b0033",
  "linkReferences": {
    "@iden3/contracts/lib/Poseidon.sol": {
      "PoseidonUnit2L": [
        {
          "length": 20,
          "start": 6360
        }
      ],
      "PoseidonUnit3L": [
        {
          "length": 20,
          "start": 6182
        }
      ]
    }
  },
  "deployedLinkReferences": {
    "@iden3/contracts/lib/Poseidon.sol": {
      "PoseidonUnit2L": [
        {
          "length": 20,
          "start": 6303
        }
      ],
      "PoseidonUnit3L": [
        {
          "length": 20,
          "start": 6125
        }
      ]
    }
  }
}