{
  "_format": "hh-sol-artifact-1",
  "contractName": "Verifier_anon_aadhaar_v1",
  "sourceName": "contracts/verifiers/anonAadhaarV1/Verifier_anon_aadhaar_v1.sol",
  "abi": [
    {
      "inputs": [
        {
          "internalType": "uint256[2]",
          "name": "_pA",
          "type": "uint256[2]"
        },
        {
          "internalType": "uint256[2][2]",
          "name": "_pB",
          "type": "uint256[2][2]"
        },
        {
          "internalType": "uint256[2]",
          "name": "_pC",
          "type": "uint256[2]"
        },
        {
          "internalType": "uint256[10]",
          "name": "_pubSignals",
          "type": "uint256[10]"
        }
      ],
      "name": "verifyProof",
      "outputs": [
        {
          "internalType": "bool",
          "name": "",
          "type": "bool"
        }
      ],
      "stateMutability": "view",
      "type": "function"
    }
  ],
  "bytecode": "0x6080604052348015600f57600080fd5b506108a68061001f6000396000f3fe608060405234801561001057600080fd5b506004361061002b5760003560e01c8063f3bb70f614610030575b600080fd5b61004361003e366004610809565b610057565b604051901515815260200160405180910390f35b600061074a565b7f30644e72e131a029b85045b68181585d2833e84879b9709143e1f593f0000001811061008f576000805260206000f35b50565b600060405183815284602082015285604082015260408160608360076107d05a03fa9150816100c5576000805260206000f35b825160408201526020830151606082015260408360808360066107d05a03fa915050806100f6576000805260206000f35b5050505050565b7f2bd8a0ed59a2aa940c5dd05efbb7414319fea154fc6fb9ae54a28d82ac97246d85527f1c0ef73657ac39b9401fd8f8450eae33c6b72c89f64564b04544fed5d753775d60208601526000608086018661019a87357f2559b64e8c0f7f9ef0f028a89d4ee32c4f94b33eff37e60791bf21e1589eb8387f15cfb07a802f3bbe448f806fbfa79448c6a2615d3cb32eb14e6a60499fff0a7384610092565b6101ea60208801357f19c9e17c4ceed864491a21ada36d391f6096ca09a2f1235626859392831f88097f1e2dae6855a00abca9aca47802d24fc0e3006234e8d2b37cb74fe9776425fc8584610092565b61023a60408801357f0e8e226950fa1ec3de22ff49e9b6d7aea6dbb35af78f05f97efbd48aacfab9947f0ccffd9a567ad0df21b63f9d1bb8801a4cfd5055677f9ef7f5dde7cb79ae072f84610092565b61028960608801357f2e65a079ec780ed897d8bab8d42008f4334175fb0f193a27470dc7ee3e6c462d7e91c9c14e6ef1a5a279905231f99dff4163bef8558b6de39cada2f771f8e9c084610092565b6102d960808801357f24adca73b3f2c5b478f4b936c32cb3ce37554292110c5398d78e4f6d9b571fb67f1ab97a4797800d2988506ea86d1ec4ddb2c03a0ed91cec4523e54302231e0a0184610092565b61032960a08801357f20083a83f755ef140ee49f888187fb171f2eb112c833d96480d37776a1be22e67f0df039fd2e2046f94f26a80e9594b1b29488c47f3aadf90e62006f3abcc56f5084610092565b61037960c08801357f154325cd93b197f51c3b22ae24e3b4801d2cdf4bcb579f9e4ccdbb9958283e327f1c9060db3ea57539bec5d49e8de0c05da8b01a3e5ca6a40cb5df76f8160cb01284610092565b6103c860e08801357f2aafce561dd9dce63528710f4c592ce153bf1b7a12f34bbc7148f0acb0dc65457ef438f228e64e9f64b3a434593356a960e37eb9aeb8ce234d1515d5510a823f84610092565b6104196101008801357f1ed4f77da90ecda33006c6a357daa9176f0cc6f406e48249258ba14fcc3e57057f1e5d5bc968b95fda37cc906b7aff539f39d22e3e3042f636e4ab68c323bc2be684610092565b61046a6101208801357f2381007ac73e773db80c727e0a2e6923347411be9adfacf798af600ac471f02e7f26a26ff46e675bc3c07d9fef469a85da2b32f10f1bdfc9b9f4d72704f7cae9cd84610092565b50823581527f30644e72e131a029b85045b68181585d97816a916871ca8d3c208c16d87cfd4760208401357f30644e72e131a029b85045b68181585d97816a916871ca8d3c208c16d87cfd4703066020820152833560408201526020840135606082015260408401356080820152606084013560a08201527f2d4d9aa7e302d9df41749d5507949d05dbea33fbb16c643b22f599a2be6df2e260c08201527f14bedd503c37ceb061d8ec60209fe345ce89830a19230301f076caff004d192660e08201527f0967032fcbf776d1afc985f88877f182d38480a653f2decaa9794cbc3bf3060c6101008201527f0e187847ad4c798374d0d6732bf501847dd68bc0e071241e0213bc7fc13db7ab6101208201527f304cfbd1e08a704a99f5e847d93f8c3caafddec46b7a0d379da69a4d112346a76101408201527f1739c1b1a457a8c7313123d24d2f9192f896b7c63eea05a9d57f06547ad0cec8610160820152600087015161018082015260206000018701516101a08201527f198e9393920d483a7260bfb731fb5d25f1aa493335a9e71297e485b7aef312c26101c08201527f1800deef121f1e76426a00665e5c4479674322d4f75edadd46debd5cd992f6ed6101e08201527f090689d0585ff075ec9e99ad690c3395bc4b313370b38ef355acdadcd122975b6102008201527f12c85ea5db8c6deb4aab71808dcb408fe3d1e7690c43d37b4ce6cc0166fa7daa610220820152843561024082015260208501356102608201527f12e43c9bb0b129fd9fbd5827530660abf70a55968f37c3ebb31f42d83c593fd56102808201527f21dfdb007238fd96f9d3169ab32bcba32c35f5ccc7afe404e7024d9e7937b9ee6102a08201527f2731bd6494a38c393aabfbcf4f81f7e3655859960ede6f59363e3dc810a8267d6102c08201527f1165c632f815a9196c20bc4e82f4abf8f3ba3b55acaa9ac081d290a598c153416102e08201526020816103008360086107d05a03fa9051169695505050505050565b6040516103808101604052610762600084013561005e565b61076f602084013561005e565b61077c604084013561005e565b610789606084013561005e565b610796608084013561005e565b6107a360a084013561005e565b6107b060c084013561005e565b6107bd60e084013561005e565b6107cb61010084013561005e565b6107d961012084013561005e565b6107e6818486888a6100fd565b90508060005260206000f35b806040810183101561080357600080fd5b92915050565b600080600080610240858703121561082057600080fd5b61082a86866107f2565b935060c085018681111561083d57600080fd5b60408601935061084d87826107f2565b925050856102408601111561086157600080fd5b5091949093509091610100019056fea2646970667358221220a947aedd0964e7da20af99e82f9fd6c4194f507f935f7355885d36aa599c466564736f6c634300081b0033",
  "linkReferences": {},
  "deployedLinkReferences": {}
}