{
  "_format": "hh-sol-artifact-1",
  "contractName": "Verifier_credential_sha1",
  "sourceName": "contracts/verifiers/credential/Verifier_credential_sha1.sol",
  "abi": [
    {
      "inputs": [
        {
          "internalType": "uint256[2]",
          "name": "_pA",
          "type": "uint256[2]"
        },
        {
          "internalType": "uint256[2][2]",
          "name": "_pB",
          "type": "uint256[2][2]"
        },
        {
          "internalType": "uint256[2]",
          "name": "_pC",
          "type": "uint256[2]"
        },
        {
          "internalType": "uint256[8]",
          "name": "_pubSignals",
          "type": "uint256[8]"
        }
      ],
      "name": "verifyProof",
      "outputs": [
        {
          "internalType": "bool",
          "name": "",
          "type": "bool"
        }
      ],
      "stateMutability": "view",
      "type": "function"
    }
  ],
  "bytecode": "0x6080604052348015600f57600080fd5b506107e98061001f6000396000f3fe608060405234801561001057600080fd5b506004361061002b5760003560e01c8063c9219a7a14610030575b600080fd5b61004361003e36600461074c565b610057565b604051901515815260200160405180910390f35b60006106a9565b7f30644e72e131a029b85045b68181585d2833e84879b9709143e1f593f0000001811061008f576000805260206000f35b50565b600060405183815284602082015285604082015260408160608360076107d05a03fa9150816100c5576000805260206000f35b825160408201526020830151606082015260408360808360066107d05a03fa915050806100f6576000805260206000f35b5050505050565b7f1e7a4136c5c2a8e56ecab2adec4a9b19b65d52e91bd64e9f0b86431d2a5ab4e385527f2470d665f2051d67db6cf0b42c3d2fe5a136486c676363b66f20ccd248ea7f9a60208601526000608086018661019a87357f0f2e1a52faa655affa996ecb7d4b759594012fe3eebdf9c171151f3c6c93d2297f1883b27389410886780ad923233bfdfc9d10e769376f99b4097244f3d4a1269a84610092565b6101ea60208801357f0ca95bd9deb3ced5c604e1c10e54dc374a9f0fe997a35f938d121573bad9e0dc7f20990d123cdab34adb176eb700c5873ea3ecdb40de1f16a7c12c92cc5333cb9884610092565b61023a60408801357f17db22c2a0c62419064b6945ba8783c23fb26abb629607c892e6ea4e6cf59e817f0c21970d26995c5a9c76502bce0ed0340da5a9fff71c463b91c88e268c30103a84610092565b61028a60608801357f0587b5387f113729ee8ef175b0bee4fce0a554415d5de9175a20b77711a2f7e17f2029f7cce1473bd90e87bb67e98e60c9e2e5427d367b27fcd1254c252c88d6cd84610092565b6102da60808801357f0c7060885ffd706e0b49c556bd631d63e5dbd3b2fdb4a4fd4c3a9d4bb72dbed97f1569e464bb2b8b40ab2d32c4036fec43c97ae02c2db05550c58c65190a25075084610092565b61032a60a08801357f2f97784b7f7e095f0801dee4ddc8b99ab303d942db53efffffd2c60a13e671a17f0dbb792122269eeca0e75f4fd893a9c1c7eef4c35066f289d959204e6beb339b84610092565b61037a60c08801357f21b43deaa25e2633d19219995dbd7d08fd6d2e8e1ad4032b6a29c6a92709fdb87f04bbfdb5cf82abb3f0ce056e4ab47796d0ab3874c344130613de171a4efe8f0384610092565b6103ca60e08801357f2e808c78fc52046ea848fb3c4af0c38ffcb078aa5a724c54e0adf1edd6e165bc7f1f0ff52c16453b10a0ca37533b6411fc2e5500f4c258d8a9049908d09d344ba584610092565b50823581527f30644e72e131a029b85045b68181585d97816a916871ca8d3c208c16d87cfd4760208401357f30644e72e131a029b85045b68181585d97816a916871ca8d3c208c16d87cfd4703066020820152833560408201526020840135606082015260408401356080820152606084013560a08201527f2d4d9aa7e302d9df41749d5507949d05dbea33fbb16c643b22f599a2be6df2e260c08201527f14bedd503c37ceb061d8ec60209fe345ce89830a19230301f076caff004d192660e08201527f0967032fcbf776d1afc985f88877f182d38480a653f2decaa9794cbc3bf3060c6101008201527f0e187847ad4c798374d0d6732bf501847dd68bc0e071241e0213bc7fc13db7ab6101208201527f304cfbd1e08a704a99f5e847d93f8c3caafddec46b7a0d379da69a4d112346a76101408201527f1739c1b1a457a8c7313123d24d2f9192f896b7c63eea05a9d57f06547ad0cec8610160820152600087015161018082015260206000018701516101a08201527f198e9393920d483a7260bfb731fb5d25f1aa493335a9e71297e485b7aef312c26101c08201527f1800deef121f1e76426a00665e5c4479674322d4f75edadd46debd5cd992f6ed6101e08201527f090689d0585ff075ec9e99ad690c3395bc4b313370b38ef355acdadcd122975b6102008201527f12c85ea5db8c6deb4aab71808dcb408fe3d1e7690c43d37b4ce6cc0166fa7daa610220820152843561024082015260208501356102608201527f257062525a5db993b73b1bac7c2c7a17d93aeb8aa7d3af45d0fb3724b14741586102808201527f11910c58136f0bd177f7b699fc6ad55f96df40b34b06cc5efd3772fd8de39de86102a08201527ef1e30629991a9a285f142fb50d4ae6715b63d3e4f5e3a8bdeacbd09ad44afa6102c08201527f180a9a7b4c198ca0b4c3822198ae9b6ca396c480f95a0a49965ad6287d9457df6102e08201526020816103008360086107d05a03fa9051169695505050505050565b60405161038081016040526106c1600084013561005e565b6106ce602084013561005e565b6106db604084013561005e565b6106e8606084013561005e565b6106f5608084013561005e565b61070260a084013561005e565b61070f60c084013561005e565b61071c60e084013561005e565b610729818486888a6100fd565b90508060005260206000f35b806040810183101561074657600080fd5b92915050565b600080600080610200858703121561076357600080fd5b61076d8686610735565b935060c085018681111561078057600080fd5b6040860193506107908782610735565b92505085610200860111156107a457600080fd5b5091949093509091610100019056fea26469706673582212208685a97e2fd895c41afbd754a8bb4f8fc7ac350150ca18d65d5f4a86bb5c62af64736f6c634300081b0033",
  "linkReferences": {},
  "deployedLinkReferences": {}
}