{
  "_format": "hh-sol-artifact-1",
  "contractName": "IdentityLib",
  "sourceName": "@iden3/contracts/lib/IdentityLib.sol",
  "abi": [
    {
      "inputs": [],
      "name": "IDENTITY_MAX_SMT_DEPTH",
      "outputs": [
        {
          "internalType": "uint256",
          "name": "",
          "type": "uint256"
        }
      ],
      "stateMutability": "view",
      "type": "function"
    }
  ],
  "bytecode": "0x6121c6610039600b82828239805160001a607314602c57634e487b7160e01b600052600060045260246000fd5b30600052607381538281f3fe73000000000000000000000000000000000000000030146080604052600436106101355760003560e01c8063765c2c61116100b7578063d55da6a31161007b578063d55da6a3146102d6578063d5818b8e146102e9578063d5a3b14e146102fc578063e1f0eaa91461030f578063f8b802681461032f57600080fd5b8063765c2c611461025c5780637d0aba4f1461026f5780638ad7195d1461028257806397ac5391146102a2578063a3018d79146102b557600080fd5b80631e75e7f3116100fe5780631e75e7f3146101ee5780632c72e822146102015780632eb747d21461020957806359a60691146102295780636e2fe66c1461024957600080fd5b8062cf08901461013a57806306fb1575146101635780630b1a9cd31461018557806316579a36146101ba5780631a3046d7146101cd575b600080fd5b61014d610148366004611b8b565b610342565b60405161015a9190611c4f565b60405180910390f35b81801561016f57600080fd5b5061018361017e366004611c62565b6103e2565b005b610198610193366004611b8b565b61045a565b604080518251815260208084015190820152918101519082015260600161015a565b61014d6101c8366004611cab565b610564565b6101e06101db366004611ce1565b610606565b60405190815260200161015a565b6101e06101fc366004611ce1565b610801565b6101e0602881565b81801561021557600080fd5b50610183610224366004611ce1565b61083e565b81801561023557600080fd5b50610183610244366004611d11565b610c39565b6101e0610257366004611ce1565b610ee4565b6101e061026a366004611ce1565b610f21565b61014d61027d366004611d79565b610f5e565b81801561028e57600080fd5b5061018361029d366004611d79565b610fbd565b61014d6102b0366004611b8b565b61103d565b6102c86102c3366004611b8b565b611093565b60405161015a929190611da5565b61014d6102e4366004611c62565b61118e565b61014d6102f7366004611c62565b6111de565b6102c861030a366004611b8b565b61122e565b81801561031b57600080fd5b5061018361032a366004611de6565b6112af565b6102c861033d366004611d79565b6114be565b61034a611b24565b609a830154604051633ce0bd4b60e11b815260048086019082015260248101849052604481019190915273__$dc6c4dd02ac6da041aea5ed0aea43c2a22$__906379c17a96906064015b600060405180830381865af41580156103b1573d6000803e3d6000fd5b505050506040513d6000823e601f3d908101601f191682016040526103d99190810190611f1f565b90505b92915050565b60405163c1d29f0160e01b8152600484810190820152602481018390526044810182905273__$dc6c4dd02ac6da041aea5ed0aea43c2a22$__9063c1d29f019060640160006040518083038186803b15801561043d57600080fd5b505af4158015610451573d6000803e3d6000fd5b50505050505050565b61047e60405180606001604052806000815260200160008152602001600081525090565b60008281526003840160205260409020541515806104ae5750600082815260038401602052604090206001015415155b806104cb5750600082815260038401602052604090206002015415155b6105275760405162461bcd60e51b815260206004820152602260248201527f526f6f747320666f72207468697320737461746520646f65736e2774206578696044820152611cdd60f21b60648201526084015b60405180910390fd5b5060009081526003919091016020908152604091829020825160608101845281548152600182015492810192909252600201549181019190915290565b61056c611b24565b604051633ce0bd4b60e11b815260368501600482015267ffffffffffffffff841660248201526044810183905273__$dc6c4dd02ac6da041aea5ed0aea43c2a22$__906379c17a96906064015b600060405180830381865af41580156105d6573d6000803e3d6000fd5b505050506040513d6000823e601f3d908101601f191682016040526105fe9190810190611f1f565b949350505050565b6040805160608101918290526379f9712560e01b90915260048201606482015260009073__$03320550cd1b629da90608251571b2532e$__906325cc70e8908073__$dc6c4dd02ac6da041aea5ed0aea43c2a22$__6379f9712560848301602060405180830381865af4158015610681573d6000803e3d6000fd5b505050506040513d601f19601f820116820180604052508101906106a59190611fe7565b81526040516379f9712560e01b815260368701600482015260209091019073__$dc6c4dd02ac6da041aea5ed0aea43c2a22$__906379f9712590602401602060405180830381865af41580156106ff573d6000803e3d6000fd5b505050506040513d601f19601f820116820180604052508101906107239190611fe7565b81526040516379f9712560e01b815260688701600482015260209091019073__$dc6c4dd02ac6da041aea5ed0aea43c2a22$__906379f9712590602401602060405180830381865af415801561077d573d6000803e3d6000fd5b505050506040513d601f19601f820116820180604052508101906107a19190611fe7565b8152506040518263ffffffff1660e01b81526004016107c09190612000565b602060405180830381865af41580156107dd573d6000803e3d6000fd5b505050506040513d601f19601f820116820180604052508101906103dc9190611fe7565b6040516379f9712560e01b815260688201600482015260009073__$dc6c4dd02ac6da041aea5ed0aea43c2a22$__906379f97125906024016107c0565b60018101546040516379f9712560e01b815260048084019082015260009073__$dc6c4dd02ac6da041aea5ed0aea43c2a22$__906379f9712590602401602060405180830381865af4158015610898573d6000803e3d6000fd5b505050506040513d601f19601f820116820180604052508101906108bc9190611fe7565b6040516379f9712560e01b815260368501600482015290915060009073__$dc6c4dd02ac6da041aea5ed0aea43c2a22$__906379f9712590602401602060405180830381865af4158015610914573d6000803e3d6000fd5b505050506040513d601f19601f820116820180604052508101906109389190611fe7565b6040516379f9712560e01b815260688601600482015290915060009073__$dc6c4dd02ac6da041aea5ed0aea43c2a22$__906379f9712590602401602060405180830381865af4158015610990573d6000803e3d6000fd5b505050506040513d601f19601f820116820180604052508101906109b49190611fe7565b609a860154909150831415806109ce5750609b8501548214155b806109dd5750609c8501548114155b610a295760405162461bcd60e51b815260206004820152601e60248201527f4964656e7469747920747265657320686176656e2774206368616e6765640000604482015260640161051e565b609a8501548314610aa85760405163c1d29f0160e01b8152606886016004820152602481018490526000604482015273__$dc6c4dd02ac6da041aea5ed0aea43c2a22$__9063c1d29f019060640160006040518083038186803b158015610a8f57600080fd5b505af4158015610aa3573d6000803e3d6000fd5b505050505b6000610ab386610606565b60018701819055609a8701859055609b87018490556040516379f9712560e01b815260688801600482015290915073__$dc6c4dd02ac6da041aea5ed0aea43c2a22$__906379f9712590602401602060405180830381865af4158015610b1d573d6000803e3d6000fd5b505050506040513d601f19601f82011682018060405250810190610b419190611fe7565b609c870181905560028701805460ff198116909155600188015460408051606081018252609a8b01548152609b8b015460208201529081019390935260ff90911691610b8e918991611548565b600287015487546101009091046001600160a01b031690637d0dcba590888585600160006040519080825280601f01601f191660200182016040528015610bdc576020820181803683370190505b506040518763ffffffff1660e01b8152600401610bfe96959493929190612031565b600060405180830381600087803b158015610c1857600080fd5b505af1158015610c2c573d6000803e3d6000fd5b5050505050505050505050565b6028821115610c9e5760405162461bcd60e51b815260206004820152602b60248201527f534d542064657074682069732067726561746572207468616e206d617820616c60448201526a0d8deeecac840c8cae0e8d60ab1b606482015260840161051e565b600285018054610100600160a81b0319166101006001600160a01b038781168202929092179283905560405163932e87a160e01b81526001600160f01b0319851660048201529204169063932e87a190602401602060405180830381865afa158015610d0e573d6000803e3d6000fd5b505050506040513d601f19601f82011682018060405250810190610d3291906120a4565b610d7e5760405162461bcd60e51b815260206004820152601860248201527f69642074797065206973206e6f7420737570706f727465640000000000000000604482015260640161051e565b60028501805460ff19166001179055604051639e43b81360e01b81526004808701908201526024810183905273__$dc6c4dd02ac6da041aea5ed0aea43c2a22$__90639e43b8139060440160006040518083038186803b158015610de157600080fd5b505af4158015610df5573d6000803e3d6000fd5b5050604051639e43b81360e01b81526036880160048201526024810185905273__$dc6c4dd02ac6da041aea5ed0aea43c2a22$__9250639e43b813915060440160006040518083038186803b158015610e4d57600080fd5b505af4158015610e61573d6000803e3d6000fd5b5050604051639e43b81360e01b81526068880160048201526024810185905273__$dc6c4dd02ac6da041aea5ed0aea43c2a22$__9250639e43b813915060440160006040518083038186803b158015610eb957600080fd5b505af4158015610ecd573d6000803e3d6000fd5b50505050610edb8184611618565b90945550505050565b6040516379f9712560e01b815260048281019082015260009073__$dc6c4dd02ac6da041aea5ed0aea43c2a22$__906379f97125906024016107c0565b6040516379f9712560e01b815260368201600482015260009073__$dc6c4dd02ac6da041aea5ed0aea43c2a22$__906379f97125906024016107c0565b610f66611b24565b609b830154604051633ce0bd4b60e11b815260368501600482015267ffffffffffffffff84166024820152604481019190915273__$dc6c4dd02ac6da041aea5ed0aea43c2a22$__906379c17a9690606401610394565b60405163c1d29f0160e01b815260368301600482015267ffffffffffffffff821660248201526000604482015273__$dc6c4dd02ac6da041aea5ed0aea43c2a22$__9063c1d29f019060640160006040518083038186803b15801561102157600080fd5b505af4158015611035573d6000803e3d6000fd5b505050505050565b611045611b24565b609c830154604051633ce0bd4b60e11b815260688501600482015260248101849052604481019190915273__$dc6c4dd02ac6da041aea5ed0aea43c2a22$__906379c17a9690606401610394565b61109b611b24565b6110c66040518060800160405280600081526020016000815260200160008152602001600081525090565b609c840154604051633ce0bd4b60e11b815260688601600482015260248101859052604481019190915273__$dc6c4dd02ac6da041aea5ed0aea43c2a22$__906379c17a96906064015b600060405180830381865af415801561112d573d6000803e3d6000fd5b505050506040513d6000823e601f3d908101601f191682016040526111559190810190611f1f565b6040805160808101825260018701548152609a8701546020820152609b87015491810191909152609c9095015460608601529492505050565b611196611b24565b604051633ce0bd4b60e11b8152606885016004820152602481018490526044810183905273__$dc6c4dd02ac6da041aea5ed0aea43c2a22$__906379c17a96906064016105b9565b6111e6611b24565b604051633ce0bd4b60e11b8152600485810190820152602481018490526044810183905273__$dc6c4dd02ac6da041aea5ed0aea43c2a22$__906379c17a96906064016105b9565b611236611b24565b6112616040518060800160405280600081526020016000815260200160008152602001600081525090565b609a840154604051633ce0bd4b60e11b815260048087019082015260248101859052604481019190915273__$dc6c4dd02ac6da041aea5ed0aea43c2a22$__906379c17a9690606401611110565b6112b7611b6d565b6112bf611b6d565b60005b60048160ff16101561134857838160ff16600881106112e3576112e36120bf565b6020020135838260ff16600481106112fd576112fd6120bf565b60200201528361130e8260046120eb565b60ff1660088110611321576113216120bf565b6020020135828260ff166004811061133b5761133b6120bf565b60200201526001016112c2565b5060405163248f667760e01b815260009073__$2650005024f117ed9b6c57ec1bf6374b69$__9063248f667790611383908690600401612104565b602060405180830381865af41580156113a0573d6000803e3d6000fd5b505050506040513d601f19601f820116820180604052508101906113c49190611fe7565b9050600073__$2650005024f117ed9b6c57ec1bf6374b69$__63248f6677846040518263ffffffff1660e01b81526004016113ff9190612104565b602060405180830381865af415801561141c573d6000803e3d6000fd5b505050506040513d601f19601f820116820180604052508101906114409190611fe7565b60405163c1d29f0160e01b8152600488810190820152602481018490526044810182905290915073__$dc6c4dd02ac6da041aea5ed0aea43c2a22$__9063c1d29f019060640160006040518083038186803b15801561149e57600080fd5b505af41580156114b2573d6000803e3d6000fd5b50505050505050505050565b6114c6611b24565b6114f16040518060800160405280600081526020016000815260200160008152602001600081525090565b609b840154604051633ce0bd4b60e11b815260368601600482015267ffffffffffffffff85166024820152604481019190915273__$dc6c4dd02ac6da041aea5ed0aea43c2a22$__906379c17a9690606401611110565b600082815260038401602052604090205415801561157757506000828152600384016020526040902060010154155b801561159457506000828152600384016020526040902060020154155b6115eb5760405162461bcd60e51b815260206004820152602260248201527f526f6f747320666f72207468697320737461746520616c7265616479206578696044820152611cdd60f21b606482015260840161051e565b60009182526003909201602090815260409182902083518155908301516001820155910151600290910155565b60006001600160a01b0382166105fe8461163183611636565b61177b565b60008190506008817eff00ff00ff00ff00ff00ff00ff00ff00ff00ff00ff00ff00ff00ff00ff00ff16901b6008827fff00ff00ff00ff00ff00ff00ff00ff00ff00ff00ff00ff00ff00ff00ff00ff0016901c1790506010817dffff0000ffff0000ffff0000ffff0000ffff0000ffff0000ffff0000ffff16901b6010827fffff0000ffff0000ffff0000ffff0000ffff0000ffff0000ffff0000ffff000016901c1790506020817bffffffff00000000ffffffff00000000ffffffff00000000ffffffff16901b6020827fffffffff00000000ffffffff00000000ffffffff00000000ffffffff0000000016901c17905060408177ffffffffffffffff0000000000000000ffffffffffffffff16901b60408277ffffffffffffffff0000000000000000ffffffffffffffff1916901c179050608081901b608082901c179050919050565b60008061178f61178a84611636565b6118af565b905060006117ac82601b84516117a5919061212c565b601b6118d9565b6040516001600160f01b0319871660208201529091506000906117e190602201604051602081830303815290604052836118e6565b905060006118056117f1836118f2565b600881811b62ffff001691901c60ff161790565b6040805160f083901b6001600160f01b0319166020820152815160028183030181526022909101909152909150600061183e84836118e6565b90508051601f146118915760405162461bcd60e51b815260206004820181905260248201527f69644279746573207265717569726573203331206c656e677468206172726179604482015260640161051e565b6118a261189d8261198f565b611636565b9998505050505050505050565b60408051602080825281830190925260609160208201818036833750505060208101929092525090565b60606105fe84848461199a565b60606103d98383611aa7565b60008151601d1461194f5760405162461bcd60e51b815260206004820152602160248201527f436865636b73756d207265717569726573203239206c656e67746820617272616044820152607960f81b606482015260840161051e565b60005b82518110156119895782818151811061196d5761196d6120bf565b016020015161197f9060f81c8361213f565b9150600101611952565b50919050565b60006103dc82612159565b6060816119a881601f61217d565b10156119e75760405162461bcd60e51b815260206004820152600e60248201526d736c6963655f6f766572666c6f7760901b604482015260640161051e565b6119f1828461217d565b84511015611a355760405162461bcd60e51b8152602060048201526011602482015270736c6963655f6f75744f66426f756e647360781b604482015260640161051e565b606082158015611a545760405191506000825260208201604052611a9e565b6040519150601f8416801560200281840101858101878315602002848b0101015b81831015611a8d578051835260209283019201611a75565b5050858452601f01601f1916604052505b50949350505050565b6060806040519050835180825260208201818101602087015b81831015611ad8578051835260209283019201611ac0565b50855184518101855292509050808201602086015b81831015611b05578051835260209283019201611aed565b508651929092011591909101601f01601f191660405250905092915050565b6040518061010001604052806000815260200160001515815260200160608152602001600081526020016000815260200160001515815260200160008152602001600081525090565b60405180608001604052806004906020820280368337509192915050565b60008060408385031215611b9e57600080fd5b50508035926020909101359150565b805182526020808201511515818401526040808301516101009185018290528051918501829052600092019082906101208601905b80831015611c055783518252602082019150602084019350600183019250611be2565b50606085015160608701526080850151608087015260a08501519250611c2f60a087018415159052565b60c085015160c087015260e085015160e087015280935050505092915050565b6020815260006103d96020830184611bad565b600080600060608486031215611c7757600080fd5b505081359360208301359350604090920135919050565b803567ffffffffffffffff81168114611ca657600080fd5b919050565b600080600060608486031215611cc057600080fd5b83359250611cd060208501611c8e565b929592945050506040919091013590565b600060208284031215611cf357600080fd5b5035919050565b80356001600160a01b0381168114611ca657600080fd5b600080600080600060a08688031215611d2957600080fd5b85359450611d3960208701611cfa565b9350611d4760408701611cfa565b92506060860135915060808601356001600160f01b031981168114611d6b57600080fd5b809150509295509295909350565b60008060408385031215611d8c57600080fd5b82359150611d9c60208401611c8e565b90509250929050565b60a081526000611db860a0830185611bad565b9050825160208301526020830151604083015260408301516060830152606083015160808301529392505050565b6000806101208385031215611dfa57600080fd5b823591506101208301841015611e0f57600080fd5b50926020919091019150565b634e487b7160e01b600052604160045260246000fd5b604051610100810167ffffffffffffffff81118282101715611e5557611e55611e1b565b60405290565b604051601f8201601f1916810167ffffffffffffffff81118282101715611e8457611e84611e1b565b604052919050565b80518015158114611ca657600080fd5b600082601f830112611ead57600080fd5b815167ffffffffffffffff811115611ec757611ec7611e1b565b8060051b611ed760208201611e5b565b91825260208185018101929081019086841115611ef357600080fd5b6020860192505b83831015611f15578251825260209283019290910190611efa565b9695505050505050565b600060208284031215611f3157600080fd5b815167ffffffffffffffff811115611f4857600080fd5b82016101008185031215611f5b57600080fd5b611f63611e31565b81518152611f7360208301611e8c565b6020820152604082015167ffffffffffffffff811115611f9257600080fd5b611f9e86828501611e9c565b6040830152506060828101519082015260808083015190820152611fc460a08301611e8c565b60a082015260c0828101519082015260e091820151918101919091529392505050565b600060208284031215611ff957600080fd5b5051919050565b60608101818360005b6003811015612028578151835260209283019290910190600101612009565b50505092915050565b868152856020820152846040820152831515606082015282608082015260c060a0820152600082518060c084015260005b8181101561207f57602081860181015160e0868401015201612062565b50600060e0828501015260e0601f19601f830116840101915050979650505050505050565b6000602082840312156120b657600080fd5b6103d982611e8c565b634e487b7160e01b600052603260045260246000fd5b634e487b7160e01b600052601160045260246000fd5b60ff81811683821601908111156103dc576103dc6120d5565b60808101818360005b600481101561202857815183526020928301929091019060010161210d565b818103818111156103dc576103dc6120d5565b61ffff81811683821601908111156103dc576103dc6120d5565b805160208083015191908110156119895760001960209190910360031b1b16919050565b808201808211156103dc576103dc6120d556fea2646970667358221220aa65629b816777c025a82a1ec2ced268f4da03b01343c1453af68c59f0d7b0f064736f6c634300081b0033",
  "linkReferences": {
    "@iden3/contracts/lib/Poseidon.sol": {
      "PoseidonUnit3L": [
        {
          "length": 20,
          "start": 1636
        }
      ],
      "PoseidonUnit4L": [
        {
          "length": 20,
          "start": 5012
        },
        {
          "length": 20,
          "start": 5123
        }
      ]
    },
    "@iden3/contracts/lib/SmtLib.sol": {
      "SmtLib": [
        {
          "length": 20,
          "start": 943
        },
        {
          "length": 20,
          "start": 1089
        },
        {
          "length": 20,
          "start": 1492
        },
        {
          "length": 20,
          "start": 1665
        },
        {
          "length": 20,
          "start": 1790
        },
        {
          "length": 20,
          "start": 1916
        },
        {
          "length": 20,
          "start": 2133
        },
        {
          "length": 20,
          "start": 2199
        },
        {
          "length": 20,
          "start": 2323
        },
        {
          "length": 20,
          "start": 2447
        },
        {
          "length": 20,
          "start": 2707
        },
        {
          "length": 20,
          "start": 2844
        },
        {
          "length": 20,
          "start": 3557
        },
        {
          "length": 20,
          "start": 3663
        },
        {
          "length": 20,
          "start": 3771
        },
        {
          "length": 20,
          "start": 3896
        },
        {
          "length": 20,
          "start": 3957
        },
        {
          "length": 20,
          "start": 4052
        },
        {
          "length": 20,
          "start": 4133
        },
        {
          "length": 20,
          "start": 4266
        },
        {
          "length": 20,
          "start": 4395
        },
        {
          "length": 20,
          "start": 4597
        },
        {
          "length": 20,
          "start": 4677
        },
        {
          "length": 20,
          "start": 4806
        },
        {
          "length": 20,
          "start": 5282
        },
        {
          "length": 20,
          "start": 5471
        }
      ]
    }
  },
  "deployedLinkReferences": {
    "@iden3/contracts/lib/Poseidon.sol": {
      "PoseidonUnit3L": [
        {
          "length": 20,
          "start": 1579
        }
      ],
      "PoseidonUnit4L": [
        {
          "length": 20,
          "start": 4955
        },
        {
          "length": 20,
          "start": 5066
        }
      ]
    },
    "@iden3/contracts/lib/SmtLib.sol": {
      "SmtLib": [
        {
          "length": 20,
          "start": 886
        },
        {
          "length": 20,
          "start": 1032
        },
        {
          "length": 20,
          "start": 1435
        },
        {
          "length": 20,
          "start": 1608
        },
        {
          "length": 20,
          "start": 1733
        },
        {
          "length": 20,
          "start": 1859
        },
        {
          "length": 20,
          "start": 2076
        },
        {
          "length": 20,
          "start": 2142
        },
        {
          "length": 20,
          "start": 2266
        },
        {
          "length": 20,
          "start": 2390
        },
        {
          "length": 20,
          "start": 2650
        },
        {
          "length": 20,
          "start": 2787
        },
        {
          "length": 20,
          "start": 3500
        },
        {
          "length": 20,
          "start": 3606
        },
        {
          "length": 20,
          "start": 3714
        },
        {
          "length": 20,
          "start": 3839
        },
        {
          "length": 20,
          "start": 3900
        },
        {
          "length": 20,
          "start": 3995
        },
        {
          "length": 20,
          "start": 4076
        },
        {
          "length": 20,
          "start": 4209
        },
        {
          "length": 20,
          "start": 4338
        },
        {
          "length": 20,
          "start": 4540
        },
        {
          "length": 20,
          "start": 4620
        },
        {
          "length": 20,
          "start": 4749
        },
        {
          "length": 20,
          "start": 5225
        },
        {
          "length": 20,
          "start": 5414
        }
      ]
    }
  }
}