{
  "_format": "hh-sol-artifact-1",
  "contractName": "NitroAttestationValidator",
  "sourceName": "contracts/validators/NitroAttestationValidator.sol",
  "abi": [
    {
      "inputs": [],
      "name": "InvalidCOSESign1Message",
      "type": "error"
    },
    {
      "inputs": [],
      "name": "InvalidCOSESign1MessagePayload",
      "type": "error"
    },
    {
      "inputs": [],
      "name": "InvalidCOSETag",
      "type": "error"
    },
    {
      "inputs": [],
      "name": "InvalidInitialization",
      "type": "error"
    },
    {
      "inputs": [],
      "name": "NotInitializing",
      "type": "error"
    },
    {
      "inputs": [
        {
          "internalType": "address",
          "name": "owner",
          "type": "address"
        }
      ],
      "name": "OwnableInvalidOwner",
      "type": "error"
    },
    {
      "inputs": [
        {
          "internalType": "address",
          "name": "account",
          "type": "address"
        }
      ],
      "name": "OwnableUnauthorizedAccount",
      "type": "error"
    },
    {
      "inputs": [
        {
          "internalType": "uint8",
          "name": "majorType",
          "type": "uint8"
        }
      ],
      "name": "UnsupportedCBORType",
      "type": "error"
    },
    {
      "inputs": [
        {
          "internalType": "uint256",
          "name": "length",
          "type": "uint256"
        }
      ],
      "name": "UnsupportedIntegerSize",
      "type": "error"
    },
    {
      "inputs": [
        {
          "internalType": "uint8",
          "name": "value",
          "type": "uint8"
        }
      ],
      "name": "UnsupportedSimpleValue",
      "type": "error"
    },
    {
      "anonymous": false,
      "inputs": [
        {
          "indexed": false,
          "internalType": "uint64",
          "name": "version",
          "type": "uint64"
        }
      ],
      "name": "Initialized",
      "type": "event"
    },
    {
      "anonymous": false,
      "inputs": [
        {
          "indexed": true,
          "internalType": "address",
          "name": "previousOwner",
          "type": "address"
        },
        {
          "indexed": true,
          "internalType": "address",
          "name": "newOwner",
          "type": "address"
        }
      ],
      "name": "OwnershipTransferStarted",
      "type": "event"
    },
    {
      "anonymous": false,
      "inputs": [
        {
          "indexed": true,
          "internalType": "address",
          "name": "previousOwner",
          "type": "address"
        },
        {
          "indexed": true,
          "internalType": "address",
          "name": "newOwner",
          "type": "address"
        }
      ],
      "name": "OwnershipTransferred",
      "type": "event"
    },
    {
      "inputs": [],
      "name": "VERSION",
      "outputs": [
        {
          "internalType": "string",
          "name": "",
          "type": "string"
        }
      ],
      "stateMutability": "view",
      "type": "function"
    },
    {
      "inputs": [],
      "name": "acceptOwnership",
      "outputs": [],
      "stateMutability": "nonpayable",
      "type": "function"
    },
    {
      "inputs": [
        {
          "internalType": "address",
          "name": "owner",
          "type": "address"
        },
        {
          "internalType": "contract ICertificatesValidator",
          "name": "certificatesValidator",
          "type": "address"
        }
      ],
      "name": "initialize",
      "outputs": [],
      "stateMutability": "nonpayable",
      "type": "function"
    },
    {
      "inputs": [],
      "name": "owner",
      "outputs": [
        {
          "internalType": "address",
          "name": "",
          "type": "address"
        }
      ],
      "stateMutability": "view",
      "type": "function"
    },
    {
      "inputs": [
        {
          "internalType": "bytes",
          "name": "attestation",
          "type": "bytes"
        }
      ],
      "name": "parseAttestation",
      "outputs": [
        {
          "components": [
            {
              "internalType": "uint256",
              "name": "tag",
              "type": "uint256"
            },
            {
              "components": [
                {
                  "internalType": "bytes",
                  "name": "protectedHeader",
                  "type": "bytes"
                },
                {
                  "internalType": "bytes",
                  "name": "unprotectedHeader",
                  "type": "bytes"
                },
                {
                  "components": [
                    {
                      "internalType": "string",
                      "name": "moduleId",
                      "type": "string"
                    },
                    {
                      "internalType": "string",
                      "name": "digest",
                      "type": "string"
                    },
                    {
                      "internalType": "uint256",
                      "name": "timestamp",
                      "type": "uint256"
                    },
                    {
                      "internalType": "bytes[]",
                      "name": "pcrs",
                      "type": "bytes[]"
                    },
                    {
                      "internalType": "bytes",
                      "name": "certificate",
                      "type": "bytes"
                    },
                    {
                      "internalType": "bytes[]",
                      "name": "cabundle",
                      "type": "bytes[]"
                    },
                    {
                      "internalType": "bytes",
                      "name": "publicKey",
                      "type": "bytes"
                    },
                    {
                      "internalType": "bytes",
                      "name": "userData",
                      "type": "bytes"
                    },
                    {
                      "internalType": "bytes",
                      "name": "nonce",
                      "type": "bytes"
                    }
                  ],
                  "internalType": "struct IAttestationValidator.Payload",
                  "name": "payload",
                  "type": "tuple"
                },
                {
                  "internalType": "bytes",
                  "name": "rawPayload",
                  "type": "bytes"
                },
                {
                  "internalType": "bytes",
                  "name": "signature",
                  "type": "bytes"
                },
                {
                  "internalType": "bytes32",
                  "name": "imageHash",
                  "type": "bytes32"
                }
              ],
              "internalType": "struct IAttestationValidator.AttestationValue",
              "name": "value",
              "type": "tuple"
            }
          ],
          "internalType": "struct IAttestationValidator.Attestation",
          "name": "",
          "type": "tuple"
        }
      ],
      "stateMutability": "pure",
      "type": "function"
    },
    {
      "inputs": [],
      "name": "pendingOwner",
      "outputs": [
        {
          "internalType": "address",
          "name": "",
          "type": "address"
        }
      ],
      "stateMutability": "view",
      "type": "function"
    },
    {
      "inputs": [],
      "name": "renounceOwnership",
      "outputs": [],
      "stateMutability": "nonpayable",
      "type": "function"
    },
    {
      "inputs": [
        {
          "internalType": "contract ICertificatesValidator",
          "name": "certificatesValidator",
          "type": "address"
        }
      ],
      "name": "setCertificatesValidator",
      "outputs": [],
      "stateMutability": "nonpayable",
      "type": "function"
    },
    {
      "inputs": [
        {
          "internalType": "bytes4",
          "name": "interfaceId",
          "type": "bytes4"
        }
      ],
      "name": "supportsInterface",
      "outputs": [
        {
          "internalType": "bool",
          "name": "",
          "type": "bool"
        }
      ],
      "stateMutability": "view",
      "type": "function"
    },
    {
      "inputs": [
        {
          "internalType": "address",
          "name": "newOwner",
          "type": "address"
        }
      ],
      "name": "transferOwnership",
      "outputs": [],
      "stateMutability": "nonpayable",
      "type": "function"
    },
    {
      "inputs": [
        {
          "internalType": "bytes",
          "name": "attestation",
          "type": "bytes"
        }
      ],
      "name": "validateAttestation",
      "outputs": [
        {
          "internalType": "bytes",
          "name": "",
          "type": "bytes"
        },
        {
          "internalType": "bytes32",
          "name": "",
          "type": "bytes32"
        },
        {
          "internalType": "bool",
          "name": "",
          "type": "bool"
        }
      ],
      "stateMutability": "view",
      "type": "function"
    },
    {
      "inputs": [],
      "name": "version",
      "outputs": [
        {
          "internalType": "string",
          "name": "",
          "type": "string"
        }
      ],
      "stateMutability": "pure",
      "type": "function"
    }
  ],
  "bytecode": "0x6080604052348015600f57600080fd5b5061218a8061001f6000396000f3fe608060405234801561001057600080fd5b50600436106100b45760003560e01c80637a161959116100715780637a161959146101525780638da5cb5b14610165578063e30c397814610185578063f2fde38b1461018d578063f3808b76146101a0578063ffa1ad74146101c057600080fd5b806301ffc9a7146100b9578063485cc955146100e15780634cc3a4a5146100f657806354fd4d5014610118578063715018a61461014257806379ba50971461014a575b600080fd5b6100cc6100c73660046119f1565b6101e4565b60405190151581526020015b60405180910390f35b6100f46100ef366004611a30565b61021b565b005b610109610104366004611a69565b610350565b6040516100d893929190611b2b565b6040805180820190915260058152640312e302e360dc1b60208201525b6040516100d89190611b55565b6100f4610396565b6100f46103aa565b6100f4610160366004611b68565b6103f7565b61016d610440565b6040516001600160a01b0390911681526020016100d8565b61016d610475565b6100f461019b366004611b68565b61049e565b6101b36101ae366004611a69565b610523565b6040516100d89190611be1565b610135604051806040016040528060058152602001640312e302e360dc1b81525081565b60006001600160e01b031982166348d43ded60e11b148061021557506301ffc9a760e01b6001600160e01b03198316145b92915050565b600061022561053c565b805490915060ff600160401b82041615906001600160401b031660008115801561024c5750825b90506000826001600160401b031660011480156102685750303b155b905081158015610276575080155b156102945760405163f92ee8a960e01b815260040160405180910390fd5b845467ffffffffffffffff1916600117855583156102be57845460ff60401b1916600160401b1785555b6102c787610565565b7f1208343262ba68924eccc6da9f6f62080c52b75937d283159a3723e1bd99870080546001600160a01b0319166001600160a01b038816179055831561034757845460ff60401b19168555604051600181527fc7f505b2f371ae2175ee4913f4499e1f2633a7b5936321eed1cdaeb6115181d29060200160405180910390a15b50505050505050565b606060008060006103618686610576565b60208101518051604082015160608301516080909301519394506103889391929091610777565b935093509350509250925092565b61039e610a81565b6103a86000610ab3565b565b33806103b4610475565b6001600160a01b0316146103eb5760405163118cdaa760e01b81526001600160a01b03821660048201526024015b60405180910390fd5b6103f481610ab3565b50565b6103ff610a81565b7f1208343262ba68924eccc6da9f6f62080c52b75937d283159a3723e1bd99870080546001600160a01b0319166001600160a01b0392909216919091179055565b6000807f9016d09d72d40fdae2fd8ceac6b6234c7706214fd39c1cd1e609a0528c1993005b546001600160a01b031692915050565b6000807f237e158222e3e6968b72b9db0d8043aacf074ad9f650f0d1606b4d82ee432c00610465565b6104a6610a81565b7f237e158222e3e6968b72b9db0d8043aacf074ad9f650f0d1606b4d82ee432c0080546001600160a01b0319166001600160a01b03831690811782556104ea610440565b6001600160a01b03167f38d16b8cac22d99fc7c124b9cd0de2d3fa1faef420bfe791d8c362d765e2270060405160405180910390a35050565b61052b61194b565b6105358383610576565b9392505050565b6000807ff0c57e16840df040f15088dc2f81fe391c3923bec73e23a9662efc9c229c6a00610215565b61056d610aef565b6103f481610b14565b61057e61194b565b60608383600081811061059357610593611d6f565b9050013560f81c60f81b6001600160f81b03191660d260f81b146105f557604051806040016040528060018152602001606960f91b81525084846040516020016105df93929190611d85565b604051602081830303815290604052905061062f565b83838080601f0160208091040260200160405190810160405280939291908181526020018383808284376000920191909152509293505050505b60008080600061063f8585610b46565b509550909350905060ff8316600614158061065b575080601214155b1561067957604051631000cb6d60e31b815260040160405180910390fd5b6106838585610b46565b509550909350915060ff8316600414158061069f575081600414155b156106bd57604051631ee5868b60e21b815260040160405180910390fd5b6106c561196a565b6106cf8686610b46565b8452965090945092506106e28686610b46565b6020850152965090945092506106f88686610b46565b60608501529650909450925061070e8686610b46565b60808501526060840151909750919550935061072990610dea565b6040820181905260600151805160009061074557610745611d6f565b60209081029190910181015180519082012060a083015260408051808201909152928352820152979650505050505050565b60606000806000610788888761118e565b905060008760a0015151600161079e9190611dc3565b6001600160401b038111156107b5576107b5611dd6565b6040519080825280602002602001820160405280156107e857816020015b60608152602001906001900390816107d35790505b50905087608001518160008151811061080357610803611d6f565b602002602001018190525060005b8860a0015151811015610888578860a00151818151811061083457610834611d6f565b60200260200101518282600161084a9190611dc3565b8b60a001515161085a9190611dec565b610865906001611dc3565b8151811061087557610875611d6f565b6020908102919091010152600101610811565b507f1208343262ba68924eccc6da9f6f62080c52b75937d283159a3723e1bd99870054604051638f084f1960e01b81526001600160a01b0390911690638f084f19906108d8908490600401611dff565b602060405180830381865afa1580156108f5573d6000803e3d6000fd5b505050506040513d601f19601f820116820180604052508101906109199190611e12565b5060808801516040516001620dd2a560e11b0319815260009173__$769c5c51d4682383d6e302f1ddbb0e87c3$__9163ffe45ab69161095a91600401611b55565b600060405180830381865af4158015610977573d6000803e3d6000fd5b505050506040513d6000823e601f3d908101601f1916820160405261099f9190810190611f0a565b9050600089606001516000815181106109ba576109ba611d6f565b602002602001015180519060200120905073__$769c5c51d4682383d6e302f1ddbb0e87c3$__632864ba7d858a85606001516040518463ffffffff1660e01b8152600401610a0a93929190612002565b602060405180830381865af4158015610a27573d6000803e3d6000fd5b505050506040513d601f19601f82011682018060405250810190610a4b9190611e12565b15610a665760e08a01519650945060019350610a7792505050565b60e08a015196509450600093505050505b9450945094915050565b33610a8a610440565b6001600160a01b0316146103a85760405163118cdaa760e01b81523360048201526024016103e2565b7f237e158222e3e6968b72b9db0d8043aacf074ad9f650f0d1606b4d82ee432c0080546001600160a01b0319168155610aeb826113f5565b5050565b610af7611466565b6103a857604051631afcd79f60e31b815260040160405180910390fd5b610b1c610aef565b6001600160a01b0381166103eb57604051631e4fbdf760e01b8152600060048201526024016103e2565b600080600060606000868681518110610b6157610b61611d6f565b602001015160f81c60f81b60f81c90506000878781518110610b8557610b85611d6f565b016020908101516040516001600160f81b03199091169181019190915260210160405160208183030381529060405290508680610bc19061203b565b975050600582901c600716601f831660008060068414801590610be8575060ff8416600714155b8015610bf8575060188360ff1610155b15610c1257610c088c8c85611480565b9092509050610c19565b8260ff1691505b60ff8416610c4157610c2b818c611dc3565b9a509298509650889550919350610de192505050565b60001960ff851601610c7a57610c57818c611dc3565b9a5083610c65836001611dc3565b8c879950995099509950505050505050610de1565b60011960ff851601610cce576000610c9c8d610c96848f611dc3565b85611769565b905081610ca9848e611dc3565b610cb39190611dc3565b9b508481518d839a509a509a509a5050505050505050610de1565b60021960ff851601610d21576000610cf08d610cea848f611dc3565b8561181d565b905081610cfd848e611dc3565b610d079190611dc3565b9b50939950600098508a9750929550610de1945050505050565b60031960ff851601610d425750919750909550879450909250610de1915050565b60041960ff851601610d7257506040805160008152602081019091529298509650889550909350610de192505050565b60051960ff851601610d95575091975060ff169550879450909250610de1915050565b60061960ff851601610dc3576000610dac876118c8565b949a509398508a9750939550610de1945050505050565b60405163d10fdb1560e01b815260ff851660048201526024016103e2565b92959194509250565b610df26119a5565b600080806060610e006119a5565b610e0a8786610b46565b9097509195509350915060ff84166005141580610e28575082600914155b15610e465760405163723aa58960e01b815260040160405180910390fd5b8651851015611184576060610e5b8887610b46565b90985091965094509050610e6f8887610b46565b845160208601209199509297509095509093507f731a883099b3c945aecfdbd40a86f3d98a160b1967957bd49f87de411dac8d1201610eb05782825261117e565b805160208201207f97d581da727f42dbde2cefc3418e1c1c47dec7ee98a946847da90f9e23d0ee0501610ee9576020820183905261117e565b805160208201207fb1408d83b7153d399d8dba94f9577a3a33fc1ab2ebf09c49c4902ef3edd86a7201610f22576040820184905261117e565b805160208201207f9ea7a0743985b492a76e5b9c65f8b69b539903ddbe23f4c93ea823efecdac9860161100a5783806001600160401b03811115610f6857610f68611dd6565b604051908082528060200260200182016040528015610f9b57816020015b6060815260200190600190039081610f865790505b50606084015260005b8181101561100357610fb68a89610b46565b909a5091985096509450610fca8a89610b46565b60608801518051929c50939a5091985090965086919083908110610ff057610ff0611d6f565b6020908102919091010152600101610fa4565b505061117e565b805160208201207f6da313886bd90bb272aaa1fe2d97c5c589a31d058a9d358cad514f6203a8159601611043576080820183905261117e565b805160208201207f384d7fe6330242cf0039a6ae26b447a361d47bcbeee5fff4a502acc319a0a85c0161107c5760c0820183905261117e565b805160208201207f75734855e25e8525efcab95194b1ec333d0505e8520a06c6da1f5f5b1a97e596016111495783806001600160401b038111156110c2576110c2611dd6565b6040519080825280602002602001820160405280156110f557816020015b60608152602001906001900390816110e05790505b5060a084015260005b81811015611003576111108a89610b46565b60a08801518051929c50939a509198509096508691908390811061113657611136611d6f565b60209081029190910101526001016110fe565b805160208201207fa1b15ac6c1bcd84cfeb43cd0dd9bcc94f2e117b5b302e68375281e1e97d65e960161117e5760e082018390525b50610e46565b9695505050505050565b606060006112e46112df845160008190506008817eff00ff00ff00ff00ff00ff00ff00ff00ff00ff00ff00ff00ff00ff00ff00ff16901b6008827fff00ff00ff00ff00ff00ff00ff00ff00ff00ff00ff00ff00ff00ff00ff00ff0016901c1790506010817dffff0000ffff0000ffff0000ffff0000ffff0000ffff0000ffff0000ffff16901b6010827fffff0000ffff0000ffff0000ffff0000ffff0000ffff0000ffff0000ffff000016901c1790506020817bffffffff00000000ffffffff00000000ffffffff00000000ffffffff16901b6020827fffffffff00000000ffffffff00000000ffffffff00000000ffffffff0000000016901c17905060408177ffffffffffffffff0000000000000000ffffffffffffffff16901b60408277ffffffffffffffff0000000000000000ffffffffffffffff1916901c179050608081901b608082901c179050919050565b611921565b6112ed90612054565b6040516001600160f81b0319600183901a60f890811b82166020840152600084901a901b16602182015290915060220160405160208183030381529060405261133590612054565b6040805180820182526001808252602160fa1b60208084019190915283518085018552828152603560f91b8183015284518086018652600a8152695369676e61747572653160b01b8184015285518087018752848152601160fa1b8185015286518088018852858152600160fe1b8186015287518089018952958652605960f81b8686015296519798506000976113dc979395929491938d93909290918b918e9101612092565b60408051808303601f1901815291905295945050505050565b7f9016d09d72d40fdae2fd8ceac6b6234c7706214fd39c1cd1e609a0528c19930080546001600160a01b031981166001600160a01b03848116918217845560405192169182907f8be0079c531659141344cd1fd0a4f28419497f9722a3daafe3b4186f6b6457e090600090a3505050565b600061147061053c565b54600160401b900460ff16919050565b60008060ff8316600160188290036114c4578686815181106114a4576114a4611d6f565b016020015160f81c915060019050856114bc8161203b565b96505061175d565b8160190361152f57866114d8876001611dc3565b815181106114e8576114e8611d6f565b602001015160f81c60f81b60f81c60ff16600888888151811061150d5761150d611d6f565b016020015160f81c901b179150600290506115288187611dc3565b955061175d565b81601a036115e55786611543876003611dc3565b8151811061155357611553611d6f565b016020015160f81c600888611569896002611dc3565b8151811061157957611579611d6f565b016020015160f81c901b6010896115918a6001611dc3565b815181106115a1576115a1611d6f565b602001015160f81c60f81b60f81c60ff16901b60188a8a815181106115c8576115c8611d6f565b016020015160f81c901b1717179150600490506115288187611dc3565b81601b0361174157866115f9876007611dc3565b8151811061160957611609611d6f565b016020015160f81c60088861161f896006611dc3565b8151811061162f5761162f611d6f565b016020015160f81c901b6010896116478a6005611dc3565b8151811061165757611657611d6f565b016020015160f81c901b60188a61166f8b6004611dc3565b8151811061167f5761167f611d6f565b0160209081015160f81c90911b908b6116998c6003611dc3565b815181106116a9576116a9611d6f565b016020015160f81c901b60288c6116c18d6002611dc3565b815181106116d1576116d1611d6f565b016020015160f81c901b60308d6116e98e6001611dc3565b815181106116f9576116f9611d6f565b602001015160f81c60f81b60f81c60ff16901b60388e8e8151811061172057611720611d6f565b016020015160f81c901b171717171717179150600890506115288187611dc3565b6040516372c585c960e11b8152600481018390526024016103e2565b90969095509350505050565b60606000826001600160401b0381111561178557611785611dd6565b6040519080825280601f01601f1916602001820160405280156117af576020820181803683370190505b50905060005b8381101561181457856117c88287611dc3565b815181106117d8576117d8611d6f565b602001015160f81c60f81b8282815181106117f5576117f5611d6f565b60200101906001600160f81b031916908160001a9053506001016117b5565b50949350505050565b60606000826001600160401b0381111561183957611839611dd6565b6040519080825280601f01601f191660200182016040528015611863576020820181803683370190505b50905060005b83811015611814578561187c8287611dc3565b8151811061188c5761188c611d6f565b602001015160f81c60f81b8282815181106118a9576118a9611d6f565b60200101906001600160f81b031916908160001a905350600101611869565b60008160ff1660f6036118dd57506000919050565b8160ff1660f5036118f057506001919050565b8160ff1660f40361190357506000919050565b604051633777306960e21b815260ff831660048201526024016103e2565b60408051602080825281830190925260609160208201818036833750505060208101929092525090565b60405180604001604052806000815260200161196561196a565b905290565b6040518060c00160405280606081526020016060815260200161198b6119a5565b815260606020820181905260408201819052600091015290565b6040518061012001604052806060815260200160608152602001600081526020016060815260200160608152602001606081526020016060815260200160608152602001606081525090565b600060208284031215611a0357600080fd5b81356001600160e01b03198116811461053557600080fd5b6001600160a01b03811681146103f457600080fd5b60008060408385031215611a4357600080fd5b8235611a4e81611a1b565b91506020830135611a5e81611a1b565b809150509250929050565b60008060208385031215611a7c57600080fd5b82356001600160401b03811115611a9257600080fd5b8301601f81018513611aa357600080fd5b80356001600160401b03811115611ab957600080fd5b856020828401011115611acb57600080fd5b6020919091019590945092505050565b60005b83811015611af6578181015183820152602001611ade565b50506000910152565b60008151808452611b17816020860160208601611adb565b601f01601f19169290920160200192915050565b606081526000611b3e6060830186611aff565b602083019490945250901515604090910152919050565b6020815260006105356020830184611aff565b600060208284031215611b7a57600080fd5b813561053581611a1b565b600082825180855260208501945060208160051b8301016020850160005b83811015611bd557601f19858403018852611bbf838351611aff565b6020988901989093509190910190600101611ba3565b50909695505050505050565b602081528151602082015260006020830151604080840152805160c06060850152611c10610120850182611aff565b90506020820151605f19858303016080860152611c2d8282611aff565b9150506040820151605f198583030160a086015280516101208352611c56610120840182611aff565b905060208201518382036020850152611c6f8282611aff565b9150506040820151604084015260608201518382036060850152611c938282611b85565b91505060808201518382036080850152611cad8282611aff565b91505060a082015183820360a0850152611cc78282611b85565b91505060c082015183820360c0850152611ce18282611aff565b91505060e082015183820360e0850152611cfb8282611aff565b9150506101008201519150828103610100840152611d198183611aff565b925050506060820151605f198583030160c0860152611d388282611aff565b9150506080820151605f198583030160e0860152611d568282611aff565b91505060a0820151610100850152809250505092915050565b634e487b7160e01b600052603260045260246000fd5b60008451611d97818460208901611adb565b8201838582376000930192835250909392505050565b634e487b7160e01b600052601160045260246000fd5b8082018082111561021557610215611dad565b634e487b7160e01b600052604160045260246000fd5b8181038181111561021557610215611dad565b6020815260006105356020830184611b85565b600060208284031215611e2457600080fd5b8151801515811461053557600080fd5b60405160c081016001600160401b0381118282101715611e5657611e56611dd6565b60405290565b8051611e6781611a1b565b919050565b805164ffffffffff81168114611e6757600080fd5b600082601f830112611e9257600080fd5b81516001600160401b03811115611eab57611eab611dd6565b604051601f8201601f19908116603f011681016001600160401b0381118282101715611ed957611ed9611dd6565b604052818152838201602001851015611ef157600080fd5b611f02826020830160208701611adb565b949350505050565b600060208284031215611f1c57600080fd5b81516001600160401b03811115611f3257600080fd5b820160c08185031215611f4457600080fd5b611f4c611e34565b611f5582611e5c565b8152611f6360208301611e6c565b6020820152611f7460408301611e6c565b604082015260608201516001600160401b03811115611f9257600080fd5b611f9e86828501611e81565b60608301525060808201516001600160401b03811115611fbd57600080fd5b611fc986828501611e81565b60808301525060a08201516001600160401b03811115611fe857600080fd5b611ff486828501611e81565b60a083015250949350505050565b6060815260006120156060830186611aff565b82810360208401526120278186611aff565b905082810360408401526111848185611aff565b60006001820161204d5761204d611dad565b5060010190565b805160208201516001600160f01b031981169190600282101561208b576001600160f01b0319600283900360031b81901b82161692505b5050919050565b60008a516120a4818460208f01611adb565b8a51908301906120b8818360208f01611adb565b8a519101906120cb818360208e01611adb565b89519101906120de818360208d01611adb565b88519101906120f1818360208c01611adb565b8751910190612104818360208b01611adb565b8651910190612117818360208a01611adb565b6001600160f01b031986169101908152835160009061213d816002850160208901611adb565b919091016002019c9b50505050505050505050505056fea2646970667358221220a299584e2ea471e8e5a97f2632b262574ae4ebb9e03e22b5c3215109d09374f464736f6c634300081b0033",
  "linkReferences": {
    "contracts/utils/CertificatesLib.sol": {
      "CertificatesLib": [
        {
          "length": 20,
          "start": 2387
        },
        {
          "length": 20,
          "start": 2540
        }
      ]
    }
  },
  "deployedLinkReferences": {
    "contracts/utils/CertificatesLib.sol": {
      "CertificatesLib": [
        {
          "length": 20,
          "start": 2356
        },
        {
          "length": 20,
          "start": 2509
        }
      ]
    }
  }
}