{
  "_format": "hh-sol-artifact-1",
  "contractName": "PassportCredentialIssuer",
  "sourceName": "contracts/verifiers/PassportCredentialIssuer.sol",
  "abi": [
    {
      "inputs": [],
      "stateMutability": "nonpayable",
      "type": "constructor"
    },
    {
      "inputs": [
        {
          "internalType": "uint256",
          "name": "currentDate",
          "type": "uint256"
        }
      ],
      "name": "CurrentDateExpired",
      "type": "error"
    },
    {
      "inputs": [
        {
          "internalType": "uint256",
          "name": "currentDate",
          "type": "uint256"
        }
      ],
      "name": "CurrentDateInFuture",
      "type": "error"
    },
    {
      "inputs": [
        {
          "internalType": "bytes32",
          "name": "imageHash",
          "type": "bytes32"
        }
      ],
      "name": "ImageHashIsNotWhitelisted",
      "type": "error"
    },
    {
      "inputs": [],
      "name": "InvalidAttestation",
      "type": "error"
    },
    {
      "inputs": [],
      "name": "InvalidAttestationUserDataLength",
      "type": "error"
    },
    {
      "inputs": [],
      "name": "InvalidCredentialProof",
      "type": "error"
    },
    {
      "inputs": [
        {
          "internalType": "uint256",
          "name": "hashIndex",
          "type": "uint256"
        }
      ],
      "name": "InvalidHashIndex",
      "type": "error"
    },
    {
      "inputs": [
        {
          "internalType": "uint256",
          "name": "hashValue",
          "type": "uint256"
        }
      ],
      "name": "InvalidHashValue",
      "type": "error"
    },
    {
      "inputs": [],
      "name": "InvalidInitialization",
      "type": "error"
    },
    {
      "inputs": [],
      "name": "InvalidIssuerDidHash",
      "type": "error"
    },
    {
      "inputs": [
        {
          "internalType": "uint256",
          "name": "linkId1",
          "type": "uint256"
        },
        {
          "internalType": "uint256",
          "name": "linkId2",
          "type": "uint256"
        }
      ],
      "name": "InvalidLinkId",
      "type": "error"
    },
    {
      "inputs": [],
      "name": "InvalidPassportSignatureProof",
      "type": "error"
    },
    {
      "inputs": [
        {
          "internalType": "uint64",
          "name": "revocationNonce",
          "type": "uint64"
        }
      ],
      "name": "InvalidRevocationNonce",
      "type": "error"
    },
    {
      "inputs": [],
      "name": "InvalidSignerAddress",
      "type": "error"
    },
    {
      "inputs": [
        {
          "internalType": "address",
          "name": "signer",
          "type": "address"
        }
      ],
      "name": "InvalidSignerPassportSignatureProof",
      "type": "error"
    },
    {
      "inputs": [
        {
          "internalType": "uint256",
          "name": "templateRoot",
          "type": "uint256"
        },
        {
          "internalType": "uint256",
          "name": "expectedTemplateRoot",
          "type": "uint256"
        }
      ],
      "name": "InvalidTemplateRoot",
      "type": "error"
    },
    {
      "inputs": [
        {
          "internalType": "address",
          "name": "transactor",
          "type": "address"
        }
      ],
      "name": "InvalidTransactor",
      "type": "error"
    },
    {
      "inputs": [
        {
          "internalType": "uint256",
          "name": "issuanceDate",
          "type": "uint256"
        }
      ],
      "name": "IssuanceDateExpired",
      "type": "error"
    },
    {
      "inputs": [
        {
          "internalType": "uint256",
          "name": "issuanceDate",
          "type": "uint256"
        }
      ],
      "name": "IssuanceDateInFuture",
      "type": "error"
    },
    {
      "inputs": [
        {
          "internalType": "uint256",
          "name": "length1",
          "type": "uint256"
        },
        {
          "internalType": "uint256",
          "name": "length2",
          "type": "uint256"
        }
      ],
      "name": "LengthMismatch",
      "type": "error"
    },
    {
      "inputs": [
        {
          "internalType": "string",
          "name": "circuitId",
          "type": "string"
        }
      ],
      "name": "NoCredentialCircuitIdFound",
      "type": "error"
    },
    {
      "inputs": [],
      "name": "NoVerifierSet",
      "type": "error"
    },
    {
      "inputs": [],
      "name": "NotInitializing",
      "type": "error"
    },
    {
      "inputs": [
        {
          "internalType": "uint256",
          "name": "nullifier",
          "type": "uint256"
        }
      ],
      "name": "NullifierAlreadyExists",
      "type": "error"
    },
    {
      "inputs": [
        {
          "internalType": "uint256",
          "name": "nullifier",
          "type": "uint256"
        }
      ],
      "name": "NullifierDoesNotExist",
      "type": "error"
    },
    {
      "inputs": [
        {
          "internalType": "address",
          "name": "owner",
          "type": "address"
        }
      ],
      "name": "OwnableInvalidOwner",
      "type": "error"
    },
    {
      "inputs": [
        {
          "internalType": "address",
          "name": "account",
          "type": "address"
        }
      ],
      "name": "OwnableUnauthorizedAccount",
      "type": "error"
    },
    {
      "anonymous": false,
      "inputs": [
        {
          "indexed": false,
          "internalType": "string",
          "name": "circuitId",
          "type": "string"
        },
        {
          "indexed": false,
          "internalType": "address",
          "name": "verifier",
          "type": "address"
        }
      ],
      "name": "CredentialCircuitVerifierUpdated",
      "type": "event"
    },
    {
      "anonymous": false,
      "inputs": [
        {
          "indexed": false,
          "internalType": "uint256",
          "name": "nullifier",
          "type": "uint256"
        },
        {
          "indexed": false,
          "internalType": "uint64",
          "name": "revocationNonce",
          "type": "uint64"
        }
      ],
      "name": "CredentialRevoked",
      "type": "event"
    },
    {
      "anonymous": false,
      "inputs": [],
      "name": "EIP712DomainChanged",
      "type": "event"
    },
    {
      "anonymous": false,
      "inputs": [
        {
          "indexed": false,
          "internalType": "uint256",
          "name": "expirationTime",
          "type": "uint256"
        }
      ],
      "name": "ExpirationTimeUpdated",
      "type": "event"
    },
    {
      "anonymous": false,
      "inputs": [
        {
          "indexed": false,
          "internalType": "uint64",
          "name": "version",
          "type": "uint64"
        }
      ],
      "name": "Initialized",
      "type": "event"
    },
    {
      "anonymous": false,
      "inputs": [
        {
          "indexed": false,
          "internalType": "uint256",
          "name": "maxFutureTime",
          "type": "uint256"
        }
      ],
      "name": "MaxFutureTimeUpdated",
      "type": "event"
    },
    {
      "anonymous": false,
      "inputs": [
        {
          "indexed": true,
          "internalType": "address",
          "name": "previousOwner",
          "type": "address"
        },
        {
          "indexed": true,
          "internalType": "address",
          "name": "newOwner",
          "type": "address"
        }
      ],
      "name": "OwnershipTransferStarted",
      "type": "event"
    },
    {
      "anonymous": false,
      "inputs": [
        {
          "indexed": true,
          "internalType": "address",
          "name": "previousOwner",
          "type": "address"
        },
        {
          "indexed": true,
          "internalType": "address",
          "name": "newOwner",
          "type": "address"
        }
      ],
      "name": "OwnershipTransferred",
      "type": "event"
    },
    {
      "anonymous": false,
      "inputs": [
        {
          "indexed": false,
          "internalType": "address",
          "name": "signer",
          "type": "address"
        }
      ],
      "name": "SignerAdded",
      "type": "event"
    },
    {
      "anonymous": false,
      "inputs": [
        {
          "indexed": false,
          "internalType": "uint256",
          "name": "tampletRoot",
          "type": "uint256"
        }
      ],
      "name": "TemplateRootUpdated",
      "type": "event"
    },
    {
      "anonymous": false,
      "inputs": [
        {
          "indexed": false,
          "internalType": "address",
          "name": "transactor",
          "type": "address"
        }
      ],
      "name": "TransactorAdded",
      "type": "event"
    },
    {
      "inputs": [],
      "name": "DOMAIN_VERSION",
      "outputs": [
        {
          "internalType": "string",
          "name": "",
          "type": "string"
        }
      ],
      "stateMutability": "view",
      "type": "function"
    },
    {
      "inputs": [],
      "name": "PASSPORT_CREDENTIAL_MESSAGE_TYPEHASH",
      "outputs": [
        {
          "internalType": "bytes32",
          "name": "",
          "type": "bytes32"
        }
      ],
      "stateMutability": "view",
      "type": "function"
    },
    {
      "inputs": [],
      "name": "VERSION",
      "outputs": [
        {
          "internalType": "string",
          "name": "",
          "type": "string"
        }
      ],
      "stateMutability": "view",
      "type": "function"
    },
    {
      "inputs": [],
      "name": "acceptOwnership",
      "outputs": [],
      "stateMutability": "nonpayable",
      "type": "function"
    },
    {
      "inputs": [
        {
          "internalType": "bytes32",
          "name": "imageHash",
          "type": "bytes32"
        }
      ],
      "name": "addImageHashToWhitelist",
      "outputs": [],
      "stateMutability": "nonpayable",
      "type": "function"
    },
    {
      "inputs": [
        {
          "internalType": "bytes",
          "name": "attestation",
          "type": "bytes"
        }
      ],
      "name": "addSigner",
      "outputs": [],
      "stateMutability": "nonpayable",
      "type": "function"
    },
    {
      "inputs": [
        {
          "internalType": "address",
          "name": "transactor",
          "type": "address"
        }
      ],
      "name": "addTransactor",
      "outputs": [],
      "stateMutability": "nonpayable",
      "type": "function"
    },
    {
      "inputs": [
        {
          "internalType": "string",
          "name": "circuitId",
          "type": "string"
        }
      ],
      "name": "credentialVerifiers",
      "outputs": [
        {
          "internalType": "address",
          "name": "",
          "type": "address"
        }
      ],
      "stateMutability": "view",
      "type": "function"
    },
    {
      "inputs": [],
      "name": "eip712Domain",
      "outputs": [
        {
          "internalType": "bytes1",
          "name": "fields",
          "type": "bytes1"
        },
        {
          "internalType": "string",
          "name": "name",
          "type": "string"
        },
        {
          "internalType": "string",
          "name": "version",
          "type": "string"
        },
        {
          "internalType": "uint256",
          "name": "chainId",
          "type": "uint256"
        },
        {
          "internalType": "address",
          "name": "verifyingContract",
          "type": "address"
        },
        {
          "internalType": "bytes32",
          "name": "salt",
          "type": "bytes32"
        },
        {
          "internalType": "uint256[]",
          "name": "extensions",
          "type": "uint256[]"
        }
      ],
      "stateMutability": "view",
      "type": "function"
    },
    {
      "inputs": [
        {
          "internalType": "uint256",
          "name": "claimIndexHash",
          "type": "uint256"
        }
      ],
      "name": "getClaimProof",
      "outputs": [
        {
          "components": [
            {
              "internalType": "uint256",
              "name": "root",
              "type": "uint256"
            },
            {
              "internalType": "bool",
              "name": "existence",
              "type": "bool"
            },
            {
              "internalType": "uint256[]",
              "name": "siblings",
              "type": "uint256[]"
            },
            {
              "internalType": "uint256",
              "name": "index",
              "type": "uint256"
            },
            {
              "internalType": "uint256",
              "name": "value",
              "type": "uint256"
            },
            {
              "internalType": "bool",
              "name": "auxExistence",
              "type": "bool"
            },
            {
              "internalType": "uint256",
              "name": "auxIndex",
              "type": "uint256"
            },
            {
              "internalType": "uint256",
              "name": "auxValue",
              "type": "uint256"
            }
          ],
          "internalType": "struct SmtLib.Proof",
          "name": "",
          "type": "tuple"
        }
      ],
      "stateMutability": "view",
      "type": "function"
    },
    {
      "inputs": [
        {
          "internalType": "uint256",
          "name": "claimIndexHash",
          "type": "uint256"
        },
        {
          "internalType": "uint256",
          "name": "root",
          "type": "uint256"
        }
      ],
      "name": "getClaimProofByRoot",
      "outputs": [
        {
          "components": [
            {
              "internalType": "uint256",
              "name": "root",
              "type": "uint256"
            },
            {
              "internalType": "bool",
              "name": "existence",
              "type": "bool"
            },
            {
              "internalType": "uint256[]",
              "name": "siblings",
              "type": "uint256[]"
            },
            {
              "internalType": "uint256",
              "name": "index",
              "type": "uint256"
            },
            {
              "internalType": "uint256",
              "name": "value",
              "type": "uint256"
            },
            {
              "internalType": "bool",
              "name": "auxExistence",
              "type": "bool"
            },
            {
              "internalType": "uint256",
              "name": "auxIndex",
              "type": "uint256"
            },
            {
              "internalType": "uint256",
              "name": "auxValue",
              "type": "uint256"
            }
          ],
          "internalType": "struct SmtLib.Proof",
          "name": "",
          "type": "tuple"
        }
      ],
      "stateMutability": "view",
      "type": "function"
    },
    {
      "inputs": [
        {
          "internalType": "uint256",
          "name": "claimIndexHash",
          "type": "uint256"
        }
      ],
      "name": "getClaimProofWithStateInfo",
      "outputs": [
        {
          "components": [
            {
              "internalType": "uint256",
              "name": "root",
              "type": "uint256"
            },
            {
              "internalType": "bool",
              "name": "existence",
              "type": "bool"
            },
            {
              "internalType": "uint256[]",
              "name": "siblings",
              "type": "uint256[]"
            },
            {
              "internalType": "uint256",
              "name": "index",
              "type": "uint256"
            },
            {
              "internalType": "uint256",
              "name": "value",
              "type": "uint256"
            },
            {
              "internalType": "bool",
              "name": "auxExistence",
              "type": "bool"
            },
            {
              "internalType": "uint256",
              "name": "auxIndex",
              "type": "uint256"
            },
            {
              "internalType": "uint256",
              "name": "auxValue",
              "type": "uint256"
            }
          ],
          "internalType": "struct SmtLib.Proof",
          "name": "",
          "type": "tuple"
        },
        {
          "components": [
            {
              "internalType": "uint256",
              "name": "state",
              "type": "uint256"
            },
            {
              "internalType": "uint256",
              "name": "claimsRoot",
              "type": "uint256"
            },
            {
              "internalType": "uint256",
              "name": "revocationsRoot",
              "type": "uint256"
            },
            {
              "internalType": "uint256",
              "name": "rootsRoot",
              "type": "uint256"
            }
          ],
          "internalType": "struct IdentityLib.StateInfo",
          "name": "",
          "type": "tuple"
        }
      ],
      "stateMutability": "view",
      "type": "function"
    },
    {
      "inputs": [],
      "name": "getClaimsTreeRoot",
      "outputs": [
        {
          "internalType": "uint256",
          "name": "",
          "type": "uint256"
        }
      ],
      "stateMutability": "view",
      "type": "function"
    },
    {
      "inputs": [],
      "name": "getExpirationTime",
      "outputs": [
        {
          "internalType": "uint256",
          "name": "",
          "type": "uint256"
        }
      ],
      "stateMutability": "view",
      "type": "function"
    },
    {
      "inputs": [],
      "name": "getId",
      "outputs": [
        {
          "internalType": "uint256",
          "name": "",
          "type": "uint256"
        }
      ],
      "stateMutability": "view",
      "type": "function"
    },
    {
      "inputs": [],
      "name": "getIsOldStateGenesis",
      "outputs": [
        {
          "internalType": "bool",
          "name": "",
          "type": "bool"
        }
      ],
      "stateMutability": "view",
      "type": "function"
    },
    {
      "inputs": [],
      "name": "getIssuerDIDHash",
      "outputs": [
        {
          "internalType": "uint256",
          "name": "",
          "type": "uint256"
        }
      ],
      "stateMutability": "view",
      "type": "function"
    },
    {
      "inputs": [],
      "name": "getLatestPublishedClaimsRoot",
      "outputs": [
        {
          "internalType": "uint256",
          "name": "",
          "type": "uint256"
        }
      ],
      "stateMutability": "view",
      "type": "function"
    },
    {
      "inputs": [],
      "name": "getLatestPublishedRevocationsRoot",
      "outputs": [
        {
          "internalType": "uint256",
          "name": "",
          "type": "uint256"
        }
      ],
      "stateMutability": "view",
      "type": "function"
    },
    {
      "inputs": [],
      "name": "getLatestPublishedRootsRoot",
      "outputs": [
        {
          "internalType": "uint256",
          "name": "",
          "type": "uint256"
        }
      ],
      "stateMutability": "view",
      "type": "function"
    },
    {
      "inputs": [],
      "name": "getLatestPublishedState",
      "outputs": [
        {
          "internalType": "uint256",
          "name": "",
          "type": "uint256"
        }
      ],
      "stateMutability": "view",
      "type": "function"
    },
    {
      "inputs": [],
      "name": "getMaxFutureTime",
      "outputs": [
        {
          "internalType": "uint256",
          "name": "",
          "type": "uint256"
        }
      ],
      "stateMutability": "view",
      "type": "function"
    },
    {
      "inputs": [
        {
          "internalType": "uint64",
          "name": "revocationNonce",
          "type": "uint64"
        }
      ],
      "name": "getRevocationProof",
      "outputs": [
        {
          "components": [
            {
              "internalType": "uint256",
              "name": "root",
              "type": "uint256"
            },
            {
              "internalType": "bool",
              "name": "existence",
              "type": "bool"
            },
            {
              "internalType": "uint256[]",
              "name": "siblings",
              "type": "uint256[]"
            },
            {
              "internalType": "uint256",
              "name": "index",
              "type": "uint256"
            },
            {
              "internalType": "uint256",
              "name": "value",
              "type": "uint256"
            },
            {
              "internalType": "bool",
              "name": "auxExistence",
              "type": "bool"
            },
            {
              "internalType": "uint256",
              "name": "auxIndex",
              "type": "uint256"
            },
            {
              "internalType": "uint256",
              "name": "auxValue",
              "type": "uint256"
            }
          ],
          "internalType": "struct SmtLib.Proof",
          "name": "",
          "type": "tuple"
        }
      ],
      "stateMutability": "view",
      "type": "function"
    },
    {
      "inputs": [
        {
          "internalType": "uint64",
          "name": "revocationNonce",
          "type": "uint64"
        },
        {
          "internalType": "uint256",
          "name": "root",
          "type": "uint256"
        }
      ],
      "name": "getRevocationProofByRoot",
      "outputs": [
        {
          "components": [
            {
              "internalType": "uint256",
              "name": "root",
              "type": "uint256"
            },
            {
              "internalType": "bool",
              "name": "existence",
              "type": "bool"
            },
            {
              "internalType": "uint256[]",
              "name": "siblings",
              "type": "uint256[]"
            },
            {
              "internalType": "uint256",
              "name": "index",
              "type": "uint256"
            },
            {
              "internalType": "uint256",
              "name": "value",
              "type": "uint256"
            },
            {
              "internalType": "bool",
              "name": "auxExistence",
              "type": "bool"
            },
            {
              "internalType": "uint256",
              "name": "auxIndex",
              "type": "uint256"
            },
            {
              "internalType": "uint256",
              "name": "auxValue",
              "type": "uint256"
            }
          ],
          "internalType": "struct SmtLib.Proof",
          "name": "",
          "type": "tuple"
        }
      ],
      "stateMutability": "view",
      "type": "function"
    },
    {
      "inputs": [
        {
          "internalType": "uint64",
          "name": "revocationNonce",
          "type": "uint64"
        }
      ],
      "name": "getRevocationProofWithStateInfo",
      "outputs": [
        {
          "components": [
            {
              "internalType": "uint256",
              "name": "root",
              "type": "uint256"
            },
            {
              "internalType": "bool",
              "name": "existence",
              "type": "bool"
            },
            {
              "internalType": "uint256[]",
              "name": "siblings",
              "type": "uint256[]"
            },
            {
              "internalType": "uint256",
              "name": "index",
              "type": "uint256"
            },
            {
              "internalType": "uint256",
              "name": "value",
              "type": "uint256"
            },
            {
              "internalType": "bool",
              "name": "auxExistence",
              "type": "bool"
            },
            {
              "internalType": "uint256",
              "name": "auxIndex",
              "type": "uint256"
            },
            {
              "internalType": "uint256",
              "name": "auxValue",
              "type": "uint256"
            }
          ],
          "internalType": "struct SmtLib.Proof",
          "name": "",
          "type": "tuple"
        },
        {
          "components": [
            {
              "internalType": "uint256",
              "name": "state",
              "type": "uint256"
            },
            {
              "internalType": "uint256",
              "name": "claimsRoot",
              "type": "uint256"
            },
            {
              "internalType": "uint256",
              "name": "revocationsRoot",
              "type": "uint256"
            },
            {
              "internalType": "uint256",
              "name": "rootsRoot",
              "type": "uint256"
            }
          ],
          "internalType": "struct IdentityLib.StateInfo",
          "name": "",
          "type": "tuple"
        }
      ],
      "stateMutability": "view",
      "type": "function"
    },
    {
      "inputs": [
        {
          "internalType": "uint256",
          "name": "id",
          "type": "uint256"
        },
        {
          "internalType": "uint64",
          "name": "nonce",
          "type": "uint64"
        }
      ],
      "name": "getRevocationStatus",
      "outputs": [
        {
          "components": [
            {
              "components": [
                {
                  "internalType": "uint256",
                  "name": "state",
                  "type": "uint256"
                },
                {
                  "internalType": "uint256",
                  "name": "claimsTreeRoot",
                  "type": "uint256"
                },
                {
                  "internalType": "uint256",
                  "name": "revocationTreeRoot",
                  "type": "uint256"
                },
                {
                  "internalType": "uint256",
                  "name": "rootOfRoots",
                  "type": "uint256"
                }
              ],
              "internalType": "struct IOnchainCredentialStatusResolver.IdentityStateRoots",
              "name": "issuer",
              "type": "tuple"
            },
            {
              "components": [
                {
                  "internalType": "uint256",
                  "name": "root",
                  "type": "uint256"
                },
                {
                  "internalType": "bool",
                  "name": "existence",
                  "type": "bool"
                },
                {
                  "internalType": "uint256[]",
                  "name": "siblings",
                  "type": "uint256[]"
                },
                {
                  "internalType": "uint256",
                  "name": "index",
                  "type": "uint256"
                },
                {
                  "internalType": "uint256",
                  "name": "value",
                  "type": "uint256"
                },
                {
                  "internalType": "bool",
                  "name": "auxExistence",
                  "type": "bool"
                },
                {
                  "internalType": "uint256",
                  "name": "auxIndex",
                  "type": "uint256"
                },
                {
                  "internalType": "uint256",
                  "name": "auxValue",
                  "type": "uint256"
                }
              ],
              "internalType": "struct IOnchainCredentialStatusResolver.Proof",
              "name": "mtp",
              "type": "tuple"
            }
          ],
          "internalType": "struct IOnchainCredentialStatusResolver.CredentialStatus",
          "name": "",
          "type": "tuple"
        }
      ],
      "stateMutability": "view",
      "type": "function"
    },
    {
      "inputs": [
        {
          "internalType": "uint256",
          "name": "id",
          "type": "uint256"
        },
        {
          "internalType": "uint256",
          "name": "state",
          "type": "uint256"
        },
        {
          "internalType": "uint64",
          "name": "nonce",
          "type": "uint64"
        }
      ],
      "name": "getRevocationStatusByIdAndState",
      "outputs": [
        {
          "components": [
            {
              "components": [
                {
                  "internalType": "uint256",
                  "name": "state",
                  "type": "uint256"
                },
                {
                  "internalType": "uint256",
                  "name": "claimsTreeRoot",
                  "type": "uint256"
                },
                {
                  "internalType": "uint256",
                  "name": "revocationTreeRoot",
                  "type": "uint256"
                },
                {
                  "internalType": "uint256",
                  "name": "rootOfRoots",
                  "type": "uint256"
                }
              ],
              "internalType": "struct IOnchainCredentialStatusResolver.IdentityStateRoots",
              "name": "issuer",
              "type": "tuple"
            },
            {
              "components": [
                {
                  "internalType": "uint256",
                  "name": "root",
                  "type": "uint256"
                },
                {
                  "internalType": "bool",
                  "name": "existence",
                  "type": "bool"
                },
                {
                  "internalType": "uint256[]",
                  "name": "siblings",
                  "type": "uint256[]"
                },
                {
                  "internalType": "uint256",
                  "name": "index",
                  "type": "uint256"
                },
                {
                  "internalType": "uint256",
                  "name": "value",
                  "type": "uint256"
                },
                {
                  "internalType": "bool",
                  "name": "auxExistence",
                  "type": "bool"
                },
                {
                  "internalType": "uint256",
                  "name": "auxIndex",
                  "type": "uint256"
                },
                {
                  "internalType": "uint256",
                  "name": "auxValue",
                  "type": "uint256"
                }
              ],
              "internalType": "struct IOnchainCredentialStatusResolver.Proof",
              "name": "mtp",
              "type": "tuple"
            }
          ],
          "internalType": "struct IOnchainCredentialStatusResolver.CredentialStatus",
          "name": "",
          "type": "tuple"
        }
      ],
      "stateMutability": "view",
      "type": "function"
    },
    {
      "inputs": [],
      "name": "getRevocationsTreeRoot",
      "outputs": [
        {
          "internalType": "uint256",
          "name": "",
          "type": "uint256"
        }
      ],
      "stateMutability": "view",
      "type": "function"
    },
    {
      "inputs": [
        {
          "internalType": "uint256",
          "name": "rootsTreeRoot",
          "type": "uint256"
        }
      ],
      "name": "getRootProof",
      "outputs": [
        {
          "components": [
            {
              "internalType": "uint256",
              "name": "root",
              "type": "uint256"
            },
            {
              "internalType": "bool",
              "name": "existence",
              "type": "bool"
            },
            {
              "internalType": "uint256[]",
              "name": "siblings",
              "type": "uint256[]"
            },
            {
              "internalType": "uint256",
              "name": "index",
              "type": "uint256"
            },
            {
              "internalType": "uint256",
              "name": "value",
              "type": "uint256"
            },
            {
              "internalType": "bool",
              "name": "auxExistence",
              "type": "bool"
            },
            {
              "internalType": "uint256",
              "name": "auxIndex",
              "type": "uint256"
            },
            {
              "internalType": "uint256",
              "name": "auxValue",
              "type": "uint256"
            }
          ],
          "internalType": "struct SmtLib.Proof",
          "name": "",
          "type": "tuple"
        }
      ],
      "stateMutability": "view",
      "type": "function"
    },
    {
      "inputs": [
        {
          "internalType": "uint256",
          "name": "claimsTreeRoot",
          "type": "uint256"
        },
        {
          "internalType": "uint256",
          "name": "root",
          "type": "uint256"
        }
      ],
      "name": "getRootProofByRoot",
      "outputs": [
        {
          "components": [
            {
              "internalType": "uint256",
              "name": "root",
              "type": "uint256"
            },
            {
              "internalType": "bool",
              "name": "existence",
              "type": "bool"
            },
            {
              "internalType": "uint256[]",
              "name": "siblings",
              "type": "uint256[]"
            },
            {
              "internalType": "uint256",
              "name": "index",
              "type": "uint256"
            },
            {
              "internalType": "uint256",
              "name": "value",
              "type": "uint256"
            },
            {
              "internalType": "bool",
              "name": "auxExistence",
              "type": "bool"
            },
            {
              "internalType": "uint256",
              "name": "auxIndex",
              "type": "uint256"
            },
            {
              "internalType": "uint256",
              "name": "auxValue",
              "type": "uint256"
            }
          ],
          "internalType": "struct SmtLib.Proof",
          "name": "",
          "type": "tuple"
        }
      ],
      "stateMutability": "view",
      "type": "function"
    },
    {
      "inputs": [
        {
          "internalType": "uint256",
          "name": "rootsTreeRoot",
          "type": "uint256"
        }
      ],
      "name": "getRootProofWithStateInfo",
      "outputs": [
        {
          "components": [
            {
              "internalType": "uint256",
              "name": "root",
              "type": "uint256"
            },
            {
              "internalType": "bool",
              "name": "existence",
              "type": "bool"
            },
            {
              "internalType": "uint256[]",
              "name": "siblings",
              "type": "uint256[]"
            },
            {
              "internalType": "uint256",
              "name": "index",
              "type": "uint256"
            },
            {
              "internalType": "uint256",
              "name": "value",
              "type": "uint256"
            },
            {
              "internalType": "bool",
              "name": "auxExistence",
              "type": "bool"
            },
            {
              "internalType": "uint256",
              "name": "auxIndex",
              "type": "uint256"
            },
            {
              "internalType": "uint256",
              "name": "auxValue",
              "type": "uint256"
            }
          ],
          "internalType": "struct SmtLib.Proof",
          "name": "",
          "type": "tuple"
        },
        {
          "components": [
            {
              "internalType": "uint256",
              "name": "state",
              "type": "uint256"
            },
            {
              "internalType": "uint256",
              "name": "claimsRoot",
              "type": "uint256"
            },
            {
              "internalType": "uint256",
              "name": "revocationsRoot",
              "type": "uint256"
            },
            {
              "internalType": "uint256",
              "name": "rootsRoot",
              "type": "uint256"
            }
          ],
          "internalType": "struct IdentityLib.StateInfo",
          "name": "",
          "type": "tuple"
        }
      ],
      "stateMutability": "view",
      "type": "function"
    },
    {
      "inputs": [
        {
          "internalType": "uint256",
          "name": "state",
          "type": "uint256"
        }
      ],
      "name": "getRootsByState",
      "outputs": [
        {
          "components": [
            {
              "internalType": "uint256",
              "name": "claimsRoot",
              "type": "uint256"
            },
            {
              "internalType": "uint256",
              "name": "revocationsRoot",
              "type": "uint256"
            },
            {
              "internalType": "uint256",
              "name": "rootsRoot",
              "type": "uint256"
            }
          ],
          "internalType": "struct IdentityLib.Roots",
          "name": "",
          "type": "tuple"
        }
      ],
      "stateMutability": "view",
      "type": "function"
    },
    {
      "inputs": [],
      "name": "getRootsTreeRoot",
      "outputs": [
        {
          "internalType": "uint256",
          "name": "",
          "type": "uint256"
        }
      ],
      "stateMutability": "view",
      "type": "function"
    },
    {
      "inputs": [],
      "name": "getSigners",
      "outputs": [
        {
          "internalType": "address[]",
          "name": "",
          "type": "address[]"
        }
      ],
      "stateMutability": "view",
      "type": "function"
    },
    {
      "inputs": [],
      "name": "getSmtDepth",
      "outputs": [
        {
          "internalType": "uint256",
          "name": "",
          "type": "uint256"
        }
      ],
      "stateMutability": "pure",
      "type": "function"
    },
    {
      "inputs": [],
      "name": "getTemplateRoot",
      "outputs": [
        {
          "internalType": "uint256",
          "name": "",
          "type": "uint256"
        }
      ],
      "stateMutability": "view",
      "type": "function"
    },
    {
      "inputs": [],
      "name": "getTransactors",
      "outputs": [
        {
          "internalType": "address[]",
          "name": "",
          "type": "address[]"
        }
      ],
      "stateMutability": "view",
      "type": "function"
    },
    {
      "inputs": [
        {
          "internalType": "address",
          "name": "_stateContractAddr",
          "type": "address"
        },
        {
          "internalType": "bytes2",
          "name": "idType",
          "type": "bytes2"
        }
      ],
      "name": "initialize",
      "outputs": [],
      "stateMutability": "nonpayable",
      "type": "function"
    },
    {
      "inputs": [
        {
          "internalType": "uint256",
          "name": "expirationTime",
          "type": "uint256"
        },
        {
          "internalType": "uint256",
          "name": "maxFutureTime",
          "type": "uint256"
        },
        {
          "internalType": "uint256",
          "name": "templateRoot",
          "type": "uint256"
        },
        {
          "internalType": "string[]",
          "name": "credentialCircuitIds",
          "type": "string[]"
        },
        {
          "internalType": "address[]",
          "name": "credentialVerifierAddresses",
          "type": "address[]"
        },
        {
          "components": [
            {
              "internalType": "address",
              "name": "stateAddress",
              "type": "address"
            },
            {
              "internalType": "bytes2",
              "name": "idType",
              "type": "bytes2"
            }
          ],
          "internalType": "struct PassportCredentialIssuer.StateInfo",
          "name": "stateInfo",
          "type": "tuple"
        },
        {
          "internalType": "address",
          "name": "owner",
          "type": "address"
        },
        {
          "internalType": "contract IAttestationValidator",
          "name": "validator",
          "type": "address"
        }
      ],
      "name": "initializeIssuer",
      "outputs": [],
      "stateMutability": "nonpayable",
      "type": "function"
    },
    {
      "inputs": [
        {
          "internalType": "bytes32",
          "name": "imageHash",
          "type": "bytes32"
        }
      ],
      "name": "isWhitelistedImageHash",
      "outputs": [
        {
          "internalType": "bool",
          "name": "",
          "type": "bool"
        }
      ],
      "stateMutability": "view",
      "type": "function"
    },
    {
      "inputs": [
        {
          "internalType": "uint256",
          "name": "nullifier",
          "type": "uint256"
        }
      ],
      "name": "nullifierExists",
      "outputs": [
        {
          "internalType": "bool",
          "name": "",
          "type": "bool"
        }
      ],
      "stateMutability": "view",
      "type": "function"
    },
    {
      "inputs": [],
      "name": "owner",
      "outputs": [
        {
          "internalType": "address",
          "name": "",
          "type": "address"
        }
      ],
      "stateMutability": "view",
      "type": "function"
    },
    {
      "inputs": [],
      "name": "pendingOwner",
      "outputs": [
        {
          "internalType": "address",
          "name": "",
          "type": "address"
        }
      ],
      "stateMutability": "view",
      "type": "function"
    },
    {
      "inputs": [
        {
          "internalType": "bytes32",
          "name": "imageHash",
          "type": "bytes32"
        }
      ],
      "name": "removeImageHashFromWhitelist",
      "outputs": [],
      "stateMutability": "nonpayable",
      "type": "function"
    },
    {
      "inputs": [],
      "name": "renounceOwnership",
      "outputs": [],
      "stateMutability": "nonpayable",
      "type": "function"
    },
    {
      "inputs": [
        {
          "internalType": "uint256",
          "name": "nullifier",
          "type": "uint256"
        }
      ],
      "name": "revokeCredential",
      "outputs": [],
      "stateMutability": "nonpayable",
      "type": "function"
    },
    {
      "inputs": [
        {
          "internalType": "contract IAttestationValidator",
          "name": "validator",
          "type": "address"
        }
      ],
      "name": "setAttestationValidator",
      "outputs": [],
      "stateMutability": "nonpayable",
      "type": "function"
    },
    {
      "inputs": [
        {
          "internalType": "uint256",
          "name": "expirationTime",
          "type": "uint256"
        }
      ],
      "name": "setExpirationTime",
      "outputs": [],
      "stateMutability": "nonpayable",
      "type": "function"
    },
    {
      "inputs": [
        {
          "internalType": "uint256",
          "name": "issuerDidHash",
          "type": "uint256"
        }
      ],
      "name": "setIssuerDIDHash",
      "outputs": [],
      "stateMutability": "nonpayable",
      "type": "function"
    },
    {
      "inputs": [
        {
          "internalType": "uint256",
          "name": "maxFutureTime",
          "type": "uint256"
        }
      ],
      "name": "setMaxFutureTime",
      "outputs": [],
      "stateMutability": "nonpayable",
      "type": "function"
    },
    {
      "inputs": [
        {
          "internalType": "uint256",
          "name": "templateRoot",
          "type": "uint256"
        }
      ],
      "name": "setTemplateRoot",
      "outputs": [],
      "stateMutability": "nonpayable",
      "type": "function"
    },
    {
      "inputs": [
        {
          "internalType": "bytes4",
          "name": "interfaceId",
          "type": "bytes4"
        }
      ],
      "name": "supportsInterface",
      "outputs": [
        {
          "internalType": "bool",
          "name": "",
          "type": "bool"
        }
      ],
      "stateMutability": "view",
      "type": "function"
    },
    {
      "inputs": [
        {
          "internalType": "address",
          "name": "newOwner",
          "type": "address"
        }
      ],
      "name": "transferOwnership",
      "outputs": [],
      "stateMutability": "nonpayable",
      "type": "function"
    },
    {
      "inputs": [
        {
          "internalType": "string[]",
          "name": "circuitIds",
          "type": "string[]"
        },
        {
          "internalType": "address[]",
          "name": "verifierAddresses",
          "type": "address[]"
        }
      ],
      "name": "updateCredentialVerifiers",
      "outputs": [],
      "stateMutability": "nonpayable",
      "type": "function"
    },
    {
      "inputs": [
        {
          "components": [
            {
              "internalType": "string",
              "name": "circuitId",
              "type": "string"
            },
            {
              "internalType": "bytes",
              "name": "proof",
              "type": "bytes"
            }
          ],
          "internalType": "struct PassportCredentialIssuer.CredentialProof",
          "name": "credentialProof",
          "type": "tuple"
        },
        {
          "internalType": "bytes",
          "name": "passportSignatureProof",
          "type": "bytes"
        }
      ],
      "name": "verifyPassport",
      "outputs": [],
      "stateMutability": "nonpayable",
      "type": "function"
    }
  ],
  "bytecode": "0x6080604052348015600f57600080fd5b506016601a565b60ca565b7ff0c57e16840df040f15088dc2f81fe391c3923bec73e23a9662efc9c229c6a00805468010000000000000000900460ff161560695760405163f92ee8a960e01b815260040160405180910390fd5b80546001600160401b039081161460c75780546001600160401b0319166001600160401b0390811782556040519081527fc7f505b2f371ae2175ee4913f4499e1f2633a7b5936321eed1cdaeb6115181d29060200160405180910390a15b50565b613e40806100d96000396000f3fe608060405234801561001057600080fd5b506004361061035c5760003560e01c80638a03c166116101d3578063c0cc365d11610104578063e30c3978116100a2578063f2fde38b1161007c578063f2fde38b1461072a578063f84c7c1e1461073d578063fa78d88c14610745578063ffa1ad74146105bf57600080fd5b8063e30c3978146106fc578063e633436f14610704578063e7c25d231461071757600080fd5b8063da68a0b1116100de578063da68a0b1146106b2578063da936540146106ba578063e23a845a146106e1578063e26ecb0b146106e957600080fd5b8063c0cc365d14610684578063c1e3273314610697578063c6365a3b146106aa57600080fd5b8063acb8cc4911610171578063b37feda41161014b578063b37feda414610616578063b57a40cb14610629578063b8db68711461063c578063badf055d1461067157600080fd5b8063acb8cc49146105bf578063b1af19e7146105f0578063b354c2d81461060357600080fd5b806394cf795e116101ad57806394cf795e146105895780639674cfa414610591578063a635c78514610599578063aad72921146105ac57600080fd5b80638a03c166146105435780638a684553146105565780638da5cb5b1461056957600080fd5b8063310d0d5b116102ad5780635d1ca6311161024b57806376dfc7761161022557806376dfc7761461050557806376ee7b491461050d57806379ba50971461052057806384b0196e1461052857600080fd5b80635d1ca631146104e257806370f4f9df146104ea578063715018a6146104fd57600080fd5b80633f0c6648116102875780633f0c6648146104ad578063406e8b4c146104b4578063443d7534146104c7578063523b8136146104da57600080fd5b8063310d0d5b1461048a5780633d59ec601461049d5780633df432fc146104a557600080fd5b806323aafe3b1161031a5780632c1d3204116102f45780632c1d3204146104475780632d26b3091461044f5780632d5c4f25146104645780632e798ec11461047757600080fd5b806323aafe3b1461040157806326485063146104145780632afab62f1461043457600080fd5b806233058d1461036157806301c85c771461038b57806301ffc9a7146103a157806305417f79146103c4578063110c96a7146103cc5780631b87278d146103ec575b600080fd5b61037461036f366004612e2f565b610758565b604051610382929190612eec565b60405180910390f35b610393610825565b604051908152602001610382565b6103b46103af366004612f2f565b6108aa565b6040519015158152602001610382565b6103936108e1565b6103df6103da366004612f59565b6108f4565b6040516103829190612f85565b6103ff6103fa366004612fd2565b61091f565b005b6103ff61040f366004612fd2565b6109f2565b610427610422366004612e2f565b610a25565b6040516103829190612feb565b6103b4610442366004612fd2565b610abe565b610393610ae9565b610457610afc565b6040516103829190612ffe565b61042761047236600461304a565b610b11565b6103ff610485366004612fd2565b610bb0565b61042761049836600461304a565b610bfc565b610393610c53565b610393610c66565b6028610393565b6103ff6104c23660046130a4565b610ca9565b6103746104d5366004612fd2565b610d46565b610393610dc1565b610393610dd4565b6103ff6104f83660046130d0565b610de4565b6103ff610e46565b610393610e5a565b6103ff61051b3660046131fe565b610e6d565b6103ff610ff0565b610530611038565b6040516103829796959493929190613282565b6103ff610551366004612fd2565b6110e4565b6103ff6105643660046130d0565b6110f6565b61057161112b565b6040516001600160a01b039091168152602001610382565b610457611160565b610393611175565b6105716105a73660046131fe565b611188565b6103df6105ba36600461331a565b6111c2565b6105e3604051806040016040528060058152602001640312e302e360dc1b81525081565b604051610382919061334f565b6103ff6105fe366004612fd2565b6113db565b6103ff610611366004612fd2565b6113f3565b610374610624366004612fd2565b611438565b610427610637366004612fd2565b6114b3565b61064f61064a366004612fd2565b611501565b6040805182518152602080840151908201529181015190820152606001610382565b6103ff61067f3660046133a6565b6115a9565b6103ff610692366004612fd2565b6115c3565b6104276106a5366004612fd2565b611605565b610393611655565b610393611668565b6103937f0d2a15c3140485b6db2a8c0f755486294daaae1eabcdd518f6beaf8e4ab4d83481565b6103936116ab565b6104276106f7366004613415565b6116b5565b610571611714565b6103ff61071236600461343f565b61173d565b6103ff61072536600461350d565b61190c565b6103ff6107383660046130d0565b611ab7565b6103b4611b3c565b6103b4610753366004612fd2565b611b52565b610760612d3e565b61078b6040518060800160405280600081526020016000815260200160008152602001600081525090565b610793611b73565b604051631f17004d60e31b815260048101919091526001600160401b038416602482015273__$068aad146bf104111ba65c4a1de2cd0e23$__9063f8b80268906044015b600060405180830381865af41580156107f4573d6000803e3d6000fd5b505050506040513d6000823e601f3d908101601f1916820160405261081c9190810190613704565b91509150915091565b600061082f611b73565b60405163765c2c6160e01b8152600481019190915273__$068aad146bf104111ba65c4a1de2cd0e23$__9063765c2c61906024015b602060405180830381865af4158015610881573d6000803e3d6000fd5b505050506040513d601f19601f820116820180604052508101906108a591906137a8565b905090565b60006001600160e01b03198216635d1ca63160e01b14806108db57506301ffc9a760e01b6001600160e01b03198316145b92915050565b60006108eb611b97565b600b0154905090565b6108fc612d87565b6000610906611b73565b6001015490506109178482856111c2565b949350505050565b610927611bbb565b6000610931611b97565b6000838152600a820160205260408120549192506001600160401b039091169081900361097957604051635204776960e01b8152600481018490526024015b60405180910390fd5b61098281611bed565b6000838152600a8301602052604090819020805467ffffffffffffffff19169055517f725d312746be14d750d0493aa7960a5aca3c30f98f74b0e07afc8f1a36b355c2906109e590859084909182526001600160401b0316602082015260400190565b60405180910390a1505050565b6109fa611bbb565b6000610a04611b97565b60009283526007016020526040909120805460ff1916911515919091179055565b610a2d612d3e565b610a35611b73565b604051637d0aba4f60e01b815260048101919091526001600160401b038316602482015273__$068aad146bf104111ba65c4a1de2cd0e23$__90637d0aba4f906044015b600060405180830381865af4158015610a96573d6000803e3d6000fd5b505050506040513d6000823e601f3d908101601f191682016040526108db91908101906137c1565b600080610ac9611b97565b6000938452600a01602052505060409020546001600160401b0316151590565b6000610af3611b97565b60010154905090565b60606108a5610b09611b97565b600801611cd7565b610b19612d3e565b610b21611b73565b60405163d55da6a360e01b81526004810191909152602481018490526044810183905273__$068aad146bf104111ba65c4a1de2cd0e23$__9063d55da6a3906064015b600060405180830381865af4158015610b81573d6000803e3d6000fd5b505050506040513d6000823e601f3d908101601f19168201604052610ba991908101906137c1565b9392505050565b610bb8611bbb565b80610bc1611b97565b600201556040518181527f73293f7b4f3fe4eeb423f647c95d70844d99749a80c8a93aa4c3d4996a63bc4a906020015b60405180910390a150565b610c04612d3e565b610c0c611b73565b604051636ac0c5c760e11b81526004810191909152602481018490526044810183905273__$068aad146bf104111ba65c4a1de2cd0e23$__9063d5818b8e90606401610b64565b6000610c5d611b73565b60010154919050565b6000610c70611b73565b604051631b8bf99b60e21b8152600481019190915273__$068aad146bf104111ba65c4a1de2cd0e23$__90636e2fe66c90602401610864565b610cb1611b73565b6040516359a6069160e01b815260048101919091526001600160a01b0383166024820152306044820152602860648201526001600160f01b03198216608482015273__$068aad146bf104111ba65c4a1de2cd0e23$__906359a606919060a4015b60006040518083038186803b158015610d2a57600080fd5b505af4158015610d3e573d6000803e3d6000fd5b505050505050565b610d4e612d3e565b610d796040518060800160405280600081526020016000815260200160008152602001600081525090565b610d81611b73565b60405163a3018d7960e01b815260048101919091526024810184905273__$068aad146bf104111ba65c4a1de2cd0e23$__9063a3018d79906044016107d7565b6000610dcb611b73565b609a0154919050565b6000610dde611b73565b54919050565b610dec611bbb565b6000610df6611b97565b9050610e056008820183611ce4565b506040516001600160a01b03831681527f0a33c33ca5c931f5cbdaa4137c8b7f3ea632aa05390959f913c410776733061b9060200160405180910390a15050565b610e4e611bbb565b610e586000611cf9565b565b6000610e64611b97565b60020154905090565b610e75611d35565b6000610e7f611b97565b6006810154604051634cc3a4a560e01b8152919250600091829182916001600160a01b0390911690634cc3a4a590610ebb90889060040161334f565b6000604051808303816000875af1158015610eda573d6000803e3d6000fd5b505050506040513d6000823e601f3d908101601f19168201604052610f02919081019061383a565b925092509250610f1182611b52565b610f3157604051638338dba560e01b815260048101839052602401610970565b80610f4f5760405163bd8ba84d60e01b815260040160405180910390fd5b601483511015610f725760405163025198d560e31b815260040160405180910390fd5b60148301516001600160a01b038116610f9e57604051634501a91960e01b815260040160405180910390fd5b610fab6004860182611ce4565b506040516001600160a01b03821681527f47d1c22a25bb3a5d4e481b9b1e6944c2eade3181a0a20b495ed61d35b5323f249060200160405180910390a1505050505050565b3380610ffa611714565b6001600160a01b03161461102c5760405163118cdaa760e01b81526001600160a01b0382166004820152602401610970565b61103581611cf9565b50565b60006060808280808381600080516020613deb833981519152805490915015801561106557506001810154155b6110a95760405162461bcd60e51b81526020600482015260156024820152741152540dcc4c8e88155b9a5b9a5d1a585b1a5e9959605a1b6044820152606401610970565b6110b1611d69565b6110b9611e2c565b60408051600080825260208201909252600f60f81b9c939b5091995046985030975095509350915050565b6110ec611bbb565b6001610a04611b97565b6110fe611bbb565b80611107611b97565b60060180546001600160a01b0319166001600160a01b039290921691909117905550565b6000807f9016d09d72d40fdae2fd8ceac6b6234c7706214fd39c1cd1e609a0528c1993005b546001600160a01b031692915050565b60606108a561116d611b97565b600401611cd7565b600061117f611b73565b609b0154919050565b6000611192611b97565b600301826040516111a39190613887565b908152604051908190036020019020546001600160a01b031692915050565b6111ca612d87565b6111d2611b73565b5484146112185760405162461bcd60e51b8152602060048201526014602482015273092c8cadce8d2e8f240d2c840dad2e6dac2e8c6d60631b6044820152606401610970565b6000611222611b73565b604051630b1a9cd360e01b815260048101919091526024810185905273__$068aad146bf104111ba65c4a1de2cd0e23$__90630b1a9cd390604401606060405180830381865af415801561127a573d6000803e3d6000fd5b505050506040513d601f19601f8201168201806040525081019061129e91906138a3565b6040805160808101825286815282516020808301919091528301518183015290820151606082015290915060006112d3611b73565b6020840151604051630b2bcd1b60e11b815260048101929092526001600160401b0387166024830152604482015273__$068aad146bf104111ba65c4a1de2cd0e23$__906316579a3690606401600060405180830381865af415801561133d573d6000803e3d6000fd5b505050506040513d6000823e601f3d908101601f1916820160405261136591908101906137c1565b6040805161010081018252825181526020808401511515818301528284015182840152606080850151908301526080808501519083015260a08085015115159083015260c0808501519083015260e093840151938201939093528151808301909252938152908101929092525095945050505050565b6113e3611bbb565b806113ec611b97565b600b015550565b6113fb611bbb565b80611404611b97565b600101556040518181527ff007a02ba428e63fa98b65269e70f9a9db847e0a839049a2f31f06928226773490602001610bf1565b611440612d3e565b61146b6040518060800160405280600081526020016000815260200160008152602001600081525090565b611473611b73565b604051636ad1d8a760e11b815260048101919091526024810184905273__$068aad146bf104111ba65c4a1de2cd0e23$__9063d5a3b14e906044016107d7565b6114bb612d3e565b6114c3611b73565b604051620cf08960e41b815260048101919091526024810183905273__$068aad146bf104111ba65c4a1de2cd0e23$__9062cf089090604401610a79565b61152560405180606001604052806000815260200160008152602001600081525090565b61152d611b73565b604051630b1a9cd360e01b815260048101919091526024810183905273__$068aad146bf104111ba65c4a1de2cd0e23$__90630b1a9cd390604401606060405180830381865af4158015611585573d6000803e3d6000fd5b505050506040513d601f19601f820116820180604052508101906108db91906138a3565b6115b1611bbb565b6115bd84848484611e6b565b50505050565b6115cb611bbb565b806115d4611b97565b556040518181527f7f7f3071c3c286700c199acae2fe071beb4a63dae1afff85186fa75d18090ae890602001610bf1565b61160d612d3e565b611615611b73565b6040516397ac539160e01b815260048101919091526024810183905273__$068aad146bf104111ba65c4a1de2cd0e23$__906397ac539190604401610a79565b600061165f611b73565b609c0154919050565b6000611672611b73565b604051631e75e7f360e01b8152600481019190915273__$068aad146bf104111ba65c4a1de2cd0e23$__90631e75e7f390602401610864565b6000610dde611b97565b6116bd612d3e565b6116c5611b73565b604051630b2bcd1b60e11b815260048101919091526001600160401b03841660248201526044810183905273__$068aad146bf104111ba65c4a1de2cd0e23$__906316579a3690606401610b64565b6000807f237e158222e3e6968b72b9db0d8043aacf074ad9f650f0d1606b4d82ee432c00611150565b6000611747611fc3565b805490915060ff600160401b82041615906001600160401b031660008115801561176e5750825b90506000826001600160401b0316600114801561178a5750303b155b905081158015611798575080155b156117b65760405163f92ee8a960e01b815260040160405180910390fd5b845467ffffffffffffffff1916600117855583156117e057845460ff60401b1916600160401b1785555b6118006117f060208a018a6130d0565b6104c260408b0160208c01613902565b61180987611fec565b6000611813611b97565b90508f81600001819055508e81600201819055508d8160010181905550868160060160006101000a8154816001600160a01b0302191690836001600160a01b031602179055506118a86040518060400160405280601081526020016f50617373706f7274497373756572563160801b815250604051806040016040528060058152602001640312e302e360dc1b815250611ffd565b6118b48d8d8d8d611e6b565b5083156118fb57845460ff60401b19168555604051600181527fc7f505b2f371ae2175ee4913f4499e1f2633a7b5936321eed1cdaeb6115181d29060200160405180910390a15b505050505050505050505050505050565b815151600003611932578151604051631d44e47160e21b8152610970919060040161334f565b60008060008085602001518060200190518101906119509190613964565b9350935093509350600060405180608001604052808581526020018481526020018381526020016040518061010001604052808860008151811061199657611996613a1e565b60200260200101518152602001886001815181106119b6576119b6613a1e565b60200260200101518152602001886002815181106119d6576119d6613a1e565b60200260200101518152602001886003815181106119f6576119f6613a1e565b6020026020010151815260200188600481518110611a1657611a16613a1e565b6020026020010151815260200188600581518110611a3657611a36613a1e565b6020026020010151815260200188600681518110611a5657611a56613a1e565b6020026020010151815260200188600781518110611a7657611a76613a1e565b60200260200101518152508152509050600086806020019051810190611a9c9190613a34565b9050611aad8860000151838361200f565b5050505050505050565b611abf611bbb565b7f237e158222e3e6968b72b9db0d8043aacf074ad9f650f0d1606b4d82ee432c0080546001600160a01b0319166001600160a01b0383169081178255611b0361112b565b6001600160a01b03167f38d16b8cac22d99fc7c124b9cd0de2d3fa1faef420bfe791d8c362d765e2270060405160405180910390a35050565b6000611b46611b73565b6002015460ff16919050565b6000611b5c611b97565b600092835260070160205250604090205460ff1690565b7f3018a310c36c4f8228f09bf3b1822685cf0971daa8265a58ca807c4a4daba40090565b7f405d73f251ed6c997b1c097c46d2f830c946626e510c12346d80e7c5a4dad30090565b33611bc461112b565b6001600160a01b031614610e585760405163118cdaa760e01b8152336004820152602401610970565b611bf5611b73565b604051638ad7195d60e01b815260048101919091526001600160401b038216602482015273__$068aad146bf104111ba65c4a1de2cd0e23$__90638ad7195d9060440160006040518083038186803b158015611c5057600080fd5b505af4158015611c64573d6000803e3d6000fd5b50505050611c70611b73565b60405163175ba3e960e11b8152600481019190915273__$068aad146bf104111ba65c4a1de2cd0e23$__90632eb747d29060240160006040518083038186803b158015611cbc57600080fd5b505af4158015611cd0573d6000803e3d6000fd5b5050505050565b60606000610ba983612031565b6000610ba9836001600160a01b03841661208d565b7f237e158222e3e6968b72b9db0d8043aacf074ad9f650f0d1606b4d82ee432c0080546001600160a01b0319168155611d31826120dc565b5050565b611d4a33611d41611b97565b6008019061214d565b610e5857604051631d83d27f60e01b8152336004820152602401610970565b7fa16a46d94261c7517cc8ff89f61c0ce93598e3c849801011dee649a6a557d1028054606091600080516020613deb83398151915291611da890613ad2565b80601f0160208091040260200160405190810160405280929190818152602001828054611dd490613ad2565b8015611e215780601f10611df657610100808354040283529160200191611e21565b820191906000526020600020905b815481529060010190602001808311611e0457829003601f168201915b505050505091505090565b7fa16a46d94261c7517cc8ff89f61c0ce93598e3c849801011dee649a6a557d1038054606091600080516020613deb83398151915291611da890613ad2565b6000611e75611b97565b9050838214611ea1576040516355c5b3e360e11b81526004810185905260248101839052604401610970565b60005b84811015610d3e57838382818110611ebe57611ebe613a1e565b9050602002016020810190611ed391906130d0565b82600301878784818110611ee957611ee9613a1e565b9050602002810190611efb9190613b0c565b604051611f09929190613b52565b90815260405190819003602001902080546001600160a01b03929092166001600160a01b03199092169190911790557f5d864db8d88e9085fd5e7752a2094701e558355b75b561c00174d27aefd3e289868683818110611f6b57611f6b613a1e565b9050602002810190611f7d9190613b0c565b868685818110611f8f57611f8f613a1e565b9050602002016020810190611fa491906130d0565b604051611fb393929190613b62565b60405180910390a1600101611ea4565b6000807ff0c57e16840df040f15088dc2f81fe391c3923bec73e23a9662efc9c229c6a006108db565b611ff461216f565b61103581612194565b61200561216f565b611d3182826121c6565b6120198383612227565b6120228161231f565b61202c8282612393565b505050565b60608160000180548060200260200160405190810160405280929190818152602001828054801561208157602002820191906000526020600020905b81548152602001906001019080831161206d575b50505050509050919050565b60008181526001830160205260408120546120d4575081546001818101845560008481526020808220909301849055845484825282860190935260409020919091556108db565b5060006108db565b7f9016d09d72d40fdae2fd8ceac6b6234c7706214fd39c1cd1e609a0528c19930080546001600160a01b031981166001600160a01b03848116918217845560405192169182907f8be0079c531659141344cd1fd0a4f28419497f9722a3daafe3b4186f6b6457e090600090a3505050565b6001600160a01b03811660009081526001830160205260408120541515610ba9565b612177612402565b610e5857604051631afcd79f60e31b815260040160405180910390fd5b61219c61216f565b6001600160a01b03811661102c57604051631e4fbdf760e01b815260006004820152602401610970565b6121ce61216f565b600080516020613deb8339815191527fa16a46d94261c7517cc8ff89f61c0ce93598e3c849801011dee649a6a557d1026122088482613bea565b50600381016122178382613bea565b5060008082556001909101555050565b6000612231611b97565b9050600081600301846040516122479190613887565b908152604051908190036020019020546001600160a01b0316905080612280576040516301dcf1ab60e31b815260040160405180910390fd5b806001600160a01b031663c9219a7a84600001518560200151866040015187606001516040518563ffffffff1660e01b81526004016122c29493929190613ccb565b602060405180830381865afa1580156122df573d6000803e3d6000fd5b505050506040513d601f19601f820116820180604052508101906123039190613d50565b6115bd576040516281723b60e21b815260040160405180910390fd5b6000806123348360000151846020015161241c565b91509150816123565760405163df2b56ff60e01b815260040160405180910390fd5b61236b81612362611b97565b6004019061214d565b61202c57604051631432861160e31b81526001600160a01b0382166004820152602401610970565b600061239e836124c6565b9050600082600001516020015190506123e2826000015183602001518460400151856060015186608001518760a00151896000015160000151888a60e00151612637565b6123f0818360c001516128e3565b6115bd82600001518360200151612953565b600061240c611fc3565b54600160401b900460ff16919050565b600080600061248d7f0d2a15c3140485b6db2a8c0f755486294daaae1eabcdd518f6beaf8e4ab4d83486600001518760200151604051602001612472939291909283526020830191909152604082015260600190565b60405160208183030381529060405280519060200120612a0e565b905060008061249c8387612a3b565b50909250905060008160038111156124b6576124b6613d6b565b14945090925050505b9250929050565b61251760405180610100016040528060008152602001600081526020016000815260200160008152602001600081526020016000815260200160006001600160401b03168152602001600081525090565b604051806101000160405280836060015160006008811061253a5761253a613a1e565b60200201518152602001836060015160016008811061255b5761255b613a1e565b60200201518152602001836060015160046008811061257c5761257c613a1e565b60200201518152602001836060015160036008811061259d5761259d613a1e565b6020020151815260200183606001516005600881106125be576125be613a1e565b6020020151815260200183606001516002600881106125df576125df613a1e565b60200201518152602001836060015160076008811061260057612600613a1e565b60200201516001600160401b03168152602001836060015160066008811061262a5761262a613a1e565b6020020151905292915050565b6000612641611b97565b90508960000361266757604051631b1aad8760e11b8152600481018b9052602401610970565b8860000361268b57604051634bdc991b60e11b8152600481018a9052602401610970565b806001015486146126bf57600181015460405163e748379160e01b8152610970918891600401918252602082015260400190565b8484146126ec576040516001621d0d8360e21b031981526004810185905260248101869052604401610970565b60006207a12088111561270e5761270788630121eac0613d97565b905061271f565b61271c886301312d00613d97565b90505b600080600061273c8560000154426127379190613daa565b612a88565b91945092509050600081612751846064613dbd565b61275d86612710613dbd565b6127679190613d97565b6127719190613d97565b90508481111561279757604051635d5e30bf60e01b8152600481018d9052602401610970565b60008060006127af8960020154426127379190613d97565b919450925090506000816127c4846064613dbd565b6127d086612710613dbd565b6127da9190613d97565b6127e49190613d97565b90508089111561280b578f6040516353f3b14160e01b815260040161097091815260200190565b50505050505050504282600001548a6128249190613d97565b10156128455760405162bd09f160e11b8152600481018a9052602401610970565b60028201546128549042613d97565b8911156128775760405163d818833560e01b8152600481018a9052602401610970565b8282600b01541461289b5760405163fe0c887b60e01b815260040160405180910390fd5b6000848152600a830160205260409020546001600160401b0316156128d657604051635377438b60e11b815260048101859052602401610970565b5050505050505050505050565b806001600160401b0316600003612918576040516337f969b360e11b81526001600160401b0382166004820152602401610970565b6000612922611b97565b6000938452600a01602052506040909120805467ffffffffffffffff19166001600160401b03909216919091179055565b61295b611b73565b6040516306fb157560e01b81526004810191909152602481018390526044810182905273__$068aad146bf104111ba65c4a1de2cd0e23$__906306fb15759060640160006040518083038186803b1580156129b557600080fd5b505af41580156129c9573d6000803e3d6000fd5b505050506129d5611b73565b60405163175ba3e960e11b8152600481019190915273__$068aad146bf104111ba65c4a1de2cd0e23$__90632eb747d290602401610d12565b60006108db612a1b612aa7565b8360405161190160f01b8152600281019290925260228201526042902090565b60008060008351604103612a755760208401516040850151606086015160001a612a6788828585612ab1565b955095509550505050612a81565b50508151600091506002905b9250925092565b60008080612a9a620151808504612b80565b9196909550909350915050565b60006108a5612c1c565b600080807f7fffffffffffffffffffffffffffffff5d576e7357a4501ddfe92f46681b20a0841115612aec5750600091506003905082612b76565b604080516000808252602082018084528a905260ff891692820192909252606081018790526080810186905260019060a0016020604051602081039080840390855afa158015612b40573d6000803e3d6000fd5b5050604051601f1901519150506001600160a01b038116612b6c57506000925060019150829050612b76565b9250600091508190505b9450945094915050565b60008080836226496581018262023ab1600483020590506004600362023ab18302010590910390600062164b09610fa0600185010205905060046105b58202058303601f019250600061098f8460500281612bdd57612bdd613dd4565b0590506000605061098f83020585039050600b820560301994909401606402929092018301996002600c90940290910392909201975095509350505050565b60007f8b73c3c69bb8fe3d512ecc4cf759cc79239f7b179b0ffacaa9a75d522b39400f612c47612c90565b612c4f612cfa565b60408051602081019490945283019190915260608201524660808201523060a082015260c00160405160208183030381529060405280519060200120905090565b6000600080516020613deb83398151915281612caa611d69565b805190915015612cc257805160209091012092915050565b81548015612cd1579392505050565b7fc5d2460186f7233c927e7db2dcc703c0e500b653ca82273b7bfad8045d85a470935050505090565b6000600080516020613deb83398151915281612d14611e2c565b805190915015612d2c57805160209091012092915050565b60018201548015612cd1579392505050565b6040518061010001604052806000815260200160001515815260200160608152602001600081526020016000815260200160001515815260200160008152602001600081525090565b6040518060400160405280612dbd6040518060800160405280600081526020016000815260200160008152602001600081525090565b8152602001612e0e6040518061010001604052806000815260200160001515815260200160608152602001600081526020016000815260200160001515815260200160008152602001600081525090565b905290565b80356001600160401b0381168114612e2a57600080fd5b919050565b600060208284031215612e4157600080fd5b610ba982612e13565b805182526020808201511515818401526040808301516101009185018290528051918501829052600092019082906101208601905b80831015612ea25783518252602082019150602084019350600183019250612e7f565b50606085015160608701526080850151608087015260a08501519250612ecc60a087018415159052565b60c085015160c087015260e085015160e087015280935050505092915050565b60a081526000612eff60a0830185612e4a565b9050610ba96020830184805182526020810151602083015260408101516040830152606081015160608301525050565b600060208284031215612f4157600080fd5b81356001600160e01b031981168114610ba957600080fd5b60008060408385031215612f6c57600080fd5b82359150612f7c60208401612e13565b90509250929050565b60208152612fb8602082018351805182526020810151602083015260408101516040830152606081015160608301525050565b6000602083015160a08084015261091760c0840182612e4a565b600060208284031215612fe457600080fd5b5035919050565b602081526000610ba96020830184612e4a565b602080825282518282018190526000918401906040840190835b8181101561303f5783516001600160a01b0316835260209384019390920191600101613018565b509095945050505050565b6000806040838503121561305d57600080fd5b50508035926020909101359150565b6001600160a01b038116811461103557600080fd5b8035612e2a8161306c565b80356001600160f01b031981168114612e2a57600080fd5b600080604083850312156130b757600080fd5b82356130c28161306c565b9150612f7c6020840161308c565b6000602082840312156130e257600080fd5b8135610ba98161306c565b634e487b7160e01b600052604160045260246000fd5b604080519081016001600160401b0381118282101715613125576131256130ed565b60405290565b60405161010081016001600160401b0381118282101715613125576131256130ed565b604051601f8201601f191681016001600160401b0381118282101715613176576131766130ed565b604052919050565b60006001600160401b03821115613197576131976130ed565b50601f01601f191660200190565b600082601f8301126131b657600080fd5b81356020830160006131cf6131ca8461317e565b61314e565b90508281528583830111156131e357600080fd5b82826020830137600092810160200192909252509392505050565b60006020828403121561321057600080fd5b81356001600160401b0381111561322657600080fd5b610917848285016131a5565b60005b8381101561324d578181015183820152602001613235565b50506000910152565b6000815180845261326e816020860160208601613232565b601f01601f19169290920160200192915050565b60ff60f81b8816815260e0602082015260006132a160e0830189613256565b82810360408401526132b38189613256565b606084018890526001600160a01b038716608085015260a0840186905283810360c08501528451808252602080870193509091019060005b818110156133095783518352602093840193909201916001016132eb565b50909b9a5050505050505050505050565b60008060006060848603121561332f57600080fd5b833592506020840135915061334660408501612e13565b90509250925092565b602081526000610ba96020830184613256565b60008083601f84011261337457600080fd5b5081356001600160401b0381111561338b57600080fd5b6020830191508360208260051b85010111156124bf57600080fd5b600080600080604085870312156133bc57600080fd5b84356001600160401b038111156133d257600080fd5b6133de87828801613362565b90955093505060208501356001600160401b038111156133fd57600080fd5b61340987828801613362565b95989497509550505050565b6000806040838503121561342857600080fd5b61343183612e13565b946020939093013593505050565b6000806000806000806000806000808a8c0361012081121561346057600080fd5b8b359a5060208c0135995060408c0135985060608c01356001600160401b0381111561348b57600080fd5b6134978e828f01613362565b90995097505060808c01356001600160401b038111156134b657600080fd5b6134c28e828f01613362565b9097509550506040609f19820112156134da57600080fd5b5060a08b0192506134ed60e08c01613081565b91506134fc6101008c01613081565b90509295989b9194979a5092959850565b6000806040838503121561352057600080fd5b82356001600160401b0381111561353657600080fd5b83016040818603121561354857600080fd5b613550613103565b81356001600160401b0381111561356657600080fd5b613572878285016131a5565b82525060208201356001600160401b0381111561358e57600080fd5b61359a878285016131a5565b602083015250809350505060208301356001600160401b038111156135be57600080fd5b6135ca858286016131a5565b9150509250929050565b80518015158114612e2a57600080fd5b600082601f8301126135f557600080fd5b81516001600160401b0381111561360e5761360e6130ed565b8060051b61361e6020820161314e565b9182526020818501810192908101908684111561363a57600080fd5b6020860192505b8383101561365c578251825260209283019290910190613641565b9695505050505050565b6000610100828403121561367957600080fd5b61368161312b565b825181529050613693602083016135d4565b602082015260408201516001600160401b038111156136b157600080fd5b6136bd848285016135e4565b60408301525060608281015190820152608080830151908201526136e360a083016135d4565b60a082015260c0828101519082015260e09182015191810191909152919050565b60008082840360a081121561371857600080fd5b83516001600160401b0381111561372e57600080fd5b61373a86828701613666565b9350506080601f198201121561374f57600080fd5b50604051608081016001600160401b0381118282101715613772576137726130ed565b60409081526020858101518352858201519083015260608086015191830191909152608090940151938101939093525092909150565b6000602082840312156137ba57600080fd5b5051919050565b6000602082840312156137d357600080fd5b81516001600160401b038111156137e957600080fd5b61091784828501613666565b600082601f83011261380657600080fd5b81516138146131ca8261317e565b81815284602083860101111561382957600080fd5b610917826020830160208701613232565b60008060006060848603121561384f57600080fd5b83516001600160401b0381111561386557600080fd5b613871868287016137f5565b93505060208401519150613346604085016135d4565b60008251613899818460208701613232565b9190910192915050565b600060608284031280156138b657600080fd5b50604051600090606081016001600160401b03811182821017156138dc576138dc6130ed565b604090815284518252602080860151908301529384015193810193909352509092915050565b60006020828403121561391457600080fd5b610ba98261308c565b600082601f83011261392e57600080fd5b613938604061314e565b80604084018581111561394a57600080fd5b845b8181101561303f57805184526020938401930161394c565b600080600080610120858703121561397b57600080fd5b84516001600160401b0381111561399157600080fd5b61399d878288016135e4565b9450506139ad866020870161391d565b925085607f8601126139be57600080fd5b60406139c98161314e565b8060e08801898111156139db57600080fd5b606089015b81811015613a01576139f28b8261391d565b845260209093019284016139e0565b50819550613a0f8a8261391d565b94505050505092959194509250565b634e487b7160e01b600052603260045260246000fd5b600060208284031215613a4657600080fd5b81516001600160401b03811115613a5c57600080fd5b82018084036060811215613a6f57600080fd5b613a77613103565b6040821215613a8557600080fd5b613a8d613103565b83518152602080850151908201528152604083015191506001600160401b03821115613ab857600080fd5b613ac4868385016137f5565b602082015295945050505050565b600181811c90821680613ae657607f821691505b602082108103613b0657634e487b7160e01b600052602260045260246000fd5b50919050565b6000808335601e19843603018112613b2357600080fd5b8301803591506001600160401b03821115613b3d57600080fd5b6020019150368190038213156124bf57600080fd5b8183823760009101908152919050565b6040815282604082015282846060830137600060608483018101919091526001600160a01b03929092166020820152601f909201601f191690910101919050565b601f82111561202c57806000526020600020601f840160051c81016020851015613bca5750805b601f840160051c820191505b81811015611cd05760008155600101613bd6565b81516001600160401b03811115613c0357613c036130ed565b613c1781613c118454613ad2565b84613ba3565b6020601f821160018114613c4b5760008315613c335750848201515b600019600385901b1c1916600184901b178455611cd0565b600084815260208120601f198516915b82811015613c7b5787850151825560209485019460019092019101613c5b565b5084821015613c995786840151600019600387901b60f8161c191681555b50505050600190811b01905550565b8060005b60028110156115bd578151845260209384019390910190600101613cac565b6102008101613cda8287613ca8565b604082018560005b6002811015613d0c57613cf6838351613ca8565b6040929092019160209190910190600101613ce2565b505050613d1c60c0830185613ca8565b61010082018360005b6008811015613d44578151835260209283019290910190600101613d25565b50505095945050505050565b600060208284031215613d6257600080fd5b610ba9826135d4565b634e487b7160e01b600052602160045260246000fd5b634e487b7160e01b600052601160045260246000fd5b808201808211156108db576108db613d81565b818103818111156108db576108db613d81565b80820281158282048414176108db576108db613d81565b634e487b7160e01b600052601260045260246000fdfea16a46d94261c7517cc8ff89f61c0ce93598e3c849801011dee649a6a557d100a2646970667358221220ae58f880bae1a603887201e1d67db0a21656885b2cb24b7abf6d53bdfeed550664736f6c634300081b0033",
  "linkReferences": {
    "@iden3/contracts/lib/IdentityLib.sol": {
      "IdentityLib": [
        {
          "length": 20,
          "start": 2194
        },
        {
          "length": 20,
          "start": 2335
        },
        {
          "length": 20,
          "start": 2868
        },
        {
          "length": 20,
          "start": 3103
        },
        {
          "length": 20,
          "start": 3338
        },
        {
          "length": 20,
          "start": 3424
        },
        {
          "length": 20,
          "start": 3533
        },
        {
          "length": 20,
          "start": 3704
        },
        {
          "length": 20,
          "start": 4889
        },
        {
          "length": 20,
          "start": 5084
        },
        {
          "length": 20,
          "start": 5482
        },
        {
          "length": 20,
          "start": 5561
        },
        {
          "length": 20,
          "start": 5668
        },
        {
          "length": 20,
          "start": 5900
        },
        {
          "length": 20,
          "start": 5986
        },
        {
          "length": 20,
          "start": 6091
        },
        {
          "length": 20,
          "start": 7412
        },
        {
          "length": 20,
          "start": 7520
        },
        {
          "length": 20,
          "start": 10841
        },
        {
          "length": 20,
          "start": 10949
        }
      ]
    }
  },
  "deployedLinkReferences": {
    "@iden3/contracts/lib/IdentityLib.sol": {
      "IdentityLib": [
        {
          "length": 20,
          "start": 1977
        },
        {
          "length": 20,
          "start": 2118
        },
        {
          "length": 20,
          "start": 2651
        },
        {
          "length": 20,
          "start": 2886
        },
        {
          "length": 20,
          "start": 3121
        },
        {
          "length": 20,
          "start": 3207
        },
        {
          "length": 20,
          "start": 3316
        },
        {
          "length": 20,
          "start": 3487
        },
        {
          "length": 20,
          "start": 4672
        },
        {
          "length": 20,
          "start": 4867
        },
        {
          "length": 20,
          "start": 5265
        },
        {
          "length": 20,
          "start": 5344
        },
        {
          "length": 20,
          "start": 5451
        },
        {
          "length": 20,
          "start": 5683
        },
        {
          "length": 20,
          "start": 5769
        },
        {
          "length": 20,
          "start": 5874
        },
        {
          "length": 20,
          "start": 7195
        },
        {
          "length": 20,
          "start": 7303
        },
        {
          "length": 20,
          "start": 10624
        },
        {
          "length": 20,
          "start": 10732
        }
      ]
    }
  }
}