{
  "_format": "hh-sol-artifact-1",
  "contractName": "AnonAadhaarCredentialIssuer",
  "sourceName": "contracts/verifiers/AnonAadhaarCredentialIssuer.sol",
  "abi": [
    {
      "inputs": [],
      "stateMutability": "nonpayable",
      "type": "constructor"
    },
    {
      "inputs": [],
      "name": "InvalidAnonAadhaarProof",
      "type": "error"
    },
    {
      "inputs": [
        {
          "internalType": "uint256",
          "name": "expected",
          "type": "uint256"
        },
        {
          "internalType": "uint256",
          "name": "provided",
          "type": "uint256"
        }
      ],
      "name": "InvalidExpirationDate",
      "type": "error"
    },
    {
      "inputs": [],
      "name": "InvalidHashIndex",
      "type": "error"
    },
    {
      "inputs": [],
      "name": "InvalidHashValue",
      "type": "error"
    },
    {
      "inputs": [],
      "name": "InvalidInitialization",
      "type": "error"
    },
    {
      "inputs": [],
      "name": "InvalidIssuerDidHash",
      "type": "error"
    },
    {
      "inputs": [],
      "name": "InvalidNullifierSeed",
      "type": "error"
    },
    {
      "inputs": [],
      "name": "InvalidPubKeyHash",
      "type": "error"
    },
    {
      "inputs": [
        {
          "internalType": "uint64",
          "name": "revocationNonce",
          "type": "uint64"
        }
      ],
      "name": "InvalidRevocationNonce",
      "type": "error"
    },
    {
      "inputs": [],
      "name": "InvalidStateContractAddress",
      "type": "error"
    },
    {
      "inputs": [],
      "name": "InvalidTemplateRoot",
      "type": "error"
    },
    {
      "inputs": [],
      "name": "InvalidVerifierAddress",
      "type": "error"
    },
    {
      "inputs": [
        {
          "internalType": "uint256",
          "name": "length1",
          "type": "uint256"
        },
        {
          "internalType": "uint256",
          "name": "length2",
          "type": "uint256"
        }
      ],
      "name": "LengthMismatch",
      "type": "error"
    },
    {
      "inputs": [
        {
          "internalType": "string",
          "name": "circuitId",
          "type": "string"
        }
      ],
      "name": "NoAnonAadhaarCircuitIdFound",
      "type": "error"
    },
    {
      "inputs": [],
      "name": "NoVerifierSet",
      "type": "error"
    },
    {
      "inputs": [],
      "name": "NotInitializing",
      "type": "error"
    },
    {
      "inputs": [],
      "name": "NullifierAlreadyExists",
      "type": "error"
    },
    {
      "inputs": [],
      "name": "NullifierDoesNotExist",
      "type": "error"
    },
    {
      "inputs": [
        {
          "internalType": "address",
          "name": "owner",
          "type": "address"
        }
      ],
      "name": "OwnableInvalidOwner",
      "type": "error"
    },
    {
      "inputs": [
        {
          "internalType": "address",
          "name": "account",
          "type": "address"
        }
      ],
      "name": "OwnableUnauthorizedAccount",
      "type": "error"
    },
    {
      "inputs": [],
      "name": "ProofExpired",
      "type": "error"
    },
    {
      "inputs": [
        {
          "internalType": "uint256",
          "name": "qrVersion",
          "type": "uint256"
        }
      ],
      "name": "UnsupportedQrVersion",
      "type": "error"
    },
    {
      "anonymous": false,
      "inputs": [
        {
          "indexed": false,
          "internalType": "string",
          "name": "circuitId",
          "type": "string"
        },
        {
          "indexed": false,
          "internalType": "address",
          "name": "verifierAddress",
          "type": "address"
        }
      ],
      "name": "AnonAadhaarCircuitVerifierUpdated",
      "type": "event"
    },
    {
      "anonymous": false,
      "inputs": [
        {
          "indexed": false,
          "internalType": "uint256",
          "name": "nullifier",
          "type": "uint256"
        },
        {
          "indexed": false,
          "internalType": "uint64",
          "name": "revocationNonce",
          "type": "uint64"
        }
      ],
      "name": "CredentialRevoked",
      "type": "event"
    },
    {
      "anonymous": false,
      "inputs": [
        {
          "indexed": false,
          "internalType": "uint64",
          "name": "version",
          "type": "uint64"
        }
      ],
      "name": "Initialized",
      "type": "event"
    },
    {
      "anonymous": false,
      "inputs": [
        {
          "indexed": false,
          "internalType": "uint256",
          "name": "issuerDidHash",
          "type": "uint256"
        }
      ],
      "name": "IssuerDidHashUpdated",
      "type": "event"
    },
    {
      "anonymous": false,
      "inputs": [
        {
          "indexed": true,
          "internalType": "address",
          "name": "previousOwner",
          "type": "address"
        },
        {
          "indexed": true,
          "internalType": "address",
          "name": "newOwner",
          "type": "address"
        }
      ],
      "name": "OwnershipTransferStarted",
      "type": "event"
    },
    {
      "anonymous": false,
      "inputs": [
        {
          "indexed": true,
          "internalType": "address",
          "name": "previousOwner",
          "type": "address"
        },
        {
          "indexed": true,
          "internalType": "address",
          "name": "newOwner",
          "type": "address"
        }
      ],
      "name": "OwnershipTransferred",
      "type": "event"
    },
    {
      "anonymous": false,
      "inputs": [
        {
          "indexed": false,
          "internalType": "uint256",
          "name": "publicKeyHash",
          "type": "uint256"
        }
      ],
      "name": "PublicKeyHashAdded",
      "type": "event"
    },
    {
      "anonymous": false,
      "inputs": [
        {
          "indexed": false,
          "internalType": "uint256",
          "name": "templateRoot",
          "type": "uint256"
        }
      ],
      "name": "TemplateRootUpdated",
      "type": "event"
    },
    {
      "inputs": [],
      "name": "VERSION",
      "outputs": [
        {
          "internalType": "string",
          "name": "",
          "type": "string"
        }
      ],
      "stateMutability": "view",
      "type": "function"
    },
    {
      "inputs": [],
      "name": "acceptOwnership",
      "outputs": [],
      "stateMutability": "nonpayable",
      "type": "function"
    },
    {
      "inputs": [
        {
          "internalType": "uint256",
          "name": "publicKeyHash",
          "type": "uint256"
        }
      ],
      "name": "addPublicKeyHash",
      "outputs": [],
      "stateMutability": "nonpayable",
      "type": "function"
    },
    {
      "inputs": [
        {
          "internalType": "uint256[]",
          "name": "publicKeysHashes",
          "type": "uint256[]"
        }
      ],
      "name": "addPublicKeyHashesBatch",
      "outputs": [],
      "stateMutability": "nonpayable",
      "type": "function"
    },
    {
      "inputs": [
        {
          "internalType": "uint256",
          "name": "qrVersion",
          "type": "uint256"
        }
      ],
      "name": "addQrVersion",
      "outputs": [],
      "stateMutability": "nonpayable",
      "type": "function"
    },
    {
      "inputs": [
        {
          "internalType": "uint256[]",
          "name": "qrVersions",
          "type": "uint256[]"
        }
      ],
      "name": "addQrVersionBatch",
      "outputs": [],
      "stateMutability": "nonpayable",
      "type": "function"
    },
    {
      "inputs": [
        {
          "internalType": "string",
          "name": "circuitId",
          "type": "string"
        }
      ],
      "name": "anonAadhaarVerifiers",
      "outputs": [
        {
          "internalType": "address",
          "name": "",
          "type": "address"
        }
      ],
      "stateMutability": "view",
      "type": "function"
    },
    {
      "inputs": [
        {
          "internalType": "uint256",
          "name": "claimIndexHash",
          "type": "uint256"
        }
      ],
      "name": "getClaimProof",
      "outputs": [
        {
          "components": [
            {
              "internalType": "uint256",
              "name": "root",
              "type": "uint256"
            },
            {
              "internalType": "bool",
              "name": "existence",
              "type": "bool"
            },
            {
              "internalType": "uint256[]",
              "name": "siblings",
              "type": "uint256[]"
            },
            {
              "internalType": "uint256",
              "name": "index",
              "type": "uint256"
            },
            {
              "internalType": "uint256",
              "name": "value",
              "type": "uint256"
            },
            {
              "internalType": "bool",
              "name": "auxExistence",
              "type": "bool"
            },
            {
              "internalType": "uint256",
              "name": "auxIndex",
              "type": "uint256"
            },
            {
              "internalType": "uint256",
              "name": "auxValue",
              "type": "uint256"
            }
          ],
          "internalType": "struct SmtLib.Proof",
          "name": "",
          "type": "tuple"
        }
      ],
      "stateMutability": "view",
      "type": "function"
    },
    {
      "inputs": [
        {
          "internalType": "uint256",
          "name": "claimIndexHash",
          "type": "uint256"
        },
        {
          "internalType": "uint256",
          "name": "root",
          "type": "uint256"
        }
      ],
      "name": "getClaimProofByRoot",
      "outputs": [
        {
          "components": [
            {
              "internalType": "uint256",
              "name": "root",
              "type": "uint256"
            },
            {
              "internalType": "bool",
              "name": "existence",
              "type": "bool"
            },
            {
              "internalType": "uint256[]",
              "name": "siblings",
              "type": "uint256[]"
            },
            {
              "internalType": "uint256",
              "name": "index",
              "type": "uint256"
            },
            {
              "internalType": "uint256",
              "name": "value",
              "type": "uint256"
            },
            {
              "internalType": "bool",
              "name": "auxExistence",
              "type": "bool"
            },
            {
              "internalType": "uint256",
              "name": "auxIndex",
              "type": "uint256"
            },
            {
              "internalType": "uint256",
              "name": "auxValue",
              "type": "uint256"
            }
          ],
          "internalType": "struct SmtLib.Proof",
          "name": "",
          "type": "tuple"
        }
      ],
      "stateMutability": "view",
      "type": "function"
    },
    {
      "inputs": [
        {
          "internalType": "uint256",
          "name": "claimIndexHash",
          "type": "uint256"
        }
      ],
      "name": "getClaimProofWithStateInfo",
      "outputs": [
        {
          "components": [
            {
              "internalType": "uint256",
              "name": "root",
              "type": "uint256"
            },
            {
              "internalType": "bool",
              "name": "existence",
              "type": "bool"
            },
            {
              "internalType": "uint256[]",
              "name": "siblings",
              "type": "uint256[]"
            },
            {
              "internalType": "uint256",
              "name": "index",
              "type": "uint256"
            },
            {
              "internalType": "uint256",
              "name": "value",
              "type": "uint256"
            },
            {
              "internalType": "bool",
              "name": "auxExistence",
              "type": "bool"
            },
            {
              "internalType": "uint256",
              "name": "auxIndex",
              "type": "uint256"
            },
            {
              "internalType": "uint256",
              "name": "auxValue",
              "type": "uint256"
            }
          ],
          "internalType": "struct SmtLib.Proof",
          "name": "",
          "type": "tuple"
        },
        {
          "components": [
            {
              "internalType": "uint256",
              "name": "state",
              "type": "uint256"
            },
            {
              "internalType": "uint256",
              "name": "claimsRoot",
              "type": "uint256"
            },
            {
              "internalType": "uint256",
              "name": "revocationsRoot",
              "type": "uint256"
            },
            {
              "internalType": "uint256",
              "name": "rootsRoot",
              "type": "uint256"
            }
          ],
          "internalType": "struct IdentityLib.StateInfo",
          "name": "",
          "type": "tuple"
        }
      ],
      "stateMutability": "view",
      "type": "function"
    },
    {
      "inputs": [],
      "name": "getClaimsTreeRoot",
      "outputs": [
        {
          "internalType": "uint256",
          "name": "",
          "type": "uint256"
        }
      ],
      "stateMutability": "view",
      "type": "function"
    },
    {
      "inputs": [],
      "name": "getExpirationTime",
      "outputs": [
        {
          "internalType": "uint256",
          "name": "",
          "type": "uint256"
        }
      ],
      "stateMutability": "view",
      "type": "function"
    },
    {
      "inputs": [],
      "name": "getId",
      "outputs": [
        {
          "internalType": "uint256",
          "name": "",
          "type": "uint256"
        }
      ],
      "stateMutability": "view",
      "type": "function"
    },
    {
      "inputs": [],
      "name": "getIsOldStateGenesis",
      "outputs": [
        {
          "internalType": "bool",
          "name": "",
          "type": "bool"
        }
      ],
      "stateMutability": "view",
      "type": "function"
    },
    {
      "inputs": [],
      "name": "getLatestPublishedClaimsRoot",
      "outputs": [
        {
          "internalType": "uint256",
          "name": "",
          "type": "uint256"
        }
      ],
      "stateMutability": "view",
      "type": "function"
    },
    {
      "inputs": [],
      "name": "getLatestPublishedRevocationsRoot",
      "outputs": [
        {
          "internalType": "uint256",
          "name": "",
          "type": "uint256"
        }
      ],
      "stateMutability": "view",
      "type": "function"
    },
    {
      "inputs": [],
      "name": "getLatestPublishedRootsRoot",
      "outputs": [
        {
          "internalType": "uint256",
          "name": "",
          "type": "uint256"
        }
      ],
      "stateMutability": "view",
      "type": "function"
    },
    {
      "inputs": [],
      "name": "getLatestPublishedState",
      "outputs": [
        {
          "internalType": "uint256",
          "name": "",
          "type": "uint256"
        }
      ],
      "stateMutability": "view",
      "type": "function"
    },
    {
      "inputs": [],
      "name": "getNullifierSeed",
      "outputs": [
        {
          "internalType": "uint256",
          "name": "",
          "type": "uint256"
        }
      ],
      "stateMutability": "view",
      "type": "function"
    },
    {
      "inputs": [
        {
          "internalType": "uint64",
          "name": "revocationNonce",
          "type": "uint64"
        }
      ],
      "name": "getRevocationProof",
      "outputs": [
        {
          "components": [
            {
              "internalType": "uint256",
              "name": "root",
              "type": "uint256"
            },
            {
              "internalType": "bool",
              "name": "existence",
              "type": "bool"
            },
            {
              "internalType": "uint256[]",
              "name": "siblings",
              "type": "uint256[]"
            },
            {
              "internalType": "uint256",
              "name": "index",
              "type": "uint256"
            },
            {
              "internalType": "uint256",
              "name": "value",
              "type": "uint256"
            },
            {
              "internalType": "bool",
              "name": "auxExistence",
              "type": "bool"
            },
            {
              "internalType": "uint256",
              "name": "auxIndex",
              "type": "uint256"
            },
            {
              "internalType": "uint256",
              "name": "auxValue",
              "type": "uint256"
            }
          ],
          "internalType": "struct SmtLib.Proof",
          "name": "",
          "type": "tuple"
        }
      ],
      "stateMutability": "view",
      "type": "function"
    },
    {
      "inputs": [
        {
          "internalType": "uint64",
          "name": "revocationNonce",
          "type": "uint64"
        },
        {
          "internalType": "uint256",
          "name": "root",
          "type": "uint256"
        }
      ],
      "name": "getRevocationProofByRoot",
      "outputs": [
        {
          "components": [
            {
              "internalType": "uint256",
              "name": "root",
              "type": "uint256"
            },
            {
              "internalType": "bool",
              "name": "existence",
              "type": "bool"
            },
            {
              "internalType": "uint256[]",
              "name": "siblings",
              "type": "uint256[]"
            },
            {
              "internalType": "uint256",
              "name": "index",
              "type": "uint256"
            },
            {
              "internalType": "uint256",
              "name": "value",
              "type": "uint256"
            },
            {
              "internalType": "bool",
              "name": "auxExistence",
              "type": "bool"
            },
            {
              "internalType": "uint256",
              "name": "auxIndex",
              "type": "uint256"
            },
            {
              "internalType": "uint256",
              "name": "auxValue",
              "type": "uint256"
            }
          ],
          "internalType": "struct SmtLib.Proof",
          "name": "",
          "type": "tuple"
        }
      ],
      "stateMutability": "view",
      "type": "function"
    },
    {
      "inputs": [
        {
          "internalType": "uint64",
          "name": "revocationNonce",
          "type": "uint64"
        }
      ],
      "name": "getRevocationProofWithStateInfo",
      "outputs": [
        {
          "components": [
            {
              "internalType": "uint256",
              "name": "root",
              "type": "uint256"
            },
            {
              "internalType": "bool",
              "name": "existence",
              "type": "bool"
            },
            {
              "internalType": "uint256[]",
              "name": "siblings",
              "type": "uint256[]"
            },
            {
              "internalType": "uint256",
              "name": "index",
              "type": "uint256"
            },
            {
              "internalType": "uint256",
              "name": "value",
              "type": "uint256"
            },
            {
              "internalType": "bool",
              "name": "auxExistence",
              "type": "bool"
            },
            {
              "internalType": "uint256",
              "name": "auxIndex",
              "type": "uint256"
            },
            {
              "internalType": "uint256",
              "name": "auxValue",
              "type": "uint256"
            }
          ],
          "internalType": "struct SmtLib.Proof",
          "name": "",
          "type": "tuple"
        },
        {
          "components": [
            {
              "internalType": "uint256",
              "name": "state",
              "type": "uint256"
            },
            {
              "internalType": "uint256",
              "name": "claimsRoot",
              "type": "uint256"
            },
            {
              "internalType": "uint256",
              "name": "revocationsRoot",
              "type": "uint256"
            },
            {
              "internalType": "uint256",
              "name": "rootsRoot",
              "type": "uint256"
            }
          ],
          "internalType": "struct IdentityLib.StateInfo",
          "name": "",
          "type": "tuple"
        }
      ],
      "stateMutability": "view",
      "type": "function"
    },
    {
      "inputs": [
        {
          "internalType": "uint256",
          "name": "id",
          "type": "uint256"
        },
        {
          "internalType": "uint64",
          "name": "nonce",
          "type": "uint64"
        }
      ],
      "name": "getRevocationStatus",
      "outputs": [
        {
          "components": [
            {
              "components": [
                {
                  "internalType": "uint256",
                  "name": "state",
                  "type": "uint256"
                },
                {
                  "internalType": "uint256",
                  "name": "claimsTreeRoot",
                  "type": "uint256"
                },
                {
                  "internalType": "uint256",
                  "name": "revocationTreeRoot",
                  "type": "uint256"
                },
                {
                  "internalType": "uint256",
                  "name": "rootOfRoots",
                  "type": "uint256"
                }
              ],
              "internalType": "struct IOnchainCredentialStatusResolver.IdentityStateRoots",
              "name": "issuer",
              "type": "tuple"
            },
            {
              "components": [
                {
                  "internalType": "uint256",
                  "name": "root",
                  "type": "uint256"
                },
                {
                  "internalType": "bool",
                  "name": "existence",
                  "type": "bool"
                },
                {
                  "internalType": "uint256[]",
                  "name": "siblings",
                  "type": "uint256[]"
                },
                {
                  "internalType": "uint256",
                  "name": "index",
                  "type": "uint256"
                },
                {
                  "internalType": "uint256",
                  "name": "value",
                  "type": "uint256"
                },
                {
                  "internalType": "bool",
                  "name": "auxExistence",
                  "type": "bool"
                },
                {
                  "internalType": "uint256",
                  "name": "auxIndex",
                  "type": "uint256"
                },
                {
                  "internalType": "uint256",
                  "name": "auxValue",
                  "type": "uint256"
                }
              ],
              "internalType": "struct IOnchainCredentialStatusResolver.Proof",
              "name": "mtp",
              "type": "tuple"
            }
          ],
          "internalType": "struct IOnchainCredentialStatusResolver.CredentialStatus",
          "name": "",
          "type": "tuple"
        }
      ],
      "stateMutability": "view",
      "type": "function"
    },
    {
      "inputs": [
        {
          "internalType": "uint256",
          "name": "id",
          "type": "uint256"
        },
        {
          "internalType": "uint256",
          "name": "state",
          "type": "uint256"
        },
        {
          "internalType": "uint64",
          "name": "nonce",
          "type": "uint64"
        }
      ],
      "name": "getRevocationStatusByIdAndState",
      "outputs": [
        {
          "components": [
            {
              "components": [
                {
                  "internalType": "uint256",
                  "name": "state",
                  "type": "uint256"
                },
                {
                  "internalType": "uint256",
                  "name": "claimsTreeRoot",
                  "type": "uint256"
                },
                {
                  "internalType": "uint256",
                  "name": "revocationTreeRoot",
                  "type": "uint256"
                },
                {
                  "internalType": "uint256",
                  "name": "rootOfRoots",
                  "type": "uint256"
                }
              ],
              "internalType": "struct IOnchainCredentialStatusResolver.IdentityStateRoots",
              "name": "issuer",
              "type": "tuple"
            },
            {
              "components": [
                {
                  "internalType": "uint256",
                  "name": "root",
                  "type": "uint256"
                },
                {
                  "internalType": "bool",
                  "name": "existence",
                  "type": "bool"
                },
                {
                  "internalType": "uint256[]",
                  "name": "siblings",
                  "type": "uint256[]"
                },
                {
                  "internalType": "uint256",
                  "name": "index",
                  "type": "uint256"
                },
                {
                  "internalType": "uint256",
                  "name": "value",
                  "type": "uint256"
                },
                {
                  "internalType": "bool",
                  "name": "auxExistence",
                  "type": "bool"
                },
                {
                  "internalType": "uint256",
                  "name": "auxIndex",
                  "type": "uint256"
                },
                {
                  "internalType": "uint256",
                  "name": "auxValue",
                  "type": "uint256"
                }
              ],
              "internalType": "struct IOnchainCredentialStatusResolver.Proof",
              "name": "mtp",
              "type": "tuple"
            }
          ],
          "internalType": "struct IOnchainCredentialStatusResolver.CredentialStatus",
          "name": "",
          "type": "tuple"
        }
      ],
      "stateMutability": "view",
      "type": "function"
    },
    {
      "inputs": [],
      "name": "getRevocationsTreeRoot",
      "outputs": [
        {
          "internalType": "uint256",
          "name": "",
          "type": "uint256"
        }
      ],
      "stateMutability": "view",
      "type": "function"
    },
    {
      "inputs": [
        {
          "internalType": "uint256",
          "name": "rootsTreeRoot",
          "type": "uint256"
        }
      ],
      "name": "getRootProof",
      "outputs": [
        {
          "components": [
            {
              "internalType": "uint256",
              "name": "root",
              "type": "uint256"
            },
            {
              "internalType": "bool",
              "name": "existence",
              "type": "bool"
            },
            {
              "internalType": "uint256[]",
              "name": "siblings",
              "type": "uint256[]"
            },
            {
              "internalType": "uint256",
              "name": "index",
              "type": "uint256"
            },
            {
              "internalType": "uint256",
              "name": "value",
              "type": "uint256"
            },
            {
              "internalType": "bool",
              "name": "auxExistence",
              "type": "bool"
            },
            {
              "internalType": "uint256",
              "name": "auxIndex",
              "type": "uint256"
            },
            {
              "internalType": "uint256",
              "name": "auxValue",
              "type": "uint256"
            }
          ],
          "internalType": "struct SmtLib.Proof",
          "name": "",
          "type": "tuple"
        }
      ],
      "stateMutability": "view",
      "type": "function"
    },
    {
      "inputs": [
        {
          "internalType": "uint256",
          "name": "claimsTreeRoot",
          "type": "uint256"
        },
        {
          "internalType": "uint256",
          "name": "root",
          "type": "uint256"
        }
      ],
      "name": "getRootProofByRoot",
      "outputs": [
        {
          "components": [
            {
              "internalType": "uint256",
              "name": "root",
              "type": "uint256"
            },
            {
              "internalType": "bool",
              "name": "existence",
              "type": "bool"
            },
            {
              "internalType": "uint256[]",
              "name": "siblings",
              "type": "uint256[]"
            },
            {
              "internalType": "uint256",
              "name": "index",
              "type": "uint256"
            },
            {
              "internalType": "uint256",
              "name": "value",
              "type": "uint256"
            },
            {
              "internalType": "bool",
              "name": "auxExistence",
              "type": "bool"
            },
            {
              "internalType": "uint256",
              "name": "auxIndex",
              "type": "uint256"
            },
            {
              "internalType": "uint256",
              "name": "auxValue",
              "type": "uint256"
            }
          ],
          "internalType": "struct SmtLib.Proof",
          "name": "",
          "type": "tuple"
        }
      ],
      "stateMutability": "view",
      "type": "function"
    },
    {
      "inputs": [
        {
          "internalType": "uint256",
          "name": "rootsTreeRoot",
          "type": "uint256"
        }
      ],
      "name": "getRootProofWithStateInfo",
      "outputs": [
        {
          "components": [
            {
              "internalType": "uint256",
              "name": "root",
              "type": "uint256"
            },
            {
              "internalType": "bool",
              "name": "existence",
              "type": "bool"
            },
            {
              "internalType": "uint256[]",
              "name": "siblings",
              "type": "uint256[]"
            },
            {
              "internalType": "uint256",
              "name": "index",
              "type": "uint256"
            },
            {
              "internalType": "uint256",
              "name": "value",
              "type": "uint256"
            },
            {
              "internalType": "bool",
              "name": "auxExistence",
              "type": "bool"
            },
            {
              "internalType": "uint256",
              "name": "auxIndex",
              "type": "uint256"
            },
            {
              "internalType": "uint256",
              "name": "auxValue",
              "type": "uint256"
            }
          ],
          "internalType": "struct SmtLib.Proof",
          "name": "",
          "type": "tuple"
        },
        {
          "components": [
            {
              "internalType": "uint256",
              "name": "state",
              "type": "uint256"
            },
            {
              "internalType": "uint256",
              "name": "claimsRoot",
              "type": "uint256"
            },
            {
              "internalType": "uint256",
              "name": "revocationsRoot",
              "type": "uint256"
            },
            {
              "internalType": "uint256",
              "name": "rootsRoot",
              "type": "uint256"
            }
          ],
          "internalType": "struct IdentityLib.StateInfo",
          "name": "",
          "type": "tuple"
        }
      ],
      "stateMutability": "view",
      "type": "function"
    },
    {
      "inputs": [
        {
          "internalType": "uint256",
          "name": "state",
          "type": "uint256"
        }
      ],
      "name": "getRootsByState",
      "outputs": [
        {
          "components": [
            {
              "internalType": "uint256",
              "name": "claimsRoot",
              "type": "uint256"
            },
            {
              "internalType": "uint256",
              "name": "revocationsRoot",
              "type": "uint256"
            },
            {
              "internalType": "uint256",
              "name": "rootsRoot",
              "type": "uint256"
            }
          ],
          "internalType": "struct IdentityLib.Roots",
          "name": "",
          "type": "tuple"
        }
      ],
      "stateMutability": "view",
      "type": "function"
    },
    {
      "inputs": [],
      "name": "getRootsTreeRoot",
      "outputs": [
        {
          "internalType": "uint256",
          "name": "",
          "type": "uint256"
        }
      ],
      "stateMutability": "view",
      "type": "function"
    },
    {
      "inputs": [],
      "name": "getSmtDepth",
      "outputs": [
        {
          "internalType": "uint256",
          "name": "",
          "type": "uint256"
        }
      ],
      "stateMutability": "pure",
      "type": "function"
    },
    {
      "inputs": [],
      "name": "getTemplateRoot",
      "outputs": [
        {
          "internalType": "uint256",
          "name": "",
          "type": "uint256"
        }
      ],
      "stateMutability": "view",
      "type": "function"
    },
    {
      "inputs": [
        {
          "internalType": "address",
          "name": "_stateContractAddr",
          "type": "address"
        },
        {
          "internalType": "bytes2",
          "name": "idType",
          "type": "bytes2"
        }
      ],
      "name": "initialize",
      "outputs": [],
      "stateMutability": "nonpayable",
      "type": "function"
    },
    {
      "inputs": [
        {
          "internalType": "uint256",
          "name": "nullifierSeed",
          "type": "uint256"
        },
        {
          "internalType": "uint256[]",
          "name": "publicKeysHashes",
          "type": "uint256[]"
        },
        {
          "internalType": "uint256[]",
          "name": "qrVersions",
          "type": "uint256[]"
        },
        {
          "internalType": "uint256",
          "name": "expirationTime",
          "type": "uint256"
        },
        {
          "internalType": "uint256",
          "name": "templateRoot",
          "type": "uint256"
        },
        {
          "internalType": "address",
          "name": "anonAadhaarVerifier",
          "type": "address"
        },
        {
          "components": [
            {
              "internalType": "address",
              "name": "stateAddress",
              "type": "address"
            },
            {
              "internalType": "bytes2",
              "name": "idType",
              "type": "bytes2"
            }
          ],
          "internalType": "struct AnonAadhaarCredentialIssuer.StateInfo",
          "name": "stateInfo",
          "type": "tuple"
        },
        {
          "internalType": "address",
          "name": "owner",
          "type": "address"
        }
      ],
      "name": "initializeIssuer",
      "outputs": [],
      "stateMutability": "nonpayable",
      "type": "function"
    },
    {
      "inputs": [
        {
          "internalType": "uint256",
          "name": "nullifier",
          "type": "uint256"
        }
      ],
      "name": "nullifierExists",
      "outputs": [
        {
          "internalType": "bool",
          "name": "",
          "type": "bool"
        }
      ],
      "stateMutability": "view",
      "type": "function"
    },
    {
      "inputs": [],
      "name": "owner",
      "outputs": [
        {
          "internalType": "address",
          "name": "",
          "type": "address"
        }
      ],
      "stateMutability": "view",
      "type": "function"
    },
    {
      "inputs": [],
      "name": "pendingOwner",
      "outputs": [
        {
          "internalType": "address",
          "name": "",
          "type": "address"
        }
      ],
      "stateMutability": "view",
      "type": "function"
    },
    {
      "inputs": [
        {
          "internalType": "uint256",
          "name": "publicKeyHash",
          "type": "uint256"
        }
      ],
      "name": "publicKeyHashExists",
      "outputs": [
        {
          "internalType": "bool",
          "name": "",
          "type": "bool"
        }
      ],
      "stateMutability": "view",
      "type": "function"
    },
    {
      "inputs": [
        {
          "internalType": "uint256",
          "name": "qrVersion",
          "type": "uint256"
        }
      ],
      "name": "qrVersionSupported",
      "outputs": [
        {
          "internalType": "bool",
          "name": "",
          "type": "bool"
        }
      ],
      "stateMutability": "view",
      "type": "function"
    },
    {
      "inputs": [
        {
          "internalType": "uint256",
          "name": "publicKeyHash",
          "type": "uint256"
        }
      ],
      "name": "removePublicKeyHash",
      "outputs": [],
      "stateMutability": "nonpayable",
      "type": "function"
    },
    {
      "inputs": [
        {
          "internalType": "uint256",
          "name": "qrVersion",
          "type": "uint256"
        }
      ],
      "name": "removeQrVersion",
      "outputs": [],
      "stateMutability": "nonpayable",
      "type": "function"
    },
    {
      "inputs": [],
      "name": "renounceOwnership",
      "outputs": [],
      "stateMutability": "nonpayable",
      "type": "function"
    },
    {
      "inputs": [
        {
          "internalType": "uint256",
          "name": "nullifier",
          "type": "uint256"
        }
      ],
      "name": "revokeCredential",
      "outputs": [],
      "stateMutability": "nonpayable",
      "type": "function"
    },
    {
      "inputs": [
        {
          "internalType": "uint256",
          "name": "issuerDidHash",
          "type": "uint256"
        }
      ],
      "name": "setIssuerDidHash",
      "outputs": [],
      "stateMutability": "nonpayable",
      "type": "function"
    },
    {
      "inputs": [
        {
          "internalType": "uint256",
          "name": "nullifierSeed",
          "type": "uint256"
        }
      ],
      "name": "setNullifierSeed",
      "outputs": [],
      "stateMutability": "nonpayable",
      "type": "function"
    },
    {
      "inputs": [
        {
          "internalType": "uint256",
          "name": "templateRoot",
          "type": "uint256"
        }
      ],
      "name": "setTemplateRoot",
      "outputs": [],
      "stateMutability": "nonpayable",
      "type": "function"
    },
    {
      "inputs": [
        {
          "internalType": "bytes4",
          "name": "interfaceId",
          "type": "bytes4"
        }
      ],
      "name": "supportsInterface",
      "outputs": [
        {
          "internalType": "bool",
          "name": "",
          "type": "bool"
        }
      ],
      "stateMutability": "view",
      "type": "function"
    },
    {
      "inputs": [
        {
          "internalType": "address",
          "name": "newOwner",
          "type": "address"
        }
      ],
      "name": "transferOwnership",
      "outputs": [],
      "stateMutability": "nonpayable",
      "type": "function"
    },
    {
      "inputs": [
        {
          "internalType": "string[]",
          "name": "circuitIds",
          "type": "string[]"
        },
        {
          "internalType": "address[]",
          "name": "verifierAddresses",
          "type": "address[]"
        }
      ],
      "name": "updateAnonAadhaarVerifiers",
      "outputs": [],
      "stateMutability": "nonpayable",
      "type": "function"
    },
    {
      "inputs": [
        {
          "components": [
            {
              "internalType": "string",
              "name": "circuitId",
              "type": "string"
            },
            {
              "internalType": "bytes",
              "name": "proof",
              "type": "bytes"
            }
          ],
          "internalType": "struct AnonAadhaarCredentialIssuer.CredentialProof",
          "name": "credentialProof",
          "type": "tuple"
        },
        {
          "internalType": "bytes",
          "name": "passportSignatureProof",
          "type": "bytes"
        }
      ],
      "name": "verifyAadhaar",
      "outputs": [],
      "stateMutability": "nonpayable",
      "type": "function"
    }
  ],
  "bytecode": "0x6080604052348015600f57600080fd5b506016601a565b60ca565b7ff0c57e16840df040f15088dc2f81fe391c3923bec73e23a9662efc9c229c6a00805468010000000000000000900460ff161560695760405163f92ee8a960e01b815260040160405180910390fd5b80546001600160401b039081161460c75780546001600160401b0319166001600160401b0390811782556040519081527fc7f505b2f371ae2175ee4913f4499e1f2633a7b5936321eed1cdaeb6115181d29060200160405180910390a15b50565b613070806100d96000396000f3fe608060405234801561001057600080fd5b50600436106102d55760003560e01c80635d1ca63111610182578063c1e32733116100e9578063e30c3978116100a2578063f2fde38b1161007c578063f2fde38b1461061e578063f84c7c1e14610631578063f8ba8b3914610639578063ffa1ad741461064c57600080fd5b8063e30c3978146105f0578063efc8385a146105f8578063f221b8451461060b57600080fd5b8063c1e327331461059f578063c6365a3b146105b2578063da68a0b1146105ba578063dcdd17c4146105c2578063e23a845a146105d5578063e26ecb0b146105dd57600080fd5b8063ad5778c71161013b578063ad5778c71461050b578063b354c2d81461051e578063b37feda414610531578063b57a40cb14610544578063b5fff0ed14610557578063b8db68711461056a57600080fd5b80635d1ca631146104b8578063715018a6146104c057806379ba5097146104c85780638da5cb5b146104d05780639674cfa4146104f0578063aad72921146104f857600080fd5b80632e1e252f11610241578063406e8b4c116101fa5780634c240f34116101d45780634c240f3414610477578063523b81361461048a578063552c9b7e1461049257806358ada672146104a557600080fd5b8063406e8b4c1461043e57806343e5c52014610451578063443d75341461046457600080fd5b80632e1e252f146103ee578063310d0d5b14610401578063345f83ff146104145780633d59ec60146104275780633df432fc1461042f5780633f0c66481461043757600080fd5b806313e52ae71161029357806313e52ae7146103855780631b87278d1461038d57806326485063146103a05780632afab62f146103c05780632c1d3204146103d35780632d5c4f25146103db57600080fd5b806233058d146102da57806301c85c771461030457806301ffc9a71461031a578063035dfdfe1461033d578063110c96a71461035257806313364fc814610372575b600080fd5b6102ed6102e8366004612400565b61067d565b6040516102fb9291906124bd565b60405180910390f35b61030c61074a565b6040519081526020016102fb565b61032d610328366004612500565b6107cf565b60405190151581526020016102fb565b61035061034b36600461252a565b610806565b005b610365610360366004612543565b610874565b6040516102fb919061256f565b61035061038036600461252a565b61089f565b61030c6108b8565b61035061039b36600461252a565b6108c8565b6103b36103ae366004612400565b610993565b6040516102fb91906125bc565b61032d6103ce36600461252a565b610a2c565b61030c610a57565b6103b36103e93660046125cf565b610a6a565b6103506103fc36600461252a565b610b09565b6103b361040f3660046125cf565b610b70565b610350610422366004612653565b610bc7565b61030c610dec565b61030c610dff565b602861030c565b61035061044c366004612739565b610e42565b61035061045f36600461286a565b610edf565b6102ed61047236600461252a565b6111ea565b61035061048536600461252a565b611265565b61030c6112b1565b6103506104a0366004612931565b6112c4565b61032d6104b336600461252a565b6112da565b61030c6112fb565b610350611305565b610350611319565b6104d8611361565b6040516001600160a01b0390911681526020016102fb565b61030c611396565b610365610506366004612972565b6113a9565b6104d86105193660046129a7565b6115c2565b61035061052c36600461252a565b6115fc565b6102ed61053f36600461252a565b611648565b6103b361055236600461252a565b6116c3565b610350610565366004612931565b611711565b61057d61057836600461252a565b611723565b60408051825181526020808401519082015291810151908201526060016102fb565b6103b36105ad36600461252a565b6117cb565b61030c61181b565b61030c61182e565b6103506105d036600461252a565b611871565b61030c6118a0565b6103b36105eb3660046129db565b6118b3565b6104d8611912565b61032d61060636600461252a565b61193b565b61035061061936600461252a565b61195c565b61035061062c366004612a05565b6119bb565b61032d611a40565b610350610647366004612a20565b611a56565b61067060405180604001604052806005815260200164189718171960d91b81525081565b6040516102fb9190612ab3565b61068561230f565b6106b06040518060800160405280600081526020016000815260200160008152602001600081525090565b6106b8611a70565b604051631f17004d60e31b815260048101919091526001600160401b038416602482015273__$068aad146bf104111ba65c4a1de2cd0e23$__9063f8b80268906044015b600060405180830381865af4158015610719573d6000803e3d6000fd5b505050506040513d6000823e601f3d908101601f191682016040526107419190810190612c16565b91509150915091565b6000610754611a70565b60405163765c2c6160e01b8152600481019190915273__$068aad146bf104111ba65c4a1de2cd0e23$__9063765c2c61906024015b602060405180830381865af41580156107a6573d6000803e3d6000fd5b505050506040513d601f19601f820116820180604052508101906107ca9190612cba565b905090565b60006001600160e01b03198216635d1ca63160e01b148061080057506301ffc9a760e01b6001600160e01b03198316145b92915050565b61080e611a94565b6000610818611ac6565b600083815260058201602052604090819020805460ff19166001179055519091507f192522987419be1c06ca88238df20a35b84c7a5025bbf1e244fac876d2d320ee906108689084815260200190565b60405180910390a15050565b61087c612358565b6000610886611a70565b6001015490506108978482856113a9565b949350505050565b6108a7611a94565b60006108b1611ac6565b9190915550565b60006108c2611ac6565b54919050565b6108d0611a94565b60006108da611ac6565b60008381526006820160205260408120549192506001600160401b039091169081900361091a576040516327522baf60e01b815260040160405180910390fd5b61092381611aea565b600083815260068301602052604090819020805467ffffffffffffffff19169055517f725d312746be14d750d0493aa7960a5aca3c30f98f74b0e07afc8f1a36b355c29061098690859084909182526001600160401b0316602082015260400190565b60405180910390a1505050565b61099b61230f565b6109a3611a70565b604051637d0aba4f60e01b815260048101919091526001600160401b038316602482015273__$068aad146bf104111ba65c4a1de2cd0e23$__90637d0aba4f906044015b600060405180830381865af4158015610a04573d6000803e3d6000fd5b505050506040513d6000823e601f3d908101601f191682016040526108009190810190612cd3565b600080610a37611ac6565b6000938452600601602052505060409020546001600160401b0316151590565b6000610a61611ac6565b60020154905090565b610a7261230f565b610a7a611a70565b60405163d55da6a360e01b81526004810191909152602481018490526044810183905273__$068aad146bf104111ba65c4a1de2cd0e23$__9063d55da6a3906064015b600060405180830381865af4158015610ada573d6000803e3d6000fd5b505050506040513d6000823e601f3d908101601f19168201604052610b029190810190612cd3565b9392505050565b610b11611a94565b6000610b1b611ac6565b600083815260078201602052604090205490915060ff16610b575760405163dbbaa55f60e01b8152600481018390526024015b60405180910390fd5b600091825260070160205260409020805460ff19169055565b610b7861230f565b610b80611a70565b604051636ac0c5c760e11b81526004810191909152602481018490526044810183905273__$068aad146bf104111ba65c4a1de2cd0e23$__9063d5818b8e90606401610abd565b6000610bd1611bd4565b805490915060ff600160401b82041615906001600160401b0316600081158015610bf85750825b90506000826001600160401b03166001148015610c145750303b155b905081158015610c22575080155b15610c405760405163f92ee8a960e01b815260040160405180910390fd5b845467ffffffffffffffff191660011785558315610c6a57845460ff60401b1916600160401b1785555b6001600160a01b038816610c915760405163043103a360e21b815260040160405180910390fd5b6000610ca06020890189612a05565b6001600160a01b031603610cc757604051637eb887b360e01b815260040160405180910390fd5b610ce7610cd76020890189612a05565b61044c60408a0160208b01612d07565b610cf086611bfd565b6000610cfa611ac6565b90508f81600001819055508a816001018190555089816002018190555088816004016040518060400160405280600f81526020016e616e6f6e5f616164686161725f763160881b815250604051610d519190612d22565b90815260405190819003602001902080546001600160a01b03929092166001600160a01b0319909216919091179055610d8a8f8f611c0e565b610d948d8d611cc4565b508315610ddb57845460ff60401b19168555604051600181527fc7f505b2f371ae2175ee4913f4499e1f2633a7b5936321eed1cdaeb6115181d29060200160405180910390a15b505050505050505050505050505050565b6000610df6611a70565b60010154919050565b6000610e09611a70565b604051631b8bf99b60e21b8152600481019190915273__$068aad146bf104111ba65c4a1de2cd0e23$__90636e2fe66c90602401610789565b610e4a611a70565b6040516359a6069160e01b815260048101919091526001600160a01b0383166024820152306044820152602860648201526001600160f01b03198216608482015273__$068aad146bf104111ba65c4a1de2cd0e23$__906359a606919060a4015b60006040518083038186803b158015610ec357600080fd5b505af4158015610ed7573d6000803e3d6000fd5b505050505050565b815151600003610f055781516040516302a47c2f60e31b8152610b4e9190600401612ab3565b6000806000808560200151806020019051810190610f239190612d90565b93509350935093506000604051806080016040528085815260200184815260200183815260200160405180610180016040528088600081518110610f6957610f69612e4a565b6020026020010151815260200188600181518110610f8957610f89612e4a565b6020026020010151815260200188600281518110610fa957610fa9612e4a565b6020026020010151815260200188600381518110610fc957610fc9612e4a565b6020026020010151815260200188600481518110610fe957610fe9612e4a565b602002602001015181526020018860058151811061100957611009612e4a565b602002602001015181526020018860068151811061102957611029612e4a565b602002602001015181526020018860078151811061104957611049612e4a565b602002602001015181526020018860088151811061106957611069612e4a565b602002602001015181526020018860098151811061108957611089612e4a565b6020026020010151815260200188600a815181106110a9576110a9612e4a565b6020026020010151815260200188600b815181106110c9576110c9612e4a565b6020026020010151815250815250905060006110e3611ac6565b905060008160040189600001516040516110fd9190612d22565b908152604051908190036020019020546001600160a01b0316905080611136576040516301dcf1ab60e31b815260040160405180910390fd5b806001600160a01b0316638cbac0fa84600001518560200151866040015187606001516040518563ffffffff1660e01b81526004016111789493929190612e83565b602060405180830381865afa158015611195573d6000803e3d6000fd5b505050506040513d601f19601f820116820180604052508101906111b99190612f08565b6111d65760405163b4b32e6f60e01b815260040160405180910390fd5b6111df83611d25565b505050505050505050565b6111f261230f565b61121d6040518060800160405280600081526020016000815260200160008152602001600081525090565b611225611a70565b60405163a3018d7960e01b815260048101919091526024810184905273__$068aad146bf104111ba65c4a1de2cd0e23$__9063a3018d79906044016106fc565b61126d611a94565b6000611277611ac6565b600381018390556040518381529091507fb69b4c35c29def0ac05e4ac2258986b58de5ae03feeea1802c95f4e0b5794cf190602001610868565b60006112bb611a70565b609a0154919050565b6112cc611a94565b6112d68282611c0e565b5050565b60006112e4611ac6565b600092835260050160205250604090205460ff1690565b60006108c2611a70565b61130d611a94565b6113176000611db2565b565b3380611323611912565b6001600160a01b0316146113555760405163118cdaa760e01b81526001600160a01b0382166004820152602401610b4e565b61135e81611db2565b50565b6000807f9016d09d72d40fdae2fd8ceac6b6234c7706214fd39c1cd1e609a0528c1993005b546001600160a01b031692915050565b60006113a0611a70565b609b0154919050565b6113b1612358565b6113b9611a70565b5484146113ff5760405162461bcd60e51b8152602060048201526014602482015273092c8cadce8d2e8f240d2c840dad2e6dac2e8c6d60631b6044820152606401610b4e565b6000611409611a70565b604051630b1a9cd360e01b815260048101919091526024810185905273__$068aad146bf104111ba65c4a1de2cd0e23$__90630b1a9cd390604401606060405180830381865af4158015611461573d6000803e3d6000fd5b505050506040513d601f19601f820116820180604052508101906114859190612f23565b6040805160808101825286815282516020808301919091528301518183015290820151606082015290915060006114ba611a70565b6020840151604051630b2bcd1b60e11b815260048101929092526001600160401b0387166024830152604482015273__$068aad146bf104111ba65c4a1de2cd0e23$__906316579a3690606401600060405180830381865af4158015611524573d6000803e3d6000fd5b505050506040513d6000823e601f3d908101601f1916820160405261154c9190810190612cd3565b6040805161010081018252825181526020808401511515818301528284015182840152606080850151908301526080808501519083015260a08085015115159083015260c0808501519083015260e093840151938201939093528151808301909252938152908101929092525095945050505050565b60006115cc611ac6565b600401826040516115dd9190612d22565b908152604051908190036020019020546001600160a01b031692915050565b611604611a94565b600061160e611ac6565b600281018390556040518381529091507ff007a02ba428e63fa98b65269e70f9a9db847e0a839049a2f31f06928226773490602001610868565b61165061230f565b61167b6040518060800160405280600081526020016000815260200160008152602001600081525090565b611683611a70565b604051636ad1d8a760e11b815260048101919091526024810184905273__$068aad146bf104111ba65c4a1de2cd0e23$__9063d5a3b14e906044016106fc565b6116cb61230f565b6116d3611a70565b604051620cf08960e41b815260048101919091526024810183905273__$068aad146bf104111ba65c4a1de2cd0e23$__9062cf0890906044016109e7565b611719611a94565b6112d68282611cc4565b61174760405180606001604052806000815260200160008152602001600081525090565b61174f611a70565b604051630b1a9cd360e01b815260048101919091526024810183905273__$068aad146bf104111ba65c4a1de2cd0e23$__90630b1a9cd390604401606060405180830381865af41580156117a7573d6000803e3d6000fd5b505050506040513d601f19601f820116820180604052508101906108009190612f23565b6117d361230f565b6117db611a70565b6040516397ac539160e01b815260048101919091526024810183905273__$068aad146bf104111ba65c4a1de2cd0e23$__906397ac5391906044016109e7565b6000611825611a70565b609c0154919050565b6000611838611a70565b604051631e75e7f360e01b8152600481019190915273__$068aad146bf104111ba65c4a1de2cd0e23$__90631e75e7f390602401610789565b611879611a94565b6000611883611ac6565b60009283526007016020525060409020805460ff19166001179055565b60006118aa611ac6565b60010154905090565b6118bb61230f565b6118c3611a70565b604051630b2bcd1b60e11b815260048101919091526001600160401b03841660248201526044810183905273__$068aad146bf104111ba65c4a1de2cd0e23$__906316579a3690606401610abd565b6000807f237e158222e3e6968b72b9db0d8043aacf074ad9f650f0d1606b4d82ee432c00611386565b6000611945611ac6565b600092835260070160205250604090205460ff1690565b611964611a94565b600061196e611ac6565b600083815260058201602052604090205490915060ff166119a2576040516356b6133160e11b815260040160405180910390fd5b600091825260050160205260409020805460ff19169055565b6119c3611a94565b7f237e158222e3e6968b72b9db0d8043aacf074ad9f650f0d1606b4d82ee432c0080546001600160a01b0319166001600160a01b0383169081178255611a07611361565b6001600160a01b03167f38d16b8cac22d99fc7c124b9cd0de2d3fa1faef420bfe791d8c362d765e2270060405160405180910390a35050565b6000611a4a611a70565b6002015460ff16919050565b611a5e611a94565b611a6a84848484611dea565b50505050565b7f3018a310c36c4f8228f09bf3b1822685cf0971daa8265a58ca807c4a4daba40090565b33611a9d611361565b6001600160a01b0316146113175760405163118cdaa760e01b8152336004820152602401610b4e565b7f45045675f3efe2ec0ccfad8aa4c678179d3e20b95a34ad9d981fab6f95ba1e0090565b611af2611a70565b604051638ad7195d60e01b815260048101919091526001600160401b038216602482015273__$068aad146bf104111ba65c4a1de2cd0e23$__90638ad7195d9060440160006040518083038186803b158015611b4d57600080fd5b505af4158015611b61573d6000803e3d6000fd5b50505050611b6d611a70565b60405163175ba3e960e11b8152600481019190915273__$068aad146bf104111ba65c4a1de2cd0e23$__90632eb747d29060240160006040518083038186803b158015611bb957600080fd5b505af4158015611bcd573d6000803e3d6000fd5b5050505050565b6000807ff0c57e16840df040f15088dc2f81fe391c3923bec73e23a9662efc9c229c6a00610800565b611c05611f42565b61135e81611f67565b6000611c18611ac6565b905060005b82811015611a6a576001826005016000868685818110611c3f57611c3f612e4a565b90506020020135815260200190815260200160002060006101000a81548160ff0219169083151502179055507f192522987419be1c06ca88238df20a35b84c7a5025bbf1e244fac876d2d320ee848483818110611c9e57611c9e612e4a565b90506020020135604051611cb491815260200190565b60405180910390a1600101611c1d565b6000611cce611ac6565b905060005b82811015611a6a576001826007016000868685818110611cf557611cf5612e4a565b60209081029290920135835250810191909152604001600020805460ff1916911515919091179055600101611cd3565b60608181015180516020820151604083015193830151608084015160a085015160c086015160e08701516101008801516101208901516101408a0151610160909a0151989a97999798969795969495939492939192909190611d8f8a8a8d8f898d8d8a8a8f611f99565b611d998b82612159565b611da38a8a6121c9565b50505050505050505050505050565b7f237e158222e3e6968b72b9db0d8043aacf074ad9f650f0d1606b4d82ee432c0080546001600160a01b03191681556112d682612284565b6000611df4611ac6565b9050838214611e20576040516355c5b3e360e11b81526004810185905260248101839052604401610b4e565b60005b84811015610ed757838382818110611e3d57611e3d612e4a565b9050602002016020810190611e529190612a05565b82600401878784818110611e6857611e68612e4a565b9050602002810190611e7a9190612f82565b604051611e88929190612fc8565b90815260405190819003602001902080546001600160a01b03929092166001600160a01b03199092169190911790557f3f04312ecef010d1cb9901bb8602db84b7b52fddcef458e04bd8e83a7fc035a4868683818110611eea57611eea612e4a565b9050602002810190611efc9190612f82565b868685818110611f0e57611f0e612e4a565b9050602002016020810190611f239190612a05565b604051611f3293929190612fd8565b60405180910390a1600101611e23565b611f4a6122f5565b61131757604051631afcd79f60e31b815260040160405180910390fd5b611f6f611f42565b6001600160a01b03811661135557604051631e4fbdf760e01b815260006004820152602401610b4e565b6000611fa3611ac6565b90508a600003611fc657604051634978c15760e11b815260040160405180910390fd5b89600003611fe757604051639d34ba4f60e01b815260040160405180910390fd5b805487146120085760405163d2cee05560e01b815260040160405180910390fd5b8060020154841461202c576040516381d6039360e01b815260040160405180910390fd5b806003015483146120505760405163fe0c887b60e01b815260040160405180910390fd5b60008160010154876120629190613019565b905080861461208e57604051633abb8c7960e11b81526004810182905260248101879052604401610b4e565b4286116120ae5760405163b67a771360e01b815260040160405180910390fd5b600089815260058301602052604090205460ff166120df576040516356b6133160e11b815260040160405180910390fd5b600083815260078301602052604090205460ff166121135760405163dbbaa55f60e01b815260048101849052602401610b4e565b60008a81526006830160205260409020546001600160401b03161561214b57604051639338373760e01b815260040160405180910390fd5b505050505050505050505050565b806001600160401b031660000361218e576040516337f969b360e11b81526001600160401b0382166004820152602401610b4e565b6000612198611ac6565b6000938452600601602052506040909120805467ffffffffffffffff19166001600160401b03909216919091179055565b6121d1611a70565b6040516306fb157560e01b81526004810191909152602481018390526044810182905273__$068aad146bf104111ba65c4a1de2cd0e23$__906306fb15759060640160006040518083038186803b15801561222b57600080fd5b505af415801561223f573d6000803e3d6000fd5b5050505061224b611a70565b60405163175ba3e960e11b8152600481019190915273__$068aad146bf104111ba65c4a1de2cd0e23$__90632eb747d290602401610eab565b7f9016d09d72d40fdae2fd8ceac6b6234c7706214fd39c1cd1e609a0528c19930080546001600160a01b031981166001600160a01b03848116918217845560405192169182907f8be0079c531659141344cd1fd0a4f28419497f9722a3daafe3b4186f6b6457e090600090a3505050565b60006122ff611bd4565b54600160401b900460ff16919050565b6040518061010001604052806000815260200160001515815260200160608152602001600081526020016000815260200160001515815260200160008152602001600081525090565b604051806040016040528061238e6040518060800160405280600081526020016000815260200160008152602001600081525090565b81526020016123df6040518061010001604052806000815260200160001515815260200160608152602001600081526020016000815260200160001515815260200160008152602001600081525090565b905290565b80356001600160401b03811681146123fb57600080fd5b919050565b60006020828403121561241257600080fd5b610b02826123e4565b805182526020808201511515818401526040808301516101009185018290528051918501829052600092019082906101208601905b808310156124735783518252602082019150602084019350600183019250612450565b50606085015160608701526080850151608087015260a0850151925061249d60a087018415159052565b60c085015160c087015260e085015160e087015280935050505092915050565b60a0815260006124d060a083018561241b565b9050610b026020830184805182526020810151602083015260408101516040830152606081015160608301525050565b60006020828403121561251257600080fd5b81356001600160e01b031981168114610b0257600080fd5b60006020828403121561253c57600080fd5b5035919050565b6000806040838503121561255657600080fd5b82359150612566602084016123e4565b90509250929050565b602081526125a2602082018351805182526020810151602083015260408101516040830152606081015160608301525050565b6000602083015160a08084015261089760c084018261241b565b602081526000610b02602083018461241b565b600080604083850312156125e257600080fd5b50508035926020909101359150565b60008083601f84011261260357600080fd5b5081356001600160401b0381111561261a57600080fd5b6020830191508360208260051b850101111561263557600080fd5b9250929050565b80356001600160a01b03811681146123fb57600080fd5b6000806000806000806000806000808a8c0361012081121561267457600080fd5b8b359a5060208c01356001600160401b0381111561269157600080fd5b61269d8e828f016125f1565b909b5099505060408c01356001600160401b038111156126bc57600080fd5b6126c88e828f016125f1565b90995097505060608c0135955060808c013594506126e860a08d0161263c565b9350604060bf19820112156126fc57600080fd5b5060c08b0191506127106101008c0161263c565b90509295989b9194979a5092959850565b80356001600160f01b0319811681146123fb57600080fd5b6000806040838503121561274c57600080fd5b6127558361263c565b915061256660208401612721565b634e487b7160e01b600052604160045260246000fd5b604080519081016001600160401b038111828210171561279b5761279b612763565b60405290565b60405161010081016001600160401b038111828210171561279b5761279b612763565b604051601f8201601f191681016001600160401b03811182821017156127ec576127ec612763565b604052919050565b600082601f83011261280557600080fd5b8135602083016000806001600160401b0384111561282557612825612763565b50601f8301601f191660200161283a816127c4565b91505082815285838301111561284f57600080fd5b82826020830137600092810160200192909252509392505050565b6000806040838503121561287d57600080fd5b82356001600160401b0381111561289357600080fd5b8301604081860312156128a557600080fd5b6128ad612779565b81356001600160401b038111156128c357600080fd5b6128cf878285016127f4565b82525060208201356001600160401b038111156128eb57600080fd5b6128f7878285016127f4565b602083015250809350505060208301356001600160401b0381111561291b57600080fd5b612927858286016127f4565b9150509250929050565b6000806020838503121561294457600080fd5b82356001600160401b0381111561295a57600080fd5b612966858286016125f1565b90969095509350505050565b60008060006060848603121561298757600080fd5b833592506020840135915061299e604085016123e4565b90509250925092565b6000602082840312156129b957600080fd5b81356001600160401b038111156129cf57600080fd5b610897848285016127f4565b600080604083850312156129ee57600080fd5b6129f7836123e4565b946020939093013593505050565b600060208284031215612a1757600080fd5b610b028261263c565b60008060008060408587031215612a3657600080fd5b84356001600160401b03811115612a4c57600080fd5b612a58878288016125f1565b90955093505060208501356001600160401b03811115612a7757600080fd5b612a83878288016125f1565b95989497509550505050565b60005b83811015612aaa578181015183820152602001612a92565b50506000910152565b6020815260008251806020840152612ad2816040850160208701612a8f565b601f01601f19169190910160400192915050565b805180151581146123fb57600080fd5b600082601f830112612b0757600080fd5b81516001600160401b03811115612b2057612b20612763565b8060051b612b30602082016127c4565b91825260208185018101929081019086841115612b4c57600080fd5b6020860192505b83831015612b6e578251825260209283019290910190612b53565b9695505050505050565b60006101008284031215612b8b57600080fd5b612b936127a1565b825181529050612ba560208301612ae6565b602082015260408201516001600160401b03811115612bc357600080fd5b612bcf84828501612af6565b6040830152506060828101519082015260808083015190820152612bf560a08301612ae6565b60a082015260c0828101519082015260e09182015191810191909152919050565b60008082840360a0811215612c2a57600080fd5b83516001600160401b03811115612c4057600080fd5b612c4c86828701612b78565b9350506080601f1982011215612c6157600080fd5b50604051608081016001600160401b0381118282101715612c8457612c84612763565b60409081526020858101518352858201519083015260608086015191830191909152608090940151938101939093525092909150565b600060208284031215612ccc57600080fd5b5051919050565b600060208284031215612ce557600080fd5b81516001600160401b03811115612cfb57600080fd5b61089784828501612b78565b600060208284031215612d1957600080fd5b610b0282612721565b60008251612d34818460208701612a8f565b9190910192915050565b600082601f830112612d4f57600080fd5b612d5960406127c4565b806040840185811115612d6b57600080fd5b845b81811015612d85578051845260209384019301612d6d565b509095945050505050565b6000806000806101208587031215612da757600080fd5b84516001600160401b03811115612dbd57600080fd5b612dc987828801612af6565b945050612dd98660208701612d3e565b925085607f860112612dea57600080fd5b6040612df5816127c4565b8060e0880189811115612e0757600080fd5b606089015b81811015612e2d57612e1e8b82612d3e565b84526020909301928401612e0c565b50819550612e3b8a82612d3e565b94505050505092959194509250565b634e487b7160e01b600052603260045260246000fd5b8060005b6002811015611a6a578151845260209384019390910190600101612e64565b6102808101612e928287612e60565b604082018560005b6002811015612ec457612eae838351612e60565b6040929092019160209190910190600101612e9a565b505050612ed460c0830185612e60565b61010082018360005b600c811015612efc578151835260209283019290910190600101612edd565b50505095945050505050565b600060208284031215612f1a57600080fd5b610b0282612ae6565b60006060828403128015612f3657600080fd5b50604051600090606081016001600160401b0381118282101715612f5c57612f5c612763565b604090815284518252602080860151908301529384015193810193909352509092915050565b6000808335601e19843603018112612f9957600080fd5b8301803591506001600160401b03821115612fb357600080fd5b60200191503681900382131561263557600080fd5b8183823760009101908152919050565b6040815282604082015282846060830137600060608483018101919091526001600160a01b03929092166020820152601f909201601f191690910101919050565b8082018082111561080057634e487b7160e01b600052601160045260246000fdfea2646970667358221220ca76cbc7dbefb0f634f46107644daa2a5535e62285f4e0c948299f5e05b426c864736f6c634300081b0033",
  "linkReferences": {
    "@iden3/contracts/lib/IdentityLib.sol": {
      "IdentityLib": [
        {
          "length": 20,
          "start": 1975
        },
        {
          "length": 20,
          "start": 2116
        },
        {
          "length": 20,
          "start": 2722
        },
        {
          "length": 20,
          "start": 2936
        },
        {
          "length": 20,
          "start": 3198
        },
        {
          "length": 20,
          "start": 3833
        },
        {
          "length": 20,
          "start": 3942
        },
        {
          "length": 20,
          "start": 4892
        },
        {
          "length": 20,
          "start": 5376
        },
        {
          "length": 20,
          "start": 5571
        },
        {
          "length": 20,
          "start": 6010
        },
        {
          "length": 20,
          "start": 6089
        },
        {
          "length": 20,
          "start": 6214
        },
        {
          "length": 20,
          "start": 6354
        },
        {
          "length": 20,
          "start": 6440
        },
        {
          "length": 20,
          "start": 6601
        },
        {
          "length": 20,
          "start": 7153
        },
        {
          "length": 20,
          "start": 7261
        },
        {
          "length": 20,
          "start": 8911
        },
        {
          "length": 20,
          "start": 9019
        }
      ]
    }
  },
  "deployedLinkReferences": {
    "@iden3/contracts/lib/IdentityLib.sol": {
      "IdentityLib": [
        {
          "length": 20,
          "start": 1758
        },
        {
          "length": 20,
          "start": 1899
        },
        {
          "length": 20,
          "start": 2505
        },
        {
          "length": 20,
          "start": 2719
        },
        {
          "length": 20,
          "start": 2981
        },
        {
          "length": 20,
          "start": 3616
        },
        {
          "length": 20,
          "start": 3725
        },
        {
          "length": 20,
          "start": 4675
        },
        {
          "length": 20,
          "start": 5159
        },
        {
          "length": 20,
          "start": 5354
        },
        {
          "length": 20,
          "start": 5793
        },
        {
          "length": 20,
          "start": 5872
        },
        {
          "length": 20,
          "start": 5997
        },
        {
          "length": 20,
          "start": 6137
        },
        {
          "length": 20,
          "start": 6223
        },
        {
          "length": 20,
          "start": 6384
        },
        {
          "length": 20,
          "start": 6936
        },
        {
          "length": 20,
          "start": 7044
        },
        {
          "length": 20,
          "start": 8694
        },
        {
          "length": 20,
          "start": 8802
        }
      ]
    }
  }
}