{
  "_format": "hh-sol-artifact-1",
  "contractName": "PassportCredentialIssuer",
  "sourceName": "contracts/verifiers/PassportCredentialIssuer.sol",
  "abi": [
    {
      "inputs": [],
      "stateMutability": "nonpayable",
      "type": "constructor"
    },
    {
      "inputs": [
        {
          "internalType": "uint256",
          "name": "currentDate",
          "type": "uint256"
        }
      ],
      "name": "CurrentDateExpired",
      "type": "error"
    },
    {
      "inputs": [
        {
          "internalType": "uint256",
          "name": "currentDate",
          "type": "uint256"
        }
      ],
      "name": "CurrentDateInFuture",
      "type": "error"
    },
    {
      "inputs": [],
      "name": "InvalidCredentialProof",
      "type": "error"
    },
    {
      "inputs": [
        {
          "internalType": "uint256",
          "name": "hashIndex",
          "type": "uint256"
        }
      ],
      "name": "InvalidHashIndex",
      "type": "error"
    },
    {
      "inputs": [
        {
          "internalType": "uint256",
          "name": "hashValue",
          "type": "uint256"
        }
      ],
      "name": "InvalidHashValue",
      "type": "error"
    },
    {
      "inputs": [],
      "name": "InvalidInitialization",
      "type": "error"
    },
    {
      "inputs": [],
      "name": "InvalidIssuerDidHash",
      "type": "error"
    },
    {
      "inputs": [
        {
          "internalType": "uint256",
          "name": "linkId1",
          "type": "uint256"
        },
        {
          "internalType": "uint256",
          "name": "linkId2",
          "type": "uint256"
        }
      ],
      "name": "InvalidLinkId",
      "type": "error"
    },
    {
      "inputs": [],
      "name": "InvalidPassportSignatureProof",
      "type": "error"
    },
    {
      "inputs": [
        {
          "internalType": "uint64",
          "name": "revocationNonce",
          "type": "uint64"
        }
      ],
      "name": "InvalidRevocationNonce",
      "type": "error"
    },
    {
      "inputs": [],
      "name": "InvalidSignerAddress",
      "type": "error"
    },
    {
      "inputs": [
        {
          "internalType": "address",
          "name": "signer",
          "type": "address"
        }
      ],
      "name": "InvalidSignerPassportSignatureProof",
      "type": "error"
    },
    {
      "inputs": [
        {
          "internalType": "uint256",
          "name": "templateRoot",
          "type": "uint256"
        },
        {
          "internalType": "uint256",
          "name": "expectedTemplateRoot",
          "type": "uint256"
        }
      ],
      "name": "InvalidTemplateRoot",
      "type": "error"
    },
    {
      "inputs": [
        {
          "internalType": "address",
          "name": "transactor",
          "type": "address"
        }
      ],
      "name": "InvalidTransactor",
      "type": "error"
    },
    {
      "inputs": [
        {
          "internalType": "uint256",
          "name": "issuanceDate",
          "type": "uint256"
        }
      ],
      "name": "IssuanceDateExpired",
      "type": "error"
    },
    {
      "inputs": [
        {
          "internalType": "uint256",
          "name": "issuanceDate",
          "type": "uint256"
        }
      ],
      "name": "IssuanceDateInFuture",
      "type": "error"
    },
    {
      "inputs": [
        {
          "internalType": "uint256",
          "name": "length1",
          "type": "uint256"
        },
        {
          "internalType": "uint256",
          "name": "length2",
          "type": "uint256"
        }
      ],
      "name": "LengthMismatch",
      "type": "error"
    },
    {
      "inputs": [
        {
          "internalType": "string",
          "name": "circuitId",
          "type": "string"
        }
      ],
      "name": "NoCredentialCircuitIdFound",
      "type": "error"
    },
    {
      "inputs": [],
      "name": "NoVerifierSet",
      "type": "error"
    },
    {
      "inputs": [],
      "name": "NotInitializing",
      "type": "error"
    },
    {
      "inputs": [
        {
          "internalType": "uint256",
          "name": "nullifier",
          "type": "uint256"
        }
      ],
      "name": "NullifierAlreadyExists",
      "type": "error"
    },
    {
      "inputs": [
        {
          "internalType": "uint256",
          "name": "nullifier",
          "type": "uint256"
        }
      ],
      "name": "NullifierDoesNotExist",
      "type": "error"
    },
    {
      "inputs": [
        {
          "internalType": "address",
          "name": "owner",
          "type": "address"
        }
      ],
      "name": "OwnableInvalidOwner",
      "type": "error"
    },
    {
      "inputs": [
        {
          "internalType": "address",
          "name": "account",
          "type": "address"
        }
      ],
      "name": "OwnableUnauthorizedAccount",
      "type": "error"
    },
    {
      "anonymous": false,
      "inputs": [
        {
          "indexed": false,
          "internalType": "string",
          "name": "circuitId",
          "type": "string"
        },
        {
          "indexed": false,
          "internalType": "address",
          "name": "verifier",
          "type": "address"
        }
      ],
      "name": "CredentialCircuitVerifierUpdated",
      "type": "event"
    },
    {
      "anonymous": false,
      "inputs": [
        {
          "indexed": false,
          "internalType": "uint256",
          "name": "nullifier",
          "type": "uint256"
        },
        {
          "indexed": false,
          "internalType": "uint64",
          "name": "revocationNonce",
          "type": "uint64"
        }
      ],
      "name": "CredentialRevoked",
      "type": "event"
    },
    {
      "anonymous": false,
      "inputs": [],
      "name": "EIP712DomainChanged",
      "type": "event"
    },
    {
      "anonymous": false,
      "inputs": [
        {
          "indexed": false,
          "internalType": "uint256",
          "name": "expirationTime",
          "type": "uint256"
        }
      ],
      "name": "ExpirationTimeUpdated",
      "type": "event"
    },
    {
      "anonymous": false,
      "inputs": [
        {
          "indexed": false,
          "internalType": "uint64",
          "name": "version",
          "type": "uint64"
        }
      ],
      "name": "Initialized",
      "type": "event"
    },
    {
      "anonymous": false,
      "inputs": [
        {
          "indexed": false,
          "internalType": "uint256",
          "name": "maxFutureTime",
          "type": "uint256"
        }
      ],
      "name": "MaxFutureTimeUpdated",
      "type": "event"
    },
    {
      "anonymous": false,
      "inputs": [
        {
          "indexed": true,
          "internalType": "address",
          "name": "previousOwner",
          "type": "address"
        },
        {
          "indexed": true,
          "internalType": "address",
          "name": "newOwner",
          "type": "address"
        }
      ],
      "name": "OwnershipTransferStarted",
      "type": "event"
    },
    {
      "anonymous": false,
      "inputs": [
        {
          "indexed": true,
          "internalType": "address",
          "name": "previousOwner",
          "type": "address"
        },
        {
          "indexed": true,
          "internalType": "address",
          "name": "newOwner",
          "type": "address"
        }
      ],
      "name": "OwnershipTransferred",
      "type": "event"
    },
    {
      "anonymous": false,
      "inputs": [
        {
          "indexed": false,
          "internalType": "address",
          "name": "signer",
          "type": "address"
        }
      ],
      "name": "SignerAdded",
      "type": "event"
    },
    {
      "anonymous": false,
      "inputs": [
        {
          "indexed": false,
          "internalType": "uint256",
          "name": "tampletRoot",
          "type": "uint256"
        }
      ],
      "name": "TemplateRootUpdated",
      "type": "event"
    },
    {
      "anonymous": false,
      "inputs": [
        {
          "indexed": false,
          "internalType": "address",
          "name": "transactor",
          "type": "address"
        }
      ],
      "name": "TransactorAdded",
      "type": "event"
    },
    {
      "inputs": [],
      "name": "DOMAIN_VERSION",
      "outputs": [
        {
          "internalType": "string",
          "name": "",
          "type": "string"
        }
      ],
      "stateMutability": "view",
      "type": "function"
    },
    {
      "inputs": [],
      "name": "PASSPORT_CREDENTIAL_MESSAGE_TYPEHASH",
      "outputs": [
        {
          "internalType": "bytes32",
          "name": "",
          "type": "bytes32"
        }
      ],
      "stateMutability": "view",
      "type": "function"
    },
    {
      "inputs": [],
      "name": "VERSION",
      "outputs": [
        {
          "internalType": "string",
          "name": "",
          "type": "string"
        }
      ],
      "stateMutability": "view",
      "type": "function"
    },
    {
      "inputs": [],
      "name": "acceptOwnership",
      "outputs": [],
      "stateMutability": "nonpayable",
      "type": "function"
    },
    {
      "inputs": [
        {
          "internalType": "bytes32",
          "name": "imageHash",
          "type": "bytes32"
        }
      ],
      "name": "addImageHashToWhitelist",
      "outputs": [],
      "stateMutability": "nonpayable",
      "type": "function"
    },
    {
      "inputs": [
        {
          "internalType": "address",
          "name": "signer",
          "type": "address"
        }
      ],
      "name": "addSigner",
      "outputs": [],
      "stateMutability": "nonpayable",
      "type": "function"
    },
    {
      "inputs": [
        {
          "internalType": "address",
          "name": "transactor",
          "type": "address"
        }
      ],
      "name": "addTransactor",
      "outputs": [],
      "stateMutability": "nonpayable",
      "type": "function"
    },
    {
      "inputs": [
        {
          "internalType": "string",
          "name": "circuitId",
          "type": "string"
        }
      ],
      "name": "credentialVerifiers",
      "outputs": [
        {
          "internalType": "address",
          "name": "",
          "type": "address"
        }
      ],
      "stateMutability": "view",
      "type": "function"
    },
    {
      "inputs": [],
      "name": "eip712Domain",
      "outputs": [
        {
          "internalType": "bytes1",
          "name": "fields",
          "type": "bytes1"
        },
        {
          "internalType": "string",
          "name": "name",
          "type": "string"
        },
        {
          "internalType": "string",
          "name": "version",
          "type": "string"
        },
        {
          "internalType": "uint256",
          "name": "chainId",
          "type": "uint256"
        },
        {
          "internalType": "address",
          "name": "verifyingContract",
          "type": "address"
        },
        {
          "internalType": "bytes32",
          "name": "salt",
          "type": "bytes32"
        },
        {
          "internalType": "uint256[]",
          "name": "extensions",
          "type": "uint256[]"
        }
      ],
      "stateMutability": "view",
      "type": "function"
    },
    {
      "inputs": [
        {
          "internalType": "uint256",
          "name": "claimIndexHash",
          "type": "uint256"
        }
      ],
      "name": "getClaimProof",
      "outputs": [
        {
          "components": [
            {
              "internalType": "uint256",
              "name": "root",
              "type": "uint256"
            },
            {
              "internalType": "bool",
              "name": "existence",
              "type": "bool"
            },
            {
              "internalType": "uint256[]",
              "name": "siblings",
              "type": "uint256[]"
            },
            {
              "internalType": "uint256",
              "name": "index",
              "type": "uint256"
            },
            {
              "internalType": "uint256",
              "name": "value",
              "type": "uint256"
            },
            {
              "internalType": "bool",
              "name": "auxExistence",
              "type": "bool"
            },
            {
              "internalType": "uint256",
              "name": "auxIndex",
              "type": "uint256"
            },
            {
              "internalType": "uint256",
              "name": "auxValue",
              "type": "uint256"
            }
          ],
          "internalType": "struct SmtLib.Proof",
          "name": "",
          "type": "tuple"
        }
      ],
      "stateMutability": "view",
      "type": "function"
    },
    {
      "inputs": [
        {
          "internalType": "uint256",
          "name": "claimIndexHash",
          "type": "uint256"
        },
        {
          "internalType": "uint256",
          "name": "root",
          "type": "uint256"
        }
      ],
      "name": "getClaimProofByRoot",
      "outputs": [
        {
          "components": [
            {
              "internalType": "uint256",
              "name": "root",
              "type": "uint256"
            },
            {
              "internalType": "bool",
              "name": "existence",
              "type": "bool"
            },
            {
              "internalType": "uint256[]",
              "name": "siblings",
              "type": "uint256[]"
            },
            {
              "internalType": "uint256",
              "name": "index",
              "type": "uint256"
            },
            {
              "internalType": "uint256",
              "name": "value",
              "type": "uint256"
            },
            {
              "internalType": "bool",
              "name": "auxExistence",
              "type": "bool"
            },
            {
              "internalType": "uint256",
              "name": "auxIndex",
              "type": "uint256"
            },
            {
              "internalType": "uint256",
              "name": "auxValue",
              "type": "uint256"
            }
          ],
          "internalType": "struct SmtLib.Proof",
          "name": "",
          "type": "tuple"
        }
      ],
      "stateMutability": "view",
      "type": "function"
    },
    {
      "inputs": [
        {
          "internalType": "uint256",
          "name": "claimIndexHash",
          "type": "uint256"
        }
      ],
      "name": "getClaimProofWithStateInfo",
      "outputs": [
        {
          "components": [
            {
              "internalType": "uint256",
              "name": "root",
              "type": "uint256"
            },
            {
              "internalType": "bool",
              "name": "existence",
              "type": "bool"
            },
            {
              "internalType": "uint256[]",
              "name": "siblings",
              "type": "uint256[]"
            },
            {
              "internalType": "uint256",
              "name": "index",
              "type": "uint256"
            },
            {
              "internalType": "uint256",
              "name": "value",
              "type": "uint256"
            },
            {
              "internalType": "bool",
              "name": "auxExistence",
              "type": "bool"
            },
            {
              "internalType": "uint256",
              "name": "auxIndex",
              "type": "uint256"
            },
            {
              "internalType": "uint256",
              "name": "auxValue",
              "type": "uint256"
            }
          ],
          "internalType": "struct SmtLib.Proof",
          "name": "",
          "type": "tuple"
        },
        {
          "components": [
            {
              "internalType": "uint256",
              "name": "state",
              "type": "uint256"
            },
            {
              "internalType": "uint256",
              "name": "claimsRoot",
              "type": "uint256"
            },
            {
              "internalType": "uint256",
              "name": "revocationsRoot",
              "type": "uint256"
            },
            {
              "internalType": "uint256",
              "name": "rootsRoot",
              "type": "uint256"
            }
          ],
          "internalType": "struct IdentityLib.StateInfo",
          "name": "",
          "type": "tuple"
        }
      ],
      "stateMutability": "view",
      "type": "function"
    },
    {
      "inputs": [],
      "name": "getClaimsTreeRoot",
      "outputs": [
        {
          "internalType": "uint256",
          "name": "",
          "type": "uint256"
        }
      ],
      "stateMutability": "view",
      "type": "function"
    },
    {
      "inputs": [],
      "name": "getExpirationTime",
      "outputs": [
        {
          "internalType": "uint256",
          "name": "",
          "type": "uint256"
        }
      ],
      "stateMutability": "view",
      "type": "function"
    },
    {
      "inputs": [],
      "name": "getId",
      "outputs": [
        {
          "internalType": "uint256",
          "name": "",
          "type": "uint256"
        }
      ],
      "stateMutability": "view",
      "type": "function"
    },
    {
      "inputs": [],
      "name": "getIsOldStateGenesis",
      "outputs": [
        {
          "internalType": "bool",
          "name": "",
          "type": "bool"
        }
      ],
      "stateMutability": "view",
      "type": "function"
    },
    {
      "inputs": [],
      "name": "getIssuerDIDHash",
      "outputs": [
        {
          "internalType": "uint256",
          "name": "",
          "type": "uint256"
        }
      ],
      "stateMutability": "view",
      "type": "function"
    },
    {
      "inputs": [],
      "name": "getLatestPublishedClaimsRoot",
      "outputs": [
        {
          "internalType": "uint256",
          "name": "",
          "type": "uint256"
        }
      ],
      "stateMutability": "view",
      "type": "function"
    },
    {
      "inputs": [],
      "name": "getLatestPublishedRevocationsRoot",
      "outputs": [
        {
          "internalType": "uint256",
          "name": "",
          "type": "uint256"
        }
      ],
      "stateMutability": "view",
      "type": "function"
    },
    {
      "inputs": [],
      "name": "getLatestPublishedRootsRoot",
      "outputs": [
        {
          "internalType": "uint256",
          "name": "",
          "type": "uint256"
        }
      ],
      "stateMutability": "view",
      "type": "function"
    },
    {
      "inputs": [],
      "name": "getLatestPublishedState",
      "outputs": [
        {
          "internalType": "uint256",
          "name": "",
          "type": "uint256"
        }
      ],
      "stateMutability": "view",
      "type": "function"
    },
    {
      "inputs": [],
      "name": "getMaxFutureTime",
      "outputs": [
        {
          "internalType": "uint256",
          "name": "",
          "type": "uint256"
        }
      ],
      "stateMutability": "view",
      "type": "function"
    },
    {
      "inputs": [
        {
          "internalType": "uint64",
          "name": "revocationNonce",
          "type": "uint64"
        }
      ],
      "name": "getRevocationProof",
      "outputs": [
        {
          "components": [
            {
              "internalType": "uint256",
              "name": "root",
              "type": "uint256"
            },
            {
              "internalType": "bool",
              "name": "existence",
              "type": "bool"
            },
            {
              "internalType": "uint256[]",
              "name": "siblings",
              "type": "uint256[]"
            },
            {
              "internalType": "uint256",
              "name": "index",
              "type": "uint256"
            },
            {
              "internalType": "uint256",
              "name": "value",
              "type": "uint256"
            },
            {
              "internalType": "bool",
              "name": "auxExistence",
              "type": "bool"
            },
            {
              "internalType": "uint256",
              "name": "auxIndex",
              "type": "uint256"
            },
            {
              "internalType": "uint256",
              "name": "auxValue",
              "type": "uint256"
            }
          ],
          "internalType": "struct SmtLib.Proof",
          "name": "",
          "type": "tuple"
        }
      ],
      "stateMutability": "view",
      "type": "function"
    },
    {
      "inputs": [
        {
          "internalType": "uint64",
          "name": "revocationNonce",
          "type": "uint64"
        },
        {
          "internalType": "uint256",
          "name": "root",
          "type": "uint256"
        }
      ],
      "name": "getRevocationProofByRoot",
      "outputs": [
        {
          "components": [
            {
              "internalType": "uint256",
              "name": "root",
              "type": "uint256"
            },
            {
              "internalType": "bool",
              "name": "existence",
              "type": "bool"
            },
            {
              "internalType": "uint256[]",
              "name": "siblings",
              "type": "uint256[]"
            },
            {
              "internalType": "uint256",
              "name": "index",
              "type": "uint256"
            },
            {
              "internalType": "uint256",
              "name": "value",
              "type": "uint256"
            },
            {
              "internalType": "bool",
              "name": "auxExistence",
              "type": "bool"
            },
            {
              "internalType": "uint256",
              "name": "auxIndex",
              "type": "uint256"
            },
            {
              "internalType": "uint256",
              "name": "auxValue",
              "type": "uint256"
            }
          ],
          "internalType": "struct SmtLib.Proof",
          "name": "",
          "type": "tuple"
        }
      ],
      "stateMutability": "view",
      "type": "function"
    },
    {
      "inputs": [
        {
          "internalType": "uint64",
          "name": "revocationNonce",
          "type": "uint64"
        }
      ],
      "name": "getRevocationProofWithStateInfo",
      "outputs": [
        {
          "components": [
            {
              "internalType": "uint256",
              "name": "root",
              "type": "uint256"
            },
            {
              "internalType": "bool",
              "name": "existence",
              "type": "bool"
            },
            {
              "internalType": "uint256[]",
              "name": "siblings",
              "type": "uint256[]"
            },
            {
              "internalType": "uint256",
              "name": "index",
              "type": "uint256"
            },
            {
              "internalType": "uint256",
              "name": "value",
              "type": "uint256"
            },
            {
              "internalType": "bool",
              "name": "auxExistence",
              "type": "bool"
            },
            {
              "internalType": "uint256",
              "name": "auxIndex",
              "type": "uint256"
            },
            {
              "internalType": "uint256",
              "name": "auxValue",
              "type": "uint256"
            }
          ],
          "internalType": "struct SmtLib.Proof",
          "name": "",
          "type": "tuple"
        },
        {
          "components": [
            {
              "internalType": "uint256",
              "name": "state",
              "type": "uint256"
            },
            {
              "internalType": "uint256",
              "name": "claimsRoot",
              "type": "uint256"
            },
            {
              "internalType": "uint256",
              "name": "revocationsRoot",
              "type": "uint256"
            },
            {
              "internalType": "uint256",
              "name": "rootsRoot",
              "type": "uint256"
            }
          ],
          "internalType": "struct IdentityLib.StateInfo",
          "name": "",
          "type": "tuple"
        }
      ],
      "stateMutability": "view",
      "type": "function"
    },
    {
      "inputs": [
        {
          "internalType": "uint256",
          "name": "id",
          "type": "uint256"
        },
        {
          "internalType": "uint64",
          "name": "nonce",
          "type": "uint64"
        }
      ],
      "name": "getRevocationStatus",
      "outputs": [
        {
          "components": [
            {
              "components": [
                {
                  "internalType": "uint256",
                  "name": "state",
                  "type": "uint256"
                },
                {
                  "internalType": "uint256",
                  "name": "claimsTreeRoot",
                  "type": "uint256"
                },
                {
                  "internalType": "uint256",
                  "name": "revocationTreeRoot",
                  "type": "uint256"
                },
                {
                  "internalType": "uint256",
                  "name": "rootOfRoots",
                  "type": "uint256"
                }
              ],
              "internalType": "struct IOnchainCredentialStatusResolver.IdentityStateRoots",
              "name": "issuer",
              "type": "tuple"
            },
            {
              "components": [
                {
                  "internalType": "uint256",
                  "name": "root",
                  "type": "uint256"
                },
                {
                  "internalType": "bool",
                  "name": "existence",
                  "type": "bool"
                },
                {
                  "internalType": "uint256[]",
                  "name": "siblings",
                  "type": "uint256[]"
                },
                {
                  "internalType": "uint256",
                  "name": "index",
                  "type": "uint256"
                },
                {
                  "internalType": "uint256",
                  "name": "value",
                  "type": "uint256"
                },
                {
                  "internalType": "bool",
                  "name": "auxExistence",
                  "type": "bool"
                },
                {
                  "internalType": "uint256",
                  "name": "auxIndex",
                  "type": "uint256"
                },
                {
                  "internalType": "uint256",
                  "name": "auxValue",
                  "type": "uint256"
                }
              ],
              "internalType": "struct IOnchainCredentialStatusResolver.Proof",
              "name": "mtp",
              "type": "tuple"
            }
          ],
          "internalType": "struct IOnchainCredentialStatusResolver.CredentialStatus",
          "name": "",
          "type": "tuple"
        }
      ],
      "stateMutability": "view",
      "type": "function"
    },
    {
      "inputs": [
        {
          "internalType": "uint256",
          "name": "id",
          "type": "uint256"
        },
        {
          "internalType": "uint256",
          "name": "state",
          "type": "uint256"
        },
        {
          "internalType": "uint64",
          "name": "nonce",
          "type": "uint64"
        }
      ],
      "name": "getRevocationStatusByIdAndState",
      "outputs": [
        {
          "components": [
            {
              "components": [
                {
                  "internalType": "uint256",
                  "name": "state",
                  "type": "uint256"
                },
                {
                  "internalType": "uint256",
                  "name": "claimsTreeRoot",
                  "type": "uint256"
                },
                {
                  "internalType": "uint256",
                  "name": "revocationTreeRoot",
                  "type": "uint256"
                },
                {
                  "internalType": "uint256",
                  "name": "rootOfRoots",
                  "type": "uint256"
                }
              ],
              "internalType": "struct IOnchainCredentialStatusResolver.IdentityStateRoots",
              "name": "issuer",
              "type": "tuple"
            },
            {
              "components": [
                {
                  "internalType": "uint256",
                  "name": "root",
                  "type": "uint256"
                },
                {
                  "internalType": "bool",
                  "name": "existence",
                  "type": "bool"
                },
                {
                  "internalType": "uint256[]",
                  "name": "siblings",
                  "type": "uint256[]"
                },
                {
                  "internalType": "uint256",
                  "name": "index",
                  "type": "uint256"
                },
                {
                  "internalType": "uint256",
                  "name": "value",
                  "type": "uint256"
                },
                {
                  "internalType": "bool",
                  "name": "auxExistence",
                  "type": "bool"
                },
                {
                  "internalType": "uint256",
                  "name": "auxIndex",
                  "type": "uint256"
                },
                {
                  "internalType": "uint256",
                  "name": "auxValue",
                  "type": "uint256"
                }
              ],
              "internalType": "struct IOnchainCredentialStatusResolver.Proof",
              "name": "mtp",
              "type": "tuple"
            }
          ],
          "internalType": "struct IOnchainCredentialStatusResolver.CredentialStatus",
          "name": "",
          "type": "tuple"
        }
      ],
      "stateMutability": "view",
      "type": "function"
    },
    {
      "inputs": [],
      "name": "getRevocationsTreeRoot",
      "outputs": [
        {
          "internalType": "uint256",
          "name": "",
          "type": "uint256"
        }
      ],
      "stateMutability": "view",
      "type": "function"
    },
    {
      "inputs": [
        {
          "internalType": "uint256",
          "name": "rootsTreeRoot",
          "type": "uint256"
        }
      ],
      "name": "getRootProof",
      "outputs": [
        {
          "components": [
            {
              "internalType": "uint256",
              "name": "root",
              "type": "uint256"
            },
            {
              "internalType": "bool",
              "name": "existence",
              "type": "bool"
            },
            {
              "internalType": "uint256[]",
              "name": "siblings",
              "type": "uint256[]"
            },
            {
              "internalType": "uint256",
              "name": "index",
              "type": "uint256"
            },
            {
              "internalType": "uint256",
              "name": "value",
              "type": "uint256"
            },
            {
              "internalType": "bool",
              "name": "auxExistence",
              "type": "bool"
            },
            {
              "internalType": "uint256",
              "name": "auxIndex",
              "type": "uint256"
            },
            {
              "internalType": "uint256",
              "name": "auxValue",
              "type": "uint256"
            }
          ],
          "internalType": "struct SmtLib.Proof",
          "name": "",
          "type": "tuple"
        }
      ],
      "stateMutability": "view",
      "type": "function"
    },
    {
      "inputs": [
        {
          "internalType": "uint256",
          "name": "claimsTreeRoot",
          "type": "uint256"
        },
        {
          "internalType": "uint256",
          "name": "root",
          "type": "uint256"
        }
      ],
      "name": "getRootProofByRoot",
      "outputs": [
        {
          "components": [
            {
              "internalType": "uint256",
              "name": "root",
              "type": "uint256"
            },
            {
              "internalType": "bool",
              "name": "existence",
              "type": "bool"
            },
            {
              "internalType": "uint256[]",
              "name": "siblings",
              "type": "uint256[]"
            },
            {
              "internalType": "uint256",
              "name": "index",
              "type": "uint256"
            },
            {
              "internalType": "uint256",
              "name": "value",
              "type": "uint256"
            },
            {
              "internalType": "bool",
              "name": "auxExistence",
              "type": "bool"
            },
            {
              "internalType": "uint256",
              "name": "auxIndex",
              "type": "uint256"
            },
            {
              "internalType": "uint256",
              "name": "auxValue",
              "type": "uint256"
            }
          ],
          "internalType": "struct SmtLib.Proof",
          "name": "",
          "type": "tuple"
        }
      ],
      "stateMutability": "view",
      "type": "function"
    },
    {
      "inputs": [
        {
          "internalType": "uint256",
          "name": "rootsTreeRoot",
          "type": "uint256"
        }
      ],
      "name": "getRootProofWithStateInfo",
      "outputs": [
        {
          "components": [
            {
              "internalType": "uint256",
              "name": "root",
              "type": "uint256"
            },
            {
              "internalType": "bool",
              "name": "existence",
              "type": "bool"
            },
            {
              "internalType": "uint256[]",
              "name": "siblings",
              "type": "uint256[]"
            },
            {
              "internalType": "uint256",
              "name": "index",
              "type": "uint256"
            },
            {
              "internalType": "uint256",
              "name": "value",
              "type": "uint256"
            },
            {
              "internalType": "bool",
              "name": "auxExistence",
              "type": "bool"
            },
            {
              "internalType": "uint256",
              "name": "auxIndex",
              "type": "uint256"
            },
            {
              "internalType": "uint256",
              "name": "auxValue",
              "type": "uint256"
            }
          ],
          "internalType": "struct SmtLib.Proof",
          "name": "",
          "type": "tuple"
        },
        {
          "components": [
            {
              "internalType": "uint256",
              "name": "state",
              "type": "uint256"
            },
            {
              "internalType": "uint256",
              "name": "claimsRoot",
              "type": "uint256"
            },
            {
              "internalType": "uint256",
              "name": "revocationsRoot",
              "type": "uint256"
            },
            {
              "internalType": "uint256",
              "name": "rootsRoot",
              "type": "uint256"
            }
          ],
          "internalType": "struct IdentityLib.StateInfo",
          "name": "",
          "type": "tuple"
        }
      ],
      "stateMutability": "view",
      "type": "function"
    },
    {
      "inputs": [
        {
          "internalType": "uint256",
          "name": "state",
          "type": "uint256"
        }
      ],
      "name": "getRootsByState",
      "outputs": [
        {
          "components": [
            {
              "internalType": "uint256",
              "name": "claimsRoot",
              "type": "uint256"
            },
            {
              "internalType": "uint256",
              "name": "revocationsRoot",
              "type": "uint256"
            },
            {
              "internalType": "uint256",
              "name": "rootsRoot",
              "type": "uint256"
            }
          ],
          "internalType": "struct IdentityLib.Roots",
          "name": "",
          "type": "tuple"
        }
      ],
      "stateMutability": "view",
      "type": "function"
    },
    {
      "inputs": [],
      "name": "getRootsTreeRoot",
      "outputs": [
        {
          "internalType": "uint256",
          "name": "",
          "type": "uint256"
        }
      ],
      "stateMutability": "view",
      "type": "function"
    },
    {
      "inputs": [],
      "name": "getSigners",
      "outputs": [
        {
          "internalType": "address[]",
          "name": "",
          "type": "address[]"
        }
      ],
      "stateMutability": "view",
      "type": "function"
    },
    {
      "inputs": [],
      "name": "getSmtDepth",
      "outputs": [
        {
          "internalType": "uint256",
          "name": "",
          "type": "uint256"
        }
      ],
      "stateMutability": "pure",
      "type": "function"
    },
    {
      "inputs": [],
      "name": "getTemplateRoot",
      "outputs": [
        {
          "internalType": "uint256",
          "name": "",
          "type": "uint256"
        }
      ],
      "stateMutability": "view",
      "type": "function"
    },
    {
      "inputs": [],
      "name": "getTransactors",
      "outputs": [
        {
          "internalType": "address[]",
          "name": "",
          "type": "address[]"
        }
      ],
      "stateMutability": "view",
      "type": "function"
    },
    {
      "inputs": [
        {
          "internalType": "address",
          "name": "_stateContractAddr",
          "type": "address"
        },
        {
          "internalType": "bytes2",
          "name": "idType",
          "type": "bytes2"
        }
      ],
      "name": "initialize",
      "outputs": [],
      "stateMutability": "nonpayable",
      "type": "function"
    },
    {
      "inputs": [
        {
          "internalType": "uint256",
          "name": "expirationTime",
          "type": "uint256"
        },
        {
          "internalType": "uint256",
          "name": "maxFutureTime",
          "type": "uint256"
        },
        {
          "internalType": "uint256",
          "name": "templateRoot",
          "type": "uint256"
        },
        {
          "internalType": "string[]",
          "name": "credentialCircuitIds",
          "type": "string[]"
        },
        {
          "internalType": "address[]",
          "name": "credentialVerifierAddresses",
          "type": "address[]"
        },
        {
          "components": [
            {
              "internalType": "address",
              "name": "stateAddress",
              "type": "address"
            },
            {
              "internalType": "bytes2",
              "name": "idType",
              "type": "bytes2"
            }
          ],
          "internalType": "struct PassportCredentialIssuer.StateInfo",
          "name": "stateInfo",
          "type": "tuple"
        },
        {
          "internalType": "address",
          "name": "owner",
          "type": "address"
        },
        {
          "internalType": "contract IAttestationValidator",
          "name": "validator",
          "type": "address"
        }
      ],
      "name": "initializeIssuer",
      "outputs": [],
      "stateMutability": "nonpayable",
      "type": "function"
    },
    {
      "inputs": [
        {
          "internalType": "bytes32",
          "name": "imageHash",
          "type": "bytes32"
        }
      ],
      "name": "isWhitelistedImageHash",
      "outputs": [
        {
          "internalType": "bool",
          "name": "",
          "type": "bool"
        }
      ],
      "stateMutability": "view",
      "type": "function"
    },
    {
      "inputs": [
        {
          "internalType": "uint256",
          "name": "nullifier",
          "type": "uint256"
        }
      ],
      "name": "nullifierExists",
      "outputs": [
        {
          "internalType": "bool",
          "name": "",
          "type": "bool"
        }
      ],
      "stateMutability": "view",
      "type": "function"
    },
    {
      "inputs": [],
      "name": "owner",
      "outputs": [
        {
          "internalType": "address",
          "name": "",
          "type": "address"
        }
      ],
      "stateMutability": "view",
      "type": "function"
    },
    {
      "inputs": [],
      "name": "pendingOwner",
      "outputs": [
        {
          "internalType": "address",
          "name": "",
          "type": "address"
        }
      ],
      "stateMutability": "view",
      "type": "function"
    },
    {
      "inputs": [
        {
          "internalType": "bytes32",
          "name": "imageHash",
          "type": "bytes32"
        }
      ],
      "name": "removeImageHashFromWhitelist",
      "outputs": [],
      "stateMutability": "nonpayable",
      "type": "function"
    },
    {
      "inputs": [],
      "name": "renounceOwnership",
      "outputs": [],
      "stateMutability": "nonpayable",
      "type": "function"
    },
    {
      "inputs": [
        {
          "internalType": "uint256",
          "name": "nullifier",
          "type": "uint256"
        }
      ],
      "name": "revokeCredential",
      "outputs": [],
      "stateMutability": "nonpayable",
      "type": "function"
    },
    {
      "inputs": [
        {
          "internalType": "contract IAttestationValidator",
          "name": "validator",
          "type": "address"
        }
      ],
      "name": "setAttestationValidator",
      "outputs": [],
      "stateMutability": "nonpayable",
      "type": "function"
    },
    {
      "inputs": [
        {
          "internalType": "uint256",
          "name": "expirationTime",
          "type": "uint256"
        }
      ],
      "name": "setExpirationTime",
      "outputs": [],
      "stateMutability": "nonpayable",
      "type": "function"
    },
    {
      "inputs": [
        {
          "internalType": "uint256",
          "name": "issuerDidHash",
          "type": "uint256"
        }
      ],
      "name": "setIssuerDIDHash",
      "outputs": [],
      "stateMutability": "nonpayable",
      "type": "function"
    },
    {
      "inputs": [
        {
          "internalType": "uint256",
          "name": "maxFutureTime",
          "type": "uint256"
        }
      ],
      "name": "setMaxFutureTime",
      "outputs": [],
      "stateMutability": "nonpayable",
      "type": "function"
    },
    {
      "inputs": [
        {
          "internalType": "uint256",
          "name": "templateRoot",
          "type": "uint256"
        }
      ],
      "name": "setTemplateRoot",
      "outputs": [],
      "stateMutability": "nonpayable",
      "type": "function"
    },
    {
      "inputs": [
        {
          "internalType": "bytes4",
          "name": "interfaceId",
          "type": "bytes4"
        }
      ],
      "name": "supportsInterface",
      "outputs": [
        {
          "internalType": "bool",
          "name": "",
          "type": "bool"
        }
      ],
      "stateMutability": "view",
      "type": "function"
    },
    {
      "inputs": [
        {
          "internalType": "address",
          "name": "newOwner",
          "type": "address"
        }
      ],
      "name": "transferOwnership",
      "outputs": [],
      "stateMutability": "nonpayable",
      "type": "function"
    },
    {
      "inputs": [
        {
          "internalType": "string[]",
          "name": "circuitIds",
          "type": "string[]"
        },
        {
          "internalType": "address[]",
          "name": "verifierAddresses",
          "type": "address[]"
        }
      ],
      "name": "updateCredentialVerifiers",
      "outputs": [],
      "stateMutability": "nonpayable",
      "type": "function"
    },
    {
      "inputs": [
        {
          "components": [
            {
              "internalType": "string",
              "name": "circuitId",
              "type": "string"
            },
            {
              "internalType": "bytes",
              "name": "proof",
              "type": "bytes"
            }
          ],
          "internalType": "struct PassportCredentialIssuer.CredentialProof",
          "name": "credentialProof",
          "type": "tuple"
        },
        {
          "internalType": "bytes",
          "name": "passportSignatureProof",
          "type": "bytes"
        }
      ],
      "name": "verifyPassport",
      "outputs": [],
      "stateMutability": "nonpayable",
      "type": "function"
    }
  ],
  "bytecode": "0x6080604052348015600f57600080fd5b506016601a565b60ca565b7ff0c57e16840df040f15088dc2f81fe391c3923bec73e23a9662efc9c229c6a00805468010000000000000000900460ff161560695760405163f92ee8a960e01b815260040160405180910390fd5b80546001600160401b039081161460c75780546001600160401b0319166001600160401b0390811782556040519081527fc7f505b2f371ae2175ee4913f4499e1f2633a7b5936321eed1cdaeb6115181d29060200160405180910390a15b50565b613d28806100d96000396000f3fe608060405234801561001057600080fd5b506004361061035c5760003560e01c80638a684553116101d3578063c1e3273311610104578063e633436f116100a2578063f2fde38b1161007c578063f2fde38b1461072a578063f84c7c1e1461073d578063fa78d88c14610745578063ffa1ad741461075857600080fd5b8063e633436f146106f1578063e7c25d2314610704578063eb12d61e1461071757600080fd5b8063da936540116100de578063da936540146106a7578063e23a845a146106ce578063e26ecb0b146106d6578063e30c3978146106e957600080fd5b8063c1e3273314610684578063c6365a3b14610697578063da68a0b11461069f57600080fd5b8063b1af19e711610171578063b57a40cb1161014b578063b57a40cb14610616578063b8db687114610629578063badf055d1461065e578063c0cc365d1461067157600080fd5b8063b1af19e7146105dd578063b354c2d8146105f0578063b37feda41461060357600080fd5b80639674cfa4116101ad5780639674cfa41461057e578063a635c78514610586578063aad7292114610599578063acb8cc49146105ac57600080fd5b80638a684553146105435780638da5cb5b1461055657806394cf795e1461057657600080fd5b8063310d0d5b116102ad5780635d1ca6311161024b57806376dfc7761161022557806376dfc7761461050557806379ba50971461050d57806384b0196e146105155780638a03c1661461053057600080fd5b80635d1ca631146104e257806370f4f9df146104ea578063715018a6146104fd57600080fd5b80633f0c6648116102875780633f0c6648146104ad578063406e8b4c146104b4578063443d7534146104c7578063523b8136146104da57600080fd5b8063310d0d5b1461048a5780633d59ec601461049d5780633df432fc146104a557600080fd5b806323aafe3b1161031a5780632c1d3204116102f45780632c1d3204146104475780632d26b3091461044f5780632d5c4f25146104645780632e798ec11461047757600080fd5b806323aafe3b1461040157806326485063146104145780632afab62f1461043457600080fd5b806233058d1461036157806301c85c771461038b57806301ffc9a7146103a157806305417f79146103c4578063110c96a7146103cc5780631b87278d146103ec575b600080fd5b61037461036f366004612d6b565b61077c565b604051610382929190612e28565b60405180910390f35b610393610849565b604051908152602001610382565b6103b46103af366004612e6b565b6108ce565b6040519015158152602001610382565b610393610905565b6103df6103da366004612e95565b610918565b6040516103829190612ec1565b6103ff6103fa366004612f0e565b610943565b005b6103ff61040f366004612f0e565b610a16565b610427610422366004612d6b565b610a49565b6040516103829190612f27565b6103b4610442366004612f0e565b610ae2565b610393610b0d565b610457610b20565b6040516103829190612f3a565b610427610472366004612f86565b610b35565b6103ff610485366004612f0e565b610bd4565b610427610498366004612f86565b610c20565b610393610c77565b610393610c8a565b6028610393565b6103ff6104c2366004612fe0565b610ccd565b6103746104d5366004612f0e565b610d6a565b610393610de5565b610393610df8565b6103ff6104f836600461300c565b610e08565b6103ff610e6b565b610393610e7f565b6103ff610e92565b61051d610eda565b6040516103829796959493929190613079565b6103ff61053e366004612f0e565b610f86565b6103ff61055136600461300c565b610f98565b61055e610fcd565b6040516001600160a01b039091168152602001610382565b610457611002565b610393611017565b61055e610594366004613222565b61102a565b6103df6105a7366004613256565b611064565b6105d0604051806040016040528060058152602001640312e302e360dc1b81525081565b604051610382919061328b565b6103ff6105eb366004612f0e565b61127d565b6103ff6105fe366004612f0e565b611295565b610374610611366004612f0e565b6112da565b610427610624366004612f0e565b611355565b61063c610637366004612f0e565b6113a3565b6040805182518152602080840151908201529181015190820152606001610382565b6103ff61066c3660046132e2565b61144b565b6103ff61067f366004612f0e565b611465565b610427610692366004612f0e565b6114a7565b6103936114f7565b61039361150a565b6103937f0d2a15c3140485b6db2a8c0f755486294daaae1eabcdd518f6beaf8e4ab4d83481565b61039361154d565b6104276106e4366004613351565b611557565b61055e6115b6565b6103ff6106ff36600461337b565b6115df565b6103ff610712366004613449565b6117ae565b6103ff61072536600461300c565b611959565b6103ff61073836600461300c565b6119db565b6103b4611a60565b6103b4610753366004612f0e565b611a76565b6105d060405180604001604052806005815260200164312e302e3160d81b81525081565b610784612c7a565b6107af6040518060800160405280600081526020016000815260200160008152602001600081525090565b6107b7611a97565b604051631f17004d60e31b815260048101919091526001600160401b038416602482015273__$068aad146bf104111ba65c4a1de2cd0e23$__9063f8b80268906044015b600060405180830381865af4158015610818573d6000803e3d6000fd5b505050506040513d6000823e601f3d908101601f191682016040526108409190810190613640565b91509150915091565b6000610853611a97565b60405163765c2c6160e01b8152600481019190915273__$068aad146bf104111ba65c4a1de2cd0e23$__9063765c2c61906024015b602060405180830381865af41580156108a5573d6000803e3d6000fd5b505050506040513d601f19601f820116820180604052508101906108c991906136e4565b905090565b60006001600160e01b03198216635d1ca63160e01b14806108ff57506301ffc9a760e01b6001600160e01b03198316145b92915050565b600061090f611abb565b600b0154905090565b610920612cc3565b600061092a611a97565b60010154905061093b848285611064565b949350505050565b61094b611adf565b6000610955611abb565b6000838152600a820160205260408120549192506001600160401b039091169081900361099d57604051635204776960e01b8152600481018490526024015b60405180910390fd5b6109a681611b11565b6000838152600a8301602052604090819020805467ffffffffffffffff19169055517f725d312746be14d750d0493aa7960a5aca3c30f98f74b0e07afc8f1a36b355c290610a0990859084909182526001600160401b0316602082015260400190565b60405180910390a1505050565b610a1e611adf565b6000610a28611abb565b60009283526007016020526040909120805460ff1916911515919091179055565b610a51612c7a565b610a59611a97565b604051637d0aba4f60e01b815260048101919091526001600160401b038316602482015273__$068aad146bf104111ba65c4a1de2cd0e23$__90637d0aba4f906044015b600060405180830381865af4158015610aba573d6000803e3d6000fd5b505050506040513d6000823e601f3d908101601f191682016040526108ff91908101906136fd565b600080610aed611abb565b6000938452600a01602052505060409020546001600160401b0316151590565b6000610b17611abb565b60010154905090565b60606108c9610b2d611abb565b600801611bfb565b610b3d612c7a565b610b45611a97565b60405163d55da6a360e01b81526004810191909152602481018490526044810183905273__$068aad146bf104111ba65c4a1de2cd0e23$__9063d55da6a3906064015b600060405180830381865af4158015610ba5573d6000803e3d6000fd5b505050506040513d6000823e601f3d908101601f19168201604052610bcd91908101906136fd565b9392505050565b610bdc611adf565b80610be5611abb565b600201556040518181527f73293f7b4f3fe4eeb423f647c95d70844d99749a80c8a93aa4c3d4996a63bc4a906020015b60405180910390a150565b610c28612c7a565b610c30611a97565b604051636ac0c5c760e11b81526004810191909152602481018490526044810183905273__$068aad146bf104111ba65c4a1de2cd0e23$__9063d5818b8e90606401610b88565b6000610c81611a97565b60010154919050565b6000610c94611a97565b604051631b8bf99b60e21b8152600481019190915273__$068aad146bf104111ba65c4a1de2cd0e23$__90636e2fe66c90602401610888565b610cd5611a97565b6040516359a6069160e01b815260048101919091526001600160a01b0383166024820152306044820152602860648201526001600160f01b03198216608482015273__$068aad146bf104111ba65c4a1de2cd0e23$__906359a606919060a4015b60006040518083038186803b158015610d4e57600080fd5b505af4158015610d62573d6000803e3d6000fd5b505050505050565b610d72612c7a565b610d9d6040518060800160405280600081526020016000815260200160008152602001600081525090565b610da5611a97565b60405163a3018d7960e01b815260048101919091526024810184905273__$068aad146bf104111ba65c4a1de2cd0e23$__9063a3018d79906044016107fb565b6000610def611a97565b609a0154919050565b6000610e02611a97565b54919050565b610e10611adf565b6000610e1a611abb565b9050610e296008820183611c08565b506040516001600160a01b03831681527f0a33c33ca5c931f5cbdaa4137c8b7f3ea632aa05390959f913c410776733061b906020015b60405180910390a15050565b610e73611adf565b610e7d6000611c1d565b565b6000610e89611abb565b60020154905090565b3380610e9c6115b6565b6001600160a01b031614610ece5760405163118cdaa760e01b81526001600160a01b0382166004820152602401610994565b610ed781611c1d565b50565b60006060808280808381600080516020613cd38339815191528054909150158015610f0757506001810154155b610f4b5760405162461bcd60e51b81526020600482015260156024820152741152540dcc4c8e88155b9a5b9a5d1a585b1a5e9959605a1b6044820152606401610994565b610f53611c59565b610f5b611d1c565b60408051600080825260208201909252600f60f81b9c939b5091995046985030975095509350915050565b610f8e611adf565b6001610a28611abb565b610fa0611adf565b80610fa9611abb565b60060180546001600160a01b0319166001600160a01b039290921691909117905550565b6000807f9016d09d72d40fdae2fd8ceac6b6234c7706214fd39c1cd1e609a0528c1993005b546001600160a01b031692915050565b60606108c961100f611abb565b600401611bfb565b6000611021611a97565b609b0154919050565b6000611034611abb565b600301826040516110459190613731565b908152604051908190036020019020546001600160a01b031692915050565b61106c612cc3565b611074611a97565b5484146110ba5760405162461bcd60e51b8152602060048201526014602482015273092c8cadce8d2e8f240d2c840dad2e6dac2e8c6d60631b6044820152606401610994565b60006110c4611a97565b604051630b1a9cd360e01b815260048101919091526024810185905273__$068aad146bf104111ba65c4a1de2cd0e23$__90630b1a9cd390604401606060405180830381865af415801561111c573d6000803e3d6000fd5b505050506040513d601f19601f82011682018060405250810190611140919061374d565b604080516080810182528681528251602080830191909152830151818301529082015160608201529091506000611175611a97565b6020840151604051630b2bcd1b60e11b815260048101929092526001600160401b0387166024830152604482015273__$068aad146bf104111ba65c4a1de2cd0e23$__906316579a3690606401600060405180830381865af41580156111df573d6000803e3d6000fd5b505050506040513d6000823e601f3d908101601f1916820160405261120791908101906136fd565b6040805161010081018252825181526020808401511515818301528284015182840152606080850151908301526080808501519083015260a08085015115159083015260c0808501519083015260e093840151938201939093528151808301909252938152908101929092525095945050505050565b611285611adf565b8061128e611abb565b600b015550565b61129d611adf565b806112a6611abb565b600101556040518181527ff007a02ba428e63fa98b65269e70f9a9db847e0a839049a2f31f06928226773490602001610c15565b6112e2612c7a565b61130d6040518060800160405280600081526020016000815260200160008152602001600081525090565b611315611a97565b604051636ad1d8a760e11b815260048101919091526024810184905273__$068aad146bf104111ba65c4a1de2cd0e23$__9063d5a3b14e906044016107fb565b61135d612c7a565b611365611a97565b604051620cf08960e41b815260048101919091526024810183905273__$068aad146bf104111ba65c4a1de2cd0e23$__9062cf089090604401610a9d565b6113c760405180606001604052806000815260200160008152602001600081525090565b6113cf611a97565b604051630b1a9cd360e01b815260048101919091526024810183905273__$068aad146bf104111ba65c4a1de2cd0e23$__90630b1a9cd390604401606060405180830381865af4158015611427573d6000803e3d6000fd5b505050506040513d601f19601f820116820180604052508101906108ff919061374d565b611453611adf565b61145f84848484611d5b565b50505050565b61146d611adf565b80611476611abb565b556040518181527f7f7f3071c3c286700c199acae2fe071beb4a63dae1afff85186fa75d18090ae890602001610c15565b6114af612c7a565b6114b7611a97565b6040516397ac539160e01b815260048101919091526024810183905273__$068aad146bf104111ba65c4a1de2cd0e23$__906397ac539190604401610a9d565b6000611501611a97565b609c0154919050565b6000611514611a97565b604051631e75e7f360e01b8152600481019190915273__$068aad146bf104111ba65c4a1de2cd0e23$__90631e75e7f390602401610888565b6000610e02611abb565b61155f612c7a565b611567611a97565b604051630b2bcd1b60e11b815260048101919091526001600160401b03841660248201526044810183905273__$068aad146bf104111ba65c4a1de2cd0e23$__906316579a3690606401610b88565b6000807f237e158222e3e6968b72b9db0d8043aacf074ad9f650f0d1606b4d82ee432c00610ff2565b60006115e9611eb3565b805490915060ff600160401b82041615906001600160401b03166000811580156116105750825b90506000826001600160401b0316600114801561162c5750303b155b90508115801561163a575080155b156116585760405163f92ee8a960e01b815260040160405180910390fd5b845467ffffffffffffffff19166001178555831561168257845460ff60401b1916600160401b1785555b6116a261169260208a018a61300c565b6104c260408b0160208c016137ac565b6116ab87611edc565b60006116b5611abb565b90508f81600001819055508e81600201819055508d8160010181905550868160060160006101000a8154816001600160a01b0302191690836001600160a01b0316021790555061174a6040518060400160405280601081526020016f50617373706f7274497373756572563160801b815250604051806040016040528060058152602001640312e302e360dc1b815250611eed565b6117568d8d8d8d611d5b565b50831561179d57845460ff60401b19168555604051600181527fc7f505b2f371ae2175ee4913f4499e1f2633a7b5936321eed1cdaeb6115181d29060200160405180910390a15b505050505050505050505050505050565b8151516000036117d4578151604051631d44e47160e21b8152610994919060040161328b565b60008060008085602001518060200190518101906117f2919061380e565b93509350935093506000604051806080016040528085815260200184815260200183815260200160405180610100016040528088600081518110611838576118386138c8565b6020026020010151815260200188600181518110611858576118586138c8565b6020026020010151815260200188600281518110611878576118786138c8565b6020026020010151815260200188600381518110611898576118986138c8565b60200260200101518152602001886004815181106118b8576118b86138c8565b60200260200101518152602001886005815181106118d8576118d86138c8565b60200260200101518152602001886006815181106118f8576118f86138c8565b6020026020010151815260200188600781518110611918576119186138c8565b6020026020010151815250815250905060008680602001905181019061193e91906138de565b905061194f88600001518383611eff565b5050505050505050565b611961611f21565b600061196b611abb565b90506001600160a01b03821661199457604051634501a91960e01b815260040160405180910390fd5b6119a16004820183611c08565b506040516001600160a01b03831681527f47d1c22a25bb3a5d4e481b9b1e6944c2eade3181a0a20b495ed61d35b5323f2490602001610e5f565b6119e3611adf565b7f237e158222e3e6968b72b9db0d8043aacf074ad9f650f0d1606b4d82ee432c0080546001600160a01b0319166001600160a01b0383169081178255611a27610fcd565b6001600160a01b03167f38d16b8cac22d99fc7c124b9cd0de2d3fa1faef420bfe791d8c362d765e2270060405160405180910390a35050565b6000611a6a611a97565b6002015460ff16919050565b6000611a80611abb565b600092835260070160205250604090205460ff1690565b7f3018a310c36c4f8228f09bf3b1822685cf0971daa8265a58ca807c4a4daba40090565b7f405d73f251ed6c997b1c097c46d2f830c946626e510c12346d80e7c5a4dad30090565b33611ae8610fcd565b6001600160a01b031614610e7d5760405163118cdaa760e01b8152336004820152602401610994565b611b19611a97565b604051638ad7195d60e01b815260048101919091526001600160401b038216602482015273__$068aad146bf104111ba65c4a1de2cd0e23$__90638ad7195d9060440160006040518083038186803b158015611b7457600080fd5b505af4158015611b88573d6000803e3d6000fd5b50505050611b94611a97565b60405163175ba3e960e11b8152600481019190915273__$068aad146bf104111ba65c4a1de2cd0e23$__90632eb747d29060240160006040518083038186803b158015611be057600080fd5b505af4158015611bf4573d6000803e3d6000fd5b5050505050565b60606000610bcd83611f72565b6000610bcd836001600160a01b038416611fce565b7f237e158222e3e6968b72b9db0d8043aacf074ad9f650f0d1606b4d82ee432c0080546001600160a01b0319168155611c558261201d565b5050565b7fa16a46d94261c7517cc8ff89f61c0ce93598e3c849801011dee649a6a557d1028054606091600080516020613cd383398151915291611c98906139ba565b80601f0160208091040260200160405190810160405280929190818152602001828054611cc4906139ba565b8015611d115780601f10611ce657610100808354040283529160200191611d11565b820191906000526020600020905b815481529060010190602001808311611cf457829003601f168201915b505050505091505090565b7fa16a46d94261c7517cc8ff89f61c0ce93598e3c849801011dee649a6a557d1038054606091600080516020613cd383398151915291611c98906139ba565b6000611d65611abb565b9050838214611d91576040516355c5b3e360e11b81526004810185905260248101839052604401610994565b60005b84811015610d6257838382818110611dae57611dae6138c8565b9050602002016020810190611dc3919061300c565b82600301878784818110611dd957611dd96138c8565b9050602002810190611deb91906139f4565b604051611df9929190613a3a565b90815260405190819003602001902080546001600160a01b03929092166001600160a01b03199092169190911790557f5d864db8d88e9085fd5e7752a2094701e558355b75b561c00174d27aefd3e289868683818110611e5b57611e5b6138c8565b9050602002810190611e6d91906139f4565b868685818110611e7f57611e7f6138c8565b9050602002016020810190611e94919061300c565b604051611ea393929190613a4a565b60405180910390a1600101611d94565b6000807ff0c57e16840df040f15088dc2f81fe391c3923bec73e23a9662efc9c229c6a006108ff565b611ee461208e565b610ed7816120b3565b611ef561208e565b611c5582826120e5565b611f098383612146565b611f128161223e565b611f1c82826122cf565b505050565b611f5333611f2d611abb565b600801906001600160a01b03811660009081526001830160205260408120541515610bcd565b610e7d57604051631d83d27f60e01b8152336004820152602401610994565b606081600001805480602002602001604051908101604052809291908181526020018280548015611fc257602002820191906000526020600020905b815481526020019060010190808311611fae575b50505050509050919050565b6000818152600183016020526040812054612015575081546001818101845560008481526020808220909301849055845484825282860190935260409020919091556108ff565b5060006108ff565b7f9016d09d72d40fdae2fd8ceac6b6234c7706214fd39c1cd1e609a0528c19930080546001600160a01b031981166001600160a01b03848116918217845560405192169182907f8be0079c531659141344cd1fd0a4f28419497f9722a3daafe3b4186f6b6457e090600090a3505050565b61209661233e565b610e7d57604051631afcd79f60e31b815260040160405180910390fd5b6120bb61208e565b6001600160a01b038116610ece57604051631e4fbdf760e01b815260006004820152602401610994565b6120ed61208e565b600080516020613cd38339815191527fa16a46d94261c7517cc8ff89f61c0ce93598e3c849801011dee649a6a557d1026121278482613ad2565b50600381016121368382613ad2565b5060008082556001909101555050565b6000612150611abb565b9050600081600301846040516121669190613731565b908152604051908190036020019020546001600160a01b031690508061219f576040516301dcf1ab60e31b815260040160405180910390fd5b806001600160a01b031663c9219a7a84600001518560200151866040015187606001516040518563ffffffff1660e01b81526004016121e19493929190613bb3565b602060405180830381865afa1580156121fe573d6000803e3d6000fd5b505050506040513d601f19601f820116820180604052508101906122229190613c38565b61145f576040516281723b60e21b815260040160405180910390fd5b60008061225383600001518460200151612358565b91509150816122755760405163df2b56ff60e01b815260040160405180910390fd5b6122a781612281611abb565b600401906001600160a01b03811660009081526001830160205260408120541515610bcd565b611f1c57604051631432861160e31b81526001600160a01b0382166004820152602401610994565b60006122da83612402565b90506000826000015160200151905061231e826000015183602001518460400151856060015186608001518760a00151896000015160000151888a60e00151612573565b61232c818360c0015161281f565b61145f8260000151836020015161288f565b6000612348611eb3565b54600160401b900460ff16919050565b60008060006123c97f0d2a15c3140485b6db2a8c0f755486294daaae1eabcdd518f6beaf8e4ab4d834866000015187602001516040516020016123ae939291909283526020830191909152604082015260600190565b6040516020818303038152906040528051906020012061294a565b90506000806123d88387612977565b50909250905060008160038111156123f2576123f2613c53565b14945090925050505b9250929050565b61245360405180610100016040528060008152602001600081526020016000815260200160008152602001600081526020016000815260200160006001600160401b03168152602001600081525090565b6040518061010001604052808360600151600060088110612476576124766138c8565b602002015181526020018360600151600160088110612497576124976138c8565b6020020151815260200183606001516004600881106124b8576124b86138c8565b6020020151815260200183606001516003600881106124d9576124d96138c8565b6020020151815260200183606001516005600881106124fa576124fa6138c8565b60200201518152602001836060015160026008811061251b5761251b6138c8565b60200201518152602001836060015160076008811061253c5761253c6138c8565b60200201516001600160401b031681526020018360600151600660088110612566576125666138c8565b6020020151905292915050565b600061257d611abb565b9050896000036125a357604051631b1aad8760e11b8152600481018b9052602401610994565b886000036125c757604051634bdc991b60e11b8152600481018a9052602401610994565b806001015486146125fb57600181015460405163e748379160e01b8152610994918891600401918252602082015260400190565b848414612628576040516001621d0d8360e21b031981526004810185905260248101869052604401610994565b60006207a12088111561264a5761264388630121eac0613c7f565b905061265b565b612658886301312d00613c7f565b90505b60008060006126788560000154426126739190613c92565b6129c4565b9194509250905060008161268d846064613ca5565b61269986612710613ca5565b6126a39190613c7f565b6126ad9190613c7f565b9050848111156126d357604051635d5e30bf60e01b8152600481018d9052602401610994565b60008060006126eb8960020154426126739190613c7f565b91945092509050600081612700846064613ca5565b61270c86612710613ca5565b6127169190613c7f565b6127209190613c7f565b905080891115612747578f6040516353f3b14160e01b815260040161099491815260200190565b50505050505050504282600001548a6127609190613c7f565b10156127815760405162bd09f160e11b8152600481018a9052602401610994565b60028201546127909042613c7f565b8911156127b35760405163d818833560e01b8152600481018a9052602401610994565b8282600b0154146127d75760405163fe0c887b60e01b815260040160405180910390fd5b6000848152600a830160205260409020546001600160401b03161561281257604051635377438b60e11b815260048101859052602401610994565b5050505050505050505050565b806001600160401b0316600003612854576040516337f969b360e11b81526001600160401b0382166004820152602401610994565b600061285e611abb565b6000938452600a01602052506040909120805467ffffffffffffffff19166001600160401b03909216919091179055565b612897611a97565b6040516306fb157560e01b81526004810191909152602481018390526044810182905273__$068aad146bf104111ba65c4a1de2cd0e23$__906306fb15759060640160006040518083038186803b1580156128f157600080fd5b505af4158015612905573d6000803e3d6000fd5b50505050612911611a97565b60405163175ba3e960e11b8152600481019190915273__$068aad146bf104111ba65c4a1de2cd0e23$__90632eb747d290602401610d36565b60006108ff6129576129e3565b8360405161190160f01b8152600281019290925260228201526042902090565b600080600083516041036129b15760208401516040850151606086015160001a6129a3888285856129ed565b9550955095505050506129bd565b50508151600091506002905b9250925092565b600080806129d6620151808504612abc565b9196909550909350915050565b60006108c9612b58565b600080807f7fffffffffffffffffffffffffffffff5d576e7357a4501ddfe92f46681b20a0841115612a285750600091506003905082612ab2565b604080516000808252602082018084528a905260ff891692820192909252606081018790526080810186905260019060a0016020604051602081039080840390855afa158015612a7c573d6000803e3d6000fd5b5050604051601f1901519150506001600160a01b038116612aa857506000925060019150829050612ab2565b9250600091508190505b9450945094915050565b60008080836226496581018262023ab1600483020590506004600362023ab18302010590910390600062164b09610fa0600185010205905060046105b58202058303601f019250600061098f8460500281612b1957612b19613cbc565b0590506000605061098f83020585039050600b820560301994909401606402929092018301996002600c90940290910392909201975095509350505050565b60007f8b73c3c69bb8fe3d512ecc4cf759cc79239f7b179b0ffacaa9a75d522b39400f612b83612bcc565b612b8b612c36565b60408051602081019490945283019190915260608201524660808201523060a082015260c00160405160208183030381529060405280519060200120905090565b6000600080516020613cd383398151915281612be6611c59565b805190915015612bfe57805160209091012092915050565b81548015612c0d579392505050565b7fc5d2460186f7233c927e7db2dcc703c0e500b653ca82273b7bfad8045d85a470935050505090565b6000600080516020613cd383398151915281612c50611d1c565b805190915015612c6857805160209091012092915050565b60018201548015612c0d579392505050565b6040518061010001604052806000815260200160001515815260200160608152602001600081526020016000815260200160001515815260200160008152602001600081525090565b6040518060400160405280612cf96040518060800160405280600081526020016000815260200160008152602001600081525090565b8152602001612d4a6040518061010001604052806000815260200160001515815260200160608152602001600081526020016000815260200160001515815260200160008152602001600081525090565b905290565b80356001600160401b0381168114612d6657600080fd5b919050565b600060208284031215612d7d57600080fd5b610bcd82612d4f565b805182526020808201511515818401526040808301516101009185018290528051918501829052600092019082906101208601905b80831015612dde5783518252602082019150602084019350600183019250612dbb565b50606085015160608701526080850151608087015260a08501519250612e0860a087018415159052565b60c085015160c087015260e085015160e087015280935050505092915050565b60a081526000612e3b60a0830185612d86565b9050610bcd6020830184805182526020810151602083015260408101516040830152606081015160608301525050565b600060208284031215612e7d57600080fd5b81356001600160e01b031981168114610bcd57600080fd5b60008060408385031215612ea857600080fd5b82359150612eb860208401612d4f565b90509250929050565b60208152612ef4602082018351805182526020810151602083015260408101516040830152606081015160608301525050565b6000602083015160a08084015261093b60c0840182612d86565b600060208284031215612f2057600080fd5b5035919050565b602081526000610bcd6020830184612d86565b602080825282518282018190526000918401906040840190835b81811015612f7b5783516001600160a01b0316835260209384019390920191600101612f54565b509095945050505050565b60008060408385031215612f9957600080fd5b50508035926020909101359150565b6001600160a01b0381168114610ed757600080fd5b8035612d6681612fa8565b80356001600160f01b031981168114612d6657600080fd5b60008060408385031215612ff357600080fd5b8235612ffe81612fa8565b9150612eb860208401612fc8565b60006020828403121561301e57600080fd5b8135610bcd81612fa8565b60005b8381101561304457818101518382015260200161302c565b50506000910152565b60008151808452613065816020860160208601613029565b601f01601f19169290920160200192915050565b60ff60f81b8816815260e06020820152600061309860e083018961304d565b82810360408401526130aa818961304d565b606084018890526001600160a01b038716608085015260a0840186905283810360c08501528451808252602080870193509091019060005b818110156131005783518352602093840193909201916001016130e2565b50909b9a5050505050505050505050565b634e487b7160e01b600052604160045260246000fd5b604080519081016001600160401b038111828210171561314957613149613111565b60405290565b60405161010081016001600160401b038111828210171561314957613149613111565b604051601f8201601f191681016001600160401b038111828210171561319a5761319a613111565b604052919050565b60006001600160401b038211156131bb576131bb613111565b50601f01601f191660200190565b600082601f8301126131da57600080fd5b81356020830160006131f36131ee846131a2565b613172565b905082815285838301111561320757600080fd5b82826020830137600092810160200192909252509392505050565b60006020828403121561323457600080fd5b81356001600160401b0381111561324a57600080fd5b61093b848285016131c9565b60008060006060848603121561326b57600080fd5b833592506020840135915061328260408501612d4f565b90509250925092565b602081526000610bcd602083018461304d565b60008083601f8401126132b057600080fd5b5081356001600160401b038111156132c757600080fd5b6020830191508360208260051b85010111156123fb57600080fd5b600080600080604085870312156132f857600080fd5b84356001600160401b0381111561330e57600080fd5b61331a8782880161329e565b90955093505060208501356001600160401b0381111561333957600080fd5b6133458782880161329e565b95989497509550505050565b6000806040838503121561336457600080fd5b61336d83612d4f565b946020939093013593505050565b6000806000806000806000806000808a8c0361012081121561339c57600080fd5b8b359a5060208c0135995060408c0135985060608c01356001600160401b038111156133c757600080fd5b6133d38e828f0161329e565b90995097505060808c01356001600160401b038111156133f257600080fd5b6133fe8e828f0161329e565b9097509550506040609f198201121561341657600080fd5b5060a08b01925061342960e08c01612fbd565b91506134386101008c01612fbd565b90509295989b9194979a5092959850565b6000806040838503121561345c57600080fd5b82356001600160401b0381111561347257600080fd5b83016040818603121561348457600080fd5b61348c613127565b81356001600160401b038111156134a257600080fd5b6134ae878285016131c9565b82525060208201356001600160401b038111156134ca57600080fd5b6134d6878285016131c9565b602083015250809350505060208301356001600160401b038111156134fa57600080fd5b613506858286016131c9565b9150509250929050565b80518015158114612d6657600080fd5b600082601f83011261353157600080fd5b81516001600160401b0381111561354a5761354a613111565b8060051b61355a60208201613172565b9182526020818501810192908101908684111561357657600080fd5b6020860192505b8383101561359857825182526020928301929091019061357d565b9695505050505050565b600061010082840312156135b557600080fd5b6135bd61314f565b8251815290506135cf60208301613510565b602082015260408201516001600160401b038111156135ed57600080fd5b6135f984828501613520565b604083015250606082810151908201526080808301519082015261361f60a08301613510565b60a082015260c0828101519082015260e09182015191810191909152919050565b60008082840360a081121561365457600080fd5b83516001600160401b0381111561366a57600080fd5b613676868287016135a2565b9350506080601f198201121561368b57600080fd5b50604051608081016001600160401b03811182821017156136ae576136ae613111565b60409081526020858101518352858201519083015260608086015191830191909152608090940151938101939093525092909150565b6000602082840312156136f657600080fd5b5051919050565b60006020828403121561370f57600080fd5b81516001600160401b0381111561372557600080fd5b61093b848285016135a2565b60008251613743818460208701613029565b9190910192915050565b6000606082840312801561376057600080fd5b50604051600090606081016001600160401b038111828210171561378657613786613111565b604090815284518252602080860151908301529384015193810193909352509092915050565b6000602082840312156137be57600080fd5b610bcd82612fc8565b600082601f8301126137d857600080fd5b6137e26040613172565b8060408401858111156137f457600080fd5b845b81811015612f7b5780518452602093840193016137f6565b600080600080610120858703121561382557600080fd5b84516001600160401b0381111561383b57600080fd5b61384787828801613520565b94505061385786602087016137c7565b925085607f86011261386857600080fd5b604061387381613172565b8060e088018981111561388557600080fd5b606089015b818110156138ab5761389c8b826137c7565b8452602090930192840161388a565b508195506138b98a826137c7565b94505050505092959194509250565b634e487b7160e01b600052603260045260246000fd5b6000602082840312156138f057600080fd5b81516001600160401b0381111561390657600080fd5b8201808403606081121561391957600080fd5b613921613127565b604082121561392f57600080fd5b613937613127565b83518152602080850151908201528152604083015191506001600160401b0382111561396257600080fd5b818301925085601f84011261397657600080fd5b825191506139866131ee836131a2565b82815286602084860101111561399b57600080fd5b6139ac836020830160208701613029565b602082015295945050505050565b600181811c908216806139ce57607f821691505b6020821081036139ee57634e487b7160e01b600052602260045260246000fd5b50919050565b6000808335601e19843603018112613a0b57600080fd5b8301803591506001600160401b03821115613a2557600080fd5b6020019150368190038213156123fb57600080fd5b8183823760009101908152919050565b6040815282604082015282846060830137600060608483018101919091526001600160a01b03929092166020820152601f909201601f191690910101919050565b601f821115611f1c57806000526020600020601f840160051c81016020851015613ab25750805b601f840160051c820191505b81811015611bf45760008155600101613abe565b81516001600160401b03811115613aeb57613aeb613111565b613aff81613af984546139ba565b84613a8b565b6020601f821160018114613b335760008315613b1b5750848201515b600019600385901b1c1916600184901b178455611bf4565b600084815260208120601f198516915b82811015613b635787850151825560209485019460019092019101613b43565b5084821015613b815786840151600019600387901b60f8161c191681555b50505050600190811b01905550565b8060005b600281101561145f578151845260209384019390910190600101613b94565b6102008101613bc28287613b90565b604082018560005b6002811015613bf457613bde838351613b90565b6040929092019160209190910190600101613bca565b505050613c0460c0830185613b90565b61010082018360005b6008811015613c2c578151835260209283019290910190600101613c0d565b50505095945050505050565b600060208284031215613c4a57600080fd5b610bcd82613510565b634e487b7160e01b600052602160045260246000fd5b634e487b7160e01b600052601160045260246000fd5b808201808211156108ff576108ff613c69565b818103818111156108ff576108ff613c69565b80820281158282048414176108ff576108ff613c69565b634e487b7160e01b600052601260045260246000fdfea16a46d94261c7517cc8ff89f61c0ce93598e3c849801011dee649a6a557d100a2646970667358221220f7cb00a75a7c44af8768f0feb3115906164acdfeb2df280684183901c93bfa0b64736f6c634300081b0033",
  "linkReferences": {
    "@iden3/contracts/lib/IdentityLib.sol": {
      "IdentityLib": [
        {
          "length": 20,
          "start": 2230
        },
        {
          "length": 20,
          "start": 2371
        },
        {
          "length": 20,
          "start": 2904
        },
        {
          "length": 20,
          "start": 3139
        },
        {
          "length": 20,
          "start": 3374
        },
        {
          "length": 20,
          "start": 3460
        },
        {
          "length": 20,
          "start": 3569
        },
        {
          "length": 20,
          "start": 3740
        },
        {
          "length": 20,
          "start": 4539
        },
        {
          "length": 20,
          "start": 4734
        },
        {
          "length": 20,
          "start": 5132
        },
        {
          "length": 20,
          "start": 5211
        },
        {
          "length": 20,
          "start": 5318
        },
        {
          "length": 20,
          "start": 5550
        },
        {
          "length": 20,
          "start": 5636
        },
        {
          "length": 20,
          "start": 5741
        },
        {
          "length": 20,
          "start": 7192
        },
        {
          "length": 20,
          "start": 7300
        },
        {
          "length": 20,
          "start": 10645
        },
        {
          "length": 20,
          "start": 10753
        }
      ]
    }
  },
  "deployedLinkReferences": {
    "@iden3/contracts/lib/IdentityLib.sol": {
      "IdentityLib": [
        {
          "length": 20,
          "start": 2013
        },
        {
          "length": 20,
          "start": 2154
        },
        {
          "length": 20,
          "start": 2687
        },
        {
          "length": 20,
          "start": 2922
        },
        {
          "length": 20,
          "start": 3157
        },
        {
          "length": 20,
          "start": 3243
        },
        {
          "length": 20,
          "start": 3352
        },
        {
          "length": 20,
          "start": 3523
        },
        {
          "length": 20,
          "start": 4322
        },
        {
          "length": 20,
          "start": 4517
        },
        {
          "length": 20,
          "start": 4915
        },
        {
          "length": 20,
          "start": 4994
        },
        {
          "length": 20,
          "start": 5101
        },
        {
          "length": 20,
          "start": 5333
        },
        {
          "length": 20,
          "start": 5419
        },
        {
          "length": 20,
          "start": 5524
        },
        {
          "length": 20,
          "start": 6975
        },
        {
          "length": 20,
          "start": 7083
        },
        {
          "length": 20,
          "start": 10428
        },
        {
          "length": 20,
          "start": 10536
        }
      ]
    }
  }
}