{
  "_format": "hh-sol-artifact-1",
  "contractName": "PassportCredentialIssuerImplV1",
  "sourceName": "contracts/verifiers/PassportCredentialIssuerImplV1.sol",
  "abi": [
    {
      "inputs": [],
      "stateMutability": "nonpayable",
      "type": "constructor"
    },
    {
      "inputs": [
        {
          "internalType": "address",
          "name": "target",
          "type": "address"
        }
      ],
      "name": "AddressEmptyCode",
      "type": "error"
    },
    {
      "inputs": [
        {
          "internalType": "uint256",
          "name": "currentDate",
          "type": "uint256"
        }
      ],
      "name": "CurrentDateExpired",
      "type": "error"
    },
    {
      "inputs": [
        {
          "internalType": "address",
          "name": "implementation",
          "type": "address"
        }
      ],
      "name": "ERC1967InvalidImplementation",
      "type": "error"
    },
    {
      "inputs": [],
      "name": "ERC1967NonPayable",
      "type": "error"
    },
    {
      "inputs": [],
      "name": "FailedCall",
      "type": "error"
    },
    {
      "inputs": [],
      "name": "InvalidCredentialProof",
      "type": "error"
    },
    {
      "inputs": [
        {
          "internalType": "uint256",
          "name": "hashIndex",
          "type": "uint256"
        }
      ],
      "name": "InvalidHashIndex",
      "type": "error"
    },
    {
      "inputs": [
        {
          "internalType": "uint256",
          "name": "hashValue",
          "type": "uint256"
        }
      ],
      "name": "InvalidHashValue",
      "type": "error"
    },
    {
      "inputs": [],
      "name": "InvalidInitialization",
      "type": "error"
    },
    {
      "inputs": [
        {
          "internalType": "uint256",
          "name": "linkId1",
          "type": "uint256"
        },
        {
          "internalType": "uint256",
          "name": "linkId2",
          "type": "uint256"
        }
      ],
      "name": "InvalidLinkId",
      "type": "error"
    },
    {
      "inputs": [],
      "name": "InvalidPassportSignatureProof",
      "type": "error"
    },
    {
      "inputs": [
        {
          "internalType": "uint256",
          "name": "length",
          "type": "uint256"
        },
        {
          "internalType": "uint256",
          "name": "expectedLength",
          "type": "uint256"
        }
      ],
      "name": "InvalidResponsesLength",
      "type": "error"
    },
    {
      "inputs": [
        {
          "internalType": "address",
          "name": "signer",
          "type": "address"
        }
      ],
      "name": "InvalidSignerPassportSignatureProof",
      "type": "error"
    },
    {
      "inputs": [
        {
          "internalType": "uint256",
          "name": "templateRoot",
          "type": "uint256"
        },
        {
          "internalType": "uint256",
          "name": "expectedTemplateRoot",
          "type": "uint256"
        }
      ],
      "name": "InvalidTemplateRoot",
      "type": "error"
    },
    {
      "inputs": [
        {
          "internalType": "address",
          "name": "transactor",
          "type": "address"
        }
      ],
      "name": "InvalidTransactor",
      "type": "error"
    },
    {
      "inputs": [
        {
          "internalType": "uint256",
          "name": "issuanceDate",
          "type": "uint256"
        }
      ],
      "name": "IssuanceDateExpired",
      "type": "error"
    },
    {
      "inputs": [
        {
          "internalType": "uint256",
          "name": "length1",
          "type": "uint256"
        },
        {
          "internalType": "uint256",
          "name": "length2",
          "type": "uint256"
        }
      ],
      "name": "LengthMismatch",
      "type": "error"
    },
    {
      "inputs": [
        {
          "internalType": "uint256",
          "name": "requestId",
          "type": "uint256"
        }
      ],
      "name": "NoCredentialCircuitForRequestId",
      "type": "error"
    },
    {
      "inputs": [],
      "name": "NoVerifierSet",
      "type": "error"
    },
    {
      "inputs": [],
      "name": "NotInitializing",
      "type": "error"
    },
    {
      "inputs": [
        {
          "internalType": "uint256",
          "name": "nullifier",
          "type": "uint256"
        }
      ],
      "name": "NullifierAlreadyExists",
      "type": "error"
    },
    {
      "inputs": [
        {
          "internalType": "address",
          "name": "owner",
          "type": "address"
        }
      ],
      "name": "OwnableInvalidOwner",
      "type": "error"
    },
    {
      "inputs": [
        {
          "internalType": "address",
          "name": "account",
          "type": "address"
        }
      ],
      "name": "OwnableUnauthorizedAccount",
      "type": "error"
    },
    {
      "inputs": [],
      "name": "UUPSUnauthorizedCallContext",
      "type": "error"
    },
    {
      "inputs": [
        {
          "internalType": "bytes32",
          "name": "slot",
          "type": "bytes32"
        }
      ],
      "name": "UUPSUnsupportedProxiableUUID",
      "type": "error"
    },
    {
      "anonymous": false,
      "inputs": [
        {
          "indexed": false,
          "internalType": "string",
          "name": "circuitId",
          "type": "string"
        },
        {
          "indexed": false,
          "internalType": "address",
          "name": "verifier",
          "type": "address"
        },
        {
          "indexed": false,
          "internalType": "uint256",
          "name": "requestId",
          "type": "uint256"
        }
      ],
      "name": "CredentialCircuitVerifierUpdated",
      "type": "event"
    },
    {
      "anonymous": false,
      "inputs": [],
      "name": "EIP712DomainChanged",
      "type": "event"
    },
    {
      "anonymous": false,
      "inputs": [
        {
          "indexed": false,
          "internalType": "uint256",
          "name": "expirationTime",
          "type": "uint256"
        }
      ],
      "name": "ExpirationTimeUpdated",
      "type": "event"
    },
    {
      "anonymous": false,
      "inputs": [
        {
          "indexed": false,
          "internalType": "uint64",
          "name": "version",
          "type": "uint64"
        }
      ],
      "name": "Initialized",
      "type": "event"
    },
    {
      "anonymous": false,
      "inputs": [
        {
          "indexed": true,
          "internalType": "address",
          "name": "previousOwner",
          "type": "address"
        },
        {
          "indexed": true,
          "internalType": "address",
          "name": "newOwner",
          "type": "address"
        }
      ],
      "name": "OwnershipTransferStarted",
      "type": "event"
    },
    {
      "anonymous": false,
      "inputs": [
        {
          "indexed": true,
          "internalType": "address",
          "name": "previousOwner",
          "type": "address"
        },
        {
          "indexed": true,
          "internalType": "address",
          "name": "newOwner",
          "type": "address"
        }
      ],
      "name": "OwnershipTransferred",
      "type": "event"
    },
    {
      "anonymous": false,
      "inputs": [
        {
          "indexed": false,
          "internalType": "address",
          "name": "signer",
          "type": "address"
        }
      ],
      "name": "SignerAdded",
      "type": "event"
    },
    {
      "anonymous": false,
      "inputs": [
        {
          "indexed": false,
          "internalType": "uint256",
          "name": "tampletRoot",
          "type": "uint256"
        }
      ],
      "name": "TemplateRootUpdated",
      "type": "event"
    },
    {
      "anonymous": false,
      "inputs": [
        {
          "indexed": false,
          "internalType": "address",
          "name": "transactor",
          "type": "address"
        }
      ],
      "name": "TransactorAdded",
      "type": "event"
    },
    {
      "anonymous": false,
      "inputs": [
        {
          "indexed": true,
          "internalType": "address",
          "name": "implementation",
          "type": "address"
        }
      ],
      "name": "Upgraded",
      "type": "event"
    },
    {
      "inputs": [],
      "name": "DOMAIN_VERSION",
      "outputs": [
        {
          "internalType": "string",
          "name": "",
          "type": "string"
        }
      ],
      "stateMutability": "view",
      "type": "function"
    },
    {
      "inputs": [],
      "name": "PASSPORT_CREDENTIAL_MESSAGE_TYPEHASH",
      "outputs": [
        {
          "internalType": "bytes32",
          "name": "",
          "type": "bytes32"
        }
      ],
      "stateMutability": "view",
      "type": "function"
    },
    {
      "inputs": [],
      "name": "UPGRADE_INTERFACE_VERSION",
      "outputs": [
        {
          "internalType": "string",
          "name": "",
          "type": "string"
        }
      ],
      "stateMutability": "view",
      "type": "function"
    },
    {
      "inputs": [],
      "name": "VERSION",
      "outputs": [
        {
          "internalType": "string",
          "name": "",
          "type": "string"
        }
      ],
      "stateMutability": "view",
      "type": "function"
    },
    {
      "inputs": [],
      "name": "acceptOwnership",
      "outputs": [],
      "stateMutability": "nonpayable",
      "type": "function"
    },
    {
      "inputs": [
        {
          "internalType": "bytes32",
          "name": "imageHash",
          "type": "bytes32"
        }
      ],
      "name": "addImageHashToWhitelist",
      "outputs": [],
      "stateMutability": "nonpayable",
      "type": "function"
    },
    {
      "inputs": [
        {
          "internalType": "address",
          "name": "signer",
          "type": "address"
        }
      ],
      "name": "addSigner",
      "outputs": [],
      "stateMutability": "nonpayable",
      "type": "function"
    },
    {
      "inputs": [
        {
          "internalType": "address",
          "name": "transactor",
          "type": "address"
        }
      ],
      "name": "addTransactor",
      "outputs": [],
      "stateMutability": "nonpayable",
      "type": "function"
    },
    {
      "inputs": [
        {
          "internalType": "uint256",
          "name": "nullifier",
          "type": "uint256"
        }
      ],
      "name": "cleanNullifier",
      "outputs": [],
      "stateMutability": "nonpayable",
      "type": "function"
    },
    {
      "inputs": [
        {
          "internalType": "string",
          "name": "circuitId",
          "type": "string"
        }
      ],
      "name": "credentialCircuitIdToRequestIds",
      "outputs": [
        {
          "internalType": "uint256",
          "name": "",
          "type": "uint256"
        }
      ],
      "stateMutability": "view",
      "type": "function"
    },
    {
      "inputs": [
        {
          "internalType": "uint256",
          "name": "requestId",
          "type": "uint256"
        }
      ],
      "name": "credentialRequestIdToCircuitIds",
      "outputs": [
        {
          "internalType": "string",
          "name": "",
          "type": "string"
        }
      ],
      "stateMutability": "view",
      "type": "function"
    },
    {
      "inputs": [
        {
          "internalType": "string",
          "name": "circuitId",
          "type": "string"
        }
      ],
      "name": "credentialVerifiers",
      "outputs": [
        {
          "internalType": "address",
          "name": "",
          "type": "address"
        }
      ],
      "stateMutability": "view",
      "type": "function"
    },
    {
      "inputs": [],
      "name": "eip712Domain",
      "outputs": [
        {
          "internalType": "bytes1",
          "name": "fields",
          "type": "bytes1"
        },
        {
          "internalType": "string",
          "name": "name",
          "type": "string"
        },
        {
          "internalType": "string",
          "name": "version",
          "type": "string"
        },
        {
          "internalType": "uint256",
          "name": "chainId",
          "type": "uint256"
        },
        {
          "internalType": "address",
          "name": "verifyingContract",
          "type": "address"
        },
        {
          "internalType": "bytes32",
          "name": "salt",
          "type": "bytes32"
        },
        {
          "internalType": "uint256[]",
          "name": "extensions",
          "type": "uint256[]"
        }
      ],
      "stateMutability": "view",
      "type": "function"
    },
    {
      "inputs": [
        {
          "internalType": "uint256",
          "name": "claimIndexHash",
          "type": "uint256"
        }
      ],
      "name": "getClaimProof",
      "outputs": [
        {
          "components": [
            {
              "internalType": "uint256",
              "name": "root",
              "type": "uint256"
            },
            {
              "internalType": "bool",
              "name": "existence",
              "type": "bool"
            },
            {
              "internalType": "uint256[]",
              "name": "siblings",
              "type": "uint256[]"
            },
            {
              "internalType": "uint256",
              "name": "index",
              "type": "uint256"
            },
            {
              "internalType": "uint256",
              "name": "value",
              "type": "uint256"
            },
            {
              "internalType": "bool",
              "name": "auxExistence",
              "type": "bool"
            },
            {
              "internalType": "uint256",
              "name": "auxIndex",
              "type": "uint256"
            },
            {
              "internalType": "uint256",
              "name": "auxValue",
              "type": "uint256"
            }
          ],
          "internalType": "struct SmtLib.Proof",
          "name": "",
          "type": "tuple"
        }
      ],
      "stateMutability": "view",
      "type": "function"
    },
    {
      "inputs": [
        {
          "internalType": "uint256",
          "name": "claimIndexHash",
          "type": "uint256"
        },
        {
          "internalType": "uint256",
          "name": "root",
          "type": "uint256"
        }
      ],
      "name": "getClaimProofByRoot",
      "outputs": [
        {
          "components": [
            {
              "internalType": "uint256",
              "name": "root",
              "type": "uint256"
            },
            {
              "internalType": "bool",
              "name": "existence",
              "type": "bool"
            },
            {
              "internalType": "uint256[]",
              "name": "siblings",
              "type": "uint256[]"
            },
            {
              "internalType": "uint256",
              "name": "index",
              "type": "uint256"
            },
            {
              "internalType": "uint256",
              "name": "value",
              "type": "uint256"
            },
            {
              "internalType": "bool",
              "name": "auxExistence",
              "type": "bool"
            },
            {
              "internalType": "uint256",
              "name": "auxIndex",
              "type": "uint256"
            },
            {
              "internalType": "uint256",
              "name": "auxValue",
              "type": "uint256"
            }
          ],
          "internalType": "struct SmtLib.Proof",
          "name": "",
          "type": "tuple"
        }
      ],
      "stateMutability": "view",
      "type": "function"
    },
    {
      "inputs": [
        {
          "internalType": "uint256",
          "name": "claimIndexHash",
          "type": "uint256"
        }
      ],
      "name": "getClaimProofWithStateInfo",
      "outputs": [
        {
          "components": [
            {
              "internalType": "uint256",
              "name": "root",
              "type": "uint256"
            },
            {
              "internalType": "bool",
              "name": "existence",
              "type": "bool"
            },
            {
              "internalType": "uint256[]",
              "name": "siblings",
              "type": "uint256[]"
            },
            {
              "internalType": "uint256",
              "name": "index",
              "type": "uint256"
            },
            {
              "internalType": "uint256",
              "name": "value",
              "type": "uint256"
            },
            {
              "internalType": "bool",
              "name": "auxExistence",
              "type": "bool"
            },
            {
              "internalType": "uint256",
              "name": "auxIndex",
              "type": "uint256"
            },
            {
              "internalType": "uint256",
              "name": "auxValue",
              "type": "uint256"
            }
          ],
          "internalType": "struct SmtLib.Proof",
          "name": "",
          "type": "tuple"
        },
        {
          "components": [
            {
              "internalType": "uint256",
              "name": "state",
              "type": "uint256"
            },
            {
              "internalType": "uint256",
              "name": "claimsRoot",
              "type": "uint256"
            },
            {
              "internalType": "uint256",
              "name": "revocationsRoot",
              "type": "uint256"
            },
            {
              "internalType": "uint256",
              "name": "rootsRoot",
              "type": "uint256"
            }
          ],
          "internalType": "struct IdentityLib.StateInfo",
          "name": "",
          "type": "tuple"
        }
      ],
      "stateMutability": "view",
      "type": "function"
    },
    {
      "inputs": [],
      "name": "getClaimsTreeRoot",
      "outputs": [
        {
          "internalType": "uint256",
          "name": "",
          "type": "uint256"
        }
      ],
      "stateMutability": "view",
      "type": "function"
    },
    {
      "inputs": [],
      "name": "getExpirationTime",
      "outputs": [
        {
          "internalType": "uint256",
          "name": "",
          "type": "uint256"
        }
      ],
      "stateMutability": "view",
      "type": "function"
    },
    {
      "inputs": [],
      "name": "getId",
      "outputs": [
        {
          "internalType": "uint256",
          "name": "",
          "type": "uint256"
        }
      ],
      "stateMutability": "view",
      "type": "function"
    },
    {
      "inputs": [],
      "name": "getIsOldStateGenesis",
      "outputs": [
        {
          "internalType": "bool",
          "name": "",
          "type": "bool"
        }
      ],
      "stateMutability": "view",
      "type": "function"
    },
    {
      "inputs": [],
      "name": "getLatestPublishedClaimsRoot",
      "outputs": [
        {
          "internalType": "uint256",
          "name": "",
          "type": "uint256"
        }
      ],
      "stateMutability": "view",
      "type": "function"
    },
    {
      "inputs": [],
      "name": "getLatestPublishedRevocationsRoot",
      "outputs": [
        {
          "internalType": "uint256",
          "name": "",
          "type": "uint256"
        }
      ],
      "stateMutability": "view",
      "type": "function"
    },
    {
      "inputs": [],
      "name": "getLatestPublishedRootsRoot",
      "outputs": [
        {
          "internalType": "uint256",
          "name": "",
          "type": "uint256"
        }
      ],
      "stateMutability": "view",
      "type": "function"
    },
    {
      "inputs": [],
      "name": "getLatestPublishedState",
      "outputs": [
        {
          "internalType": "uint256",
          "name": "",
          "type": "uint256"
        }
      ],
      "stateMutability": "view",
      "type": "function"
    },
    {
      "inputs": [
        {
          "internalType": "uint64",
          "name": "revocationNonce",
          "type": "uint64"
        }
      ],
      "name": "getRevocationProof",
      "outputs": [
        {
          "components": [
            {
              "internalType": "uint256",
              "name": "root",
              "type": "uint256"
            },
            {
              "internalType": "bool",
              "name": "existence",
              "type": "bool"
            },
            {
              "internalType": "uint256[]",
              "name": "siblings",
              "type": "uint256[]"
            },
            {
              "internalType": "uint256",
              "name": "index",
              "type": "uint256"
            },
            {
              "internalType": "uint256",
              "name": "value",
              "type": "uint256"
            },
            {
              "internalType": "bool",
              "name": "auxExistence",
              "type": "bool"
            },
            {
              "internalType": "uint256",
              "name": "auxIndex",
              "type": "uint256"
            },
            {
              "internalType": "uint256",
              "name": "auxValue",
              "type": "uint256"
            }
          ],
          "internalType": "struct SmtLib.Proof",
          "name": "",
          "type": "tuple"
        }
      ],
      "stateMutability": "view",
      "type": "function"
    },
    {
      "inputs": [
        {
          "internalType": "uint64",
          "name": "revocationNonce",
          "type": "uint64"
        },
        {
          "internalType": "uint256",
          "name": "root",
          "type": "uint256"
        }
      ],
      "name": "getRevocationProofByRoot",
      "outputs": [
        {
          "components": [
            {
              "internalType": "uint256",
              "name": "root",
              "type": "uint256"
            },
            {
              "internalType": "bool",
              "name": "existence",
              "type": "bool"
            },
            {
              "internalType": "uint256[]",
              "name": "siblings",
              "type": "uint256[]"
            },
            {
              "internalType": "uint256",
              "name": "index",
              "type": "uint256"
            },
            {
              "internalType": "uint256",
              "name": "value",
              "type": "uint256"
            },
            {
              "internalType": "bool",
              "name": "auxExistence",
              "type": "bool"
            },
            {
              "internalType": "uint256",
              "name": "auxIndex",
              "type": "uint256"
            },
            {
              "internalType": "uint256",
              "name": "auxValue",
              "type": "uint256"
            }
          ],
          "internalType": "struct SmtLib.Proof",
          "name": "",
          "type": "tuple"
        }
      ],
      "stateMutability": "view",
      "type": "function"
    },
    {
      "inputs": [
        {
          "internalType": "uint64",
          "name": "revocationNonce",
          "type": "uint64"
        }
      ],
      "name": "getRevocationProofWithStateInfo",
      "outputs": [
        {
          "components": [
            {
              "internalType": "uint256",
              "name": "root",
              "type": "uint256"
            },
            {
              "internalType": "bool",
              "name": "existence",
              "type": "bool"
            },
            {
              "internalType": "uint256[]",
              "name": "siblings",
              "type": "uint256[]"
            },
            {
              "internalType": "uint256",
              "name": "index",
              "type": "uint256"
            },
            {
              "internalType": "uint256",
              "name": "value",
              "type": "uint256"
            },
            {
              "internalType": "bool",
              "name": "auxExistence",
              "type": "bool"
            },
            {
              "internalType": "uint256",
              "name": "auxIndex",
              "type": "uint256"
            },
            {
              "internalType": "uint256",
              "name": "auxValue",
              "type": "uint256"
            }
          ],
          "internalType": "struct SmtLib.Proof",
          "name": "",
          "type": "tuple"
        },
        {
          "components": [
            {
              "internalType": "uint256",
              "name": "state",
              "type": "uint256"
            },
            {
              "internalType": "uint256",
              "name": "claimsRoot",
              "type": "uint256"
            },
            {
              "internalType": "uint256",
              "name": "revocationsRoot",
              "type": "uint256"
            },
            {
              "internalType": "uint256",
              "name": "rootsRoot",
              "type": "uint256"
            }
          ],
          "internalType": "struct IdentityLib.StateInfo",
          "name": "",
          "type": "tuple"
        }
      ],
      "stateMutability": "view",
      "type": "function"
    },
    {
      "inputs": [
        {
          "internalType": "uint256",
          "name": "id",
          "type": "uint256"
        },
        {
          "internalType": "uint64",
          "name": "nonce",
          "type": "uint64"
        }
      ],
      "name": "getRevocationStatus",
      "outputs": [
        {
          "components": [
            {
              "components": [
                {
                  "internalType": "uint256",
                  "name": "state",
                  "type": "uint256"
                },
                {
                  "internalType": "uint256",
                  "name": "claimsTreeRoot",
                  "type": "uint256"
                },
                {
                  "internalType": "uint256",
                  "name": "revocationTreeRoot",
                  "type": "uint256"
                },
                {
                  "internalType": "uint256",
                  "name": "rootOfRoots",
                  "type": "uint256"
                }
              ],
              "internalType": "struct IOnchainCredentialStatusResolver.IdentityStateRoots",
              "name": "issuer",
              "type": "tuple"
            },
            {
              "components": [
                {
                  "internalType": "uint256",
                  "name": "root",
                  "type": "uint256"
                },
                {
                  "internalType": "bool",
                  "name": "existence",
                  "type": "bool"
                },
                {
                  "internalType": "uint256[]",
                  "name": "siblings",
                  "type": "uint256[]"
                },
                {
                  "internalType": "uint256",
                  "name": "index",
                  "type": "uint256"
                },
                {
                  "internalType": "uint256",
                  "name": "value",
                  "type": "uint256"
                },
                {
                  "internalType": "bool",
                  "name": "auxExistence",
                  "type": "bool"
                },
                {
                  "internalType": "uint256",
                  "name": "auxIndex",
                  "type": "uint256"
                },
                {
                  "internalType": "uint256",
                  "name": "auxValue",
                  "type": "uint256"
                }
              ],
              "internalType": "struct IOnchainCredentialStatusResolver.Proof",
              "name": "mtp",
              "type": "tuple"
            }
          ],
          "internalType": "struct IOnchainCredentialStatusResolver.CredentialStatus",
          "name": "",
          "type": "tuple"
        }
      ],
      "stateMutability": "view",
      "type": "function"
    },
    {
      "inputs": [
        {
          "internalType": "uint256",
          "name": "id",
          "type": "uint256"
        },
        {
          "internalType": "uint256",
          "name": "state",
          "type": "uint256"
        },
        {
          "internalType": "uint64",
          "name": "nonce",
          "type": "uint64"
        }
      ],
      "name": "getRevocationStatusByIdAndState",
      "outputs": [
        {
          "components": [
            {
              "components": [
                {
                  "internalType": "uint256",
                  "name": "state",
                  "type": "uint256"
                },
                {
                  "internalType": "uint256",
                  "name": "claimsTreeRoot",
                  "type": "uint256"
                },
                {
                  "internalType": "uint256",
                  "name": "revocationTreeRoot",
                  "type": "uint256"
                },
                {
                  "internalType": "uint256",
                  "name": "rootOfRoots",
                  "type": "uint256"
                }
              ],
              "internalType": "struct IOnchainCredentialStatusResolver.IdentityStateRoots",
              "name": "issuer",
              "type": "tuple"
            },
            {
              "components": [
                {
                  "internalType": "uint256",
                  "name": "root",
                  "type": "uint256"
                },
                {
                  "internalType": "bool",
                  "name": "existence",
                  "type": "bool"
                },
                {
                  "internalType": "uint256[]",
                  "name": "siblings",
                  "type": "uint256[]"
                },
                {
                  "internalType": "uint256",
                  "name": "index",
                  "type": "uint256"
                },
                {
                  "internalType": "uint256",
                  "name": "value",
                  "type": "uint256"
                },
                {
                  "internalType": "bool",
                  "name": "auxExistence",
                  "type": "bool"
                },
                {
                  "internalType": "uint256",
                  "name": "auxIndex",
                  "type": "uint256"
                },
                {
                  "internalType": "uint256",
                  "name": "auxValue",
                  "type": "uint256"
                }
              ],
              "internalType": "struct IOnchainCredentialStatusResolver.Proof",
              "name": "mtp",
              "type": "tuple"
            }
          ],
          "internalType": "struct IOnchainCredentialStatusResolver.CredentialStatus",
          "name": "",
          "type": "tuple"
        }
      ],
      "stateMutability": "view",
      "type": "function"
    },
    {
      "inputs": [],
      "name": "getRevocationsTreeRoot",
      "outputs": [
        {
          "internalType": "uint256",
          "name": "",
          "type": "uint256"
        }
      ],
      "stateMutability": "view",
      "type": "function"
    },
    {
      "inputs": [
        {
          "internalType": "uint256",
          "name": "rootsTreeRoot",
          "type": "uint256"
        }
      ],
      "name": "getRootProof",
      "outputs": [
        {
          "components": [
            {
              "internalType": "uint256",
              "name": "root",
              "type": "uint256"
            },
            {
              "internalType": "bool",
              "name": "existence",
              "type": "bool"
            },
            {
              "internalType": "uint256[]",
              "name": "siblings",
              "type": "uint256[]"
            },
            {
              "internalType": "uint256",
              "name": "index",
              "type": "uint256"
            },
            {
              "internalType": "uint256",
              "name": "value",
              "type": "uint256"
            },
            {
              "internalType": "bool",
              "name": "auxExistence",
              "type": "bool"
            },
            {
              "internalType": "uint256",
              "name": "auxIndex",
              "type": "uint256"
            },
            {
              "internalType": "uint256",
              "name": "auxValue",
              "type": "uint256"
            }
          ],
          "internalType": "struct SmtLib.Proof",
          "name": "",
          "type": "tuple"
        }
      ],
      "stateMutability": "view",
      "type": "function"
    },
    {
      "inputs": [
        {
          "internalType": "uint256",
          "name": "claimsTreeRoot",
          "type": "uint256"
        },
        {
          "internalType": "uint256",
          "name": "root",
          "type": "uint256"
        }
      ],
      "name": "getRootProofByRoot",
      "outputs": [
        {
          "components": [
            {
              "internalType": "uint256",
              "name": "root",
              "type": "uint256"
            },
            {
              "internalType": "bool",
              "name": "existence",
              "type": "bool"
            },
            {
              "internalType": "uint256[]",
              "name": "siblings",
              "type": "uint256[]"
            },
            {
              "internalType": "uint256",
              "name": "index",
              "type": "uint256"
            },
            {
              "internalType": "uint256",
              "name": "value",
              "type": "uint256"
            },
            {
              "internalType": "bool",
              "name": "auxExistence",
              "type": "bool"
            },
            {
              "internalType": "uint256",
              "name": "auxIndex",
              "type": "uint256"
            },
            {
              "internalType": "uint256",
              "name": "auxValue",
              "type": "uint256"
            }
          ],
          "internalType": "struct SmtLib.Proof",
          "name": "",
          "type": "tuple"
        }
      ],
      "stateMutability": "view",
      "type": "function"
    },
    {
      "inputs": [
        {
          "internalType": "uint256",
          "name": "rootsTreeRoot",
          "type": "uint256"
        }
      ],
      "name": "getRootProofWithStateInfo",
      "outputs": [
        {
          "components": [
            {
              "internalType": "uint256",
              "name": "root",
              "type": "uint256"
            },
            {
              "internalType": "bool",
              "name": "existence",
              "type": "bool"
            },
            {
              "internalType": "uint256[]",
              "name": "siblings",
              "type": "uint256[]"
            },
            {
              "internalType": "uint256",
              "name": "index",
              "type": "uint256"
            },
            {
              "internalType": "uint256",
              "name": "value",
              "type": "uint256"
            },
            {
              "internalType": "bool",
              "name": "auxExistence",
              "type": "bool"
            },
            {
              "internalType": "uint256",
              "name": "auxIndex",
              "type": "uint256"
            },
            {
              "internalType": "uint256",
              "name": "auxValue",
              "type": "uint256"
            }
          ],
          "internalType": "struct SmtLib.Proof",
          "name": "",
          "type": "tuple"
        },
        {
          "components": [
            {
              "internalType": "uint256",
              "name": "state",
              "type": "uint256"
            },
            {
              "internalType": "uint256",
              "name": "claimsRoot",
              "type": "uint256"
            },
            {
              "internalType": "uint256",
              "name": "revocationsRoot",
              "type": "uint256"
            },
            {
              "internalType": "uint256",
              "name": "rootsRoot",
              "type": "uint256"
            }
          ],
          "internalType": "struct IdentityLib.StateInfo",
          "name": "",
          "type": "tuple"
        }
      ],
      "stateMutability": "view",
      "type": "function"
    },
    {
      "inputs": [
        {
          "internalType": "uint256",
          "name": "state",
          "type": "uint256"
        }
      ],
      "name": "getRootsByState",
      "outputs": [
        {
          "components": [
            {
              "internalType": "uint256",
              "name": "claimsRoot",
              "type": "uint256"
            },
            {
              "internalType": "uint256",
              "name": "revocationsRoot",
              "type": "uint256"
            },
            {
              "internalType": "uint256",
              "name": "rootsRoot",
              "type": "uint256"
            }
          ],
          "internalType": "struct IdentityLib.Roots",
          "name": "",
          "type": "tuple"
        }
      ],
      "stateMutability": "view",
      "type": "function"
    },
    {
      "inputs": [],
      "name": "getRootsTreeRoot",
      "outputs": [
        {
          "internalType": "uint256",
          "name": "",
          "type": "uint256"
        }
      ],
      "stateMutability": "view",
      "type": "function"
    },
    {
      "inputs": [],
      "name": "getSigners",
      "outputs": [
        {
          "internalType": "address[]",
          "name": "",
          "type": "address[]"
        }
      ],
      "stateMutability": "view",
      "type": "function"
    },
    {
      "inputs": [],
      "name": "getSmtDepth",
      "outputs": [
        {
          "internalType": "uint256",
          "name": "",
          "type": "uint256"
        }
      ],
      "stateMutability": "pure",
      "type": "function"
    },
    {
      "inputs": [],
      "name": "getTemplateRoot",
      "outputs": [
        {
          "internalType": "uint256",
          "name": "",
          "type": "uint256"
        }
      ],
      "stateMutability": "view",
      "type": "function"
    },
    {
      "inputs": [],
      "name": "getTransactors",
      "outputs": [
        {
          "internalType": "address[]",
          "name": "",
          "type": "address[]"
        }
      ],
      "stateMutability": "view",
      "type": "function"
    },
    {
      "inputs": [
        {
          "internalType": "address",
          "name": "_stateContractAddr",
          "type": "address"
        },
        {
          "internalType": "bytes2",
          "name": "idType",
          "type": "bytes2"
        }
      ],
      "name": "initialize",
      "outputs": [],
      "stateMutability": "nonpayable",
      "type": "function"
    },
    {
      "inputs": [
        {
          "internalType": "uint256",
          "name": "expirationTime",
          "type": "uint256"
        },
        {
          "internalType": "uint256",
          "name": "templateRoot",
          "type": "uint256"
        },
        {
          "internalType": "string[]",
          "name": "credentialCircuitIds",
          "type": "string[]"
        },
        {
          "internalType": "address[]",
          "name": "credentialVerifierAddresses",
          "type": "address[]"
        },
        {
          "internalType": "address",
          "name": "stateAddress",
          "type": "address"
        },
        {
          "internalType": "bytes2",
          "name": "idType",
          "type": "bytes2"
        }
      ],
      "name": "initializeIssuer",
      "outputs": [],
      "stateMutability": "nonpayable",
      "type": "function"
    },
    {
      "inputs": [
        {
          "internalType": "bytes32",
          "name": "imageHash",
          "type": "bytes32"
        }
      ],
      "name": "isWhitelistedImageHash",
      "outputs": [
        {
          "internalType": "bool",
          "name": "",
          "type": "bool"
        }
      ],
      "stateMutability": "view",
      "type": "function"
    },
    {
      "inputs": [
        {
          "internalType": "uint256",
          "name": "nullifier",
          "type": "uint256"
        }
      ],
      "name": "nullifierExists",
      "outputs": [
        {
          "internalType": "bool",
          "name": "",
          "type": "bool"
        }
      ],
      "stateMutability": "view",
      "type": "function"
    },
    {
      "inputs": [],
      "name": "owner",
      "outputs": [
        {
          "internalType": "address",
          "name": "",
          "type": "address"
        }
      ],
      "stateMutability": "view",
      "type": "function"
    },
    {
      "inputs": [],
      "name": "pendingOwner",
      "outputs": [
        {
          "internalType": "address",
          "name": "",
          "type": "address"
        }
      ],
      "stateMutability": "view",
      "type": "function"
    },
    {
      "inputs": [],
      "name": "proxiableUUID",
      "outputs": [
        {
          "internalType": "bytes32",
          "name": "",
          "type": "bytes32"
        }
      ],
      "stateMutability": "view",
      "type": "function"
    },
    {
      "inputs": [
        {
          "internalType": "bytes32",
          "name": "imageHash",
          "type": "bytes32"
        }
      ],
      "name": "removeImageHashFromWhitelist",
      "outputs": [],
      "stateMutability": "nonpayable",
      "type": "function"
    },
    {
      "inputs": [],
      "name": "renounceOwnership",
      "outputs": [],
      "stateMutability": "nonpayable",
      "type": "function"
    },
    {
      "inputs": [
        {
          "internalType": "contract IAttestationValidator",
          "name": "validator",
          "type": "address"
        }
      ],
      "name": "setAttestationValidator",
      "outputs": [],
      "stateMutability": "nonpayable",
      "type": "function"
    },
    {
      "inputs": [
        {
          "internalType": "uint256",
          "name": "expirationTime",
          "type": "uint256"
        }
      ],
      "name": "setExpirationTime",
      "outputs": [],
      "stateMutability": "nonpayable",
      "type": "function"
    },
    {
      "inputs": [
        {
          "internalType": "uint256",
          "name": "templateRoot",
          "type": "uint256"
        }
      ],
      "name": "setTemplateRoot",
      "outputs": [],
      "stateMutability": "nonpayable",
      "type": "function"
    },
    {
      "inputs": [
        {
          "components": [
            {
              "internalType": "uint64",
              "name": "requestId",
              "type": "uint64"
            },
            {
              "internalType": "bytes",
              "name": "zkProof",
              "type": "bytes"
            },
            {
              "internalType": "bytes",
              "name": "data",
              "type": "bytes"
            }
          ],
          "internalType": "struct IZKPVerifier.ZKPResponse[]",
          "name": "responses",
          "type": "tuple[]"
        },
        {
          "internalType": "bytes",
          "name": "crossChainProofs",
          "type": "bytes"
        }
      ],
      "name": "submitZKPResponseV2",
      "outputs": [],
      "stateMutability": "nonpayable",
      "type": "function"
    },
    {
      "inputs": [
        {
          "internalType": "bytes4",
          "name": "interfaceId",
          "type": "bytes4"
        }
      ],
      "name": "supportsInterface",
      "outputs": [
        {
          "internalType": "bool",
          "name": "",
          "type": "bool"
        }
      ],
      "stateMutability": "view",
      "type": "function"
    },
    {
      "inputs": [
        {
          "internalType": "address",
          "name": "newOwner",
          "type": "address"
        }
      ],
      "name": "transferOwnership",
      "outputs": [],
      "stateMutability": "nonpayable",
      "type": "function"
    },
    {
      "inputs": [
        {
          "internalType": "string[]",
          "name": "circuitIds",
          "type": "string[]"
        },
        {
          "internalType": "address[]",
          "name": "verifierAddresses",
          "type": "address[]"
        }
      ],
      "name": "updateCredentialVerifiers",
      "outputs": [],
      "stateMutability": "nonpayable",
      "type": "function"
    },
    {
      "inputs": [
        {
          "internalType": "address",
          "name": "newImplementation",
          "type": "address"
        },
        {
          "internalType": "bytes",
          "name": "data",
          "type": "bytes"
        }
      ],
      "name": "upgradeToAndCall",
      "outputs": [],
      "stateMutability": "payable",
      "type": "function"
    }
  ],
  "bytecode": "0x60a06040523060805234801561001457600080fd5b5061001d610022565b6100d4565b7ff0c57e16840df040f15088dc2f81fe391c3923bec73e23a9662efc9c229c6a00805468010000000000000000900460ff16156100725760405163f92ee8a960e01b815260040160405180910390fd5b80546001600160401b03908116146100d15780546001600160401b0319166001600160401b0390811782556040519081527fc7f505b2f371ae2175ee4913f4499e1f2633a7b5936321eed1cdaeb6115181d29060200160405180910390a15b50565b6080516145286100fd600039600081816121c6015281816121ef01526123ec01526145286000f3fe60806040526004361061036a5760003560e01c806394cf795e116101c6578063c6365a3b116100f7578063e26ecb0b11610095578063f2fde38b1161006f578063f2fde38b146109fe578063f84c7c1e14610a1e578063fa78d88c14610a33578063ffa1ad7414610a5357600080fd5b8063e26ecb0b146109a9578063e30c3978146109c9578063eb12d61e146109de57600080fd5b8063d94b0271116100d1578063d94b02711461092b578063da68a0b11461094b578063da93654014610960578063e23a845a1461099457600080fd5b8063c6365a3b146108d6578063cfa350c8146108eb578063d622ea6e1461090b57600080fd5b8063b354c2d811610164578063b8db68711161013e578063b8db687114610834578063badf055d14610876578063c0cc365d14610896578063c1e32733146108b657600080fd5b8063b354c2d8146107d4578063b37feda4146107f4578063b57a40cb1461081457600080fd5b8063aad72921116101a0578063aad7292114610725578063acb8cc4914610745578063ad3cb1cc14610783578063ade09fcd146107b457600080fd5b806394cf795e146106db5780639674cfa4146106f0578063a635c7851461070557600080fd5b8063406e8b4c116102a057806370f4f9df1161023e57806384b0196e1161021857806384b0196e146106465780638a03c1661461066e5780638a6845531461068e5780638da5cb5b146106ae57600080fd5b806370f4f9df146105fc578063715018a61461061c57806379ba50971461063157600080fd5b80634f1ef2861161027a5780634f1ef286146105aa578063523b8136146105bd57806352d1902d146105d25780635d1ca631146105e757600080fd5b8063406e8b4c1461054a57806342d4ef0f1461056a578063443d75341461058a57600080fd5b80632c1d32041161030d578063310d0d5b116102e7578063310d0d5b146104ec5780633d59ec601461050c5780633df432fc146105215780633f0c66481461053657600080fd5b80632c1d3204146104955780632d26b309146104aa5780632d5c4f25146104cc57600080fd5b8063110c96a711610349578063110c96a7146103f957806323aafe3b1461042657806326485063146104485780632afab62f1461047557600080fd5b806233058d1461036f57806301c85c77146103a657806301ffc9a7146103c9575b600080fd5b34801561037b57600080fd5b5061038f61038a36600461333a565b610a84565b60405161039d9291906133f7565b60405180910390f35b3480156103b257600080fd5b506103bb610b51565b60405190815260200161039d565b3480156103d557600080fd5b506103e96103e436600461343a565b610bd6565b604051901515815260200161039d565b34801561040557600080fd5b50610419610414366004613464565b610c0d565b60405161039d9190613490565b34801561043257600080fd5b506104466104413660046134dd565b610c38565b005b34801561045457600080fd5b5061046861046336600461333a565b610c73565b60405161039d91906134f6565b34801561048157600080fd5b506103e96104903660046134dd565b610d0c565b3480156104a157600080fd5b506103bb610d30565b3480156104b657600080fd5b506104bf610d4b565b60405161039d9190613509565b3480156104d857600080fd5b506104686104e7366004613555565b610d68565b3480156104f857600080fd5b50610468610507366004613555565b610e07565b34801561051857600080fd5b506103bb610e5e565b34801561052d57600080fd5b506103bb610e71565b34801561054257600080fd5b5060286103bb565b34801561055657600080fd5b506104466105653660046135a4565b610eb4565b34801561057657600080fd5b50610446610585366004613614565b610f51565b34801561059657600080fd5b5061038f6105a53660046134dd565b6110d3565b6104466105b83660046137f4565b61114e565b3480156105c957600080fd5b506103bb61116d565b3480156105de57600080fd5b506103bb611180565b3480156105f357600080fd5b506103bb61119d565b34801561060857600080fd5b50610446610617366004613843565b6111ad565b34801561062857600080fd5b50610446611218565b34801561063d57600080fd5b5061044661122c565b34801561065257600080fd5b5061065b611279565b60405161039d97969594939291906138b0565b34801561067a57600080fd5b506104466106893660046134dd565b611325565b34801561069a57600080fd5b506104466106a9366004613843565b61133f565b3480156106ba57600080fd5b506106c361137c565b6040516001600160a01b03909116815260200161039d565b3480156106e757600080fd5b506104bf6113b1565b3480156106fc57600080fd5b506103bb6113ce565b34801561071157600080fd5b506106c3610720366004613948565b6113e1565b34801561073157600080fd5b50610419610740366004613990565b611425565b34801561075157600080fd5b50610776604051806040016040528060058152602001640312e302e360dc1b81525081565b60405161039d91906139c5565b34801561078f57600080fd5b50610776604051806040016040528060058152602001640352e302e360dc1b81525081565b3480156107c057600080fd5b506104466107cf3660046139fb565b61163e565b3480156107e057600080fd5b506104466107ef3660046134dd565b611905565b34801561080057600080fd5b5061038f61080f3660046134dd565b611959565b34801561082057600080fd5b5061046861082f3660046134dd565b6119d4565b34801561084057600080fd5b5061085461084f3660046134dd565b611a22565b604080518251815260208084015190820152918101519082015260600161039d565b34801561088257600080fd5b50610446610891366004613b3e565b611aca565b3480156108a257600080fd5b506104466108b13660046134dd565b611d2c565b3480156108c257600080fd5b506104686108d13660046134dd565b611d76565b3480156108e257600080fd5b506103bb611dc6565b3480156108f757600080fd5b506103bb610906366004613948565b611dd9565b34801561091757600080fd5b506107766109263660046134dd565b611e12565b34801561093757600080fd5b506104466109463660046134dd565b611ec6565b34801561095757600080fd5b506103bb611f8d565b34801561096c57600080fd5b506103bb7f0d2a15c3140485b6db2a8c0f755486294daaae1eabcdd518f6beaf8e4ab4d83481565b3480156109a057600080fd5b506103bb611fd0565b3480156109b557600080fd5b506104686109c4366004613bad565b611fe8565b3480156109d557600080fd5b506106c3612047565b3480156109ea57600080fd5b506104466109f9366004613843565b612070565b348015610a0a57600080fd5b50610446610a19366004613843565b6120d3565b348015610a2a57600080fd5b506103e9612158565b348015610a3f57600080fd5b506103e9610a4e3660046134dd565b61216e565b348015610a5f57600080fd5b5061077660405180604001604052806005815260200164189718171b60d91b81525081565b610a8c61324e565b610ab76040518060800160405280600081526020016000815260200160008152602001600081525090565b610abf612197565b604051631f17004d60e31b815260048101919091526001600160401b038416602482015273__$068aad146bf104111ba65c4a1de2cd0e23$__9063f8b80268906044015b600060405180830381865af4158015610b20573d6000803e3d6000fd5b505050506040513d6000823e601f3d908101601f19168201604052610b489190810190613ced565b91509150915091565b6000610b5b612197565b60405163765c2c6160e01b8152600481019190915273__$068aad146bf104111ba65c4a1de2cd0e23$__9063765c2c61906024015b602060405180830381865af4158015610bad573d6000803e3d6000fd5b505050506040513d601f19601f82011682018060405250810190610bd19190613d91565b905090565b60006001600160e01b03198216635d1ca63160e01b1480610c0757506301ffc9a760e01b6001600160e01b03198316145b92915050565b610c15613297565b6000610c1f612197565b600101549050610c30848285611425565b949350505050565b610c406121bb565b610c48612260565b6000610c52612292565b6000928352600a016020526040909120805460ff1916911515919091179055565b610c7b61324e565b610c83612197565b604051637d0aba4f60e01b815260048101919091526001600160401b038316602482015273__$068aad146bf104111ba65c4a1de2cd0e23$__90637d0aba4f906044015b600060405180830381865af4158015610ce4573d6000803e3d6000fd5b505050506040513d6000823e601f3d908101601f19168201604052610c079190810190613daa565b6000610d16612292565b6000928352600d0160205250604090206002015460ff1690565b6000610d3a6121bb565b610d42612292565b60010154905090565b6060610d556121bb565b610bd1610d60612292565b600b016122b6565b610d7061324e565b610d78612197565b60405163d55da6a360e01b81526004810191909152602481018490526044810183905273__$068aad146bf104111ba65c4a1de2cd0e23$__9063d55da6a3906064015b600060405180830381865af4158015610dd8573d6000803e3d6000fd5b505050506040513d6000823e601f3d908101601f19168201604052610e009190810190613daa565b9392505050565b610e0f61324e565b610e17612197565b604051636ac0c5c760e11b81526004810191909152602481018490526044810183905273__$068aad146bf104111ba65c4a1de2cd0e23$__9063d5818b8e90606401610dbb565b6000610e68612197565b60010154919050565b6000610e7b612197565b604051631b8bf99b60e21b8152600481019190915273__$068aad146bf104111ba65c4a1de2cd0e23$__90636e2fe66c90602401610b90565b610ebc612197565b6040516359a6069160e01b815260048101919091526001600160a01b0383166024820152306044820152602860648201526001600160f01b03198216608482015273__$068aad146bf104111ba65c4a1de2cd0e23$__906359a606919060a4015b60006040518083038186803b158015610f3557600080fd5b505af4158015610f49573d6000803e3d6000fd5b505050505050565b6000610f5b6122c3565b805490915060ff600160401b82041615906001600160401b0316600081158015610f825750825b90506000826001600160401b03166001148015610f9e5750303b155b905081158015610fac575080155b15610fca5760405163f92ee8a960e01b815260040160405180910390fd5b845467ffffffffffffffff191660011785558315610ff457845460ff60401b1916600160401b1785555b610ffe8787610eb4565b611007336122ec565b6000611011612292565b8e815560018082018f90556006820155604080518082018252601081526f50617373706f7274497373756572563160801b602080830191909152825180840190935260058352640312e302e360dc1b9083015291925061107191906122fd565b61107d8c8c8c8c611aca565b5083156110c457845460ff60401b19168555604051600181527fc7f505b2f371ae2175ee4913f4499e1f2633a7b5936321eed1cdaeb6115181d29060200160405180910390a15b50505050505050505050505050565b6110db61324e565b6111066040518060800160405280600081526020016000815260200160008152602001600081525090565b61110e612197565b60405163a3018d7960e01b815260048101919091526024810184905273__$068aad146bf104111ba65c4a1de2cd0e23$__9063a3018d7990604401610b03565b6111566121bb565b61115f8261230f565b611169828261231f565b5050565b6000611177612197565b609a0154919050565b600061118a6123e1565b506000805160206144d383398151915290565b60006111a7612197565b54919050565b6111b56121bb565b6111bd612260565b60006111c7612292565b90506111d6600b82018361242a565b506040516001600160a01b03831681527f0a33c33ca5c931f5cbdaa4137c8b7f3ea632aa05390959f913c410776733061b906020015b60405180910390a15050565b611220612260565b61122a600061243f565b565b3380611236612047565b6001600160a01b03161461126d5760405163118cdaa760e01b81526001600160a01b03821660048201526024015b60405180910390fd5b6112768161243f565b50565b600060608082808083816000805160206144b383398151915280549091501580156112a657506001810154155b6112ea5760405162461bcd60e51b81526020600482015260156024820152741152540dcc4c8e88155b9a5b9a5d1a585b1a5e9959605a1b6044820152606401611264565b6112f2612477565b6112fa61253a565b60408051600080825260208201909252600f60f81b9c939b5091995046985030975095509350915050565b61132d6121bb565b611335612260565b6001610c52612292565b6113476121bb565b61134f612260565b80611358612292565b60090180546001600160a01b0319166001600160a01b039290921691909117905550565b6000807f9016d09d72d40fdae2fd8ceac6b6234c7706214fd39c1cd1e609a0528c1993005b546001600160a01b031692915050565b60606113bb6121bb565b610bd16113c6612292565b6007016122b6565b60006113d8612197565b609b0154919050565b60006113eb6121bb565b6113f3612292565b600301826040516114049190613dde565b908152604051908190036020019020546001600160a01b031690505b919050565b61142d613297565b611435612197565b54841461147b5760405162461bcd60e51b8152602060048201526014602482015273092c8cadce8d2e8f240d2c840dad2e6dac2e8c6d60631b6044820152606401611264565b6000611485612197565b604051630b1a9cd360e01b815260048101919091526024810185905273__$068aad146bf104111ba65c4a1de2cd0e23$__90630b1a9cd390604401606060405180830381865af41580156114dd573d6000803e3d6000fd5b505050506040513d601f19601f820116820180604052508101906115019190613dfa565b604080516080810182528681528251602080830191909152830151818301529082015160608201529091506000611536612197565b6020840151604051630b2bcd1b60e11b815260048101929092526001600160401b0387166024830152604482015273__$068aad146bf104111ba65c4a1de2cd0e23$__906316579a3690606401600060405180830381865af41580156115a0573d6000803e3d6000fd5b505050506040513d6000823e601f3d908101601f191682016040526115c89190810190613daa565b6040805161010081018252825181526020808401511515818301528284015182840152606080850151908301526080808501519083015260a08085015115159083015260c0808501519083015260e093840151938201939093528151808301909252938152908101929092525095945050505050565b6000611648612292565b90508251600114611679578251604051630264a11560e21b8152600481019190915260016024820152604401611264565b60608160040160008560008151811061169457611694613e37565b6020026020010151600001516001600160401b0316815260200190815260200160002080546116c290613e4d565b80601f01602080910402602001604051908101604052809291908181526020018280546116ee90613e4d565b801561173b5780601f106117105761010080835404028352916020019161173b565b820191906000526020600020905b81548152906001019060200180831161171e57829003601f168201915b50505050509050805160000361178f578360008151811061175e5761175e613e37565b60209081029190910101515160405163ea99bbcd60e01b81526001600160401b039091166004820152602401611264565b600080600080876000815181106117a8576117a8613e37565b6020026020010151602001518060200190518101906117c79190613ece565b9350935093509350600060405180608001604052808581526020018481526020018381526020016040518060c001604052808860008151811061180c5761180c613e37565b602002602001015181526020018860018151811061182c5761182c613e37565b602002602001015181526020018860028151811061184c5761184c613e37565b602002602001015181526020018860038151811061186c5761186c613e37565b602002602001015181526020018860048151811061188c5761188c613e37565b60200260200101518152602001886005815181106118ac576118ac613e37565b602002602001015181525081525090506000888060200190518101906118d29190613f88565b90506118f98783836000815181106118ec576118ec613e37565b6020026020010151612579565b50505050505050505050565b61190d6121bb565b611915612260565b8061191e612292565b600101556040518181527ff007a02ba428e63fa98b65269e70f9a9db847e0a839049a2f31f069282267734906020015b60405180910390a150565b61196161324e565b61198c6040518060800160405280600081526020016000815260200160008152602001600081525090565b611994612197565b604051636ad1d8a760e11b815260048101919091526024810184905273__$068aad146bf104111ba65c4a1de2cd0e23$__9063d5a3b14e90604401610b03565b6119dc61324e565b6119e4612197565b604051620cf08960e41b815260048101919091526024810183905273__$068aad146bf104111ba65c4a1de2cd0e23$__9062cf089090604401610cc7565b611a4660405180606001604052806000815260200160008152602001600081525090565b611a4e612197565b604051630b1a9cd360e01b815260048101919091526024810183905273__$068aad146bf104111ba65c4a1de2cd0e23$__90630b1a9cd390604401606060405180830381865af4158015611aa6573d6000803e3d6000fd5b505050506040513d601f19601f82011682018060405250810190610c079190613dfa565b611ad26121bb565b611ada612260565b6000611ae4612292565b9050838214611b10576040516355c5b3e360e11b81526004810185905260248101839052604401611264565b60005b84811015610f4957838382818110611b2d57611b2d613e37565b9050602002016020810190611b429190613843565b82600301878784818110611b5857611b58613e37565b9050602002810190611b6a91906140ed565b604051611b78929190614133565b90815260405190819003602001902080546001600160a01b03929092166001600160a01b0319909216919091179055600060058301878784818110611bbf57611bbf613e37565b9050602002810190611bd191906140ed565b604051611bdf929190614133565b908152602001604051809103902054905080600003611c9e575060068201548060058401888885818110611c1557611c15613e37565b9050602002810190611c2791906140ed565b604051611c35929190614133565b90815260405190819003602001902055868683818110611c5757611c57613e37565b9050602002810190611c6991906140ed565b6000838152600486016020526040902091611c85919083614191565b50600683018054906000611c9883614266565b91905055505b7f17b20bbf8df0ff1422db2abe4b28c298e32929a2d112f027c3f68d488cf3cf74878784818110611cd157611cd1613e37565b9050602002810190611ce391906140ed565b878786818110611cf557611cf5613e37565b9050602002016020810190611d0a9190613843565b84604051611d1b949392919061427f565b60405180910390a150600101611b13565b611d346121bb565b611d3c612260565b80611d45612292565b556040518181527f7f7f3071c3c286700c199acae2fe071beb4a63dae1afff85186fa75d18090ae89060200161194e565b611d7e61324e565b611d86612197565b6040516397ac539160e01b815260048101919091526024810183905273__$068aad146bf104111ba65c4a1de2cd0e23$__906397ac539190604401610cc7565b6000611dd0612197565b609c0154919050565b6000611de36121bb565b611deb612292565b60050182604051611dfc9190613dde565b9081526020016040518091039020549050919050565b6060611e1c6121bb565b611e24612292565b6000838152600491909101602052604090208054611e4190613e4d565b80601f0160208091040260200160405190810160405280929190818152602001828054611e6d90613e4d565b8015611eba5780601f10611e8f57610100808354040283529160200191611eba565b820191906000526020600020905b815481529060010190602001808311611e9d57829003601f168201915b50505050509050919050565b611ece612260565b6000611ed8612292565b6000838152600d8201602052604090206002015490915060ff16611f3e5760405162461bcd60e51b815260206004820152601860248201527f4e756c6c696669657220646f6573206e6f7420657869737400000000000000006044820152606401611264565b6040805160608101825260008082526020808301828152838501838152968352600d95909501905291909120905181559051600182015590516002909101805460ff1916911515919091179055565b6000611f97612197565b604051631e75e7f360e01b8152600481019190915273__$068aad146bf104111ba65c4a1de2cd0e23$__90631e75e7f390602401610b90565b6000611fda6121bb565b611fe2612292565b54905090565b611ff061324e565b611ff8612197565b604051630b2bcd1b60e11b815260048101919091526001600160401b03841660248201526044810183905273__$068aad146bf104111ba65c4a1de2cd0e23$__906316579a3690606401610dbb565b6000807f237e158222e3e6968b72b9db0d8043aacf074ad9f650f0d1606b4d82ee432c006113a1565b6120786121bb565b612080612596565b600061208a612292565b9050612099600782018361242a565b506040516001600160a01b03831681527f47d1c22a25bb3a5d4e481b9b1e6944c2eade3181a0a20b495ed61d35b5323f249060200161120c565b6120db612260565b7f237e158222e3e6968b72b9db0d8043aacf074ad9f650f0d1606b4d82ee432c0080546001600160a01b0319166001600160a01b038316908117825561211f61137c565b6001600160a01b03167f38d16b8cac22d99fc7c124b9cd0de2d3fa1faef420bfe791d8c362d765e2270060405160405180910390a35050565b6000612162612197565b6002015460ff16919050565b60006121786121bb565b612180612292565b6000928352600a0160205250604090205460ff1690565b7f3018a310c36c4f8228f09bf3b1822685cf0971daa8265a58ca807c4a4daba40090565b306001600160a01b037f000000000000000000000000000000000000000000000000000000000000000016148061224257507f00000000000000000000000000000000000000000000000000000000000000006001600160a01b03166122366000805160206144d3833981519152546001600160a01b031690565b6001600160a01b031614155b1561122a5760405163703e46dd60e11b815260040160405180910390fd5b3361226961137c565b6001600160a01b03161461122a5760405163118cdaa760e01b8152336004820152602401611264565b7fd64ab600136c76c630ed81a54cc1acbcc213dadb956fdd8687dc5ebb0bb5f50090565b60606000610e00836125ca565b6000807ff0c57e16840df040f15088dc2f81fe391c3923bec73e23a9662efc9c229c6a00610c07565b6122f4612625565b6112768161264a565b612305612625565b611169828261267c565b6123176121bb565b611276612260565b816001600160a01b03166352d1902d6040518163ffffffff1660e01b8152600401602060405180830381865afa925050508015612379575060408051601f3d908101601f1916820190925261237691810190613d91565b60015b6123a157604051634c9c8ce360e01b81526001600160a01b0383166004820152602401611264565b6000805160206144d383398151915281146123d257604051632a87526960e21b815260048101829052602401611264565b6123dc83836126dd565b505050565b306001600160a01b037f0000000000000000000000000000000000000000000000000000000000000000161461122a5760405163703e46dd60e11b815260040160405180910390fd5b6000610e00836001600160a01b038416612733565b7f237e158222e3e6968b72b9db0d8043aacf074ad9f650f0d1606b4d82ee432c0080546001600160a01b031916815561116982612782565b7fa16a46d94261c7517cc8ff89f61c0ce93598e3c849801011dee649a6a557d10280546060916000805160206144b3833981519152916124b690613e4d565b80601f01602080910402602001604051908101604052809291908181526020018280546124e290613e4d565b801561252f5780601f106125045761010080835404028352916020019161252f565b820191906000526020600020905b81548152906001019060200180831161251257829003601f168201915b505050505091505090565b7fa16a46d94261c7517cc8ff89f61c0ce93598e3c849801011dee649a6a557d10380546060916000805160206144b3833981519152916124b690613e4d565b61258383836127f3565b61258c816128f1565b6123dc8282612965565b6125ab336125a2612292565b600b01906129cf565b61122a57604051631d83d27f60e01b8152336004820152602401611264565b606081600001805480602002602001604051908101604052809291908181526020018280548015611eba57602002820191906000526020600020905b8154815260200190600101908083116126065750505050509050919050565b61262d6129f1565b61122a57604051631afcd79f60e31b815260040160405180910390fd5b612652612625565b6001600160a01b03811661126d57604051631e4fbdf760e01b815260006004820152602401611264565b612684612625565b6000805160206144b38339815191527fa16a46d94261c7517cc8ff89f61c0ce93598e3c849801011dee649a6a557d1026126be84826142c8565b50600381016126cd83826142c8565b5060008082556001909101555050565b6126e682612a0b565b6040516001600160a01b038316907fbc7cd75a20ee27fd9adebab32041f755214dbc6bffa90cc0225b39da2e5c2d3b90600090a280511561272b576123dc8282612a70565b611169612ae6565b600081815260018301602052604081205461277a57508154600181810184556000848152602080822090930184905584548482528286019093526040902091909155610c07565b506000610c07565b7f9016d09d72d40fdae2fd8ceac6b6234c7706214fd39c1cd1e609a0528c19930080546001600160a01b031981166001600160a01b03848116918217845560405192169182907f8be0079c531659141344cd1fd0a4f28419497f9722a3daafe3b4186f6b6457e090600090a3505050565b60006127fd612292565b9050600081600301846040516128139190613dde565b908152604051908190036020019020546001600160a01b031690508061284c576040516301dcf1ab60e31b815260040160405180910390fd5b806001600160a01b031663f398789b84600001518560200151866040015187606001516040518563ffffffff1660e01b815260040161288e94939291906143a9565b602060405180830381865afa1580156128ab573d6000803e3d6000fd5b505050506040513d601f19601f820116820180604052508101906128cf919061442e565b6128eb576040516281723b60e21b815260040160405180910390fd5b50505050565b60008061290683600001518460200151612b05565b91509150816129285760405163df2b56ff60e01b815260040160405180910390fd5b61293d81612934612292565b600701906129cf565b6123dc57604051631432861160e31b81526001600160a01b0382166004820152602401611264565b606082810151805160208083015160808401519484015160a08501516040909501518751938401519351949692959294919390916129af9088908890889088908890889088612baf565b6129ba818888612d82565b6129c48787612dde565b505050505050505050565b6001600160a01b03811660009081526001830160205260408120541515610e00565b60006129fb6122c3565b54600160401b900460ff16919050565b806001600160a01b03163b600003612a4157604051634c9c8ce360e01b81526001600160a01b0382166004820152602401611264565b6000805160206144d383398151915280546001600160a01b0319166001600160a01b0392909216919091179055565b6060600080846001600160a01b031684604051612a8d9190613dde565b600060405180830381855af49150503d8060008114612ac8576040519150601f19603f3d011682016040523d82523d6000602084013e612acd565b606091505b5091509150612add858383612e99565b95945050505050565b341561122a5760405163b398979f60e01b815260040160405180910390fd5b6000806000612b767f0d2a15c3140485b6db2a8c0f755486294daaae1eabcdd518f6beaf8e4ab4d83486600001518760200151604051602001612b5b939291909283526020830191909152604082015260600190565b60405160208183030381529060405280519060200120612ef5565b9050600080612b858387612f22565b5090925090506000816003811115612b9f57612b9f614449565b14945090925050505b9250929050565b6000612bb9612292565b905088600003612bdf57604051631b1aad8760e11b8152600481018a9052602401611264565b87600003612c0357604051634bdc991b60e11b815260048101899052602401611264565b80600101548514612c3757600181015460405163e748379160e01b8152611264918791600401918252602082015260400190565b838314612c64576040516001621d0d8360e21b031981526004810184905260248101859052604401611264565b60006207a120871115612c8657612c7f87630121eac061445f565b9050612c97565b612c94876301312d0061445f565b90505b60008080612cb0612cab62093a8042614472565b612f6f565b91945092509050600081612cc5846064614485565b612cd186612710614485565b612cdb919061445f565b612ce5919061445f565b905084811115612d0b57604051635d5e30bf60e01b8152600481018c9052602401611264565b85544290612d19908e61445f565b1015612d3a5760405162bd09f160e11b8152600481018d9052602401611264565b6000878152600d8701602052604090206002015460ff1615612d7257604051635377438b60e11b815260048101889052602401611264565b5050505050505050505050505050565b6000612d8c612292565b60408051606081018252948552602080860194855260018683018181526000988952600d94909401909152952093518455915193830193909355516002909101805460ff191691151591909117905550565b612de6612197565b6040516306fb157560e01b81526004810191909152602481018390526044810182905273__$068aad146bf104111ba65c4a1de2cd0e23$__906306fb15759060640160006040518083038186803b158015612e4057600080fd5b505af4158015612e54573d6000803e3d6000fd5b50505050612e60612197565b60405163175ba3e960e11b8152600481019190915273__$068aad146bf104111ba65c4a1de2cd0e23$__90632eb747d290602401610f1d565b606082612eae57612ea982612f8e565b610e00565b8151158015612ec557506001600160a01b0384163b155b15612eee57604051639996b31560e01b81526001600160a01b0385166004820152602401611264565b5080610e00565b6000610c07612f02612fb7565b8360405161190160f01b8152600281019290925260228201526042902090565b60008060008351604103612f5c5760208401516040850151606086015160001a612f4e88828585612fc1565b955095509550505050612f68565b50508151600091506002905b9250925092565b60008080612f81620151808504613090565b9196909550909350915050565b805115612f9e5780518082602001fd5b60405163d6bda27560e01b815260040160405180910390fd5b6000610bd161312c565b600080807f7fffffffffffffffffffffffffffffff5d576e7357a4501ddfe92f46681b20a0841115612ffc5750600091506003905082613086565b604080516000808252602082018084528a905260ff891692820192909252606081018790526080810186905260019060a0016020604051602081039080840390855afa158015613050573d6000803e3d6000fd5b5050604051601f1901519150506001600160a01b03811661307c57506000925060019150829050613086565b9250600091508190505b9450945094915050565b60008080836226496581018262023ab1600483020590506004600362023ab18302010590910390600062164b09610fa0600185010205905060046105b58202058303601f019250600061098f84605002816130ed576130ed61449c565b0590506000605061098f83020585039050600b820560301994909401606402929092018301996002600c90940290910392909201975095509350505050565b60007f8b73c3c69bb8fe3d512ecc4cf759cc79239f7b179b0ffacaa9a75d522b39400f6131576131a0565b61315f61320a565b60408051602081019490945283019190915260608201524660808201523060a082015260c00160405160208183030381529060405280519060200120905090565b60006000805160206144b3833981519152816131ba612477565b8051909150156131d257805160209091012092915050565b815480156131e1579392505050565b7fc5d2460186f7233c927e7db2dcc703c0e500b653ca82273b7bfad8045d85a470935050505090565b60006000805160206144b38339815191528161322461253a565b80519091501561323c57805160209091012092915050565b600182015480156131e1579392505050565b6040518061010001604052806000815260200160001515815260200160608152602001600081526020016000815260200160001515815260200160008152602001600081525090565b60405180604001604052806132cd6040518060800160405280600081526020016000815260200160008152602001600081525090565b815260200161331e6040518061010001604052806000815260200160001515815260200160608152602001600081526020016000815260200160001515815260200160008152602001600081525090565b905290565b80356001600160401b038116811461142057600080fd5b60006020828403121561334c57600080fd5b610e0082613323565b805182526020808201511515818401526040808301516101009185018290528051918501829052600092019082906101208601905b808310156133ad578351825260208201915060208401935060018301925061338a565b50606085015160608701526080850151608087015260a085015192506133d760a087018415159052565b60c085015160c087015260e085015160e087015280935050505092915050565b60a08152600061340a60a0830185613355565b9050610e006020830184805182526020810151602083015260408101516040830152606081015160608301525050565b60006020828403121561344c57600080fd5b81356001600160e01b031981168114610e0057600080fd5b6000806040838503121561347757600080fd5b8235915061348760208401613323565b90509250929050565b602081526134c3602082018351805182526020810151602083015260408101516040830152606081015160608301525050565b6000602083015160a080840152610c3060c0840182613355565b6000602082840312156134ef57600080fd5b5035919050565b602081526000610e006020830184613355565b602080825282518282018190526000918401906040840190835b8181101561354a5783516001600160a01b0316835260209384019390920191600101613523565b509095945050505050565b6000806040838503121561356857600080fd5b50508035926020909101359150565b6001600160a01b038116811461127657600080fd5b80356001600160f01b03198116811461142057600080fd5b600080604083850312156135b757600080fd5b82356135c281613577565b91506134876020840161358c565b60008083601f8401126135e257600080fd5b5081356001600160401b038111156135f957600080fd5b6020830191508360208260051b8501011115612ba857600080fd5b60008060008060008060008060c0898b03121561363057600080fd5b883597506020890135965060408901356001600160401b0381111561365457600080fd5b6136608b828c016135d0565b90975095505060608901356001600160401b0381111561367f57600080fd5b61368b8b828c016135d0565b909550935050608089013561369f81613577565b91506136ad60a08a0161358c565b90509295985092959890939650565b634e487b7160e01b600052604160045260246000fd5b604051606081016001600160401b03811182821017156136f4576136f46136bc565b60405290565b60405161010081016001600160401b03811182821017156136f4576136f46136bc565b604080519081016001600160401b03811182821017156136f4576136f46136bc565b604051601f8201601f191681016001600160401b0381118282101715613767576137676136bc565b604052919050565b60006001600160401b03821115613788576137886136bc565b50601f01601f191660200190565b60006137a96137a48461376f565b61373f565b90508281528383830111156137bd57600080fd5b828260208301376000602084830101529392505050565b600082601f8301126137e557600080fd5b610e0083833560208501613796565b6000806040838503121561380757600080fd5b823561381281613577565b915060208301356001600160401b0381111561382d57600080fd5b613839858286016137d4565b9150509250929050565b60006020828403121561385557600080fd5b8135610e0081613577565b60005b8381101561387b578181015183820152602001613863565b50506000910152565b6000815180845261389c816020860160208601613860565b601f01601f19169290920160200192915050565b60ff60f81b8816815260e0602082015260006138cf60e0830189613884565b82810360408401526138e18189613884565b606084018890526001600160a01b038716608085015260a0840186905283810360c08501528451808252602080870193509091019060005b81811015613937578351835260209384019390920191600101613919565b50909b9a5050505050505050505050565b60006020828403121561395a57600080fd5b81356001600160401b0381111561397057600080fd5b8201601f8101841361398157600080fd5b610c3084823560208401613796565b6000806000606084860312156139a557600080fd5b83359250602084013591506139bc60408501613323565b90509250925092565b602081526000610e006020830184613884565b60006001600160401b038211156139f1576139f16136bc565b5060051b60200190565b60008060408385031215613a0e57600080fd5b82356001600160401b03811115613a2457600080fd5b8301601f81018513613a3557600080fd5b8035613a436137a4826139d8565b8082825260208201915060208360051b850101925087831115613a6557600080fd5b602084015b83811015613b1f5780356001600160401b03811115613a8857600080fd5b85016060818b03601f19011215613a9e57600080fd5b613aa66136d2565b613ab260208301613323565b815260408201356001600160401b03811115613acd57600080fd5b613adc8c6020838601016137d4565b60208301525060608201356001600160401b03811115613afb57600080fd5b613b0a8c6020838601016137d4565b60408301525084525060209283019201613a6a565b50945050505060208301356001600160401b0381111561382d57600080fd5b60008060008060408587031215613b5457600080fd5b84356001600160401b03811115613b6a57600080fd5b613b76878288016135d0565b90955093505060208501356001600160401b03811115613b9557600080fd5b613ba1878288016135d0565b95989497509550505050565b60008060408385031215613bc057600080fd5b613bc983613323565b946020939093013593505050565b8051801515811461142057600080fd5b600082601f830112613bf857600080fd5b8151613c066137a4826139d8565b8082825260208201915060208360051b860101925085831115613c2857600080fd5b602085015b83811015613c45578051835260209283019201613c2d565b5095945050505050565b60006101008284031215613c6257600080fd5b613c6a6136fa565b825181529050613c7c60208301613bd7565b602082015260408201516001600160401b03811115613c9a57600080fd5b613ca684828501613be7565b6040830152506060828101519082015260808083015190820152613ccc60a08301613bd7565b60a082015260c0828101519082015260e09182015191810191909152919050565b60008082840360a0811215613d0157600080fd5b83516001600160401b03811115613d1757600080fd5b613d2386828701613c4f565b9350506080601f1982011215613d3857600080fd5b50604051608081016001600160401b0381118282101715613d5b57613d5b6136bc565b60409081526020858101518352858201519083015260608086015191830191909152608090940151938101939093525092909150565b600060208284031215613da357600080fd5b5051919050565b600060208284031215613dbc57600080fd5b81516001600160401b03811115613dd257600080fd5b610c3084828501613c4f565b60008251613df0818460208701613860565b9190910192915050565b60006060828403128015613e0d57600080fd5b50613e166136d2565b82518152602080840151908201526040928301519281019290925250919050565b634e487b7160e01b600052603260045260246000fd5b600181811c90821680613e6157607f821691505b602082108103613e8157634e487b7160e01b600052602260045260246000fd5b50919050565b600082601f830112613e9857600080fd5b613ea2604061373f565b806040840185811115613eb457600080fd5b845b8181101561354a578051845260209384019301613eb6565b6000806000806101208587031215613ee557600080fd5b84516001600160401b03811115613efb57600080fd5b613f0787828801613be7565b945050613f178660208701613e87565b925085607f860112613f2857600080fd5b6040613f338161373f565b8060e0880189811115613f4557600080fd5b606089015b81811015613f6b57613f5c8b82613e87565b84526020909301928401613f4a565b50819550613f798a82613e87565b94505050505092959194509250565b600060208284031215613f9a57600080fd5b81516001600160401b03811115613fb057600080fd5b8201601f81018413613fc157600080fd5b8051613fcf6137a4826139d8565b8082825260208201915060208360051b850101925086831115613ff157600080fd5b602084015b838110156140e25780516001600160401b0381111561401457600080fd5b8501808903601f1901606081121561402b57600080fd5b61403361371d565b604082121561404157600080fd5b61404961371d565b60208481015182526040850151908201528152606083015191506001600160401b0382111561407757600080fd5b60208284010192508a601f84011261408e57600080fd5b8251915061409e6137a48361376f565b8281528b60208486010111156140b357600080fd5b6140c4836020830160208701613860565b80602083015250808652505050602083019250602081019050613ff6565b509695505050505050565b6000808335601e1984360301811261410457600080fd5b8301803591506001600160401b0382111561411e57600080fd5b602001915036819003821315612ba857600080fd5b8183823760009101908152919050565b601f8211156123dc57806000526020600020601f840160051c8101602085101561416a5750805b601f840160051c820191505b8181101561418a5760008155600101614176565b5050505050565b6001600160401b038311156141a8576141a86136bc565b6141bc836141b68354613e4d565b83614143565b6000601f8411600181146141f057600085156141d85750838201355b600019600387901b1c1916600186901b17835561418a565b600083815260209020601f19861690835b828110156142215786850135825560209485019460019092019101614201565b508682101561423e5760001960f88860031b161c19848701351681555b505060018560011b0183555050505050565b634e487b7160e01b600052601160045260246000fd5b60006001820161427857614278614250565b5060010190565b6060815283606082015283856080830137600060808583018101919091526001600160a01b039390931660208201526040810191909152601f909201601f191690910101919050565b81516001600160401b038111156142e1576142e16136bc565b6142f5816142ef8454613e4d565b84614143565b6020601f82116001811461432957600083156143115750848201515b600019600385901b1c1916600184901b17845561418a565b600084815260208120601f198516915b828110156143595787850151825560209485019460019092019101614339565b50848210156143775786840151600019600387901b60f8161c191681555b50505050600190811b01905550565b8060005b60028110156128eb57815184526020938401939091019060010161438a565b6101c081016143b88287614386565b604082018560005b60028110156143ea576143d4838351614386565b60409290920191602091909101906001016143c0565b5050506143fa60c0830185614386565b61010082018360005b6006811015614422578151835260209283019290910190600101614403565b50505095945050505050565b60006020828403121561444057600080fd5b610e0082613bd7565b634e487b7160e01b600052602160045260246000fd5b80820180821115610c0757610c07614250565b81810381811115610c0757610c07614250565b8082028115828204841417610c0757610c07614250565b634e487b7160e01b600052601260045260246000fdfea16a46d94261c7517cc8ff89f61c0ce93598e3c849801011dee649a6a557d100360894a13ba1a3210667c828492db98dca3e2076cc3735a920a3ca505d382bbca2646970667358221220e3349f2da16e8bbf3a00d3e996fa36fe090712aef5e66a95f757c4f992c0009164736f6c634300081b0033",
  "linkReferences": {
    "@iden3/contracts/lib/IdentityLib.sol": {
      "IdentityLib": [
        {
          "length": 20,
          "start": 3042
        },
        {
          "length": 20,
          "start": 3183
        },
        {
          "length": 20,
          "start": 3494
        },
        {
          "length": 20,
          "start": 3738
        },
        {
          "length": 20,
          "start": 3897
        },
        {
          "length": 20,
          "start": 3983
        },
        {
          "length": 20,
          "start": 4092
        },
        {
          "length": 20,
          "start": 4649
        },
        {
          "length": 20,
          "start": 5536
        },
        {
          "length": 20,
          "start": 5731
        },
        {
          "length": 20,
          "start": 6831
        },
        {
          "length": 20,
          "start": 6910
        },
        {
          "length": 20,
          "start": 7017
        },
        {
          "length": 20,
          "start": 7841
        },
        {
          "length": 20,
          "start": 8363
        },
        {
          "length": 20,
          "start": 8482
        },
        {
          "length": 20,
          "start": 12040
        },
        {
          "length": 20,
          "start": 12148
        }
      ]
    }
  },
  "deployedLinkReferences": {
    "@iden3/contracts/lib/IdentityLib.sol": {
      "IdentityLib": [
        {
          "length": 20,
          "start": 2789
        },
        {
          "length": 20,
          "start": 2930
        },
        {
          "length": 20,
          "start": 3241
        },
        {
          "length": 20,
          "start": 3485
        },
        {
          "length": 20,
          "start": 3644
        },
        {
          "length": 20,
          "start": 3730
        },
        {
          "length": 20,
          "start": 3839
        },
        {
          "length": 20,
          "start": 4396
        },
        {
          "length": 20,
          "start": 5283
        },
        {
          "length": 20,
          "start": 5478
        },
        {
          "length": 20,
          "start": 6578
        },
        {
          "length": 20,
          "start": 6657
        },
        {
          "length": 20,
          "start": 6764
        },
        {
          "length": 20,
          "start": 7588
        },
        {
          "length": 20,
          "start": 8110
        },
        {
          "length": 20,
          "start": 8229
        },
        {
          "length": 20,
          "start": 11787
        },
        {
          "length": 20,
          "start": 11895
        }
      ]
    }
  }
}