{
  "_format": "hh-sol-artifact-1",
  "contractName": "AnonAadhaarCredentialIssuerImplV1",
  "sourceName": "contracts/verifiers/AnonAadhaarCredentialIssuerImplV1.sol",
  "abi": [
    {
      "inputs": [],
      "stateMutability": "nonpayable",
      "type": "constructor"
    },
    {
      "inputs": [
        {
          "internalType": "address",
          "name": "target",
          "type": "address"
        }
      ],
      "name": "AddressEmptyCode",
      "type": "error"
    },
    {
      "inputs": [
        {
          "internalType": "address",
          "name": "implementation",
          "type": "address"
        }
      ],
      "name": "ERC1967InvalidImplementation",
      "type": "error"
    },
    {
      "inputs": [],
      "name": "ERC1967NonPayable",
      "type": "error"
    },
    {
      "inputs": [],
      "name": "FailedCall",
      "type": "error"
    },
    {
      "inputs": [],
      "name": "InvalidAnonAadhaarProof",
      "type": "error"
    },
    {
      "inputs": [
        {
          "internalType": "uint256",
          "name": "expected",
          "type": "uint256"
        },
        {
          "internalType": "uint256",
          "name": "provided",
          "type": "uint256"
        }
      ],
      "name": "InvalidExpirationDate",
      "type": "error"
    },
    {
      "inputs": [],
      "name": "InvalidHashIndex",
      "type": "error"
    },
    {
      "inputs": [],
      "name": "InvalidHashValue",
      "type": "error"
    },
    {
      "inputs": [],
      "name": "InvalidInitialization",
      "type": "error"
    },
    {
      "inputs": [],
      "name": "InvalidIssuerDidHash",
      "type": "error"
    },
    {
      "inputs": [],
      "name": "InvalidNullifierSeed",
      "type": "error"
    },
    {
      "inputs": [],
      "name": "InvalidPubKeyHash",
      "type": "error"
    },
    {
      "inputs": [
        {
          "internalType": "uint256",
          "name": "length",
          "type": "uint256"
        },
        {
          "internalType": "uint256",
          "name": "expectedLength",
          "type": "uint256"
        }
      ],
      "name": "InvalidResponsesLength",
      "type": "error"
    },
    {
      "inputs": [],
      "name": "InvalidStateContractAddress",
      "type": "error"
    },
    {
      "inputs": [],
      "name": "InvalidTemplateRoot",
      "type": "error"
    },
    {
      "inputs": [],
      "name": "InvalidVerifierAddress",
      "type": "error"
    },
    {
      "inputs": [],
      "name": "NoVerifierSet",
      "type": "error"
    },
    {
      "inputs": [],
      "name": "NotInitializing",
      "type": "error"
    },
    {
      "inputs": [],
      "name": "NullifierAlreadyExists",
      "type": "error"
    },
    {
      "inputs": [],
      "name": "NullifierDoesNotExist",
      "type": "error"
    },
    {
      "inputs": [
        {
          "internalType": "address",
          "name": "owner",
          "type": "address"
        }
      ],
      "name": "OwnableInvalidOwner",
      "type": "error"
    },
    {
      "inputs": [
        {
          "internalType": "address",
          "name": "account",
          "type": "address"
        }
      ],
      "name": "OwnableUnauthorizedAccount",
      "type": "error"
    },
    {
      "inputs": [],
      "name": "ProofExpired",
      "type": "error"
    },
    {
      "inputs": [],
      "name": "UUPSUnauthorizedCallContext",
      "type": "error"
    },
    {
      "inputs": [
        {
          "internalType": "bytes32",
          "name": "slot",
          "type": "bytes32"
        }
      ],
      "name": "UUPSUnsupportedProxiableUUID",
      "type": "error"
    },
    {
      "anonymous": false,
      "inputs": [
        {
          "indexed": false,
          "internalType": "uint64",
          "name": "version",
          "type": "uint64"
        }
      ],
      "name": "Initialized",
      "type": "event"
    },
    {
      "anonymous": false,
      "inputs": [
        {
          "indexed": false,
          "internalType": "uint256",
          "name": "issuerDidHash",
          "type": "uint256"
        }
      ],
      "name": "IssuerDidHashUpdated",
      "type": "event"
    },
    {
      "anonymous": false,
      "inputs": [
        {
          "indexed": false,
          "internalType": "uint256",
          "name": "nullifier",
          "type": "uint256"
        }
      ],
      "name": "NullifierCleaned",
      "type": "event"
    },
    {
      "anonymous": false,
      "inputs": [
        {
          "indexed": true,
          "internalType": "address",
          "name": "previousOwner",
          "type": "address"
        },
        {
          "indexed": true,
          "internalType": "address",
          "name": "newOwner",
          "type": "address"
        }
      ],
      "name": "OwnershipTransferStarted",
      "type": "event"
    },
    {
      "anonymous": false,
      "inputs": [
        {
          "indexed": true,
          "internalType": "address",
          "name": "previousOwner",
          "type": "address"
        },
        {
          "indexed": true,
          "internalType": "address",
          "name": "newOwner",
          "type": "address"
        }
      ],
      "name": "OwnershipTransferred",
      "type": "event"
    },
    {
      "anonymous": false,
      "inputs": [
        {
          "indexed": false,
          "internalType": "uint256",
          "name": "publicKeyHash",
          "type": "uint256"
        }
      ],
      "name": "PublicKeyHashAdded",
      "type": "event"
    },
    {
      "anonymous": false,
      "inputs": [
        {
          "indexed": false,
          "internalType": "uint256",
          "name": "templateRoot",
          "type": "uint256"
        }
      ],
      "name": "TemplateRootUpdated",
      "type": "event"
    },
    {
      "anonymous": false,
      "inputs": [
        {
          "indexed": true,
          "internalType": "address",
          "name": "implementation",
          "type": "address"
        }
      ],
      "name": "Upgraded",
      "type": "event"
    },
    {
      "inputs": [],
      "name": "UPGRADE_INTERFACE_VERSION",
      "outputs": [
        {
          "internalType": "string",
          "name": "",
          "type": "string"
        }
      ],
      "stateMutability": "view",
      "type": "function"
    },
    {
      "inputs": [],
      "name": "VERSION",
      "outputs": [
        {
          "internalType": "string",
          "name": "",
          "type": "string"
        }
      ],
      "stateMutability": "view",
      "type": "function"
    },
    {
      "inputs": [],
      "name": "acceptOwnership",
      "outputs": [],
      "stateMutability": "nonpayable",
      "type": "function"
    },
    {
      "inputs": [
        {
          "internalType": "uint256",
          "name": "publicKeyHash",
          "type": "uint256"
        }
      ],
      "name": "addPublicKeyHash",
      "outputs": [],
      "stateMutability": "nonpayable",
      "type": "function"
    },
    {
      "inputs": [
        {
          "internalType": "uint256[]",
          "name": "publicKeysHashes",
          "type": "uint256[]"
        }
      ],
      "name": "addPublicKeyHashesBatch",
      "outputs": [],
      "stateMutability": "nonpayable",
      "type": "function"
    },
    {
      "inputs": [
        {
          "internalType": "uint256",
          "name": "nullifier",
          "type": "uint256"
        }
      ],
      "name": "cleanNullifier",
      "outputs": [],
      "stateMutability": "nonpayable",
      "type": "function"
    },
    {
      "inputs": [
        {
          "internalType": "uint256",
          "name": "claimIndexHash",
          "type": "uint256"
        }
      ],
      "name": "getClaimProof",
      "outputs": [
        {
          "components": [
            {
              "internalType": "uint256",
              "name": "root",
              "type": "uint256"
            },
            {
              "internalType": "bool",
              "name": "existence",
              "type": "bool"
            },
            {
              "internalType": "uint256[]",
              "name": "siblings",
              "type": "uint256[]"
            },
            {
              "internalType": "uint256",
              "name": "index",
              "type": "uint256"
            },
            {
              "internalType": "uint256",
              "name": "value",
              "type": "uint256"
            },
            {
              "internalType": "bool",
              "name": "auxExistence",
              "type": "bool"
            },
            {
              "internalType": "uint256",
              "name": "auxIndex",
              "type": "uint256"
            },
            {
              "internalType": "uint256",
              "name": "auxValue",
              "type": "uint256"
            }
          ],
          "internalType": "struct SmtLib.Proof",
          "name": "",
          "type": "tuple"
        }
      ],
      "stateMutability": "view",
      "type": "function"
    },
    {
      "inputs": [
        {
          "internalType": "uint256",
          "name": "claimIndexHash",
          "type": "uint256"
        },
        {
          "internalType": "uint256",
          "name": "root",
          "type": "uint256"
        }
      ],
      "name": "getClaimProofByRoot",
      "outputs": [
        {
          "components": [
            {
              "internalType": "uint256",
              "name": "root",
              "type": "uint256"
            },
            {
              "internalType": "bool",
              "name": "existence",
              "type": "bool"
            },
            {
              "internalType": "uint256[]",
              "name": "siblings",
              "type": "uint256[]"
            },
            {
              "internalType": "uint256",
              "name": "index",
              "type": "uint256"
            },
            {
              "internalType": "uint256",
              "name": "value",
              "type": "uint256"
            },
            {
              "internalType": "bool",
              "name": "auxExistence",
              "type": "bool"
            },
            {
              "internalType": "uint256",
              "name": "auxIndex",
              "type": "uint256"
            },
            {
              "internalType": "uint256",
              "name": "auxValue",
              "type": "uint256"
            }
          ],
          "internalType": "struct SmtLib.Proof",
          "name": "",
          "type": "tuple"
        }
      ],
      "stateMutability": "view",
      "type": "function"
    },
    {
      "inputs": [
        {
          "internalType": "uint256",
          "name": "claimIndexHash",
          "type": "uint256"
        }
      ],
      "name": "getClaimProofWithStateInfo",
      "outputs": [
        {
          "components": [
            {
              "internalType": "uint256",
              "name": "root",
              "type": "uint256"
            },
            {
              "internalType": "bool",
              "name": "existence",
              "type": "bool"
            },
            {
              "internalType": "uint256[]",
              "name": "siblings",
              "type": "uint256[]"
            },
            {
              "internalType": "uint256",
              "name": "index",
              "type": "uint256"
            },
            {
              "internalType": "uint256",
              "name": "value",
              "type": "uint256"
            },
            {
              "internalType": "bool",
              "name": "auxExistence",
              "type": "bool"
            },
            {
              "internalType": "uint256",
              "name": "auxIndex",
              "type": "uint256"
            },
            {
              "internalType": "uint256",
              "name": "auxValue",
              "type": "uint256"
            }
          ],
          "internalType": "struct SmtLib.Proof",
          "name": "",
          "type": "tuple"
        },
        {
          "components": [
            {
              "internalType": "uint256",
              "name": "state",
              "type": "uint256"
            },
            {
              "internalType": "uint256",
              "name": "claimsRoot",
              "type": "uint256"
            },
            {
              "internalType": "uint256",
              "name": "revocationsRoot",
              "type": "uint256"
            },
            {
              "internalType": "uint256",
              "name": "rootsRoot",
              "type": "uint256"
            }
          ],
          "internalType": "struct IdentityLib.StateInfo",
          "name": "",
          "type": "tuple"
        }
      ],
      "stateMutability": "view",
      "type": "function"
    },
    {
      "inputs": [],
      "name": "getClaimsTreeRoot",
      "outputs": [
        {
          "internalType": "uint256",
          "name": "",
          "type": "uint256"
        }
      ],
      "stateMutability": "view",
      "type": "function"
    },
    {
      "inputs": [],
      "name": "getExpirationTime",
      "outputs": [
        {
          "internalType": "uint256",
          "name": "",
          "type": "uint256"
        }
      ],
      "stateMutability": "view",
      "type": "function"
    },
    {
      "inputs": [],
      "name": "getId",
      "outputs": [
        {
          "internalType": "uint256",
          "name": "",
          "type": "uint256"
        }
      ],
      "stateMutability": "view",
      "type": "function"
    },
    {
      "inputs": [],
      "name": "getIsOldStateGenesis",
      "outputs": [
        {
          "internalType": "bool",
          "name": "",
          "type": "bool"
        }
      ],
      "stateMutability": "view",
      "type": "function"
    },
    {
      "inputs": [],
      "name": "getLatestPublishedClaimsRoot",
      "outputs": [
        {
          "internalType": "uint256",
          "name": "",
          "type": "uint256"
        }
      ],
      "stateMutability": "view",
      "type": "function"
    },
    {
      "inputs": [],
      "name": "getLatestPublishedRevocationsRoot",
      "outputs": [
        {
          "internalType": "uint256",
          "name": "",
          "type": "uint256"
        }
      ],
      "stateMutability": "view",
      "type": "function"
    },
    {
      "inputs": [],
      "name": "getLatestPublishedRootsRoot",
      "outputs": [
        {
          "internalType": "uint256",
          "name": "",
          "type": "uint256"
        }
      ],
      "stateMutability": "view",
      "type": "function"
    },
    {
      "inputs": [],
      "name": "getLatestPublishedState",
      "outputs": [
        {
          "internalType": "uint256",
          "name": "",
          "type": "uint256"
        }
      ],
      "stateMutability": "view",
      "type": "function"
    },
    {
      "inputs": [],
      "name": "getNullifierSeed",
      "outputs": [
        {
          "internalType": "uint256",
          "name": "",
          "type": "uint256"
        }
      ],
      "stateMutability": "view",
      "type": "function"
    },
    {
      "inputs": [
        {
          "internalType": "uint64",
          "name": "revocationNonce",
          "type": "uint64"
        }
      ],
      "name": "getRevocationProof",
      "outputs": [
        {
          "components": [
            {
              "internalType": "uint256",
              "name": "root",
              "type": "uint256"
            },
            {
              "internalType": "bool",
              "name": "existence",
              "type": "bool"
            },
            {
              "internalType": "uint256[]",
              "name": "siblings",
              "type": "uint256[]"
            },
            {
              "internalType": "uint256",
              "name": "index",
              "type": "uint256"
            },
            {
              "internalType": "uint256",
              "name": "value",
              "type": "uint256"
            },
            {
              "internalType": "bool",
              "name": "auxExistence",
              "type": "bool"
            },
            {
              "internalType": "uint256",
              "name": "auxIndex",
              "type": "uint256"
            },
            {
              "internalType": "uint256",
              "name": "auxValue",
              "type": "uint256"
            }
          ],
          "internalType": "struct SmtLib.Proof",
          "name": "",
          "type": "tuple"
        }
      ],
      "stateMutability": "view",
      "type": "function"
    },
    {
      "inputs": [
        {
          "internalType": "uint64",
          "name": "revocationNonce",
          "type": "uint64"
        },
        {
          "internalType": "uint256",
          "name": "root",
          "type": "uint256"
        }
      ],
      "name": "getRevocationProofByRoot",
      "outputs": [
        {
          "components": [
            {
              "internalType": "uint256",
              "name": "root",
              "type": "uint256"
            },
            {
              "internalType": "bool",
              "name": "existence",
              "type": "bool"
            },
            {
              "internalType": "uint256[]",
              "name": "siblings",
              "type": "uint256[]"
            },
            {
              "internalType": "uint256",
              "name": "index",
              "type": "uint256"
            },
            {
              "internalType": "uint256",
              "name": "value",
              "type": "uint256"
            },
            {
              "internalType": "bool",
              "name": "auxExistence",
              "type": "bool"
            },
            {
              "internalType": "uint256",
              "name": "auxIndex",
              "type": "uint256"
            },
            {
              "internalType": "uint256",
              "name": "auxValue",
              "type": "uint256"
            }
          ],
          "internalType": "struct SmtLib.Proof",
          "name": "",
          "type": "tuple"
        }
      ],
      "stateMutability": "view",
      "type": "function"
    },
    {
      "inputs": [
        {
          "internalType": "uint64",
          "name": "revocationNonce",
          "type": "uint64"
        }
      ],
      "name": "getRevocationProofWithStateInfo",
      "outputs": [
        {
          "components": [
            {
              "internalType": "uint256",
              "name": "root",
              "type": "uint256"
            },
            {
              "internalType": "bool",
              "name": "existence",
              "type": "bool"
            },
            {
              "internalType": "uint256[]",
              "name": "siblings",
              "type": "uint256[]"
            },
            {
              "internalType": "uint256",
              "name": "index",
              "type": "uint256"
            },
            {
              "internalType": "uint256",
              "name": "value",
              "type": "uint256"
            },
            {
              "internalType": "bool",
              "name": "auxExistence",
              "type": "bool"
            },
            {
              "internalType": "uint256",
              "name": "auxIndex",
              "type": "uint256"
            },
            {
              "internalType": "uint256",
              "name": "auxValue",
              "type": "uint256"
            }
          ],
          "internalType": "struct SmtLib.Proof",
          "name": "",
          "type": "tuple"
        },
        {
          "components": [
            {
              "internalType": "uint256",
              "name": "state",
              "type": "uint256"
            },
            {
              "internalType": "uint256",
              "name": "claimsRoot",
              "type": "uint256"
            },
            {
              "internalType": "uint256",
              "name": "revocationsRoot",
              "type": "uint256"
            },
            {
              "internalType": "uint256",
              "name": "rootsRoot",
              "type": "uint256"
            }
          ],
          "internalType": "struct IdentityLib.StateInfo",
          "name": "",
          "type": "tuple"
        }
      ],
      "stateMutability": "view",
      "type": "function"
    },
    {
      "inputs": [
        {
          "internalType": "uint256",
          "name": "id",
          "type": "uint256"
        },
        {
          "internalType": "uint64",
          "name": "nonce",
          "type": "uint64"
        }
      ],
      "name": "getRevocationStatus",
      "outputs": [
        {
          "components": [
            {
              "components": [
                {
                  "internalType": "uint256",
                  "name": "state",
                  "type": "uint256"
                },
                {
                  "internalType": "uint256",
                  "name": "claimsTreeRoot",
                  "type": "uint256"
                },
                {
                  "internalType": "uint256",
                  "name": "revocationTreeRoot",
                  "type": "uint256"
                },
                {
                  "internalType": "uint256",
                  "name": "rootOfRoots",
                  "type": "uint256"
                }
              ],
              "internalType": "struct IOnchainCredentialStatusResolver.IdentityStateRoots",
              "name": "issuer",
              "type": "tuple"
            },
            {
              "components": [
                {
                  "internalType": "uint256",
                  "name": "root",
                  "type": "uint256"
                },
                {
                  "internalType": "bool",
                  "name": "existence",
                  "type": "bool"
                },
                {
                  "internalType": "uint256[]",
                  "name": "siblings",
                  "type": "uint256[]"
                },
                {
                  "internalType": "uint256",
                  "name": "index",
                  "type": "uint256"
                },
                {
                  "internalType": "uint256",
                  "name": "value",
                  "type": "uint256"
                },
                {
                  "internalType": "bool",
                  "name": "auxExistence",
                  "type": "bool"
                },
                {
                  "internalType": "uint256",
                  "name": "auxIndex",
                  "type": "uint256"
                },
                {
                  "internalType": "uint256",
                  "name": "auxValue",
                  "type": "uint256"
                }
              ],
              "internalType": "struct IOnchainCredentialStatusResolver.Proof",
              "name": "mtp",
              "type": "tuple"
            }
          ],
          "internalType": "struct IOnchainCredentialStatusResolver.CredentialStatus",
          "name": "",
          "type": "tuple"
        }
      ],
      "stateMutability": "view",
      "type": "function"
    },
    {
      "inputs": [
        {
          "internalType": "uint256",
          "name": "id",
          "type": "uint256"
        },
        {
          "internalType": "uint256",
          "name": "state",
          "type": "uint256"
        },
        {
          "internalType": "uint64",
          "name": "nonce",
          "type": "uint64"
        }
      ],
      "name": "getRevocationStatusByIdAndState",
      "outputs": [
        {
          "components": [
            {
              "components": [
                {
                  "internalType": "uint256",
                  "name": "state",
                  "type": "uint256"
                },
                {
                  "internalType": "uint256",
                  "name": "claimsTreeRoot",
                  "type": "uint256"
                },
                {
                  "internalType": "uint256",
                  "name": "revocationTreeRoot",
                  "type": "uint256"
                },
                {
                  "internalType": "uint256",
                  "name": "rootOfRoots",
                  "type": "uint256"
                }
              ],
              "internalType": "struct IOnchainCredentialStatusResolver.IdentityStateRoots",
              "name": "issuer",
              "type": "tuple"
            },
            {
              "components": [
                {
                  "internalType": "uint256",
                  "name": "root",
                  "type": "uint256"
                },
                {
                  "internalType": "bool",
                  "name": "existence",
                  "type": "bool"
                },
                {
                  "internalType": "uint256[]",
                  "name": "siblings",
                  "type": "uint256[]"
                },
                {
                  "internalType": "uint256",
                  "name": "index",
                  "type": "uint256"
                },
                {
                  "internalType": "uint256",
                  "name": "value",
                  "type": "uint256"
                },
                {
                  "internalType": "bool",
                  "name": "auxExistence",
                  "type": "bool"
                },
                {
                  "internalType": "uint256",
                  "name": "auxIndex",
                  "type": "uint256"
                },
                {
                  "internalType": "uint256",
                  "name": "auxValue",
                  "type": "uint256"
                }
              ],
              "internalType": "struct IOnchainCredentialStatusResolver.Proof",
              "name": "mtp",
              "type": "tuple"
            }
          ],
          "internalType": "struct IOnchainCredentialStatusResolver.CredentialStatus",
          "name": "",
          "type": "tuple"
        }
      ],
      "stateMutability": "view",
      "type": "function"
    },
    {
      "inputs": [],
      "name": "getRevocationsTreeRoot",
      "outputs": [
        {
          "internalType": "uint256",
          "name": "",
          "type": "uint256"
        }
      ],
      "stateMutability": "view",
      "type": "function"
    },
    {
      "inputs": [
        {
          "internalType": "uint256",
          "name": "rootsTreeRoot",
          "type": "uint256"
        }
      ],
      "name": "getRootProof",
      "outputs": [
        {
          "components": [
            {
              "internalType": "uint256",
              "name": "root",
              "type": "uint256"
            },
            {
              "internalType": "bool",
              "name": "existence",
              "type": "bool"
            },
            {
              "internalType": "uint256[]",
              "name": "siblings",
              "type": "uint256[]"
            },
            {
              "internalType": "uint256",
              "name": "index",
              "type": "uint256"
            },
            {
              "internalType": "uint256",
              "name": "value",
              "type": "uint256"
            },
            {
              "internalType": "bool",
              "name": "auxExistence",
              "type": "bool"
            },
            {
              "internalType": "uint256",
              "name": "auxIndex",
              "type": "uint256"
            },
            {
              "internalType": "uint256",
              "name": "auxValue",
              "type": "uint256"
            }
          ],
          "internalType": "struct SmtLib.Proof",
          "name": "",
          "type": "tuple"
        }
      ],
      "stateMutability": "view",
      "type": "function"
    },
    {
      "inputs": [
        {
          "internalType": "uint256",
          "name": "claimsTreeRoot",
          "type": "uint256"
        },
        {
          "internalType": "uint256",
          "name": "root",
          "type": "uint256"
        }
      ],
      "name": "getRootProofByRoot",
      "outputs": [
        {
          "components": [
            {
              "internalType": "uint256",
              "name": "root",
              "type": "uint256"
            },
            {
              "internalType": "bool",
              "name": "existence",
              "type": "bool"
            },
            {
              "internalType": "uint256[]",
              "name": "siblings",
              "type": "uint256[]"
            },
            {
              "internalType": "uint256",
              "name": "index",
              "type": "uint256"
            },
            {
              "internalType": "uint256",
              "name": "value",
              "type": "uint256"
            },
            {
              "internalType": "bool",
              "name": "auxExistence",
              "type": "bool"
            },
            {
              "internalType": "uint256",
              "name": "auxIndex",
              "type": "uint256"
            },
            {
              "internalType": "uint256",
              "name": "auxValue",
              "type": "uint256"
            }
          ],
          "internalType": "struct SmtLib.Proof",
          "name": "",
          "type": "tuple"
        }
      ],
      "stateMutability": "view",
      "type": "function"
    },
    {
      "inputs": [
        {
          "internalType": "uint256",
          "name": "rootsTreeRoot",
          "type": "uint256"
        }
      ],
      "name": "getRootProofWithStateInfo",
      "outputs": [
        {
          "components": [
            {
              "internalType": "uint256",
              "name": "root",
              "type": "uint256"
            },
            {
              "internalType": "bool",
              "name": "existence",
              "type": "bool"
            },
            {
              "internalType": "uint256[]",
              "name": "siblings",
              "type": "uint256[]"
            },
            {
              "internalType": "uint256",
              "name": "index",
              "type": "uint256"
            },
            {
              "internalType": "uint256",
              "name": "value",
              "type": "uint256"
            },
            {
              "internalType": "bool",
              "name": "auxExistence",
              "type": "bool"
            },
            {
              "internalType": "uint256",
              "name": "auxIndex",
              "type": "uint256"
            },
            {
              "internalType": "uint256",
              "name": "auxValue",
              "type": "uint256"
            }
          ],
          "internalType": "struct SmtLib.Proof",
          "name": "",
          "type": "tuple"
        },
        {
          "components": [
            {
              "internalType": "uint256",
              "name": "state",
              "type": "uint256"
            },
            {
              "internalType": "uint256",
              "name": "claimsRoot",
              "type": "uint256"
            },
            {
              "internalType": "uint256",
              "name": "revocationsRoot",
              "type": "uint256"
            },
            {
              "internalType": "uint256",
              "name": "rootsRoot",
              "type": "uint256"
            }
          ],
          "internalType": "struct IdentityLib.StateInfo",
          "name": "",
          "type": "tuple"
        }
      ],
      "stateMutability": "view",
      "type": "function"
    },
    {
      "inputs": [
        {
          "internalType": "uint256",
          "name": "state",
          "type": "uint256"
        }
      ],
      "name": "getRootsByState",
      "outputs": [
        {
          "components": [
            {
              "internalType": "uint256",
              "name": "claimsRoot",
              "type": "uint256"
            },
            {
              "internalType": "uint256",
              "name": "revocationsRoot",
              "type": "uint256"
            },
            {
              "internalType": "uint256",
              "name": "rootsRoot",
              "type": "uint256"
            }
          ],
          "internalType": "struct IdentityLib.Roots",
          "name": "",
          "type": "tuple"
        }
      ],
      "stateMutability": "view",
      "type": "function"
    },
    {
      "inputs": [],
      "name": "getRootsTreeRoot",
      "outputs": [
        {
          "internalType": "uint256",
          "name": "",
          "type": "uint256"
        }
      ],
      "stateMutability": "view",
      "type": "function"
    },
    {
      "inputs": [],
      "name": "getSmtDepth",
      "outputs": [
        {
          "internalType": "uint256",
          "name": "",
          "type": "uint256"
        }
      ],
      "stateMutability": "pure",
      "type": "function"
    },
    {
      "inputs": [],
      "name": "getTemplateRoot",
      "outputs": [
        {
          "internalType": "uint256",
          "name": "",
          "type": "uint256"
        }
      ],
      "stateMutability": "view",
      "type": "function"
    },
    {
      "inputs": [
        {
          "internalType": "address",
          "name": "_stateContractAddr",
          "type": "address"
        },
        {
          "internalType": "bytes2",
          "name": "idType",
          "type": "bytes2"
        }
      ],
      "name": "initialize",
      "outputs": [],
      "stateMutability": "nonpayable",
      "type": "function"
    },
    {
      "inputs": [
        {
          "internalType": "uint256",
          "name": "nullifierSeed",
          "type": "uint256"
        },
        {
          "internalType": "uint256[]",
          "name": "publicKeysHashes",
          "type": "uint256[]"
        },
        {
          "internalType": "uint256",
          "name": "expirationTime",
          "type": "uint256"
        },
        {
          "internalType": "uint256",
          "name": "templateRoot",
          "type": "uint256"
        },
        {
          "internalType": "address",
          "name": "anonAadhaarVerifier",
          "type": "address"
        },
        {
          "internalType": "address",
          "name": "_stateContractAddress",
          "type": "address"
        },
        {
          "internalType": "bytes2",
          "name": "idType",
          "type": "bytes2"
        }
      ],
      "name": "initialize",
      "outputs": [],
      "stateMutability": "nonpayable",
      "type": "function"
    },
    {
      "inputs": [
        {
          "internalType": "uint256",
          "name": "nullifier",
          "type": "uint256"
        }
      ],
      "name": "nullifierExists",
      "outputs": [
        {
          "internalType": "bool",
          "name": "",
          "type": "bool"
        }
      ],
      "stateMutability": "view",
      "type": "function"
    },
    {
      "inputs": [],
      "name": "owner",
      "outputs": [
        {
          "internalType": "address",
          "name": "",
          "type": "address"
        }
      ],
      "stateMutability": "view",
      "type": "function"
    },
    {
      "inputs": [],
      "name": "pendingOwner",
      "outputs": [
        {
          "internalType": "address",
          "name": "",
          "type": "address"
        }
      ],
      "stateMutability": "view",
      "type": "function"
    },
    {
      "inputs": [],
      "name": "proxiableUUID",
      "outputs": [
        {
          "internalType": "bytes32",
          "name": "",
          "type": "bytes32"
        }
      ],
      "stateMutability": "view",
      "type": "function"
    },
    {
      "inputs": [
        {
          "internalType": "uint256",
          "name": "publicKeyHash",
          "type": "uint256"
        }
      ],
      "name": "publicKeyHashExists",
      "outputs": [
        {
          "internalType": "bool",
          "name": "",
          "type": "bool"
        }
      ],
      "stateMutability": "view",
      "type": "function"
    },
    {
      "inputs": [
        {
          "internalType": "uint256",
          "name": "publicKeyHash",
          "type": "uint256"
        }
      ],
      "name": "removePublicKeyHash",
      "outputs": [],
      "stateMutability": "nonpayable",
      "type": "function"
    },
    {
      "inputs": [],
      "name": "renounceOwnership",
      "outputs": [],
      "stateMutability": "nonpayable",
      "type": "function"
    },
    {
      "inputs": [
        {
          "internalType": "uint256",
          "name": "issuerDidHash",
          "type": "uint256"
        }
      ],
      "name": "setIssuerDidHash",
      "outputs": [],
      "stateMutability": "nonpayable",
      "type": "function"
    },
    {
      "inputs": [
        {
          "internalType": "uint256",
          "name": "templateRoot",
          "type": "uint256"
        }
      ],
      "name": "setTemplateRoot",
      "outputs": [],
      "stateMutability": "nonpayable",
      "type": "function"
    },
    {
      "inputs": [
        {
          "components": [
            {
              "internalType": "uint64",
              "name": "requestId",
              "type": "uint64"
            },
            {
              "internalType": "bytes",
              "name": "zkProof",
              "type": "bytes"
            },
            {
              "internalType": "bytes",
              "name": "data",
              "type": "bytes"
            }
          ],
          "internalType": "struct IZKPVerifier.ZKPResponse[]",
          "name": "responses",
          "type": "tuple[]"
        },
        {
          "internalType": "bytes",
          "name": "crossChainProofs",
          "type": "bytes"
        }
      ],
      "name": "submitZKPResponseV2",
      "outputs": [],
      "stateMutability": "nonpayable",
      "type": "function"
    },
    {
      "inputs": [
        {
          "internalType": "bytes4",
          "name": "interfaceId",
          "type": "bytes4"
        }
      ],
      "name": "supportsInterface",
      "outputs": [
        {
          "internalType": "bool",
          "name": "",
          "type": "bool"
        }
      ],
      "stateMutability": "view",
      "type": "function"
    },
    {
      "inputs": [
        {
          "internalType": "address",
          "name": "newOwner",
          "type": "address"
        }
      ],
      "name": "transferOwnership",
      "outputs": [],
      "stateMutability": "nonpayable",
      "type": "function"
    },
    {
      "inputs": [
        {
          "internalType": "address",
          "name": "newImplementation",
          "type": "address"
        },
        {
          "internalType": "bytes",
          "name": "data",
          "type": "bytes"
        }
      ],
      "name": "upgradeToAndCall",
      "outputs": [],
      "stateMutability": "payable",
      "type": "function"
    }
  ],
  "bytecode": "0x60a06040523060805234801561001457600080fd5b5061001d610022565b6100d4565b7ff0c57e16840df040f15088dc2f81fe391c3923bec73e23a9662efc9c229c6a00805468010000000000000000900460ff16156100725760405163f92ee8a960e01b815260040160405180910390fd5b80546001600160401b03908116146100d15780546001600160401b0319166001600160401b0390811782556040519081527fc7f505b2f371ae2175ee4913f4499e1f2633a7b5936321eed1cdaeb6115181d29060200160405180910390a15b50565b6080516131716100fd60003960008181611c9201528181611cbb0152611e3b01526131716000f3fe60806040526004361061027c5760003560e01c8063715018a61161014f578063c1e32733116100c1578063e26ecb0b1161007a578063e26ecb0b1461080b578063e30c39781461082b578063f221b84514610840578063f2fde38b14610860578063f84c7c1e14610880578063ffa1ad741461089557600080fd5b8063c1e327331461074d578063c6365a3b1461076d578063d49d5cdc14610782578063d94b0271146107a2578063da68a0b1146107c2578063e23a845a146107d757600080fd5b8063ad3cb1cc11610113578063ad3cb1cc1461064d578063ade09fcd1461068b578063b354c2d8146106ab578063b37feda4146106cb578063b57a40cb146106eb578063b8db68711461070b57600080fd5b8063715018a6146105c157806379ba5097146105d65780638da5cb5b146105eb5780639674cfa414610618578063aad729211461062d57600080fd5b80633d59ec60116101f35780634f1ef286116101ac5780634f1ef28614610500578063523b81361461051357806352d1902d14610528578063552c9b7e1461053d57806358ada6721461055d5780635d1ca631146105ac57600080fd5b80633d59ec60146104625780633df432fc146104775780633f0c66481461048c578063406e8b4c146104a0578063443d7534146104c05780634c240f34146104e057600080fd5b806313e52ae71161024557806313e52ae71461035a578063264850631461036f5780632afab62f1461039c5780632c1d3204146103ee5780632d5c4f2514610422578063310d0d5b1461044257600080fd5b806233058d1461028157806301c85c77146102b857806301ffc9a7146102db578063035dfdfe1461030b578063110c96a71461032d575b600080fd5b34801561028d57600080fd5b506102a161029c3660046125a6565b6108c6565b6040516102af929190612663565b60405180910390f35b3480156102c457600080fd5b506102cd610993565b6040519081526020016102af565b3480156102e757600080fd5b506102fb6102f63660046126a6565b610a18565b60405190151581526020016102af565b34801561031757600080fd5b5061032b6103263660046126d0565b610a4f565b005b34801561033957600080fd5b5061034d6103483660046126e9565b610ae0565b6040516102af9190612715565b34801561036657600080fd5b506102cd610b0b565b34801561037b57600080fd5b5061038f61038a3660046125a6565b610b23565b6040516102af9190612762565b3480156103a857600080fd5b506102fb6103b73660046126d0565b60009081527fcb4c32479afd0d9095322a3f93b16fa02cb0bf6c78456f30d0d6005caa749706602052604090206002015460ff1690565b3480156103fa57600080fd5b507fcb4c32479afd0d9095322a3f93b16fa02cb0bf6c78456f30d0d6005caa749702546102cd565b34801561042e57600080fd5b5061038f61043d366004612775565b610bbc565b34801561044e57600080fd5b5061038f61045d366004612775565b610c5b565b34801561046e57600080fd5b506102cd610cb2565b34801561048357600080fd5b506102cd610cc5565b34801561049857600080fd5b5060286102cd565b3480156104ac57600080fd5b5061032b6104bb3660046127c6565b610d08565b3480156104cc57600080fd5b506102a16104db3660046126d0565b610da5565b3480156104ec57600080fd5b5061032b6104fb3660046126d0565b610e20565b61032b61050e3660046128f0565b610e8c565b34801561051f57600080fd5b506102cd610eab565b34801561053457600080fd5b506102cd610ebe565b34801561054957600080fd5b5061032b610558366004612988565b610edb565b34801561056957600080fd5b506102fb6105783660046126d0565b60009081527fcb4c32479afd0d9095322a3f93b16fa02cb0bf6c78456f30d0d6005caa749705602052604090205460ff1690565b3480156105b857600080fd5b506102cd610faa565b3480156105cd57600080fd5b5061032b610fb4565b3480156105e257600080fd5b5061032b610fc8565b3480156105f757600080fd5b50610600611015565b6040516001600160a01b0390911681526020016102af565b34801561062457600080fd5b506102cd61104a565b34801561063957600080fd5b5061034d6106483660046129c9565b61105d565b34801561065957600080fd5b5061067e604051806040016040528060058152602001640352e302e360dc1b81525081565b6040516102af9190612a22565b34801561069757600080fd5b5061032b6106a6366004612a78565b611276565b3480156106b757600080fd5b5061032b6106c63660046126d0565b61154d565b3480156106d757600080fd5b506102a16106e63660046126d0565b6115c1565b3480156106f757600080fd5b5061038f6107063660046126d0565b61163c565b34801561071757600080fd5b5061072b6107263660046126d0565b61168a565b60408051825181526020808401519082015291810151908201526060016102af565b34801561075957600080fd5b5061038f6107683660046126d0565b611732565b34801561077957600080fd5b506102cd611782565b34801561078e57600080fd5b5061032b61079d366004612bc0565b611795565b3480156107ae57600080fd5b5061032b6107bd3660046126d0565b61198d565b3480156107ce57600080fd5b506102cd611a76565b3480156107e357600080fd5b507fcb4c32479afd0d9095322a3f93b16fa02cb0bf6c78456f30d0d6005caa749701546102cd565b34801561081757600080fd5b5061038f610826366004612c50565b611ab9565b34801561083757600080fd5b50610600611b18565b34801561084c57600080fd5b5061032b61085b3660046126d0565b611b41565b34801561086c57600080fd5b5061032b61087b366004612c7a565b611bc8565b34801561088c57600080fd5b506102fb611c4d565b3480156108a157600080fd5b5061067e60405180604001604052806005815260200164189718171960d91b81525081565b6108ce6124b5565b6108f96040518060800160405280600081526020016000815260200160008152602001600081525090565b610901611c63565b604051631f17004d60e31b815260048101919091526001600160401b038416602482015273__$068aad146bf104111ba65c4a1de2cd0e23$__9063f8b80268906044015b600060405180830381865af4158015610962573d6000803e3d6000fd5b505050506040513d6000823e601f3d908101601f1916820160405261098a9190810190612dab565b91509150915091565b600061099d611c63565b60405163765c2c6160e01b8152600481019190915273__$068aad146bf104111ba65c4a1de2cd0e23$__9063765c2c61906024015b602060405180830381865af41580156109ef573d6000803e3d6000fd5b505050506040513d601f19601f82011682018060405250810190610a139190612e4f565b905090565b60006001600160e01b03198216635d1ca63160e01b1480610a4957506301ffc9a760e01b6001600160e01b03198316145b92915050565b610a57611c87565b610a5f611d2c565b60008181527fcb4c32479afd0d9095322a3f93b16fa02cb0bf6c78456f30d0d6005caa7497056020908152604091829020805460ff1916600117905590518281526000805160206130fc833981519152917f192522987419be1c06ca88238df20a35b84c7a5025bbf1e244fac876d2d320ee91015b60405180910390a15050565b610ae86124fe565b6000610af2611c63565b600101549050610b0384828561105d565b949350505050565b60006000805160206130fc8339815191525b54919050565b610b2b6124b5565b610b33611c63565b604051637d0aba4f60e01b815260048101919091526001600160401b038316602482015273__$068aad146bf104111ba65c4a1de2cd0e23$__90637d0aba4f906044015b600060405180830381865af4158015610b94573d6000803e3d6000fd5b505050506040513d6000823e601f3d908101601f19168201604052610a499190810190612e68565b610bc46124b5565b610bcc611c63565b60405163d55da6a360e01b81526004810191909152602481018490526044810183905273__$068aad146bf104111ba65c4a1de2cd0e23$__9063d55da6a3906064015b600060405180830381865af4158015610c2c573d6000803e3d6000fd5b505050506040513d6000823e601f3d908101601f19168201604052610c549190810190612e68565b9392505050565b610c636124b5565b610c6b611c63565b604051636ac0c5c760e11b81526004810191909152602481018490526044810183905273__$068aad146bf104111ba65c4a1de2cd0e23$__9063d5818b8e90606401610c0f565b6000610cbc611c63565b60010154919050565b6000610ccf611c63565b604051631b8bf99b60e21b8152600481019190915273__$068aad146bf104111ba65c4a1de2cd0e23$__90636e2fe66c906024016109d2565b610d10611c63565b6040516359a6069160e01b815260048101919091526001600160a01b0383166024820152306044820152602860648201526001600160f01b03198216608482015273__$068aad146bf104111ba65c4a1de2cd0e23$__906359a606919060a4015b60006040518083038186803b158015610d8957600080fd5b505af4158015610d9d573d6000803e3d6000fd5b505050505050565b610dad6124b5565b610dd86040518060800160405280600081526020016000815260200160008152602001600081525090565b610de0611c63565b60405163a3018d7960e01b815260048101919091526024810184905273__$068aad146bf104111ba65c4a1de2cd0e23$__9063a3018d7990604401610945565b610e28611d2c565b7fcb4c32479afd0d9095322a3f93b16fa02cb0bf6c78456f30d0d6005caa7497038190556040518181526000805160206130fc833981519152907fb69b4c35c29def0ac05e4ac2258986b58de5ae03feeea1802c95f4e0b5794cf190602001610ad4565b610e94611c87565b610e9d82611d5e565b610ea78282611d6e565b5050565b6000610eb5611c63565b609a0154919050565b6000610ec8611e30565b5060008051602061311c83398151915290565b610ee3611c87565b610eeb611d2c565b6000805160206130fc83398151915260005b82811015610fa4576001826005016000868685818110610f1f57610f1f612e9c565b90506020020135815260200190815260200160002060006101000a81548160ff0219169083151502179055507f192522987419be1c06ca88238df20a35b84c7a5025bbf1e244fac876d2d320ee848483818110610f7e57610f7e612e9c565b90506020020135604051610f9491815260200190565b60405180910390a1600101610efd565b50505050565b6000610b1d611c63565b610fbc611d2c565b610fc66000611e79565b565b3380610fd2611b18565b6001600160a01b0316146110095760405163118cdaa760e01b81526001600160a01b03821660048201526024015b60405180910390fd5b61101281611e79565b50565b6000807f9016d09d72d40fdae2fd8ceac6b6234c7706214fd39c1cd1e609a0528c1993005b546001600160a01b031692915050565b6000611054611c63565b609b0154919050565b6110656124fe565b61106d611c63565b5484146110b35760405162461bcd60e51b8152602060048201526014602482015273092c8cadce8d2e8f240d2c840dad2e6dac2e8c6d60631b6044820152606401611000565b60006110bd611c63565b604051630b1a9cd360e01b815260048101919091526024810185905273__$068aad146bf104111ba65c4a1de2cd0e23$__90630b1a9cd390604401606060405180830381865af4158015611115573d6000803e3d6000fd5b505050506040513d601f19601f820116820180604052508101906111399190612eb2565b60408051608081018252868152825160208083019190915283015181830152908201516060820152909150600061116e611c63565b6020840151604051630b2bcd1b60e11b815260048101929092526001600160401b0387166024830152604482015273__$068aad146bf104111ba65c4a1de2cd0e23$__906316579a3690606401600060405180830381865af41580156111d8573d6000803e3d6000fd5b505050506040513d6000823e601f3d908101601f191682016040526112009190810190612e68565b6040805161010081018252825181526020808401511515818301528284015182840152606080850151908301526080808501519083015260a08085015115159083015260c0808501519083015260e093840151938201939093528151808301909252938152908101929092525095945050505050565b81516001146112a5578151604051630264a11560e21b8152600481019190915260016024820152604401611000565b600080600080856000815181106112be576112be612e9c565b6020026020010151602001518060200190518101906112dd9190612f41565b9350935093509350600060405180608001604052808581526020018481526020018381526020016040518061014001604052808860008151811061132357611323612e9c565b602002602001015181526020018860018151811061134357611343612e9c565b602002602001015181526020018860028151811061136357611363612e9c565b602002602001015181526020018860038151811061138357611383612e9c565b60200260200101518152602001886004815181106113a3576113a3612e9c565b60200260200101518152602001886005815181106113c3576113c3612e9c565b60200260200101518152602001886006815181106113e3576113e3612e9c565b602002602001015181526020018860078151811061140357611403612e9c565b602002602001015181526020018860088151811061142357611423612e9c565b602002602001015181526020018860098151811061144357611443612e9c565b60200260200101518152508152509050600061146a6000805160206130fc83398151915290565b60048101549091506001600160a01b031680611499576040516301dcf1ab60e31b815260040160405180910390fd5b806001600160a01b031663f3bb70f684600001518560200151866040015187606001516040518563ffffffff1660e01b81526004016114db949392919061301e565b602060405180830381865afa1580156114f8573d6000803e3d6000fd5b505050506040513d601f19601f8201168201806040525081019061151c91906130a3565b6115395760405163b4b32e6f60e01b815260040160405180910390fd5b61154283611eb1565b505050505050505050565b611555611c87565b61155d611d2c565b7fcb4c32479afd0d9095322a3f93b16fa02cb0bf6c78456f30d0d6005caa7497028190556040518181526000805160206130fc833981519152907ff007a02ba428e63fa98b65269e70f9a9db847e0a839049a2f31f06928226773490602001610ad4565b6115c96124b5565b6115f46040518060800160405280600081526020016000815260200160008152602001600081525090565b6115fc611c63565b604051636ad1d8a760e11b815260048101919091526024810184905273__$068aad146bf104111ba65c4a1de2cd0e23$__9063d5a3b14e90604401610945565b6116446124b5565b61164c611c63565b604051620cf08960e41b815260048101919091526024810183905273__$068aad146bf104111ba65c4a1de2cd0e23$__9062cf089090604401610b77565b6116ae60405180606001604052806000815260200160008152602001600081525090565b6116b6611c63565b604051630b1a9cd360e01b815260048101919091526024810183905273__$068aad146bf104111ba65c4a1de2cd0e23$__90630b1a9cd390604401606060405180830381865af415801561170e573d6000803e3d6000fd5b505050506040513d601f19601f82011682018060405250810190610a499190612eb2565b61173a6124b5565b611742611c63565b6040516397ac539160e01b815260048101919091526024810183905273__$068aad146bf104111ba65c4a1de2cd0e23$__906397ac539190604401610b77565b600061178c611c63565b609c0154919050565b600061179f611f8a565b805490915060ff600160401b82041615906001600160401b03166000811580156117c65750825b90506000826001600160401b031660011480156117e25750303b155b9050811580156117f0575080155b1561180e5760405163f92ee8a960e01b815260040160405180910390fd5b845467ffffffffffffffff19166001178555831561183857845460ff60401b1916600160401b1785555b6001600160a01b03881661185f5760405163043103a360e21b815260040160405180910390fd5b6001600160a01b03871661188657604051637eb887b360e01b815260040160405180910390fd5b6118908787610d08565b61189933611fb3565b6000805160206130fc8339815191528d81557fcb4c32479afd0d9095322a3f93b16fa02cb0bf6c78456f30d0d6005caa7497018b90557fcb4c32479afd0d9095322a3f93b16fa02cb0bf6c78456f30d0d6005caa7497028a90557fcb4c32479afd0d9095322a3f93b16fa02cb0bf6c78456f30d0d6005caa74970480546001600160a01b0319166001600160a01b038b161790556119378d8d610edb565b50831561197e57845460ff60401b19168555604051600181527fc7f505b2f371ae2175ee4913f4499e1f2633a7b5936321eed1cdaeb6115181d29060200160405180910390a15b50505050505050505050505050565b611995611c87565b61199d611d2c565b60008181527fcb4c32479afd0d9095322a3f93b16fa02cb0bf6c78456f30d0d6005caa74970660205260409020600201546000805160206130fc8339815191529060ff166119fe576040516327522baf60e01b815260040160405180910390fd5b6040805160608101825260008082526020808301828152838501838152878452600687018352928590209351845551600184015590516002909201805460ff19169215159290921790915590518381527fcc6269876e2c1958f569ca2e926ed364e2965636d111ad426270b6855f5a7e6a9101610ad4565b6000611a80611c63565b604051631e75e7f360e01b8152600481019190915273__$068aad146bf104111ba65c4a1de2cd0e23$__90631e75e7f3906024016109d2565b611ac16124b5565b611ac9611c63565b604051630b2bcd1b60e11b815260048101919091526001600160401b03841660248201526044810183905273__$068aad146bf104111ba65c4a1de2cd0e23$__906316579a3690606401610c0f565b6000807f237e158222e3e6968b72b9db0d8043aacf074ad9f650f0d1606b4d82ee432c0061103a565b611b49611c87565b611b51611d2c565b60008181527fcb4c32479afd0d9095322a3f93b16fa02cb0bf6c78456f30d0d6005caa74970560205260409020546000805160206130fc8339815191529060ff16611baf576040516356b6133160e11b815260040160405180910390fd5b600091825260050160205260409020805460ff19169055565b611bd0611d2c565b7f237e158222e3e6968b72b9db0d8043aacf074ad9f650f0d1606b4d82ee432c0080546001600160a01b0319166001600160a01b0383169081178255611c14611015565b6001600160a01b03167f38d16b8cac22d99fc7c124b9cd0de2d3fa1faef420bfe791d8c362d765e2270060405160405180910390a35050565b6000611c57611c63565b6002015460ff16919050565b7f3018a310c36c4f8228f09bf3b1822685cf0971daa8265a58ca807c4a4daba40090565b306001600160a01b037f0000000000000000000000000000000000000000000000000000000000000000161480611d0e57507f00000000000000000000000000000000000000000000000000000000000000006001600160a01b0316611d0260008051602061311c833981519152546001600160a01b031690565b6001600160a01b031614155b15610fc65760405163703e46dd60e11b815260040160405180910390fd5b33611d35611015565b6001600160a01b031614610fc65760405163118cdaa760e01b8152336004820152602401611000565b611d66611c87565b611012611d2c565b816001600160a01b03166352d1902d6040518163ffffffff1660e01b8152600401602060405180830381865afa925050508015611dc8575060408051601f3d908101601f19168201909252611dc591810190612e4f565b60015b611df057604051634c9c8ce360e01b81526001600160a01b0383166004820152602401611000565b60008051602061311c8339815191528114611e2157604051632a87526960e21b815260048101829052602401611000565b611e2b8383611fc4565b505050565b306001600160a01b037f00000000000000000000000000000000000000000000000000000000000000001614610fc65760405163703e46dd60e11b815260040160405180910390fd5b7f237e158222e3e6968b72b9db0d8043aacf074ad9f650f0d1606b4d82ee432c0080546001600160a01b0319168155610ea78261201a565b60608181015180516020820151604083015193830151608084015160a085015160c086015160e0870151610100880151610120909801519698959795969495939492939192909190611f0a88888b8d888b8b898961208b565b6040805160608101825289815260208082018a8152600183850181815260008f81527fcb4c32479afd0d9095322a3f93b16fa02cb0bf6c78456f30d0d6005caa7497069094529490922092518355519082015590516002909101805460ff1916911515919091179055611f7d888861220a565b5050505050505050505050565b6000807ff0c57e16840df040f15088dc2f81fe391c3923bec73e23a9662efc9c229c6a00610a49565b611fbb6122c5565b611012816122ea565b611fcd8261231c565b6040516001600160a01b038316907fbc7cd75a20ee27fd9adebab32041f755214dbc6bffa90cc0225b39da2e5c2d3b90600090a280511561201257611e2b8282612381565b610ea76123f7565b7f9016d09d72d40fdae2fd8ceac6b6234c7706214fd39c1cd1e609a0528c19930080546001600160a01b031981166001600160a01b03848116918217845560405192169182907f8be0079c531659141344cd1fd0a4f28419497f9722a3daafe3b4186f6b6457e090600090a3505050565b6000805160206130fc83398151915260008a90036120bc57604051634978c15760e11b815260040160405180910390fd5b886000036120dd57604051639d34ba4f60e01b815260040160405180910390fd5b805486146120fe5760405163d2cee05560e01b815260040160405180910390fd5b80600201548314612122576040516381d6039360e01b815260040160405180910390fd5b806003015482146121465760405163fe0c887b60e01b815260040160405180910390fd5b600081600101548661215891906130be565b905080851461218457604051633abb8c7960e11b81526004810182905260248101869052604401611000565b4285116121a45760405163b67a771360e01b815260040160405180910390fd5b600088815260058301602052604090205460ff166121d5576040516356b6133160e11b815260040160405180910390fd5b600089815260068301602052604090206002015460ff1615611f7d57604051639338373760e01b815260040160405180910390fd5b612212611c63565b6040516306fb157560e01b81526004810191909152602481018390526044810182905273__$068aad146bf104111ba65c4a1de2cd0e23$__906306fb15759060640160006040518083038186803b15801561226c57600080fd5b505af4158015612280573d6000803e3d6000fd5b5050505061228c611c63565b60405163175ba3e960e11b8152600481019190915273__$068aad146bf104111ba65c4a1de2cd0e23$__90632eb747d290602401610d71565b6122cd612416565b610fc657604051631afcd79f60e31b815260040160405180910390fd5b6122f26122c5565b6001600160a01b03811661100957604051631e4fbdf760e01b815260006004820152602401611000565b806001600160a01b03163b60000361235257604051634c9c8ce360e01b81526001600160a01b0382166004820152602401611000565b60008051602061311c83398151915280546001600160a01b0319166001600160a01b0392909216919091179055565b6060600080846001600160a01b03168460405161239e91906130df565b600060405180830381855af49150503d80600081146123d9576040519150601f19603f3d011682016040523d82523d6000602084013e6123de565b606091505b50915091506123ee858383612430565b95945050505050565b3415610fc65760405163b398979f60e01b815260040160405180910390fd5b6000612420611f8a565b54600160401b900460ff16919050565b606082612445576124408261248c565b610c54565b815115801561245c57506001600160a01b0384163b155b1561248557604051639996b31560e01b81526001600160a01b0385166004820152602401611000565b5080610c54565b80511561249c5780518082602001fd5b60405163d6bda27560e01b815260040160405180910390fd5b6040518061010001604052806000815260200160001515815260200160608152602001600081526020016000815260200160001515815260200160008152602001600081525090565b60405180604001604052806125346040518060800160405280600081526020016000815260200160008152602001600081525090565b81526020016125856040518061010001604052806000815260200160001515815260200160608152602001600081526020016000815260200160001515815260200160008152602001600081525090565b905290565b80356001600160401b03811681146125a157600080fd5b919050565b6000602082840312156125b857600080fd5b610c548261258a565b805182526020808201511515818401526040808301516101009185018290528051918501829052600092019082906101208601905b8083101561261957835182526020820191506020840193506001830192506125f6565b50606085015160608701526080850151608087015260a0850151925061264360a087018415159052565b60c085015160c087015260e085015160e087015280935050505092915050565b60a08152600061267660a08301856125c1565b9050610c546020830184805182526020810151602083015260408101516040830152606081015160608301525050565b6000602082840312156126b857600080fd5b81356001600160e01b031981168114610c5457600080fd5b6000602082840312156126e257600080fd5b5035919050565b600080604083850312156126fc57600080fd5b8235915061270c6020840161258a565b90509250929050565b60208152612748602082018351805182526020810151602083015260408101516040830152606081015160608301525050565b6000602083015160a080840152610b0360c08401826125c1565b602081526000610c5460208301846125c1565b6000806040838503121561278857600080fd5b50508035926020909101359150565b80356001600160a01b03811681146125a157600080fd5b80356001600160f01b0319811681146125a157600080fd5b600080604083850312156127d957600080fd5b6127e283612797565b915061270c602084016127ae565b634e487b7160e01b600052604160045260246000fd5b604051606081016001600160401b0381118282101715612828576128286127f0565b60405290565b60405161010081016001600160401b0381118282101715612828576128286127f0565b604051601f8201601f191681016001600160401b0381118282101715612879576128796127f0565b604052919050565b600082601f83011261289257600080fd5b81356001600160401b038111156128ab576128ab6127f0565b6128be601f8201601f1916602001612851565b8181528460208386010111156128d357600080fd5b816020850160208301376000918101602001919091529392505050565b6000806040838503121561290357600080fd5b61290c83612797565b915060208301356001600160401b0381111561292757600080fd5b61293385828601612881565b9150509250929050565b60008083601f84011261294f57600080fd5b5081356001600160401b0381111561296657600080fd5b6020830191508360208260051b850101111561298157600080fd5b9250929050565b6000806020838503121561299b57600080fd5b82356001600160401b038111156129b157600080fd5b6129bd8582860161293d565b90969095509350505050565b6000806000606084860312156129de57600080fd5b83359250602084013591506129f56040850161258a565b90509250925092565b60005b83811015612a19578181015183820152602001612a01565b50506000910152565b6020815260008251806020840152612a418160408501602087016129fe565b601f01601f19169190910160400192915050565b60006001600160401b03821115612a6e57612a6e6127f0565b5060051b60200190565b60008060408385031215612a8b57600080fd5b82356001600160401b03811115612aa157600080fd5b8301601f81018513612ab257600080fd5b8035612ac5612ac082612a55565b612851565b8082825260208201915060208360051b850101925087831115612ae757600080fd5b602084015b83811015612ba15780356001600160401b03811115612b0a57600080fd5b85016060818b03601f19011215612b2057600080fd5b612b28612806565b612b346020830161258a565b815260408201356001600160401b03811115612b4f57600080fd5b612b5e8c602083860101612881565b60208301525060608201356001600160401b03811115612b7d57600080fd5b612b8c8c602083860101612881565b60408301525084525060209283019201612aec565b50945050505060208301356001600160401b0381111561292757600080fd5b60008060008060008060008060e0898b031215612bdc57600080fd5b8835975060208901356001600160401b03811115612bf957600080fd5b612c058b828c0161293d565b9098509650506040890135945060608901359350612c2560808a01612797565b9250612c3360a08a01612797565b9150612c4160c08a016127ae565b90509295985092959890939650565b60008060408385031215612c6357600080fd5b612c6c8361258a565b946020939093013593505050565b600060208284031215612c8c57600080fd5b610c5482612797565b805180151581146125a157600080fd5b600082601f830112612cb657600080fd5b8151612cc4612ac082612a55565b8082825260208201915060208360051b860101925085831115612ce657600080fd5b602085015b83811015612d03578051835260209283019201612ceb565b5095945050505050565b60006101008284031215612d2057600080fd5b612d2861282e565b825181529050612d3a60208301612c95565b602082015260408201516001600160401b03811115612d5857600080fd5b612d6484828501612ca5565b6040830152506060828101519082015260808083015190820152612d8a60a08301612c95565b60a082015260c0828101519082015260e09182015191810191909152919050565b60008082840360a0811215612dbf57600080fd5b83516001600160401b03811115612dd557600080fd5b612de186828701612d0d565b9350506080601f1982011215612df657600080fd5b50604051608081016001600160401b0381118282101715612e1957612e196127f0565b60409081526020858101518352858201519083015260608086015191830191909152608090940151938101939093525092909150565b600060208284031215612e6157600080fd5b5051919050565b600060208284031215612e7a57600080fd5b81516001600160401b03811115612e9057600080fd5b610b0384828501612d0d565b634e487b7160e01b600052603260045260246000fd5b60006060828403128015612ec557600080fd5b50612ece612806565b82518152602080840151908201526040928301519281019290925250919050565b600082601f830112612f0057600080fd5b612f0a6040612851565b806040840185811115612f1c57600080fd5b845b81811015612f36578051845260209384019301612f1e565b509095945050505050565b6000806000806101208587031215612f5857600080fd5b84516001600160401b03811115612f6e57600080fd5b612f7a87828801612ca5565b945050612f8a8660208701612eef565b925085607f860112612f9b57600080fd5b6040612fa681612851565b8060e0880189811115612fb857600080fd5b606089015b81811015612fde57612fcf8b82612eef565b84526020909301928401612fbd565b50819550612fec8a82612eef565b94505050505092959194509250565b8060005b6002811015610fa4578151845260209384019390910190600101612fff565b610240810161302d8287612ffb565b604082018560005b600281101561305f57613049838351612ffb565b6040929092019160209190910190600101613035565b50505061306f60c0830185612ffb565b61010082018360005b600a811015613097578151835260209283019290910190600101613078565b50505095945050505050565b6000602082840312156130b557600080fd5b610c5482612c95565b80820180821115610a4957634e487b7160e01b600052601160045260246000fd5b600082516130f18184602087016129fe565b919091019291505056fecb4c32479afd0d9095322a3f93b16fa02cb0bf6c78456f30d0d6005caa749700360894a13ba1a3210667c828492db98dca3e2076cc3735a920a3ca505d382bbca26469706673582212202b71102ec4d4373567015145a69558be1fc2d4dce38cda490bce9aabe718464a64736f6c634300081b0033",
  "linkReferences": {
    "@iden3/contracts/lib/IdentityLib.sol": {
      "IdentityLib": [
        {
          "length": 20,
          "start": 2596
        },
        {
          "length": 20,
          "start": 2737
        },
        {
          "length": 20,
          "start": 3158
        },
        {
          "length": 20,
          "start": 3310
        },
        {
          "length": 20,
          "start": 3469
        },
        {
          "length": 20,
          "start": 3555
        },
        {
          "length": 20,
          "start": 3664
        },
        {
          "length": 20,
          "start": 3835
        },
        {
          "length": 20,
          "start": 4568
        },
        {
          "length": 20,
          "start": 4763
        },
        {
          "length": 20,
          "start": 5911
        },
        {
          "length": 20,
          "start": 5990
        },
        {
          "length": 20,
          "start": 6097
        },
        {
          "length": 20,
          "start": 6237
        },
        {
          "length": 20,
          "start": 7060
        },
        {
          "length": 20,
          "start": 7155
        },
        {
          "length": 20,
          "start": 9012
        },
        {
          "length": 20,
          "start": 9120
        }
      ]
    }
  },
  "deployedLinkReferences": {
    "@iden3/contracts/lib/IdentityLib.sol": {
      "IdentityLib": [
        {
          "length": 20,
          "start": 2343
        },
        {
          "length": 20,
          "start": 2484
        },
        {
          "length": 20,
          "start": 2905
        },
        {
          "length": 20,
          "start": 3057
        },
        {
          "length": 20,
          "start": 3216
        },
        {
          "length": 20,
          "start": 3302
        },
        {
          "length": 20,
          "start": 3411
        },
        {
          "length": 20,
          "start": 3582
        },
        {
          "length": 20,
          "start": 4315
        },
        {
          "length": 20,
          "start": 4510
        },
        {
          "length": 20,
          "start": 5658
        },
        {
          "length": 20,
          "start": 5737
        },
        {
          "length": 20,
          "start": 5844
        },
        {
          "length": 20,
          "start": 5984
        },
        {
          "length": 20,
          "start": 6807
        },
        {
          "length": 20,
          "start": 6902
        },
        {
          "length": 20,
          "start": 8759
        },
        {
          "length": 20,
          "start": 8867
        }
      ]
    }
  }
}