{
  "_format": "hh-sol-artifact-1",
  "contractName": "AnonAadhaarCredentialIssuerImplV1",
  "sourceName": "contracts/verifiers/AnonAadhaarCredentialIssuerImplV1.sol",
  "abi": [
    {
      "inputs": [],
      "stateMutability": "nonpayable",
      "type": "constructor"
    },
    {
      "inputs": [
        {
          "internalType": "address",
          "name": "target",
          "type": "address"
        }
      ],
      "name": "AddressEmptyCode",
      "type": "error"
    },
    {
      "inputs": [
        {
          "internalType": "address",
          "name": "implementation",
          "type": "address"
        }
      ],
      "name": "ERC1967InvalidImplementation",
      "type": "error"
    },
    {
      "inputs": [],
      "name": "ERC1967NonPayable",
      "type": "error"
    },
    {
      "inputs": [],
      "name": "FailedCall",
      "type": "error"
    },
    {
      "inputs": [],
      "name": "InvalidAnonAadhaarProof",
      "type": "error"
    },
    {
      "inputs": [
        {
          "internalType": "uint256",
          "name": "expected",
          "type": "uint256"
        },
        {
          "internalType": "uint256",
          "name": "provided",
          "type": "uint256"
        }
      ],
      "name": "InvalidExpirationDate",
      "type": "error"
    },
    {
      "inputs": [],
      "name": "InvalidHashIndex",
      "type": "error"
    },
    {
      "inputs": [],
      "name": "InvalidHashValue",
      "type": "error"
    },
    {
      "inputs": [],
      "name": "InvalidInitialization",
      "type": "error"
    },
    {
      "inputs": [],
      "name": "InvalidIssuerDidHash",
      "type": "error"
    },
    {
      "inputs": [],
      "name": "InvalidNullifierSeed",
      "type": "error"
    },
    {
      "inputs": [],
      "name": "InvalidPubKeyHash",
      "type": "error"
    },
    {
      "inputs": [
        {
          "internalType": "uint256",
          "name": "length",
          "type": "uint256"
        },
        {
          "internalType": "uint256",
          "name": "expectedLength",
          "type": "uint256"
        }
      ],
      "name": "InvalidResponsesLength",
      "type": "error"
    },
    {
      "inputs": [],
      "name": "InvalidStateContractAddress",
      "type": "error"
    },
    {
      "inputs": [],
      "name": "InvalidTemplateRoot",
      "type": "error"
    },
    {
      "inputs": [],
      "name": "InvalidVerifierAddress",
      "type": "error"
    },
    {
      "inputs": [],
      "name": "NoVerifierSet",
      "type": "error"
    },
    {
      "inputs": [],
      "name": "NotInitializing",
      "type": "error"
    },
    {
      "inputs": [],
      "name": "NullifierAlreadyExists",
      "type": "error"
    },
    {
      "inputs": [],
      "name": "NullifierDoesNotExist",
      "type": "error"
    },
    {
      "inputs": [
        {
          "internalType": "address",
          "name": "owner",
          "type": "address"
        }
      ],
      "name": "OwnableInvalidOwner",
      "type": "error"
    },
    {
      "inputs": [
        {
          "internalType": "address",
          "name": "account",
          "type": "address"
        }
      ],
      "name": "OwnableUnauthorizedAccount",
      "type": "error"
    },
    {
      "inputs": [],
      "name": "ProofExpired",
      "type": "error"
    },
    {
      "inputs": [],
      "name": "UUPSUnauthorizedCallContext",
      "type": "error"
    },
    {
      "inputs": [
        {
          "internalType": "bytes32",
          "name": "slot",
          "type": "bytes32"
        }
      ],
      "name": "UUPSUnsupportedProxiableUUID",
      "type": "error"
    },
    {
      "anonymous": false,
      "inputs": [
        {
          "indexed": false,
          "internalType": "uint64",
          "name": "version",
          "type": "uint64"
        }
      ],
      "name": "Initialized",
      "type": "event"
    },
    {
      "anonymous": false,
      "inputs": [
        {
          "indexed": false,
          "internalType": "uint256",
          "name": "issuerDidHash",
          "type": "uint256"
        }
      ],
      "name": "IssuerDidHashUpdated",
      "type": "event"
    },
    {
      "anonymous": false,
      "inputs": [
        {
          "indexed": false,
          "internalType": "uint256",
          "name": "nullifier",
          "type": "uint256"
        }
      ],
      "name": "NullifierCleaned",
      "type": "event"
    },
    {
      "anonymous": false,
      "inputs": [
        {
          "indexed": true,
          "internalType": "address",
          "name": "previousOwner",
          "type": "address"
        },
        {
          "indexed": true,
          "internalType": "address",
          "name": "newOwner",
          "type": "address"
        }
      ],
      "name": "OwnershipTransferStarted",
      "type": "event"
    },
    {
      "anonymous": false,
      "inputs": [
        {
          "indexed": true,
          "internalType": "address",
          "name": "previousOwner",
          "type": "address"
        },
        {
          "indexed": true,
          "internalType": "address",
          "name": "newOwner",
          "type": "address"
        }
      ],
      "name": "OwnershipTransferred",
      "type": "event"
    },
    {
      "anonymous": false,
      "inputs": [
        {
          "indexed": false,
          "internalType": "uint256",
          "name": "publicKeyHash",
          "type": "uint256"
        }
      ],
      "name": "PublicKeyHashAdded",
      "type": "event"
    },
    {
      "anonymous": false,
      "inputs": [
        {
          "indexed": false,
          "internalType": "uint256",
          "name": "templateRoot",
          "type": "uint256"
        }
      ],
      "name": "TemplateRootUpdated",
      "type": "event"
    },
    {
      "anonymous": false,
      "inputs": [
        {
          "indexed": true,
          "internalType": "address",
          "name": "implementation",
          "type": "address"
        }
      ],
      "name": "Upgraded",
      "type": "event"
    },
    {
      "inputs": [],
      "name": "UPGRADE_INTERFACE_VERSION",
      "outputs": [
        {
          "internalType": "string",
          "name": "",
          "type": "string"
        }
      ],
      "stateMutability": "view",
      "type": "function"
    },
    {
      "inputs": [],
      "name": "VERSION",
      "outputs": [
        {
          "internalType": "string",
          "name": "",
          "type": "string"
        }
      ],
      "stateMutability": "view",
      "type": "function"
    },
    {
      "inputs": [],
      "name": "acceptOwnership",
      "outputs": [],
      "stateMutability": "nonpayable",
      "type": "function"
    },
    {
      "inputs": [
        {
          "internalType": "uint256",
          "name": "publicKeyHash",
          "type": "uint256"
        }
      ],
      "name": "addPublicKeyHash",
      "outputs": [],
      "stateMutability": "nonpayable",
      "type": "function"
    },
    {
      "inputs": [
        {
          "internalType": "uint256[]",
          "name": "publicKeysHashes",
          "type": "uint256[]"
        }
      ],
      "name": "addPublicKeyHashesBatch",
      "outputs": [],
      "stateMutability": "nonpayable",
      "type": "function"
    },
    {
      "inputs": [
        {
          "internalType": "uint256",
          "name": "nullifier",
          "type": "uint256"
        }
      ],
      "name": "cleanNullifier",
      "outputs": [],
      "stateMutability": "nonpayable",
      "type": "function"
    },
    {
      "inputs": [
        {
          "internalType": "uint256",
          "name": "claimIndexHash",
          "type": "uint256"
        }
      ],
      "name": "getClaimProof",
      "outputs": [
        {
          "components": [
            {
              "internalType": "uint256",
              "name": "root",
              "type": "uint256"
            },
            {
              "internalType": "bool",
              "name": "existence",
              "type": "bool"
            },
            {
              "internalType": "uint256[]",
              "name": "siblings",
              "type": "uint256[]"
            },
            {
              "internalType": "uint256",
              "name": "index",
              "type": "uint256"
            },
            {
              "internalType": "uint256",
              "name": "value",
              "type": "uint256"
            },
            {
              "internalType": "bool",
              "name": "auxExistence",
              "type": "bool"
            },
            {
              "internalType": "uint256",
              "name": "auxIndex",
              "type": "uint256"
            },
            {
              "internalType": "uint256",
              "name": "auxValue",
              "type": "uint256"
            }
          ],
          "internalType": "struct SmtLib.Proof",
          "name": "",
          "type": "tuple"
        }
      ],
      "stateMutability": "view",
      "type": "function"
    },
    {
      "inputs": [
        {
          "internalType": "uint256",
          "name": "claimIndexHash",
          "type": "uint256"
        },
        {
          "internalType": "uint256",
          "name": "root",
          "type": "uint256"
        }
      ],
      "name": "getClaimProofByRoot",
      "outputs": [
        {
          "components": [
            {
              "internalType": "uint256",
              "name": "root",
              "type": "uint256"
            },
            {
              "internalType": "bool",
              "name": "existence",
              "type": "bool"
            },
            {
              "internalType": "uint256[]",
              "name": "siblings",
              "type": "uint256[]"
            },
            {
              "internalType": "uint256",
              "name": "index",
              "type": "uint256"
            },
            {
              "internalType": "uint256",
              "name": "value",
              "type": "uint256"
            },
            {
              "internalType": "bool",
              "name": "auxExistence",
              "type": "bool"
            },
            {
              "internalType": "uint256",
              "name": "auxIndex",
              "type": "uint256"
            },
            {
              "internalType": "uint256",
              "name": "auxValue",
              "type": "uint256"
            }
          ],
          "internalType": "struct SmtLib.Proof",
          "name": "",
          "type": "tuple"
        }
      ],
      "stateMutability": "view",
      "type": "function"
    },
    {
      "inputs": [
        {
          "internalType": "uint256",
          "name": "claimIndexHash",
          "type": "uint256"
        }
      ],
      "name": "getClaimProofWithStateInfo",
      "outputs": [
        {
          "components": [
            {
              "internalType": "uint256",
              "name": "root",
              "type": "uint256"
            },
            {
              "internalType": "bool",
              "name": "existence",
              "type": "bool"
            },
            {
              "internalType": "uint256[]",
              "name": "siblings",
              "type": "uint256[]"
            },
            {
              "internalType": "uint256",
              "name": "index",
              "type": "uint256"
            },
            {
              "internalType": "uint256",
              "name": "value",
              "type": "uint256"
            },
            {
              "internalType": "bool",
              "name": "auxExistence",
              "type": "bool"
            },
            {
              "internalType": "uint256",
              "name": "auxIndex",
              "type": "uint256"
            },
            {
              "internalType": "uint256",
              "name": "auxValue",
              "type": "uint256"
            }
          ],
          "internalType": "struct SmtLib.Proof",
          "name": "",
          "type": "tuple"
        },
        {
          "components": [
            {
              "internalType": "uint256",
              "name": "state",
              "type": "uint256"
            },
            {
              "internalType": "uint256",
              "name": "claimsRoot",
              "type": "uint256"
            },
            {
              "internalType": "uint256",
              "name": "revocationsRoot",
              "type": "uint256"
            },
            {
              "internalType": "uint256",
              "name": "rootsRoot",
              "type": "uint256"
            }
          ],
          "internalType": "struct IdentityLib.StateInfo",
          "name": "",
          "type": "tuple"
        }
      ],
      "stateMutability": "view",
      "type": "function"
    },
    {
      "inputs": [],
      "name": "getClaimsTreeRoot",
      "outputs": [
        {
          "internalType": "uint256",
          "name": "",
          "type": "uint256"
        }
      ],
      "stateMutability": "view",
      "type": "function"
    },
    {
      "inputs": [],
      "name": "getExpirationTime",
      "outputs": [
        {
          "internalType": "uint256",
          "name": "",
          "type": "uint256"
        }
      ],
      "stateMutability": "view",
      "type": "function"
    },
    {
      "inputs": [],
      "name": "getId",
      "outputs": [
        {
          "internalType": "uint256",
          "name": "",
          "type": "uint256"
        }
      ],
      "stateMutability": "view",
      "type": "function"
    },
    {
      "inputs": [],
      "name": "getIsOldStateGenesis",
      "outputs": [
        {
          "internalType": "bool",
          "name": "",
          "type": "bool"
        }
      ],
      "stateMutability": "view",
      "type": "function"
    },
    {
      "inputs": [],
      "name": "getLatestPublishedClaimsRoot",
      "outputs": [
        {
          "internalType": "uint256",
          "name": "",
          "type": "uint256"
        }
      ],
      "stateMutability": "view",
      "type": "function"
    },
    {
      "inputs": [],
      "name": "getLatestPublishedRevocationsRoot",
      "outputs": [
        {
          "internalType": "uint256",
          "name": "",
          "type": "uint256"
        }
      ],
      "stateMutability": "view",
      "type": "function"
    },
    {
      "inputs": [],
      "name": "getLatestPublishedRootsRoot",
      "outputs": [
        {
          "internalType": "uint256",
          "name": "",
          "type": "uint256"
        }
      ],
      "stateMutability": "view",
      "type": "function"
    },
    {
      "inputs": [],
      "name": "getLatestPublishedState",
      "outputs": [
        {
          "internalType": "uint256",
          "name": "",
          "type": "uint256"
        }
      ],
      "stateMutability": "view",
      "type": "function"
    },
    {
      "inputs": [],
      "name": "getNullifierSeed",
      "outputs": [
        {
          "internalType": "uint256",
          "name": "",
          "type": "uint256"
        }
      ],
      "stateMutability": "view",
      "type": "function"
    },
    {
      "inputs": [
        {
          "internalType": "uint64",
          "name": "revocationNonce",
          "type": "uint64"
        }
      ],
      "name": "getRevocationProof",
      "outputs": [
        {
          "components": [
            {
              "internalType": "uint256",
              "name": "root",
              "type": "uint256"
            },
            {
              "internalType": "bool",
              "name": "existence",
              "type": "bool"
            },
            {
              "internalType": "uint256[]",
              "name": "siblings",
              "type": "uint256[]"
            },
            {
              "internalType": "uint256",
              "name": "index",
              "type": "uint256"
            },
            {
              "internalType": "uint256",
              "name": "value",
              "type": "uint256"
            },
            {
              "internalType": "bool",
              "name": "auxExistence",
              "type": "bool"
            },
            {
              "internalType": "uint256",
              "name": "auxIndex",
              "type": "uint256"
            },
            {
              "internalType": "uint256",
              "name": "auxValue",
              "type": "uint256"
            }
          ],
          "internalType": "struct SmtLib.Proof",
          "name": "",
          "type": "tuple"
        }
      ],
      "stateMutability": "view",
      "type": "function"
    },
    {
      "inputs": [
        {
          "internalType": "uint64",
          "name": "revocationNonce",
          "type": "uint64"
        },
        {
          "internalType": "uint256",
          "name": "root",
          "type": "uint256"
        }
      ],
      "name": "getRevocationProofByRoot",
      "outputs": [
        {
          "components": [
            {
              "internalType": "uint256",
              "name": "root",
              "type": "uint256"
            },
            {
              "internalType": "bool",
              "name": "existence",
              "type": "bool"
            },
            {
              "internalType": "uint256[]",
              "name": "siblings",
              "type": "uint256[]"
            },
            {
              "internalType": "uint256",
              "name": "index",
              "type": "uint256"
            },
            {
              "internalType": "uint256",
              "name": "value",
              "type": "uint256"
            },
            {
              "internalType": "bool",
              "name": "auxExistence",
              "type": "bool"
            },
            {
              "internalType": "uint256",
              "name": "auxIndex",
              "type": "uint256"
            },
            {
              "internalType": "uint256",
              "name": "auxValue",
              "type": "uint256"
            }
          ],
          "internalType": "struct SmtLib.Proof",
          "name": "",
          "type": "tuple"
        }
      ],
      "stateMutability": "view",
      "type": "function"
    },
    {
      "inputs": [
        {
          "internalType": "uint64",
          "name": "revocationNonce",
          "type": "uint64"
        }
      ],
      "name": "getRevocationProofWithStateInfo",
      "outputs": [
        {
          "components": [
            {
              "internalType": "uint256",
              "name": "root",
              "type": "uint256"
            },
            {
              "internalType": "bool",
              "name": "existence",
              "type": "bool"
            },
            {
              "internalType": "uint256[]",
              "name": "siblings",
              "type": "uint256[]"
            },
            {
              "internalType": "uint256",
              "name": "index",
              "type": "uint256"
            },
            {
              "internalType": "uint256",
              "name": "value",
              "type": "uint256"
            },
            {
              "internalType": "bool",
              "name": "auxExistence",
              "type": "bool"
            },
            {
              "internalType": "uint256",
              "name": "auxIndex",
              "type": "uint256"
            },
            {
              "internalType": "uint256",
              "name": "auxValue",
              "type": "uint256"
            }
          ],
          "internalType": "struct SmtLib.Proof",
          "name": "",
          "type": "tuple"
        },
        {
          "components": [
            {
              "internalType": "uint256",
              "name": "state",
              "type": "uint256"
            },
            {
              "internalType": "uint256",
              "name": "claimsRoot",
              "type": "uint256"
            },
            {
              "internalType": "uint256",
              "name": "revocationsRoot",
              "type": "uint256"
            },
            {
              "internalType": "uint256",
              "name": "rootsRoot",
              "type": "uint256"
            }
          ],
          "internalType": "struct IdentityLib.StateInfo",
          "name": "",
          "type": "tuple"
        }
      ],
      "stateMutability": "view",
      "type": "function"
    },
    {
      "inputs": [
        {
          "internalType": "uint256",
          "name": "id",
          "type": "uint256"
        },
        {
          "internalType": "uint64",
          "name": "nonce",
          "type": "uint64"
        }
      ],
      "name": "getRevocationStatus",
      "outputs": [
        {
          "components": [
            {
              "components": [
                {
                  "internalType": "uint256",
                  "name": "state",
                  "type": "uint256"
                },
                {
                  "internalType": "uint256",
                  "name": "claimsTreeRoot",
                  "type": "uint256"
                },
                {
                  "internalType": "uint256",
                  "name": "revocationTreeRoot",
                  "type": "uint256"
                },
                {
                  "internalType": "uint256",
                  "name": "rootOfRoots",
                  "type": "uint256"
                }
              ],
              "internalType": "struct IOnchainCredentialStatusResolver.IdentityStateRoots",
              "name": "issuer",
              "type": "tuple"
            },
            {
              "components": [
                {
                  "internalType": "uint256",
                  "name": "root",
                  "type": "uint256"
                },
                {
                  "internalType": "bool",
                  "name": "existence",
                  "type": "bool"
                },
                {
                  "internalType": "uint256[]",
                  "name": "siblings",
                  "type": "uint256[]"
                },
                {
                  "internalType": "uint256",
                  "name": "index",
                  "type": "uint256"
                },
                {
                  "internalType": "uint256",
                  "name": "value",
                  "type": "uint256"
                },
                {
                  "internalType": "bool",
                  "name": "auxExistence",
                  "type": "bool"
                },
                {
                  "internalType": "uint256",
                  "name": "auxIndex",
                  "type": "uint256"
                },
                {
                  "internalType": "uint256",
                  "name": "auxValue",
                  "type": "uint256"
                }
              ],
              "internalType": "struct IOnchainCredentialStatusResolver.Proof",
              "name": "mtp",
              "type": "tuple"
            }
          ],
          "internalType": "struct IOnchainCredentialStatusResolver.CredentialStatus",
          "name": "",
          "type": "tuple"
        }
      ],
      "stateMutability": "view",
      "type": "function"
    },
    {
      "inputs": [
        {
          "internalType": "uint256",
          "name": "id",
          "type": "uint256"
        },
        {
          "internalType": "uint256",
          "name": "state",
          "type": "uint256"
        },
        {
          "internalType": "uint64",
          "name": "nonce",
          "type": "uint64"
        }
      ],
      "name": "getRevocationStatusByIdAndState",
      "outputs": [
        {
          "components": [
            {
              "components": [
                {
                  "internalType": "uint256",
                  "name": "state",
                  "type": "uint256"
                },
                {
                  "internalType": "uint256",
                  "name": "claimsTreeRoot",
                  "type": "uint256"
                },
                {
                  "internalType": "uint256",
                  "name": "revocationTreeRoot",
                  "type": "uint256"
                },
                {
                  "internalType": "uint256",
                  "name": "rootOfRoots",
                  "type": "uint256"
                }
              ],
              "internalType": "struct IOnchainCredentialStatusResolver.IdentityStateRoots",
              "name": "issuer",
              "type": "tuple"
            },
            {
              "components": [
                {
                  "internalType": "uint256",
                  "name": "root",
                  "type": "uint256"
                },
                {
                  "internalType": "bool",
                  "name": "existence",
                  "type": "bool"
                },
                {
                  "internalType": "uint256[]",
                  "name": "siblings",
                  "type": "uint256[]"
                },
                {
                  "internalType": "uint256",
                  "name": "index",
                  "type": "uint256"
                },
                {
                  "internalType": "uint256",
                  "name": "value",
                  "type": "uint256"
                },
                {
                  "internalType": "bool",
                  "name": "auxExistence",
                  "type": "bool"
                },
                {
                  "internalType": "uint256",
                  "name": "auxIndex",
                  "type": "uint256"
                },
                {
                  "internalType": "uint256",
                  "name": "auxValue",
                  "type": "uint256"
                }
              ],
              "internalType": "struct IOnchainCredentialStatusResolver.Proof",
              "name": "mtp",
              "type": "tuple"
            }
          ],
          "internalType": "struct IOnchainCredentialStatusResolver.CredentialStatus",
          "name": "",
          "type": "tuple"
        }
      ],
      "stateMutability": "view",
      "type": "function"
    },
    {
      "inputs": [],
      "name": "getRevocationsTreeRoot",
      "outputs": [
        {
          "internalType": "uint256",
          "name": "",
          "type": "uint256"
        }
      ],
      "stateMutability": "view",
      "type": "function"
    },
    {
      "inputs": [
        {
          "internalType": "uint256",
          "name": "rootsTreeRoot",
          "type": "uint256"
        }
      ],
      "name": "getRootProof",
      "outputs": [
        {
          "components": [
            {
              "internalType": "uint256",
              "name": "root",
              "type": "uint256"
            },
            {
              "internalType": "bool",
              "name": "existence",
              "type": "bool"
            },
            {
              "internalType": "uint256[]",
              "name": "siblings",
              "type": "uint256[]"
            },
            {
              "internalType": "uint256",
              "name": "index",
              "type": "uint256"
            },
            {
              "internalType": "uint256",
              "name": "value",
              "type": "uint256"
            },
            {
              "internalType": "bool",
              "name": "auxExistence",
              "type": "bool"
            },
            {
              "internalType": "uint256",
              "name": "auxIndex",
              "type": "uint256"
            },
            {
              "internalType": "uint256",
              "name": "auxValue",
              "type": "uint256"
            }
          ],
          "internalType": "struct SmtLib.Proof",
          "name": "",
          "type": "tuple"
        }
      ],
      "stateMutability": "view",
      "type": "function"
    },
    {
      "inputs": [
        {
          "internalType": "uint256",
          "name": "claimsTreeRoot",
          "type": "uint256"
        },
        {
          "internalType": "uint256",
          "name": "root",
          "type": "uint256"
        }
      ],
      "name": "getRootProofByRoot",
      "outputs": [
        {
          "components": [
            {
              "internalType": "uint256",
              "name": "root",
              "type": "uint256"
            },
            {
              "internalType": "bool",
              "name": "existence",
              "type": "bool"
            },
            {
              "internalType": "uint256[]",
              "name": "siblings",
              "type": "uint256[]"
            },
            {
              "internalType": "uint256",
              "name": "index",
              "type": "uint256"
            },
            {
              "internalType": "uint256",
              "name": "value",
              "type": "uint256"
            },
            {
              "internalType": "bool",
              "name": "auxExistence",
              "type": "bool"
            },
            {
              "internalType": "uint256",
              "name": "auxIndex",
              "type": "uint256"
            },
            {
              "internalType": "uint256",
              "name": "auxValue",
              "type": "uint256"
            }
          ],
          "internalType": "struct SmtLib.Proof",
          "name": "",
          "type": "tuple"
        }
      ],
      "stateMutability": "view",
      "type": "function"
    },
    {
      "inputs": [
        {
          "internalType": "uint256",
          "name": "rootsTreeRoot",
          "type": "uint256"
        }
      ],
      "name": "getRootProofWithStateInfo",
      "outputs": [
        {
          "components": [
            {
              "internalType": "uint256",
              "name": "root",
              "type": "uint256"
            },
            {
              "internalType": "bool",
              "name": "existence",
              "type": "bool"
            },
            {
              "internalType": "uint256[]",
              "name": "siblings",
              "type": "uint256[]"
            },
            {
              "internalType": "uint256",
              "name": "index",
              "type": "uint256"
            },
            {
              "internalType": "uint256",
              "name": "value",
              "type": "uint256"
            },
            {
              "internalType": "bool",
              "name": "auxExistence",
              "type": "bool"
            },
            {
              "internalType": "uint256",
              "name": "auxIndex",
              "type": "uint256"
            },
            {
              "internalType": "uint256",
              "name": "auxValue",
              "type": "uint256"
            }
          ],
          "internalType": "struct SmtLib.Proof",
          "name": "",
          "type": "tuple"
        },
        {
          "components": [
            {
              "internalType": "uint256",
              "name": "state",
              "type": "uint256"
            },
            {
              "internalType": "uint256",
              "name": "claimsRoot",
              "type": "uint256"
            },
            {
              "internalType": "uint256",
              "name": "revocationsRoot",
              "type": "uint256"
            },
            {
              "internalType": "uint256",
              "name": "rootsRoot",
              "type": "uint256"
            }
          ],
          "internalType": "struct IdentityLib.StateInfo",
          "name": "",
          "type": "tuple"
        }
      ],
      "stateMutability": "view",
      "type": "function"
    },
    {
      "inputs": [
        {
          "internalType": "uint256",
          "name": "state",
          "type": "uint256"
        }
      ],
      "name": "getRootsByState",
      "outputs": [
        {
          "components": [
            {
              "internalType": "uint256",
              "name": "claimsRoot",
              "type": "uint256"
            },
            {
              "internalType": "uint256",
              "name": "revocationsRoot",
              "type": "uint256"
            },
            {
              "internalType": "uint256",
              "name": "rootsRoot",
              "type": "uint256"
            }
          ],
          "internalType": "struct IdentityLib.Roots",
          "name": "",
          "type": "tuple"
        }
      ],
      "stateMutability": "view",
      "type": "function"
    },
    {
      "inputs": [],
      "name": "getRootsTreeRoot",
      "outputs": [
        {
          "internalType": "uint256",
          "name": "",
          "type": "uint256"
        }
      ],
      "stateMutability": "view",
      "type": "function"
    },
    {
      "inputs": [],
      "name": "getSmtDepth",
      "outputs": [
        {
          "internalType": "uint256",
          "name": "",
          "type": "uint256"
        }
      ],
      "stateMutability": "pure",
      "type": "function"
    },
    {
      "inputs": [],
      "name": "getTemplateRoot",
      "outputs": [
        {
          "internalType": "uint256",
          "name": "",
          "type": "uint256"
        }
      ],
      "stateMutability": "view",
      "type": "function"
    },
    {
      "inputs": [
        {
          "internalType": "address",
          "name": "_stateContractAddr",
          "type": "address"
        },
        {
          "internalType": "bytes2",
          "name": "idType",
          "type": "bytes2"
        }
      ],
      "name": "initialize",
      "outputs": [],
      "stateMutability": "nonpayable",
      "type": "function"
    },
    {
      "inputs": [
        {
          "internalType": "uint256",
          "name": "nullifierSeed",
          "type": "uint256"
        },
        {
          "internalType": "uint256[]",
          "name": "publicKeysHashes",
          "type": "uint256[]"
        },
        {
          "internalType": "uint256",
          "name": "expirationTime",
          "type": "uint256"
        },
        {
          "internalType": "uint256",
          "name": "templateRoot",
          "type": "uint256"
        },
        {
          "internalType": "address",
          "name": "anonAadhaarVerifier",
          "type": "address"
        },
        {
          "internalType": "address",
          "name": "_stateContractAddress",
          "type": "address"
        },
        {
          "internalType": "bytes2",
          "name": "idType",
          "type": "bytes2"
        }
      ],
      "name": "initialize",
      "outputs": [],
      "stateMutability": "nonpayable",
      "type": "function"
    },
    {
      "inputs": [
        {
          "internalType": "uint256",
          "name": "nullifier",
          "type": "uint256"
        }
      ],
      "name": "nullifierExists",
      "outputs": [
        {
          "internalType": "bool",
          "name": "",
          "type": "bool"
        }
      ],
      "stateMutability": "view",
      "type": "function"
    },
    {
      "inputs": [],
      "name": "owner",
      "outputs": [
        {
          "internalType": "address",
          "name": "",
          "type": "address"
        }
      ],
      "stateMutability": "view",
      "type": "function"
    },
    {
      "inputs": [],
      "name": "pendingOwner",
      "outputs": [
        {
          "internalType": "address",
          "name": "",
          "type": "address"
        }
      ],
      "stateMutability": "view",
      "type": "function"
    },
    {
      "inputs": [],
      "name": "proxiableUUID",
      "outputs": [
        {
          "internalType": "bytes32",
          "name": "",
          "type": "bytes32"
        }
      ],
      "stateMutability": "view",
      "type": "function"
    },
    {
      "inputs": [
        {
          "internalType": "uint256",
          "name": "publicKeyHash",
          "type": "uint256"
        }
      ],
      "name": "publicKeyHashExists",
      "outputs": [
        {
          "internalType": "bool",
          "name": "",
          "type": "bool"
        }
      ],
      "stateMutability": "view",
      "type": "function"
    },
    {
      "inputs": [],
      "name": "renounceOwnership",
      "outputs": [],
      "stateMutability": "nonpayable",
      "type": "function"
    },
    {
      "inputs": [
        {
          "internalType": "uint256",
          "name": "issuerDidHash",
          "type": "uint256"
        }
      ],
      "name": "setIssuerDidHash",
      "outputs": [],
      "stateMutability": "nonpayable",
      "type": "function"
    },
    {
      "inputs": [
        {
          "internalType": "uint256",
          "name": "templateRoot",
          "type": "uint256"
        }
      ],
      "name": "setTemplateRoot",
      "outputs": [],
      "stateMutability": "nonpayable",
      "type": "function"
    },
    {
      "inputs": [
        {
          "components": [
            {
              "internalType": "uint64",
              "name": "requestId",
              "type": "uint64"
            },
            {
              "internalType": "bytes",
              "name": "zkProof",
              "type": "bytes"
            },
            {
              "internalType": "bytes",
              "name": "data",
              "type": "bytes"
            }
          ],
          "internalType": "struct IZKPVerifier.ZKPResponse[]",
          "name": "responses",
          "type": "tuple[]"
        },
        {
          "internalType": "bytes",
          "name": "crossChainProofs",
          "type": "bytes"
        }
      ],
      "name": "submitZKPResponseV2",
      "outputs": [],
      "stateMutability": "nonpayable",
      "type": "function"
    },
    {
      "inputs": [
        {
          "internalType": "bytes4",
          "name": "interfaceId",
          "type": "bytes4"
        }
      ],
      "name": "supportsInterface",
      "outputs": [
        {
          "internalType": "bool",
          "name": "",
          "type": "bool"
        }
      ],
      "stateMutability": "view",
      "type": "function"
    },
    {
      "inputs": [
        {
          "internalType": "address",
          "name": "newOwner",
          "type": "address"
        }
      ],
      "name": "transferOwnership",
      "outputs": [],
      "stateMutability": "nonpayable",
      "type": "function"
    },
    {
      "inputs": [
        {
          "internalType": "address",
          "name": "newImplementation",
          "type": "address"
        },
        {
          "internalType": "bytes",
          "name": "data",
          "type": "bytes"
        }
      ],
      "name": "upgradeToAndCall",
      "outputs": [],
      "stateMutability": "payable",
      "type": "function"
    }
  ],
  "bytecode": "0x60a06040523060805234801561001457600080fd5b5061001d610022565b6100d4565b7ff0c57e16840df040f15088dc2f81fe391c3923bec73e23a9662efc9c229c6a00805468010000000000000000900460ff16156100725760405163f92ee8a960e01b815260040160405180910390fd5b80546001600160401b03908116146100d15780546001600160401b0319166001600160401b0390811782556040519081527fc7f505b2f371ae2175ee4913f4499e1f2633a7b5936321eed1cdaeb6115181d29060200160405180910390a15b50565b6080516130bf6100fd60003960008181611be001528181611c090152611d8901526130bf6000f3fe6080604052600436106102715760003560e01c80635d1ca6311161014f578063b8db6871116100c1578063e23a845a1161007a578063e23a845a146107cc578063e26ecb0b14610800578063e30c397814610820578063f2fde38b14610835578063f84c7c1e14610855578063ffa1ad741461086a57600080fd5b8063b8db687114610700578063c1e3273314610742578063c6365a3b14610762578063d49d5cdc14610777578063d94b027114610797578063da68a0b1146107b757600080fd5b8063aad7292111610113578063aad7292114610622578063ad3cb1cc14610642578063ade09fcd14610680578063b354c2d8146106a0578063b37feda4146106c0578063b57a40cb146106e057600080fd5b80635d1ca631146105a1578063715018a6146105b657806379ba5097146105cb5780638da5cb5b146105e05780639674cfa41461060d57600080fd5b80633d59ec60116101e85780634c240f34116101ac5780634c240f34146104d55780634f1ef286146104f5578063523b81361461050857806352d1902d1461051d578063552c9b7e1461053257806358ada6721461055257600080fd5b80633d59ec60146104575780633df432fc1461046c5780633f0c664814610481578063406e8b4c14610495578063443d7534146104b557600080fd5b806313e52ae71161023a57806313e52ae71461034f57806326485063146103645780632afab62f146103915780632c1d3204146103e35780632d5c4f2514610417578063310d0d5b1461043757600080fd5b806233058d1461027657806301c85c77146102ad57806301ffc9a7146102d0578063035dfdfe14610300578063110c96a714610322575b600080fd5b34801561028257600080fd5b506102966102913660046124f4565b61089b565b6040516102a49291906125b1565b60405180910390f35b3480156102b957600080fd5b506102c2610968565b6040519081526020016102a4565b3480156102dc57600080fd5b506102f06102eb3660046125f4565b6109ed565b60405190151581526020016102a4565b34801561030c57600080fd5b5061032061031b36600461261e565b610a24565b005b34801561032e57600080fd5b5061034261033d366004612637565b610ab5565b6040516102a49190612663565b34801561035b57600080fd5b506102c2610ae0565b34801561037057600080fd5b5061038461037f3660046124f4565b610af8565b6040516102a491906126b0565b34801561039d57600080fd5b506102f06103ac36600461261e565b60009081527fcb4c32479afd0d9095322a3f93b16fa02cb0bf6c78456f30d0d6005caa749706602052604090206002015460ff1690565b3480156103ef57600080fd5b507fcb4c32479afd0d9095322a3f93b16fa02cb0bf6c78456f30d0d6005caa749702546102c2565b34801561042357600080fd5b506103846104323660046126c3565b610b91565b34801561044357600080fd5b506103846104523660046126c3565b610c30565b34801561046357600080fd5b506102c2610c87565b34801561047857600080fd5b506102c2610c9a565b34801561048d57600080fd5b5060286102c2565b3480156104a157600080fd5b506103206104b0366004612714565b610cdd565b3480156104c157600080fd5b506102966104d036600461261e565b610d7a565b3480156104e157600080fd5b506103206104f036600461261e565b610df5565b61032061050336600461283e565b610e61565b34801561051457600080fd5b506102c2610e80565b34801561052957600080fd5b506102c2610e93565b34801561053e57600080fd5b5061032061054d3660046128d6565b610eb0565b34801561055e57600080fd5b506102f061056d36600461261e565b60009081527fcb4c32479afd0d9095322a3f93b16fa02cb0bf6c78456f30d0d6005caa749705602052604090205460ff1690565b3480156105ad57600080fd5b506102c2610f7f565b3480156105c257600080fd5b50610320610f89565b3480156105d757600080fd5b50610320610f9d565b3480156105ec57600080fd5b506105f5610fea565b6040516001600160a01b0390911681526020016102a4565b34801561061957600080fd5b506102c261101f565b34801561062e57600080fd5b5061034261063d366004612917565b611032565b34801561064e57600080fd5b50610673604051806040016040528060058152602001640352e302e360dc1b81525081565b6040516102a49190612970565b34801561068c57600080fd5b5061032061069b3660046129c6565b61124b565b3480156106ac57600080fd5b506103206106bb36600461261e565b611522565b3480156106cc57600080fd5b506102966106db36600461261e565b611596565b3480156106ec57600080fd5b506103846106fb36600461261e565b611611565b34801561070c57600080fd5b5061072061071b36600461261e565b61165f565b60408051825181526020808401519082015291810151908201526060016102a4565b34801561074e57600080fd5b5061038461075d36600461261e565b611707565b34801561076e57600080fd5b506102c2611757565b34801561078357600080fd5b50610320610792366004612b0e565b61176a565b3480156107a357600080fd5b506103206107b236600461261e565b611962565b3480156107c357600080fd5b506102c2611a4b565b3480156107d857600080fd5b507fcb4c32479afd0d9095322a3f93b16fa02cb0bf6c78456f30d0d6005caa749701546102c2565b34801561080c57600080fd5b5061038461081b366004612b9e565b611a8e565b34801561082c57600080fd5b506105f5611aed565b34801561084157600080fd5b50610320610850366004612bc8565b611b16565b34801561086157600080fd5b506102f0611b9b565b34801561087657600080fd5b5061067360405180604001604052806005815260200164312e302e3160d81b81525081565b6108a3612403565b6108ce6040518060800160405280600081526020016000815260200160008152602001600081525090565b6108d6611bb1565b604051631f17004d60e31b815260048101919091526001600160401b038416602482015273__$068aad146bf104111ba65c4a1de2cd0e23$__9063f8b80268906044015b600060405180830381865af4158015610937573d6000803e3d6000fd5b505050506040513d6000823e601f3d908101601f1916820160405261095f9190810190612cf9565b91509150915091565b6000610972611bb1565b60405163765c2c6160e01b8152600481019190915273__$068aad146bf104111ba65c4a1de2cd0e23$__9063765c2c61906024015b602060405180830381865af41580156109c4573d6000803e3d6000fd5b505050506040513d601f19601f820116820180604052508101906109e89190612d9d565b905090565b60006001600160e01b03198216635d1ca63160e01b1480610a1e57506301ffc9a760e01b6001600160e01b03198316145b92915050565b610a2c611bd5565b610a34611c7a565b60008181527fcb4c32479afd0d9095322a3f93b16fa02cb0bf6c78456f30d0d6005caa7497056020908152604091829020805460ff19166001179055905182815260008051602061304a833981519152917f192522987419be1c06ca88238df20a35b84c7a5025bbf1e244fac876d2d320ee91015b60405180910390a15050565b610abd61244c565b6000610ac7611bb1565b600101549050610ad8848285611032565b949350505050565b600060008051602061304a8339815191525b54919050565b610b00612403565b610b08611bb1565b604051637d0aba4f60e01b815260048101919091526001600160401b038316602482015273__$068aad146bf104111ba65c4a1de2cd0e23$__90637d0aba4f906044015b600060405180830381865af4158015610b69573d6000803e3d6000fd5b505050506040513d6000823e601f3d908101601f19168201604052610a1e9190810190612db6565b610b99612403565b610ba1611bb1565b60405163d55da6a360e01b81526004810191909152602481018490526044810183905273__$068aad146bf104111ba65c4a1de2cd0e23$__9063d55da6a3906064015b600060405180830381865af4158015610c01573d6000803e3d6000fd5b505050506040513d6000823e601f3d908101601f19168201604052610c299190810190612db6565b9392505050565b610c38612403565b610c40611bb1565b604051636ac0c5c760e11b81526004810191909152602481018490526044810183905273__$068aad146bf104111ba65c4a1de2cd0e23$__9063d5818b8e90606401610be4565b6000610c91611bb1565b60010154919050565b6000610ca4611bb1565b604051631b8bf99b60e21b8152600481019190915273__$068aad146bf104111ba65c4a1de2cd0e23$__90636e2fe66c906024016109a7565b610ce5611bb1565b6040516359a6069160e01b815260048101919091526001600160a01b0383166024820152306044820152602860648201526001600160f01b03198216608482015273__$068aad146bf104111ba65c4a1de2cd0e23$__906359a606919060a4015b60006040518083038186803b158015610d5e57600080fd5b505af4158015610d72573d6000803e3d6000fd5b505050505050565b610d82612403565b610dad6040518060800160405280600081526020016000815260200160008152602001600081525090565b610db5611bb1565b60405163a3018d7960e01b815260048101919091526024810184905273__$068aad146bf104111ba65c4a1de2cd0e23$__9063a3018d799060440161091a565b610dfd611c7a565b7fcb4c32479afd0d9095322a3f93b16fa02cb0bf6c78456f30d0d6005caa74970381905560405181815260008051602061304a833981519152907fb69b4c35c29def0ac05e4ac2258986b58de5ae03feeea1802c95f4e0b5794cf190602001610aa9565b610e69611bd5565b610e7282611cac565b610e7c8282611cbc565b5050565b6000610e8a611bb1565b609a0154919050565b6000610e9d611d7e565b5060008051602061306a83398151915290565b610eb8611bd5565b610ec0611c7a565b60008051602061304a83398151915260005b82811015610f79576001826005016000868685818110610ef457610ef4612dea565b90506020020135815260200190815260200160002060006101000a81548160ff0219169083151502179055507f192522987419be1c06ca88238df20a35b84c7a5025bbf1e244fac876d2d320ee848483818110610f5357610f53612dea565b90506020020135604051610f6991815260200190565b60405180910390a1600101610ed2565b50505050565b6000610af2611bb1565b610f91611c7a565b610f9b6000611dc7565b565b3380610fa7611aed565b6001600160a01b031614610fde5760405163118cdaa760e01b81526001600160a01b03821660048201526024015b60405180910390fd5b610fe781611dc7565b50565b6000807f9016d09d72d40fdae2fd8ceac6b6234c7706214fd39c1cd1e609a0528c1993005b546001600160a01b031692915050565b6000611029611bb1565b609b0154919050565b61103a61244c565b611042611bb1565b5484146110885760405162461bcd60e51b8152602060048201526014602482015273092c8cadce8d2e8f240d2c840dad2e6dac2e8c6d60631b6044820152606401610fd5565b6000611092611bb1565b604051630b1a9cd360e01b815260048101919091526024810185905273__$068aad146bf104111ba65c4a1de2cd0e23$__90630b1a9cd390604401606060405180830381865af41580156110ea573d6000803e3d6000fd5b505050506040513d601f19601f8201168201806040525081019061110e9190612e00565b604080516080810182528681528251602080830191909152830151818301529082015160608201529091506000611143611bb1565b6020840151604051630b2bcd1b60e11b815260048101929092526001600160401b0387166024830152604482015273__$068aad146bf104111ba65c4a1de2cd0e23$__906316579a3690606401600060405180830381865af41580156111ad573d6000803e3d6000fd5b505050506040513d6000823e601f3d908101601f191682016040526111d59190810190612db6565b6040805161010081018252825181526020808401511515818301528284015182840152606080850151908301526080808501519083015260a08085015115159083015260c0808501519083015260e093840151938201939093528151808301909252938152908101929092525095945050505050565b815160011461127a578151604051630264a11560e21b8152600481019190915260016024820152604401610fd5565b6000806000808560008151811061129357611293612dea565b6020026020010151602001518060200190518101906112b29190612e8f565b935093509350935060006040518060800160405280858152602001848152602001838152602001604051806101400160405280886000815181106112f8576112f8612dea565b602002602001015181526020018860018151811061131857611318612dea565b602002602001015181526020018860028151811061133857611338612dea565b602002602001015181526020018860038151811061135857611358612dea565b602002602001015181526020018860048151811061137857611378612dea565b602002602001015181526020018860058151811061139857611398612dea565b60200260200101518152602001886006815181106113b8576113b8612dea565b60200260200101518152602001886007815181106113d8576113d8612dea565b60200260200101518152602001886008815181106113f8576113f8612dea565b602002602001015181526020018860098151811061141857611418612dea565b60200260200101518152508152509050600061143f60008051602061304a83398151915290565b60048101549091506001600160a01b03168061146e576040516301dcf1ab60e31b815260040160405180910390fd5b806001600160a01b031663f3bb70f684600001518560200151866040015187606001516040518563ffffffff1660e01b81526004016114b09493929190612f6c565b602060405180830381865afa1580156114cd573d6000803e3d6000fd5b505050506040513d601f19601f820116820180604052508101906114f19190612ff1565b61150e5760405163b4b32e6f60e01b815260040160405180910390fd5b61151783611dff565b505050505050505050565b61152a611bd5565b611532611c7a565b7fcb4c32479afd0d9095322a3f93b16fa02cb0bf6c78456f30d0d6005caa74970281905560405181815260008051602061304a833981519152907ff007a02ba428e63fa98b65269e70f9a9db847e0a839049a2f31f06928226773490602001610aa9565b61159e612403565b6115c96040518060800160405280600081526020016000815260200160008152602001600081525090565b6115d1611bb1565b604051636ad1d8a760e11b815260048101919091526024810184905273__$068aad146bf104111ba65c4a1de2cd0e23$__9063d5a3b14e9060440161091a565b611619612403565b611621611bb1565b604051620cf08960e41b815260048101919091526024810183905273__$068aad146bf104111ba65c4a1de2cd0e23$__9062cf089090604401610b4c565b61168360405180606001604052806000815260200160008152602001600081525090565b61168b611bb1565b604051630b1a9cd360e01b815260048101919091526024810183905273__$068aad146bf104111ba65c4a1de2cd0e23$__90630b1a9cd390604401606060405180830381865af41580156116e3573d6000803e3d6000fd5b505050506040513d601f19601f82011682018060405250810190610a1e9190612e00565b61170f612403565b611717611bb1565b6040516397ac539160e01b815260048101919091526024810183905273__$068aad146bf104111ba65c4a1de2cd0e23$__906397ac539190604401610b4c565b6000611761611bb1565b609c0154919050565b6000611774611ed8565b805490915060ff600160401b82041615906001600160401b031660008115801561179b5750825b90506000826001600160401b031660011480156117b75750303b155b9050811580156117c5575080155b156117e35760405163f92ee8a960e01b815260040160405180910390fd5b845467ffffffffffffffff19166001178555831561180d57845460ff60401b1916600160401b1785555b6001600160a01b0388166118345760405163043103a360e21b815260040160405180910390fd5b6001600160a01b03871661185b57604051637eb887b360e01b815260040160405180910390fd5b6118658787610cdd565b61186e33611f01565b60008051602061304a8339815191528d81557fcb4c32479afd0d9095322a3f93b16fa02cb0bf6c78456f30d0d6005caa7497018b90557fcb4c32479afd0d9095322a3f93b16fa02cb0bf6c78456f30d0d6005caa7497028a90557fcb4c32479afd0d9095322a3f93b16fa02cb0bf6c78456f30d0d6005caa74970480546001600160a01b0319166001600160a01b038b1617905561190c8d8d610eb0565b50831561195357845460ff60401b19168555604051600181527fc7f505b2f371ae2175ee4913f4499e1f2633a7b5936321eed1cdaeb6115181d29060200160405180910390a15b50505050505050505050505050565b61196a611bd5565b611972611c7a565b60008181527fcb4c32479afd0d9095322a3f93b16fa02cb0bf6c78456f30d0d6005caa749706602052604090206002015460008051602061304a8339815191529060ff166119d3576040516327522baf60e01b815260040160405180910390fd5b6040805160608101825260008082526020808301828152838501838152878452600687018352928590209351845551600184015590516002909201805460ff19169215159290921790915590518381527fcc6269876e2c1958f569ca2e926ed364e2965636d111ad426270b6855f5a7e6a9101610aa9565b6000611a55611bb1565b604051631e75e7f360e01b8152600481019190915273__$068aad146bf104111ba65c4a1de2cd0e23$__90631e75e7f3906024016109a7565b611a96612403565b611a9e611bb1565b604051630b2bcd1b60e11b815260048101919091526001600160401b03841660248201526044810183905273__$068aad146bf104111ba65c4a1de2cd0e23$__906316579a3690606401610be4565b6000807f237e158222e3e6968b72b9db0d8043aacf074ad9f650f0d1606b4d82ee432c0061100f565b611b1e611c7a565b7f237e158222e3e6968b72b9db0d8043aacf074ad9f650f0d1606b4d82ee432c0080546001600160a01b0319166001600160a01b0383169081178255611b62610fea565b6001600160a01b03167f38d16b8cac22d99fc7c124b9cd0de2d3fa1faef420bfe791d8c362d765e2270060405160405180910390a35050565b6000611ba5611bb1565b6002015460ff16919050565b7f3018a310c36c4f8228f09bf3b1822685cf0971daa8265a58ca807c4a4daba40090565b306001600160a01b037f0000000000000000000000000000000000000000000000000000000000000000161480611c5c57507f00000000000000000000000000000000000000000000000000000000000000006001600160a01b0316611c5060008051602061306a833981519152546001600160a01b031690565b6001600160a01b031614155b15610f9b5760405163703e46dd60e11b815260040160405180910390fd5b33611c83610fea565b6001600160a01b031614610f9b5760405163118cdaa760e01b8152336004820152602401610fd5565b611cb4611bd5565b610fe7611c7a565b816001600160a01b03166352d1902d6040518163ffffffff1660e01b8152600401602060405180830381865afa925050508015611d16575060408051601f3d908101601f19168201909252611d1391810190612d9d565b60015b611d3e57604051634c9c8ce360e01b81526001600160a01b0383166004820152602401610fd5565b60008051602061306a8339815191528114611d6f57604051632a87526960e21b815260048101829052602401610fd5565b611d798383611f12565b505050565b306001600160a01b037f00000000000000000000000000000000000000000000000000000000000000001614610f9b5760405163703e46dd60e11b815260040160405180910390fd5b7f237e158222e3e6968b72b9db0d8043aacf074ad9f650f0d1606b4d82ee432c0080546001600160a01b0319168155610e7c82611f68565b60608181015180516020820151604083015193830151608084015160a085015160c086015160e0870151610100880151610120909801519698959795969495939492939192909190611e5888888b8d888b8b8989611fd9565b6040805160608101825289815260208082018a8152600183850181815260008f81527fcb4c32479afd0d9095322a3f93b16fa02cb0bf6c78456f30d0d6005caa7497069094529490922092518355519082015590516002909101805460ff1916911515919091179055611ecb8888612158565b5050505050505050505050565b6000807ff0c57e16840df040f15088dc2f81fe391c3923bec73e23a9662efc9c229c6a00610a1e565b611f09612213565b610fe781612238565b611f1b8261226a565b6040516001600160a01b038316907fbc7cd75a20ee27fd9adebab32041f755214dbc6bffa90cc0225b39da2e5c2d3b90600090a2805115611f6057611d7982826122cf565b610e7c612345565b7f9016d09d72d40fdae2fd8ceac6b6234c7706214fd39c1cd1e609a0528c19930080546001600160a01b031981166001600160a01b03848116918217845560405192169182907f8be0079c531659141344cd1fd0a4f28419497f9722a3daafe3b4186f6b6457e090600090a3505050565b60008051602061304a83398151915260008a900361200a57604051634978c15760e11b815260040160405180910390fd5b8860000361202b57604051639d34ba4f60e01b815260040160405180910390fd5b8054861461204c5760405163d2cee05560e01b815260040160405180910390fd5b80600201548314612070576040516381d6039360e01b815260040160405180910390fd5b806003015482146120945760405163fe0c887b60e01b815260040160405180910390fd5b60008160010154866120a6919061300c565b90508085146120d257604051633abb8c7960e11b81526004810182905260248101869052604401610fd5565b4285116120f25760405163b67a771360e01b815260040160405180910390fd5b600088815260058301602052604090205460ff16612123576040516356b6133160e11b815260040160405180910390fd5b600089815260068301602052604090206002015460ff1615611ecb57604051639338373760e01b815260040160405180910390fd5b612160611bb1565b6040516306fb157560e01b81526004810191909152602481018390526044810182905273__$068aad146bf104111ba65c4a1de2cd0e23$__906306fb15759060640160006040518083038186803b1580156121ba57600080fd5b505af41580156121ce573d6000803e3d6000fd5b505050506121da611bb1565b60405163175ba3e960e11b8152600481019190915273__$068aad146bf104111ba65c4a1de2cd0e23$__90632eb747d290602401610d46565b61221b612364565b610f9b57604051631afcd79f60e31b815260040160405180910390fd5b612240612213565b6001600160a01b038116610fde57604051631e4fbdf760e01b815260006004820152602401610fd5565b806001600160a01b03163b6000036122a057604051634c9c8ce360e01b81526001600160a01b0382166004820152602401610fd5565b60008051602061306a83398151915280546001600160a01b0319166001600160a01b0392909216919091179055565b6060600080846001600160a01b0316846040516122ec919061302d565b600060405180830381855af49150503d8060008114612327576040519150601f19603f3d011682016040523d82523d6000602084013e61232c565b606091505b509150915061233c85838361237e565b95945050505050565b3415610f9b5760405163b398979f60e01b815260040160405180910390fd5b600061236e611ed8565b54600160401b900460ff16919050565b6060826123935761238e826123da565b610c29565b81511580156123aa57506001600160a01b0384163b155b156123d357604051639996b31560e01b81526001600160a01b0385166004820152602401610fd5565b5080610c29565b8051156123ea5780518082602001fd5b60405163d6bda27560e01b815260040160405180910390fd5b6040518061010001604052806000815260200160001515815260200160608152602001600081526020016000815260200160001515815260200160008152602001600081525090565b60405180604001604052806124826040518060800160405280600081526020016000815260200160008152602001600081525090565b81526020016124d36040518061010001604052806000815260200160001515815260200160608152602001600081526020016000815260200160001515815260200160008152602001600081525090565b905290565b80356001600160401b03811681146124ef57600080fd5b919050565b60006020828403121561250657600080fd5b610c29826124d8565b805182526020808201511515818401526040808301516101009185018290528051918501829052600092019082906101208601905b808310156125675783518252602082019150602084019350600183019250612544565b50606085015160608701526080850151608087015260a0850151925061259160a087018415159052565b60c085015160c087015260e085015160e087015280935050505092915050565b60a0815260006125c460a083018561250f565b9050610c296020830184805182526020810151602083015260408101516040830152606081015160608301525050565b60006020828403121561260657600080fd5b81356001600160e01b031981168114610c2957600080fd5b60006020828403121561263057600080fd5b5035919050565b6000806040838503121561264a57600080fd5b8235915061265a602084016124d8565b90509250929050565b60208152612696602082018351805182526020810151602083015260408101516040830152606081015160608301525050565b6000602083015160a080840152610ad860c084018261250f565b602081526000610c29602083018461250f565b600080604083850312156126d657600080fd5b50508035926020909101359150565b80356001600160a01b03811681146124ef57600080fd5b80356001600160f01b0319811681146124ef57600080fd5b6000806040838503121561272757600080fd5b612730836126e5565b915061265a602084016126fc565b634e487b7160e01b600052604160045260246000fd5b604051606081016001600160401b03811182821017156127765761277661273e565b60405290565b60405161010081016001600160401b03811182821017156127765761277661273e565b604051601f8201601f191681016001600160401b03811182821017156127c7576127c761273e565b604052919050565b600082601f8301126127e057600080fd5b81356001600160401b038111156127f9576127f961273e565b61280c601f8201601f191660200161279f565b81815284602083860101111561282157600080fd5b816020850160208301376000918101602001919091529392505050565b6000806040838503121561285157600080fd5b61285a836126e5565b915060208301356001600160401b0381111561287557600080fd5b612881858286016127cf565b9150509250929050565b60008083601f84011261289d57600080fd5b5081356001600160401b038111156128b457600080fd5b6020830191508360208260051b85010111156128cf57600080fd5b9250929050565b600080602083850312156128e957600080fd5b82356001600160401b038111156128ff57600080fd5b61290b8582860161288b565b90969095509350505050565b60008060006060848603121561292c57600080fd5b8335925060208401359150612943604085016124d8565b90509250925092565b60005b8381101561296757818101518382015260200161294f565b50506000910152565b602081526000825180602084015261298f81604085016020870161294c565b601f01601f19169190910160400192915050565b60006001600160401b038211156129bc576129bc61273e565b5060051b60200190565b600080604083850312156129d957600080fd5b82356001600160401b038111156129ef57600080fd5b8301601f81018513612a0057600080fd5b8035612a13612a0e826129a3565b61279f565b8082825260208201915060208360051b850101925087831115612a3557600080fd5b602084015b83811015612aef5780356001600160401b03811115612a5857600080fd5b85016060818b03601f19011215612a6e57600080fd5b612a76612754565b612a82602083016124d8565b815260408201356001600160401b03811115612a9d57600080fd5b612aac8c6020838601016127cf565b60208301525060608201356001600160401b03811115612acb57600080fd5b612ada8c6020838601016127cf565b60408301525084525060209283019201612a3a565b50945050505060208301356001600160401b0381111561287557600080fd5b60008060008060008060008060e0898b031215612b2a57600080fd5b8835975060208901356001600160401b03811115612b4757600080fd5b612b538b828c0161288b565b9098509650506040890135945060608901359350612b7360808a016126e5565b9250612b8160a08a016126e5565b9150612b8f60c08a016126fc565b90509295985092959890939650565b60008060408385031215612bb157600080fd5b612bba836124d8565b946020939093013593505050565b600060208284031215612bda57600080fd5b610c29826126e5565b805180151581146124ef57600080fd5b600082601f830112612c0457600080fd5b8151612c12612a0e826129a3565b8082825260208201915060208360051b860101925085831115612c3457600080fd5b602085015b83811015612c51578051835260209283019201612c39565b5095945050505050565b60006101008284031215612c6e57600080fd5b612c7661277c565b825181529050612c8860208301612be3565b602082015260408201516001600160401b03811115612ca657600080fd5b612cb284828501612bf3565b6040830152506060828101519082015260808083015190820152612cd860a08301612be3565b60a082015260c0828101519082015260e09182015191810191909152919050565b60008082840360a0811215612d0d57600080fd5b83516001600160401b03811115612d2357600080fd5b612d2f86828701612c5b565b9350506080601f1982011215612d4457600080fd5b50604051608081016001600160401b0381118282101715612d6757612d6761273e565b60409081526020858101518352858201519083015260608086015191830191909152608090940151938101939093525092909150565b600060208284031215612daf57600080fd5b5051919050565b600060208284031215612dc857600080fd5b81516001600160401b03811115612dde57600080fd5b610ad884828501612c5b565b634e487b7160e01b600052603260045260246000fd5b60006060828403128015612e1357600080fd5b50612e1c612754565b82518152602080840151908201526040928301519281019290925250919050565b600082601f830112612e4e57600080fd5b612e58604061279f565b806040840185811115612e6a57600080fd5b845b81811015612e84578051845260209384019301612e6c565b509095945050505050565b6000806000806101208587031215612ea657600080fd5b84516001600160401b03811115612ebc57600080fd5b612ec887828801612bf3565b945050612ed88660208701612e3d565b925085607f860112612ee957600080fd5b6040612ef48161279f565b8060e0880189811115612f0657600080fd5b606089015b81811015612f2c57612f1d8b82612e3d565b84526020909301928401612f0b565b50819550612f3a8a82612e3d565b94505050505092959194509250565b8060005b6002811015610f79578151845260209384019390910190600101612f4d565b6102408101612f7b8287612f49565b604082018560005b6002811015612fad57612f97838351612f49565b6040929092019160209190910190600101612f83565b505050612fbd60c0830185612f49565b61010082018360005b600a811015612fe5578151835260209283019290910190600101612fc6565b50505095945050505050565b60006020828403121561300357600080fd5b610c2982612be3565b80820180821115610a1e57634e487b7160e01b600052601160045260246000fd5b6000825161303f81846020870161294c565b919091019291505056fecb4c32479afd0d9095322a3f93b16fa02cb0bf6c78456f30d0d6005caa749700360894a13ba1a3210667c828492db98dca3e2076cc3735a920a3ca505d382bbca26469706673582212209f7ad66cb8a3b302d8e187de32823db04052b9ae7683d295e0de1113f064a2ea64736f6c634300081b0033",
  "linkReferences": {
    "@iden3/contracts/lib/IdentityLib.sol": {
      "IdentityLib": [
        {
          "length": 20,
          "start": 2553
        },
        {
          "length": 20,
          "start": 2694
        },
        {
          "length": 20,
          "start": 3115
        },
        {
          "length": 20,
          "start": 3267
        },
        {
          "length": 20,
          "start": 3426
        },
        {
          "length": 20,
          "start": 3512
        },
        {
          "length": 20,
          "start": 3621
        },
        {
          "length": 20,
          "start": 3792
        },
        {
          "length": 20,
          "start": 4525
        },
        {
          "length": 20,
          "start": 4720
        },
        {
          "length": 20,
          "start": 5868
        },
        {
          "length": 20,
          "start": 5947
        },
        {
          "length": 20,
          "start": 6054
        },
        {
          "length": 20,
          "start": 6194
        },
        {
          "length": 20,
          "start": 7017
        },
        {
          "length": 20,
          "start": 7112
        },
        {
          "length": 20,
          "start": 8834
        },
        {
          "length": 20,
          "start": 8942
        }
      ]
    }
  },
  "deployedLinkReferences": {
    "@iden3/contracts/lib/IdentityLib.sol": {
      "IdentityLib": [
        {
          "length": 20,
          "start": 2300
        },
        {
          "length": 20,
          "start": 2441
        },
        {
          "length": 20,
          "start": 2862
        },
        {
          "length": 20,
          "start": 3014
        },
        {
          "length": 20,
          "start": 3173
        },
        {
          "length": 20,
          "start": 3259
        },
        {
          "length": 20,
          "start": 3368
        },
        {
          "length": 20,
          "start": 3539
        },
        {
          "length": 20,
          "start": 4272
        },
        {
          "length": 20,
          "start": 4467
        },
        {
          "length": 20,
          "start": 5615
        },
        {
          "length": 20,
          "start": 5694
        },
        {
          "length": 20,
          "start": 5801
        },
        {
          "length": 20,
          "start": 5941
        },
        {
          "length": 20,
          "start": 6764
        },
        {
          "length": 20,
          "start": 6859
        },
        {
          "length": 20,
          "start": 8581
        },
        {
          "length": 20,
          "start": 8689
        }
      ]
    }
  }
}